:1000000000800020BD010000C96A0000816A000074
:10001000816A0000816A0000816A0000816A000034
:10002000816A0000816A0000816A0000C96A0000DC
:10003000C96A0000816A0000098700000D8700007E
:10004000C96A0000C96A0000C96A0000C96A0000E4
:10005000C96A0000C96A0000C96A0000C96A0000D4
:10006000C96A0000C96A0000C96A0000C96A0000C4
:10007000C96A0000C96A0000C96A0000C96A0000B4
:10008000C96A0000C96A0000C96A0000C96A0000A4
:10009000C96A0000C96A0000C96A0000C96A000094
:1000A000E1640000ED640000C96A0000C96A000054
:1000B000C96A0000C96A0000C96A0000C96A000074
:1000C000C96A0000C96A0000C96A0000C96A000064
:1000D000C96A0000C96A0000C96A0000C96A000054
:1000E000C96A0000C96A0000C96A0000C96A000044
:1000F000C96A0000CD900000C96A0000C96A00000A
:10010000C96A0000C96A0000C96A0000C96A000023
:10011000C96A0000C96A0000C96A0000C96A000013
:10012000C96A0000C96A0000C96A0000C96A000003
:10013000C96A0000C96A0000C96A0000C96A0000F3
:10014000C96A0000C96A0000C96A0000C96A0000E3
:10015000C96A0000C96A0000C96A0000C96A0000D3
:10016000C96A000095730000C96A0000C96A0000EE
:10017000C96A0000C96A0000C96A0000C96A0000B3
:10018000C96A0000C96A0000C96A0000C96A0000A3
:10019000C96A0000C96A0000C96A0000C96A000093
:1001A000C96A0000C96A0000C96A0000C96A000083
:1001B000C96A0000C96A0000C96A0000564B4CF2C7
:1001C000205210B51A804DF628121A8000BF00BFC9
:1001D00006F07EFC514B4FF010621A60504A9A6054
:1001E000504ADA60504A136813F4807304D14F49BF
:1001F0000B604FF4A85313604D4B1A78110703D5C9
:100200001A7842F008021A704A4B4B492A221A7097
:100210004A4A4B4B8B4204D252F8040F43F8040B6A
:10022000F8E7484B484900228B4202D243F8042B9E
:10023000FAE74649464A002352F8230041F82300D2
:1002400001336F2BF8D1434B434A802103F8011B44
:100250009342FBD1414B3D4A1A60414B8A221A70AE
:10026000A3F5805324225A70A0221A709A7992071B
:10027000FCD59A79D406FCD43A4A937903F00C035E
:10028000082B384BF9D103221A7146225A719A79F8
:100290009006FCD5334A9179324B4906FBD5324A58
:1002A0004FF0827111600921516020221A709A79F1
:1002B00002F00C020C2AFAD12C4B2D4A1A602D4B5D
:1002C0002D4A1A6000225A60072243F8042C2B4A58
:1002D000C3F80C2D62B606F003FF144B1B68DA0757
:1002E00005D5274806F052FD264B274A1A60274BB2
:1002F0001B785B0609D5234C234B22689A4204D114
:100300001F4806F043FD002323600BF087F806F03A
:10031000E5FB08F0F1FAFEE70E20054030800440CE
:10032000823F04000100002B10D0034014D0034092
:1003300002D0074000E00740B4A8FF1FD011010021
:10034000308CFF1FB4A8FF1F1CBAFF1F0082FF1FC5
:100350000000000000E400E05FE400E008ED00E0E1
:1003600000500640004006404480044004800440A1
:10037000C010050014E000E0BFD401000000202000
:1003800080AC5C601CE00340A5C3945A00F00740B9
:10039000FFFFFFFFFFFFFFFFFFFFFFFFFFFFFFFF6D
:1003A000FFFFFFFFFFFFFFFFFFFFFFFFFFFFFFFF5D
:1003B000FFFFFFFFFFFFFFFFFFFFFFFFFFFFFFFF4D
:1003C000FFFFFFFFFFFFFFFFFFFFFFFFFFFFFFFF3D
:1003D000FFFFFFFFFFFFFFFFFFFFFFFFFFFFFFFF2D
:1003E000FFFFFFFFFFFFFFFFFFFFFFFFFFFFFFFF1D
:1003F000FFFFFFFFFFFFFFFFFFFFFFFFFFFFFFFF0D
:10040000FFFFFFFFFFFFFFFFFFFFFFFFDEF9FFFF23
:1004100010B5054C237833B9044B13B10448AFF33E
:1004200000800123237010BDB4A8FF1F000000004E
:10043000CC110100084B10B51BB108490848AFF3B7
:1004400000800848036803B910BD074B002BFBD0A0
:10045000BDE81040184700BF00000000B8A8FF1F0B
:10046000CC110100B4A8FF1F0000000010B584B03B
:100470000A4C0B4B02930B4A01924FF0FF3300934F
:100480002046094B2022802104F0F6FF074A084944
:10049000204604B0BDE8104009F0D4BFD0A8FF1F2B
:1004A000801A060040420F00BC9DFF1F0C8DFF1FED
:1004B000D154000030B5094C83B001252046009589
:1004C0002B463C22022105F059F920460221A5764F
:1004D00003B0BDE8304004F021BB00BFD0A8FF1F2F
:1004E00070B5CEB2044680E80600D5B2304602218F
:1004F00006F080FD0221284606F07CFD304606F01D
:100500006BFDA060284606F067FD0023E0602361D4
:100510006361204670BD00BF30B5044683B00078EB
:1005200006F05AFD0546207906F056FDA3689D4267
:10053000E36824D0984231D0A560E060ADB1A0B1AD
:100540002369012B37DD0023236101221E4B6169E2
:100550001B680193019B63615B1A132B32D9312B0A
:100560008CBF002301231BB201E00022134692B28C
:10057000002062F30F0063F31F4003B030BD9842C8
:10058000F3D02369A56085420CBF01224FF0FF32F2
:1005900013442361E060002DE7D0D0E72369A56014
:1005A000854214BF01224FF0FF3213442361E06003
:1005B000002DDAD0C3E7002201332261D5DA4FF0F3
:1005C000FF32C3E70223D2E770B6FF1F10B504461F
:1005D0000160C8B2022106F00DFD00234FF0FF318B
:1005E000032261602273A3602361204610BD00BF17
:1005F00010B5044682B0007806F0EEFC63689842BD
:100600001A4B08D01B680093009B60603233A360D4
:10061000002002B010BD1B680193A268019B9A42A2
:1006200009D8217B4A1E032A05D8DFE802F00F0211
:100630000707012818D0002002B010BD0028FAD109
:1006400003F2E243012023612073E2E730B1012885
:10065000F1D1032088422073DBD1ECE722699A4272
:10066000E9D202202073D4E70420F3E770B6FF1F1D
:10067000704700BF10B5184C636D1868036882B0EE
:10068000DB6947F612219847144B1B680193012040
:10069000019BC4F8003100FA00F200234FF6FF710D
:1006A000024384F8580084F8702084F85A3084F8A3
:1006B00059306366236684F8F83084F8753084F81E
:1006C000743084F8763084F87730C4F8FC30A16652
:1006D000E16602B010BD00BF38A9FF1F70B6FF1F52
:1006E00010B54FF60F0007F001FC044B5B6D186866
:1006F0000368F8211B68BDE81040184738A9FF1FA0
:1007000010B54FF60F2007F0F1FB044B5B6D186836
:100710000368FA211B68BDE81040184738A9FF1F7D
:1007200010B54FF60F4007F0E1FB044B5B6D186806
:100730000368FC211B68BDE81040184738A9FF1F5B
:1007400008B5002007F036FC003018BF012008BDB6
:100750002DE9F041E0290C469DF8185008D8013DDC
:10076000EDB20F2D02D849B2002912DBBDE8F081AD
:10077000F729FBD90834E4B2012303FA04F414F096
:10078000DD0FF3D0436D18680368BDE8F0411B68C6
:1007900018471F46436D8046186803682943C9B24D
:1007A0001B6816469847D8F854301868036806F056
:1007B0007F011B6804F0EF049847C02CD6D0D8F80E
:1007C00054301868036807F07F011B68BDE8F041EA
:1007D000184700BF2DE9F0415FFA82F80C0608F1D6
:1007E000FF3504F0FE4444F410442D02064605F49F
:1007F000706544F00904000482B02C4300F4FE004C
:100800000F46204307F072FBCDF80080FBB2F2B236
:1008100090210348FFF79CFF02B0BDE8F08100BFC4
:1008200038A9FF1F2DE9F0415FFA82F80C0608F1A4
:10083000FF3504F0FE4444F400442D02064605F45E
:10084000706544F00804000482B02C4300F4FE00FC
:100850000F46204307F04AFBCDF80080FBB2F2B20E
:1008600080210348FFF774FF02B0BDE8F08100BFAC
:1008700038A9FF1F2DE9F0415FFA82F80C0608F154
:10088000FF3504F0FE4444F430442D02064605F4DE
:10089000706544F00B04000482B02C4300F4FE00A9
:1008A0000F46204307F022FBCDF80080FBB2F2B2E6
:1008B000B0210348FFF74CFF02B0BDE8F08100BF54
:1008C00038A9FF1F036810B504460BB17430984770
:1008D00094F87530803B7F2B00F28580DFE813F0C1
:1008E0008A008300830083008300830083008300E9
:1008F00083008300830083008300830083008300E0
:1009000096008300830083008300830083008300BC
:1009100083008300830083008300830083008300BF
:100920009A00830083008300830083008300830098
:10093000830083008300830083008300830083009F
:100940009E00830083008300830083008300830074
:10095000830083008300830083008300830083007F
:10096000A200830083008300830083008300830050
:10097000830083008300830083008300830083005F
:10098000AC00830083008300830083008300830026
:10099000830083008300830083008300830083003F
:1009A000B000830083008300830083008300830002
:1009B000830083008300830083008300830083001F
:1009C000C4008000D100E10083008300E9008300BF
:1009D000ED00F100F500F900FD0083000101840045
:1009E000A36A002B60D110BD236D002BFBD0BDE8A6
:1009F00010401847A368002BF5D094F8772094F89E
:100A0000761094F87400BDE810401847E368002B96
:100A1000F3D1E8E72369002BEFD1E4E76369002B0A
:100A2000EBD1E0E7A369002BDDD094F8761094F8C1
:100A30007400BDE810401847E369002BF5D1D2E7F8
:100A4000226A002ACFD094F8771094F8763094F880
:100A50007400C90101F47E5103F07F031943A1F52D
:100A60000051BDE810401047636A002BBBD0B4F8BA
:100A70007610802904F1780028BF8021BDE810405D
:100A80001847E26A002AAED094F8773094F87600DE
:100A9000DB0103F47E5300F07F001843BDE81040F3
:100AA0001047236B002B9ED094F87600BDE81040D1
:100AB0001847636B002B9AD195E7A36B002B96D157
:100AC00091E7236C002B92D18DE7E36B002B8ED145
:100AD00089E7636C002B8AD185E7A36C002B86D154
:100AE00081E7E36C002B82D17DE700BFF8B5436D51
:100AF0000446186803681B69984708B90020F8BDC8
:100B000094F80D31626D23F0010384F80D31106803
:100B100003685B699847C3B2FD2BEFD0626E002A71
:100B200049D001067ED494F85B10F0295FD0F729F4
:100B30005DD0A11881F85B30216E4B1E9A4253D3D1
:100B400094F85B30F02B00F00A82F72B00F007825C
:100B50001A0650D4002284F87520B02A5CD0A02A4E
:100B60005AD0D02A58D0E02A56D0C02A54D00020DB
:100B700084F87400032994F85C0008BF94F85D5071
:100B800084F8760018BF002500210120B02A84F8DF
:100B900077506166216684F8F80008D000F2D581AC
:100BA000902A04D0A02A02D0802A00D0002384F802
:100BB00059300120F8BD94F8592084F85B301506AF
:100BC0004DD440B20028C0F20E8294F90D01636842
:100BD00040F0010084F80D0103B19847002084F82B
:100BE000590060662066F8BD0132626686E7A1188A
:100BF00081F87830A0E703F10C02D2B2012AA9D91A
:100C0000FD2BA7D0EF2B00F2EC8103F0F002802A3D
:100C100084F8752040F0EF8103F00F00013084F874
:100C20007400A7E7A3F1F0010F293FF67CAF012084
:100C300000FA01F111F0810540F0B18111F45F4F2C
:100C40003FF471AF84F8765084F8775084F874508C
:100C500084F87530C4F8FC0084F8F800F8BD02F19F
:100C60000C01CDB2012DACD9FD2AAAD0EF2A00F299
:100C7000578102F0F006802E40F0538140B20028E8
:100C8000A0DB0120C9B2814284F85B2084F85C308B
:100C900060669AD9FD2A98D0EF2A94BF02F0F00539
:100CA0001546A5F180037F2B8FD801A151F823F0C1
:100CB000190F0000CB0B0000CB0B0000CB0B00008A
:100CC000CB0B0000CB0B0000CB0B0000CB0B0000CC
:100CD000CB0B0000CB0B0000CB0B0000CB0B0000BC
:100CE000CB0B0000CB0B0000CB0B0000CB0B0000AC
:100CF000190F0000CB0B0000CB0B0000CB0B00004A
:100D0000CB0B0000CB0B0000CB0B0000CB0B00008B
:100D1000CB0B0000CB0B0000CB0B0000CB0B00007B
:100D2000CB0B0000CB0B0000CB0B0000CB0B00006B
:100D3000190F0000CB0B0000CB0B0000CB0B000009
:100D4000CB0B0000CB0B0000CB0B0000CB0B00004B
:100D5000CB0B0000CB0B0000CB0B0000CB0B00003B
:100D6000CB0B0000CB0B0000CB0B0000CB0B00002B
:100D7000190F0000CB0B0000CB0B0000CB0B0000C9
:100D8000CB0B0000CB0B0000CB0B0000CB0B00000B
:100D9000CB0B0000CB0B0000CB0B0000CB0B0000FB
:100DA000CB0B0000CB0B0000CB0B0000CB0B0000EB
:100DB000110F0000CB0B0000CB0B0000CB0B000091
:100DC000CB0B0000CB0B0000CB0B0000CB0B0000CB
:100DD000CB0B0000CB0B0000CB0B0000CB0B0000BB
:100DE000CB0B0000CB0B0000CB0B0000CB0B0000AB
:100DF000110F0000CB0B0000CB0B0000CB0B000051
:100E0000CB0B0000CB0B0000CB0B0000CB0B00008A
:100E1000CB0B0000CB0B0000CB0B0000CB0B00007A
:100E2000CB0B0000CB0B0000CB0B0000CB0B00006A
:100E3000190F0000CB0B0000CB0B0000CB0B000008
:100E4000CB0B0000CB0B0000CB0B0000CB0B00004A
:100E5000CB0B0000CB0B0000CB0B0000CB0B00003A
:100E6000CB0B0000CB0B0000CB0B0000CB0B00002A
:100E7000CF0E0000110F0000190F0000110F00002D
:100E8000CB0B0000CB0B0000B10E0000CF0E00001A
:100E9000B10E0000B10E0000B10E0000B10E000056
:100EA000B10E0000CB0B0000B10E0000B10E00002F
:100EB0000023012084F8743084F8763084F8773089
:100EC00084F875506366236684F8F800F8BD8021C5
:100ED0000023216684F8785084F859307F21636EAE
:100EE0008B422ED302F00F020023013294F85C10E3
:100EF00084F87420012084F8761084F8773084F820
:100F0000755063662366C4F8FC0084F8F800F8BDE9
:100F1000022323660121E2E7032323660221DEE7A1
:100F2000164606F0DF05902D3FF4A8AE06F0BF058B
:100F3000A02D3FF4A3AE06F0EF06C02E3FF49EAE08
:100F40003FE6013363660020F8BDD02A3FF42FAEA0
:100F5000E02A3FF42CAEC02A7FF428AE27E6F02228
:100F600080230025012194F8F76084F8752084F827
:100F7000763084F8F720C4F8FC30204684F87750A7
:100F800084F8745084F8F810FFF79CFCF7220223D1
:100F900084F8796084F8782028466366F8BD94F870
:100FA0007810F02902D0F7297FF40FAE551C2244A7
:100FB00000214FEA152E82F878300126F02784F8B8
:100FC000765084F877E084F8741084F8591030462D
:100FD000C4F8FC5084F875706166216684F8F86086
:100FE000F8BD1A46B7E503F10C02D2B2012A7FF62A
:100FF000ECAD1A4650E6902A3FF40EAEADE500BFC8
:1010000090F87030DA0718D513F0FE0F15D070B5D0
:1010100090F8755085F08002602A82B004460DD8A1
:1010200090F874608E4231D081B35B08012B32D0CE
:10103000032B00F09B8002B070BD7047A5F1F00358
:101040000F2BF8D801A252F823F000BF4311000083
:1010500021110000EF100000D31000003710000035
:1010600037100000AB10000037100000AB1000007C
:1010700037100000AB100000AB100000AB100000F8
:1010800037100000AB100000AB1000005B08012B14
:1010900001D0022BCFD194F8773094F876200096C7
:1010A00029462046FFF754FBC5E705F10803DBB2EC
:1010B000072BC0D8012202FA03F313F0DD0FBAD0D8
:1010C000636D1868036829461B6802B0BDE870406C
:1010D0001847436D90F8765018680368F3211B6831
:1010E0009847636D186805F07F010368ECE7436D6E
:1010F00090F87750186894F876200368F2211B68FE
:1011000042EAC5159847636D1868036805F07F01CA
:101110001B689847636D1868C5F3C6110368D3E769
:10112000436D90F87650186894F8773002682D0176
:1011300003F00F03126805F07005F1211D4390477D
:10114000BEE7B0F87660802E28BF802600F17805D3
:10115000002E3FF470AF2E44636D15F8011B186824
:1011600003681B689847B542F6D164E794F8773076
:1011700094F8762000962946FFF7EAFA5BE700BF6D
:1011800070B5174C94F85860102E02D900252846E7
:1011900070BD2046FFF7AAFC05460028F6D094F85B
:1011A0007530902B0CD083F08003602B0BD90C484A
:1011B000FFF788FB31460A48FFF722FF284670BD3B
:1011C00094F877303BB194F874309E42EFD0002E03
:1011D000EDD00025EEE7802384F87530F3E700BFFB
:1011E00038A9FF1FF8B5294C294F94F87030DFF863
:1011F000ACE0C7F800E00025012243F0010362F3F0
:1012000047034FF6FF76294604F17800802284F8E0
:101210007030676525606560A560E5602561656182
:10122000A561E56125626562A562E5622563656386
:10123000A563E56325646564A564E564256584F8B4
:10124000585084F8595084F85A5025666566A66649
:10125000E66684F8745084F8755084F8765084F803
:10126000775084F8F8500AF0E3FB2046C4F80051A8
:10127000C4F80451C4F8085184F80C5184F80D5195
:10128000044A0549BDE8F84009F0DCB838A9FF1F59
:1012900034A9FF1F0C8DFF1F71060000849FFF1FE4
:1012A00000207047704700BF10B5044603F00EFBE6
:1012B0000A2830D00D283DD04FF6FD73984201D951
:1012C000012010BD0346B4F94220B4F9401004F1E6
:1012D000080003F0DFFA94F82230032BF0D8DFE89F
:1012E00003F0140E0802B4F84230181AA4F84200B1
:1012F000E6E7B4F84030181AA4F84000E0E7B4F884
:1013000042301844A4F84200DAE7B4F840301844F8
:10131000A4F84000D4E794F9333094F93410B4F8C9
:1013200042205B1A13440022A4F84230A4F8402063
:10133000012010BD0023A4F84030012010BD00BFE3
:1013400010B5183809F0C6FD09490A4C09F016FE17
:1013500007F09CFF09F0D8FF01212060172005F05D
:1013600035FE21682820BDE8104005F021BD00BFF2
:101370009075924238B1FF1F2DE9F0471546002ABB
:1013800063D004460F46DFF8C88000264FF6FD798B
:1013900000F1080A0BE003F099FA0A2825D00D287D
:1013A00032D0484511D90120013D06440AD02368B6
:1013B00017F8011B1B6843452046ECD09847013DB8
:1013C0000644F4D13046BDE8F0870346B4F9422024
:1013D000B4F94010504603F05DFA94F82230032B24
:1013E000E1D8DFE803F02B241D1694F9333094F98B
:1013F0003410B4F842205B1A13440022A4F842309F
:10140000A4F840200120CFE70023A4F840300120B9
:10141000CAE7B4F84230181AA4F842000120C3E722
:10142000B4F84030181AA4F840000120BCE7B4F822
:1014300042301844A4F842000120B5E7B4F8403027
:101440001844A4F840000120AEE71646BAE700BFF2
:10145000A912000070B50B4D2B68984204460ED3BC
:10146000094EE41AFFF73CF933682B6005F0C8FD1C
:101470000146064802F02EFB2B68A342F1D91B1B44
:101480002B6070BD4CB1FF1FB0B1FF1F68B4FF1FD0
:101490000B4B70B553F820500A4E0B4B56F82010EA
:1014A0001A6804462846FFF7E5F908480849094A3A
:1014B00056F8243040F824300D60136070BD00BF32
:1014C00024C1000088AAFF1FB89DFF1FB0AAFF1FFC
:1014D000648DFF1FCCAAFF1F2DE9F84F3A4C3B4FFC
:1014E0003B4E3C4DDFF81891DFF81881DFF818A16A
:1014F00022204FF0000BC0B205F0DEF90346014692
:1015000020682B6002F0C4FF2068D9F80020C16A6F
:10151000D8F800308A424FDC8B42D4BFC2EB0301C3
:10152000C2EB01019B1AB3F5804FAABF8903C1EB3F
:101530008131013391FBF3F390F834102B60DB1110
:1015400046F8043B00292DD0DAF80010032929D8E9
:10155000DFE801F0220202221F4A117881B31F4AFC
:101560001178F9B11E4A1F4952F82B200A601E4813
:101570001E49C0F800B0BBF1040F0B600CD01C4832
:101580001C49006809681C4A01EB00100BF10301BB
:1015900001EBC00142F821305846FFF779FF174BA5
:1015A000012119700BF1010BBBF1050F04F10404CB
:1015B00004D057F8040F9EE70021B3E7BDE8F88F89
:1015C0005846FFF765FFEDE7D0AAFF1FF0C0000007
:1015D00088AAFF1F84AAFF1FC9AAFF1FA0AAFF1F76
:1015E00024C10000648DFF1FACAAFF1FCCAAFF1FFF
:1015F000BCB1FF1F74B1FF1FA08DFF1F1CAFFF1FE9
:10160000C0AEFF1F688DFF1F44B1FF1F08B50A4B16
:101610001A783AB91146094802F034FD084B012204
:101620001A7008BD074A0548002102F02BFD044B43
:1016300001221A7008BD00BF50B1FF1F4CAAFF1F46
:101640007EB1FF1F4040BF002DE9F04FA24BA34CDD
:10165000196883B00646084609F088FB09F07AFE4F
:101660009F49A04A0B680093009B156820605B1B94
:10167000984208D89C480968037801910199116043
:1016800083F001030370DFF8ACA29AF80010002980
:1016900049D0954B1B78002B40F0F780934C237872
:1016A000002B44D0924B1B68012B00F0E880022BEA
:1016B00040F0DF804D2200218E4802F0E3FC8E4B8B
:1016C0009B5D002B44D08D4BDFF86C8253F82630A5
:1016D000C8F800302378002B44D0894B1B78002BAE
:1016E00040D0DFF858B2874C874D01270EE02368C1
:1016F000BB4200F0BA802B680B33BB4200F08E80F7
:1017000002F0C0FC01371B2F00F091805BF82630FF
:1017100078480A33BB424FF00002B9B2E7DA002240
:10172000B9B27448ECE7714C2378002B6BD1774B3E
:101730001B78002BB6D06C4B1B78002BB2D0744AB0
:101740006C48002102F09EFC6B4B9B5D002BBAD1D4
:10175000704BDFF8E48153F82630C8F80030237866
:10176000002BBAD1F71C022501241FFA87F9DFF8F4
:10177000CCB108E00022A1B25E4802F083FC1B2D30
:1017800015D0013401355BF826300A33A342F1DB72
:10179000012C00F08E80022C7ED0A742EAD1D8F82E
:1017A00000205448494602F06DFC1B2DE9D15A4FE8
:1017B000DFF88C9107EB86170B25002410E0A3427D
:1017C00048D03B68012B3ED0544A4A48294602F093
:1017D00059FC01340135102CADB207F1040726D0B5
:1017E0005BF82630A342F4DDA20759F82630E6D094
:1017F000A34222D03B68012B25D0002229463D4838
:1018000002F040FCE5E7384B1B78002B3FF44AAF71
:1018100044F64D42374802F035FC50E7B9B2404A31
:101820003448013702F02EFC1B2F7FF46FAF3D4B85
:1018300001221A7003B0BDE8F08F9AF800206AB94F
:101840003B68012BDAD1D8F800202A48294602F05B
:1018500019FCBEE79AF80030002BB2D04FF400021A
:101860002946244802F00EFCB3E72F4A02F00AFC96
:1018700048E7002211461F4802F004FC1FE72A4AED
:101880001C48002102F0FEFB19E701220021194843
:10189000164C02F0F7FB12E7244B9B7813B1124B66
:1018A0001B7893B94FF680720221124802F0EAFBCE
:1018B00067E71E4B5B7813B10B4B1B782BB91C4AA7
:1018C0000C48012102F0DEFB5BE7002221460948BB
:1018D00002F0D8FB55E700BF18AFFF1F9CAAFF1FFF
:1018E00070B6FF1FC4AEFF1FE0B1FF1FC9AAFF1FE4
:1018F00044B1FF1F4CAAFF1F08ACFF1F48C00000E7
:10190000A0AAFF1F34B1FF1F74B1FF1FA8AAFF1FB9
:1019100000FF800004C1000034AFFF1F2020200022
:101920000080FF007EB1FF1F8080800068AAFF1F3B
:10193000FFFF800064AAFF1F48B1FF1F348DFF1F07
:101940009CAEFF1F10B550B904460121094802F0B2
:10195000B9FF21460748BDE8104002F0B5BF00219D
:10196000044802F0AFFF01210248BDE8104002F038
:10197000ABBF00BFD4AEFF1F70B5164C164B24682A
:1019800053F8203004EB440403EB84047F2C054619
:101990000AD9A9B2114A124802F074FB1149124A3D
:1019A00001230B70137070BD13461048104A50F895
:1019B0002300104E126800EB0313204646F8234024
:1019C000FEF708FFA4F11803352BE2D82046FFF7F5
:1019D000B7FCDEE7B8B1FF1FDCBF000080808000ED
:1019E0004CAAFF1F7EB1FF1F1CAFFF1F9CAEFF1F45
:1019F000B89DFF1F9CACFF1F104B114A1B6810B510
:101A0000044652F8200003EB430300EB83007F28D9
:101A100008D80C4B00211A68FEF704FF002117209C
:101A200005F0D4FAA1B20022074802F02BFB0749C7
:101A3000074A01230B70137010BD00BFB8B1FF1F20
:101A4000DCBF0000B89DFF1F4CAAFF1F7EB1FF1F27
:101A50001CAFFF1F2DE9F04F454F464A57F8203085
:101A60004FEA001808EB030183B052F82120541C00
:101A700073D0012A5BD1404ADFF81891DFF818A132
:101A80003E4C3F4E05461068DAF8002003EB001389
:101A900009EB43134801596859F800002160FEF72B
:101AA00099FE57F82530DAF800B043445B0159F845
:101AB0000310019105F0A4FA57F82530314A019935
:101AC000434409EB43141368A4685A4604FB030318
:101AD0002D48DFF8C8B001F0E7FF57F82500019561
:101AE000002408EB0003E21C02EBC30359F8235067
:101AF000002D29461EDB254BDAF8002053F8240080
:101B0000FEF7B8FE019B356057F823000134042C22
:101B100006F10406E5D180444FEA48121C4B59F8FF
:101B2000020043F82800A0F11803352B1BD903B09D
:101B3000BDE8F08F5BF8241033688B42E6D0134B7E
:101B4000DAF8002053F82400FEF794FE019A5BF8BF
:101B5000243057F822003360D8E70F2347F82030AD
:101B600003B0BDE8F08F03B0BDE8F04FFFF7E8BB6E
:101B70009CAEFF1F34AFFF1FBCB1FF1FB49DFF1F02
:101B800020AFFF1F14AFFF1F68B4FF1F24C1000068
:101B90009CACFF1FA08DFF1FB89DFF1FB0AAFF1FA9
:101BA0002DE9F041524C237853B1524B002003F100
:101BB000200143F8040F8B424FF00002F9D122704C
:101BC0004D4B1B68012B4DD0022B43D14B4B1B7847
:101BD000002B41D005F014FA494A1368984237D3D4
:101BE000484949480968036000240B44474DDFF821
:101BF0003081474F1360264615F8012F454B20468C
:101C00007AB958F824200F321340002B65DB03EB20
:101C1000041357F82320002AC8BF47F82360FFF7B2
:101C200019FF0134082CE7D13B4B1868FFF70CFD76
:101C3000304A3A4902F12004002552F8043F51F895
:101C4000040F013383421360A8BF1560A242F4D190
:101C5000BDE8F081BDE8F0812F4BBDE8F041186888
:101C6000FFF7F2BC254B1B78002BF5D005F0C8F927
:101C700023490A689042EBD3274D294C2868254B0D
:101C800054F820400F342340002B2BDB03EB0013D0
:101C90001F4C54F82360002EC4BF002644F8236074
:101CA000184B194C1B6822601A440A60FFF7D2FED9
:101CB0002868FFF7C9FC0F4A184902F120040025E3
:101CC00052F8043F51F8040F013383421360A8BF58
:101CD0001560A242F4D1BDE8F081013B63F00F032F
:101CE000013394E7013B63F00F030133CEE700BFFC
:101CF000B4B1FF1F98AEFF1F44B1FF1F64AAFF1FBE
:101D0000A8B1FF1F14AFFF1F40B1FF1F07ACFF1F9B
:101D10009CACFF1F0F000080BCB1FF1F308DFF1F68
:101D20009CAEFF1FF8B58E0006F10A0323F00703EF
:101D30000A44002900AFADEB030D92FBF1F301FB68
:101D4000132218DD6C46034600EB060E53F8045BC5
:101D500044F82250734502F1010292FBF1F501FBB8
:101D60001522F3D12346A119043853F8042B40F867
:101D7000042F8B42F9D1BD46F8BD00BF2DE9F047D5
:101D80003A4FBDF8206005468946384629469246B6
:101D9000984602F0E7FD97F9314080B2A4B2C0EB5B
:101DA0000803341B03EBD37304EBD47409EB630314
:101DB0000AEB640400222846A7F84030A7F8424006
:101DC00087F8462009F09CFE48B304463E464FF68D
:101DD000FD7801E0013C22D015F8011B234802F0F8
:101DE00075FD0A282FD00D283BD04045F2D8034678
:101DF000B6F94220B6F940101D4802F04BFD96F8A6
:101E00002230032BE6D8DFE803F018120C02B7F8F3
:101E10004230013CA3EB0000A7F84200DCD1BDE852
:101E2000F087B7F84030181AA7F84000D2E7B7F8A3
:101E300042301844A7F84200CCE7B7F840301844C5
:101E4000A7F84000C6E796F9333096F93410B6F893
:101E500042205B1A13440022A6F84230A6F8402024
:101E6000B8E70023A6F84030B4E700BFCCAEFF1FB0
:101E7000D4AEFF1F30B51B4C83B0012104F1080024
:101E800002F006FD04F10800174902F011FD0025DB
:101E900004F108000121A4F84050A4F8425084F84D
:101EA000465002F00FFD294604F1080002F00CFD37
:101EB0000E4B0F4A1B68126893420E4A127802D0EA
:101EC0001AB90D4804E0002AFBD00C4A52F823004E
:101ED0002023009314222C235621FFF74FFF03B039
:101EE00030BD00BFCCAEFF1F84F40000C4AAFF1FAA
:101EF00044B1FF1F3CB1FF1F9CC00000908DFF1F2D
:101F000070B5064684B010460D46FFF71BFD0A4B20
:101F10001C68033402A930460A22640009F0BEFAA4
:101F2000A4B269011623009322B209B202A82023A9
:101F3000FFF724FF04B070BDAC9DFF1FF8B5134E32
:101F4000074600257088002498B12304FF2293FBE4
:101F5000F0F02844114680B202F0BEF802F060F9B9
:101F6000A1B20246094802F08DF870880134A042FF
:101F7000EBDC064801F0A4FF05F58075384605F056
:101F800061F8B5F5803FDDD1F8BD00BF4CAAFF1F59
:101F90002DE9F047494BDFF83C81494E0FCB86B025
:101FA00006AC04E90F00474803F0BEFD002108F12C
:101FB000080002F06DFC45464FF0000A4148424CD3
:101FC00003F0B2FD1223002240494148A8F84030F6
:101FD000A8F8423088F846200FFA8AF902F068FC27
:101FE0004FF6FD7701E0B44222D014F8011B3948C6
:101FF00002F06CFC0A284FD00D285BD0B842F2D812
:102000000346B5F94220B5F94010314802F042FCD0
:1020100095F82230032BE6D8DFE803F038322C02A3
:10202000B8F84230B442A3EB0000A8F84200DCD17B
:102030002949274802F03CFC09F0030906AB03EBF1
:102040008909202359F8100C00930A225021FFF728
:1020500095FE1C4803F074FE0AF1010A642004F0A6
:10206000F1FFBAF1100FA9D1642006B0BDE8F04726
:1020700004F0E8BFB8F84030181AA8F84000B2E7FA
:10208000B8F842301844A8F84200ACE7B8F840303D
:102090001844A8F84000A6E795F9333095F93410B4
:1020A000B5F842205B1A13440022A5F84230A5F887
:1020B000402098E70023A5F8403094E7CCBF00000B
:1020C00096C00000D0A8FF1F90C0000038C20000DA
:1020D000D4AEFF1FCCAEFF1FF4CA00002DE9F047BD
:1020E0007E4CDFF860827E4F7E4EA0B004F080FC14
:1020F0002368029302987C4B22687C4903927C4AB5
:102100000860196811605968516099689160D968D0
:10211000D1601969116159699D695161D969754B1E
:102120009561D1617449754A03981A6000250122AE
:102130001D71DD6083F82250A3F84050A3F842508F
:1021400083F846501A8383F821200860236804939B
:102150006B4B049A1A6004F053FF23680593DDF873
:1021600014A023680693DDF8189023680793DDF820
:102170001CC023680893089923680993DDF824E0BC
:10218000604B22680A920A9A18605F4B20680B9095
:10219000D9600B9920680C905A610C9AC3F800A082
:1021A000C3F80490C3F808C0C3F810E09961DA617D
:1021B00022680D920D9A21680E91DDF838C02168D1
:1021C0000F91DDF83CE02168109110992068119082
:1021D0001198D4F80090CDF848901A62C3F824C042
:1021E000129AD4F800C0CDF84CC0D9621863139984
:1021F000206814905A63149AC3F828E09963DA634C
:1022000022681592159A21681691DDF858C0216848
:102210001791DDF85CE021681891189920681990F1
:102220001998D4F80090CDF868901A64C3F844C0A7
:102230001A9AD4F800C0CDF86CC0D96418651B99FF
:1022400020681C905A651C9AC3F848E09965DA65C5
:1022500022681D921D9A20681E901E9824681F9463
:1022600058662A4C1F981A6698662949294B246893
:10227000294A09681C602948294B12681A600160C4
:10228000084608F073FD09F065F80B22C8F8000055
:102290000C212448244CFEF723F929462348FEF755
:1022A00095F906220523019200933846204B214AD6
:1022B000214901F04BFC32463846204908F0C2F86B
:1022C000522320460E221B2101F0C6FE3246204634
:1022D0001B4908F0B7F820B0BDE8F08770B6FF1FC3
:1022E000E4AAFF1F0C8DFF1F348DFF1FC4AEFF1F1C
:1022F000C0B1FF1FCCAEFF1F5CB1FF1FBCBF000011
:10230000ACB1FF1F54B1FF1F28ACFF1F88AAFF1FED
:10231000608DFF1FCCAAFF1FB8B1FF1F98ACFF1F35
:1023200058B1FF1F10ACFF1F4CAAFF1F60B1FF1F69
:10233000548DFF1FA09DFF1F6C8DFF1F853B00006C
:10234000F93D00009CAAFF1F30B5124C83B000225B
:1023500001210A232046019100931146802302F0B7
:1023600045FC02252023204619460095002203F053
:10237000B5FC2046009520230022402103F0AEFC4E
:102380000095204620230022602103F0A7FC03B023
:1023900030BD00BFD0A8FF1F2DE9F043704EDFF81D
:1023A0000492704C83B006F108000121002502F070
:1023B0006FFA06F108006C4902F07AFAA6F840506C
:1023C000A6F8425086F84650FFF7BEFF294606F1B0
:1023D000080002F077FA06F10800012102F074FA11
:1023E0000722B9F9003086F84650A6F84020A6F832
:1023F00042303546A71C4FF6FD7801E0BC4224D0A0
:1024000014F8011B564802F061FA0A2800F0948083
:102410000D2800F09F804045F0D80346B5F94220D2
:10242000B5F94010514802F035FA95F82230032BE7
:10243000E4D8DFE803F07B756F02B6F84230BC42A7
:10244000A3EB0000A6F84200DAD1494B44481968D2
:1024500006F04AFAD9F8002046480A25023A12B294
:10246000202321210095FFF789FCD9F8002042485C
:102470000095023A12B220234121FFF77FFCD9F8E0
:1024800000203E480095023A12B220236121FFF756
:1024900075FC0121354802F0FBF93949334802F057
:1024A00007FA0121314802F00DFA00212F4802F00D
:1024B0000BFA344B002218681146FFF721FD324A0F
:1024C000324B1268324953F8223003EB02130022D8
:1024D00051F823000121FFF713FD2E4B1C68012C3E
:1024E0003CD11623009301942A46212360212A48D7
:1024F00002F07CFB294B1868002204300221FFF710
:10250000FFFC274B18682246032103B0BDE8F043C7
:10251000FFF7F6BCB6F84030181AA6F840006DE791
:10252000B6F842301844A6F8420067E7B6F84030E3
:102530001844A6F8400061E795F9333095F9341056
:10254000B5F842205B1A13440022A5F84230A5F8E2
:10255000402053E70023A5F840304FE70024C9E7A7
:10256000CCAEFF1F78C0000054FD0000D4AEFF1FAA
:10257000648DFF1F98C00000A0C00000A4C0000030
:102580006CEB0000CCAAFF1FBCB1FF1F9CAEFF1F6D
:102590009CACFF1FE4B1FF1FD0A8FF1FB8B1FF1F05
:1025A000B89DFF1FAC9DFF1F2DE9F041334E344F06
:1025B000DFF8EC8006F1080582B0284601210024EE
:1025C00002F066F928462F4902F072F9A6F8404059
:1025D000A6F8424086F84640FFF7B6FE2146284658
:1025E00002F070F92846012102F06EF93A68264897
:1025F0000A26023A12B2009620230121FFF7BEFB01
:102600003A6822480096023A12B220232121FFF7AD
:10261000B5FB3A681E480096023A202312B24121C7
:10262000FFF7ACFB2846012102F032F92846194990
:1026300002F03EF92846012102F044F921462846DD
:1026400002F042F9D8F80000224621460130FFF797
:1026500057FCD8F80010104B224653F821000121F6
:10266000FFF74EFC0D4B186808F04EFE2246022183
:1026700002B0BDE8F041FFF743BC00BFCCAEFF1F86
:10268000AC9DFF1F54FD000070C0000068C000003A
:1026900074C000006CEB0000348DFF1F608DFF1FC5
:1026A000BCB1FF1FF0B5364C364F83B004F10800C3
:1026B000012102F0EDF8002504F10800324902F092
:1026C000F7F8A4F84050A4F8425084F84650FFF7B9
:1026D0003BFE04F10800294602F0F4F804F108007A
:1026E000012102F0F1F83A6828480A26023A12B2AB
:1026F000294620230096FFF741FB3A6823480096BD
:102700002023023A194612B2FFF738FB3A681F48F5
:102710000096023A12B220234121FFF72FFB3A68BC
:102720001B480096023A202312B26121FFF726FBD4
:1027300004F10800012102F0ABF8164B1C68012CD3
:1027400009D11623009301943246212360211248B7
:10275000254602F04BFA1149114802F0A9F8114A36
:10276000114B11681B68114A03EB011302EB431371
:10277000032198682A4603B0BDE8F040FFF7C0BBCC
:10278000CCAEFF1FAC9DFF1F54FD00009CC000009D
:1027900068C0000048AAFF1FD0A8FF1F6CEB000014
:1027A000D4AEFF1FBCB1FF1F74B1FF1FA08DFF1F70
:1027B0002DE9F041012182B0494802F069F8494908
:1027C000474802F075F8484B1C68012C7BD0022C5E
:1027D0006CD0002C5DD00025A846444F444C38688E
:1027E000444E002211460130FFF78AFB3968424B04
:1027F000424653F821000121FFF782FB3F4B2A4656
:1028000018680221FFF77CFB04F10800012102F0A7
:102810003FF8002504F10800394902F049F8A4F80E
:102820004050A4F8425084F84650FFF78DFD2946E9
:1028300004F1080002F046F804F10800012102F05A
:1028400043F832682F480A24023A294612B200940B
:102850002023FFF793FA32682B4800942023023A92
:10286000194612B2FFF78AFA326828480094023AF1
:1028700012B220234121FFF781FA326824480094E4
:10288000023A12B220236121FFF778FA02B0BDE8C4
:10289000F081012616238DE848000B2221232021F8
:1028A0001C482546B04602F0A1F996E716220123FE
:1028B0008DE80C00602121230B221648002502F030
:1028C00095F9A84689E716238DE818000B222123E5
:1028D00040211048254602F089F94FF000087CE7B6
:1028E000D4AEFF1F6CEB0000A89DFF1FBCB1FF1F03
:1028F000CCAEFF1FAC9DFF1F348DFF1FC8AEFF1F66
:1029000054FD000070C0000068C00000A8C00000B6
:10291000ACC00000D0A8FF1F2DE9F04F9D4C9E4E8B
:1029200087B004F108000121002501F0B1FF4FF04C
:10293000010804F10800994901F0BAFFA4F84050D9
:10294000A4F8425084F84650FFF7FEFC40231422BE
:1029500029469348CDF8008003F08EF9294604F10A
:10296000080001F0AFFF414604F1080001F0ACFFA0
:1029700032688C480A27023A12B22946202300976F
:10298000FFF7FCF93268884800972023023A19467D
:1029900012B2FFF7F3F9326884480097023A12B294
:1029A00020234121FFF7EAF9326881480097023A73
:1029B000202312B26121FFF7E1F9414604F108003A
:1029C00001F066FF7B4B04951B68052B00F2DE804F
:1029D000DFE803F04E5C6A7A8A030B2301248DE85A
:1029E000180000252123152220216D4802F0FEF851
:1029F00003958DF81340029568496F486F4FDFF8D3
:102A0000C891DFF8C88101F053FF0DF1100A0024CE
:102A10004FF00B0BD8F80030D9F8002003EB02126E
:102A2000E31C03EBC20305A957F8230000284FF06D
:102A30000A0269DD08F032FD012CA4F102032846E8
:102A400000F09380032C62D0022B34BF2025002598
:102A5000FEF778FF3268CDF800B05200294612B276
:102A6000202305A8FFF78AF901341AF8015FD1E79E
:102A7000162301248DE818000A222123402148480A
:102A80000294002502F0B2F80395B5E7162301245D
:102A90008DE818000A222123602141480394002573
:102AA00002F0A4F80295A7E7012400210B220F46AB
:102AB0008DE8140021233A480391254602F096F848
:102AC0008DF81040029797E70B23012400210D4653
:102AD0008DE8180015222123314802F087F803956C
:102AE0008DF81140029587E70B2301248DE818002B
:102AF000002521230A222021294802F077F8039596
:102B00008DF81240029577E72D4B059394E7284600
:102B1000FEF718FF3268520020230B210B3212B24D
:102B200005A800911946FFF729F92649224801F026
:102B3000BFFED9F80020D8F8003003EB02135B0188
:102B4000029AF8580221FFF7DBF9D9F80020D8F8EB
:102B5000003003EB021307EB4317039A7868214612
:102B6000FFF7CEF907B0BDE8F08F2846FEF7EAFE82
:102B70003368CDF800B05B0003F10B0212B22023E2
:102B8000002105A80224FFF7F9F86EE70025039558
:102B9000029531E7CCAEFF1FAC9DFF1F54FD000036
:102BA000D0A8FF1FB4C00000BCC0000098C0000047
:102BB000C4C00000B09DFF1FD4AEFF1FA08DFF1F3B
:102BC0002D2D2D006CEB0000BCB1FF1F74B1FF1F59
:102BD0002DE9F04F904899B000F0DCFF04F010FAB6
:102BE0008E4B186004F00CFA8D4A13681060C01AFE
:102BF00004D08C4B1B78002B40F05A82FEF7D0FF9C
:102C0000894802F091FFFEF767FC8848FDF784FCD5
:102C100002B21290002A40F07281854B0093854BDE
:102C20000293854D854B0D93854B0193854F864BC4
:102C3000864C0C938648FDF7DBFC022800F0888167
:102C4000032800F0F381012800F0B581814B0F9338
:102C5000814EDFF81C82DFF8CC916F4801F054F808
:102C600000283FD06C4801F05BF8C0F30722D3B2D4
:102C7000012B5FFA80FA00F0C4802A68032A00F270
:102C80003A81DFE802F015020215002BE5D1BAF116
:102C9000000F18D0019B1B78ABB1D8F80030002B87
:102CA00011DD99F8003073B95046FEF7A5FE0AE031
:102CB000002BD2D1BAF1000FF6D1684B51461A68F9
:102CC0001920FDF7D7FD664A664B12681492149AD4
:102CD00043F82A205048002306F80A3001F014F87F
:102CE0000028BFD1604B3A68D3F800800C9B29685C
:102CF0001B680693029B5A4F1B7808935B4BDFF8C7
:102D000064E11B780793019B10911B780B93009B48
:102D10000A901B7803930D9B09901B78119304EB89
:102D200082122C3A059004900E90034601F1FF3B6D
:102D3000BA4642F20E79F15C002932D03C68159413
:102D4000159C5EF82350641BA0454FEA830C28D8DD
:102D5000DAF800401694169C651B4D4521D8BBF14E
:102D6000010F16D8DC1E072C40F29B840A2B10DDC5
:102D700010680B91B0FA80F4640908460A91079133
:102D800009910891059104910391A3F10B0114603D
:102D90000691396817911799A1F51C510F394EF812
:102DA0000C1001331B2B02F10402C4D10E9B002B2B
:102DB00040F02585049B002B40F01A85059B1BB134
:102DC0000C9B1A46069B1360099B23B1029B1A4673
:102DD0009DF8203013700A9B1BB1244B9DF81C20DA
:102DE0001A7020B1019B1A469DF82C301370109B6D
:102DF000032B00F27684DFE813F0C3045A045A046C
:102E0000C3042B6806F80A20032B3FF626AFDFE841
:102E100003F06231316200BFE4AAFF1F54B1FF1F0B
:102E2000A4AAFF1F64AAFF1FD0A8FF1F10ACFF1F9A
:102E30001CAFFF1FC9AAFF1F44B1FF1FA8AAFF1F95
:102E4000A0AAFF1FBCB1FF1F74B1FF1F34AFFF1F4B
:102E500060B1FF1F7EB1FF1F68AAFF1FB89DFF1F53
:102E600070B6FF1F28ACFF1F8C8DFF1FC8AAFF1F65
:102E700034B1FF1FBAF1000F74D0A64BA64A1B68ED
:102E80001393029B13991B7842F82A10AAF10B02A4
:102E9000002B00F0D880019BA0491B78002B00F08C
:102EA0006F810C9B3A681B689D499E4851F82AE047
:102EB00099F80010C8F800A003EB02135B0140F87A
:102EC00003E0994800230370002900F09782009ADC
:102ED00001231370C1E6BAF1000F40F0A080934BBC
:102EE00064211A681920FDF7C5FC914A137883F014
:102EF00001031370B1E6002B3FF4E5AEADE6BDF97A
:102F00004A308C4902FB03F3097803EB83039E18D4
:102F100000293DD0884A894B009313688849029163
:102F2000334488490D9183F302031360FEF7A2FF37
:102F3000009A8548854D864F864C01231370774B48
:102F40000193854B0C93FDF753FB02287FF478AE79
:102F5000784B824A0F9201261E70FEF78BFF009B72
:102F60001E7075E6029B1B78002B00F08780019B8A
:102F70001B7823B10C9BC8F800A0C3F800A00199EE
:102F800000230B7002990B70009B01221A7064E6FB
:102F90006B4B02931B78002B00F08D806B4D2B68E0
:102FA000012B00F09381022B00F0C082634B009351
:102FB000644B0D9338E6604A2B68126863489A4266
:102FC00000F0F4805B4E3178002900F07281644B90
:102FD00002604FF0000883F800801FFA88F1002299
:102FE000604808F1010801F04DF8B8F11B0FF4D169
:102FF0005A4B0F9319460122002333700A70FEF7D3
:1030000039FF2B68002B40F0DC80574A1368B3FA75
:1030100083F35B091360009A0123137018E6534B86
:103020003A6819685046FEF7A7FC16E62B68032B92
:103030007FF40CAE3D4B494A0F9200211A681A20CA
:10304000FDF718FC04E60D9B1B78002B44D1BAF168
:10305000010F00F0CF81BAF1020F3FF4FEADAAF1EB
:103060000303072B00F25481B278002A00F0D780C6
:103070003F49CA5C82F00102CA54EEE50D9B314A19
:103080001B78002B40D199F80030002B00F0148100
:10309000384889F800A000F03FFD374B89F800A0C0
:1030A000C3F800A0FDF73CFB324800F035FDD4E545
:1030B000FEF7D0F9A2E5234B0D931B78234D002B8F
:1030C00040F0B2802B68032B00F2D182DFE813F0CE
:1030D0007B01B200B2006A010AF1FF33012B7FF6D7
:1030E000BCADAAF10303072B40F29980BAF10A0F95
:1030F0007FF7B3AD214A3968AAF10A0042F82100EE
:10310000009A01231370A8E582F800A0009A012319
:103110001370A2E570B6FF1F28ACFF1FA0AAFF1F07
:10312000DCBF0000A08DFF1FC8AAFF1FB89DFF1FB6
:1031300050B1FF1F3CB1FF1FC4AAFF1F1CAFFF1FF0
:10314000C9AAFF1FA8AAFF1F60B1FF1F44B1FF1F3C
:10315000BCB1FF1F34AFFF1F74B1FF1F7EB1FF1F53
:1031600064AAFF1F4CAAFF1FE4B1FF1F5C8DFF1F65
:1031700008ACFF1F68B4FF1F78B1FF1F348DFF1F1D
:103180000AF1FF33012B7FF668ADAAF10303072B89
:1031900045D9BAF10A0F7FF760AD0C9802609E4ADC
:1031A00001231370009A0B70137056E59B4A117837
:1031B00000297ED000219A480F901170002B3FF417
:1031C00024AF032B00F02081012B7FF424AF029B5E
:1031D0001B78ABB1019B1B7893B1924B1B68002B02
:1031E00040F0BD81904E91483368013383FB00016C
:1031F0001944DA17C2EBA102C2EBC2029B1A336078
:103200000D9B1B78002B3FF406AF8949894B0A6858
:1032100001321340002BC0F29D810B60FBE63B6046
:10322000009B01221A7018E52B68012B53D0022B4A
:1032300040F01D82804C2768304607F04BFE39462F
:1032400007F094FD7D49064608F036F800286ED058
:103250007A4E7B4B394630461E6008F023F8002832
:1032600040F0C680266030467649774E774F784CDE
:1032700007F084FE0146774807F034FF08F06AF84B
:10328000754A76491060136803EB43035B000B60DB
:10329000106807F01BFE724907F070FE714B019336
:1032A000714B30600C93714B00931A4601231370DD
:1032B000C0E45B4A0F92A5E6012389F80030FDF7D0
:1032C0001FFA03F09DFE6A4B1860C6E4694B0D932C
:1032D0001B78002B33D0564B1B68002B40F04C81E1
:1032E0005A4FDFF8C0813A6858F822303344002B37
:1032F00040F36981102BA8BF10235F4948F82230A2
:1033000041F82230574B0193574B514C0C93CAE76D
:10331000BAF10A0F7FF7A1AC3B6802EB031254F835
:103320002230B3FA83F35B0944F8223095E4534921
:10333000304607F0DFFF00288BD0504E89E7494B1D
:1033400001931B78002B00F0AF80374B3F4F1B6879
:10335000991E032900F25181002A434A0C92C0F2BF
:103360006081062B40F05A81454C2368ABB9DFF8E9
:10337000B4804448D8F80030334483F30103072174
:10338000C8F8003005F09AF8D8F800103E4805F06B
:10339000ABFA3D4805F058FA2368012B00F06B8129
:1033A0002B4C80E7002AC0F2148121D0374B274FE5
:1033B0001A68274C7F211C20FDF75CFA294B0193EA
:1033C000294B0C936FE7324B1B68012B00F00781F0
:1033D000304B31491A681644042EA8BF04266FF0FA
:1033E00004008642B8BF0646B2420E6000D01E609E
:1033F000164F87E7294B83F800A02EE4284B504650
:103400001968FEF7B9FA62E5204B64211A681A20A0
:10341000FDF730FA2B68D7E6C8AAFF1F3CB1FF1FA3
:103420007EB1FF1FBCAEFF1FB09DFF1F93244992CA
:10343000A89DFF1F03000080608DFF1F0000204239
:1034400098ACFF1F0000C04118AFFF1FBCB1FF1FA9
:1034500034AFFF1FC0E1644CB0B1FF1F14AFFF1FBA
:10346000A69BC43BA0AAFF1F74B1FF1F1CAFFF1F88
:10347000A8B1FF1FA8AAFF1FC0B1FF1F00009643FD
:1034800048AAFF1FC8C000009C9FFF1FB89DFF1FD8
:10349000E4B1FF1FB8B1FF1F58B1FF1FB4B1FF1F48
:1034A0005C8DFF1F348DFF1F9A4C2768304607F054
:1034B00011FD394607F05AFC9749064607F0FCFE15
:1034C00000282CD19549304607F014FF00B1934EE7
:1034D000934B394630461E6007F0E4FE08BB914925
:1034E0002660304607F04AFD01468F488F4C904FCA
:1034F00007F0F8FD07F02EFF8E4A8F491060136821
:1035000003EB43035B000B60106807F0DFFC8B49A3
:1035100007F034FD8A4B20600C938A4CC3E67E4E44
:10352000D6E7874B824F874C0C93BCE6804FDFF881
:103530004C823A6858F822303344002B47DD102B78
:10354000A8BF1023804948F8223041F822307F4B31
:103550000D93D7E6013B63F0030301335DE6012BD6
:103560007FF44EAE7A490A6803F1004301321340FA
:10357000002B77DB0B6043E6012B7FF439AF754EF0
:103580006B4F3368DFF8F481002AACBF01224FF0A3
:10359000FF32134403F10F011E29336040F23681DC
:1035A000684C3A6858F82210C1F101029A4201F1C0
:1035B000FF310ADC8B42A8BF0B463360664B019398
:1035C0005F4B0C936FE6012397E61346F5E7012363
:1035D000B8E7624B564F1A685A4C0021EBE65F4A37
:1035E00011680E44002E03DD102E3346A8BF1023B1
:1035F0008B423FF4FDAE1360FAE6FBB9504B3A68DC
:103600000C931B685648524903EB02135A010B688E
:103610008158314481F307018150BEE64C4B1B6851
:10362000BBE6126839684E4802EB01115A1C02EBE6
:10363000C1024FF0FF3140F8221092E6012B40F01A
:10364000EF803F4B39681A680C93454B02EB01122F
:1036500003EB42113E4B4A681B68324482F3070277
:103660004A609AE6013B63F00103013382E73D4B78
:103670000093FFF7D9BA0C9A39681068384A0901E3
:103680000C1802EB4414A4682644002E03DD102E0F
:103690003346A8BF1023084402EB4012294C936024
:1036A00001E6049103910E911191FFF772BB009B0B
:1036B0001B78002B72D02C4B1B78002B68D1029BFF
:1036C0002A4C1B78002B77D0294B1B68002B7DD10F
:1036D000019B1B78002B40F088800D9B1B78002BF2
:1036E0006ED1009B1B78002B52D10F9B214C1B7875
:1036F000002B58D0204800F0E3FB00232370FDF797
:103700001FF800284FD1FDF73BFD0028FBD119B071
:10371000BDE8F08F608DFF1F00002042000096433F
:1037200098ACFF1F0000C041C0E1644C18AFFF1F00
:10373000BCB1FF1FB0B1FF1F14AFFF1FA69BC43B5E
:1037400074B1FF1F34AFFF1FC0B1FF1FA8AAFF1F36
:1037500048AAFF1FC8AEFF1FA0AAFF1FB89DFF1FEA
:10376000A08DFF1F1CAFFF1F3CB1FF1FC9AAFF1F89
:10377000BCAEFF1F7EB1FF1F4CAAFF1F348DFF1F81
:10378000FDF744FF009B1B7843B1274B1B78D3B157
:10379000264802F0D5FA009A002313700F9B244CA0
:1037A0001B78002BA6D1FCF7CBFF0028FBD1FDF73F
:1037B000E7FC0028A7D1AAE70D9B1E4D1B7863B13B
:1037C000FEF7F6FF8DE7FEF7E7FD8AE7012B84D1D0
:1037D000FEF768FF0D9B1B7881E7FEF7E5FE237877
:1037E000002B7FF471AF2B7879E7FFF795F874E73A
:1037F000009B1A469DF80C301370FFF7DFBA0D9B43
:103800001A469DF844301370FFF7D4BA38680A4C52
:1038100058F8201004EB8010FEF784FA3368C0E6F5
:10382000064A0C929DE500BF3CB1FF1FD0A8FF1FC8
:103830007EB1FF1FA8AAFF1F34AFFF1F74B1FF1F87
:1038400070B5184D82B0284602F06EF9B5F90C102B
:1038500001291FDD0022012694B2630068890196C8
:103860009BB2C91A09B2C31A1BB200910D48114686
:1038700001F03EFA0B4802F063FA012003F0E2FB8C
:10388000B5F90C10023401EBD17322B243F34F03AC
:103890009342E1DC4FF4FA7002B0BDE8704003F0EF
:1038A000D1BB00BFD0A8FF1F2DE9F047644A654B8C
:1038B0001268654CDFF8E881644FDFF8E8A182B058
:1038C0004FF084490192019A1A6003F099FB604B12
:1038D000186003F095FB5F4A5F4B10605F49186802
:1038E00007F04CFB01465E4807F0FCFB07F032FD99
:1038F0005C4A5D491060136803EB43035B000B6097
:10390000106807F0E3FA594907F038FB206003F02C
:1039100077FB574B186003F073FB564B18600D2074
:1039200002F096FF00242646382004F0EDFF524BAB
:1039300001220021054600F087FC4AF8246001348A
:103940004FF40053052C48F8045BC5F8109047F875
:10395000046B6B60E8D1FCF78DFE0121172003F0AA
:1039600049FB464E464F474C474D0C231846337093
:1039700003F01CFB307806F0ADFE02460B4600203B
:103980004FF0804105F0A6FC07F0CAF93F4B3880A4
:103990004022002128201A6003F00AFAFCF78AFD71
:1039A0002846A56002F0C0F8FFF74AFFC82003F0E0
:1039B00049FB284602F0B8F804F10800012100F0A4
:1039C00081FF002104F1080000F07EFFFEF7E0FA1D
:1039D0002F4800F067F92F4800F01EFA2D4800F03C
:1039E0006FFA32212B4800F0F1FB0024A1B22A4AE1
:1039F000284800F047FB274800F062FA0134052010
:103A000003F020FB1B2CF1D10520FEF797FA4FF4B1
:103A1000FA7003F017FB0022234611461D4800F000
:103A200037FB1C4800F04CFA642003F00BFB1648EF
:103A300002F086F9194B01221A7002B0BDE8F08736
:103A400070B6FF1FACB1FF1F18AFFF1F94B1FF1F6F
:103A500054B1FF1FA4AAFF1F608DFF1F0000C041CB
:103A6000C0E1644CB0B1FF1F14AFFF1FA69BC43B65
:103A7000A8B1FF1F40B1FF1F6F12833A94ACFF1F24
:103A80007CB1FF1FCCAEFF1FD0A8FF1F04ACFF1FEF
:103A9000E4AAFF1F4CAAFF1F808080001CAFFF1FFD
:103AA000D0AAFF1F80B1FF1F70B4002401E0202CBA
:103AB0000DD025010134465D002EF8D146190124B0
:103AC000445520467160F360B26070BC70470020BE
:103AD00070BC7047F8B50E4600F10C0400F5037594
:103AE000002702E01034AC4214D014F80C3C002B38
:103AF000F8D02368B342F5D814E905000021FCF79B
:103B000091FE0021172003F061FA103404F81C7CA8
:103B1000AC42EAD1F8BD00BF4FF0FF31FFF7DABF8A
:103B2000002308491A46CA541033B3F5007FFAD16E
:103B3000002305491A46CA541433B3F5207FFAD13D
:103B4000704700BF68B4FF1FE8B1FF1FF8B5044617
:103B50000E46154600214FF4807210301F4607F0C4
:103B600067FF069BC4F818310022079BC4F8102198
:103B700026606560A760C4F81C31E260C4F81421B7
:103B80002046F8BD10B50446C06808B107F090FCA7
:103B9000204610BD2DE9F843D0F81C31002B7EDD06
:103BA00004460025A3680121585D03F00FFAD4F8FC
:103BB0001C310135AB42F5DC002B6EDD0026B04632
:103BC0000127A3680021985D03F000FA4FF44873C1
:103BD000013BFDD1D4F81831002BC8BF4FF00009CC
:103BE0002EDC4EE0990724D5D4F81011D4F8140136
:103BF0000131C9B203F0FD03814243F0080306D04E
:103C0000D4F81001204480F81080C4F81011D4F8C2
:103C10001001D4F814110130C0B2884209D0D4F890
:103C2000101104EB010E2168495D8EF81010C4F8E4
:103C300010015355D4F8183109F101094B4520DD25
:103C40006368D4F81C5113F8090003F0C5F905FBAB
:103C50000965E268535DDBB20028C3D19807E8D458
:103C6000D4F81011D4F814010131C9B2814243F0E3
:103C70000603CCD0D4F8100120440774C4F8101106
:103C8000C5E7A3680121985D03F0A0F9D4F81C31C1
:103C90000136B34295DCBDE8F883BDE8F883BDE8A2
:103CA000F88300BF70B5D0F81851D0F81C610446F5
:103CB000012106FB05F007F06DFB002EE060C8BF98
:103CC000002510DDA3680121585D03F093F9A36876
:103CD0000121585D03F07AF9D4F81C310135AB426B
:103CE000F0DCD4F81851002DC8BF00250ADD636848
:103CF0000221585D03F07EF9D4F818310135AB424A
:103D0000F5DC70BD70BD00BFD0F81031D0F81401E3
:103D10001B1A4CBF03F5807018464010704700BF57
:103D2000D0F81421D0F810319A4220D0D0F81421C4
:103D3000D0F8143102440133DBB2117CC0F81431E5
:103D4000D0F81421D0F810319A4218D0D0F81421AC
:103D5000D0F8143102440133127CDBB2C0F81431C4
:103D60004FF0000062F3070061F30F207047D0F8B6
:103D70001421D0F810319A424FF0FF01E6D1FF2212
:103D80004FF0000062F3070061F30F20704700BF9F
:103D9000037AF0B5160C150AF6B2EDB25FFA82FEA0
:103DA0005BB103FB06F603FB05F503FB0EFEC6F352
:103DB0000726C5F30725CEF3072EC77C047CBC423B
:103DC00014D0C46804EB8101120E0F444BB9D3B276
:103DD0003B70077CCE55437CCD54837C01F803E0D7
:103DE000F0BD03FB02F3C3F30723F1E7C36801EB64
:103DF00041011944EEE700BF10B50446C06807F062
:103E000057FBB4F90600002803DBC0B2002103F021
:103E1000F1F8204610BD00BF10B50446B0F9060009
:103E2000002807DBC0B2012103F0E4F80021A079EB
:103E300003F0CCF80123637010BD00BF38B5044611
:103E4000C0680D4607F034FBE37C207C83420CBF46
:103E50000320042010FB05F080B2A080012107F0B0
:103E600099FAE06008B1658038BDA080608038BDF7
:103E7000F0B4077CC47CC568C1F38106FF29A4EBBC
:103E80000704C1F3811201F003074674B4FA84F405
:103E90008CBF00260126C1F30111C2746409877426
:103EA000067001744DB1511AB1FA81F14909A1426C
:103EB00003D04188F0BCFFF7C1BFF0BC704700BF22
:103EC0002DE9F843C368002B57D04569044603F039
:103ED00097F8854202D903F093F8606103F090F8F7
:103EE0006569401BB0F5967FF1D372B64649B4F9C7
:103EF00006500B684548464A50F83500E668A788E2
:103F0000257843F080730B60136843F00103374456
:103F10001360A5B3A1F55D41F8390A68BE4202F10C
:103F200096021FD289464FF0010C16F8018B4FF014
:103F3000080E80250B689B1A952BFBD918EA050FF4
:103F4000D9F8002080F880C055D00B689B1A5F2BF1
:103F5000FBD9BEF1010E80F800C14FEA5505E9D149
:103F6000B742E2D12B490B689B1A952BFBD962B65D
:103F700003F046F86061BDE8F883BDE8F8832549A1
:103F80000A68BE4202F5967220D289464FF0010CB3
:103F900016F8018B4FF0080E80250B689B1AB3F5BD
:103FA000967FFAD318EA050FD9F8002080F880C070
:103FB00018D00B689B1A8F2BFBD9BEF1010E80F82D
:103FC00000C14FEA5505E8D1B742E1D111490B686C
:103FD0009B1AB3F5967FFAD362B603F011F86061CD
:103FE000BDE8F8830B689B1A3B2BE6D80B689B1A3D
:103FF0003B2BF7D9E1E70B689B1A1D2BA9D80B685F
:104000009B1A1D2BF7D9A4E7FCED00E06C0F010013
:10401000001000E0041000E038B543786BB10446AE
:10402000B0F9060000280D4609DBC0B2002102F0FD
:10403000E1FF6378E5801BB938BDC18038BDE18000
:10404000EDB22846012102F0D5FF28460021BDE847
:10405000384002F0BBBF00BF70B5002504460E46D5
:10406000457019460572C56045611546FFF700FFAA
:1040700031462046FFF7E2FE20462946FFF7CCFFF7
:10408000204670BD43888B4201D9FFF781BE70473F
:10409000F8B514464288A24215D906460F469BB988
:1040A0001546134604E00134A4B2AC420BD2738827
:1040B000A342F8D9214601343A463046A4B2FFF76C
:1040C00067FEAC42F3D3F8BDE518ADB2954228BF08
:1040D0001546AC42E5D3F8BD40F2FA5303FB00F0BD
:1040E00000F500400014B0F5FF7F10B422DAFE287E
:1040F00044DDC0F1FE034C1CDBB204FB03F3C4EB54
:1041000004241B1224120020C943C9B201320C44FA
:104110000B44084402FB04F402FB03F304F47F4461
:104120001B0202FB00F244EA122003F47F0318434F
:1041300010BC7047B0F57F7F84B20DDAB4F53F7FD5
:1041400026D8831C4C1CDBB204FB03F3C4EB042411
:10415000181224120023D7E79C4225D040F2FA43DC
:104160009C4228D9C0F1FA004B1CC0B203FB00F0FE
:10417000C3EB032300121B120024C5E74B1CC0B283
:1041800003FB00F0C3EB032304121B120020BBE768
:10419000C0F1FC004B1CC0B203FB00F0C3EB0323D7
:1041A000041218120023AFE74B1CC3EB03230020BB
:1041B0001B120446A8E7031DDBB2481C00FB03F3F7
:1041C000C0EB00201B12001200249DE770B44E1CAF
:1041D000047AF6B2A64213D0013C14F0FF04C5687D
:1041E00010D183882A4653B1137804FB03F31B12C2
:1041F00002F8013B531B81889BB29942F4D80672A6
:1042000070BC7047FF2905D03302013B93FBF4F4E7
:10421000A4B2E6E74FF6FF7393FBF4F4E1E700BFC7
:1042200010B483B002AB074C43F8040D02A91A780E
:10423000A25C03F8012B8B42F9D1019803B010BCAA
:10424000704700BF38C100002DE9F04704460F4613
:104250004FF4806100264FF0814061605FFA87F87B
:1042600001214FF000092061217540463146C4F814
:10427000209084F8246092461D4602F0BBFE314631
:10428000404602F0A3FE276084F80CA028464FF0B9
:104290007E5107F02FF828B14FF07E55A5602046DB
:1042A000BDE8F0874946284607F006F80028F5D013
:1042B0004D46A5602046BDE8F08700BF037B2DE991
:1042C000F04704460D46002B41D0037D0846002BE5
:1042D00040F0988006F0FEFDD4F810800646A769ED
:1042E0003046394606F040FD0021054607F002F849
:1042F000002800F0C880284607F02CF8266A81467E
:104300003146284606F030FD604906F037FE31465A
:1043100006F02CFD00212062064606F0EBFF002887
:1043200000F0AE80414630464FF0010A06F0C4FF6F
:1043300008B94FF0000A84F824A04146304606F040
:10434000BBFF10B3384606F0DFFFBDE8F087A76972
:10435000084606F0BFFD394606F006FD0021054679
:1043600006F0C8FF002871D105F1004006F0F2FF09
:10437000266A81463146284606F0F6FC434906F097
:10438000FDFD314606F0F2FC2062484606F09EFD37
:10439000A16806F0F3FD4FF07E5106F0E7FC014600
:1043A0004FF07E5006F09EFE01464FF07E5006F024
:1043B000DBFC014606F0DAFC4FF07E51064606F0C3
:1043C00099FF00284AD04FF07E50294606F0D6FDCE
:1043D000394606F0CBFC00263146A061054606F0C2
:1043E0006BFF00283CD16068013806F073FD06467B
:1043F0000146284606F07EFF50BB284606F084FFA3
:10440000BDE8F08706F066FDD4F810804146064608
:1044100006F052FF40BB6768384606F05BFD414638
:1044200006F0A2FC0146304606F064FF00283FF487
:1044300056AFC7EB450006F04DFD414606F096FC31
:1044400006F062FF06F046FD064648E728468DE77F
:10445000A661304606F058FFBDE8F0873046B4E765
:10446000A6610020BDE8F087680006F033FD4146F4
:1044700006F07AFC06F048FF06F02CFD06462EE713
:1044800006F100464EE705F1004035E7CDCCCC3EC5
:10449000C36A10B504460363FFF710FF236BE062A5
:1044A0001B1A18BF012384F8343010BD4318405C38
:1044B0005B7803EB002080B2704700BF012B0BD06C
:1044C00007D3022B02D1801A00B27047401A00B203
:1044D0007047104400B27047084400B2704700BFF4
:1044E000012B0BD007D3022B02D1401A00B2704728
:1044F000104400B27047084400B27047801A00B2FE
:10450000704700BFF0B40D780668AB183478DBB2A2
:10451000072B44FA05F40AD9771C0760C5F1080592
:104520007078EDB200FA05F5083B2C43DBB20120B0
:104530009040E4B2013820400B70F0BC704700BFDF
:1045400010B50A460C4600F11001FFF7DBFF013CF5
:104550000123E4B203FA04F4001B40B210BD00BF13
:1045600070B505460023816005F8183F00F1080684
:10457000044690F8202029463046FFF7C3FF29461D
:10458000A07594F821203046FFF7BCFFE07570BDA0
:1045900010B50B7803704B7843708B788370CB78B1
:1045A000C3700B7903714B7943718B798371CB792C
:1045B000C3710B7A03724B7A43728B7A8372CB7A14
:1045C000C3720B7B03734B7B43738B7B8373CB7BFC
:1045D000C3730B7C037402460C4608461121FFF797
:1045E00065FF132150822046FFF760FF152190825E
:1045F0002046FFF75BFFD08210BD00BF70B49DF86E
:104600000C40BDF81050032C26D8DFE804F01E172C
:104610000C02006804680395A46BD21A0132A44608
:1046200012B270BC6047006806680395C3F10104CC
:104630002144F46B09B2A44670BC6047006804686A
:104640000395A46BA44670BC60470068046803959A
:10465000E46BA44670BC604770BC70472DE9F04F16
:1046600087B005460F4690F8148090F815A0059283
:104670000DE06B7E002B47D0A7420AF10103A7EBA8
:1046800004043AD3E7B25FFA83FA4FF0000895F8D2
:104690001A90B5F90E30AC7D03934FFA88F64FFAB5
:1046A0008AFB31464B465A46B5F90C00FFF718FF16
:1046B000C8EB0404E4B2A742049031464B463E46A0
:1046C0005A4628BF26460398FFF7F8FE002ED3D09F
:1046D000059B002BCDD0B5F810E0CDF80090334607
:1046E00002460499CDF804E02846FFF787FFA74269
:1046F0000AF10103A7EB0404C4D247442F7585F8DF
:1047000015B007B0BDE8F08FB5F812E0E5E700BFDF
:104710002DE9F047044600F10805FFF721FF94F862
:10472000221094F917902846FFF70AFF94F82310F7
:1047300007462846FFF704FF94F82410064628464B
:10474000FFF7FEFE94F91630002B82463ADD4E4408
:1047500094F81A80B4F90C00764276B23246434699
:104760003946FFF7BDFE3246A0814346B4F90E003C
:104770003946FFF7A3FE0023E0812375637504F13A
:104780001806A27F31462846FFF7BCFEE27F80462E
:1047900031462846FFF7B6FE07460022414620462E
:1047A000FFF75CFF012239462046FFF757FF012241
:1047B00031462846FFF7A6FE0028EED194F91530C1
:1047C0004B45DEDB5046BDE8F08700BF38B5436897
:1047D000FF2903F1170310D8602932D8402984BF7C
:1047E000C28D9B18587818B92AE00344587868B3EA
:1047F0001A788A42F9D1981C38BD428E1A440D4667
:10480000144610460021FFF751FE022104441046D1
:10481000FFF74CFE854202F10402F2D8207862785C
:1048200052EA00200CD0854202D10DE09D420BD00F
:10483000A3781C442078637853EA0023F6D1184605
:1048400038BD028E1344CDE7E01C38BD38BD00BF33
:1048500038B50446FFF7BAFFC0B104F108050146B8
:104860002046FFF77DFE94F822102846FFF768FEE9
:1048700094F8231084F834002846FFF761FE284698
:1048800094F82410BDE83840FFF75ABE38BD00BF89
:104890004176704710B58181C28119460446FFF701
:1048A00095FF20B101462046FFF732FF00B210BD50
:1048B00042688A4205D00022416042761C30FFF7F0
:1048C00067BE7047018270474182704719B94FF641
:1048D000FF710846704790F8463063B9FB291ED92E
:1048E000052301F0010180F84630A0F844104FF68E
:1048F000FE7108467047B0F8442001F03F0141EADC
:104900008211013BDBB289B24FF6FE72A0F844106F
:10491000002B18BF114680F8463008467047F7292B
:1049200005D9042301F0030180F84630DDE7EF29C3
:1049300005D9032301F0070180F84630D5E7DF29C8
:1049400005D9022301F00F0180F84630CDE7BF29D9
:1049500005D9012301F01F0180F84630C5E789B26F
:10496000B7E700BF00232DE9F04706461C464D1E61
:10497000837780F846309A4600F108084FF6FF77B3
:104980004FF6FE7915F8011F3046FFF79FFF0346EB
:10499000BB420146404608D04B45F3D0FFF758FFD5
:1049A000044424B20FFA80FAECE796F91E3033B1D2
:1049B00096F93C0003441C44CAEB040004B22046B0
:1049C000BDE8F0872DE9F04F85B09946BDF9387004
:1049D000BDF83CA0BB1AC1EB090B002BB8BF5B4272
:1049E000BBF1000FB8BFCBF1000B5B450D4616467F
:1049F0000093804648DC4D453A4633464CDC194628
:104A000013460A46C5EB09019B1A89B2002B0CB26A
:104A1000B8BF5B4204EBD474BE42ACBF4FF0FF3270
:104A200001224D45039102924FEA640429DC9BB2B6
:104A300001930DE0D8F80070BF69B847019BE41AF4
:104A4000A3B21CB20135002C2DB211DBA94518DB35
:104A5000009B5B452A46534631464046EADCD8F87F
:104A6000002053469769294632464046B847E5E755
:104A7000029A1644039AA94502EB030436B224B203
:104A8000E6DA05B0BDE8F08F4A462B46B946354612
:104A90004D4517461E46B2DD304629463E464D4638
:104AA00007468946AEE700BF10B404682469A446EF
:104AB00010BC604730B40468BDF808500295A46B80
:104AC000A44630BC604700BF30B40468BDF808504D
:104AD0000295E46BA44630BC604700BF70B4046824
:104AE000BDF90C60BDF8105003960495246CA446E3
:104AF00070BC6047704700BF10B582B0B0F90C20A1
:104B000001910168009200220C6CB0F90A30114644
:104B1000A04702B010BD00BF704700BF01F0030105
:104B20000129017606D0032904D0C2880389428175
:104B3000838170470289C38842818381704700BFA7
:104B40002DE9F0410568134E6F6986B0B7420446FF
:104B5000BDF8308010D1013B13441BB20093CDF857
:104B600004800B46AD6A2046A8472368DB6AB3423F
:104B70000AD106B0BDE8F081059304920391B847CD
:104B800003A925680EC9E6E7204606B0BDE8F04156
:104B9000184700BFF54A00002DE9F0410568124EA4
:104BA0006F6986B0B7420446BDF830800FD1013B33
:104BB000CDF804800B4400921BB2AD6A2046A84792
:104BC0002368DB6AB3420AD106B0BDE8F0810593E1
:104BD00004920391B84703A925680EC9E7E7204668
:104BE00006B0BDE8F0411847F54A00002DE9F04F46
:104BF0000568DFF858B06F6985B05F450646BDF9B6
:104C00003890BDF83CA00C46904615D11F19BC4207
:104C10000CDACDF800A0214601342D6A4B464246FD
:104C2000304624B2A847BC423568F2DBEB6A5B45EC
:104C300007D105B0BDE8F08F0393B8473568039BF3
:104C4000E4E7304605B0BDE8F04F1847F54A0000EC
:104C50002DE9F04387B099420546BDF93840BDF8CB
:104C60003C6025D0A24212D00768DFF88080D7F8D8
:104C70001490C14532D18DE850002846BC6AA04747
:104C80002B68DB6A434524D107B0BDE8F083994225
:104C900002DD08461946034628680E96C46B0133A8
:104CA0005B1A1BB22846A44607B0BDE8F043604734
:104CB000A24202DD134622461C4628680E96631C5B
:104CC000846B9B1A1BB22846A44607B0BDE8F0438C
:104CD0006047284607B0BDE8F043184705930492A3
:104CE0000391C84703A92F680EC9C4E7F54A00001D
:104CF0002DE9F04FD0F800E0DFF89090DEF814B026
:104D000083B0CB450446BDF93080BDF834A00D46D4
:104D100017461E4631D1CDF800A0DEF824B0294652
:104D200033463A462046D8472368CDF800A008F11C
:104D3000FF323A44D3F824B0294612B23346204613
:104D4000D8472368CDF800A02946D3F820B03A46CA
:104D500043462046D8472068CDF800A0711E29445C
:104D60004346056A09B23A462046A8472368DB6AEB
:104D70004B4506D103B0BDE8F08FD847D4F800E02A
:104D8000C9E7204603B0BDE8F04F1847F54A0000D8
:104D9000F0B4002401254FF6FF76094F0760047137
:104DA0000476C48104828476C461C57585754576B0
:104DB00086824682C180028141818281F0BC704737
:104DC000580401002DE9F04F87B01746BDF9404067
:104DD00000912546E91D059344BF2B4603F10E01C2
:104DE0000268BDF8486053690294C91003912B49C9
:104DF000BDF9444001968B42824645D1002C3CDDF2
:104E0000029B3C445E1EB6B24FF0000923B20493ED
:104E100001364D46029B002B28DD059B002403EB49
:104E2000090806E0EDB22B0604F1010411D4A642F4
:104E30001CD0A1B211F0070F23B24FEA4505F1D102
:104E4000002BB8BF0733DB10013418F803502B06D2
:104E5000EDD5009BD2F818B019443A4609B2019B2F
:104E60005046D847A642DAF80020E2D1039B01372A
:104E70009944049B3FB2BB42CCD1D36A074A9342C8
:104E800006D107B0BDE8F08F9847DAF80020B5E703
:104E9000504607B0BDE8F04F184700BFF54A000084
:104EA00070B4BDF90C60BDF91050BDF81440039604
:104EB0000495059470BCFFF785BF00BF2DE9F04F46
:104EC00091B083460591C169BDF8680006909DF8D0
:104ED0007400BDF86C709DF870A003900292994622
:104EE000002900F0CC800B7A48680A68C3EB0903FC
:104EF000DBB2154600EBC30230F83360D378099378
:104F0000BAF1010F92F9053092F802800E9392F9EE
:104F1000064079D9BDF93830089323B20B93A94BD9
:104F2000DBF800200F93194653698B4240F0A280B2
:104F3000099B002B53D0BDF808300C93002123446B
:104F400007910D930F460C46A946B8F1000F3FD0CC
:104F5000BDF81C100B9BBDF80C000297CB1813FB7F
:104F600000F30C9803440D981BB2014404930BB258
:104F70000A93002505E00135EBB264009845E4B2E0
:104F800023D9029B2B44590703D1731C19F80640FF
:104F90009EB22306EFD5089BE918059B11FB0AF189
:104FA000BAF1010F194402D1039B012B1ED0069BBD
:104FB0000193039B0093D369049A1F4609B2534699
:104FC0005846B847DBF80020D5E7029F4744FFB2B8
:104FD000079B099901330793DBB29942B5D8D36A8D
:104FE0000F9A934241D111B0BDE8F08F0E9B059905
:104FF000591893690A9A29441F4609B2069B5846D4
:10500000B847DBF80020B6E7039B012B82D80023CA
:105010000B93089383E70799099A0131013A49B242
:1050200012F0FF020791099260D1069A4A454F4655
:1050300017D0BAF1010F03D1039A012A00F0B5800D
:105040000A9A089802EB8201039AD2008DE8840044
:10505000084401B2DC69029A53465846A047DBF87F
:105060000030DB6A0F9A9342BDD0584611B0BDE8BC
:10507000F04F184758469847DBF8002058E7BBF92F
:105080000A3005998B42AEDDBBF90C3002988342A1
:10509000A9DD062313FB0A13002BA4DD039B00EB01
:1050A000C303002B9FDD9BF81A3033B9B9F1AF0F62
:1050B00084BF09F101035FFA83F9424ADBF800304B
:1050C0000F9211465A698A426AD1BDF8142008929B
:1050D00005220992002207921FFA8AF20A92CDF85D
:1050E00030900FFA8AF2B946039F05920799BDF8EE
:1050F0003040089D0522104610FB04120A98324CDD
:105100000646084601FB0651A65C15FA80F209B274
:1051100012B204910B92082400251CE0BAF1010F91
:1051200001D1012F24D0069A0192029A009705FB23
:105130000722D3F81C800499059B12B25846C04739
:10514000DBF80030013C013514F0FF046DB24FEA8A
:1051500056063FF460AFF007E0D4069A4A45F1D016
:10516000BAF1010F01D1012F0ED0CDF80490DCE788
:10517000029AD3F818800B99069BAA1812B25846C7
:10518000C047DBF80030DDE7029AD3F818800B99AE
:10519000AA184B4612B25846C047DBF80030D1E798
:1051A00058469047DBF800308FE70899CDF800901B
:1051B00005311C6A029A082309B25846A047DBF859
:1051C00000304EE7F54A0000A8040100F0B5C369BD
:1051D00085B004463BB30A296FD00D294FD01A7A07
:1051E00091424CD3987A884249D38A1A5D68D2B2E8
:1051F00005EBC205AA78002A56D0E878002853D0DB
:10520000607E00283ED095F905E0B4F90E00A67D39
:10521000B4F90A70724406FB0202BA4269DCE77D07
:10522000B4F9102034E00A295CD00D2927D0427E41
:10523000002A50D0B0F90E00A57DB4F90A6006220C
:1052400012FB0502B242E67D42DD228AE38102EBD7
:10525000C60212B218462282B4F814E0678A039696
:105260000B46029501468DE880402046FFF726FE5A
:10527000A37DE28903EB430302EB4303E3810120B7
:1052800005B0F0BDA67DE77DB4F90E00B4F910209D
:10529000B4F814E00397678A02960B468DE88040C5
:1052A00001462046FFF70AFE2979E389A27D012005
:1052B00001FB0233E38105B0F0BD0022C2811A7BFD
:1052C000C17D038A01FB02330382012005B0F0BDDA
:1052D000B4F91020C0E7857DC67DB4F91020B0F97F
:1052E0000E00B9E7028AC17DC38102EBC1030382CC
:1052F000C5E70020E0811B7B228AE77D03FB0722B4
:1053000012B22282C4E700BFF0B50C1EBDF81460D3
:1053100034DBB0F906701919B942C4BF3B1B1BB28C
:10532000002BA6461CDD002A1146B8BFD11D02F095
:105330000705CC10826A012007FB04E1A840012E7A
:105340000A44C0B21ED00CD3022E09D1013B12FA7E
:1053500083F3013A12F8011F41409A421170F9D1CA
:10536000F0BDC043013B12FA83F3C0B2013A12F818
:10537000011F014093421170F9D1F0BD23441BB2CB
:105380000024C6E7013B12FA83F3013A12F8011F29
:1053900001439A421170F9D1F0BD00BF00291EDB14
:1053A00030B4B0F90A408C4218DD002A16DBB0F99F
:1053B0000C40944212DD047E022C54D0032C4CD0BD
:1053C000012C06D15140C4884A405140013C611A29
:1053D00009B2012B2DD017D3022B01D030BC70475E
:1053E000002AB0F90630856A1446B8BFD41D44F3CC
:1053F000CF0404FB031102F007026B5C012000FAEA
:1054000002F25A406A54E9E7002AB0F90630856A88
:105410001446B8BFD41D44F3CF0404FB031102F0BB
:1054200007026B5C012000FA02F223EA02026A54CE
:10543000D4E7002AB0F90630856A1446B8BFD41DF7
:1054400044F3CF0404FB031102F007026B5C01205C
:1054500000FA02F21A436A54C0E70489013C641A54
:10546000114622B2B5E7C5880489013D013C691A9D
:10547000A21A09B212B2ACE72DE9F041079E9DF9DC
:105480001880089D04461F46FFF782FC0D4B0E480E
:105490000E4984F83380FF22002F08BF1F4684F88E
:1054A0002F20002384F8302084F8312084F8322023
:1054B00020606665A565676221662362A362204657
:1054C000BDE8F081BC9DFF1FC80901000320003822
:1054D00010B50446806A034B236008B105F0E8FF6D
:1054E000204610BDC8090100F8B5436ADBB190F849
:1054F0002C200125AA4083F83B2083F85E5083F8D6
:105500005D500446406A03680E461B6800219847B8
:10551000606A036831461B6898472946606ABDE89F
:10552000F84000F053BFC26BC56C1368046A23EAED
:10553000050313604CB122684FF00043D3625163FE
:10554000D36A002BFCDA936BF8BD836B466B08259E
:10555000802410E03768426C3A4332601F68826CE6
:105560003A431A601A68876C013D22EA07024FEA43
:1055700054041A6007D02142ECD13268476C22EA09
:1055800007023260EAE7F8BD70B50446406A0D468E
:1055900000282BD0616D00F0B7FD002D20460CBF18
:1055A000A621A721FFF7A0FF606A20B1A16DBDE889
:1055B000704000F0A9BD216C226D0868236A024387
:1055C0000A6093B1DA7A82B1D00703D5224A996989
:1055D0001160DA7A910703D5204AD9691160DA7A25
:1055E000520702D51E4A1B6A136070BD236A002B46
:1055F0002BD0D97A226EE1B172B6D97ACE0706D510
:105600001848D9680668314099610160D97A8807DD
:1056100006D51548196906683140D9610160D97A03
:105620004E0705D511485969066831401962016075
:1056300062B61B68D968914207D00D4818600D49C1
:10564000DA6042F0804018611960226C216D1368A5
:1056500023EA01031360A0E700E100E004E100E0B9
:1056600008E100E080E100E084E100E088E100E0A2
:1056700001403F0000003F80436A2DE9F0410546AC
:105680000E469046002B3ED090F82C100124A140ED
:1056900083F83B1083F85E4083F85D40406A0368FE
:1056A00000211B6808F1FF379847FFB2B8F1000FDF
:1056B00023D03744A046013E686A16F8011F0368EC
:1056C0001B6898470134B742A4B216D01F2CF3D9F7
:1056D0000121686A00F07AFE95F82C206B6A52006E
:1056E00083F83B2083F85E8083F85D80686A0368F6
:1056F00000211B6898470124DEE7686A0121BDE8A4
:10570000F04100F063BEC26BC16C136823EA010371
:1057100006EB080413604FF00048A6420ED02B6A37
:1057200016F801EB63B11A68C2F82C80C2F834E0B5
:10573000D36A002BFCDAA642936BF0D1BDE8F0816E
:10574000AB6BD5F834C008208021DCF800206F6CEA
:105750001EEA010F14BF3A43BA43CCF800201A687E
:10576000AF6C3A431A601A68AF6C013822EA07023C
:105770004FEA51011A60E8D1CFE700BF2DE9F041AF
:10578000044686B0806A9DF830801E460F46154656
:10579000B4F90830002800F04B81DA1D48BF03F14E
:1057A0000E02B4F90630D21003FB02F2002106F01B
:1057B0003FF9B4F90820202A00F3A780B4F90610B5
:1057C000A74B0120203A733902EBD27201EBD17161
:1057D0004FF0200E029073208DE8014042F34F02FB
:1057E00041F34F012046FFF75BFB606A84F82D70A0
:1057F000002800F05181002D40F09F80B4F908305E
:10580000202B14BF3D253C2584F82C50B8F1000F07
:1058100040F09A8006B394F93300002818DBC0B238
:10582000012101F0E7FB012194F8330001F0CEFBE8
:10583000012001F007FC002194F8330001F0C6FBC1
:105840000A2001F0FFFB012194F8330001F0BEFBB8
:10585000606A002800F09880616D00F055FC042219
:1058600080492046FFF708FF217A0139C9B2204656
:10587000FFF73AFE7C4904222046FFF7FDFE94F92B
:105880002D30012B14BF142110212046FFF72CFED0
:10589000042276492046FFF7EFFEB4F906308F2246
:1058A000802B84F85C2000F0A580602B00F0B18094
:1058B0000225DA212046FFF717FE29462046FFF78A
:1058C00013FE81212046FFF70FFE94F85C1020465E
:1058D000FFF70AFED9212046FFF706FE94F92D3086
:1058E000012B14BFF12122212046FFF7FDFD2046A8
:1058F00006225F49FFF7C0FE606A58B3A16D00F051
:1059000003FC012006B0BDE8F081B4F90610594B44
:105910000120403A52394FF0400E029002EBD27211
:10592000522001EBD1718DE8014042F34F0241F367
:105930004F012046FFF7B4FA57E76DB284F82C50B8
:10594000B8F1000F3FF466AF00F094FB002E3FF477
:105950007FAF60E7216C226D0868236A02430A600A
:1059600073B1DA7A62B1D00703D5434A99691160FD
:10597000DA7A91076FD4520702D5404A1B6A136046
:10598000012006B0BDE8F081236A002B2BD0D97A24
:10599000226EE1B172B6D97ACF0706D53848D968F8
:1059A0000568294099610160D97A8E0706D5354886
:1059B000196905682940D9610160D97A4D0705D573
:1059C00031485969056829401962016062B61B684F
:1059D000D968914207D02D4818602D49DA6042F00D
:1059E000804018611960226C216D136823EA01035D
:1059F000136034E7B4F90830402B7FF459AF94F9C1
:105A00002D30012B14BFCF239F2384F85C30122547
:105A10004FE7B4F90830102B7FF44AAF94F92D30DA
:105A2000012B14BFAF23102384F85C30022540E71C
:105A3000DA1D48BF03F10E02B4F90630D21003FBA1
:105A400002F21046059205F02BFDA06200283FF4FB
:105A500059AF059AAAE60F4AD9691160DA7A8AE73E
:105A6000180A0100F80B0100FC0B0100000C0100FA
:105A7000040C01000C0C010000E100E008E100E072
:105A800080E100E084E100E088E100E001403F00C7
:105A900000003F8004E100E0012194F83100214F33
:105AA00001F0A8FA94F83200012101F0A3FA94F968
:105AB000312094F9323057F83220E26357F833300E
:105AC000206A23640125E56425651A682A431A6063
:105AD00048B1B8F1000F3FF439AF00F037FA002EAB
