:1000000000800020BD010000E96A0000A16A000034
:10001000A16A0000A16A0000A16A0000A16A0000B4
:10002000A16A0000A16A0000A16A0000E96A00005C
:10003000E96A0000A16A0000B9840000BD840000E4
:10004000E96A0000E96A0000E96A0000E96A000064
:10005000E96A0000E96A0000E96A0000E96A000054
:10006000E96A0000E96A0000E96A0000E96A000044
:10007000E96A0000E96A0000E96A0000E96A000034
:10008000E96A0000E96A0000E96A0000E96A000024
:10009000E96A0000E96A0000E96A0000E96A000014
:1000A000016500000D650000E96A0000E96A0000D2
:1000B000E96A0000E96A0000E96A0000E96A0000F4
:1000C000E96A0000E96A0000E96A0000E96A0000E4
:1000D000E96A0000E96A0000E96A0000E96A0000D4
:1000E000E96A0000E96A0000E96A0000E96A0000C4
:1000F000E96A0000358E0000E96A0000E96A000044
:10010000E96A0000E96A0000E96A0000E96A0000A3
:10011000E96A0000E96A0000E96A0000E96A000093
:10012000E96A0000E96A0000E96A0000E96A000083
:10013000E96A0000E96A0000E96A0000E96A000073
:10014000E96A0000E96A0000E96A0000E96A000063
:10015000E96A0000E96A0000E96A0000E96A000053
:10016000E96A0000B5730000E96A0000E96A00006E
:10017000E96A0000E96A0000E96A0000E96A000033
:10018000E96A0000E96A0000E96A0000E96A000023
:10019000E96A0000E96A0000E96A0000E96A000013
:1001A000E96A0000E96A0000E96A0000E96A000003
:1001B000E96A0000E96A0000E96A0000564B4CF267
:1001C000205210B51A804DF628121A8000BF00BFC9
:1001D00006F08EFC514B4FF010621A60504A9A6044
:1001E000504ADA60504A136813F4807304D14F49BF
:1001F0000B604FF4A85313604D4B1A78110703D5C9
:100200001A7842F008021A704A4B4B492A221A7097
:100210004A4A4B4B8B4204D252F8040F43F8040B6A
:10022000F8E7484B484900228B4202D243F8042B9E
:10023000FAE74649464A002352F8230041F82300D2
:1002400001336F2BF8D1434B434A802103F8011B44
:100250009342FBD1414B3D4A1A60414B8A221A70AE
:10026000A3F5805324225A70A0221A709A7992071B
:10027000FCD59A79D406FCD43A4A937903F00C035E
:10028000082B384BF9D103221A7146225A719A79F8
:100290009006FCD5334A9179324B4906FBD5324A58
:1002A0004FF0827111600921516020221A709A79F1
:1002B00002F00C020C2AFAD12C4B2D4A1A602D4B5D
:1002C0002D4A1A6000225A60072243F8042C2B4A58
:1002D000C3F80C2D62B606F013FF144B1B68DA0747
:1002E00005D5274806F062FD264B274A1A60274BA2
:1002F0001B785B0609D5234C234B22689A4204D114
:100300001F4806F053FD002323600AF03BFF06F070
:10031000F5FB08F0B9F9FEE70E20054030800440F7
:10032000823F04000100002B10D0034014D0034092
:1003300002D0074000E00740A4A8FF1F200F0100E3
:10034000308CFF1FA4A8FF1F08BAFF1F0082FF1FE9
:100350000000000000E400E05FE400E008ED00E0E1
:1003600000500640004006404480044004800440A1
:10037000C010050014E000E0BFD401000000202000
:1003800033885F601CE00340A5C3945A00F0074027
:10039000FFFFFFFFFFFFFFFFFFFFFFFFFFFFFFFF6D
:1003A000FFFFFFFFFFFFFFFFFFFFFFFFFFFFFFFF5D
:1003B000FFFFFFFFFFFFFFFFFFFFFFFFFFFFFFFF4D
:1003C000FFFFFFFFFFFFFFFFFFFFFFFFFFFFFFFF3D
:1003D000FFFFFFFFFFFFFFFFFFFFFFFFFFFFFFFF2D
:1003E000FFFFFFFFFFFFFFFFFFFFFFFFFFFFFFFF1D
:1003F000FFFFFFFFFFFFFFFFFFFFFFFFFFFFFFFF0D
:10040000FFFFFFFFFFFFFFFFFFFFFFFFDEF9FFFF23
:1004100010B5054C237833B9044B13B10448AFF33E
:1004200000800123237010BDA4A8FF1F000000005E
:100430001C0F0100084B10B51BB108490848AFF369
:1004400000800848036803B910BD074B002BFBD0A0
:10045000BDE81040184700BF00000000A8A8FF1F1B
:100460001C0F0100A4A8FF1F0000000010B584B0FD
:100470000A4C0B4B02930B4A01924FF0FF3300934F
:100480002046094B2022802105F006F8074A08493A
:10049000204604B0BDE8104009F088BEC0A8FF1F88
:1004A000801A060040420F00C09DFF1F0C8DFF1FE9
:1004B000F154000030B5094C83B001252046009569
:1004C0002B463C22022105F069F920460221A5763F
:1004D00003B0BDE8304004F031BB00BFC0A8FF1F2F
:1004E00070B5CEB2044680E80600D5B2304602218F
:1004F00006F090FD0221284606F08CFD304606F0FD
:100500007BFDA060284606F077FD0023E0602361B4
:100510006361204670BD00BF30B5044683B00078EB
:1005200006F06AFD0546207906F066FDA3689D4247
:10053000E36824D0984231D0A560E060ADB1A0B1AD
:100540002369012B37DD0023236101221E4B6169E2
:100550001B680193019B63615B1A132B32D9312B0A
:100560008CBF002301231BB201E00022134692B28C
:10057000002062F30F0063F31F4003B030BD9842C8
:10058000F3D02369A56085420CBF01224FF0FF32F2
:1005900013442361E060002DE7D0D0E72369A56014
:1005A000854214BF01224FF0FF3213442361E06003
:1005B000002DDAD0C3E7002201332261D5DA4FF0F3
:1005C000FF32C3E70223D2E760B6FF1F10B504462F
:1005D0000160C8B2022106F01DFD00234FF0FF317B
:1005E000032261602273A3602361204610BD00BF17
:1005F00010B5044682B0007806F0FEFC63689842AD
:100600001A4B08D01B680093009B60603233A360D4
:10061000002002B010BD1B680193A268019B9A42A2
:1006200009D8217B4A1E032A05D8DFE802F00F0211
:100630000707012818D0002002B010BD0028FAD109
:1006400003F2E243012023612073E2E730B1012885
:10065000F1D1032088422073DBD1ECE722699A4272
:10066000E9D202202073D4E70420F3E760B6FF1F2D
:10067000704700BF10B5184C636D1868036882B0EE
:10068000DB6947F612219847144B1B680193012040
:10069000019BC4F8003100FA00F200234FF6FF710D
:1006A000024384F8580084F8702084F85A3084F8A3
:1006B00059306366236684F8F83084F8753084F81E
:1006C000743084F8763084F87730C4F8FC30A16652
:1006D000E16602B010BD00BF28A9FF1F60B6FF1F72
:1006E00010B54FF60F0007F011FC044B5B6D186856
:1006F0000368F8211B68BDE81040184728A9FF1FB0
:1007000010B54FF60F2007F001FC044B5B6D186825
:100710000368FA211B68BDE81040184728A9FF1F8D
:1007200010B54FF60F4007F0F1FB044B5B6D1868F6
:100730000368FC211B68BDE81040184728A9FF1F6B
:1007400008B5002007F046FC003018BF012008BDA6
:100750002DE9F041E0290C469DF8185008D8013DDC
:10076000EDB20F2D02D849B2002912DBBDE8F081AD
:10077000F729FBD90834E4B2012303FA04F414F096
:10078000DD0FF3D0436D18680368BDE8F0411B68C6
:1007900018471F46436D8046186803682943C9B24D
:1007A0001B6816469847D8F854301868036806F056
:1007B0007F011B6804F0EF049847C02CD6D0D8F80E
:1007C00054301868036807F07F011B68BDE8F041EA
:1007D000184700BF2DE9F0415FFA82F80C0608F1D6
:1007E000FF3504F0FE4444F410442D02064605F49F
:1007F000706544F00904000482B02C4300F4FE004C
:100800000F46204307F082FBCDF80080FBB2F2B226
:1008100090210348FFF79CFF02B0BDE8F08100BFC4
:1008200028A9FF1F2DE9F0415FFA82F80C0608F1B4
:10083000FF3504F0FE4444F400442D02064605F45E
:10084000706544F00804000482B02C4300F4FE00FC
:100850000F46204307F05AFBCDF80080FBB2F2B2FE
:1008600080210348FFF774FF02B0BDE8F08100BFAC
:1008700028A9FF1F2DE9F0415FFA82F80C0608F164
:10088000FF3504F0FE4444F430442D02064605F4DE
:10089000706544F00B04000482B02C4300F4FE00A9
:1008A0000F46204307F032FBCDF80080FBB2F2B2D6
:1008B000B0210348FFF74CFF02B0BDE8F08100BF54
:1008C00028A9FF1F036810B504460BB17430984780
:1008D00094F87530803B7F2B00F28580DFE813F0C1
:1008E0008A008300830083008300830083008300E9
:1008F00083008300830083008300830083008300E0
:1009000096008300830083008300830083008300BC
:1009100083008300830083008300830083008300BF
:100920009A00830083008300830083008300830098
:10093000830083008300830083008300830083009F
:100940009E00830083008300830083008300830074
:10095000830083008300830083008300830083007F
:10096000A200830083008300830083008300830050
:10097000830083008300830083008300830083005F
:10098000AC00830083008300830083008300830026
:10099000830083008300830083008300830083003F
:1009A000B000830083008300830083008300830002
:1009B000830083008300830083008300830083001F
:1009C000C4008000D100E10083008300E9008300BF
:1009D000ED00F100F500F900FD0083000101840045
:1009E000A36A002B60D110BD236D002BFBD0BDE8A6
:1009F00010401847A368002BF5D094F8772094F89E
:100A0000761094F87400BDE810401847E368002B96
:100A1000F3D1E8E72369002BEFD1E4E76369002B0A
:100A2000EBD1E0E7A369002BDDD094F8761094F8C1
:100A30007400BDE810401847E369002BF5D1D2E7F8
:100A4000226A002ACFD094F8771094F8763094F880
:100A50007400C90101F47E5103F07F031943A1F52D
:100A60000051BDE810401047636A002BBBD0B4F8BA
:100A70007610802904F1780028BF8021BDE810405D
:100A80001847E26A002AAED094F8773094F87600DE
:100A9000DB0103F47E5300F07F001843BDE81040F3
:100AA0001047236B002B9ED094F87600BDE81040D1
:100AB0001847636B002B9AD195E7A36B002B96D157
:100AC00091E7236C002B92D18DE7E36B002B8ED145
:100AD00089E7636C002B8AD185E7A36C002B86D154
:100AE00081E7E36C002B82D17DE700BFF8B5436D51
:100AF0000446186803681B69984708B90020F8BDC8
:100B000094F80D31626D23F0010384F80D31106803
:100B100003685B699847C3B2FD2BEFD0626E002A71
:100B200049D001067ED494F85B10F0295FD0F729F4
:100B30005DD0A11881F85B30216E4B1E9A4253D3D1
:100B400094F85B30F02B00F00A82F72B00F007825C
:100B50001A0650D4002284F87520B02A5CD0A02A4E
:100B60005AD0D02A58D0E02A56D0C02A54D00020DB
:100B700084F87400032994F85C0008BF94F85D5071
:100B800084F8760018BF002500210120B02A84F8DF
:100B900077506166216684F8F80008D000F2D581AC
:100BA000902A04D0A02A02D0802A00D0002384F802
:100BB00059300120F8BD94F8592084F85B301506AF
:100BC0004DD440B20028C0F20E8294F90D01636842
:100BD00040F0010084F80D0103B19847002084F82B
:100BE000590060662066F8BD0132626686E7A1188A
:100BF00081F87830A0E703F10C02D2B2012AA9D91A
:100C0000FD2BA7D0EF2B00F2EC8103F0F002802A3D
:100C100084F8752040F0EF8103F00F00013084F874
:100C20007400A7E7A3F1F0010F293FF67CAF012084
:100C300000FA01F111F0810540F0B18111F45F4F2C
:100C40003FF471AF84F8765084F8775084F874508C
:100C500084F87530C4F8FC0084F8F800F8BD02F19F
:100C60000C01CDB2012DACD9FD2AAAD0EF2A00F299
:100C7000578102F0F006802E40F0538140B20028E8
:100C8000A0DB0120C9B2814284F85B2084F85C308B
:100C900060669AD9FD2A98D0EF2A94BF02F0F00539
:100CA0001546A5F180037F2B8FD801A151F823F0C1
:100CB000190F0000CB0B0000CB0B0000CB0B00008A
:100CC000CB0B0000CB0B0000CB0B0000CB0B0000CC
:100CD000CB0B0000CB0B0000CB0B0000CB0B0000BC
:100CE000CB0B0000CB0B0000CB0B0000CB0B0000AC
:100CF000190F0000CB0B0000CB0B0000CB0B00004A
:100D0000CB0B0000CB0B0000CB0B0000CB0B00008B
:100D1000CB0B0000CB0B0000CB0B0000CB0B00007B
:100D2000CB0B0000CB0B0000CB0B0000CB0B00006B
:100D3000190F0000CB0B0000CB0B0000CB0B000009
:100D4000CB0B0000CB0B0000CB0B0000CB0B00004B
:100D5000CB0B0000CB0B0000CB0B0000CB0B00003B
:100D6000CB0B0000CB0B0000CB0B0000CB0B00002B
:100D7000190F0000CB0B0000CB0B0000CB0B0000C9
:100D8000CB0B0000CB0B0000CB0B0000CB0B00000B
:100D9000CB0B0000CB0B0000CB0B0000CB0B0000FB
:100DA000CB0B0000CB0B0000CB0B0000CB0B0000EB
:100DB000110F0000CB0B0000CB0B0000CB0B000091
:100DC000CB0B0000CB0B0000CB0B0000CB0B0000CB
:100DD000CB0B0000CB0B0000CB0B0000CB0B0000BB
:100DE000CB0B0000CB0B0000CB0B0000CB0B0000AB
:100DF000110F0000CB0B0000CB0B0000CB0B000051
:100E0000CB0B0000CB0B0000CB0B0000CB0B00008A
:100E1000CB0B0000CB0B0000CB0B0000CB0B00007A
:100E2000CB0B0000CB0B0000CB0B0000CB0B00006A
:100E3000190F0000CB0B0000CB0B0000CB0B000008
:100E4000CB0B0000CB0B0000CB0B0000CB0B00004A
:100E5000CB0B0000CB0B0000CB0B0000CB0B00003A
:100E6000CB0B0000CB0B0000CB0B0000CB0B00002A
:100E7000CF0E0000110F0000190F0000110F00002D
:100E8000CB0B0000CB0B0000B10E0000CF0E00001A
:100E9000B10E0000B10E0000B10E0000B10E000056
:100EA000B10E0000CB0B0000B10E0000B10E00002F
:100EB0000023012084F8743084F8763084F8773089
:100EC00084F875506366236684F8F800F8BD8021C5
:100ED0000023216684F8785084F859307F21636EAE
:100EE0008B422ED302F00F020023013294F85C10E3
:100EF00084F87420012084F8761084F8773084F820
:100F0000755063662366C4F8FC0084F8F800F8BDE9
:100F1000022323660121E2E7032323660221DEE7A1
:100F2000164606F0DF05902D3FF4A8AE06F0BF058B
:100F3000A02D3FF4A3AE06F0EF06C02E3FF49EAE08
:100F40003FE6013363660020F8BDD02A3FF42FAEA0
:100F5000E02A3FF42CAEC02A7FF428AE27E6F02228
:100F600080230025012194F8F76084F8752084F827
:100F7000763084F8F720C4F8FC30204684F87750A7
:100F800084F8745084F8F810FFF79CFCF7220223D1
:100F900084F8796084F8782028466366F8BD94F870
:100FA0007810F02902D0F7297FF40FAE551C2244A7
:100FB00000214FEA152E82F878300126F02784F8B8
:100FC000765084F877E084F8741084F8591030462D
:100FD000C4F8FC5084F875706166216684F8F86086
:100FE000F8BD1A46B7E503F10C02D2B2012A7FF62A
:100FF000ECAD1A4650E6902A3FF40EAEADE500BFC8
:1010000090F87030DA0718D513F0FE0F15D070B5D0
:1010100090F8755085F08002602A82B004460DD8A1
:1010200090F874608E4231D081B35B08012B32D0CE
:10103000032B00F09B8002B070BD7047A5F1F00358
:101040000F2BF8D801A252F823F000BF4311000083
:1010500021110000EF100000D31000003710000035
:1010600037100000AB10000037100000AB1000007C
:1010700037100000AB100000AB100000AB100000F8
:1010800037100000AB100000AB1000005B08012B14
:1010900001D0022BCFD194F8773094F876200096C7
:1010A00029462046FFF754FBC5E705F10803DBB2EC
:1010B000072BC0D8012202FA03F313F0DD0FBAD0D8
:1010C000636D1868036829461B6802B0BDE870406C
:1010D0001847436D90F8765018680368F3211B6831
:1010E0009847636D186805F07F010368ECE7436D6E
:1010F00090F87750186894F876200368F2211B68FE
:1011000042EAC5159847636D1868036805F07F01CA
:101110001B689847636D1868C5F3C6110368D3E769
:10112000436D90F87650186894F8773002682D0176
:1011300003F00F03126805F07005F1211D4390477D
:10114000BEE7B0F87660802E28BF802600F17805D3
:10115000002E3FF470AF2E44636D15F8011B186824
:1011600003681B689847B542F6D164E794F8773076
:1011700094F8762000962946FFF7EAFA5BE700BF6D
:1011800070B5174C94F85860102E02D900252846E7
:1011900070BD2046FFF7AAFC05460028F6D094F85B
:1011A0007530902B0CD083F08003602B0BD90C484A
:1011B000FFF788FB31460A48FFF722FF284670BD3B
:1011C00094F877303BB194F874309E42EFD0002E03
:1011D000EDD00025EEE7802384F87530F3E700BFFB
:1011E00028A9FF1FF8B5294C294F94F87030DFF873
:1011F000ACE0C7F800E00025012243F0010362F3F0
:1012000047034FF6FF76294604F17800802284F8E0
:101210007030676525606560A560E5602561656182
:10122000A561E56125626562A562E5622563656386
:10123000A563E56325646564A564E564256584F8B4
:10124000585084F8595084F85A5025666566A66649
:10125000E66684F8745084F8755084F8765084F803
:10126000775084F8F8500AF097FA2046C4F80051F5
:10127000C4F80451C4F8085184F80C5184F80D5195
:10128000044A0549BDE8F84008F090BF28A9FF1FAF
:1012900024A9FF1F0C8DFF1F71060000889FFF1FF0
:1012A00000207047704700BF10B5044603F01EFBD6
:1012B0000A2830D00D283DD04FF6FD73984201D951
:1012C000012010BD0346B4F94220B4F9401004F1E6
:1012D000080003F0EFFA94F82230032BF0D8DFE88F
:1012E00003F0140E0802B4F84230181AA4F84200B1
:1012F000E6E7B4F84030181AA4F84000E0E7B4F884
:1013000042301844A4F84200DAE7B4F840301844F8
:10131000A4F84000D4E794F9333094F93410B4F8C9
:1013200042205B1A13440022A4F84230A4F8402063
:10133000012010BD0023A4F84030012010BD00BFE3
:1013400010B5183809F07AFC09490A4C09F0CAFCB2
:1013500007F050FE09F08CFE01212060172005F0F7
:1013600045FE21682820BDE8104005F031BD00BFD2
:101370009075924204B0FF1F2DE9F0471546002AF0
:1013800063D004460F46DFF8C88000264FF6FD798B
:1013900000F1080A0BE003F0A9FA0A2825D00D286D
:1013A00032D0484511D90120013D06440AD02368B6
:1013B00017F8011B1B6843452046ECD09847013DB8
:1013C0000644F4D13046BDE8F0870346B4F9422024
:1013D000B4F94010504603F06DFA94F82230032B14
:1013E000E1D8DFE803F02B241D1694F9333094F98B
:1013F0003410B4F842205B1A13440022A4F842309F
:10140000A4F840200120CFE70023A4F840300120B9
:10141000CAE7B4F84230181AA4F842000120C3E722
:10142000B4F84030181AA4F840000120BCE7B4F822
:1014300042301844A4F842000120B5E7B4F8403027
:101440001844A4F840000120AEE71646BAE700BFF2
:10145000A912000070B50B4D2B68984204460ED3BC
:10146000094EE41AFFF73CF933682B6005F0D8FD0C
:101470000146064802F03EFB2B68A342F1D91B1B34
:101480002B6070BD38B1FF1FA0B1FF1F58B4FF1F04
:101490000B4B70B553F820500A4E0B4B56F82010EA
:1014A0001A6804462846FFF7E5F908480849094A3A
:1014B00056F8243040F824300D60136070BD00BF32
:1014C0009CBE000074AAFF1FBC9DFF1F9CAAFF1FAB
:1014D000648DFF1FB8AAFF1F2DE9F84F3A4C3B4F10
:1014E0003B4E3C4DDFF81891DFF81881DFF818A16A
:1014F00022204FF0000BC0B205F0EEF90346014682
:1015000020682B6002F0D4FF2068D9F80020C16A5F
:10151000D8F800308A424FDC8B42D4BFC2EB0301C3
:10152000C2EB01019B1AB3F5804FAABF8903C1EB3F
:101530008131013391FBF3F390F834102B60DB1110
:1015400046F8043B00292DD0DAF80010032929D8E9
:10155000DFE801F0220202221F4A117881B31F4AFC
:101560001178F9B11E4A1F4952F82B200A601E4813
:101570001E49C0F800B0BBF1040F0B600CD01C4832
:101580001C49006809681C4A01EB00100BF10301BB
:1015900001EBC00142F821305846FFF779FF174BA5
:1015A000012119700BF1010BBBF1050F04F10404CB
:1015B00004D057F8040F9EE70021B3E7BDE8F88F89
:1015C0005846FFF765FFEDE7BCAAFF1F68BE0000A5
:1015D00074AAFF1F70AAFF1FB5AAFF1F8CAAFF1FC6
:1015E0009CBE0000648DFF1F98AAFF1FB8AAFF1FB2
:1015F000ACB1FF1F60B1FF1FA48DFF1FE8ADFF1F3F
:101600008CADFF1F688DFF1F30B1FF1F08B50A4B5F
:101610001A783AB91146094802F044FD084B0122F4
:101620001A7008BD074A0548002102F03BFD044B33
:1016300001221A7008BD00BF3CB1FF1F38AAFF1F6E
:101640006EB1FF1F4040BF002DE9F04FA24BA34CED
:10165000196883B00646084609F03CFA09F02EFDE9
:101660009F49A04A0B680093009B156820605B1B94
:10167000984208D89C480968037801910199116043
:1016800083F001030370DFF8ACA29AF80010002980
:1016900049D0954B1B78002B40F0F780934C237872
:1016A000002B44D0924B1B68012B00F0E880022BEA
:1016B00040F0DF804D2200218E4802F0F3FC8E4B7B
:1016C0009B5D002B44D08D4BDFF86C8253F82630A5
:1016D000C8F800302378002B44D0894B1B78002BAE
:1016E00040D0DFF858B2874C874D01270EE02368C1
:1016F000BB4200F0BA802B680B33BB4200F08E80F7
:1017000002F0D0FC01371B2F00F091805BF82630EF
:1017100078480A33BB424FF00002B9B2E7DA002240
:10172000B9B27448ECE7714C2378002B6BD1774B3E
:101730001B78002BB6D06C4B1B78002BB2D0744AB0
:101740006C48002102F0AEFC6B4B9B5D002BBAD1C4
:10175000704BDFF8E48153F82630C8F80030237866
:10176000002BBAD1F71C022501241FFA87F9DFF8F4
:10177000CCB108E00022A1B25E4802F093FC1B2D20
:1017800015D0013401355BF826300A33A342F1DB72
:10179000012C00F08E80022C7ED0A742EAD1D8F82E
:1017A00000205448494602F07DFC1B2DE9D15A4FD8
:1017B000DFF88C9107EB86170B25002410E0A3427D
:1017C00048D03B68012B3ED0544A4A48294602F093
:1017D00069FC01340135102CADB207F1040726D0A5
:1017E0005BF82630A342F4DDA20759F82630E6D094
:1017F000A34222D03B68012B25D0002229463D4838
:1018000002F050FCE5E7384B1B78002B3FF44AAF61
:1018100044F64D42374802F045FC50E7B9B2404A21
:101820003448013702F03EFC1B2F7FF46FAF3D4B75
:1018300001221A7003B0BDE8F08F9AF800206AB94F
:101840003B68012BDAD1D8F800202A48294602F05B
:1018500029FCBEE79AF80030002BB2D04FF400020A
:101860002946244802F01EFCB3E72F4A02F01AFC76
:1018700048E7002211461F4802F014FC1FE72A4ADD
:101880001C48002102F00EFC19E701220021194832
:10189000164C02F007FC12E7244B9B7813B1124B55
:1018A0001B7893B94FF680720221124802F0FAFBBE
:1018B00067E71E4B5B7813B10B4B1B782BB91C4AA7
:1018C0000C48012102F0EEFB5BE7002221460948AB
:1018D00002F0E8FB55E700BFE4ADFF1F88AAFF1F39
:1018E00060B6FF1F90ADFF1FD0B1FF1FB5AAFF1F4D
:1018F00030B1FF1F38AAFF1FD4AAFF1FC8BD0000C8
:101900008CAAFF1F00B0FF1F60B1FF1F94AAFF1F2A
:1019100000FF80007CBE000000AEFF1F20202000E2
:101920000080FF006EB1FF1F8080800054AAFF1F5F
:10193000FFFF800050AAFF1F34B1FF1F348DFF1F2F
:1019400068ADFF1F10B550B904460121094802F0E7
:10195000C9FF21460748BDE8104002F0C5BF00217D
:10196000044802F0BFFF01210248BDE8104002F028
:10197000BBBF00BFA0ADFF1F70B5164C164B24684F
:1019800053F8203004EB440403EB84047F2C054619
:101990000AD9A9B2114A124802F084FB1149124A2D
:1019A00001230B70137070BD13461048104A50F895
:1019B0002300104E126800EB0313204646F8234024
:1019C000FEF708FFA4F11803352BE2D82046FFF7F5
:1019D000B7FCDEE7A8B1FF1F5CBD0000808080007F
:1019E00038AAFF1F6EB1FF1FE8ADFF1F68ADFF1FD4
:1019F000BC9DFF1F68ABFF1F104B114A1B6810B541
:101A0000044652F8200003EB430300EB83007F28D9
:101A100008D80C4B00211A68FEF704FF002117209C
:101A200005F0E4FAA1B20022074802F03BFB0749A7
:101A3000074A01230B70137010BD00BFA8B1FF1F30
:101A40005CBD0000BC9DFF1F38AAFF1F6EB1FF1FC9
:101A5000E8ADFF1F2DE9F04F454F464A57F82030BB
:101A60004FEA001808EB030183B052F82120541C00
:101A700073D0012A5BD1404ADFF81891DFF818A132
:101A80003E4C3F4E05461068DAF8002003EB001389
:101A900009EB43134801596859F800002160FEF72B
:101AA00099FE57F82530DAF800B043445B0159F845
:101AB0000310019105F0B4FA57F82530314A019925
:101AC000434409EB43141368A4685A4604FB030318
:101AD0002D48DFF8C8B001F0F7FF57F82500019551
:101AE000002408EB0003E21C02EBC30359F8235067
:101AF000002D29461EDB254BDAF8002053F8240080
:101B0000FEF7B8FE019B356057F823000134042C22
:101B100006F10406E5D180444FEA48121C4B59F8FF
:101B2000020043F82800A0F11803352B1BD903B09D
:101B3000BDE8F08F5BF8241033688B42E6D0134B7E
:101B4000DAF8002053F82400FEF794FE019A5BF8BF
:101B5000243057F822003360D8E70F2347F82030AD
:101B600003B0BDE8F08F03B0BDE8F04FFFF7E8BB6E
:101B700068ADFF1F00AEFF1FACB1FF1FB89DFF1F78
:101B8000ECADFF1FE0ADFF1F58B4FF1F9CBE00006F
:101B900068ABFF1FA48DFF1FBC9DFF1F9CAAFF1FEA
:101BA0002DE9F041524C237853B1524B002003F100
:101BB000200143F8040F8B424FF00002F9D122704C
:101BC0004D4B1B68012B4DD0022B43D14B4B1B7847
:101BD000002B41D005F024FA494A1368984237D3C4
:101BE000484949480968036000240B44474DDFF821
:101BF0003081474F1360264615F8012F454B20468C
:101C00007AB958F824200F321340002B65DB03EB20
:101C1000041357F82320002AC8BF47F82360FFF7B2
:101C200019FF0134082CE7D13B4B1868FFF70CFD76
:101C3000304A3A4902F12004002552F8043F51F895
:101C4000040F013383421360A8BF1560A242F4D190
:101C5000BDE8F081BDE8F0812F4BBDE8F041186888
:101C6000FFF7F2BC254B1B78002BF5D005F0D8F917
:101C700023490A689042EBD3274D294C2868254B0D
:101C800054F820400F342340002B2BDB03EB0013D0
:101C90001F4C54F82360002EC4BF002644F8236074
:101CA000184B194C1B6822601A440A60FFF7D2FED9
:101CB0002868FFF7C9FC0F4A184902F120040025E3
:101CC00052F8043F51F8040F013383421360A8BF58
:101CD0001560A242F4D1BDE8F081013B63F00F032F
:101CE000013394E7013B63F00F030133CEE700BFFC
:101CF000A4B1FF1F64ADFF1F30B1FF1F50AAFF1F2B
:101D000098B1FF1FE0ADFF1F2CB1FF1FD3AAFF1F2B
:101D100068ABFF1F0F000080ACB1FF1F308DFF1FAD
:101D200068ADFF1FF8B58E0006F10A0323F0070324
:101D30000A44002900AFADEB030D92FBF1F301FB68
:101D4000132218DD6C46034600EB060E53F8045BC5
:101D500044F82250734502F1010292FBF1F501FBB8
:101D60001522F3D12346A119043853F8042B40F867
:101D7000042F8B42F9D1BD46F8BD00BF2DE9F047D5
:101D80003A4FBDF8206005468946384629469246B6
:101D9000984602F0F7FD97F9314080B2A4B2C0EB4B
:101DA0000803341B03EBD37304EBD47409EB630314
:101DB0000AEB640400222846A7F84030A7F8424006
:101DC00087F8462009F05CFD48B304463E464FF6CE
:101DD000FD7801E0013C22D015F8011B234802F0F8
:101DE00085FD0A282FD00D283BD04045F2D8034668
:101DF000B6F94220B6F940101D4802F05BFD96F896
:101E00002230032BE6D8DFE803F018120C02B7F8F3
:101E10004230013CA3EB0000A7F84200DCD1BDE852
:101E2000F087B7F84030181AA7F84000D2E7B7F8A3
:101E300042301844A7F84200CCE7B7F840301844C5
:101E4000A7F84000C6E796F9333096F93410B6F893
:101E500042205B1A13440022A6F84230A6F8402024
:101E6000B8E70023A6F84030B4E700BF98ADFF1FE5
:101E7000A0ADFF1F30B51B4C83B0012104F1080059
:101E800002F016FD04F10800174902F021FD0025BB
:101E900004F108000121A4F84050A4F8425084F84D
:101EA000465002F01FFD294604F1080002F01CFD17
:101EB0000E4B0F4A1B68126893420E4A127802D0EA
:101EC0001AB90D4804E0002AFBD00C4A52F823004E
:101ED0002023009314222C235621FFF74FFF03B039
:101EE00030BD00BF98ADFF1FFCF10000B0AAFF1F7E
:101EF00030B1FF1F08B0FF1F1CBE0000948DFF1FF4
:101F000070B5064684B010460D46FFF71BFD0A4B20
:101F10001C68033402A930460A22640009F072F9F1
:101F2000A4B269011623009322B209B202A82023A9
:101F3000FFF724FF04B070BDAC9DFF1FF8B5134E32
:101F4000074600257088002498B12304FF2293FBE4
:101F5000F0F02844114680B202F0CEF802F070F999
:101F6000A1B20246094802F09DF870880134A042EF
:101F7000EBDC064801F0B4FF05F58075384605F046
:101F800071F8B5F5803FDDD1F8BD00BF38AAFF1F5D
:101F90002DE9F047494BDFF83C81494E0FCB86B025
:101FA00006AC04E90F00474803F0CEFD002108F11C
:101FB000080002F07DFC45464FF0000A4148424CC3
:101FC00003F0C2FD1223002240494148A8F84030E6
:101FD000A8F8423088F846200FFA8AF902F078FC17
:101FE0004FF6FD7701E0B44222D014F8011B3948C6
:101FF00002F07CFC0A284FD00D285BD0B842F2D802
:102000000346B5F94220B5F94010314802F052FCC0
:1020100095F82230032BE6D8DFE803F038322C02A3
:10202000B8F84230B442A3EB0000A8F84200DCD17B
:102030002949274802F04CFC09F0030906AB03EBE1
:102040008909202359F8100C00930A225021FFF728
:1020500095FE1C4803F084FE0AF1010A642005F095
:1020600001F8BAF1100FA9D1642006B0BDE8F0471D
:1020700004F0F8BFB8F84030181AA8F84000B2E7EA
:10208000B8F842301844A8F84200ACE7B8F840303D
:102090001844A8F84000A6E795F9333095F93410B4
:1020A000B5F842205B1A13440022A5F84230A5F887
:1020B000402098E70023A5F8403094E74CBD00008D
:1020C00016BE0000C0A8FF1F10BE0000B0BF000079
:1020D000A0ADFF1F98ADFF1F6CC800002DE9F047B1
:1020E0007E4CDFF860827E4F7E4EA0B004F090FC04
:1020F0002368029302987C4B22687C4903927C4AB5
:102100000860196811605968516099689160D968D0
:10211000D1601969116159699D695161D969754B1E
:102120009561D1617449754A03981A6000250122AE
:102130001D71DD6083F82250A3F84050A3F842508F
:1021400083F846501A8383F821200860236804939B
:102150006B4B049A1A6004F063FF23680593DDF863
:1021600014A023680693DDF8189023680793DDF820
:102170001CC023680893089923680993DDF824E0BC
:10218000604B22680A920A9A18605F4B20680B9095
:10219000D9600B9920680C905A610C9AC3F800A082
:1021A000C3F80490C3F808C0C3F810E09961DA617D
:1021B00022680D920D9A21680E91DDF838C02168D1
:1021C0000F91DDF83CE02168109110992068119082
:1021D0001198D4F80090CDF848901A62C3F824C042
:1021E000129AD4F800C0CDF84CC0D9621863139984
:1021F000206814905A63149AC3F828E09963DA634C
:1022000022681592159A21681691DDF858C0216848
:102210001791DDF85CE021681891189920681990F1
:102220001998D4F80090CDF868901A64C3F844C0A7
:102230001A9AD4F800C0CDF86CC0D96418651B99FF
:1022400020681C905A651C9AC3F848E09965DA65C5
:1022500022681D921D9A20681E901E9824681F9463
:1022600058662A4C1F981A6698662949294B246893
:10227000294A09681C602948294B12681A600160C4
:10228000084608F027FC08F019FF0B22C8F80000E8
:102290000C212448244CFEF723F929462348FEF755
:1022A00095F906220523019200933846204B214AD6
:1022B000214901F05BFC32463846204907F076FFA1
:1022C000522320460E221B2101F0D6FE3246204624
:1022D0001B4907F06BFF20B0BDE8F08760B6FF1F19
:1022E0000CB0FF1F0C8DFF1F348DFF1F90ADFF1F23
:1022F000B0B1FF1F98ADFF1F48B1FF1F3CBD0000EC
:102300009CB1FF1F40B1FF1FF4AAFF1F74AAFF1F5B
:10231000608DFF1FB8AAFF1FA8B1FF1F64ABFF1F8E
:1023200044B1FF1FDCAAFF1F38AAFF1F4CB1FF1FDB
:10233000548DFF1FA49DFF1F708DFF1FA53B000044
:10234000193E000088AAFF1F30B5124C83B000224E
:1023500001210A232046019100931146802302F0B7
:1023600055FC02252023204619460095002203F043
:10237000C5FC2046009520230022402103F0BEFC2E
:102380000095204620230022602103F0B7FC03B013
:1023900030BD00BFC0A8FF1F2DE9F043704EDFF82D
:1023A0000492704C83B006F108000121002502F070
:1023B0007FFA06F108006C4902F08AFAA6F840504C
:1023C000A6F8425086F84650FFF7BEFF294606F1B0
:1023D000080002F087FA06F10800012102F084FAF1
:1023E0000722B9F9003086F84650A6F84020A6F832
:1023F00042303546A71C4FF6FD7801E0BC4224D0A0
:1024000014F8011B564802F071FA0A2800F0948073
:102410000D2800F09F804045F0D80346B5F94220D2
:10242000B5F94010514802F045FA95F82230032BD7
:10243000E4D8DFE803F07B756F02B6F84230BC42A7
:10244000A3EB0000A6F84200DAD1494B44481968D2
:1024500006F012F9D9F8002046480A25023A12B2CD
:10246000202321210095FFF789FCD9F8002042485C
:102470000095023A12B220234121FFF77FFCD9F8E0
:1024800000203E480095023A12B220236121FFF756
:1024900075FC0121354802F00BFA3949334802F046
:1024A00017FA0121314802F01DFA00212F4802F0ED
:1024B0001BFA344B002218681146FFF721FD324AFF
:1024C000324B1268324953F8223003EB02130022D8
:1024D00051F823000121FFF713FD2E4B1C68012C3E
:1024E0003CD11623009301942A46212360212A48D7
:1024F00002F08CFB294B1868002204300221FFF700
:10250000FFFC274B18682246032103B0BDE8F043C7
:10251000FFF7F6BCB6F84030181AA6F840006DE791
:10252000B6F842301844A6F8420067E7B6F84030E3
:102530001844A6F8400061E795F9333095F9341056
:10254000B5F842205B1A13440022A5F84230A5F8E2
:10255000402053E70023A5F840304FE70024C9E7A7
:1025600098ADFF1FF8BD0000CCFA0000A0ADFF1F22
:10257000648DFF1F18BE000020BE000024BE0000B6
:10258000E4E80000B8AAFF1FACB1FF1F68ADFF1F51
:1025900068ABFF1FD4B1FF1FC0A8FF1FA8B1FF1F6A
:1025A000BC9DFF1FAC9DFF1F2DE9F041334E344F02
:1025B000DFF8EC8006F1080582B0284601210024EE
:1025C00002F076F928462F4902F082F9A6F8404039
:1025D000A6F8424086F84640FFF7B6FE2146284658
:1025E00002F080F92846012102F07EF93A68264877
:1025F0000A26023A12B2009620230121FFF7BEFB01
:102600003A6822480096023A12B220232121FFF7AD
:10261000B5FB3A681E480096023A202312B26121A7
:10262000FFF7ACFB2846012102F042F92846194980
:1026300002F04EF92846012102F054F921462846BD
:1026400002F052F9D8F80000224621460130FFF787
:1026500057FCD8F80010104B224653F821000121F6
:10266000FFF74EFC0D4B186808F002FD22460321CF
:1026700002B0BDE8F041FFF743BC00BF98ADFF1FBB
:10268000AC9DFF1FCCFA0000F0BD0000E8BD0000CB
:10269000F4BD0000E4E80000348DFF1F608DFF1FD3
:1026A000ACB1FF1F2DE9F047624C634F82B004F1DB
:1026B0000800012102F0FCF8002504F108005F4940
:1026C00002F006F9A4F84050A4F8425084F84650AD
:1026D000FFF73AFE294604F1080002F003F904F17D
:1026E0000800012102F000F93A6855480A26023A2A
:1026F000294612B220230096FFF740FB3A68514862
:1027000000962023023A194612B2FFF737FB3A68C7
:102710004D480096023A12B220234121FFF72EFBCA
:102720003A684A480096023A202312B26121FFF724
:1027300025FB04F10800012102F0BAF8444B1B68A4
:10274000032B72D8DFE803F06253440216230126FC
:102750008DE848000A22212360213E4802F056FA03
:102760000027B946BA46DFF804813B4D3B493C4857
:102770003C4C02F0ADF8D8F800202B6803EB0213B4
:102780005B014A46E0580021FFF7BAFB364B186858
:10279000524604300121FFF7B3FBD8F800202B6824
:1027A00003EB021304EB43133A4658680221FFF788
:1027B000A7FBD8F800202B6803EB021304EB4314AB
:1027C0003246A068032102B0BDE8F047FFF798BB8E
:1027D000162301278DE888004FF0000921230A22E3
:1027E00040211C4802F012FACA464E46BBE71623A7
:1027F00001248DE81800002721230A2220211548F2
:10280000A24602F003FAB9463E46ACE7162301247D
:1028100000210F468DE818000A2221230D48A14609
:1028200002F0F4F9BA463E469DE70027B946BA469B
:102830003E4698E798ADFF1FAC9DFF1FCCFA000005
:1028400018BE000020BE000028BE0000E8BD000049
:102850006C8DFF1FC0A8FF1F60B1FF1FE4E80000E0
:10286000A0ADFF1FA48DFF1FA8B1FF1FACB1FF1FBC
:102870002DE9F041012182B0494802F019F8494997
:10288000474802F025F8484B1C68012C7BD0022CED
:102890006CD0002C5DD00025A846444F444C3868CD
:1028A000444E002211460130FFF72AFB3968424BA3
:1028B000424653F821000121FFF722FB3F4B2A46F5
:1028C00018680221FFF71CFB04F10800012101F048
:1028D000EFFF002504F10800394901F0F9FFA4F8E1
:1028E0004050A4F8425084F84650FFF72DFD294689
:1028F00004F1080001F0F6FF04F10800012101F0E5
:10290000F3FF32682F480A24023A294612B2009493
:102910002023FFF733FA32682B4800942023023A31
:10292000194612B2FFF72AFA326828480094023A90
:1029300012B220234121FFF721FA32682448009483
:10294000023A12B220236121FFF718FA02B0BDE863
:10295000F081012616238DE848000B222123202137
:102960001C482546B04602F051F996E7162201238D
:102970008DE80C00602121230B221648002502F06F
:1029800045F9A84689E716238DE818000B22212374
:1029900040211048254602F039F94FF000087CE745
:1029A000A0ADFF1FE4E80000B09DFF1FACB1FF1F0A
:1029B00098ADFF1FAC9DFF1F348DFF1F94ADFF1F0F
:1029C000CCFA0000F0BD0000E8BD00002CBE000005
:1029D00030BE0000C0A8FF1F2DE9F04F754C764DAA
:1029E00085B004F108000121002601F061FF0127F4
:1029F00004F10800714901F06BFFA4F84060A4F8ED
:102A0000426084F84660FFF79FFC40231422314661
:102A10006B48009703F040F9314604F1080001F0DB
:102A200061FF394604F1080001F05EFF2A6865483D
:102A30004FF00A08023A12B231462023CDF8008046
:102A4000FFF79CF92A686048CDF800802023023AFD
:102A5000194612B2FFF792F9394604F1080001F065
:102A600027FF5A4B02961B68032B00F29F80DFE87A
:102A700003F068594A020B2301248DE8180015223F
:102A8000212320214E4802F0C1F84FF0000B8DF8B1
:102A90000B404A494E48DFF844A1DFF84491DFF883
:102AA000448101F015FF02AE00240B27D8F8002066
:102AB000D9F8001002EB0111E21C02EBC1010A225D
:102AC0005AF82100002803A948DD08F09BFB012CDF
:102AD000A4F10202584659D0032C42D0022A34BF36
:102AE0004FF0200B4FF0000BFEF72CFF2A680097E9
:102AF0005200594612B2202303A8FFF73FF90134D0
:102B000016F801BFD2E70B2301248DE818000A2232
:102B1000212320212A4802F079F84FF0000B8DF88C
:102B20000A40B6E70B2301248DE818001522212363
:102B30000021234802F06AF84FF0000B8DF809409D
:102B4000A7E701240B228DE81400212300211C4853
:102B500002F05CF8A3468DF808409AE71D4B0393FA
:102B6000B5E75846FEF7EEFE2A68520020230B21F7
:102B70000B3212B203A800911946FFF7FFF816496D
:102B8000134801F0A5FE05B0BDE8F08F5846FEF7EA
:102B9000D9FE2B6800975B0003F10B0212B22023D1
:102BA000002103A80224FFF7E9F8A9E74FF0000B82
:102BB0006FE700BF98ADFF1FAC9DFF1FCCFA000070
:102BC000C0A8FF1F38BE000040BE0000B49DFF1F1C
:102BD000A0ADFF1F2D2D2D00E4E80000A48DFF1FE8
:102BE000ACB1FF1F60B1FF1F2DE9F04F904899B0C5
:102BF00000F0E0FF04F014FA8E4B186004F010FAB5
:102C00008D4A13681060C01A04D08C4B1B78002BBF
:102C100040F06682FEF7C4FF894802F095FFFEF798
:102C20005BFC8848FDF778FC02B21290002A40F065
:102C30007A81854B0093854B0293854D854B0D938F
:102C4000854B0193854F864B864C0C938648FDF748
:102C5000CFFC022800F09081032800F0FF810128BA
:102C600000F0C181814B0F93814EDFF81C92DFF899
:102C7000CCA16F4801F058F800283FD06C4801F013
:102C80005FF8C0F30722D3B2012B5FFA80F800F09F
:102C9000C4802A68032A00F24281DFE802F01502AC
:102CA0000215002BE5D1B8F1000F18D0019B1B785D
:102CB000ABB1D9F80030002B11DD9AF8003073B9B0
:102CC0004046FEF799FE0AE0002BD2D1B8F1000F82
:102CD000F6D1684B41461A681920FDF7CBFD664ACC
:102CE000664B12681492149A43F828205048002327
:102CF00006F8083001F018F80028BFD1604B3A6898
:102D0000D3F800800C9B29681B680B93029B5A4FD9
:102D10001B7806935B4BDFF864E11B780893019BFB
:102D200010911B780A93009B09901B7803930D9BCD
:102D300007901B78119304EB82122C3A05900490B3
:102D40000E90034601F1FF3BBA4642F20E79F15C68
:102D5000002932D03C681594159C5EF82350641B02
:102D6000A0454FEA830C28D8DAF800401694169C48
:102D7000651B4D4521D8BBF1010F16D8DC1E072C71
:102D800040F2B0840A2B10DD10680A91B0FA80F48A
:102D900064090846099108910791069105910491EB
:102DA0000391A3F10B0114600B91396817911799E6
:102DB000A1F51C510F394EF80C1001331B2B02F1F9
:102DC0000402C4D10E9B002B40F03385049B002BE2
:102DD00040F03685059B1BB10C9B1A460B9B13607C
:102DE000079B23B1029B1A469DF818301370099B6C
:102DF0001BB1244B9DF820201A7020B1019B1A466C
:102E00009DF828301370109B032B00F28984DFE8B3
:102E100013F0D5046F046F04D5042B6806F808205E
:102E2000032B3FF626AFDFE803F06A31316A00BFBB
:102E30000CB0FF1F40B1FF1F90AAFF1F50AAFF1F39
:102E4000C0A8FF1FDCAAFF1FE8ADFF1FB5AAFF1F28
:102E500030B1FF1F94AAFF1F8CAAFF1FACB1FF1F48
:102E600060B1FF1F00AEFF1F4CB1FF1F6EB1FF1F0F
:102E700054AAFF1FBC9DFF1F60B6FF1FF4AAFF1FCF
:102E8000908DFF1FB4AAFF1F00B0FF1FB8F1000F05
:102E90007CD0A94BA94A1B681393029B13991B78FA
:102EA00042F82810A8F10B02002B00F0E480019BEF
:102EB000A3491B78002B00F077810C9BA149A24805
:102EC0003A681B68096850F82800DFF8D8C29AF8F9
:102ED00000E0C9F8008003EB02135B0101EB410144
:102EE00000EB81014CF80310984900230B70BEF1F0
:102EF000000F00F02983009A01231370B9E6B8F19E
:102F0000000F40F0A480924B64211A681920FDF74D
:102F1000B1FC904A137883F001031370A9E6002BEB
:102F20003FF4DDAEA5E6BDF94A308B4902FB03F361
:102F3000097803EB8303981800293DD0874A884B12
:102F400000931E46136887490291034486490D91F8
:102F500083F302031360FEF78DFF01233370784B78
:102F600001938248824B0C93FDF742FB0228814D6E
:102F7000814F824C7FF470AE774B814A0F920126CD
:102F80001E70FEF777FF009B1E706DE6029B1B789C
:102F9000002B00F08B80019B1B7823B10C9BC9F8A0
:102FA0000080C3F80080019900230B7002990B7018
:102FB000009B01221A705CE66A4B02931B78002B7F
:102FC00040F09180684B0D931B786A4D002B40F0C8
:102FD00046812B68032B00F2AB81DFE813F014026B
:102FE000D101D101BB015D4A2B68126861489A4248
:102FF00000F0F080584E3178002900F06381614B79
:1030000002604FF0000883F800801FFA88F1002268
:103010005D4808F1010801F045F8B8F11B0FF4D143
:10302000574B0F9319460122002333700A70FEF7A5
:1030300021FF2B68002B40F0D880544A1368B3FA64
:1030400083F35B091360009A012313700CE6504B65
:103050003A6819684046FEF78FFC0AE62B68032B96
:103060007FF400AE3A4B464A0F9200211A681A20AC
:10307000FDF700FCF8E50D9B1B78002B3ED1B8F165
:10308000010F00F05C82B8F1020F3FF4F2ADA8F13D
:103090000303072B00F24F81B278002A00F0CB80A7
:1030A0003C49CA5C82F00102CA54E2E50D9B2E4AFB
:1030B0001B78002B3AD19AF80030002B00F00581E4
:1030C00035488AF8008000F037FD344B8AF80080DC
:1030D000C3F80080FDF724FB2F4800F02DFDC8E564
:1030E000FEF7B8F996E5234D2B68013B012B40F222
:1030F000F6801B4B00931C4B0D93A1E508F1FF33A9
:10310000012B7FF6B6ADA8F10303072B40F29380A5
:10311000B8F10A0F7FF7ADAD214A3968A8F10A006E
:1031200042F82100009A01231370A2E582F8008082
:10313000009A012313709CE560B6FF1FF4AAFF1FDD
:103140008CAAFF1FA8B1FF1F5CBD0000B4AAFF1F1F
:10315000BC9DFF1F3CB1FF1F08B0FF1FB0AAFF1F9F
:10316000E8ADFF1FB5AAFF1F94AAFF1F4CB1FF1FB8
:1031700060B1FF1F30B1FF1FACB1FF1F00AEFF1FDA
:103180006EB1FF1F50AAFF1F38AAFF1FD4B1FF1F47
:103190005C8DFF1FD4AAFF1F58B4FF1F64B1FF1F2F
:1031A000348DFF1FA48DFF1F08F1FF33012B7FF625
:1031B00060ADA8F10303072B3DD9B8F10A0F7FF7E3
:1031C00058AD0C980260A74A01231370009A0B7047
:1031D00013704EE5A44A1178002973D00021A3484A
:1031E0000F901170002B3FF428AF032B00F09F814C
:1031F000013B012B3FF627AF029B1B7803B3019BDA
:103200001B78EBB10D9B1B78FBB9994B1B68012B0D
:1032100000F02A82002B7FF416AF96490B68964A7D
:10322000013382FB0320DA17C2EB600202EB820259
:103230009A1A0A6007E73B60009B01221A7018E5A2
:103240000D9B1B78002B3FF4FEAE8C498C4B0A681B
:1032500001321340002BC0F2C0810B60F3E62B68F3
:10326000013B012B64D8854B1B68002B00F0E780E5
:10327000012B40F0DD80DFF87482824FD8F80030F7
:10328000814E002AACBF01224FF0FF32134403F1FC
:103290000F011E29C8F8003040F2EA817B4C3A68E1
:1032A00056F82210C1F101029342C0F2DF810139C8
:1032B0008B42A8BF0B46C8F80030754B0193754B85
:1032C0000C9357E0694A0F92B4E601238AF8003064
:1032D000FDF716FA03F0A4FE6F4B1860C9E46F4BBC
:1032E0000D931B78002BBED1694B01931B78002BEB
:1032F00000F0FE806A4B1B68032B00F27581002AE8
:10330000604FC0F2C081634B0C935A4B1B68002B7B
:1033100040F072810C9B3A681B6862495B4C03EB7E
:1033200002135B01CA58024482F30702CA5021E02B
:103330005D4B009384E4B8F10A0F7FF79AAC3B68C9
:1033400002EB031254F82230B3FA83F35B0944F81A
:1033500022308EE4002AC0F2818169D0534B494F5C
:103360001A684A4C7F211C20FDF784FA484B0193D0
:10337000484B0C934C4B00931A460123137065E4A1
:103380004B4B1B68012B00F017814A4E376807F042
:1033900055FC394607F09EFB4749044607F040FEBE
:1033A000002840F007814549204607F057FE00B14C
:1033B000424C434B394620461C6007F027FE00284C
:1033C00036D1346020463F493F4E2E4F2F4C07F0F8
:1033D00089FC01463D4807F039FD07F06FFE3C4A85
:1033E0003C491060136803EB43035B000B601068FB
:1033F00007F020FC384907F075FC254B0193254B5D
:1034000030600C93B6E7354B1B68012B00F0C4808D
:10341000334B34491A6810440428A8BF04206FF0C5
:103420000404A042B8BF20469042086000D0186053
:10343000144F174B0193174B144C0C939AE7114FF1
:10344000114E3A6856F822300344002B40F3CA80EC
:10345000102BA8BF1023244946F8223041F822300F
:10346000E7E700BFB4AAFF1F08B0FF1F6EB1FF1F40
:1034700088ADFF1F6C8DFF1F67666666B09DFF1FDE
:1034800003000080ACB1FF1F348DFF1F00AEFF1F93
:103490008CAAFF1F60B1FF1F98B1FF1F94AAFF1FE6
:1034A000B49DFF1FA48DFF1FE8ADFF1FBC9DFF1F34
:1034B00068B1FF1F608DFF1F00002042000096438F
:1034C00064ABFF1F0000C041E4ADFF1FC0E1644CCE
:1034D000A0B1FF1FE0ADFF1FA69BC43BD4B1FF1FEF
:1034E000A8B1FF1F44B1FF1FB0B1FF1F94ADFF1F74
:1034F000984E376807F0A2FB394607F0EBFA964979
:10350000044607F08DFD002844D19449204607F079
:10351000A5FD00B1914C924B394620461C6007F046
:1035200075FDB8B18F4B904F904C0C9322E7904BA8
:1035300064211A681A20FDF79DF92B6858E68D4B17
:1035400083F80080FFF795BB8B4B40461968FEF768
:1035500013FAD0E420468949346007F0C3FB0146E2
:103560008748884C804F07F071FC07F0A7FD864A1A
:1035700086491060136803EB43035B000B6010681F
:1035800007F058FB824907F0ADFB764B20600C93A7
:10359000764CEFE6704CBEE7754A11680844002887
:1035A00003DD10280346A8BF10238B423FF440AF31
:1035B00013603DE7684CFCE6764B77491A68104487
:1035C0000428A8BF04206FF00404A042B8BF20461E
:1035D000824208607FF42BAF2AE7013B63F00303CC
:1035E00001333AE6012336E7042B6C4B18D05D4AD1
:1035F0005D4F1B680C928AE6012B18D1654B66491A
:103600001A6810440428A8BF04206FF00404A042E4
:10361000B8BF20468242086044D01860534CA9E6E7
:103620001B68042B40D04F4A4F4F0C926FE6032B80
:1036300047D10C9B3C681968594A2401631802EB76
:1036400043139B680344002B39DD102BA8BF1023C4
:10365000214402EB4112454C93608BE6444B424FB0
:103660001A68424C00217EE64E49D7E5134622E611
:1036700038683E4C56F8201004EB8010FEF752FBE1
:10368000D8F800300BE6374A0C9239681268444C7F
:1036900002EB0112033303EBC2034FF0FF3244F895
:1036A000232032E6314C65E63F4A2F4F13682F4CFA
:1036B000034483F3010313602A4B0C935AE601235E
:1036C000C6E7022BEED10C9B39681A68344B274CA5
:1036D00002EB011203EB42125368034483F3070326
:1036E000536047E6049103910E911191FFF75DBB82
:1036F000009B1B78002B6FD02C4B1B78002B65D1C7
:10370000029B2B4C1B78002B77D0274B1B68002B80
:103710007AD0012B00F085800D9B1B78002B70D197
:10372000009B1B78002B51D10F9B224C1B78002B48
:1037300057D0214800F0D4FB00232370FDF700F898
:1037400000284ED1FDF71CFD0028FBD119B0BDE8C3
:10375000F08F00BF608DFF1F0000204200009643E5
:1037600064ABFF1F60B1FF1FACB1FF1F00AEFF1FB6
:10377000BC9DFF1FA4B1FF1F5C8DFF1F0000C04157
:10378000C0E1644CE4ADFF1FA0B1FF1FE0ADFF1F1F
:10379000A69BC43BA8B1FF1F44B1FF1F6C8DFF1F48
:1037A000A48DFF1FB49DFF1F88ADFF1F08B0FF1F32
:1037B000B5AAFF1F6EB1FF1F38AAFF1FFDF726FF36
:1037C000009B1B7843B1224B1B789BB1214802F030
:1037D000C7FA009A002313700F9B1F4C1B78002B15
:1037E000A7D1FCF7ADFF0028FBD1FDF7C9FC0028ED
:1037F000A8D1ABE7FEF7D0FD92E70D9B174D1B78E4
:103800003BB1FFF735F88BE7FEF74CFF0D9B1B78BC
:1038100084E7FEF7C9FE2378002B7FF476AF2B7880
:103820007CE7019B1B78002B3FF476AFFFF7D4F8C1
:1038300072E70D9B1A469DF844301370FFF7C6BA25
:10384000009B1A469DF80C301370FFF7C3BA00BFF7
:1038500008B0FF1FC0A8FF1F6EB1FF1F94AAFF1F73
:1038600070B5184D82B0284602F06EF9B5F90C100B
:1038700001291FDD0022012694B2630068890196A8
:103880009BB2C91A09B2C31A1BB200910D48114666
:1038900001F03EFA0B4802F063FA012003F0E2FB6C
:1038A000B5F90C10023401EBD17322B243F34F038C
:1038B0009342E1DC4FF4FA7002B0BDE8704003F0CF
:1038C000D1BB00BFC0A8FF1F2DE9F047644A654B7C
:1038D0001268654CDFF8E881644FDFF8E8A182B038
:1038E0004FF084490192019A1A6003F099FB604BF2
:1038F000186003F095FB5F4A5F4B10605F491868E2
:1039000007F0F0F901465E4807F0A0FA07F0D6FB91
:103910005C4A5D491060136803EB43035B000B6076
:10392000106807F087F9594907F0DCF9206003F0C7
:1039300077FB574B186003F073FB564B18600D2054
:1039400002F096FF00242646382004F0A5FE524BD4
:1039500001220021054600F087FC4AF8246001346A
:103960004FF40053052C48F8045BC5F8109047F855
:10397000046B6B60E8D1FCF77DFE0121172003F09A
:1039800049FB464E464F474C474D0C231846337073
:1039900003F01CFB307806F051FD02460B46002078
:1039A0004FF0804105F04AFB07F06EF83F4B38803E
:1039B0004022002128201A6003F00AFAFCF77AFD61
:1039C0002846A56002F0C0F8FFF74AFFC82003F0C0
:1039D00049FB284602F0B8F804F10800012100F084
:1039E00081FF002104F1080000F07EFFFEF7D0FA0D
:1039F0002F4800F067F92F4800F01EFA2D4800F01C
:103A00006FFA32212B4800F0F1FB0024A1B22A4AC0
:103A1000284800F047FB274800F062FA01340520EF
:103A200003F020FB1B2CF1D10520FEF787FA4FF4A1
:103A3000FA7003F017FB0022234611461D4800F0E0
:103A400037FB1C4800F04CFA642003F00BFB1648CF
:103A500002F086F9194B01221A7002B0BDE8F08716
:103A600060B6FF1F9CB1FF1FE4ADFF1F84B1FF1FB5
:103A700040B1FF1F90AAFF1F608DFF1F0000C041D3
:103A8000C0E1644CA0B1FF1FE0ADFF1FA69BC43B8B
:103A900098B1FF1F2CB1FF1F6F12833A60ABFF1F5D
:103AA0006CB1FF1F98ADFF1FC0A8FF1FD0AAFF1F5A
:103AB0000CB0FF1F38AAFF1F80808000E8ADFF1FF9
:103AC000BCAAFF1F70B1FF1F70B4002401E0202CBE
:103AD0000DD025010134465D002EF8D14619012490
:103AE000445520467160F360B26070BC704700209E
:103AF00070BC7047F8B50E4600F10C0400F5037574
:103B0000002702E01034AC4214D014F80C3C002B17
:103B1000F8D02368B342F5D814E905000021FCF77A
:103B200081FE0021172003F061FA103404F81C7C98
:103B3000AC42EAD1F8BD00BF4FF0FF31FFF7DABF6A
:103B4000002308491A46CA541033B3F5007FFAD14E
:103B5000002305491A46CA541433B3F5207FFAD11D
:103B6000704700BF58B4FF1FD8B1FF1FF8B5044617
:103B70000E46154600214FF4807210301F4607F0A4
:103B80000BFE069BC4F818310022079BC4F81021D5
:103B900026606560A760C4F81C31E260C4F8142197
:103BA0002046F8BD10B50446C06808B107F034FBE4
:103BB000204610BD2DE9F843D0F81C31002B7EDDE6
:103BC00004460025A3680121585D03F00FFAD4F8DC
:103BD0001C310135AB42F5DC002B6EDD0026B04612
:103BE0000127A3680021985D03F000FA4FF44873A1
:103BF000013BFDD1D4F81831002BC8BF4FF00009AC
:103C00002EDC4EE0990724D5D4F81011D4F8140115
:103C10000131C9B203F0FD03814243F0080306D02D
:103C2000D4F81001204480F81080C4F81011D4F8A2
:103C30001001D4F814110130C0B2884209D0D4F870
:103C4000101104EB010E2168495D8EF81010C4F8C4
:103C500010015355D4F8183109F101094B4520DD05
:103C60006368D4F81C5113F8090003F0C5F905FB8B
:103C70000965E268535DDBB20028C3D19807E8D438
:103C8000D4F81011D4F814010131C9B2814243F0C3
:103C90000603CCD0D4F8100120440774C4F81011E6
:103CA000C5E7A3680121985D03F0A0F9D4F81C31A1
:103CB0000136B34295DCBDE8F883BDE8F883BDE882
:103CC000F88300BF70B5D0F81851D0F81C610446D5
:103CD000012106FB05F007F011FA002EE060C8BFD5
:103CE000002510DDA3680121585D03F093F9A36856
:103CF0000121585D03F07AF9D4F81C310135AB424B
:103D0000F0DCD4F81851002DC8BF00250ADD636827
:103D10000221585D03F07EF9D4F818310135AB4229
:103D2000F5DC70BD70BD00BFD0F81031D0F81401C3
:103D30001B1A4CBF03F5807018464010704700BF37
:103D4000D0F81421D0F810319A4220D0D0F81421A4
:103D5000D0F8143102440133DBB2117CC0F81431C5
:103D6000D0F81421D0F810319A4218D0D0F814218C
:103D7000D0F8143102440133127CDBB2C0F81431A4
:103D80004FF0000062F3070061F30F207047D0F896
:103D90001421D0F810319A424FF0FF01E6D1FF22F2
:103DA0004FF0000062F3070061F30F20704700BF7F
:103DB000037AF0B5160C150AF6B2EDB25FFA82FE80
:103DC0005BB103FB06F603FB05F503FB0EFEC6F332
:103DD0000726C5F30725CEF3072EC77C047CBC421B
:103DE00014D0C46804EB8101120E0F444BB9D3B256
:103DF0003B70077CCE55437CCD54837C01F803E0B7
:103E0000F0BD03FB02F3C3F30723F1E7C36801EB43
:103E100041011944EEE700BF10B50446C06807F041
:103E2000FBF9B4F90600002803DBC0B2002103F05F
:103E3000F1F8204610BD00BF10B50446B0F90600E9
:103E4000002807DBC0B2012103F0E4F80021A079CB
:103E500003F0CCF80123637010BD00BF38B50446F1
:103E6000C0680D4607F0D8F9E37C207C83420CBF84
:103E70000320042010FB05F080B2A080012107F090
:103E80003DF9E06008B1658038BDA080608038BD34
:103E9000F0B4077CC47CC568C1F38106FF29A4EB9C
:103EA0000704C1F3811201F003074674B4FA84F4E5
:103EB0008CBF00260126C1F30111C2746409877406
:103EC000067001744DB1511AB1FA81F14909A1424C
:103ED00003D04188F0BCFFF7C1BFF0BC704700BF02
:103EE0002DE9F843C368002B57D04569044603F019
:103EF00097F8854202D903F093F8606103F090F8D7
:103F00006569401BB0F5967FF1D372B64649B4F9A6
:103F100006500B684548464A50F83500E668A788C1
:103F2000257843F080730B60136843F00103374436
:103F30001360A5B3A1F55D41F8390A68BE4202F1EC
:103F400096021FD289464FF0010C16F8018B4FF0F4
:103F5000080E80250B689B1A952BFBD918EA050FD4
:103F6000D9F8002080F880C055D00B689B1A5F2BD1
:103F7000FBD9BEF1010E80F800C14FEA5505E9D129
:103F8000B742E2D12B490B689B1A952BFBD962B63D
:103F900003F046F86061BDE8F883BDE8F883254981
:103FA0000A68BE4202F5967220D289464FF0010C93
:103FB00016F8018B4FF0080E80250B689B1AB3F59D
:103FC000967FFAD318EA050FD9F8002080F880C050
:103FD00018D00B689B1A8F2BFBD9BEF1010E80F80D
:103FE00000C14FEA5505E8D1B742E1D111490B684C
:103FF0009B1AB3F5967FFAD362B603F011F86061AD
:10400000BDE8F8830B689B1A3B2BE6D80B689B1A1C
:104010003B2BF7D9E1E70B689B1A1D2BA9D80B683E
:104020009B1A1D2BF7D9A4E7FCED00E0E40C01007E
:10403000001000E0041000E038B543786BB104468E
:10404000B0F9060000280D4609DBC0B2002102F0DD
:10405000E1FF6378E5801BB938BDC18038BDE180E0
:10406000EDB22846012102F0D5FF28460021BDE827
:10407000384002F0BBBF00BF70B5002504460E46B5
:10408000457019460572C56045611546FFF700FF8A
:1040900031462046FFF7E2FE20462946FFF7CCFFD7
:1040A000204670BD43888B4201D9FFF781BE70471F
:1040B000F8B514464288A24215D906460F469BB968
:1040C0001546134604E00134A4B2AC420BD2738807
:1040D000A342F8D9214601343A463046A4B2FFF74C
:1040E00067FEAC42F3D3F8BDE518ADB2954228BFE8
:1040F0001546AC42E5D3F8BD40F2FA5303FB00F09D
:1041000000F500400014B0F5FF7F10B422DAFE285D
:1041100044DDC0F1FE034C1CDBB204FB03F3C4EB33
:1041200004241B1224120020C943C9B201320C44DA
:104130000B44084402FB04F402FB03F304F47F4441
:104140001B0202FB00F244EA122003F47F0318432F
:1041500010BC7047B0F57F7F84B20DDAB4F53F7FB5
:1041600026D8831C4C1CDBB204FB03F3C4EB0424F1
:10417000181224120023D7E79C4225D040F2FA43BC
:104180009C4228D9C0F1FA004B1CC0B203FB00F0DE
:10419000C3EB032300121B120024C5E74B1CC0B263
:1041A00003FB00F0C3EB032304121B120020BBE748
:1041B000C0F1FC004B1CC0B203FB00F0C3EB0323B7
:1041C000041218120023AFE74B1CC3EB032300209B
:1041D0001B120446A8E7031DDBB2481C00FB03F3D7
:1041E000C0EB00201B12001200249DE770B44E1C8F
:1041F000047AF6B2A64213D0013C14F0FF04C5685D
:1042000010D183882A4653B1137804FB03F31B12A1
:1042100002F8013B531B81889BB29942F4D8067285
:1042200070BC7047FF2905D03302013B93FBF4F4C7
:10423000A4B2E6E74FF6FF7393FBF4F4E1E700BFA7
:1042400010B483B002AB074C43F8040D02A91A78EE
:10425000A25C03F8012B8B42F9D1019803B010BC8A
:10426000704700BFB0BE00002DE9F04704460F467E
:104270004FF4806100264FF0814061605FFA87F85B
:1042800001214FF000092061217540463146C4F8F4
:10429000209084F8246092461D4602F0BBFE314611
:1042A000404602F0A3FE276084F80CA028464FF099
:1042B0007E5106F0D3FE28B14FF07E55A560204612
:1042C000BDE8F0874946284606F0AAFE0028F5D04A
:1042D0004D46A5602046BDE8F08700BF037B2DE971
:1042E000F04704460D46002B41D0037D0846002BC5
:1042F00040F0988006F0A2FCD4F810800646A7692A
:104300003046394606F0E4FB0021054606F0A6FEDD
:10431000002800F0C880284606F0D0FE266A8146B4
:104320003146284606F0D4FB604906F0DBFC3146F6
:1043300006F0D0FB00212062064606F08FFE002822
:1043400000F0AE80414630464FF0010A06F068FEAC
:1043500008B94FF0000A84F824A04146304606F020
:104360005FFE10B3384606F083FEBDE8F087A7690C
:10437000084606F063FC394606F0AAFB0021054614
:1043800006F06CFE002871D105F1004006F096FEA3
:10439000266A81463146284606F09AFB434906F0D4
:1043A000A1FC314606F096FB2062484606F042FC2E
:1043B000A16806F097FC4FF07E5106F08BFB01469A
:1043C0004FF07E5006F042FD01464FF07E5006F061
:1043D0007FFB014606F07EFB4FF07E51064606F05D
:1043E0003DFE00284AD04FF07E50294606F07AFC68
:1043F000394606F06FFB00263146A061054606F0FF
:104400000FFE00283CD16068013806F017FC064614
:104410000146284606F022FE50BB284606F028FE3C
:10442000BDE8F08706F00AFCD4F810804146064645
:1044300006F0F6FD40BB6768384606F0FFFB4146D4
:1044400006F046FB0146304606F008FE00283FF421
:1044500056AFC7EB450006F0F1FB414606F03AFBCC
:1044600006F006FE06F0EAFB064648E728468DE71A
:10447000A661304606F0FCFDBDE8F0873046B4E7A3
:10448000A6610020BDE8F087680006F0D7FB414632
:1044900006F01EFB06F0ECFD06F0D0FB06462EE70C
:1044A00006F100464EE705F1004035E7CDCCCC3EA5
:1044B000C36A10B504460363FFF710FF236BE06285
:1044C0001B1A18BF012384F8343010BD4318405C18
:1044D0005B7803EB002080B2704700BF012B0BD04C
:1044E00007D3022B02D1801A00B27047401A00B2E3
:1044F0007047104400B27047084400B2704700BFD4
:10450000012B0BD007D3022B02D1401A00B2704707
:10451000104400B27047084400B27047801A00B2DD
:10452000704700BFF0B40D780668AB183478DBB282
:10453000072B44FA05F40AD9771C0760C5F1080572
:104540007078EDB200FA05F5083B2C43DBB2012090
:104550009040E4B2013820400B70F0BC704700BFBF
:1045600010B50A460C4600F11001FFF7DBFF013CD5
:104570000123E4B203FA04F4001B40B210BD00BFF3
:1045800070B505460023816005F8183F00F1080664
:10459000044690F8202029463046FFF7C3FF2946FD
:1045A000A07594F821203046FFF7BCFFE07570BD80
:1045B00010B50B7803704B7843708B788370CB7891
:1045C000C3700B7903714B7943718B798371CB790C
:1045D000C3710B7A03724B7A43728B7A8372CB7AF4
:1045E000C3720B7B03734B7B43738B7B8373CB7BDC
:1045F000C3730B7C037402460C4608461121FFF777
:1046000065FF132150822046FFF760FF152190823D
:104610002046FFF75BFFD08210BD00BF70B49DF84D
:104620000C40BDF81050032C26D8DFE804F01E170C
:104630000C02006804680395A46BD21A0132A446E8
:1046400012B270BC6047006806680395C3F10104AC
:104650002144F46B09B2A44670BC6047006804684A
:104660000395A46BA44670BC60470068046803957A
:10467000E46BA44670BC604770BC70472DE9F04FF6
:1046800087B005460F4690F8148090F815A0059263
:104690000DE06B7E002B47D0A7420AF10103A7EB88
:1046A00004043AD3E7B25FFA83FA4FF0000895F8B2
:1046B0001A90B5F90E30AC7D03934FFA88F64FFA95
:1046C0008AFB31464B465A46B5F90C00FFF718FFF6
:1046D000C8EB0404E4B2A742049031464B463E4680
:1046E0005A4628BF26460398FFF7F8FE002ED3D07F
:1046F000059B002BCDD0B5F810E0CDF800903346E7
:1047000002460499CDF804E02846FFF787FFA74248
:104710000AF10103A7EB0404C4D247442F7585F8BE
:1047200015B007B0BDE8F08FB5F812E0E5E700BFBF
:104730002DE9F047044600F10805FFF721FF94F842
:10474000221094F917902846FFF70AFF94F82310D7
:1047500007462846FFF704FF94F82410064628462B
:10476000FFF7FEFE94F91630002B82463ADD4E44E8
:1047700094F81A80B4F90C00764276B23246434679
:104780003946FFF7BDFE3246A0814346B4F90E001C
:104790003946FFF7A3FE0023E0812375637504F11A
:1047A0001806A27F31462846FFF7BCFEE27F80460E
:1047B00031462846FFF7B6FE07460022414620460E
:1047C000FFF75CFF012239462046FFF757FF012221
:1047D00031462846FFF7A6FE0028EED194F91530A1
:1047E0004B45DEDB5046BDE8F08700BF38B5436877
:1047F000FF2903F1170310D8602932D8402984BF5C
:10480000C28D9B18587818B92AE00344587868B3C9
:104810001A788A42F9D1981C38BD428E1A440D4646
:10482000144610460021FFF751FE022104441046B1
:10483000FFF74CFE854202F10402F2D8207862783C
:1048400052EA00200CD0854202D10DE09D420BD0EF
:10485000A3781C442078637853EA0023F6D11846E5
:1048600038BD028E1344CDE7E01C38BD38BD00BF13
:1048700038B50446FFF7BAFFC0B104F10805014698
:104880002046FFF77DFE94F822102846FFF768FEC9
:1048900094F8231084F834002846FFF761FE284678
:1048A00094F82410BDE83840FFF75ABE38BD00BF69
:1048B0004176704710B58181C28119460446FFF7E1
:1048C00095FF20B101462046FFF732FF00B210BD30
:1048D00042688A4205D00022416042761C30FFF7D0
:1048E00067BE7047018270474182704719B94FF621
:1048F000FF710846704790F8463063B9FB291ED90E
:10490000052301F0010180F84630A0F844104FF66D
:10491000FE7108467047B0F8442001F03F0141EABB
:104920008211013BDBB289B24FF6FE72A0F844104F
:10493000002B18BF114680F8463008467047F7290B
:1049400005D9042301F0030180F84630DDE7EF29A3
:1049500005D9032301F0070180F84630D5E7DF29A8
:1049600005D9022301F00F0180F84630CDE7BF29B9
:1049700005D9012301F01F0180F84630C5E789B24F
:10498000B7E700BF00232DE9F04706461C464D1E41
:10499000837780F846309A4600F108084FF6FF7793
:1049A0004FF6FE7915F8011F3046FFF79FFF0346CB
:1049B000BB420146404608D04B45F3D0FFF758FFB5
:1049C000044424B20FFA80FAECE796F91E3033B1B2
:1049D00096F93C0003441C44CAEB040004B2204690
:1049E000BDE8F0872DE9F04F85B09946BDF93870E4
:1049F000BDF83CA0BB1AC1EB090B002BB8BF5B4252
:104A0000BBF1000FB8BFCBF1000B5B450D4616465E
:104A10000093804648DC4D453A4633464CDC194607
:104A200013460A46C5EB09019B1A89B2002B0CB24A
:104A3000B8BF5B4204EBD474BE42ACBF4FF0FF3250
:104A400001224D45039102924FEA640429DC9BB296
:104A500001930DE0D8F80070BF69B847019BE41AD4
:104A6000A3B21CB20135002C2DB211DBA94518DB15
:104A7000009B5B452A46534631464046EADCD8F85F
:104A8000002053469769294632464046B847E5E735
:104A9000029A1644039AA94502EB030436B224B2E3
:104AA000E6DA05B0BDE8F08F4A462B46B9463546F2
:104AB0004D4517461E46B2DD304629463E464D4618
:104AC00007468946AEE700BF10B404682469A446CF
:104AD00010BC604730B40468BDF808500295A46B60
:104AE000A44630BC604700BF30B40468BDF808502D
:104AF0000295E46BA44630BC604700BF70B4046804
:104B0000BDF90C60BDF8105003960495246CA446C2
:104B100070BC6047704700BF10B582B0B0F90C2080
:104B200001910168009200220C6CB0F90A30114624
:104B3000A04702B010BD00BF704700BF01F00301E5
:104B40000129017606D0032904D0C2880389428155
:104B5000838170470289C38842818381704700BF87
:104B60002DE9F0410568134E6F6986B0B7420446DF
:104B7000BDF8308010D1013B13441BB20093CDF837
:104B800004800B46AD6A2046A8472368DB6AB3421F
:104B90000AD106B0BDE8F081059304920391B847AD
:104BA00003A925680EC9E6E7204606B0BDE8F04136
:104BB000184700BF154B00002DE9F0410568124E63
:104BC0006F6986B0B7420446BDF830800FD1013B13
:104BD000CDF804800B4400921BB2AD6A2046A84772
:104BE0002368DB6AB3420AD106B0BDE8F0810593C1
:104BF00004920391B84703A925680EC9E7E7204648
:104C000006B0BDE8F0411847154B00002DE9F04F04
:104C10000568DFF858B06F6985B05F450646BDF995
:104C20003890BDF83CA00C46904615D11F19BC42E7
:104C30000CDACDF800A0214601342D6A4B464246DD
:104C4000304624B2A847BC423568F2DBEB6A5B45CC
:104C500007D105B0BDE8F08F0393B8473568039BD3
:104C6000E4E7304605B0BDE8F04F1847154B0000AB
:104C70002DE9F04387B099420546BDF93840BDF8AB
:104C80003C6025D0A24212D00768DFF88080D7F8B8
:104C90001490C14532D18DE850002846BC6AA04727
:104CA0002B68DB6A434524D107B0BDE8F083994205
:104CB00002DD08461946034628680E96C46B013388
:104CC0005B1A1BB22846A44607B0BDE8F043604714
:104CD000A24202DD134622461C4628680E96631C3B
:104CE000846B9B1A1BB22846A44607B0BDE8F0436C
:104CF0006047284607B0BDE8F04318470593049283
:104D00000391C84703A92F680EC9C4E7154B0000DB
:104D10002DE9F04FD0F800E0DFF89090DEF814B005
:104D200083B0CB450446BDF93080BDF834A00D46B4
:104D300017461E4631D1CDF800A0DEF824B0294632
:104D400033463A462046D8472368CDF800A008F1FC
:104D5000FF323A44D3F824B0294612B233462046F3
:104D6000D8472368CDF800A02946D3F820B03A46AA
:104D700043462046D8472068CDF800A0711E29443C
:104D80004346056A09B23A462046A8472368DB6ACB
:104D90004B4506D103B0BDE8F08FD847D4F800E00A
:104DA000C9E7204603B0BDE8F04F1847154B000097
:104DB000F0B4002401254FF6FF76094F0760047117
:104DC0000476C48104828476C461C5758575457690
:104DD00086824682C180028141818281F0BC704717
:104DE000D00101002DE9F04F87B01746BDF94040D2
:104DF00000912546E91D059344BF2B4603F10E01A2
:104E00000268BDF8486053690294C91003912B49A8
:104E1000BDF9444001968B42824645D1002C3CDDD1
:104E2000029B3C445E1EB6B24FF0000923B20493CD
:104E300001364D46029B002B28DD059B002403EB29
:104E4000090806E0EDB22B0604F1010411D4A642D4
:104E50001CD0A1B211F0070F23B24FEA4505F1D1E2
:104E6000002BB8BF0733DB10013418F803502B06B2
:104E7000EDD5009BD2F818B019443A4609B2019B0F
:104E80005046D847A642DAF80020E2D1039B01370A
:104E90009944049B3FB2BB42CCD1D36A074A9342A8
:104EA00006D107B0BDE8F08F9847DAF80020B5E7E3
:104EB000504607B0BDE8F04F184700BF154B000043
:104EC00070B4BDF90C60BDF91050BDF814400396E4
:104ED0000495059470BCFFF785BF00BF2DE9F04F26
:104EE00091B083460591C169BDF8680006909DF8B0
:104EF0007400BDF86C709DF870A003900292994602
:104F0000002900F0CC800B7A48680A68C3EB0903DB
:104F1000DBB2154600EBC30230F83360D378099357
:104F2000BAF1010F92F9053092F802800E9392F9CE
:104F3000064079D9BDF93830089323B20B93A94BB9
:104F4000DBF800200F93194653698B4240F0A28092
:104F5000099B002B53D0BDF808300C93002123444B
:104F600007910D930F460C46A946B8F1000F3FD0AC
:104F7000BDF81C100B9BBDF80C000297CB1813FB5F
:104F800000F30C9803440D981BB2014404930BB238
:104F90000A93002505E00135EBB264009845E4B2C0
:104FA00023D9029B2B44590703D1731C19F80640DF
:104FB0009EB22306EFD5089BE918059B11FB0AF169
:104FC000BAF1010F194402D1039B012B1ED0069B9D
:104FD0000193039B0093D369049A1F4609B2534679
:104FE0005846B847DBF80020D5E7029F4744FFB298
:104FF000079B099901330793DBB29942B5D8D36A6D
:105000000F9A934241D111B0BDE8F08F0E9B0599E4
:10501000591893690A9A29441F4609B2069B5846B3
:10502000B847DBF80020B6E7039B012B82D80023AA
:105030000B93089383E70799099A0131013A49B222
:1050400012F0FF020791099260D1069A4A454F4635
:1050500017D0BAF1010F03D1039A012A00F0B580ED
:105060000A9A089802EB8201039AD2008DE8840024
:10507000084401B2DC69029A53465846A047DBF85F
:105080000030DB6A0F9A9342BDD0584611B0BDE89C
:10509000F04F184758469847DBF8002058E7BBF90F
:1050A0000A3005998B42AEDDBBF90C300298834281
:1050B000A9DD062313FB0A13002BA4DD039B00EBE1
:1050C000C303002B9FDD9BF81A3033B9B9F1AF0F42
:1050D00084BF09F101035FFA83F9424ADBF800302B
:1050E0000F9211465A698A426AD1BDF8142008927B
:1050F00005220992002207921FFA8AF20A92CDF83D
:1051000030900FFA8AF2B946039F05920799BDF8CD
:105110003040089D0522104610FB04120A98324CBC
:105120000646084601FB0651A65C15FA80F209B254
:1051300012B204910B92082400251CE0BAF1010F71
:1051400001D1012F24D0069A0192029A009705FB03
:105150000722D3F81C800499059B12B25846C04719
:10516000DBF80030013C013514F0FF046DB24FEA6A
:1051700056063FF460AFF007E0D4069A4A45F1D0F6
:10518000BAF1010F01D1012F0ED0CDF80490DCE768
:10519000029AD3F818800B99069BAA1812B25846A7
:1051A000C047DBF80030DDE7029AD3F818800B998E
:1051B000AA184B4612B25846C047DBF80030D1E778
:1051C00058469047DBF800308FE70899CDF80090FB
:1051D00005311C6A029A082309B25846A047DBF839
:1051E00000304EE7154B000020020100F0B5C36906
:1051F00085B004463BB30A296FD00D294FD01A7AE7
:1052000091424CD3987A884249D38A1A5D68D2B2C7
:1052100005EBC205AA78002A56D0E878002853D0BA
:10522000607E00283ED095F905E0B4F90E00A67D19
:10523000B4F90A70724406FB0202BA4269DCE77DE7
:10524000B4F9102034E00A295CD00D2927D0427E21
:10525000002A50D0B0F90E00A57DB4F90A600622EC
:1052600012FB0502B242E67D42DD228AE38102EBB7
:10527000C60212B218462282B4F814E0678A039676
:105280000B46029501468DE880402046FFF726FE3A
:10529000A37DE28903EB430302EB4303E381012097
:1052A00005B0F0BDA67DE77DB4F90E00B4F910207D
:1052B000B4F814E00397678A02960B468DE88040A5
:1052C00001462046FFF70AFE2979E389A27D0120E5
:1052D00001FB0233E38105B0F0BD0022C2811A7BDD
:1052E000C17D038A01FB02330382012005B0F0BDBA
:1052F000B4F91020C0E7857DC67DB4F91020B0F95F
:105300000E00B9E7028AC17DC38102EBC1030382AB
:10531000C5E70020E0811B7B228AE77D03FB072293
:1053200012B22282C4E700BFF0B50C1EBDF81460B3
:1053300034DBB0F906701919B942C4BF3B1B1BB26C
:10534000002BA6461CDD002A1146B8BFD11D02F075
:105350000705CC10826A012007FB04E1A840012E5A
:105360000A44C0B21ED00CD3022E09D1013B12FA5E
:1053700083F3013A12F8011F41409A421170F9D1AA
:10538000F0BDC043013B12FA83F3C0B2013A12F8F8
:10539000011F014093421170F9D1F0BD23441BB2AB
:1053A0000024C6E7013B12FA83F3013A12F8011F09
:1053B00001439A421170F9D1F0BD00BF00291EDBF4
:1053C00030B4B0F90A408C4218DD002A16DBB0F97F
:1053D0000C40944212DD047E022C54D0032C4CD09D
:1053E000012C06D15140C4884A405140013C611A09
:1053F00009B2012B2DD017D3022B01D030BC70473E
:10540000002AB0F90630856A1446B8BFD41D44F3AB
:10541000CF0404FB031102F007026B5C012000FAC9
:1054200002F25A406A54E9E7002AB0F90630856A68
:105430001446B8BFD41D44F3CF0404FB031102F09B
:1054400007026B5C012000FA02F223EA02026A54AE
:10545000D4E7002AB0F90630856A1446B8BFD41DD7
:1054600044F3CF0404FB031102F007026B5C01203C
:1054700000FA02F21A436A54C0E70489013C641A34
:10548000114622B2B5E7C5880489013D013C691A7D
:10549000A21A09B212B2ACE72DE9F041079E9DF9BC
:1054A0001880089D04461F46FFF782FC0D4B0E48EE
:1054B0000E4984F83380FF22002F08BF1F4684F86E
:1054C0002F20002384F8302084F8312084F8322003
:1054D00020606665A565676221662362A362204637
:1054E000BDE8F081C09DFF1F400701000320003888
:1054F00010B50446806A034B236008B105F08CFEAA
:10550000204610BD40070100F8B5436ADBB190F8B2
:105510002C200125AA4083F83B2083F85E5083F8B5
:105520005D500446406A03680E461B680021984798
:10553000606A036831461B6898472946606ABDE87F
:10554000F84000F053BFC26BC56C1368046A23EACD
:10555000050313604CB122684FF00043D3625163DE
:10556000D36A002BFCDA936BF8BD836B466B08257E
:10557000802410E03768426C3A4332601F68826CC6
:105580003A431A601A68876C013D22EA07024FEA23
:1055900054041A6007D02142ECD13268476C22EAE9
:1055A00007023260EAE7F8BD70B50446406A0D466E
:1055B00000282BD0616D00F0B7FD002D20460CBFF8
:1055C000A621A721FFF7A0FF606A20B1A16DBDE869
:1055D000704000F0A9BD216C226D0868236A024367
:1055E0000A6093B1DA7A82B1D00703D5224A996969
:1055F0001160DA7A910703D5204AD9691160DA7A05
:10560000520702D51E4A1B6A136070BD236A002B25
:105610002BD0D97A226EE1B172B6D97ACE0706D5EF
:105620001848D9680668314099610160D97A8807BD
:1056300006D51548196906683140D9610160D97AE3
:105640004E0705D511485969066831401962016055
:1056500062B61B68D968914207D00D4818600D49A1
:10566000DA6042F0804018611960226C216D136885
:1056700023EA01031360A0E700E100E004E100E099
:1056800008E100E080E100E084E100E088E100E082
:1056900001403F0000003F80436A2DE9F04105468C
:1056A0000E469046002B3ED090F82C100124A140CD
:1056B00083F83B1083F85E4083F85D40406A0368DE
:1056C00000211B6808F1FF379847FFB2B8F1000FBF
:1056D00023D03744A046013E686A16F8011F0368CC
:1056E0001B6898470134B742A4B216D01F2CF3D9D7
:1056F0000121686A00F07AFE95F82C206B6A52004E
:1057000083F83B2083F85E8083F85D80686A0368D5
:1057100000211B6898470124DEE7686A0121BDE883
:10572000F04100F063BEC26BC16C136823EA010351
:1057300006EB080413604FF00048A6420ED02B6A17
:1057400016F801EB63B11A68C2F82C80C2F834E095
:10575000D36A002BFCDAA642936BF0D1BDE8F0814E
:10576000AB6BD5F834C008208021DCF800206F6CCA
:105770001EEA010F14BF3A43BA43CCF800201A685E
:10578000AF6C3A431A601A68AF6C013822EA07021C
:105790004FEA51011A60E8D1CFE700BF2DE9F0418F
:1057A000044686B0806A9DF830801E460F46154636
:1057B000B4F90830002800F04B81DA1D48BF03F12E
:1057C0000E02B4F90630D21003FB02F2002105F0FC
:1057D000E3FFB4F90820202A00F3A780B4F90610EB
:1057E000A74B0120203A733902EBD27201EBD17141
:1057F0004FF0200E029073208DE8014042F34F02DB
:1058000041F34F012046FFF75BFB606A84F82D707F
:10581000002800F05181002D40F09F80B4F908303D
:10582000202B14BF3D253C2584F82C50B8F1000FE7
:1058300040F09A8006B394F93300002818DBC0B218
:10584000012101F0E7FB012194F8330001F0CEFBC8
:10585000012001F007FC002194F8330001F0C6FBA1
:105860000A2001F0FFFB012194F8330001F0BEFB98
:10587000606A002800F09880616D00F055FC0422F9
:1058800080492046FFF708FF217A0139C9B2204636
:10589000FFF73AFE7C4904222046FFF7FDFE94F90B
:1058A0002D30012B14BF142110212046FFF72CFEB0
:1058B000042276492046FFF7EFFEB4F906308F2226
:1058C000802B84F85C2000F0A580602B00F0B18074
:1058D0000225DA212046FFF717FE29462046FFF76A
:1058E00013FE81212046FFF70FFE94F85C1020463E
:1058F000FFF70AFED9212046FFF706FE94F92D3066
:10590000012B14BFF12122212046FFF7FDFD204687
:1059100006225F49FFF7C0FE606A58B3A16D00F030
:1059200003FC012006B0BDE8F081B4F90610594B24
:105930000120403A52394FF0400E029002EBD272F1
:10594000522001EBD1718DE8014042F34F0241F347
:105950004F012046FFF7B4FA57E76DB284F82C5098
:10596000B8F1000F3FF466AF00F094FB002E3FF457
:105970007FAF60E7216C226D0868236A02430A60EA
:1059800073B1DA7A62B1D00703D5434A99691160DD
:10599000DA7A91076FD4520702D5404A1B6A136026
:1059A000012006B0BDE8F081236A002B2BD0D97A04
:1059B000226EE1B172B6D97ACF0706D53848D968D8
:1059C0000568294099610160D97A8E0706D5354866
:1059D000196905682940D9610160D97A4D0705D553
:1059E00031485969056829401962016062B61B682F
:1059F000D968914207D02D4818602D49DA6042F0ED
:105A0000804018611960226C216D136823EA01033C
:105A1000136034E7B4F90830402B7FF459AF94F9A0
:105A20002D30012B14BFCF239F2384F85C30122527
:105A30004FE7B4F90830102B7FF44AAF94F92D30BA
:105A4000012B14BFAF23102384F85C30022540E7FC
:105A5000DA1D48BF03F10E02B4F90630D21003FB81
:105A600002F21046059205F0CFFBA06200283FF439
:105A700059AF059AAAE60F4AD9691160DA7A8AE71E
:105A80009007010070090100740901007809010004
:105A90007C0901008409010000E100E008E100E068
:105AA00080E100E084E100E088E100E001403F00A7
:105AB00000003F8004E100E0012194F83100214F13
:105AC00001F0A8FA94F83200012101F0A3FA94F948
:105AD000312094F9323057F83220E26357F83330EE
