:1000000000800020BD0100004DC9000005C90000AE
:1000100005C9000005C9000005C9000005C90000A8
:1000200005C9000005C9000005C900004DC9000050
:100030004DC9000005C90000A9E50000ADE50000BC
:100040004DC900004DC900004DC900004DC9000058
:100050004DC900004DC900004DC900004DC9000048
:100060004DC900004DC900004DC900004DC9000038
:100070004DC900004DC900004DC900004DC9000028
:100080004DC900004DC900004DC900004DC9000018
:100090004DC900004DC900004DC900004DC9000008
:1000A00001B200000DB200004DC900004DC90000B2
:1000B0004DC900004DC900004DC900004DC90000E8
:1000C0004DC900004DC900004DC900004DC90000D8
:1000D0004DC900004DC900004DC900004DC90000C8
:1000E0004DC900004DC900004DC900004DC90000B8
:1000F0004DC90000F1F200004DC900004DC90000DB
:100100004DC900004DC900004DC900004DC9000097
:100110004DC900004DC900004DC900004DC9000087
:100120004DC900004DC900004DC900004DC9000077
:100130004DC900004DC900004DC900004DC9000067
:100140004DC900004DC900004DC900004DC9000057
:100150004DC900004DC900004DC900004DC9000047
:100160004DC90000E5D100004DC900004DC9000097
:100170004DC900004DC900004DC900004DC9000027
:100180004DC900004DC900004DC900004DC9000017
:100190004DC900004DC900004DC900004DC9000007
:1001A0004DC900004DC900004DC900004DC90000F7
:1001B0004DC900004DC900004DC90000564B4CF21E
:1001C000205210B51A804DF628121A8000BF00BFC9
:1001D0000CF0C0FB514B4FF010621A60504A9A600D
:1001E000504ADA60504A136813F4807304D14F49BF
:1001F0000B604FF4A85313604D4B1A78110703D5C9
:100200001A7842F008021A704A4B4B492A221A7097
:100210004A4A4B4B8B4204D252F8040F43F8040B6A
:10022000F8E7484B484900228B4202D243F8042B9E
:10023000FAE74649464A002352F8230041F82300D2
:1002400001336F2BF8D1434B434A802103F8011B44
:100250009342FBD1414B3D4A1A60414B8A221A70AE
:10026000A3F5805324225A70A0221A709A7992071B
:10027000FCD59A79D406FCD43A4A937903F00C035E
:10028000082B384BF9D103221A7146225A719A79F8
:100290009006FCD5334A9179324B4906FBD5324A58
:1002A0004FF0827111600921516020221A709A79F1
:1002B00002F00C020C2AFAD12C4B2D4A1A602D4B5D
:1002C0002D4A1A6000225A60072243F8042C2B4A58
:1002D000C3F80C2D62B60CF05BFE144B1B68DA07FA
:1002E00005D527480CF0A8FC264B274A1A60274B57
:1002F0001B785B0609D5234C234B22689A4204D114
:100300001F480CF099FC002323600CF029FB1AF025
:10031000A1F90EF071FBFEE70E200540308004408D
:10032000823F04000100002B10D0034014D0034092
:1003300002D0074000E00740D89CFF1F74810200F4
:100340004088FF1FD89CFF1F50D1FF1F0082FF1F56
:100350000000000000E400E05FE400E008ED00E0E1
:1003600000500640004006404480044004800440A1
:10037000C010050014E000E0BFD401000000202000
:100380001F61DD621CE00340A5C3945A00F00740E2
:10039000FFFFFFFFFFFFFFFFFFFFFFFFFFFFFFFF6D
:1003A000FFFFFFFFFFFFFFFFFFFFFFFFFFFFFFFF5D
:1003B000FFFFFFFFFFFFFFFFFFFFFFFFFFFFFFFF4D
:1003C000FFFFFFFFFFFFFFFFFFFFFFFFFFFFFFFF3D
:1003D000FFFFFFFFFFFFFFFFFFFFFFFFFFFFFFFF2D
:1003E000FFFFFFFFFFFFFFFFFFFFFFFFFFFFFFFF1D
:1003F000FFFFFFFFFFFFFFFFFFFFFFFFFFFFFFFF0D
:10040000FFFFFFFFFFFFFFFFFFFFFFFFDEF9FFFF23
:1004100010B5054C237833B9044B13B10448AFF33E
:1004200000800123237010BDD89CFF1F0000000036
:10043000B87D0200084B10B51BB108490848AFF35E
:1004400000800848036803B910BD074B002BFBD0A0
:10045000BDE81040184700BF00000000DC9CFF1FF3
:10046000B87D0200D89CFF1F0000000010B584B0CA
:100470000A4C0B4B02930B4A01924FF0FF3300934F
:100480002046094B2022802109F0D0F8074A08496C
:10049000204604B0BDE8104010F05CB9F49CFF1F8A
:1004A000801A060040420F009C8FFF1F1C89FF1F0F
:1004B0008596000030B5094C83B001252046009593
:1004C0002B463C22022109F033FA20460221A57670
:1004D00003B0BDE8304009F0BFBE00BFF49CFF1F71
:1004E00070B5CEB2044680E80600D5B2304602218F
:1004F0000CF0D8FC022128460CF0D4FC30460CF05D
:10050000C3FCA06028460CF0BFFC0023E060236120
:100510006361204670BD00BF30B5044683B00078EB
:100520000CF0B2FC054620790CF0AEFCA3689D42AD
:10053000E36824D0984231D0A560E060ADB1A0B1AD
:100540002369012B37DD0023236101221E4B6169E2
:100550001B680193019B63615B1A132B32D9312B0A
:100560008CBF002301231BB201E00022134692B28C
:10057000002062F30F0063F31F4003B030BD9842C8
:10058000F3D02369A56085420CBF01224FF0FF32F2
:1005900013442361E060002DE7D0D0E72369A56014
:1005A000854214BF01224FF0FF3213442361E06003
:1005B000002DDAD0C3E7002201332261D5DA4FF0F3
:1005C000FF32C3E70223D2E7E8CCFF1F10B5044691
:1005D000322240F2E2430160C8B2E260A36102212C
:1005E0000CF060FC00234FF0FF31032261602274A5
:1005F000A3606361204610BD10B5044682B0007848
:100600000CF042FC636898421B4B09D01B680093B6
:10061000E268009B60601344A360002002B010BD3C
:100620001B680193A268019B9A4209D8217C4A1E4B
:10063000032A05D8DFE802F00F020707012818D0C7
:10064000002002B010BD0028FAD1A2690120134495
:1006500063612074E2E730B10128F1D103208842C0
:100660002074DBD1ECE762699A42E9D2022020745F
:10067000D4E70420F3E700BFE8CCFF1F704700BFBA
:1006800010B5184C636D1868036882B0DB6947F6D3
:1006900012219847144B1B6801930120019BC4F859
:1006A000003100FA00F200234FF6FF71024384F894
:1006B000580084F8702084F85A3084F85930636602
:1006C000236684F8F83084F8753084F8743084F840
:1006D000763084F87730C4F8FC30A166E16602B069
:1006E00010BD00BF5C9DFF1FE8CCFF1F0B460146FD
:1006F00018460AB90DF01EBB00220DF0D3BA00BF98
:1007000010B54FF60F000DF07FFA044B5B6D1868C3
:100710000368F8211B68BDE8104018475C9DFF1F67
:1007200010B54FF60F200DF06FFA044B5B6D186893
:100730000368FA211B68BDE8104018475C9DFF1F45
:1007400010B54FF60F300DF05FFA044B5B6D186873
:100750000368FB211B68BDE8104018475C9DFF1F24
:1007600010B54FF60F400DF04FFA044B5B6D186853
:100770000368FC211B68BDE8104018475C9DFF1F03
:1007800008B500200DF056FB003018BF012008BD51
:100790002DE9F041E0290C469DF8185008D8013D9C
:1007A000EDB20F2D02D849B2002912DBBDE8F0816D
:1007B000F729FBD90834E4B2012303FA04F414F056
:1007C000DD0FF3D0436D18680368BDE8F0411B6886
:1007D00018471F46436D8046186803682943C9B20D
:1007E0001B6816469847D8F854301868036806F016
:1007F0007F011B6804F0EF049847C02CD6D0D8F8CE
:1008000054301868036807F07F011B68BDE8F041A9
:10081000184700BF2DE9F0415FFA82F80C0608F195
:10082000FF3504F0FE4444F410442D02064605F45E
:10083000706544F00904000482B02C4300F4FE000B
:100840000F4620430DF0E0F9CDF80080FBB2F2B284
:1008500090210348FFF79CFF02B0BDE8F08100BF84
:100860005C9DFF1F00B583B0D2B20092CBB2C2B282
:1008700090210348FFF78CFF03B05DF804FB00BF35
:100880005C9DFF1F2DE9F0415FFA82F80C0608F12C
:10089000FF3504F0FE4444F400442D02064605F4FE
:1008A000706544F00804000482B02C4300F4FE009C
:1008B0000F4620430DF0A8F9CDF80080FBB2F2B24C
:1008C00080210348FFF764FF02B0BDE8F08100BF5C
:1008D0005C9DFF1F00B583B0D2B20092CBB2C2B212
:1008E00080210348FFF754FF03B05DF804FB00BF0D
:1008F0005C9DFF1F2DE9F0415FFA82F80C0608F1BC
:10090000FF3504F0FE4444F430442D02064605F45D
:10091000706544F00B04000482B02C4300F4FE0028
:100920000F4620430DF070F9CDF80080FBB2F2B213
:10093000B0210348FFF72CFF02B0BDE8F08100BFF3
:100940005C9DFF1F00B583B0D2B20092CBB2C2B2A1
:10095000B0210348FFF71CFF03B05DF804FB00BFA4
:100960005C9DFF1F30B50304CDB2044603F4FE03C3
:10097000681E43F44043000283B043F00C0300F4CC
:10098000706018430DF040F90095E2B20023C021D9
:100990000248FFF7FDFE03B030BD00BF5C9DFF1FA6
:1009A000036810B504460BB17430984794F875305D
:1009B000803B7F2B00F28580DFE813F08A00830004
:1009C000830083008300830083008300830083000F
:1009D00083008300830083008300830096008300EC
:1009E00083008300830083008300830083008300EF
:1009F0008300830083008300830083009A008300C8
:100A000083008300830083008300830083008300CE
:100A10008300830083008300830083009E008300A3
:100A200083008300830083008300830083008300AE
:100A3000830083008300830083008300A20083007F
:100A4000830083008300830083008300830083008E
:100A5000830083008300830083008300AC00830055
:100A6000830083008300830083008300830083006E
:100A7000830083008300830083008300B000830031
:100A8000830083008300830083008300830083004E
:100A9000830083008300830083008300C400800000
:100AA000D500E50083008300ED008300F100F50030
:100AB000F900FD000101830005018400A36A002BF9
:100AC00064D110BD236D002BFBD0BDE8104018474A
:100AD000A368002BF5D094F8772094F8761094F85A
:100AE0007400BDE810401847E368002BF3D1E8E735
:100AF0002369002BEFD1E4E76369002BEBD1E0E73A
:100B0000A369002BDDD094F8761094F87400BDE84A
:100B100010401847E369002BF5D1D2E7226A002A7A
:100B2000CFD094F8771094F8763094F87400C90117
:100B300001F47E5103F07F031943A1F50051BDE894
:100B400010401047626A002ABBD094F8763094F8BF
:100B5000771043EA0121802904F1780028BF802121
:100B6000BDE810401047E26A002AAAD094F8773016
:100B700094F87600DB0103F47E5300F07F00184305
:100B8000BDE810401047236B002B9AD094F87600F4
:100B9000BDE810401847636B002B96D191E7A36B1B
:100BA000002B92D18DE7236C002B8ED189E7E36B6C
:100BB000002B8AD185E7636C002B86D181E7A36C7B
:100BC000002B82D17DE7E36C002B7FF47EAF78E7CA
:100BD000F8B5436D0446186803681B69984708B95F
:100BE0000020F8BD94F80D31626D23F0010384F804
:100BF0000D31106803685B699847C3B2FD2BEFD0D5
:100C0000626E002A49D001067ED494F85B10F02968
:100C10005FD0F7295DD0A11881F85B30216E4B1EA3
:100C20009A4253D394F85B30F02B00F00A82F72BF2
:100C300000F007821A0650D4002284F87520B02AEA
:100C40005CD0A02A5AD0D02A58D0E02A56D0C02A48
:100C500054D0002084F87400032994F85C0008BF85
:100C600094F85D5084F8760018BF0025002101201B
:100C7000B02A84F877506166216684F8F80008D0BD
:100C800000F2D581902A04D0A02A02D0802A00D078
:100C9000002384F859300120F8BD94F8592084F8D5
:100CA0005B3015064DD440B20028C0F20E8294F994
:100CB0000D01636840F0010084F80D0103B198470D
:100CC000002084F8590060662066F8BD0132626633
:100CD00086E7A11881F87830A0E703F10C02D2B2C0
:100CE000012AA9D9FD2BA7D0EF2B00F2EC8103F04C
:100CF000F002802A84F8752040F0EF8103F00F00A5
:100D0000013084F87400A7E7A3F1F0010F293FF642
:100D10007CAF012000FA01F111F0810540F0B181B2
:100D200011F45F4F3FF471AF84F8765084F8775038
:100D300084F8745084F87530C4F8FC0084F8F80026
:100D4000F8BD02F10C01CDB2012DACD9FD2AAAD01B
:100D5000EF2A00F2578102F0F006802E40F0538116
:100D600040B20028A0DB0120C9B2814284F85B2098
:100D700084F85C3060669AD9FD2A98D0EF2A94BF37
:100D800002F0F0051546A5F180037F2B8FD801A155
:100D900051F823F0FD0F0000AF0C0000AF0C000075
:100DA000AF0C0000AF0C0000AF0C0000AF0C000057
:100DB000AF0C0000AF0C0000AF0C0000AF0C000047
:100DC000AF0C0000AF0C0000AF0C0000AF0C000037
:100DD000AF0C0000FD0F0000AF0C0000AF0C0000D6
:100DE000AF0C0000AF0C0000AF0C0000AF0C000017
:100DF000AF0C0000AF0C0000AF0C0000AF0C000007
:100E0000AF0C0000AF0C0000AF0C0000AF0C0000F6
:100E1000AF0C0000FD0F0000AF0C0000AF0C000095
:100E2000AF0C0000AF0C0000AF0C0000AF0C0000D6
:100E3000AF0C0000AF0C0000AF0C0000AF0C0000C6
:100E4000AF0C0000AF0C0000AF0C0000AF0C0000B6
:100E5000AF0C0000FD0F0000AF0C0000AF0C000055
:100E6000AF0C0000AF0C0000AF0C0000AF0C000096
:100E7000AF0C0000AF0C0000AF0C0000AF0C000086
:100E8000AF0C0000AF0C0000AF0C0000AF0C000076
:100E9000AF0C0000F50F0000AF0C0000AF0C00001D
:100EA000AF0C0000AF0C0000AF0C0000AF0C000056
:100EB000AF0C0000AF0C0000AF0C0000AF0C000046
:100EC000AF0C0000AF0C0000AF0C0000AF0C000036
:100ED000AF0C0000F50F0000AF0C0000AF0C0000DD
:100EE000AF0C0000AF0C0000AF0C0000AF0C000016
:100EF000AF0C0000AF0C0000AF0C0000AF0C000006
:100F0000AF0C0000AF0C0000AF0C0000AF0C0000F5
:100F1000AF0C0000FD0F0000AF0C0000AF0C000094
:100F2000AF0C0000AF0C0000AF0C0000AF0C0000D5
:100F3000AF0C0000AF0C0000AF0C0000AF0C0000C5
:100F4000AF0C0000AF0C0000AF0C0000AF0C0000B5
:100F5000AF0C0000B30F0000F50F0000FD0F000004
:100F6000F50F0000AF0C0000AF0C0000950F000063
:100F7000B30F0000950F0000950F0000950F0000C3
:100F8000950F0000950F0000AF0C0000950F0000BA
:100F9000950F00000023012084F8743084F8763027
:100FA00084F8773084F875506366236684F8F80017
:100FB000F8BD80210023216684F8785084F85930E8
:100FC0007F21636E8B422ED302F00F020023013289
:100FD00094F85C1084F87420012084F8761084F86A
:100FE000773084F8755063662366C4F8FC0084F893
:100FF000F800F8BD022323660121E2E703232366FC
:101000000221DEE7164606F0DF05902D3FF4A8AE7C
:1010100006F0BF05A02D3FF4A3AE06F0EF06C02EEC
:101020003FF49EAE3FE6013363660020F8BDD02A50
:101030003FF42FAEE02A3FF42CAEC02A7FF428AE56
:1010400027E6F02280230025012194F8F76084F838
:10105000752084F8763084F8F720C4F8FC302046F8
:1010600084F8775084F8745084F8F810FFF798FCEF
:10107000F722022384F8796084F878202846636692
:10108000F8BD94F87810F02902D0F7297FF40FAE5C
:10109000551C224400214FEA152E82F87830012693
:1010A000F02784F8765084F877E084F8741084F898
:1010B00059103046C4F8FC5084F87570616621669A
:1010C00084F8F860F8BD1A46B7E503F10C02D2B215
:1010D000012A7FF6ECAD1A4650E6902A3FF40EAE98
:1010E000ADE500BF90F87030DA0718D513F0FE0FA9
:1010F00015D070B590F8755085F08002602A82B0E6
:1011000004460DD890F874608E4231D081B35B08EC
:10111000012B32D0032B00F09F8002B070BD7047CE
:10112000A5F1F0030F2BF8D801A252F823F000BF6D
:101130002712000005120000D3110000B7110000B3
:101140001B1100001B1100008F1100001B1100007B
:101150008F1100001B1100008F1100008F11000083
:101160008F1100001B1100008F1100008F11000073
:101170005B08012B01D0022BCFD194F8773094F883
:101180007620009629462046FFF702FBC5E705F1C9
:101190000803DBB2072BC0D8012202FA03F313F0D5
:1011A000DD0FBAD0636D1868036829461B6802B06A
:1011B000BDE870401847436D90F876501868036892
:1011C000F3211B689847636D186805F07F01036879
:1011D000ECE7436D90F87750186894F87620036830
:1011E000F2211B6842EAC5159847636D18680368C9
:1011F00005F07F011B689847636D1868C5F3C61139
:101200000368D3E7436D90F87650186894F8773008
:1012100002682D0103F00F03126805F07005F1213B
:101220001D439047BEE790F8763090F8776043EA28
:101230000626802E28BF802600F17805002E3FF478
:101240006CAF2E44636D15F8011B186803681B68AA
:101250009847B542F6D160E794F8773094F8762055
:1012600000962946FFF794FA57E700BF70B5174C70
:1012700094F85860102E02D90025284670BD2046EB
:10128000FFF7A6FC05460028F6D094F87530902BA1
:101290000CD083F08003602B0BD90C48FFF780FB48
:1012A00031460A48FFF71EFF284670BD94F8773094
:1012B0003BB194F874309E42EFD0002EEDD0002563
:1012C000EEE7802384F87530F3E700BF5C9DFF1FD5
:1012D000F8B5294C294F94F87030DFF8ACE0C7F826
:1012E00000E00025012243F0010362F347034FF6BB
:1012F000FF76294604F17800802284F87030676513
:1013000025606560A560E56025616561A561E561B1
:1013100025626562A562E56225636563A563E56391
:1013200025646564A564E564256584F8585084F8EF
:10133000595084F85A5025666566A666E66684F8B4
:10134000745084F8755084F8765084F8775084F897
:10135000F85019F0FBFD2046C4F80051C4F80451C0
:10136000C4F8085184F80C5184F80D51044A054919
:10137000BDE8F8400FF0EEB95C9DFF1F589DFF1FC0
:101380001C89FF1F7D0600000492FF1F012070478B
:10139000704700BF704700BF704700BF704700BF75
:1013A000704700BF704700BF00207047704700BF04
:1013B000704700BF704700BF704700BF704700BF55
:1013C000704700BF704700BF024B0A4601461868CD
:1013D00007F028BF6C9EFF1F10B50446D0F84801E7
:1013E00008B10DF013FBD4F83C0108B10DF00EFB71
:1013F000D4F8300108B10DF009FB04F110000AF037
:1014000003F9204610BD00BF10B51C2104460DF0A5
:10141000FFFA204610BD00BF10B5502104460DF064
:10142000F7FA204610BD00BF10B54FF4B271044664
:101430000DF0EEFA204610BD10B5242104460DF043
:10144000E7FA204610BD00BF174B187058700428EB
:1014500004D8DFE800F00319210B13001348144BE4
:101460000022427118600368DB6818470F48104B70
:101470000122427118600368DB6818470C4B0D4865
:1014800018600368DB6818470B48094B002242715B
:1014900018600368DB6818470748054B0122427152
:1014A00018600368DB681847D0A4FF1F04A0FF1F63
:1014B000709EFF1F60A0FF1FBCA2FF1F2DE9F04F11
:1014C000384B1B6885B0002B039367DD364CDFF883
:1014D000EC80364FDFF8E8B0DFF8E8A000262FE018
:1014E00082421146A8BF0146D21A45D0CB1AC3EB9F
:1014F000833302EBD27103EB610303FB02F100299A
:1015000093FBF2F2B8BF02F1FF32D3119EF8341010
:101510003A60A36171B1264AC9EB0009517A89EAA0
:10152000E972A2EBE97259B3009231462A4621488A
:1015300005F0DAFE039B01369E4204F104042DD02F
:1015400058F8040B2368A569D3F82C90C0B20BF0AF
:10155000B5F80346014620683B6007F09FFFD4F8CA
:1015600000E0DBF80030DEF82C00DAF800208342DF
:10157000B6DDD21A1946B9D13F2341F6FF72C5E74D
:101580000D490868016800922A464D693146A8470E
:10159000039B01369E4204F10404D1D105B0BDE89D
:1015A000F08F00BF4CF8010084A4FF1FC4A1FF1FEF
:1015B000D0A4FF1F8C9EFF1F709EFF1F04F7010029
:1015C0000CA3FF1F4889FF1F2DE9F0410F4C94F831
:1015D0002D3106460D4617468BB994F82C311BB1B8
:1015E00029460B4806F05AF80A4B18680468646CE0
:1015F0003B462A463146A446BDE8F04160470246D4
:1016000039462846FFF72EF9E7E700BF14A3FF1F6E
:1016100060ABFF1F709EFF1FFFF7D6BF2DE9F041A3
:101620000E4C94F82D3105460E46174683B994F8B2
:101630002C3113B10A4806F039F80A4B18680468CF
:10164000A46C3B4632462946A446BDE8F0416047BB
:10165000024639463046FFF73DF9E8E714A3FF1F7D
:1016600060ABFF1F709EFF1FFFF7D8BF0E4B2DE929
:10167000F04193F82D4105460E46174624B1024627
:1016800039463046FFF75EF90849094A086801689B
:10169000CC6C944201D1BDE8F0813B4632462946EC
:1016A000A446BDE8F041604714A3FF1F709EFF1FD2
:1016B000B5130000FFF7DABF2DE9F041DFF88080B5
:1016C0001B4BD8F800001A7803681A4C5B681A4F55
:1016D00000219847D8F800002278036801215B6850
:1016E0009847D8F80000154A0368127B5B6802210E
:1016F0009847D8F80000A2780368013AD2B25B6834
:10170000032198470424661D3D46D8F8000055F88B
:10171000042F036821465B68D2B201349847B44273
:10172000F3D11D2C07F11407EDD1BDE8F08100BF06
:10173000F0F60100D0A4FF1FC889FF1F64B3FF1F8C
:101740005CA0FF1F2DE9F0411E4E306803680021A8
:101750009B689847FF2803D01B4B1B78834202D01D
:101760000020BDE8F0813068184C0368DFF8648021
:101770009B6801219847336820701A681846022137
:1017800093689847336812491A686060C860926825
:101790001846032190470130A0700424671D454678
:1017A0003068036821469B6898470134A74245F892
:1017B000040FF5D11D2F08F114083C46EED101208D
:1017C000BDE8F0815CA0FF1FF0F60100D0A4FF1F70
:1017D00064B3FF1FC889FF1F2DE9F84F2C4D2D4A18
:1017E00028680368DB6893424ED1012006F056FC5E
:1017F000DFF8A890DFF8A8B08046A0F2CB2AC9F1A4
:101800002006B8F1000F4C46C8BF09EB080708DDF9
:1018100028680368A11914F8012B5B689847BC423B
:10182000F6D109F2CB29D9455644EAD12868194A9C
:101830000368DB684FEAC808934208F1200825D105
:10184000012003F04BF94FF0000982465FFA89F15D
:10185000114803F045F9BAF1000F0DDD044600EB25
:101860000A06C0EB080728680368E11914F8012B81
:101870005B689847B442F6D109F10109B9F1080F44
:10188000D044E3D1BDE8F88F9847AFE79847D8E751
:101890005CA0FF1F8D13000060A0FF1F08B4FF1F96
:1018A00060CAFF1F2DE9F047A748DFF8A88282B081
:1018B00001F09EFC0BF0FCFAA44B1C681860041BA2
:1018C000C8F80C40002C40F0CC80A14E3068DFF806
:1018D000A49203689F4C9B6998479F4808F0FEF9C3
:1018E0009E4805F0D5FD9D4805F000FE88F80900EA
:1018F000FFF7E4FD99F800306BBB207863788342F2
:1019000029D088F80100FFF79FFD954BD8F80420F7
:101910009448DA6001F000F900231A46194692480B
:1019200001F0C2FE904801F0DFFE002388F8083085
:1019300001258E48FEF7F0FD04B20090002C40F027
:10194000BC808B48FEF758FE0138032822D8DFE818
:1019500000F009A8A39B98F808507E4B002DE8D012
:101960001878CEE77D4805F0C5FD98F8003098F866
:101970000100834299F8003040F0C1807D4A0BB1EC
:10198000002313701DB9306803685B6A9847754877
:1019900001F0C2F86C4DD5F84C31D5F848219B1AAE
:1019A0009B083FD0744F10E0306803689B6B9847EA
:1019B000BA449DF806308AF81C406BBBD5F84C3110
:1019C000D5F848219B1A9B082CD05F4801F070FB8A
:1019D000040E014601905FFA80FAE5D05F4805F0F9
:1019E00089FD07EB0A0301221A77BAF1000F0AD129
:1019F00099F800303BB1FFF75FFEFFF7EDFE5F495E
:101A0000584801F0F7F83068019903689B6B9847D4
:101A10009DF80630002BD1D0306801990368DB6B4C
:101A20009847CBE798F80930BBB94E4801F078F8F1
:101A3000306803681B6C98474A4801F083F84A48AD
:101A400001F056FEFEF79CFE0028FBD1FFF70EFCCE
:101A50000028FBD102B0BDE8F087404805F038FC13
:101A6000EAE73F4B3A4E5B79002B3FF42FAF3B4800
:101A700005F040FD31684248224605F085FD2146CB
:101A80003F4805F0BDFD21E730683E4A0368DB6A48
:101A900093423FF47FAF02E0306803689B6A984747
:101AA00078E730682A4C03681B6B984700283AD0C7
:101AB000206803685B6A984769E72848BDF90270A7
:101AC00005F018FD99F80030002B37D007FB04F320
:101AD00003EB830298F80130224814441C44042C80
:101AE000A8BF042424EAE47488F8014000F0C8FF89
:101AF0001C4801F049F81B4801F00EF821E71D4C85
:101B0000002B3FF43FAFFFF79FFC07F089F900235C
:101B10001A461946144801F0C7FD002311482370E6
:101B200000F0AEFF33E7012298F800300D4889F845
:101B3000002088F8013000F0A3FF28E73068009902
:101B400003681B6A9847FCE6B09EFF1F889EFF1F34
:101B5000709EFF1FD0A4FF1FF49CFF1F8C9EFF1FD1
:101B600064B3FF1FD8AAFF1F30ABFF1F24A0FF1FC5
:101B700040A0FF1FE0A4FF1F14A3FF1F74F6010085
:101B800060ABFF1FA51300002DE9F04F3B4E3C4A10
:101B900030680368DB689342ADF5397D6AD1012076
:101BA00006F07CFADFF8E490DFF8E4A00446202594
:101BB0000DF1140840F2CB220021404619F0C6F97D
:101BC000002C05EB0407C8BFC34609DD3068026876
:101BD0002946926890470135BD420BF8010BF5D1BB
:101BE00040F2CB2209F1A400414691440AF04CFB9B
:101BF000D1453D46DED13068214A0368DB68E40008
:101C0000934204F1200437D1012002F067FF4FF026
:101C10000009824607AF17221A4940460AF034FBF2
:101C2000BAF1000F04EB0A05C8BFC34609DD3068EE
:101C3000036821469B6898470134AC420BF8010BBE
:101C4000F5D197E80F006C4607C424F8023B1B0C43
:101C500023705FFA89F198E80C000B4809F101093B
:101C600002F042FFB9F1080F2C46D4D10DF5397DB1
:101C7000BDE8F08F984793E79847C6E75CA0FF1F41
:101C80008D1300005CF6010060A0FF1F64B3FF1F0E
:101C9000BCC9FF1F2DE9F04F7848794A0468794D97
:101CA00083B040F2EE2613780BB12B7843B903686A
:101CB00011781B1B002900F0D680B3F5FA6FF2D91A
:101CC00007F0CAF9704C714F206008200CF09CFEA0
:101CD0006F4A7049704B24681060704D704ADFF88D
:101CE00038E2046042606F4E6F4A7048704C1A6070
:101CF000C7F800E00C602E6005F0FCFB0BF0D8F894
:101D00006C4B18606C4805F09FFC0D200AF0D6FC67
:101D10000CF086FD0D200AF0D1FC19F08BF90D2096
:101D20000AF098FC654B1B680193002B33DD644F70
:101D3000DFF8E88100974FF0814A4FF000094FF03B
:101D4000844B002638200CF05FFE00254FF0010E7A
:101D50004FF4806772465B4B47602946C0F810A07D
:101D6000C0F8209080F814E080F82450044607F072
:101D700083FA554B009A43F826504FF400536360A2
:101D8000019B42F8045B01369E4248F8044BC4F8BC
:101D900010B00092D6D1FEF773FC012117200BF092
:101DA00081F84A4C4A4D0C23184623700BF056F824
:101DB000207816F095FA02460B4600204FF080413D
:101DC0000DF010FC16F0B2FD424B2880402200219D
:101DD00028201A600AF044FF3F4B404893E8060071
:101DE00000F0A0F93D493E4803F036FC3B493D4830
:101DF00005F05CFA39493C4802F06CFEFFF7A2FCA2
:101E00000246002833D1394C394B3A493A482468C4
:101E10003A4E3B4D096800681C60214F394C5960AF
:101E20009860012136682D682E487A60E260B970AA
:101E3000DE601D6105F0B8F9334B1878FFF704FB3D
:101E4000FFF73AFCFFF7C8FC304800F075FC2F485C
:101E500000F0D2FF2E4809F085FC2E4803B0BDE803
:101E6000F04F01F07DBCB3427FF61DAF28E7FFF7CE
:101E70008BFE0B4B1878FFF7E7FAE5E7E8CCFF1F7E
:101E8000CCCDFF1F35CEFF1F5CA0FF1F28CEFF1F4C
:101E90006C9EFF1F2CCEFF1FF8CDFF1F30CEFF1F03
:101EA000D0A4FF1F19160000C91300008C9EFF1F4D
:101EB000B5160000889EFF1F60ABFF1F4CF80100A5
:101EC000749EFF1F6F12833AC8A1FF1F20A0FF1F3F
:101ED0003CA0FF1F10A3FF1F5CA4FF1FDCA1FF1F7E
:101EE00004A0FF1FBCA2FF1F60A0FF1F1CF7010082
:101EF000CC89FF1FD4F7010050F80100F4F601006F
:101F0000D8F7010064B3FF1F20F70100D8AAFF1F14
:101F1000C09EFF1F30ABFF1F6916000084A4FF1F87
:101F20002DE9F041DFF804812B4D2C4F2C4C2D4E28
:101F300086B0404602F0B6FF2A462B4940460EF0D6
:101F400009FC384603F0DAFE2A46284938460EF0E6
:101F500001FC204601F0FEFC2A4620462449254C7F
:101F60000EF0F8FB244A254B12680592059A244886
:101F70005A6018602A469C6022490024502718465F
:101F8000DF61DC601C615C611C760EF0E3FB1E4BC4
:101F90001E481C700B220C21C3F89440FEF7A0FAD7
:101FA00021461B48FEF712FB1A4B1B4A19681B48B7
:101FB0001B4B126801900627052400933046194BED
:101FC0000397029401F02AF82A46304616490EF08B
:101FD000C1FB06B0BDE8F0811C89FF1FBCA2FF1F3A
:101FE00060A0FF1FB09EFF1FB9130000BD130000CB
:101FF000C113000020BF0200E8CCFF1F8C9EFF1F12
:10200000FC010200C5130000DCA1FF1F24A0FF1F7C
:1020100040A0FF1F4489FF1F4C89FF1FAC89FF1F91
:10202000B489FF1F5089FF1FD913000004A0FF1FB0
:10203000334AF8B5334B1268334D1A64334E344F7C
:1020400003F12C0200242146DC611C625C629C626C
:102050005C619C61DC625C649C6454606423946099
:10206000D460146134701B227470B4703472747252
:1020700005F11C006C262B60AB616C60AC60EC6001
:102080002C612C7518F062FF3946324605F1380094
:102090000AF0FAF83946324605F1A4000AF0F4F8DD
:1020A0001C4B1D4A1D481E4E1C6003F1080703F11E
:1020B00010015C609C601C613C7101234FF0FF3794
:1020C00085F82041C5F8104185F81441C5F818413C
:1020D000C5F82441C5F8284185F82D4185F83441DB
:1020E0004C608C60CC600C61C5F81C3185F82C31DB
:1020F000146014725472D472576006604660F8BD62
:10210000CC89FF1F84A4FF1F14A3FF1FD0A4FF1FAF
:1021100080F60100E4A4FF1F5CA4FF1F68A4FF1F5A
:102120000000F0422DE9F04F83B0541C0092C0F83B
:102130009810C0F89C2000F08B80009ADFF8449142
:10214000DFF84481D300C2EB030B09EB8B0B019347
:102150004FF0000EABF1040B00F1640C4FF0FF3AAE
:102160005E46002456F8045F4A1988FB0237D317ED
:10217000C3EB670303EB4303A2EB83036A1C01D0A9
:1021800073455AD00134072CECD100234CF860ACD5
:102190004CF830ACCCF800300EF1010EBEF10C0F53
:1021A0000CF1040CDCD19DE80C009F1A002159F8B9
:1021B00027600A46354600F1A00400F1E00E0CE06D
:1021C0002360062A04F10404C4BF00220131A6459D
:1021D00007EB020315D059F8235001EB410305EB3F
:1021E0008303013502F10102EAD1013101EB410320
:1021F00006EB8303236004340122A64507EB0203A8
:10220000E9D19DE80C009B1A9B0003F11802002104
:102210004A44C0F89410994401E059F8046F01361B
:1022200004D0D0F894300133C0F894309145F4D103
:102230000123037003B0BDE8F08F002C104B4CF865
:10224000605C18BF90234CF8304CCCF80030A3E70A
:1022500000F130052C46034600F16001002643F8EA
:10226000042F9D4244F8042F41F8046FF7D1DFF8A2
:1022700014906FF00703019359F81C6CC1E700BF7D
:10228000FFA2A20054F80100ABAAAA2A232070479B
:102290000378B3B17F2913D80B4BCA1700B583FB62
:1022A00001E3C2EB630303EB4303A1EB830100EB08
:1022B00081014B6E003318BF012318465DF804FB03
:1022C00000231846704700BFABAAAA2AA1F10B034E
:1022D0000F2B36D830B4D0F89C40002C34DB0B29BF
:1022E0000CD01C31D0F8984050F8211021443C31DA
:1022F00002EB420201EB820030BC7047C4EBC40425
:10230000A4001449251F18340D444FF0FF33214415
:1023100055F8044FB4F1FF3F18BF23468D42F7D163
:10232000591C14D0D0F8A040D0F89810214402EBEA
:1023300042023C3101EB82000344A3F10C0030BCAB
:1023400070474FF0FF3070474FF0FF30D4E718462A
:10235000D2E700BF54F8010003781BB100EB810005
:10236000406E7047184670470378F3B110B5A1F17D
:102370000B040F2C17D8D0F89C30002B13DB042251
:102380000446FFF7A3FF00280DDB094BC11783FBB1
:102390000023C1EB630303EB4303A0EB830304EBD4
:1023A0008302506E10BD002010BD1846704700BF5C
:1023B000ABAAAA2A014B53F821007047E08AFF1FFD
:1023C000222996BF024B034853F82100704700BFF3
:1023D000548AFF1F28FC0100F0B400259DF81070FE
:1023E0002C4602E00134202C10D0465D1435002E1E
:1023F000F8D104EB8404A4000619012505552846EC
:1024000071603361B2603773F0BC70470020F0BC7C
:10241000704700BFF8B50E4600F1100400F52475B2
:10242000002702E01434AC4215D014F8103C002B05
:10243000F8D02368B342F5D854F8082C54F80C0CA3
:102440000021FEF71FFA14F8043C2BB904F8107CA5
:102450001434AC42E9D1F8BD002117200AF00EFD7A
:10246000F4E700BF4FF0FF31FFF7D4BFF0B4002511
:102470009DF814702C4602E00134202C12D0465DE9
:102480001835002EF8D104EB4404E40006190125A8
:1024900005557160049971612846B360F260377424
:1024A000F0BC70470020F0BC704700BF2DE9F04140
:1024B0000E4600F1140400F54575002702E01834BB
:1024C000AC421BD014F8143C002BF8D02368B34264
:1024D000F5D854F80C2C54F8081C54F8100CFEF7DE
:1024E00099F914F8043C23B154F8100C1838352825
:1024F00006D904F8147C1834AC42E3D1BDE8F0816D
:1025000016F0EEFA084916F03FFB0DF047F80121EE
:10251000804617200AF0B2FC404616F0FBFC01464C
:1025200028200AF09DFBE4E79075924200230849B9
:102530001A46CA541433B3F5207FFAD10023054953
:102540001A46CA541833B3F5407FFAD1704700BF1A
:1025500010A8FF1F10A5FF1F00207047704700BF85
:1025600010B5044609F012FE0A2830D00D283DD0DF
:102570004FF6FD73984201D9012010BD0346B4F90E
:102580004220B4F9401004F1080009F0E3FD94F88A
:102590002230032BF0D8DFE803F0140E0802B4F861
:1025A0004230181AA4F84200E6E7B4F84030181A8E
:1025B000A4F84000E0E7B4F842301844A4F8420020
:1025C000DAE7B4F840301844A4F84000D4E794F9AE
:1025D000333094F93410B4F842205B1A13440022CB
:1025E000A4F84230A4F84020012010BD0023A4F834
:1025F0004030012010BD00BF10B5044640300CF043
:1026000023F9204610BD00BF2DE9F0471546002AEA
:1026100063D004460F46DFF8C88000264FF6FD79E8
:1026200000F1080A0BE009F0B1FD0A2825D00D28B9
:1026300032D0484511D90120013D06440AD0236813
:1026400017F8011B1B6843452046ECD09847013D15
:102650000644F4D13046BDE8F0870346B4F9422081
:10266000B4F94010504609F075FD94F82230032B60
:10267000E1D8DFE803F02B241D1694F9333094F9E8
:102680003410B4F842205B1A13440022A4F84230FC
:10269000A4F840200120CFE70023A4F84030012017
:1026A000CAE7B4F84230181AA4F842000120C3E780
:1026B000B4F84030181AA4F840000120BCE7B4F880
:1026C00042301844A4F842000120B5E7B4F8403085
:1026D0001844A4F840000120AEE71646BAE700BF50
:1026E00061250000F0B5124D044695E80F0004F195
:1026F00024060025082784E80F0083B02561656162
:10270000A561E561256286E80F00A56384F83C5069
:102710002946676304F140000CF0D6F8054B1B68AE
:102720000193019B236520463C23636503B0F0BD04
:10273000E8FD0100E8CCFF1F08B5FDF7BBFE024B2A
:10274000024A9A6008BD00BF90AAFF1FF49CFF1FB9
:1027500010B50446034807F0CDFB012384F83C3054
:1027600010BD00BFF49CFF1F806B0028D4BF002069
:10277000012070472DE9F843394FBDF82060BDF8BE
:102780002440384699460D46904609F04BFD97F98E
:10279000311080B289B2301A611A00EBD07001EBAF
:1027A000D17108EB600809EB610100232846A7F806
:1027B0004080A7F8421087F8463019F0A1FA48B3D4
:1027C00004463E464FF6FD7801E0013C22D015F864
:1027D000011B234809F0DAFC0A282FD00D283BD032
:1027E0004045F2D80346B6F94220B6F940101D48DC
:1027F00009F0B0FC96F82230032BE6D8DFE803F0AE
:1028000018120C02B7F84230013CA3EB0000A7F805
:102810004200DCD1BDE8F883B7F84030181AA7F8B9
:102820004000D2E7B7F842301844A7F84200CCE79E
:10283000B7F840301844A7F84000C6E796F933309F
:1028400096F93410B6F842205B1A13440022A6F819
:102850004230A6F84020B8E70023A6F84030B4E79D
:1028600090AAFF1F98AAFF1F2DE9F04F4B4BDFF8EE
:1028700044814B4E83460FCB87B006AC04E90F0072
:10288000484807F02BFA002108F1080009F060FC25
:1028900045464FF0000A4348434C07F01FFA122305
:1028A000002242494248A8F84030A8F8423088F84F
:1028B00046200FFA8AF909F05BFC4FF6FD7701E03C
:1028C000B44222D014F8011B3A4809F05FFC0A28F0
:1028D00051D00D285DD0B842F2D80346B5F9422058
:1028E000B5F94010324809F035FC95F82230032B39
:1028F000E6D8DFE803F03A342E02B8F84230B442AA
:10290000A3EB0000A8F84200DCD12B49284809F0CD
:102910002FFC09F0030906AB03EB8909202359F8C2
:10292000101C01935022009358460A23FFF722FF00
:102930001C4807F0DFFA0AF1010A64200AF0DAFA0B
:10294000BAF1100FA7D1642007B0BDE8F04F0AF02C
:10295000D1BAB8F84030181AA8F84000B0E7B8F873
:1029600042301844A8F84200AAE7B8F840301844AA
:10297000A8F84000A4E795F9333095F93410B5F87C
:1029800042205B1A13440022A5F84230A5F84020EB
:1029900096E70023A5F8403092E700BFF8FD01005C
:1029A0000EFE0100F49CFF1F08FE0100BC1902008E
:1029B00098AAFF1F90AAFF1F7822020010B551B9F4
:1029C0000C460A48012109F0DDFB21460748BDE815
:1029D000104009F0D9BB0021044809F0D3FB0121C4
:1029E0000248BDE8104009F0CFBB00BF98AAFF1F06
:1029F000F0B5064685B00F4619461546FFF7DEFFCF
:102A0000736B5C0002A938460A22033417F062FE99
:102A1000A4B26A011627202523B212B202A93046B9
:102A20008DE8A000FFF7A6FE05B0F0BDF0B50546A5
:102A300083B00E4619461446FFF7C0FF6B6B5B0070
:102A4000620116272024033312B231461BB22846F6
:102A50008DE89000FFF78EFE03B0F0BD074B0360DA
:102A6000002243608360C36043628362C362036386
:102A7000026142618261C26102627047AC6E020013
:102A800070B51F4C82B00121064604F1080009F020
:102A90005FFB04F108001B4909F06AFB002504F103
:102AA00008000121A4F84050A4F8425084F8465090
:102AB00009F068FB294604F1080009F065FB124B98
:102AC0005A781B78934212D0104B1B785BB910498F
:102AD00020222C2301920093304614235622FFF724
:102AE00049FE02B070BD0B4B53F82210F0E7074AC5
:102AF0001278002AEBD0074A52F82310E8E700BF0B
:102B000090AAFF1F084C0200D0A4FF1FE0A4FF1FE3
:102B1000AC6E02009889FF1F012380F83C3070479B
:102B2000836B002B0ADD064AD2689B1A002B836355
:102B300004DC0122002380F83C208363704700BF3F
:102B4000D0A4FF1F90F83C30CBB130B50C4D016DD7
:102B50002B68426D83B00093009B5B1A9A4201D3AD
:102B600003B030BD0446074807F0C4F92B68019351
:102B7000019B2365002384F83C3003B030BD7047CF
:102B8000E8CCFF1FF49CFF1F054B426D1B6882B011
:102B90000193019B013B9B1A036502B0704700BF84
:102BA000E8CCFF1F10B50E4B0E4C0F4A1A600022E6
:102BB000012120461A71DA6083F82220A3F8402010
:102BC000A3F8422083F84620198383F82110FFF7E9
:102BD00089FD2046054A0649BDE810400DF0BABD02
:102BE00090AAFF1FD8AAFF1FD8FD01001C89FF1F54
:102BF000F92500002DE9F04182B000240546174E6A
:102C00002027403088460BF0ADFE22468023214627
:102C100001940097124807F087FB3046012109F024
:102C200097FA30460F4909F0A3FA3046012109F01E
:102C3000A9FA2146304609F0A7FA802300930197AC
:102C40002246414628460A23FFF794FD064BAB6314
:102C5000012385F83C3002B0BDE8F08198AAFF1F3F
:102C6000F49CFF1FBC19020020A107000EB410B590
:102C700089B00BAB044653F8042B019302A818212A
:102C80001AF0D0FC02A92046FFF7B4FF09B0BDE856
:102C9000104003B0704700BFF0B583B00024202679
:102CA0002246802305462146019400961048114F84
:102CB00007F03AFB0121104809F04AFA0F490E4883
:102CC00009F056FA01210C4809F05CFA21460A483D
:102CD00009F05AFA296C019680230093224628466F
:102CE000A14208BF39460A23FFF744FD03B0F0BDF7
:102CF000F49CFF1F8A5D020098AAFF1FBC19020006
:102D000038B50446403015460BF024FE2046FFF748
:102D1000C3FF044B012103FB05F2A26384F83C10BE
:102D200038BD00BFA08601002DE9F04101EB410054
:102D3000800082B0C0F180000E46174615F0D0FE2C
:102D40004FF07C5115F020FF16F0E4F8D6B1013EAB
:102D500000B2F6B2013684B200254FF00108AF424E
:102D600014BF012302238DE8080114BF1F221E2275
:102D700021B206230548013507F0D6FA0C34B542D6
:102D8000A4B2ECD102B0BDE8F08100BFF49CFF1FFB
:102D900070B5184D82B0284606F0A0FFB5F90C10AA
:102DA00001291FDD0022012694B263006889019683
:102DB0009BB2C91A09B2C31A1BB200910D48114641
:102DC00007F034FB0B4807F095F801200AF092F861
:102DD000B5F90C10023401EBD17322B243F34F0367
:102DE0009342E1DC4FF4FA7002B0BDE870400AF0A3
:102DF00081B800BFF49CFF1F70B50E4E0E4D044607
:102E0000304606F06BFF2046FFF7C2FFC8200AF0ED
:102E100071F8304606F062FF2846012109F0B2F948
:102E20002846002109F0B0F92046BDE87040FFF7C0
:102E30001BBD00BFF49CFF1F98AAFF1F70B51C4B61
:102E40001C481C6882B0002201250A218DE822005E
:102E500023B2114607F068FA174B1648B3F9005031
:102E6000002CB4BFE11C214602262B4641F38F0102
:102E70000096002207F00CF804EBD4712B460022D8
:102E800041F34F0100960B4807F002F8204615F079
:102E900027FE4FF07D5115F077FE16F03BF80096B7
:102EA00001B22B460022034806F0F2FF02B070BDCB
:102EB00040F80100F49CFF1F48F801002DE9F04F95
:102EC000846B85B0002C9DF8387004DD05B0BDE83A
:102ED000F04FFFF7E1BE4C4C03910546012104F190
:102EE00008001E46914609F033F904F108004749ED
:102EF00009F03EF94FF000082846A4F84080A4F8F5
:102F0000428084F84680FFF799FF414604F10800AB
:102F100009F038F904F10800012109F035F9A5F1AB
:102F2000040801244FF00A0B4FF0200A6B6B58F88D
:102F3000041FCDF804B022B2023B2034CDF800A02B
:102F40001BB22846A4B2FFF715FC812CEED101215B
:102F50002F4809F0FDF82F492D4809F009F9012102
:102F60002B4809F00FF90021294809F00DF9F3B2B7
:102F7000032B23D987F0010705F10C08002458F82A
:102F8000041FB4420CBFBE464FF0000E11F17F0F7C
:102F900022B2734628460CD0FFF72AFD0134042CD8
:102FA000EDD103994A46284605B0BDE8F04FFFF73A
:102FB000BBBED8F81410FFF739FDEFE7C7B17401B5
:102FC000A4B2A11C012215230192009309B21D2372
:102FD0000922114807F0A8F9E11C002213230192ED
:102FE000009309B21B230A220B4807F09DF9C1E7A1
:102FF0007101012215230192009302311D23092240
:10300000054807F091F9B5E790AAFF1FD8540200D0
:1030100098AAFF1FF0420200F49CFF1FF0B583B096
:1030200006460A9C0B98B160F2603460002500945B
:103030001946706000FB04F40190099B089A06F1A0
:10304000100008F0C5FAC6F83051C6F83451C6F879
:1030500038513CB3B4F1805F28D2270138460BF0D9
:10306000D3FCC219C6F83821C6F83001C6F83401BD
:103070002B4608B103718360013C00F11000F8D1C8
:1030800000233046C6F83421C6F83C31C6F840313A
:10309000C6F84431C6F84831C6F84C31C6F850314C
:1030A00003B0F0BDC6F838412246E9E70DF058FB01
:1030B00010B4D0F84C21D0F84831D31A9B1083B00B
:1030C00034D052F8043DC0F84C21DA789978FAB936
:1030D0001C7958788DF8061000218DF8072099602A
:1030E0008DF805408DF804009DF804409DF805100A
:1030F0009DF806209DF80730002064F3070061F377
:103100000F2062F3174063F31F6003B010BC7047D9
:103110000029DDD118795A788DF8061001238DF831
:1031200005008DF804208DF80730DDE78DF80430B8
:103130008DF805308DF806308DF80730D4E700BFE4
:103140002DE9F8434468D0F80080C8EB0405AD10C1
:103150000646894605D06B009D4229D96FF00305CC
:1031600000E0042528460BF04FFC7468D6F8008078
:103170000746C8EB0404D9F80030E74218BF3B51BA
:10318000A3080DD104343C44B8F1000F02D04046EE
:103190000BF03CFC3D44B56037607460BDE8F883DB
:1031A000224641463846043417F06CFE3C44EEE7B4
:1031B000B3F1804FD2D213B91D461F46D9E7ED00B7
:1031C000D0E700BF38B543680C4604318B42054652
:1031D00002D05A1A900803D1043B6B60204638BDD8
:1031E000204617F04FFE6B68043B6B60204638BDED
:1031F0002DE9F04300F1100583B00446284608F09D
:103200000BFA5A4B1B680193019E04F5A478012721
:10321000284608F0D9FA002849D0284608F0E0FAF4
:103220006268D4F830C1C0F30743C0F3076113FBF1
:103230000212D2B24FEA0219C0F3072E0CEB0903B7
:103240005FFA8EF1009300296DD00129E0D19968D1
:10325000B9B958700CF80920E068DA689970301A2A
:10326000824238BF1971D4F84021D4F844118A42FF
:103270006ED01AB11360D4F84021009B0432C4F818
:103280004021D4F84C21D4F850119E6000208A428D
:10329000DF70987057D012B11360D4F84C2104320B
:1032A000C4F84C21284608F08FFA0028B5D1D4F88C
:1032B0003C51D4F840114B1B9B0831D0E768A36800
:1032C0008D42A6EB0707A6EB030629D004F59E78EE
:1032D0004FF0010905E09B689F4219D804358D42E3
:1032E0001ED02B680093DA78002AF4D09A689642B0
:1032F000F4D9D4F84C21D4F8501183F802908A42C2
:103300002DD012B11360D4F84C210432C4F84C21F2
:1033100029464046FFF756FFD4F840118D42E0D1D0
:1033200003B0BDE8F0831A79997883F803E001329D
:10333000DE601A7109B183F802E0D4F84C21D4F8A8
:1033400050118A42A7D169464046FFF7F9FE5FE770
:10335000694604F59E70FFF7F3FE009B91E769460E
:1033600004F5A470FFF7ECFED2E700BFE8CCFF1F26
:1033700010B5174B196984B00446084615F0FCFADD
:1033800015F0EEFD134AA16813680093009B2060BE
:103390005B1A98424FEA400107D8106823790190E0
:1033A0000198A06083F00103237113680293029BCC
:1033B000E26808489B1A994207D802686379039229
:1033C000039AE26083F00103637104B010BD00BF93
:1033D00068A4FF1FE8CCFF1F0F4B10B45C680134DA
:1033E00016D05B7A08467BB90C490D4B51F8221078
:1033F00010BC83FB0132CB17C3EB620303EB430327
:10340000A1EB8301FEF7A8BF114610BCFEF7ACBFCD
:10341000002010BC704700BF5CA4FF1F24F7010010
:10342000ABAAAA2A2DE9F04F904D83B088460746F3
:10343000FFF79EFF95F83431002B4BD03B79002BE2
:1034400040F0C18098469B469A460193884B1E687F
:10345000012E20DD874DDFF84492012402E0013483
:10346000B44218D055F8042F0132F8D1B9F80C2025
:1034700010464AB1202A00F0AF8099F80F2099F841
:103480000E1008F0BBFB0246A1B27B48013408F0E5
:103490008BFBB442E6D14FF47F020021764808F05E
:1034A00083FB019A7448012108F07EFB52460221F9
:1034B000714808F079FB5A460B216F4808F074FBFD
:1034C00042460C216C4808F06FFB0123BB7103B02E
:1034D000BDE8F08F694B1A79002A00F088803B79AB
:1034E000002B7FD19A469846FF220021624808F0BF
:1034F0005BFB634A6048012108F056FB614A5E4865
:10350000032108F051FB4FF6FF7204215A4808F0DE
:103510004BFB4FF0FF120521574808F045FB544B79
:103520001E68132E18DD584DA6F108090B2405E07E
:103530005246013408F038FB4C450DD015F8013BDC
:103540004D484F4AA1B2002BF2D1A1B24A480134F2
:1035500008F02AFB4C45F1D14FF47F020621464882
:1035600008F022FB132E10DD484D132415F8013FFF
:1035700041484246A1B21BB93F484FF47F02A1B275
:10358000013408F011FBB442F0D1002202213A4884
:1035900008F00AFB00220721374808F005FB00224B
:1035A0000821354808F000FB394A3348092108F062
:1035B000FBFAFF220A21304808F0F6FA0123BB711A
:1035C00003B0BDE8F08F2F4BDFF8B4B0019347F69E
:1035D000FF784FF0FF1A39E72E4A2748A1B208F0CA
:1035E000E3FA3CE7DFF898A04FF47F087CE7114648
:1035F000214808F0D9FA284B5B7A002B7FF465AF9D
:103600001B4B1E68012E7FF760AFDFF890903835B6
:10361000012403E00134A6423FF457AF55F8043FBC
:103620000133F7D1B9F80C3018466BB1202B16D006
:1036300099F80F2099F80E1008F0E0FAA1B20246AE
:103640000D4808F0B1FAE5E7224641463846FFF753
:10365000C3FEA1B20246084808F0A6FADAE70D4A0E
:103660000548A1B208F0A0FAD4E700BF14A3FF1FD9
:10367000FCF601004CA3FF1F40ABFF1F8C89FF1F0E
:103680000080FF0000FF80004CA4FF1F53A4FF1F19
:1036900000FFFF0020202000D0A4FF1FBC89FF1FD7
:1036A0000079704740797047F8B50D4C2668002EB8
:1036B000074611DD150205F47F45DBB209041D4301
:1036C00001F47F010D430024A1B22A4605480134CC
:1036D00008F06AFAB442F7D10123BB71F8BD00BF0C
:1036E000FCF6010040ABFF1F01238371704700BF50
:1036F000837903B9704710B50446034808F06EF9A2
:103700000023A37110BD00BF40ABFF1FF8B5134EDF
:103710000F4600257088002498B12304FF2293FBF4
:10372000F0F02844114680B208F068FA08F00AFB6D
:10373000A1B20246094808F037FA70880134A04265
:10374000EBDC064808F04AF905F58075384609F0C3
:10375000D1FBB5F5803FDDD1F8BD00BF40ABFF1F09
:1037600070B506461A4808F0E5F8194808F036F929
:10377000184B1748197808F0BBFA174B1D68002D35
:10378000C8BF00240DDDA1B2144A114808F00CFA9C
:103790000F4808F023F90134052009F0ABFBAC42D7
:1037A000F1D130460521FFF7B1FF4FF4FA7009F06F
:1037B000A1FB0022ABB21146054808F0FBF9044812
:1037C00008F00CF96420BDE8704009F093BB00BF1D
:1037D00040ABFF1FF8F60100FCF60100808080007E
:1037E00030B5144B144D154A1988B2F90020144C09
:1037F00083B05223284608F0C1F9124A12492846DC
:103800000CF0A8FF114B1968084615F0B5F815F033
:10381000A7FB0F4B20601A68009200991B68019368
:10382000019AA1600023E26023716371A37103B068
:1038300030BD00BFFCF6010040ABFF1F44F80100A3
:1038400030ABFF1F1C89FF1F15B9000068A4FF1FC4
:10385000E8CCFF1F01230371704700BF00207047B1
:1038600082B002B0704700BF083004F03BB900BF1F
:1038700090F8443133B990F8183183F0010380F89F
:103880001831704700F5A47001F054B990F8443134
:1038900003B9704700F5A47001F052B990F84431B3
:1038A00073B9164A517F927F59B1AAB1012280F8AB
:1038B0002D3180F82E3180F82F2180F8303170477B
:1038C000704780F82D318AB1012280F82F3180F8BD
:1038D0002E2180F830317047012280F82E3180F897
:1038E0002F3180F82D2180F83031704780F82E314B
:1038F00080F82F31012380F83031704714A3FF1F67
:10390000037970B50446BBB1104B04F108060025DD
:1039100030465D7104F0E0F83046A17B04F03AFADD
:1039200084F82C512A46294604F2191003F0FEFFB0
:10393000012384F8183170BD0368054A9B689342DF
:1039400002D101230371DFE79847DDE764B3FF1F6E
:1039500055380000F8B50025284E294B0360044671
:103960000571083004F054F896E80F0006F1100EC7
:1039700004F1FC0787E80F009EE8070004F5867352
:1039800083E80700082206F11C0184F8185184F826
:10399000195184F81A5184F81B5184F81C5184F889
:1039A0001D51C4F8285184F82C5184F8315184F801
:1039B0003251C4F8345104F59C7008F065FC04F2EF
:1039C0001916C4F8405184F8445104F5A47001F06C
:1039D00069FA84F84D513046042103F00FFF304658
:1039E000042103F00BFF3046042103F007FF3046AB
:1039F000042103F003FF2046F8BD00BF20FE0100B4
:103A00004CFE010070B5044600F219160D46304612
:103A100049B203F0A1FF94F8313123B90848BDE859
:103A20007040FFF779B8304603F074FF0028F5D1F5
:103A3000C4F834510248BDE87040FFF76DB800BFCC
:103A4000D8AAFF1F70B590F844618AB0044676B9D1
:103A50000329184607DC0E9B092B10DC2948FFF7C9
:103A60005BF80AB070BD04291DD00AB070BD0E9875
:103A7000009004F5A47001F065F80AB070BD420032
:103A8000CDB204F1080002F0FE02294604F0F6F976
:103A900004F2191003F03EFF0028DFD1294620462A
:103AA000FFF7B0FFDAE715F01BF84FF0705115F093
:103AB0006BF8154915F068F815F02CFA0546C1B2F7
:103AC00004F1080004F0F2F9D4F840319D4215D019
:103AD00004EB850302A8D3F80C110AF0F5FE02A945
:103AE00006A80AF005FF06A905220648FFF708F90F
:103AF00006A80AF0A9FE02A80AF0A6FEC4F84051E2
:103B0000B3E700BFD8AAFF1F0000404038B500232C
:103B100080F818311546044649B200F2191003F036
:103B2000FDFE20462946FFF76DFF0248BDE83840FC
:103B3000FEF7F2BFD8AAFF1F00B50BB283B0002B6F
:103B400001910AD000F219100ADB03F067FE064863
:103B500003B05DF804EBFEF7DFBF03B05DF804FBD4
:103B600003F0BCFEF3E700BFD8AAFF1F2DE9F04326
:103B700090F8442183B00191002A56D190F8182181
:103B8000002A59D190F82D2112B103B0BDE8F0837D
:103B9000BDF90420BDF9063000F2191602FB03F34B
:103BA00003EB8303044630469F1803F0B3FE05463B
:103BB000304603F0CDFEC6B2731C5BB2032D2ED887
:103BC000DFE805F03F4D5B0294F831212AB1012B6B
:103BD00000F0CD80022B00F0F580042B1FD18D4E1C
:103BE0003568384614F07CFF294614F0C5FE8A4932
:103BF000044615F067F9002840F0B7808749204651
:103C000015F07EF900B1854C746029462046814D3F
:103C100015F04EF918B982482C6003F015FD814863
:103C200003B0BDE8F043FEF777BF00F5A47003B022
:103C3000BDE8F04301F074B903B0BDE8F043FFF70D
:103C40007BBF08343146204604F01CF9384480F329
:103C50000802D2B22046314604F010F9DFE7012B0A
:103C600019D0022B29D0032B5ED0042BD7D1237A75
:103C70003B4483F308032372D1E7012B11D0022BBD
:103C800015D0032B4AD0042BC9D1637B3B4483F36B
:103C900007036373C3E7637A3B4483F308036372E8
:103CA000BDE7A37A3B4483F30703A372B7E7E37A44
:103CB0003B4483F30703E372B1E794F83151002DDD
:103CC0006FD1A94604F2271604F1080816F8013F3F
:103CD0009BB90135042DF9D1B9F1000F9FD10834FA
:103CE0004946204604F0D6F8384480F30802D2B2A0
:103CF0002046494604F0CAF891E75FFA85F949463B
:103D0000404604F0C7F8384480F308024946D2B26E
:103D1000404604F0BBF84FF00109DAE7237B3B444F
:103D200083F3070323737AE794F83151002D5ED1B2
:103D3000A94604F2271604F1080816F8013FFBB95A
:103D40000135042DF9D1B9F1000F7FF468AF0834C3
:103D50004946204604F0A6F8384480F30802D2B25F
:103D60002046494604F09AF859E72B4C4CE7D4F822
:103D7000343123449A7A3A4482F307029A724EE726
:103D80005FFA85F94946404604F08CF8384480F3E0
:103D900008024946D2B2404604F080F84FF00109CB
:103DA000CEE704F1080594F83411284604F072F8BF
:103DB000384480F30802D2B2284694F8341104F053
:103DC00065F82CE704F10805284694F8341104F04E
:103DD0004DF8384400281BDD10280246A8BF1022E9
:103DE000D2B294F83411284604F03AF817E704F1F7
:103DF000080594F83411284604F054F8384480F348
:103E00000802D2B2284694F8341104F047F806E7C5
:103E10000122E5E768A4FF1F00002042000096434E
:103E200060ABFF1FD8AAFF1F10B508308CB00C463E
:103E300003F078FF08A813490AF046FD0A22611C26
:103E400004A80AF073FD04A908A80AF0CDFD0146F4
:103E500068460AF04DFD04A80AF0F6FC08A80AF02E
:103E6000F3FC694608A80AF043FD08A905220648A4
:103E7000FEF746FF08A80AF0E7FC68460AF0E4FCF3
:103E80000CB010BD9CFE0100D8AAFF1F10B5083071
:103E90008CB00C4603F07EFF08A813490AF014FD0D
:103EA0000A22611C04A80AF041FD04A908A80AF02E
:103EB0009BFD014668460AF01BFD04A80AF0C4FCFD
:103EC00008A80AF0C1FC694608A80AF011FD08A973
:103ED00005220648FEF714FF08A80AF0B5FC68465C
:103EE0000AF0B2FC0CB010BDA4FE0100D8AAFF1F5E
:103EF00030B590F831318DB01BB1D0F834318B42F0
:103F00003BD0012300F219150446C0F8341180F8A3
:103F10003131284603F0FEFC88BB94F8341120466A
:103F2000FFF770FD194908A80AF0CEFCD4F8341147
:103F30000A22013104A80AF0F9FC04A908A80AF031
:103F400053FD014668460AF0D3FC04A80AF07CFC45
:103F500008A80AF079FC694608A80AF0C9FC08A973
:103F600005220B48FEF7CCFE08A80AF06DFC0848B5
:103F7000FEF7D2FD68460AF067FC0DB030BD28465A
:103F800003F0C8FC0228CDD1C7E700BFACFE01009A
:103F9000D8AAFF1F70B582B0C1F3074301910D0E7F
:103FA000CEB24BB945B13EB980F83161464802B056
:103FB000BDE87040FEF7B0BD90F82E31044613B94D
:103FC0000DB1022E44D094F82D3194F83021F3B184
:103FD00002BB94F832319BBB95B3A6F10B010329C8
:103FE00003D8C9B22046FFF783FF1A2E28D104F563
:103FF000A47000F03DFF012384F844313248FEF7FD
:104000008BFD324802B0BDE87040FFF76DBB84F80D
:104010003231AAB195B1032E14D0052E37D100222A
:1040200001212046FFF772FDA6F10B0103291DD8DF
:10403000C9B22046FFF75CFF94F82D31002BC8D1A0
:1040400002B070BD012231462046FFF75FFDEBE76D
:104050001F4B5A7F002AB6D10321FFF757FD94F872
:104060002D3194F83021002BB2D1D0E71A2E09D18E
:10407000032211462046FFF749FD94F82D31002B0D
:10408000DED0A6E794F82D31002BD9D0A1E7062E7B
:1040900005D1012211462046FFF738FDC4E7072E5F
:1040A00005D1022201212046FFF730FDBCE7082E92
:1040B000BAD1032201212046FFF728FD94F82D31C3
:1040C000002BBDD085E700BFD8AAFF1F30ABFF1F74
:1040D00014A3FF1F2DE9F04182B00646019190F82C
:1040E00044314FEA1168CFB2002B40F0A68090F81F
:1040F0003131002B40F0D1809DF80630B3B9B8F1D2
:10410000000F13D0002F00F0CD809DF805306BB963
:10411000F91E07290AD890F82E31002B40F0F080C4
:1041200096F8303183B3C9B2FFF7B0FE96F830315C
:1041300053B3A7F10B03B8F1000F00F09980032BE4
:104140000AD8F3190122304683F81D211146FFF7E2
:10415000DDFC6D48FEF7E0FCA7F10F03032B0AD846
:10416000F3190121304683F819110222FFF7CEFC22
:104170006548FEF7D1FC172F00F0A880182F00F03B
:10418000AB801A2F00F0AE8096F82D3143BB5F4D07
:104190000B2415F8013F23B1B8F1000F01D0022F15
:1041A00005D00134132CF4D102B0BDE8F0810E2CFF
:1041B0004FF0FF014FF000002DDC0AF03BFBA4F1B3
:1041C0000B01C2B2C9B206F1080003F05FFE012282
:1041D00011463046FFF79AFC4B48FEF79DFCE0E79E
:1041E000B8F1000FD3D0A7F10B01032903D8C9B24E
:1041F0003046FFF77DFE1A2FC9D106F5A47000F0F6
:1042000037FE012386F844313F48FEF785FC4048DD
:10421000FFF76AFABBE7FF2100200AF00BFBA4F1CD
:104220000F01C2B2C9B206F1080003F037FE3A46E8
:1042300001213046FFF76AFCCEE700F5A47001F0DB
:1042400041F9344B1A7F002AAED0B8F1000FABD041
:104250001A2FA9D1002286F844212B4883F8342153
:10426000FEF75AFC2A4802B0BDE8F041FFF73CBA1D
:10427000032B05D8F319244883F81D81FEF74CFC65
:10428000A7F10F03032B3FF67FAFF319002283F84A
:1042900019211D48FEF740FC76E702B0BDE8F04169
:1042A000FFF778BE1C4C637913B196F82C31FBB93B
:1042B000012586F82C5106F1080003F005FC96F85C
:1042C00030316571002B7FF434AF5DE700220121AE
:1042D0003046FFF71BFC57E7032201213046FFF76A
:1042E00015FC51E7032211463046FFF70FFC4BE760
:1042F00086F82C7106F1080003F0EEFB677115E7F4
:10430000C9B2FFF791FD11E7D8AAFF1F3AA3FF1F1B
:1043100030ABFF1F14A3FF1F64B3FF1F2DE9F84349
:1043200000F1FC0506463848DFF8F890FFF7B8F9C9
:104330002F4680460B2419F8013F002B5ED0B8F1C0
:10434000000F5FD03A68314821460134A4B207F02B
:104350002BFC0F2C07F10407EDD12D4F042417F887
:10436000013F2C4A43B104F0030306EB8303B8F189
:10437000000F45D0D3F8FC20244804F10B0189B28A
:10438000013407F011FC082CE9D108360024E1B211
:10439000304603F05DFD78B32A681C4804F1130130
:1043A00089B2013407F000FC042C05F10405EED1BC
:1043B000194C1A4A94F833301448002B08BFFF22D6
:1043C000172107F0F1FB94F83430154A0F48002B01
:1043D00018BF6FF07F42182107F0E6FB94F83630E3
:1043E0000A48002B0CBF4FF0FF126FF07F421A21DA
:1043F000BDE8F84307F0D8BB0246CEE7FF22A2E7AC
:104400004246B9E742469EE730ABFF1F40ABFF1F75
:104410003EA3FF1FFFFF800014A3FF1FDFCF9F00FD
:104420000080FF003AA3FF1FF8B505461448154E5B
:10443000FFF736F9FC3507460B2416F8013F124A00
:104440000BB1D7B12A68114821460134A4B207F054
:10445000ABFB0F2C05F10405EFD1214601340022FE
:104460000A48A4B207F0A0FB1B2CF6D1064A074865
:104470001A21BDE8F84007F097BB3A46E3E700BFD2
:1044800030ABFF1F3AA3FF1F0080FF0040ABFF1FB0
:104490002DE9F0475A4F7E7988B08146002E40F0D2
:1044A0008B8099F82D3123B199F83231002B00F02F
:1044B0009280544B1D68132D2BDDDFF85881DFF8F7
:1044C00058A1103D032415E0052C4BD0062C54D0E8
:1044D000072C64D0082C5CD198F824304A4A4B4809
:1044E000002B18BF6FF07F42214607F05DFB0134BF
:1044F000AC420ED0032CE7D198F821304348002B72
:1045000014BF52464D222146013407F04DFBAC4208
:10451000F0D1684699F8342109F1080103F084FBD1
:10452000D9F834319C330F2ECCBF1025002539F833
:1045300013806D440B2415F8012B520002F0FE028B
:10454000FF21404607F05AFB214601340246A4B23F
:104550002E4807F029FB1B2CEDD17B798BBB08B0D3
:10456000BDE8F08798F821302848002B14BF524648
:10457000FF22214607F018FBB9E798F822302348BC
:10458000002B14BF52464FF47F02214607F00CFB6C
:10459000ADE70022A1B21D4807F006FBA7E798F897
:1045A00023301A48002B14BF6FF07F424FF47F4234
:1045B000214607F0F9FA9AE7083003F037FC06467F
:1045C0006FE706F00F01124A10480B3108B0BDE842
:1045D000F04707F0E9BA4846FFF726FF094B1D6888
:1045E000132DBCDD103D0324A1B200220748013485
:1045F00007F0DAFAAC42F7D108B0BDE8F08700BFA7
:1046000064B3FF1FFCF601000080FF0040ABFF1FFA
:104610008080800014A3FF1FDFCF9F002DE9F041B1
:104620000C4B877B1D68132D11DDDFF83080103DAA
:10463000FE1C0324A64208BF58F82720064818BFCE
:104640000022A1B2013407F0AFFAA542F2D1BDE8D1
:10465000F08100BFFCF6010040ABFF1F40FF0100EE
:1046600070B590F8444104B170BD05464948FEF765
:104670007FFE4848FFF714F895F83111064631BB24
:10468000454B5A79002A67D0002E444A444808BF57
:10469000002207F089FA95F82F216AB3002E0CBF8B
:1046A0004D240024224601213D4807F07DFA224690
:1046B00002213B4807F078FA95F8313128464BB390
:1046C000FFF7E6FE3348BDE87040FFF70DB8324A09
:1046D000D5F83431517905EB8303D3F8FC20002958
:1046E0003BD0002808BF002221462D4807F05CFA85
:1046F00095F82F21002AD1D195F82D318BB3002EBA
:104700003ED00121264807F04FFA95F82E3183B3A9
:10471000002230E0FFF782FF0B2421460134002203
:104720001F48A4B207F040FA1B2CF6D195F830319F
:1047300053B995F82E313BB995F82D31002BC1D0E6
:104740002846FFF771FEBDE72846FFF7E7FD114851
:10475000BDE87040FEF7C8BF1146114807F024FAC3
:1047600099E7104A0E48012107F01EFA95F82E31FC
:1047700063B94FF680720221094807F015FA9BE7EA
:10478000084A0748012107F00FFAF2E7002EBFD1CF
:10479000EFE700BF30ABFF1F64B3FF1F00FF8000D7
:1047A00040ABFF1FFFFF8000F0B5044691B090487A
:1047B000FEF754F904F2191003F0ACF8032863D89B
:1047C000DFE800F091027E6494F83131002B00F0B4
:1047D000AA80D4F83461771C8649854D0CA80AF06C
:1047E00073F80A22394608A80AF0A0F808A90CA80C
:1047F0000AF0FAF8014668460AF07AF808A80AF0C2
:1048000023F80CA80AF020F87B490CA80AF05CF801
:104810000A22394608A80AF089F808A90CA80AF063
:10482000E3F804AF014638460AF062F808A80AF037
:104830000BF80CA80AF008F87049009A049B002AAB
:1048400008BF0A46002B08BF0B4638466A60AB60BB
:1048500009F0FAFF684609F0F7FF694B694A2A60D8
:10486000EB60637A2B61731C0CD0F6B204F108077D
:104870003146384603F00EFB31466861384603F096
:1048800011FBA861237AEB6111B0F0BD94F83131CE
:10489000002B68D15C4B564C18685C4B5C4DE36058
:1048A0006FF07E0325606560A56023616361A3618D
:1048B00014F030FB6562E061A562E56211B0F0BD05
:1048C0004B4B544D54485549554A1D6058609960AA
:1048D000DA60A27A1A61E27A5A61227B9A61627B7B
:1048E000DA6111B0F0BD424D4E494F4A4F4B29603D
:1048F00008344F4EAA6020460021EB606E6003F042
:10490000C1FA01212861204603F0BCFA0221686146
:10491000204603F0B7FA0321A861204603F0B2FA5B
:10492000E86111B0F0BD18461E4604F2271212F8D5
:10493000011F09B101301E460133042BF7D10028B5
:1049400050D0012851D02A4D042807BF394A3A4B8C
:104950003A4A3B4B6A60AB602A4A294B2A60EB60BB
:10496000637A2B6181E70CA83649214D284E09F066
:10497000ABFFD4F834110A22013108A809F0D6FFA0
:1049800008A90CA80AF030F804AF0146384609F02F
:10499000AFFF08A809F058FF0CA809F055FF049BC9
:1049A000164AD4F8341128486860002B08BF134613
:1049B0002B60164AEA606318AE609B7A2B61C9B21D
:1049C00004F1080003F052FA0F4A68616FF07E03A9
:1049D0001068EE62AB6114F09DFAE861384609F0A8
:1049E00033FF51E706460127F6E6771CF4E600BFE1
:1049F000D8AAFF1F2CFF010030FF01008A5D0200D2
:104A0000F4FE0100ECFE010068A4FF1F28FF010076
:104A1000AC6E0200FCFE010004FF01000CFF01006F
:104A200014FF0100B4FE0100C4FE0100CCFE010031
:104A3000BCFE0100D4FE0100DCFE0100E4FE01002A
:104A4000E8FE01001CFF010020FF0100F0B590F816
:104A5000443183B004464BB100F5A47000F010F966
:104A6000184B93F8343123BB03B0F0BD0368164DE7
:104A7000DB69984795F83C30002BF5D0134B1B7839
:104A8000002BF1D1204604F21916FFF78DFE3046B7
:104A900002F040FF0746304602F05AFF94F8183102
:104AA00000933A46034604212846FEF707FA03B06E
:104AB000F0BD07484FF47F021A2103B0BDE8F04073
:104AC00007F072B814A3FF1FD8AAFF1FE0A4FF1FAE
:104AD00040ABFF1F00F5A47000F0BEBD172070476B
:104AE000083003F005B900BF82B070B584B00AACDD
:104AF0000E4608A981E80C0000F1080594E80F00B3
:104B00006C4607C424F8023B1B0C237008AB3146EB
:104B100028460CCB03F0F4F804B0BDE8704002B0B6
:104B2000704700BF82B002B0704700BF012303711D
:104B3000704700BF037B83F001030373704700BF1E
:104B4000704700BF08B50B4B1A684AB90A4B0B48AF
:104B50009A7802F0F7FC0A48BDE80840FDF7DCBF90
:104B60009A68064802F0EEFC0548BDE80840FDF7EB
:104B7000D3BF00BF8C89FF1FD0A4FF1F60ABFF1FF6
:104B8000D8AAFF1F08B54379B3BBA3F15533A3FBE4
:104B900002032149DB08D80781F82021A3EB830118
:104BA00016D502EB810202F10C01012B27D0022B5A
:104BB00023D0032B27D0042B28D0052B29D0062B5C
:104BC0001FD0072B4FF6FF7218BF6FF07F4205E032
:104BD00002EB81016FF07F42002BE6D10F4B1048B2
:104BE00033F8211006F0E0FF0D4806F0F7FE0D48FF
:104BF000BDE80840FDF790BF08BD0B4AEEE70B4A41
:104C0000ECE70B4AEAE74FF47F42E7E74FF0FF1289
:104C1000E4E74FF6FF72E1E714A3FF1FDCF70100A2
:104C200040ABFF1FD8AAFF1F00FFFF000080FF005E
:104C300000FF800008B54379DBB9A3F15533A3FB2E
:104C40000213DB0813F0010FA3EB830302EB8303D2
:104C500018BF0C33074A084832F82310002206F028
:104C6000A3FF054806F0BAFE0448BDE80840FDF77A
:104C700053BF08BDDCF7010040ABFF1FD8AAFF1FE0
:104C8000F0B5604C816883B005465F48FEF7CAFB0B
:104C900094F83C3013B15D4B1B780BB103B0F0BD01
:104CA00005F10D06304602F035FEF8B1304602F04F
:104CB00031FE012835D0304602F02CFE02284AD0C1
:104CC000304602F027FE03286CD0304602F022FE68
:104CD0000446304602F03CFE2B7B009322460346FE
:104CE00004214848FEF7EAF803B0F0BD2046FDF77E
:104CF000B5FE474A47485368474992F8202190F843
:104D000002E0496C454FE261043345482361454A5E
:104D1000454BC4F814E0A16127606060A260E360C5
:104D2000D3E72046FDF79AFE394B4049D3F82421BA
:104D3000D3F81C71D3F81801D3F82831E361276147
:104D4000531C3B4FA3613B4A3B4B606184E88200AC
:104D5000A260E360B9E72046FDF780FE2E4B2C4AA7
:104D60005B69364992F82D21354F36482160013371
:104D7000354923616FF07E036760A060E160636185
:104D80006AB1324BA362324B324A19689B6852F8BF
:104D90002120E3616FF07E03E262A36195E72E4B71
:104DA000A362F0E72D4F2046FDF758FE7B682C49A3
:104DB0002C4A2D482160002BB8BF274B2B49B4BF8C
:104DC000A362636162606FF07E036FF07E02A06099
:104DD000E160A8683968B8BF62612261A361E361DC
:104DE000FDF7E8FA3A7A194B1B497F7A6062002A8C
:104DF00014BF1A460A46002F08BF0B46E26223631F
:104E000063E700BFD8AAFF1F30ABFF1FE0A4FF1F5E
:104E100014A3FF1FD0A4FF1F84A4FF1FBCFF010029
:104E2000C0FF0100C4FF0100C8FF0100D0FF010066
:104E3000D4FF0100DCFF0100E0FF0100E4FF0100FE
:104E4000ECFF0100F4FF0100FCFF0100B8FF0100CE
:104E50008C89FF1F4C8AFF1FB8F701005CA4FF1F5D
:104E6000040002000C000200140002001C000200FA
:104E7000037910B5044643B10022114604F10D0038
:104E800002F054FD0123237310BD0368044A9B689C
:104E9000934202D101230371EEE79847ECE700BF8C
:104EA0002D4B000038B504460F4B036000F10D0593
:104EB00000232371637123736373A373E3732374F8
:104EC00063742846042102F099FC2846042102F06C
:104ED00095FC2846042102F091FC2846042102F0AA
:104EE0008DFC204638BD00BF68FF010000B50BB245
:104EF00083B0002B01910AD000F10D000ADB02F013
:104F00008DFC064803B05DF804EBFDF705BE03B069
:104F10005DF804FB02F0E2FCF3E700BFD8AAFF1F34
:104F20002DE9F043027B83B00191002A42D14279FE
:104F3000BDF9045004464ABBB54E96F83481B8F129
:104F4000000F02D003B0BDE8F083BDF9063004F1D4
:104F50000D0905FB03F303EB830348461D4402F0F0
:104F6000D9FC471C484602F0F3FC7FB20130012F08
:104F700040B246D0022F22D0032F67D0042F79D021
:104F8000A44803B0BDE8F043FDF7C6BD0D3002F004
:104F9000DFFC014650B9002DC0F28C8006D09E4A3D
:104FA0009E4B927818687F21FBF7A4FC9948FDF787
:104FB000B3FDC1E703B0BDE8F043FFF797BF012899
:104FC00030D002287DD0032800F0B4800428D7D147
:104FD000D6F82831904C2B4483F30703A278C6F807
:104FE000283141464046FBF785FCD6F82811A278C7
:104FF0002020FBF77FFCA178D6F82401FBF7B2FC58
:10500000BEE7012846D00228BAD183498A785319CD
:10501000002B40F3C780102BA8BF10239342AFD0C2
:105020008B70ADE7D6F81C215319002B40F3BC80E0
:10503000102B00F3B0809A42A2D0012BC6F81C318D
:1050400000F0B780012386F8143199E701284AD08F
:1050500002283ED0032840F09180714A71491368BC
:1050600009680091EB1800F1C8808B42A8BF0B467D
:10507000136085E701284CD0022800F09E800328A9
:105080003BD1694A137A2B4483F3010303F00103F4
:10509000137275E772685319042BA8BF04236FF0CD
:1050A00004018B42B8BF0B469A42B3603FF468AF2D
:1050B000736065E7594B584A18689278FBF71AFCF9
:1050C00074E7D6F818312B4483F30403C6F818317B
:1050D00056E796F82D312B4483F3010303F00103C7
:1050E00086F82D314CE7514A53692B44042BA8BF55
:1050F000042323EAE373536142E704287FF440AFBB
:10510000494A537A2B4483F3010303F0010353729A
:1051100036E7454B1A6851190B29A8BF0B2121EA24
:10512000E1718A4219603FF42BAF5A68A068FCF71E
:10513000F9FF25E7D6F8240196F81431284480F3C6
:105140000700C6F82401002B59D0D6F81821D6F84C
:105150001C31541C1344A342FFF612AF354601E044
:10516000D5F824012146FBF7FDFBD6F81821D6F827
:105170001C3101341344A342F2DA01E704287FF41E
:10518000FFAE274A93682B44002B34DD102BA8BFB9
:1051900010239360F4E6102A3FF4F2AE1023C6F811
:1051A0001C314FE73B4639E7012A3FF4E9AEC6F828
:1051B0001C01002386F81431E2E61B4FA0687E68CC
:1051C0003544FDF763F86B1C1EDB411EA942A8BFE6
:1051D0002946B1427960144D3FF4D2AEA068FDF784
:1051E000EFF801460B48FDF705FDA06895E80600BD
:1051F000FCF798FFC4E60123CBE7434638E7064BAC
:105200009978FBF7AFFBBBE64FF0FF31E1E700BF5A
:1052100014A3FF1FD8AAFF1FD0A4FF1FECF60100A4
:105220008C89FF1F00F701005CA4FF1F84A4FF1FEF
:10523000F0B5A04C83B023790191002B52D09DF89A
:105240000650002D4ED19DF80730002B4AD09DF816
:105250000400A0F10B030F2B46D9012858D00228D7
:1052600040D0032866D0042800F0CD80052816D051
:10527000062800F0E180C31F012B33D9092800F074
:10528000EE800A282ED1A26801210020FBF7C2FA85
:10529000282007F02FFE0021A268084633E00121F4
:1052A0000846A268FBF7B6FA282007F023FEA2689A
:1052B00001210220FBF7AEFA282007F01BFEA268AE
:1052C00029460220FBF7DEFA2946A2680120FBF7F7
:1052D000D9FA794B03F1100113F8012F02B11D70B7
:1052E0008B42F9D103B0F0BD744AD15C81F0010169
:1052F0000130D15431B1A268012103B0BDE8F040C2
:10530000FBF788BAA26803B0BDE8F040FBF7BABA71
:105310002F46694E0C2502E00135142DE2D016F817
:10532000013F002BF8D0A268377000212846FBF718
:10533000A9FAF1E701210846A268FBF76BFA2820D9
:1053400007F0D8FDA26801210620FBF763FA1420BC
:1053500007F0D0FDA26829460620FBF793FA282023
:1053600007F0C8FDA26801210420FBF753FA1420BE
:1053700007F0C0FDA26829460420FBF783FA282025
:1053800007F0B8FDA26801210420FBF743FA1420BE
:1053900007F0B0FDA26829460420FBF773FA282025
:1053A00007F0A8FDA26801210420FBF733FA1420BE
:1053B00007F0A0FDA26829460420FBF763FA282025
:1053C00007F098FDA26801210420FBF723FA1420BE
:1053D00007F090FDA26829460420FBF753FA282025
:1053E00007F088FDA26801210720FBF713FA1420BB
:1053F00007F080FDA26829460720FBF743FAA26860
:10540000294601207FE701210846A268FBF702FA3E
:10541000282007F06FFDA26801210320FBF7FAF9AD
:10542000282007F067FDA26829460320FBF72AFA27
:10543000A2682946012066E7214E1425002703E0D3
:1054400001351C2D3FF44EAF16F8013F002BF7D06D
:10545000A268377000212846FBF714FAF0E7A2682B
:1054600001210620FBF7D6F9A26801210720FBF7EE
:10547000D1F9A26801210520FBF7CCF9A26801212E
:105480000420FBF7C7F9282007F034FDA2680021AB
:105490000620FBF7F7F9A26800210720FBF7F2F9D5
:1054A000A26800210520FBF7EDF9A2680021042085
:1054B00029E700BF8C89FF1F4BA4FF1F4CA4FF1FCF
:1054C00053A4FF1F30B585B05D4B03911A68002AC5
:1054D0004FEA1165CCB237DD1A799DF80D104ABB41
:1054E000002D41D1002C40F08180022977D0554B0E
:1054F00093F8342112B1002283F83421002211469E
:10550000514806F051FB002201214F4806F04CFBA8
:10551000002202214C4806F047FB00220B214A489A
:1055200006F042FB484800220C2105B0BDE830409F
:1055300006F03ABB15B90CB902293DD0039905B064
:10554000BDE83040FFF774BE9DF80E203ABB75B938
:10555000002CCCD03D4B3E489A78214602F020F9F1
:10556000002CC4D005B030BD9DF80E20CAB9D4B10E
:10557000344B93F8342142B1A4F10B02012A3AD9F9
:10558000621E012A4BD91A2CECD0304A81689278DD
:105590001B682F480092224602F08CF8E2E7002DAB
:1055A000DED0002CDED11B79002BDBD1254B012274
:1055B00083F8342105B030BD2649224A0D681C719C
:1055C000012D82F83441CDDD0124A1B200221E4814
:1055D000013406F0E9FAAC42F7D105B030BD194903
:1055E000012281F834411A7105B030BD9DF80E30AA
:1055F000002BB5D1AEE70B2C59680CBF4FF0FF3232
:1056000001220A44042AA8BF04226FF00400824247
:10561000B8BF024691429A60A4D05A60A2E7012C1A
:1056200007D0022C9ED10D3005B0BDE8304002F00D
:10563000F5B80D3005B0BDE8304002F04FB900BFFD
:105640008C89FF1F14A3FF1F40ABFF1FD0A4FF1FB7
:1056500060ABFF1FFCF601008160704701230371FE
:10566000704700BF037B83F001030373704700BFE3
:10567000007C7047437910B504463BB103F0BAFA99
:1056800023682046DB69BDE81040184703F0E4F9C1
:10569000F6E700BF437B0BB102207047037C002B71
:1056A00014BF0320002070472DE9F043B04DEB6894
:1056B00040F2CB2202FB035383B093F8AE305A077B
:1056C000064609D4AB4C94F83C3013B1AA4B1B7876
:1056D0003BB103B0BDE8F0838168A848FDF7A2FEA6
:1056E000F0E72046FDF740F80028F2D1F37BCBB17C
:1056F00006F12105284602F00DF9002800F0C080CF
:10570000284602F007F9012800F09A81284602F0A5
:1057100001F9022800F0E281284602F0FBF8044675
:1057200028466EE03046FFF7B5FF002837D106F176
:105730001207384602F0EEF800286FD12046FDF738
:105740008DF98F4AEB68D268626140F2CB2202FB8E
:1057500003558C4995F8AD2008688B4D8B49256021
:105760000133236102F07F03A361894A894B6160A1
:10577000A260E36013F0CEFBE061384602F0CAF8A5
:105780000446384602F0E4F8337B00932246034691
:1057900002217848FDF792FB03B0BDE8F0830128B1
:1057A000A6D0022800F08D80032892D106F13F0791
:1057B000384602F0AFF8002840F0AC802046FDF7F4
:1057C0004DF9EB686E4A74495268216005EB83031A
:1057D00004325B6C71487249226101336A4A636129
:1057E000E2606060A16002F05FFCEB680278013368
:1057F00002F07F02A261E361384602F08BF80446B2
:10580000384602F0A5F8337B009322460346032175
:105810005848FDF753FB03B0BDE8F083384602F06B
:1058200079F80128A9D12046FDF718F9EB685D4AFF
:10583000226040F2CB2202FB03555B4895F8A4306E
:1058400095F8AB2095F8AE10584D656003F03F0316
:10585000013302F00F0263616FF07E0350F82220E3
:10586000A361E3610B07E2625148524A4CBF524BBD
:10587000524BA060C1F380052561E26023637CE7A1
:105880003C48FDF7EBF844494D4A484B444884E80E
:105890000F0002F009FC3A4B02785B6802F07F02CD
:1058A00004332261636102F0FFFB437803F07F035E
:1058B000A36102F0F9FB837803F00F030133E36186
:1058C0002AE706F13007384602F024F8002840F0B5
:1058D00089802046FDF7C2F8294BEA681B69A3615D
:1058E00040F2CB2303FB0253501CA0331A795B799F
:1058F00025492E4D206102F03F02013203F00F03D3
:10590000013330486261304AE36184E82200A060DC
:10591000E26071E7384601F0FDFF01287FF46CAFCB
:105920001448FDF79BF82949294A2A4B2A486FF069
:105930007E0584E80F00256102F0B6FB837A274AD2
:1059400003F0070352F82330636202F0ADFB037AE1
:10595000A56103F07F03636102F0A6FB437A20494F
:1059600003F03F03002251F82330E362E26143E792
:1059700064B3FF1FD8AAFF1FE0A4FF1F30ABFF1FB7
:1059800014A3FF1F68A4FF1FB8000200BC000200A0
:10599000C400020028FF0100BCFF01003401020026
:1059A000C8FF0100CC000200308AFF1FD4000200B3
:1059B000D8000200E0000200B8FF0100B8F70100C3
:1059C000E40002001401020018010200F0000200CD
:1059D000F8000200AC6E0200E8000200308CFF1FED
:1059E0000C8FFF1F384601F095FF012850D0384634
:1059F00001F090FF02287FF4FFAE4A48FDF72EF831
:105A0000EB68494A226040F2CB2202FB035547492A
:105A100095F8AB2095F8AE304548606002F00F0273
:105A2000C3F3800351F822006361424A606200239D
:105A30006FF07E01A260E2602161A361E361DBE6B9
:105A40003848FDF70BF83C493C4A3D4B3D486FF068
:105A50007E0784E80F00276102F026FB837A3A4A2A
:105A600003F0070352F82330636202F01DFB037A50
:105A7000A76103F07F03636102F016FB437A3349A9
:105A800003F03F03002251F82330E362E26143E672
:105A90002046FCF7E3FFEB682D4A226040F2CB2260
:105AA00002FB035595F8AC0095F8A63095F8A710C1
:105AB00095F8A820274D656000F07F0003F03F03B4
:105AC000013301F03F0102F03F02234DE0611A482B
:105AD00023616161A261A560E0608DE61148DFF895
