:1000000000800020BD010000F5E70100B1E701001C
:10001000B1E70100B1E70100B1E70100B1E701007C
:10002000B1E70100B1E70100B1E70100F5E7010028
:10003000F5E70100B1E70100CDDB0100D1DB0100F4
:10004000F5E70100F5E70100F5E70100F5E701003C
:10005000F5E70100F5E70100F5E70100F5E701002C
:10006000F5E70100F5E70100F5E70100F5E701001C
:10007000F5E70100F5E70100F5E70100F5E701000C
:10008000F5E70100F5E70100F5E70100F5E70100FC
:10009000F5E70100F5E70100F5E70100F5E70100EC
:1000A0007DB1010089B10100F5E70100F5E701002C
:1000B000F5E70100F5E70100F5E70100F5E70100CC
:1000C000F5E70100F5E70100F5E70100F5E70100BC
:1000D000F5E70100F5E70100F5E70100F5E70100AC
:1000E000F5E70100F5E70100F5E70100F5E701009C
:1000F000F5E701007DFA0100F5E70100F5E70100F1
:10010000F5E70100F5E70100F5E70100F5E701007B
:10011000F5E70100F5E70100F5E70100F5E701006B
:10012000F5E70100F5E70100F5E70100F5E701005B
:10013000F5E70100F5E70100F5E70100F5E701004B
:10014000F5E70100F5E70100F5E70100F5E701003B
:10015000F5E70100F5E70100F5E70100F5E701002B
:10016000F5E70100D5FD0100F5E70100F5E7010025
:10017000F5E70100F5E70100F5E70100F5E701000B
:10018000F5E70100F5E70100F5E70100F5E70100FB
:10019000F5E70100F5E70100F5E70100F5E70100EB
:1001A000F5E70100F5E70100F5E70100F5E70100DB
:1001B000F5E70100F5E70100F5E70100574B4CF2C8
:1001C000205210B5DA814DF62812DA8100BF00BF47
:1001D0001EF014FB524B4FF010621A63514A9A639F
:1001E000514ADA63514A136913F4807303D153619E
:1001F0004FF4A85313614E4B9A78110703D59A78A0
:1002000042F008029A704B4B4B482A221A704B4B13
:10021000DA1C121AC11E22F00302994288BF002282
:1002200047491EF0F1F9474B4748DA1C121AC11E24
:1002300022F00302994288BF002200212BF06AF9C4
:10024000424943484FF4DE721EF0DEF9414B424A08
:10025000802103F8011B9342FBD14FF0E0233C4A7D
:10026000C3F8082D3D4B8A221A70A3F5805324222F
:100270005A70A0221A709A799207FCD59A79D406FE
:10028000FCD4374B9A7902F00C02082AFAD10322E7
:100290001A7146225A719A799006FCD5304A9379A0
:1002A0005906FCD51E4B4FF082715964092199649F
:1002B00020211170917901F00C010C29FAD1294A01
:1002C0005A604FF0E023284A5A6100229A610722BF
:1002D0001A61264AC3F8202D62B61EF0BFFD134BEB
:1002E0005B69DA0705D522481EF0ACFD214B224A96
:1002F000DA61224B1B785B0609D51E4C1E4BE26966
:100300009A4204D11A481EF09DFD0023E3611EF0BD
:100310007BFA2BF0E1FB1EF06FF9FEE700200540B1
:1003200000800440823F04000100002B00D0034005
:1003300000D0074000E007404088FF1F809CFF1F5F
:1003400068AD0300AC040020809CFF1F000000008B
:100350000082FF1F00E400E05FE400E00050064080
:1003600000400640C0100500BFD40100000020205E
:10037000B3A8146500E00340A5C3945A00F00740F9
:10038000FFFFFFFFFFFFFFFFFFFFFFFFFFFFFFFF7D
:10039000FFFFFFFFFFFFFFFFFFFFFFFFFFFFFFFF6D
:1003A000FFFFFFFFFFFFFFFFFFFFFFFFFFFFFFFF5D
:1003B000FFFFFFFFFFFFFFFFFFFFFFFFFFFFFFFF4D
:1003C000FFFFFFFFFFFFFFFFFFFFFFFFFFFFFFFF3D
:1003D000FFFFFFFFFFFFFFFFFFFFFFFFFFFFFFFF2D
:1003E000FFFFFFFFFFFFFFFFFFFFFFFFFFFFFFFF1D
:1003F000FFFFFFFFFFFFFFFFFFFFFFFFFFFFFFFF0D
:10040000FFFFFFFFFFFFFFFFFFFFFFFFDEF9FFFF23
:100410000548064B1B1AD90F01EBA301491002D066
:10042000034B03B118477047809CFF1F809CFF1F40
:100430000000000008B5054B1BB105490548AFF3A6
:100440000080BDE80840FFF7E3BF00BF00000000E8
:10045000809CFF1F90AA0300704700BF704700BF39
:10046000704700BF704700BF10B4044C03460A46F3
:10047000206810BC19461AF09FB900BF48C2FF1F80
:1004800000F5805370B50646D3F830040E4A32604A
:1004900020B1D3F83814091A1EF00AFA06F59F5451
:1004A00006F59C551C341C352046103C1DF04AFDB9
:1004B000AC42F9D120461DF045FD06F59C500C30AC
:1004C0001DF040FD304670BDD427030010B5084A2A
:1004D000084B0260044640F8A43F07F0A7FD204601
:1004E000054B40F8503F07F0A1FD204610BD00BF6E
:1004F000D02A0300C01F03004420030010B50446A7
:10050000D0F8480120B1D4F85011091A1EF0D0F9E2
:10051000D4F83C0120B1D4F84411091A1EF0C8F9EE
:10052000D4F8300120B1D4F83811091A1EF0C0F9FE
:1005300004F110001CF09EFC204610BD10B50B49C4
:100540000B4A0C4B01600446C0F82026C0F8C436A4
:1005500000F2C46007F06AFD074BC4F8703604F57A
:10056000CE6007F063FD204610BD00BFE828030001
:10057000D02A0300C01F030044200300114B10B514
:100580000446036000F531701DF0DCFC04F52D70AD
:100590001DF0D8FC04F529701DF0D4FC0A4A0B4B61
:1005A000C4F8B021C4F8543204F5157007F03EFDCC
:1005B000074BC4F8003204F5007007F037FD204601
:1005C00010BD00BF182A0300D02A0300C01F03007B
:1005D000442003000F4B93F829312DE9F0410446E4
:1005E0000D46164643B90C4B186803681F6D0B4B3C
:1005F0009F4207D1BDE8F08102463146284601F00E
:100600009BFBF0E733462A462146BC46BDE8F04155
:10061000604700BFF4C3FF1FA09CFF1F5D040000E4
:100620000A4A0B4B10B50446026040F8A43F07F09D
:10063000FDFC2046074B40F8503F07F0F7FC2046F2
:10064000F4211EF035F9204610BD00BFD02A03006A
:10065000C01F03004420030010B5782104461EF09B
:1006600027F9204610BD00BF134B10B504460360A8
:1006700000F531701DF066FC04F52D701DF062FC74
:1006800004F529701DF05EFC0C4A0D4BC4F8B02136
:10069000C4F8543204F5157007F0C8FC094BC4F8CF
:1006A000003204F5007007F0C1FC20464FF43571AC
:1006B0001EF0FEF8204610BD182A0300D02A0300C1
:1006C000C01F03004420030010B50D4A0D490E4B16
:1006D000C0F8202604460160C0F8C43600F2C460A9
:1006E00007F0A4FC094BC4F8703604F5CE6007F09F
:1006F0009DFC204640F6BC211EF0DAF8204610BDD5
:10070000D02A0300E8280300C01F03004420030090
:1007100000F5805370B50546D3F83004114A2A60BD
:1007200020B1D3F83814091A1EF0C2F805F59F5409
:1007300005F59C561C341C362046103C1DF002FC6E
:10074000B442F9D120461DF0FDFB05F59C500C305C
:100750001DF0F8FB284641F23C411EF0A9F828465E
:1007600070BD00BFD427030010B5242104461EF03D
:100770009FF8204610BD00BF4FF0FF30704700BF0C
:1007800070B5164D164B044628681C705C7010B18D
:1007900003681B699847013C052C1BD8DFE804F06F
:1007A0000A160C0310120F4803682860DB68BDE8C6
:1007B000704018470C48F7E70C4801234371F3E7F2
:1007C0000B48F1E70B4801234371EDE7074800238D
:1007D0004371E9E7074800234371E5E7A09CFF1F49
:1007E000D0C5FF1FE0BDFF1FE89EFF1FA8C1FF1F70
:1007F00024B3FF1FB4C0FF1F2DE9F04F394B1B6816
:1008000085B0002B039360DD374C384F384EDFF84E
:10081000E4B0DFF8E4A0002536E086457146A8BFC5
:100820000146BEEB020E4CD0891A0EEBDE7CC1EB0A
:10083000813101EB6C0101FB0EFCBCF1000F91FB5F
:10084000FEF1B8BF01F1FF31CA1193F834303160C5
:10085000E1636261A3B1294BA0EB08005B7A80EAF7
:10086000E07CACEBE07C9BBB25490868D0F800E05D
:10087000CDF800C01346DEF818804A462946C04726
:10088000039B01359D4220D057F8040B2368D4F810
:100890001890D3F82C80C0B21DF0A8FD014630603E
:1008A00054F8040B1AF0CCF854F8043CDBF80020A0
:1008B000D86ADAF800E08242AFDDBEEB020E1146E4
:1008C000B2D13F2241F6FF71BFE705B0BDE8F08F1E
:1008D00013460C48CDF800C04A46294615F044FF9F
:1008E000CEE700BFCC1603002CC5FF1FA0150300E8
:1008F0004CC2FF1F28C5FF1F548AFF1FD0C5FF1F12
:10090000A09CFF1F20C2FF1F2DE9F041114F97F857
:10091000293105460C4616466BB997F828319BB924
:100920000D4A106822460468A46C33462946A44642
:10093000BDE8F041604702463146204601F04CF9DF
:1009400097F82831002BEBD00448214616F086F9A1
:10095000E6E700BFF4C3FF1FA09CFF1FD0CDFF1F21
:10096000FFF7D2BF2DE9F041104F97F82931044627
:100970000D4616466BB997F828319BB90C4A10689A
:100980002A4605682146EC6C3346A446BDE8F04192
:10099000604702463146284601F076F997F828313B
:1009A000002BEBD0034816F07BF9E7E7F4C3FF1FF9
:1009B000A09CFF1FD0CDFF1FFFF7D4BF2DE9F04152
:1009C000DFF8D080344BD8F800001A780368334C35
:1009D0005B68334F00219847D8F8000022780368FD
:1009E00001215B689847D8F800002E4A0368127B03
:1009F0005B6802219847D8F80000A2780368013AA2
:100A00005B68D2B2032198470926741F3D46D8F887
:100A1000000055F8042B036821465B68D2B201340C
:100A20009847B442F3D11D2C07F1140704F10506D1
:100A3000EBD11D4CD8F80000A2680368013A5B684E
:100A4000D2B21D219847D8F8000022780368174CCD
:100A50005B681E219847D8F80000227803681F21A0
:100A60005B689847D8F800002279036820215B680A
:100A70009847D8F80000227A036821215B689847DC
:100A8000D8F80000627A036831465B68BDE8F0413F
:100A9000184700BF44C2FF1F8D150300D0C5FF1FBC
:100AA000588AFF1FE0D7FF1F108AFF1F8CC5FF1F4A
:100AB0002DE9F041504E3068036890B09B680021EA
:100AC00098474E4A034640210446684629F0E8FF0D
:100AD00068462BF095F80146684620F0BDF9FF2CDA
:100AE0007ED0474B1B78A3426FD13068454C0368DA
:100AF000DFF814819B680121984733681A682070D9
:100B00009268184602219047404A03463068D360F5
:100B1000026863600321936898470D21431C3C4899
:100B2000A37020F099F93B481DF06AF909277C1F52
:100B300045463068036821469B6898470134BC42AB
:100B400045F8040BF5D11D2C08F1140804F1050734
:100B5000EDD13068304C03681D219B6898470346EF
:100B600030680133A36003681E219B68984733688F
:100B700020601A68294C92681F21184690473368F4
:100B800020601A6818462021936898470346306809
:100B90005BB26360036821219B6898470346306815
:100BA000003B026818BF01239268237239469047C0
:100BB000031E18BF0123227921781948637208F0B7
:100BC00049F9012010B0BDE8F0811321154820F04B
:100BD00043F910481DF014F9002010B0BDE8F08171
:100BE0001021114820F038F90A481DF009F90020B9
:100BF00010B0BDE8F08100BF44C2FF1F2013030006
:100C00008D150300D0C5FF1F588AFF1FE0D7FF1FB7
:100C100068130300D894FF1F108AFF1F8CC5FF1FA5
:100C2000D49CFF1F54130300401303002DE9F04F21
:100C30008B4D286803688BB0DB689847814617F0B6
:100C400057F8884BB9F1000F03F1A40A6FF063075E
:100C500000F1A40614BF06220822FF1A82441E4493
:100C600040F2CB2380460192A0F2CB2B03FB02AAD9
:100C7000B8F1000FA6EB080408DD28680368E11945
:100C800014F8012B5B689847B442F6D106F2CB26E4
:100C900056455F44ECD1019B08F14002013B08FB43
:100CA000032ACDF804A0B9F1000F02D00BB0BDE8C3
:100CB000F08F6D49DFF8B4B102A81DF07FF902A9E9
:100CC00006A81DF021F9514606A81DF06DFA01464F
:100CD00067481DF067F866481DF092F806A81DF0F9
:100CE00031F902A81DF02EF928680368DB689847DF
:100CF00012F0F6FB80465FFA89F1584612F0F2FBDB
:100D0000B8F1000F0DDD044600EB0806AAEB000762
:100D100028680368E11914F8012B5B689847B4420E
:100D2000F6D109F10109B9F1080FC244E3D1019BE1
:100D30004D49504E02A803EBC8081DF03FF902A927
:100D400006A81DF0E1F8414606A81DF02DFA01465F
:100D500047481DF027F846481DF052F806A81DF038
:100D6000F1F802A81DF0EEF81021434820F074F8C5
:100D70003F481DF045F82A684048414610F074FF8E
:100D80003949044602A81DF019F902A906A81DF068
:100D9000BBF8214606A81DF007FA014634481DF0AD
:100DA00001F833481DF02CF806A81DF0CBF802A876
:100DB0001DF0C8F80D21324820F04EF82C481DF0E7
:100DC0001FF82A682F4821460DF010FF26490446D7
:100DD00002A81DF0F3F802A906A81DF095F8214617
:100DE00006A81DF0E1F9014621481CF0DBFF204870
:100DF0001DF006F806A81DF0A5F802A81DF0A2F83F
:100E00000D21214820F028F819481CF0F9FF06F6BA
:100E10007467214630462A6818F0F8FF06F53976DF
:100E2000BE420146F6D104460F4902A81DF0C6F89D
:100E300002A906A81DF068F8214606A81DF0B4F91D
:100E400001460B481CF0AEFF09481CF0D9FF06A86C
:100E50001DF078F802A81DF075F80BB0BDE8F08F12
:100E600044C2FF1FE0D7FF1F78130300E0BDFF1F40
:100E7000D894FF1F5CEFFF1F8813030024B3FF1FEC
:100E80009C130300E89EFF1FAC1303002DE9F04FF5
:100E90009F4CDFF8808220680368ADF5437DDB68F6
:100EA00098470546089016F023FF1E2181469A4870
:100EB0001FF0D2FF402199481CF09AFF97481CF080
:100EC0009FFF002D2B4640F2CB2B14BF0623082397
:100ED00007930FAF0BFB038BC2ABC3F5437507EB57
:100EE000090640F2CB22002138462AF013FBB9F163
:100EF000000F0ADDBA46206803680AEB05019B680B
:100F000098470AF8010BB245F5D140F2CB2208F11F
:100F1000A400394690441DF077FBD8454D44E0D1FC
:100F2000079B09F14002013B09FB0325089B09953A
:100F30001BB10DF5437DBDE8F08F20217848DFF827
:100F4000E4919A461FF088FF294674481CF050FF30
:100F500072481CF055FF20680368DB68984712F060
:100F6000BFFAED1B07900DF154083B464FF0000C03
:100F7000802101201A8883F803C002EA090242F4A2
:100F80004F721A809A78197160F3040259719A703D
:100F900006339845EED1BB6923F0FE439B0C9B04BE
:100FA00043F4C033BB61079B002B0BDD07EB030B46
:100FB0003E462068036871199B68984706F8010B44
:100FC0005E45F6D1079B0DF1440E1D44BEE80F00AF
:100FD000EC46ACE80F00DEF80030CCF800305FFAE9
:100FE0008AF197E80C0050480AF1010A12F07EFAE3
:100FF000BAF1080FB9D1099B079E4C480E2103EBAB
:10100000C6051FF029FF31464448494E1CF0F0FE4A
:10101000122148481FF020FF294640481CF0E8FEF6
:101020003E481CF0EDFE142143481FF015FF2268D6
:101030004248294610F042FE414905460BA81CF0E3
:10104000BDFF0BA938461CF05FFF294638461DF04E
:10105000ABF8014631481CF0A5FE30481CF0D0FE2C
:1010600038461CF06FFF0BA81CF06CFF11213548AF
:101070001FF0F2FE2268344829460DF0E9FD3049A0
:1010800005460BA81CF09AFF0BA938461CF03CFF44
:10109000294638461DF088F8014620481CF082FE9B
:1010A0001E481CF0ADFE38461CF04CFF0BA81CF08F
:1010B00049FF112125481FF0CFFE06F67468294626
:1010C0003046226818F0D0FE06F5397646450146CE
:1010D000F6D105461A490BA81CF070FF0BA938463B
:1010E0001CF012FF294638461DF05EF801460B48F9
:1010F0001CF058FE09481CF083FE38461CF022FF05
:101100000BA81CF01FFF0DF5437DBDE8F08F00BF5D
:1011100044C2FF1FE0D7FF1FBC130300D894FF1F7A
:10112000DC13030080F0FFFFE0BDFF1F001403008D
:101130005CEFFF1FC81303001014030024B3FF1F4C
:101140007813030028140300E89EFF1F3C140300DB
:1011500010B50F2113481FF07FFE13481CF050FEFE
:10116000FFF7A6FC044658B9142110481FF074FE7E
:101170000D481CF045FE0E480AF042FD204610BD09
:1011800010210C481FF068FE07481CF039FEFFF7DD
:101190007DFE094B1878FFF7F3FA05480AF030FD99
:1011A000204610BD50140300D894FF1F7414030090
:1011B0008CCDFF1F60140300D0C5FF1F2DE9F04F39
:1011C000AB48DFF8B0B2DFF8B09285B00AF0D0FAE1
:1011D0001EF026F8A94B1C681860041BCBF80C40C5
:1011E0001EF01EF8A64BD862D9F80000036821460D
:1011F000DB6998478CB1A34B5B79002B00F0EC8046
:10120000A14815F005FCD9F80010A048224615F0B9
:101210002BFC9E48214615F07DFC9D481AF0FAFEF5
:10122000994815F0C5FB984815F0EEFB8BF80900BE
:10123000FFF7E2FA974B1B787BBB9BF800009BF80B
:101240000130834229D08BF80100FFF799FA8D4BCA
:10125000DBF804209048DA6008F078FC00231A4696
:1012600019468E480AF0A6FC8C480AF0C5FC0023FB
:101270008BF8083001258A4800F098FB04B20190F1
:10128000002C40F0D080874800F000FC0138032893
:101290001AD8DFE800F0B709B1A89BF80850002D74
:1012A000E9D09BF80000CEE7D9F8000003685B6B3B
:1012B0009847002800F0D180D9F8000003689B6AA5
:1012C0009847754808F042FC694ED6F84821D6F890
:1012D0004C319A4243D0DFF8D0A102AD17E0D9F8E3
:1012E00000000368544495E80600DB6B984784F8D7
:1012F000188037B1D9F80000036895E806001B6C28
:101300009847D6F84C21D6F848319A4227D0314632
:1013100028460AF083F99DF80B809DF808409DF857
:101320000A70B8F1000FDAD0574815F071FB0AEBDC
:10133000040301221A761CB9564B1B78002B2ED1C0
:10134000D9F80000036895E80600DB6B9847002F8A
:10135000D0D1D6F84C21D6F848319A42D7D19BF853
:101360000930002B34D14D480AF0C4FA4A4808F03D
:10137000F1FBD9F8000003685B6C9847464808F019
:10138000FBFB46480AF03EFC00F06CFD0028FBD158
:1013900001F04AF90028FBD105B0BDE8F08FFFF756
:1013A0000DFBFFF743FC41493B4808F041FC394B3A
:1013B0003A481C702246234621460AF0FBFBD9F826
:1013C00000000368DB68984734480AF019FC98E786
:1013D0002D4815F0C9FAD1E72C4815F03DFC00283E
:1013E0007FF40EAF0FE7D9F80000314A03681B6B9A
:1013F00093423FF469AF03E0D9F800000368DB6A69
:10140000984761E7204815F003FB9BF801009BF823
:101410000030834217D01F4B1B78002B60D1002D6A
:101420007FF44FAF48E71848BDF9066015F0F0FAB1
:10143000184B1B78002B3DD1D9F8000001990368A7
:101440005B6A98471FE7134A1378002BE7D0002305
:101450001370002D7FF435AF2EE70E499BF8003056
:101460000D488BF8013001220A7008F031FB28E7A3
:10147000649DFF1FD0C5FF1FA09CFF1FCC9EFF1FB8
:1014800098C5FF1FE0D7FF1F20C2FF1FD0CDFF1F51
:1014900050C2FF1FF0C3FF1F90CCFF1F8CCDFF1F5A
:1014A000D09EFF1FB89CFF1FF4C3FF1F8C140300C6
:1014B000590400009BF8013006FB04400344062B4E
:1014C000A8BF062323EAE3730E488BF8013008F027
:1014D000FFFA0C4808F076FB0A4808F037FBD2E622
:1014E000FFF74EF917F0B0FA00231A4619460648DE
:1014F0000AF060FB054A03480023137008F0E8FA7D
:10150000DFE600BF90CCFF1F8CCDFF1FF0C3FF1F95
:101510002DE9F04F7C4D7D4C2E687D4F83B040F21D
:10152000EE281FF093FD2378002B00F0BC803B7861
:10153000002B00F0B8800A217648774C1FF08CFC15
:1015400076481CF05DFC17F0A7FB034608202360DB
:101550001DF0AAF921680160714A72494160724B1D
:1015600072491060724C734A734818600C60734B78
:10157000734911607348744A1A6015F049FA1DF0F6
:101580004FFE724B024672481A6015F0F9FA00F0ED
:10159000C3FA0D201CF02AFF1CF04AFC0D201CF0A1
:1015A00025FF29F061F80D201CF0ECFE0121172029
:1015B0001DF0FAFD022100201DF0F6FD654B1B68B1
:1015C0000193002B33DD0025634FDFF89091DFF8A6
:1015D0009081DFF890A14FF0844B2E46387800219F
:1015E0001DF0E2FD38201DF05FF94FF081430361EB
:1015F0000023036201224FF48063436057F8041B09
:1016000080F8246053460275044619F00BF9564BD6
:1016100049F8044B43F825604FF400536360019B85
:1016200048F8046B01359D42C4F810B0D6D14F4B39
:101630004F494FF480521A804E4B40220C201A60C2
:1016400008701DF06FFD002128201DF059FC4A4B49
:101650004A4819781A7907F0FDFB4849484812F0C2
:1016600057F94649474815F061F84449464811F092
:1016700033FF4249454810F0F3FA404944480CF022
:101680008DFBFFF765FDE0B1424808F06DF8414879
:1016900008F058FF40481BF09BFC404803B0BDE8F1
:1016A000F04F0AF0E7BA2B6822789B1B32B1B3F5F2
:1016B000FA6F3FF640AF1FF0C9FC32E74345FAD955
:1016C00039E73749374A384B384D09681268E860BE
:1016D0001960144D9A60364C3649374A09681268C9
:1016E00068602068D9601A61586001232548AB7092
:1016F00014F09EFF314B1878FFF742F8FFF75EF9C0
:10170000FFF794FAC0E700BF2CFEFF1FB0FFFF1FDA
:10171000540100209814030044C2FF1FD894FF1FF7
:1017200048C2FF1FD0C5FF1FE0FFFF1FE4FFFF1FE0
:1017300061090000DCFFFF1FB9090000080000205C
:10174000D505000020C2FF1F69040000CC9EFF1FCA
:10175000D0CDFF1FCC160300A01503002CC5FF1F22
:10176000B89EFF1F6F12833AA49CFF1F989CFF1F17
:101770009A9CFF1F9C9CFF1F8CC5FF1FD49CFF1FC2
:10178000B4C0FF1FA8C1FF1FE0BDFF1F24B3FF1F90
:10179000E89EFF1F90CCFF1F749DFF1F8CCDFF1F85
:1017A000741503007C150300588AFF1FE0D7FF1F44
:1017B0007815030080150300841503008C150300C1
:1017C00070B5354E354C364D86B0304611F0FEFFC3
:1017D0002246344930461FF037FD284613F01CFDE1
:1017E0002846314D3149324E22461FF02DFD284604
:1017F00010F046FE28462F4D2F4922461FF024FDAB
:1018000028460FF08DFB28462C4D2D4922461FF00F
:101810001BFD28460AF06AFC22462A4928461FF08A
:1018200013FD294B29481B680593059B4360284BF2
:10183000836000255023224626490660C560056165
:1018400045610576C3611FF0FFFC234B23481D70E3
:1018500083F84C500B220C2100F08CF829462048CC
:10186000204D00F0FDF8204A20491268096806233F
:101870000393052302931E4B01931E4B00932846AE
:101880001D4B09F07FFE1D492246284606B0BDE8E3
:1018900070401FF0D9BC00BFB4C0FF1F4489FF1FB8
:1018A000A8C1FF1FCD040000E0BDFF1F61040000C0
:1018B000E02C030024B3FF1F7D050000E89EFF1FFE
:1018C0003D050000810400002CFEFF1F20C2FF1F09
:1018D00020BF020065040000D49CFF1FD09EFF1FA4
:1018E000B89CFF1F649DFF1F4889FF1F4C89FF1F85
:1018F0007489FF1FBC8AFF1FC489FF1FFD040000FD
:1019000030B50B4C0B4D0C490C4B85B04FF0FF30F4
:101910000191009020220295802120461AF01CF8A7
:10192000074A0849204605B0BDE830401FF08CBC8E
:1019300050C2FF1F801A060040420F004C92FF1F4A
:101940004489FF1FADB9010030B5094C83B00125B2
:10195000022100952B463C2220461AF077F90221FD
:101960002046257703B0BDE830401AF0A9BC00BF7F
:1019700050C2FF1F70B50B46CEB20446D5B203600D
:101980004260022130461DF00FFC022128461DF066
:101990000BFC30461DF0FAFBA06028461DF0F6FB5C
:1019A0000023E06023616361204670BD30B50446CA
:1019B00083B000781DF0EAFB054620791DF0E6FBB8
:1019C000A368AB42E36820D083422DD0A560E060DD
:1019D000A5B198B12369012B33DD01231F4A60694A
:1019E00012680192019A6261101A00211328216184
:1019F0002ED931288CBF0020012001E00023184699
:101A00009BB243EA004003B030BD8342F6D0236965
:101A1000A56085420CBF01224FF0FF3213442361C1
:101A2000E060002DEAD0D4E72369A560854214BFA9
:101A300001224FF0FF3213442361E060002DDDD01E
:101A4000C7E7013306DB0022134622611046D7E7C1
:101A50000220D5E74FF0FF33C0E700BF2CFEFF1F89
:101A600010B50446322240F2E243C8B22160E2607F
:101A7000A36102211DF098FB00234FF0FF310322E8
:101A80006160A36022746361204610BD10B50446F6
:101A900082B000781DF07AFB636883420AD01C4A4A
:101AA000E36812680092009A60601344A36000200B
:101AB00002B010BD1649A2680968019101998A42D5
:101AC0000ED8227C022A09D00DD8012A08D1ABB940
:101AD00063698B4204D202202074E9E7012B13D002
:101AE000002002B010BD033A012AF9D8002BF7D12B
:101AF000A36901200B4420746361D9E7012BEFD166
:101B00000320207402B010BD04202074D0E700BF71
:101B10002CFEFF1F704700BF10B5124C636D186894
:101B2000036882B0DB6947F6122198470E4A1268B3
:101B300001920199C4F800114FF6FF7200230120B1
:101B4000A266E2660322A4F8580084F85A3063665D
:101B5000236684F8F8306367C4F8FC3084F870209A
:101B600002B010BDBCC2FF1F2CFEFF1FD3B2013B51
:101B700070B51B021446020402F4FE0203F4706303
:101B800013430A0602F0FE421343054643F4104095
:101B900040F009000E461EF0B1FD611EC9B20F29CA
:101BA00017D80C4C636D1868036841F090011B68EE
:101BB0009847636D1868036805F07F011B689847B4
:101BC000636D1868036806F07F011B68BDE870400C
:101BD000184770BDBCC2FF1F013AD2B20F2A1AD8F3
:101BE00070B50D4E736D0446186803680D461B688A
:101BF00042F090019847736D1868036804F07F0104
:101C00001B689847736D1868036805F07F011B68AF
:101C1000BDE8704018477047BCC2FF1FD3B2013BFC
:101C200070B51B021446020402F4FE0203F4706352
:101C300013430A0602F0FE421343054643F40040F4
:101C400040F008000E461EF059FD611EC9B20F2972
:101C500017D80C4C636D1868036841F080011B684D
:101C60009847636D1868036805F07F011B68984703
:101C7000636D1868036806F07F011B68BDE870405B
:101C8000184770BDBCC2FF1F013AD2B20F2A1AD842
:101C900070B50D4E736D0446186803680D461B68D9
:101CA00042F080019847736D1868036804F07F0163
:101CB0001B689847736D1868036805F07F011B68FF
:101CC000BDE8704018477047BCC2FF1FD3B2013B4C
:101CD00070B51B021446020402F4FE0203F47063A2
:101CE00013430A0602F0FE421343054643F4304014
:101CF00040F00B000E461EF001FD611EC9B20F2917
:101D000017D80C4C636D1868036841F0B0011B686C
:101D10009847636D1868036805F07F011B68984752
:101D2000636D1868036806F07F011B68BDE87040AA
:101D3000184770BDBCC2FF1F013AD2B20F2A1AD891
:101D400070B50D4E736D0446186803680D461B6828
:101D500042F0B0019847736D1868036804F07F0182
:101D60001B689847736D1868036805F07F011B684E
:101D7000BDE8704018477047BCC2FF1FCBB2013BA3
:101D800002041B0202F4FE0203F47063134370B5F5
:101D9000054643F440400C4640F00C001EF0AEFCFB
:101DA000611EC9B20F2910D8084C636D186803680A
:101DB00041F0C0011B689847636D1868036805F01F
:101DC0007F011B68BDE87040184770BDBCC2FF1F93
:101DD0000B460146184612B100221EF0DFBC1EF071
:101DE00025BD00BF10B54FF60F001EF087FC044B59
:101DF0005B6D18680368BDE810401B68F821184740
:101E0000BCC2FF1F10B54FF60F201EF077FC044B2D
:101E10005B6D18680368BDE810401B68FA2118471D
:101E2000BCC2FF1F10B54FF60F301EF067FC044B0D
:101E30005B6D18680368BDE810401B68FB211847FC
:101E4000BCC2FF1F10B54FF60F401EF057FC044BED
:101E50005B6D18680368BDE810401B68FC211847DB
:101E6000BCC2FF1F08B500201EF062FD003818BF7D
:101E7000012008BD2DE9F041E0299DF818C00C466D
:101E8000054622D80CF1FF31C9B20F291FD8200610
:101E90001DD51F466B6D1868036821431B681646E5
:101EA00098476B6D1868036806F07F011B6804F0A3
:101EB000EF049847C02C0AD06B6D07F07F011868BB
:101EC0000368BDE8F0411B681847F72901D8BDE851
:101ED000F0810834E4B2DD23E340DB07F7D5436D3E
:101EE000EDE700BF036810B504460BB174309847A6
:101EF00094F87530803B7F2B44D8DFE803F04043F3
:101F00004343434343434343434343434343C14323
:101F10004343434343434343434343434343BD4317
:101F20004343434343434343434343434343B14313
:101F30004343434343434343434343434343AD4307
:101F40004343434343434343434343434343A34301
:101F500043434343434343434343434343438F4305
:101F60004343434343434343434343434343827EC7
:101F70006E66434362435E5A56524E434A44A368D8
:101F8000002B70D110BD236D002BFBD0BDE810409D
:101F90001847E36C002BF9D1F4E7A36C002BF5D1C3
:101FA000F0E7636C002BF1D1ECE7E36B002BEDD194
:101FB000E8E7236C002BE9D1E4E7A36B002BE5D124
:101FC000E0E7636B002BE1D1DCE7236B002BD9D07A
:101FD00094F87600BDE810401847E26A002AD1D094
:101FE00094F8773094F87600DB0103F47E5300F028
:101FF0007F00BDE8104018431047A36A002BE7D1CB
:10200000C0E7636A002BBDD0B4F87610802904F1D4
:10201000780028BF8021BDE810401847226A002AB6
:10202000B0D094F8771094F8763094F87400C90121
:1020300001F47E5103F07F031943BDE81040A1F580
:1020400000511047E369002B9CD094F8761094F867
:102050007400BDE810401847A369002BF5D191E743
:102060006369002B8ED094F8772094F8761094F85A
:102070007400BDE8104018472369002BF3D181E7B5
:10208000E368002BEFD17DE738B5436D044618684F
:1020900003681B699847002800F0CA8094F80D3146
:1020A000626D23F0010384F80D31106803685B69E9
:1020B0009847C3B2FD2B00F0BB80626E002A40F04F
:1020C000B98094F9591094F8592084F85B300029AC
:1020D00080F2128102F10C01C9B2012940F20C8197
:1020E000FD2A00F00981EF2A94BF02F0F0011146A9
:1020F000B02904D040F23A81E02940F0F88040B2A3
:102100000028C0F24081012184F85C3084F85B2013
:1021100061661346EF2B94BF03F0F00C9C46ACF1C4
:1021200080027F2A00F2EB80DFE812F08301E900F1
:10213000E900E900E900E900E900E900E900E90057
:10214000E900E900E900E900E900E9008301E900AC
:10215000E900E900E900E900E900E900E900E90037
:10216000E900E900E900E900E900E9008301E9008C
:10217000E900E900E900E900E900E900E900E90017
:10218000E900E900E900E900E900E9008301E9006C
:10219000E900E900E900E900E900E900E900E900F7
:1021A000E900E900E900E900E900E900A001E9002F
:1021B000E900E900E900E900E900E900E900E900D7
:1021C000E900E900E900E900E900E900A001E9000F
:1021D000E900E900E900E900E900E900E900E900B7
:1021E000E900E900E900E900E900E9008301E9000C
:1021F000E900E900E900E900E900E900E900E90097
:10220000E900E900E900E900E900E900A401A00112
:102210008301A001E900E9007601A40176017601BD
:10222000760176017601E900760176010132626677
:10223000002038BD010671D494F85B10F02900F03D
:102240009E80F72900F09B80A11881F85B30216EF9
:102250004B1E9A42EAD394F85B20F02A00F0A78044
:10226000F72A00F0A480130640F1188102F10C0354
:10227000DBB2012B40F21281FD2A00F00F81EF2A20
:1022800094BF02F0F0031346B02B84F8753004D0ED
:1022900000F20F81A02B40F0068102F00F00013008
:1022A000032984F874004FF0000194F85C0084F86E
:1022B0007600616608BF94F85D00216618BF0020B3
:1022C0000121B02B84F8770084F8F81000F0E28048
:1022D00000F2D980A02B00F0DD8003F0EF03802B0B
:1022E00000F0D880002384F85930012038BD01F077
:1022F000EF01C0293FF403AF40B2002843DB94F95B
:102300000D01636840F0010084F80D0103B19847A6
:10231000002084F859006066206638BDA3F1F00102
:102320000F2989D801A050F821F000BFE123000057
:102330003922000039220000392200003922000031
:102340003922000039220000E1230000952300001B
:10235000952300009523000095230000952300009D
:10236000392200009523000095230000A0293FF4A6
:10237000C6AE01F0EF0180293FF4C1AEBCE7A11861
:1023800081F8783063E703F10C02D2B2012A3FF6FC
:10239000C1AEB4E700220120A4F8762084F87420AE
:1023A00084F87530C4F8FC0084F8F80038BDF021DA
:1023B00080220123434894F8F7506067C4F8FC205A
:1023C00084F8F830204684F8F710FFF78BFDF722E9
:1023D000022384F8782084F879506366002038BDA1
:1023E00094F87810F02901D0F72988D104EB020C79
:1023F000002101324FF470458CF878300120A4F8A8
:102400007620A4F8745084F85910C4F8FC2084F89D
:10241000F8006166216638BD0023012084F874301D
:10242000A4F8763084F875C084F8F80063662366F3
:1024300038BD032222660221626E8A42FFF4F6AEA4
:10244000012003F00F03002294F85C1084F876104A
:10245000034484F8743084F8772084F875C0C4F895
:10246000FC006266226684F8F80038BD022222660B
:102470000121E1E780210022216684F8592084F8B7
:1024800078C07F21D8E7E02B04D003F0EF03C02B06
:102490007FF428AF84F85920012038BD002384F848
:1024A00075300020FCE603F0EF0080283FF4F5AE25
:1024B000F7E7E02B3FF4F1AE03F0EF00C0283FF464
:1024C000ECAEEEE700F0800090F87030DA0718D537
:1024D00013F0FE0F15D0F0B590F875C08CF08002A7
:1024E000602A83B004460DD890F874508D4252D0C3
:1024F000002950D05B08012B54D0032B73D003B0BC
:10250000F0BD7047BCF1F10F1BD90CF10E02D2B235
:102510000123934043F2507213422BD00CF1080375
:10252000DBB2072BEBD8DD2222FA03F3DB07E6D57B
:10253000436D6146186803681B6803B0BDE8F0404E
:102540001847BCF1F00F37D0BCF1F10FD7D1436D74
:1025500090F87650186894F877302D0103F00F0347
:1025600005F070051D43036861461B689847636D5D
:102570002946DFE7DA073FD4BCF1F30FBFD1436D43
:1025800094F876501868036861461B689847636D35
:1025900005F07F01CEE7C3F346037F3303F07F03EB
:1025A000012BACD894F8773094F8762000956146EA
:1025B0002046FFF75FFCA2E7B0F87630802B1F467D
:1025C00028BF8027002B9AD000F17706636D18682A
:1025D0003546036816F8011F1B68763D2D1B98478A
:1025E000AF42F3D88BE794F8773094F876200095D3
:1025F0006146FFF73FFC82E7436D90F8772018684B
:1026000094F876500368F2211B6845EAC215984792
:10261000636D1868036805F07F011B689847636D58
:10262000C5F3C61186E700BF70B5164D95F8586022
:10263000102E02D90024204670BD2846FFF724FD45
:1026400004460028F6D095F87530902B0CD083F016
:102650008003602B0ED90B48FFF744FC0948314634
:10266000FFF732FF204670BD95F8773013B980230D
:1026700085F8753095F87430B342ECD0002EEAD06E
:102680000024EBE7BCC2FF1F38B5204A204C21498B
:102690001160002503204FF6FF736265294684F818
:1026A0007000802204F17800A366E366256065600F
:1026B000A560E56025616561A561E56125626562EA
:1026C000A562E56225636563A563E56325646564CA
:1026D000A564E5642565A4F8585084F85A50256629
:1026E00065666567C4F8F85028F014FF2046C4F802
:1026F0000051C4F80451C4F80851A4F80C51064A1A
:102700000649BDE838401EF09FBD00BFB8C2FF1F9C
:10271000BCC2FF1FC493FF1F4489FF1F151B00008D
:1027200038B5054D05F1700420461BF00BFCAC429A
:10273000A4F11004F8D138BDF0C5FF1FF8B5504C16
:10274000504D514E214628461BF038FC28464F4D2F
:102750004F4932461EF078FD214628461BF02EFCDC
:10276000214605F110001BF029FC214605F120004F
:102770001BF024FC214605F130001BF01FFC214614
:1027800005F140001BF01AFC214605F150001BF03A
:1027900015FC214605F160001BF010FC214605F1F7
:1027A00070001BF00BFC32463A493B4D3B4E00207B
:1027B0001EF04AFD3A4818F0EDFC3A493A4B3B4AC4
:1027C00009685965002464205C619C61DC621C64BA
:1027D0009C65DC65DC611C625C629C621C635C6302
:1027E0009C63DC635C649C64DC641C65C5E9000478
:1027F0006861148094701481AC60EC602C741B22AE
:10280000214605F118006C2728F084FE3A4631462F
:1028100005F134001BF0F8FE3A46314605F1A00000
:102820001BF0F2FE224A234B13600121C5F8181158
:10283000A5F8281141F28831536051611E4B1F49A0
:10284000C5F80C4185F81041C5F8144185F81C41C4
:10285000C5F82041C5F8244185F830414FF0FF35D7
:102860004D601C731C605C609C601C615C630C6050
:102870000C81CC725C619C61DC611C62F8BD00BFA4
:10288000A4140300E0C5FF1F4489FF1FF0C5FF1F0C
:1028900045DF010021270000F4C3FF1F08150300D6
:1028A000ECC3FF1F588AFF1F2CC5FF1FD0C5FF1F99
:1028B000CCC3FF1F0000F04298C5FF1F8CC5FF1F4F
:1028C0002DE9F843064690F8224096F8218000F161
:1028D000500500AF20220021284628F01BFE002CC6
:1028E00044D006F15103611E53FA81F12A460023B8
:1028F00001204344DBB29C4202D81B1B1070DBB2A8
:1029000001328A42F5D104F1070808F4FC73E94664
:10291000ADEB030D04F15003694633440DF1FF3272
:1029200013F8010D02F8010F9D42F9D12246284605
:102930001BF06AFE96F82060CD4608F4FC78ADEBFB
:10294000080DA61BF6B269460DEB040C6A46761A12
:10295000B318B3FBF4F004FB1033EB5C02F8013B5B
:102960009445F5D1224628461BF04EFEBD46BDE8F3
:10297000F88300BF4FF0805370B50362124B43627F
:1029800001238362114B83630025202200234FF033
:102990007E560446C2620263426303640570C660E9
:1029A000457580F83C50294645648564C5645030BF
:1029B00028F0B0FD2046FFF783FF25616560A66023
:1029C0002575204670BD00BF01640001100404009D
:1029D000054B0022DB6A80F83B2001210261017572
:1029E000036343638364704798C5FF1F0346002257
:1029F00002481A755A8506F003BD00BF08C7FF1FBD
:102A0000007D7047C1618261837570472DE9F04F89
:102A100089B08769DDF84890DDF8548016469E46F7
:102A20009DF850209DF84C3000930192002F41D02A
:102A3000224B234DD3F818B0012304468A4680F870
:102A40002A300FCD0DF10C0CACE80F00009B8DF877
:102A500014302B68019ACCF8003058468DF81520B8
:102A60008DF80FE08DF80CA08DF80D60CDF810906A
:102A7000CDF8188026F0DCF8494626F031F90546F5
:102A8000404626F0D5F80146284626F021F826F0E3
:102A900029FB08ABE06413E9070012AB83E80700E9
:102AA00003ABE569A17D0CCB3846AC4609B0BDE867
:102AB000F04F604709B0BDE8F08F00BFCCC3FF1FE7
:102AC000D016030041757047407D704790F82A008A
:102AD000704700BF90F82B00704700BF90F8393066
:102AE000054A80F839108B4252F8212082601CBFC1
:102AF000012380F829307047388AFF1F90F8390089
:102B0000704700BF90F83A30054A80F83A108B427F
:102B100052F82120C2601CBF012380F82930704781
:102B2000388AFF1F90F83A00704700BF90F82030B5
:102B300080F820108B421CBF012380F82930704799
:102B400090F82000704700BF90F8213080F82110E5
:102B50008B421CBF012380F82930704790F8210078
:102B6000704700BF90F8223080F822108B421CBFC3
:102B7000012380F82930704790F82200704700BF89
:102B800080F82310704700BF90F82300704700BF03
:102B900080F82410704700BF90F82400704700BFF1
:102BA00080F82510704700BF90F82500704700BFDF
:102BB00080F82610704700BF90F82600704700BFCD
:102BC00080F82710704700BF90F82700704700BFBB
:102BD00080F82810704700BF90F83C00704700BF95
:102BE0005030704770B591F83A2091F839C091F89B
:102BF0002040057891F821E091F82260D2000CF095
:102C0000070C02F0380264F3050542EA0C0290F862
:102C10000AC04478057085782CF03F0C42EA0C021B
:102C20006EF3050491F824C090F803E0447066F355
:102C300005050479857091F8235082720CF1FF3CF0
:102C40006CF3030465F3060E90F805C091F8255067
:102C5000047165F3060C847991F8265091F82720C9
:102C600080F803E065F3060484714C7D04720C78EF
:102C700091F8281080F805C002F00F0242EA041211
:102C80004172C27170BD00BF10B584B004AC04E9DC
:102C90000E0004469DF808209DF804009DF805C02C
:102CA0009DF80B109DF80E30C0F30500C2F303022F
:102CB00084F8200001329DF8090084F82420CCF328
:102CC000050284F82120C0F306009DF8062084F850
:102CD00025009DF80A00C2F3050284F82220C0F303
:102CE00006009DF8072084F82600C1F3030041F395
:102CF00003112170C2F306029DF80C1084F8232002
:102D000084F82700134A6175C3F3020003F007013A
:102D100084F839009DF80D0052F8211084F828003D
:102D2000C3F3C20084F83A00A16052F82010E160B9
:102D30000023012284F82920236184F83B301CF011
:102D40006FFA20631CF06CFA60631CF069FAA064EF
:102D500004B010BD388AFF1F2DE9F041444B90F8B4
:102D60002720444F90F8266053F82280FD6A84B0F3
:102D7000044676B390F83B30DB072AD4622E3BD86A
:102D80003D4BD86925F054FFA16825F0A9FF3B4BC6
:102D900007461B683A4880FB0320DB17C3EBA00003
:102DA00025F04AFF0146384626F04EF807463046E1
:102DB00025F042FF0146384625F092FF0646284698
:102DC00025F036FF0146304625F082FE26F08AF9CE
:102DD0000546002303950293012194F8253094F8C9
:102DE00023200191CDF8008094F824102046FFF7AD
:102DF0000DFE04B0BDE8F081632EEAD127F03CFC63
:102E00001D4B0546D86925F013FFA16825F068FF22
:102E10001A4B06461B681A4880FB0320DB17C3EBDE
:102E2000A00025F009FF0146304626F00DF8154AAE
:102E300082FB05322A44EB17C3EBA21303EB4302D8
:102E4000C3EB4213ED1A01350646E8B225F0F4FE55
:102E50000146304625F044FF0546F86A25F0E8FEB5
:102E60000146284625F034FE26F03CF90546B0E739
:102E7000CC15030098C5FF1FCCC3FF1F9C15030092
:102E8000ABAAAA2A859176AC90F829302DE9F041B9
:102E9000002504460F46164680F82B50002B42D1E1
:102EA000237D002B39D094F82A302BB1E36CBB4240
:102EB0009CBF002384F82A3094F822507DB3D4F8C4
:102EC0003080B84529D894F82830C4F834800122DD
:102ED00084F82B2063BB304625F0AAFEA16825F0BC
:102EE000FFFE26F0FFF894F83B20606408EB000337
:102EF0002363A31893F850300BB1637D1BB30023F9
:102F000084F82A30531C84F83C20B3FBF5F205FB0F
:102F1000123384F83B3003B9A764BDE8F081002385
:102F20002364BDE8F081FFF7CBFC84F82950B7E7B4
:102F30003001B0FBF5F025F07BFEE16825F0D0FE16
:102F400026F0D0F8CFE72046FFF706FF94F822508E
:102F500025B984F83B5084F83C50DEE794F83B20D8
:102F6000D0E700BFC0B2C9B288422CBF0020012008
:102F7000704700BF0720704700487047E416030001
:102F800000487047E8160300FF207047FF2380F8D1
:102F9000BD307047704700BF436C826CB0F8AE1014
:102FA00090F8B2C0934218BF8364426D036D9342A0
:102FB00018BF4365026EC36D934218BF0366C26EAD
:102FC000836E00B59342B0F8B02018BFC36621F4F9
:102FD000F85122F47F6221F01F0122F00F02FF233B
:102FE000A0F8AE10A0F8B0206FF3040C00224FF64A
:102FF000817E0121A0F8C0E080F8B2C080F83630B0
:1030000080F8BC1080F8EC2080F8E92080F8EA20F5
:1030100080F8F23080F8063180F81A3180F82E31CD
:1030200080F8423180F8563180F86A3180F87E317C
:103030005DF804FB82B002AB03E9060002B0704702
:103040002DE9F0418CB00E460746154603AB07A9A3
:103050001A786FF3030203F8012B8B42F8D197F82B
:103060002C3097F82D2097F831E097F8321097F828
:103070002EC003F07F0343EA022397F830200EF0BE
:103080003F0E42EA0E2297F88CE001F07F0142EAFF
:1030900001420EF00F0E01990CF0070842EA0E6291
:1030A00097F82FE043EA0843CCF3C30C0EF07F0EF1
:1030B00043EACC4301F0803143EA0E6321F400413E
:1030C0000B43019397F89D301649C3F3030C029B01
:1030D00019400A4302929DF81C206CF3030207F189
:1030E0008D018DF81C2003A810221BF08DFA07F12A
:1030F0009E0110220DF11D001BF086FA01ACA6EB1B
:1031000004080DF12D072B6804EB080114F8012BBE
:103110005B6828469847BC42F5D106F129000CB0FF
:10312000BDE8F08100C080F008B5083014F094F8D4
:103130000328D4BF0020012008BD00BF2DE9F047BF
:103140008AB06C4684E806009DF802609DF803A0F2
:1031500016B10AB0BDE8F08700F108080446404601
:103160001D469DF8009014F077F80746404614F08D
:1031700093F81DB194F9BD30002B29DBBAF1000F93
:1031800019D03B1FDBB2012BE3D894F9BD30002BE3
:103190006DDBB9F1000FDCD0B9F10A0F6BDC042F45
:1031A00000F0D38009F1FF32234452B283F89E200D
:1031B00084F8BF20CDE7B9F10A0FCADD94F9BD301C
:1031C000A9F10B099945C4D1FF2384F8BD30C0E7AC
:1031D000012D00F08280022D62D0032DB9D13B1F5A
:1031E000DBB2012BB5D8BAF1000FB2D0B9F10A0F9A
:1031F000AFDD042F00F0D48027F03EFA714A82FB45
:103200000021C217C2EB610202EB4202A0EB820373
:1032100004EB09025BB284F8BF3082F89330A9F165
:103220000B0149B2404614F03BF8674906A81AF072
:10323000C5FE0A22A9F10A0102A81AF0EBFE02A9B2
:1032400006A81AF09BFF014604F1D4001AF018FFFB
:1032500002A81AF077FE06A81AF074FE5B4B5C48D1
:10326000C4F8E4300AB0BDE8F04706F06FBCB9F12D
:103270000A0F7FF76EAF10284CD0042F04EB090320
:1032800053D093F8933084F8BF30A9F10B094FFA6B
:1032900089F94946404614F003F884F8BD9058E790
:1032A0003B1FDBB2012B3FF654AFBAF1000F3FF4E6
:1032B00050AFB9F10A0F7FF74CAF042F04EB0903AD
:1032C00065D094F8BF2083F89320A9F10B0149B28F
:1032D000404613F0E5FF3F49A8E73B1FDBB2012B57
:1032E0003FF637AFBAF1000F3FF433AFB9F10A0F31
:1032F0007FF72FAF042F04EB09033FD083F89360CF
:1033000084F8BF60A9F10B0149B2404613F0C8FF31
:1033100031498BE7042F0FD094F89D30A9F10B09A8
:1033200069F3030384F89D304EE793F88230C3F3CA
:10333000030384F8BE30A8E794F88C30A9F10B0998
:1033400069F3030384F88C303EE7234409F1FF322C
:1033500093F88D10D2B262F30301204483F88D10EC
:1033600084F8BE2090F88D301C4A03F00F0304F15E
:10337000D40052F823101AF0A1FE6FE793F88220D0
:1033800066F3030283F8822084F8BE60BAE793F8FC
:10339000822094F8BE1061F3030283F8822094E740
:1033A00027F06AF90E2304EB090290FBF3F101FB0D
:1033B000130384F8BE3092F8821063F3030182F89D
:1033C00082102CE7ABAAAA2A0017030020A107004D
:1033D00090CCFF1FF4160300EC160300D88AFF1FE1
:1033E0002DE9F84F00F1080705467D480E4608F024
:1033F000CFFB8046384613F02FFF0446384613F0C3
:103400004BFF95F9BD30002B07465BDB042C04D045
:10341000052C00F0C380BDE8F88FDFF8C8A1DFF805
:10342000C8B1B8F1000F14BFD1464FF00009012414
:10343000002601E095F9BD302B44214693F88D30EC
:1034400003F00F03B34218BF21464A4658461CBF3B
:1034500052465846013619F09FFF01340A2EA4B295
:10346000E8D1DFF884A1DFF88491614E00241EE0EA
:1034700095F88C3003F00F039C4215DC2B1904F1F6
:103480000B0193F88D3013F00F0389B215D0012B87
:1034900058D0022B5CD0032B0CBF4FF47F024FF0AF
:1034A000FF12504619F078FF0134102CB3D0BC4203
:1034B000DED1B8F1000FF7D1DAE73246504619F005
:1034C0006BFFF1E7032E59D0012E46D0494A4648FA
:1034D000012119F061FF022E4FF6807203D1B8F17D
:1034E000000F18BF00224048022119F055FF042C9C
:1034F000B7D0052C8FD1DFF8F0B0DFF8FCA00B2699
:10350000002405F19E0917E095F89D3003F00F03A4
:10351000A3420BDB19F90430002B29D0C7BF524658
:10352000314631462022584619F036FF0134013623
:10353000102CB6B23FF46FAFA742E5D1B8F1000F3F
:10354000F4D1E1E74FF48012504619F025FFABE7C4
:103550004A46504619F020FFA6E7B8F1000F37D0D1
:1035600000222148314619F017FF4FF68072BAE762
:10357000FF223146584619F00FFFD7E7B8F1000F88
:1035800014BF00264D2632461748012119F004FFCA
:1035900015483246022119F0FFFEA8E7114EDFF868
:1035A0004890164C002101E095F9BD302B4401F103
:1035B000010A93F99E308B4222461FFA8AF1B8BF66
:1035C0003246484619F0E8FE51460A29ECD192E706
:1035D000084A0548314619F0DFFE4FF6807282E74F
:1035E0008CCDFF1F10101000A8CDFF1F0010800011
:1035F0000080FF00FFFF8000FF808000D0D0D0005F
:103600002DE9F043044600F10805A3B028460F4613
:1036100013F022FED4F8E430002B064600F3988025
:10362000002F48D1042800F0E680052800F08481AE
:10363000AE4F384606F036FA002E00F09980012E83
:1036400000F04C82022E00F01D81032E18D194F858
:103650002E3094F83320A6493960C3F3C3030133F5
:1036600002F07F027B6194F835303A61FB6194F897
:103670003420A04BBA61BB609F4AA04B7A60FB60CC
:10368000284613F01DFE0646284613F0E5FD0246C7
:103690002846154613F000FE23680746DB6C2046DB
:1036A00098473B4600902A469048314607F090FAEA
:1036B00023B0BDE8F083031FDBB2012BB8D8012F84
:1036C00000F09180022F00F0E382032F00F0E882E7
:1036D000042E00F08F808A4B94F89D201B68894946
:1036E000C2F30302002B08BF0B4601322846129397
:1036F000D6B213F0D1FD002804F19E08C0F2F38089
:103700000F28A8BF0F20C7B2284613F0D9FD0346E3
:1037100028461D4613F0A0FD23688146DB6C204639
:10372000984701240894069401940A2312AC05904A
:1037300000936E48CDF81090039502976FF009033F
:1037400032464146079406F0C1FC23B0BDE8F08341
:103750006B4804F1D4011AF093FC042E4AD0052ED4
:10376000B9D0624F384606F09DF9002E7FF467AF5E
:1037700094F82D306448654A3A6003F00706DB0888
:1037800050F826007862624894F82E2050F82330D2
:10379000BB6202F007025F4B94F82C1053F8223002
:1037A000FB62012387F837305B4B7B605B4BBB6070
:1037B0005B4BFB6001F07F010EA81AF013FC0EA911
:1037C00012A81AF0A1FB574912A81AF0DFFC014613
:1037D00007F168001AF054FC12A81AF0B3FB0EA807
:1037E0001AF0B0FB4CE7504945481AF067FC042E2C
:1037F0007FF471AF01274D4E11A80023E218013369
:1038000092F88D2002F00F02102B56F8222040F87B
:10381000042FF3D1002F00F0FC80394B394A1B688C
:1038200094F88C60002B08BF134628460E9313F0C3
:1038300033FDC6F3030601360028F6B2C0F28281DA
:103840000F28A8BF0F20C7B2284613F039FD034642
:1038500028461D4613F000FD23688046DB6C204699
:1038600098470124059403940EAC0290CDE90058CA
:103870001E4804943B46324612A907F07DFA23B055
:10388000BDE8F08394F83110294B3B6041F305010A
:1038900049B20123002987F83430C0F2CA81254992
:1038A0000EA81AF08BFB94F8311041F305010A229F
:1038B00049B20AA81AF0AEFB0AA90EA81AF05EFCDB
:1038C000014612A81AF020FB12A907F138001AF0DD
:1038D000DFFB12A81AF036FB0AA81AF033FB0EA879
:1038E0001AF030FBCCE600270EE700BF90CCFF1F9C
:1038F000A8170300B4170300AC170300BC1703009C
:10390000F0C5FF1F54900300C48AFF1F5C1703001B
:103910009C8BFF1F108BFF1F6417030068170300A9
:1039200070170300781703000C170300208BFF1F8C
:103930009C170300A41703000DF14808C349C44FA6
:1039400040461AF03BFB94F89D1001F00F010A224B
:1039500001310EA81AF05EFB0EA940461AF00EFCCB
:10396000014638461AF08CFB0EA81AF0EBFA4046D6
:103970001AF0E8FA284613F08FFC0F2840F3E48091
:10398000B44907F110001AF099FBB34907F1200080
:103990001AF094FBB1493B6894F89D60002B08BF76
:1039A0000B4612933A693B6A002A08BF0A46002B6D
:1039B00008BF0B4628461392149313F06DFC07467C
:1039C000284613F07DFC034628461D4613F044FCB0
:1039D00023688146DB6C20469847C6F3030604F152
:1039E0009E0101360124F6B2FFB20A230694019427
:1039F0000324059000939A48CDF81C80CDF81090D0
:103A0000039502976FF009033246089406F05EFBB7
:103A10004EE60DF138088D498D4F40461AF0CEFA2A
:103A200094F88C1001F00F010A2201310AA81AF053
:103A3000F1FA0AA940461AF0A1FB014638461AF0ED
:103A40001FFB0AA81AF07EFA40461AF07BFA2846B5
:103A500013F022FC0F2840F3B0807E4907F11000DC
:103A60001AF02CFB7F4907F120001AF027FB7B4955
:103A70003B6894F88C60002B08BF0B460E933A69A4
:103A80003B6A002A08BF0A46002B08BF0B4628469F
:103A90000F92109313F000FC0746284613F010FC19
:103AA000034628461D4613F0D7FB23688146DB6C8E
:103AB00020469847C6F3030603240136F6B2059460
:103AC00001240290CDE900596548CDF81080FBB281
:103AD000324612A9039407F04FF9E9E5624B6349B6
:103AE0003B6087F8346012A81AF068FA94F8303016
:103AF0005F4A03F00F030EA8D15C1AF073FA0EA907
:103B000012A81AF03BFB014607F138001AF0B8FA88
:103B10000EA81AF017FA12A81AF014FA94F8303016
:103B2000544A5549106879601B0901337B61534B36
:103B3000BB6094F83230BB61514BFB6025F0ACFAAE
:103B4000F8619DE500277FE64E4940461AF036FAB7
:103B5000284613F0A1FB0A22411C0EA81AF05AFABB
:103B60000EA940461AF00AFB014607F110001AF0B0
:103B700087FA0EA81AF0E6F940461AF0E3F942492E
:103B800040461AF01BFA284613F086FB23180A2237
:103B900093F99E100EA81AF03DFA0EA940461AF0AD
:103BA000EDFA014607F120001AF06AFA0EA81AF0A1
:103BB000C9F940461AF0C6F9ECE6324940461AF017
:103BC000FDF9284613F068FB0A22411C0AA81AF0E6
:103BD00021FA0AA940461AF0D1FA014607F110006D
:103BE0001AF04EFA0AA81AF0ADF940461AF0AAF9EE
:103BF000264940461AF0E2F9284613F04DFB2318F7
:103C00000AA893F88D3003F00F0356F823101AF02A
:103C1000D5F90AA940461AF0B1FA014607F1200089
:103C20001AF02EFA0AA81AF08DF940461AF08AF90D
:103C30001DE70A2212A81AF0EDF912A907F13800BF
:103C40001AF026FA12A81AF07DF919E524170300D4
:103C5000F0C5FF1F3C1703005417030054900300E6
:103C600090CCFF1F441703007C1703008417030048
:103C7000BC150300CCC3FF1F881703009017030077
:103C8000981703002C1703004C1703003417030088
:103C9000064907481AF012FA042E7FF41CADA9E574
:103CA000044903481AF00AFA12E500BF141703008A
:103CB000F0C5FF1F1C1703002DE9F041254D90F8BA
:103CC0002EE00446D6B298460F460FCD88B00DF1CF
:103CD0000C0CACE80F00CEF3C30E2B68CCF8003010
:103CE0000EF1010E94F832008DF80CE08DF80F8083
:103CF0008DF80D608DF80E6024F09AFF164924F0BF
:103D0000EFFF4FF083410546D4F8D00024F0E8FFE0
:103D10000146284624F0E4FF054694F8B50024F057
:103D200087FF0146284624F0DBFF069708AB0246D2
:103D300013E90300A38EADF814308DE8030020686A
:103D4000049203ABD0F884500ECB2046A84708B0AD
:103D5000BDE8F081C81903000AD7233C10B5184B01
:103D6000044640F8D43B1AF0EDF8D4F8800020B1B6
:103D7000D4F88810091A1AF09BFD606F18B1E16F32
:103D8000091A1AF095FDA06E18B1216F091A1AF0E0
:103D90008FFDE06D18B1616E091A1AF089FD206D72
:103DA00018B1A16D091A1AF083FD606C18B1E16CAD
:103DB000091A1AF07DFD204602F090FF204610BD42
:103DC000E419030010B51B4B044640F8D43B1AF02D
:103DD000B9F8D4F8800020B1D4F88810091A1AF084
:103DE00067FD606F18B1E16F091A1AF061FDA06EEE
:103DF00018B1216F091A1AF05BFDE06D18B1616E00
:103E0000091A1AF055FD206D18B1A16D091A1AF0A2
:103E10004FFD606C18B1E16C091A1AF049FD20469B
:103E200002F05CFF20464FF4C8711AF041FD2046B5
:103E300010BD00BFE419030090F84120002310B525
:103E4000044680F8373080F840302AB1184A536B66
:103E5000013B002B536326DD626CA16C00238A4278
:103E600018BFA26484F84130626D84F8373084F85A
:103E70003830236D934218BF6365226EE36D934221
:103E800018BF2366E26EA36E934218BFE366D4F8B0
:103E90008420D4F88030934218BFC4F88430FF23C4
:103EA00084F8BD3010BD034812F0D2FED4E700BF45
:103EB00098C5FF1FD0CDFF1FF8B5044600238349E6
:103EC000A3604FF080705A2223732160A38684F888
:103ED000373084F83830A4F840306364A364E36476
:103EE00023656365A365E36523666366A366E3668E
:103EF00023676367A367E367C4F88030C4F884303E
:103F0000C4F88830606084F8322004F18D032546BF
:103F100004F19D011A786FF3030203F8012B994213
:103F2000F8D1202300264FF07E52C4F8C430C4F8E4
:103F3000C8300127FF23C4F8D02084F8BD303146B3
:103F400084F8B570C4F8CC6004F1D4001AF036F8E7
:103F50005F4BC4F8F03040F201120023A4F8F820BF
:103F6000C4F8E460C4F8F430C4F8FC60A4F800615C
:103F700004F18C01642285F8047185F8056185F8E7
:103F8000066185F80721C5F8083185F80C7185F8B8
:103F90000D71C5F8106185F8146185F81561143547
:103FA000A942E8D1238EE26A94F88C1084F8376035
:103FB00023F47F5323F03F0343F4416343F00603AC
:103FC00002F08032238694F89D3084F8406022F419
:103FD000004242F0640243F00F0341F00F01E2623D
:103FE00084F89D3094F8B22094F8E83084F88C106E
:103FF00094F8411066F30402FF2066F3020384F88C
:10400000BD0084F8B22084F8E83029B1314A536BFE
:10401000013B002B536348DD002384F8413084F8D2
:10402000373084F838302046FEF7B6FF04F1080533
:104030000421284612F0D0FF0421284612F0CCFFBC
:104040000421284612F0C8FF0421284612F0C4FFBC
:104050001121284612F0C0FF1121284612F0BCFFA2
:104060000123E3710022A318013293F88D10102A66
:104070006FF3030183F88D10F5D1002104F19E0048
:1040800027F048FAFF2384F8F23084F8063184F8E8
:104090001A3184F82E3184F8423184F8563184F88C
:1040A0006A3184F87E312046F8BD0B4812F0D0FD0D
:1040B00094F82D3084F8416003F00703012B84F855
:1040C000376084F83860B1D8ADE700BFE419030069
:1040D0000100006498C5FF1FD0CDFF1F70B50546D5
:1040E0004FF4C8701AF0E0FB0446FFF7E5FEE26A01
:1040F000E96A238E95F82D6002F0803221F00041AC
:1041000021F0801122F400420A43E2622A8E94F8E0
:104110008C1023F47F53C2F30D0223F03F031343AB
:1041200095F88C202386C2F3030262F3030195F80D
:104130009D3084F88C1094F89D10C3F3030363F34F
:104140000301102295F8323084F89D1004F18D009F
:1041500005F18D0184F832301AF056FA102205F17B
:104160009E0104F19E001AF04FFA94F82D3003F0EE
:104170000703012B06F007061ED0032B1CD0A3B9A2
:1041800094F84120002384F8373084F840302AB175
:10419000104A536B013B002B536312DD002384F85C
:1041A000413084F8373084F83830012E02D8204668
:1041B000FEF7F2FE204670BDA26C636C9A42F4D109
:1041C000DEE7054812F044FD94F82D6006F007067E
:1041D000E4E700BF98C5FF1FD0CDFF1F10B590F8D2
:1041E000303017491A09013202F003028CB062F331
:1041F0000713044680F8303004A819F0DFFE94F865
:10420000301009090A220131684619F003FF694696
:1042100004A819F0B3FF014608A819F075FE05229D
:1042200008A9084805F04EFE08A819F08BFE68465C
:1042300019F088FE04A819F085FE0CB010BD00BF6F
:10424000C017030090CCFF1F90F82D0010F007005E
:1042500018BF0120704700BF90F82D305A070ABFE1
:1042600090F8E80003F0070000F00700A0F1040058
:10427000B0FA80F04009704790F8300000097047AC
:1042800010B590F82D3001F0070161F3020303F03F
:104290000702012A044680F82D3026D0032A18D0C0
:1042A000A2B994F84120002384F8373084F84030D4
:1042B0002AB1144A536B013B002B53631ADD0023D0
:1042C00084F8413084F8373084F83830012906D931
:1042D00010BD826C436C9A42E3D00129F8D8236860
:1042E00020469B6CBDE810401847426C836C9A4294
:1042F000ECD1D6E7044812F0ABFC94F82D1001F095
:104300000701DCE798C5FF1FD0CDFF1F90F8E8300C
:10431000590704D1012262F3020380F8E83090F8D3
:104320002D305A0705D190F8E81001F00701FFF78A
:10433000A7BF90F8E820C3F3020363F3020280F8FA
:10434000E8200021FFF79CBF90F82D3013F0070202
:1043500010B504460DD190F8E83003F00702042AA6
:1043600029D094F8E830042262F3020384F8E8309C
:1043700010BD042A12D190F8E81001F00703042BB5
:104380000CBF012101F00701FFF77AFF94F8E83034
:10439000042262F3020384F8E830E9E790F8E820A9
:1043A000C3F3020363F30202BDE8104080F8E82083
:1043B0000421FFF765BF012262F3020380F8E830B1
:1043C00010BD00BF2DE9F0438DB088461546074665
:1043D0002922002101A827F09DF801AC0DF12D093B
:1043E000A8EB04062B68A1199B682846984704F897
:1043F000010B4C45F6D1FA6A01983B8E9DF80510E9
:1044000002F0803220F0004020F0801022F40042C0
:104410000243FA62BDF808209DF80A0023F47F5396
:10442000C2F30D0223F03F031343C0F306009DF8CF
:104430000B2087F8320097F88C003B86C2F303020A
:104440009DF81C3062F3030097F89D2087F88C00DC
:10445000C3F3030363F30302384687F89D2001F09A
:104460000701FFF70DFF97F82D3097F8E800C3F329
:10447000020363F3020003A987F8E800102207F1A2
:104480008D001AF0C1F810220DF11D0107F19E00F8
:104490001AF0BAF808F129000DB0BDE8F08300BFAA
:1044A00010B50446184812F0D7FB98B1174B184ABC
:1044B0001968C4F8C410536BC4F8C8104FF0010C4D
:1044C0000020634484F8370084F841C084F8380041
:1044D000536310BD0C4812F07DFB0B4812F0B0FB8B
:1044E0000C4B9869000124F0A3FBD4F8D01024F001
:1044F000F7FB24F0F7FD064A044B116BC4F8CC001F
:10450000C4F8C4101960D6E7D0CDFF1F70C6FF1FD6
:1045100098C5FF1FCCC3FF1F90F84130D3B970B5C9
:1045200090F83750044605B170BD012680F8376019
:10453000A0F8EC501AF074FE84F8B050E06384F8F0
:10454000E950074884F8EA5012F086FB18B984F85D
:10455000376070BD70472046BDE87040FFF7A0BFD0
:10456000D0CDFF1F174B1A7812B990F8411001B93E
:104570007047B0F8B010B0F8AEC080F8EC2021F46D
:104580007F6121F00F012CF4F85CA0F8B01090F8D6
:10459000B21080F8E9202CF01F0C62F30401A0F89F
:1045A000AEC04FF6817C80F8B210A0F8C0C00121E7
:1045B0004FF0FF0C80F836C080F8BC1080F8EA207D
:1045C000FFF7AABFD0C5FF1F90F8373003B9704777
:1045D00010B50446044812F03FFB00B910BD204658
:1045E000BDE81040FFF75CBFD0CDFF1F2DE9F043C1
:1045F000836F476FA3EB0708B8F1010F23DD90F934
:10460000EA60C46D90F9B09046440546006E96FB92
:10461000F8F308FB1366001BB64617F80EC0A0B1EE
:1046200000231A4603E0CBB283421A460DD2A25CA5
:10463000624503F10101F6D1994695F9E9304B4500
:1046400018BF85F8B090BDE8F08395F8BC304BB149
:104650000EF1010EBEF1000FEFDBC645EDDAB645F7
:10466000DBD1EAE70EF1FF3EF4E700BF2DE9F041B0
:1046700090F8AEC00CF01F0C00EB0C03044693F84E
:104680008D3003F00F03032B0D4640D05A1E0C2A29
:1046900000F21481DFE812F09F009F001201A300D6
:1046A000C2000D0044008A008A008A008A008A0045
:1046B0008A00834B94F88C10DE6A01F00F010131FF
:1046C0000CF1010C0122BCFBF1F301FB13C32344E9
:1046D000501C93F88D3003F00F03022B0CF1010CEA
:1046E00002D1C2B2102AEED1236E84F8B520E26D59
:1046F0009B1A012B00F29B802846062310F17F0FA6
:1047000069D084F8C230A4F8C000BDE8F08190F907
:10471000C220062ACDD0072A18BFB0F9C000EDD1BB
:10472000674B94F88C10D3F82C8001F00F01013105
:104730000CF1010C0122BCFBF1F301FB13C3234478
:10474000501C93F88D3003F00F03022B0CF1010C79
:1047500002D1C2B2102AEED1E66D276E84F8B520E0
:10476000B7421FD094F8AF2094F8B13002F01F0286
:10477000224403F00F0392F99E5016F8012B03EB2D
:10478000430305EB83051544ABB27F2B2A46E7D8DC
:1047900094F83330414603F07F032046FFF78CFA4C
:1047A000B742DFD1072384F8C23031E090F82D10F2
:1047B00001F00501A3F108020129D2B206D0006D73
:1047C000616D091A8A4206D2805C9AE7406CA16C3E
:1047D000091A8A42F8D36FF07E00BDE8F08190F8A4
:1047E000AF3090F8B31003F01F0303440C3993F972
:1047F0009E200A4493B27F2B154609D8304A94F87C
:104800003330D16A03F07F032A462046FFF754FA7B
:10481000A4F8C0506FF07E00BDE8F08190F8AF3092
:1048200090F8B41003F01F0303440C31DFE794F851
:10483000AF1094F8B13094F8B32001F01F01214477
:1048400003F00F0303EB4303980002EB830391F99A
:104850009E201A4492B294F833307F2A03F07F03EB
:1048600014D83146204612B2FFF726FA94F8B10068
:1048700094F8AF1094F8333000F00F0000EB4000D4
:1048800001F01F01800003F07F03214491F99E2075
:1048900094F8B4100844024492B27F2A04D812B2A9
:1048A00031462046FFF708FA06224FF6817384F856
:1048B000C220A4F8C0306FF07E0026E728461DE72E
:1048C00098C5FF1F2DE9F04F07684468384BE51B7A
:1048D0009346AD10374A03FB05F5954283B064D08B
:1048E000012D2B4638BF0123ED1806468A4659D2C2
:1048F000CB1B002D46D14FF00C09A8469BE80700C2
:104900004344BA4583E807001CD008F10C0C3B4631
:1049100093E807000C3353450CE907000CF10C0C2D
:10492000F6D1AAF10C09244BA9EB07094FEA990922
:1049300003FB09F929F0404909F1020909EB49098A
:1049400008EB8909A24511D0A4EB0A021A4B0C3AD4
:10495000920803FB02F222F04042013202EB4202D3
:10496000920048465146914419F04EFE27B1B16875
:104970003846C91B19F09CFFC6E90089B56003B031
:10498000BDE8F08F954228BF154605EB4505AD0003
:104990002846019319F088FF019B8046054400F1E9
:1049A0000C09ABE7054DCB1BF2E705481CF07AFC80
:1049B000ABAAAAAAAAAAAA0AABAAAA2AF8FFFF7FA8
:1049C000CC1703002DE9F04F44688668B44283B0E9
:1049D00005460F4606D00B7804F8013B446003B04F
:1049E000BDE8F08FD0F800A06FF00042A4EB0A0BF6
:1049F00093453DD0BBF1010FD84638BF4FF00108B9
:104A00001BEB080332D22BBB9846C14601233A78F0
:104A100009F80B2054450BD009F1FF32534613F827
:104A200001CB02F801CF9C42F9D10BF101034B44B9
:104A3000BAF1000F06D0A6EB0A015046019319F017
:104A400037FF019BC5F800906B60C5F8088003B084
:104A5000BDE8F08F934228BF13469846404619F0B0
:104A600023FFAE6881468044431CD0E79046F5E7BB
:104A700001481CF017FC00BFCC170300426838B592
:104A80000C4601318A42054604D0521A204626F0CF
:104A9000C5FC696801396960204638BD2DE9F04FD1
:104AA000D0E9007883B00C46A8EB07036FF0004113
:104AB0008B42019243D0012B1A4638BF01229D1828
:104AC000064638D2A4EB070A55BB4FF0010BA946A6
:104AD000019BBC421A7809F80A200CD009F1FF3C6E
:104AE0003B4613F801EB0CF801EFA342F9D10AF1B0
:104AF000010309EB030B444506D0A8EB040258461A
:104B00002146934419F080FD27B1B1683846C91B8E
:104B100019F0CEFEC6E9009BB56003B0BDE8F08F8A
:104B20008D4228BF0D46284619F0BEFE8146054439
:104B300000F1010BCCE70D46A4EB070AF3E70148AF
:104B40001CF0B0FBCC170300884236D02DE9F84F9B
:104B5000461C8E4281468A4617460AD124E0B6EBAF
:104B6000090214F8015B21D1A24589F800502646BC
:104B70001AD099F800103078B84734460028EED1A2
:104B800014F801B93546D84603E014F8013905F8A0
:104B9000013921784046B8470028F6D1741CA24557
:104BA00085F800B02646E4D1BDE8F88FC2F10100D7
:104BB0003044494626F032FCD6E770472DE9F04FE5
:104BC000994683B0531E03EBD3730192B1EB630F8D
:104BD0004FEA63020C9F00928846044640DA8B46F7
:104BE00000E0AB460BF10106750005F1FF3A14F841
:104BF000160014F80A10B84704EB0A01002804EB69
:104C000046061CBF0E465546337804F80B30009B11
:104C10009D42E6DB019BDA0728D505F1FF3A0AEB56
:104C2000DA7A45454FEA6A0A07DC14E014F80A30DC
:104C30006355D04555460EDA924614F80A004946A7
:104C4000B8470AF1FF3202EBD272521004EB0A06A7
:104C50000028EBD1661986F8009003B0BDE8F08F0C
:104C6000019BDB0700EB0106F5D40D46019BA3F188
:104C7000020B0BEBDB7BB5EB6B0FCED16D0001357F
:104C8000635D33706619C8E72DE9F04F0F1A102FD6
:104C900083B074DD054691461E46002A4FD08846F3
:104CA00005F1010AA8EB050404EBD47464109AF82A
:104CB0000000295DB04709F1FF3918F8011C08F11F
:104CC000FF37002832D0285DB04700285AD02B7813
:104CD0002A5D2A702B554746D4469CF80000297857
:104CE0006446B04704F1010C0028F6D107F1FF3B00
:104CF0005F4628781BF80119B0470028F8D1BC425C
:104D000006D2A44623783A780CF8012B3B70E4E7EE
:104D100033464A4641462046671BFFF7B5FF102F32
:104D20002DDDB9F1000F0BD0A046BBE79AF80000CB
:104D3000B047A0B32B786A782A706B70CBE70C462B
:104D4000A7F1020805EB680808F10108A8EB0501C6
:104D500018F8013D00963A4601392846FFF72EFF24
:104D6000A845F3D114F8013D2A782270671B0096FC
:104D70003A4600212846FFF721FF012FF2DC03B05D
:104D8000BDE8F08F39789AF80000B0472B780028FA
:104D9000D1D018F8012C2A7008F8013C9BE739782B
:104DA000285DB0472B780028F3D12A5D2A702B5557
:104DB00091E700BF2DE9F04F036EC56DAB4290F84F
:104DC0002D3018BF056603F00502012A85B00446A0
:104DD00000F15C0600F08B80076DD0F854804745E9
:104DE00042D103F0F803802B2F4653D0BD4200F090
:104DF000FB81A5EB0708B8FA88F2C2F11F02AE4B9F
:104E0000520029463846FFF73FFFB8F1100F40F334
:104E1000138207F11008A84A41463846FFF794FE6E
:104E2000A84500F00E826B1E07F10F0A019357464A
:104E30001AF801BFD946554602E005F80189013F3D
:104E400097F8008048464146FEF78CF80028F4D1D8
:104E5000019B85F800B05345E9D1F2E1D3B205F8E2
:104E6000013BB84525660ED0636E17F8012B8DF80F
:104E70000C20AB42F2D1294603AA3046FFF70EFEC2
:104E8000B845256EF0D194F82D30E76D03F0F803A6
:104E9000802BABD1BD4200F0A781ED1B3B7884F89D
:104EA000B330013D7A5D93423D443AD094F82D30C1
:104EB00084F8B42003F0F802482A3BD0A2F1500154
:104EC000C9B2102900F28F807C4820FA01F1C9078D
:104ED00000F1A98103F0F002302A00F0288103F0EC
:104EE000C803082B00F0BA8005B0BDE8F08F476C0E
:104EF000D0F84880B84506D173E7D3B205F8013B36
:104F00002566B845BFD0636E17F8012B8DF80C20CD
:104F1000AB42F2D1294603AA3046FFF7BFFD256E0A
:104F2000EFE70C3384F8B43094F82D3003F0F80236
:104F3000482AC3D1D4F86880E36E434504F1680978
:104F400000F08281C4F86C802B788DF80830582AE4
:104F500000F05781602A00F0548100252B46FB5C4D
:104F60009DF808208DF80C309342414610D0236FF5
:104F7000434500F0518101F8012BE16699428846D2
:104F800000F043819DF80C3008F8013BC4F86C80B8
:104F9000216EE76D0135EDB2CA1B95422B46DED37B
:104FA000A56E454500F05481B9420AD027664545B3
:104FB00006D114E0C2B203F8012BA84523660ED037
:104FC000216E626E15F8010B8DF80C0091420B46B4
:104FD000F0D103AA3046FFF761FDA845F0D194F85F
:104FE0002D3003F0F802782A40F09A80E36EA56E27
:104FF000226E9D42E36D18BFE566D71A002F04F1BB
:10500000680874DD00250BE09DF80C3000F8013BCA
:10501000E06601353046EDB2FFF730FDBD4263DAA0
:1050200025F02AFBE36D226ED4F86CC0D21AB0FBD7
:10503000F2F101FB1209226F13F809108DF80C1020
:105040009445604603EB0901DED1614603AA404660
:10505000FFF724FDE36D03EB0901DAE7A76EE36ECA
:10506000E56DD4F860809F4218BFE766A84504F15B
:105070006809394606D119E0D3B201F8013BA845C9
:10508000E1660DD0236F15F8012B8DF80C208B42B3
:10509000F2D103AA4846FFF701FDA845E16EF1D120
:1050A000E36D226EA76E934218BF2366CD1B013DB0
:1050B0006DB2002D0DDA17E7652F00000101010028
:1050C0007A5D03F8012B2366013D2B063FF50CAFFB
:1050D000A76E216E606E81420B4607EB0502EFD191
:1050E0003046FFF7DBFCEFE7A56EE36D226EE76E5F
:1050F000934218BF2366AF420ED0216E626E15F840
:10510000010B8DF80C0091420B4675D0C2B203F82A
:10511000012BAF422366F0D194F82D3003F0F80252
:1051200003F0F001302902D0402A7FF4D8AE216E7E
:10513000E06DA56EE36E0A1A02F1FF399D425FFA37
:1051400089F904F1680A18BFE5662F4682B3002585
:10515000A84611E0C4465FFA83F8236FBB4200EB18
:105160000C0218D010F80C3007F8013B0135EDB2F5
:105170000B1A9D42E7661AD215F0010F08F10103E0
:10518000E8D009F1FF33CC465FFA83F9236FBB42C5
:1051900000EB0C02E6D139465046FFF77FFCE06D8C
:1051A000216EE76E0135EDB20B1A9D42E4D3A56E78
:1051B000884218BF2066AF420ED0216E626E15F88D
:1051C000010B8DF80C0091420B4608D0C2B203F8D7
:1051D000012BAF422366F0D194F82D307FE603AA6D
:1051E0003046FFF75BFCE6E7812384F8B33084F8B0
:1051F000B43005B0BDE8F08F03AA3046FFF74EFC8F
:1052000079E73B788DF80830A7E603AA4846FFF710
:1052100045FCD4F86C80BBE602AA4846FFF73EFC8A
:10522000E16E236FAAE6D4F86880E36E984504F136
:1052300068097FF487AE87E6124A29463846FFF7A9
:1052400083FC256EE76D25E62B788DF8083084E623
:10525000236F43450AD09DF8083008F8013BA56E3E
:10526000C4F86C808F427FF4A1AEA0E6414602AA4A
:105270004846FFF713FCE76D216EA56ED4F86C80ED
:10528000F0E700BF652F000090F82D200D49D308EE
:10529000013310B50446A1FB030101F0300000EB1F
:1052A00011115B1A63F3C702074984F82D200748E0
:1052B00051F8231004F0BCFC2046BDE81040FFF775
:1052C00079BD00BFF1F0F0F0588BFF1F90CCFF1FAD
:1052D00084B02DE9F04182B009AD85E80E0090F868
:1052E00041509DF827609DF82C809DF82D70044654
:1052F000002D7FD0A36C616C99424FF0000500F047
:10530000A68094F82E2002F00702012A31D05B1A01
:10531000072B9DF8256059D9636D226D9B1A072BC9
:1053200060D92046FFF746FD75B994F838300BB1C7
:1053300084F8385094F83730002B00F0C98002B060
:10534000BDE8F04104B07047236EE06D94F838205A
:1053500094F8B01084F8EA101B1A84F8EB30002A95
:10536000EDD0002384F8383002B0BDE8F04104B03D
:105370007047B4F8AE0084F8BC2020F4F85020F058
:105380001F00A4F8AE00B4F8B000154620F47F6208
:1053900022F00F02A4F8B02094F8B2206FF30402B8
:1053A00084F8B2204FF68172A4F8C0205B1AFF2265
:1053B00084F83620072B4FF000029DF8256084F812
:1053C000EC2084F8E92084F8EA20A5D801A904F1AA
:1053D00044008DF80460FFF7F5FA636D226D9B1AA7
:1053E000072B9ED801A904F150008DF80460FFF747
:1053F000E9FA96E7FFF790F8B4F8AE30616C84F8FC
:10540000EC5023F4F85323F01F03A4F8AE30B4F8A3
:10541000B03084F8E95023F47F6323F00F03A4F83D
:10542000B03094F8B23084F8EA5065F3040384F89D
:10543000B2304FF68173A4F8C030FF2384F83630C1
:10544000A36C0125994284F8BC507FF45AAFB4F89C
:10545000AE20206D84F8348022F4F85222F01F022E
:10546000A4F8AE20B4F8B02084F8357022F47F623E
:1054700022F00F02A4F8B02094F8B2206FF30402D7
:1054800084F8B2204FF68172A4F8C020FF2284F87D
:10549000362094F8332066F30602666D84F83320D4
:1054A00001250022B04284F8BC5084F8EC2084F836
:1054B000E92084F8EA203FF42AAF9DF82560606572
:1054C00001A904F144008DF80460FFF77BFA84E73A
:1054D000204602B0BDE8F04104B0FFF787B800BF36
:1054E00084B070B505AD85E80E00416C836C9DF805
:1054F00015509942044610D000F1440603E0A36C15
:1055000001318B4209D00B78AB42F8D13046FFF71E
:10551000B5FAA36C01468B42F5D12046FFF74AFC51
:1055200094F82D3003F00503012B07D0A26C636CB7
:105530009A4207D1BDE8704004B07047A26C636C1A
:10554000934205D02046BDE8704004B0FFF74EB846
:1055500094F84100002184F8371084F8401050B1CD
:105560000948416B01390029416304DC074811F007
:105570006FFBA26C636C002184F8411084F8371033
:1055800084F83810D4E700BF98C5FF1FD0CDFF1FA7
:1055900084B02DE9F04F89B013AE86E80E009DF877
:1055A0005C309DF84C809DF84E90DDF850A09DF841
:1055B0005D200746CBB116AB93E803008DE80300EE
:1055C0004AB996E80E003846FFF782FE09B0BDE8FA
:1055D000F04F04B0704796E80E003846FFF780FFA2
:1055E00009B0BDE8F04F04B07047D0F88420D0F87F
:1055F00080E00392A2EB0E02542A35D84F494FEABD
:10560000A20B01FB0BFB05AD002A53D01A4605ADDA
:1056100001E05B454ED202EB42020EEB820494E8BD
:10562000070085E807008DF84C800599BDF84CC04F
:105630000133C1F30F21DBB28C451A46E9D1404B4F
:10564000D3F818B03F4BD86A23F0F2FA0546584613
:1056500023F0EEFA514623F043FB0146284623F09F
:1056600037FA23F03FFDA0603B4607F1A000FF247E
:1056700093F8F220FF2A07D093F8F010414503D1A8
:10568000914508BF83F8F24014339842F0D116AB2D
:1056900093E803003B688DF84C80D3F884408DE894
:1056A0000300384696E80E00A04709B0BDE8F04F69
:1056B00004B07047224B8DF81490D3F81890214B0A
:1056C0008DF81580D86A9DF84D308DF816309DF80C
:1056D00054308DF817309DF855308DF81830002370
:1056E0008DF8193023F0A4FA0446484623F0A0FAB6
:1056F000514623F0F5FA0146204623F0E9F923F05C
:10570000F1FCD7F88830039C07909C420FD095E8B5
:10571000070004F10C0384E80700C7F8843016ABD7
:1057200093E803008DF84C808DE8030049E7039966
:105730002A4607F18000FFF7C5F8F0E7ABAAAAAA4E
:10574000CCC3FF1F98C5FF1F84B02DE9F04F83B075
:105750000DAE86E80E009DF845509DF834909DF8FA
:1057600035B09DF836A007469DB3044600F1A00869
:10577000002102E01434A04525D094F8F230FF2B2C
:10578000F8D094F8F0204A45F4D15345F2D18DF881
:10579000455010AB93E8030094F8F1B08DF83490C5
:1057A0008DE803008DF836A08DF835B096E80E0030
:1057B0003846FFF7EDFE4FF0FF3384F8F230143433
:1057C000A0452946D9D1F9B103B0BDE8F04F04B0E6
:1057D00070470346143393F8DE20FF2A08D00135C2
:1057E000082DF1D093F8F220FF2A03F11403F6D12B
:1057F00005EB850507EB850510AB85F8F09085F87E
:10580000F2A085F8F1B008E08DF845508DF834909D
:1058100010AB8DF835B08DF836A093E803008DE815
:105820000300384696E80E00FFF7B2FE03B0BDE86D
:10583000F04F04B0704700BF84B070B582B007ACC1
:1058400084E80E0090F82D305B07054624D090F8D0
:105850002C3003F07F03642B09D0EBB1642018F0E7
:10586000EDFA95F82C3003F07F03984214D89DF898
:105870002C3013B99DF82D30FBB10AAB93E803002F
:105880008DE80300284694E80E00FFF75DFF02B0A4
:10589000BDE8704004B070470AAB93E803002E687F
:1058A0008DE80300284694E80E00D6F88440A0470F
:1058B00002B0BDE8704004B070470AAB93E8030043
:1058C0008DE80300284694E80E00FFF761FEEFE73D
:1058D0002DE9F043036EC16D8B4283B0A3EB01054C
:1058E00000F01381DFF8208390F8EC30D8F82C70AA
:1058F0000446002B40F00C8190F9B0301A4694F821
:105900002D0084F8E9306F2884F8EB504FEAD0037B
:1059100000F24A81052B00F23D81032B40F21F81EA
:1059200094F8BC30002B00F07181954200F3668141
:10593000002384F8BC3094F8B1306A1E03F00F03E2
:10594000AE1E1DE016F4A85640F00B810D2B40F062
:10595000058224F091FE94F9B03090FBF5F2AB4251
:1059600002FB1502C0F2008284F8B06094F8B11016
:1059700001268B1903F00F0363F3030184F8B110C0
:1059800094F83010B3EB111F0CD994F82D0094F853
:10599000B13000F006006FF30303022884F8B13041
:1059A00000F0F88194F8B230C3F30401013161F3DF
:1059B0000403002AE16D84F8B23004DB6B1E9A42C6
:1059C000D4BF8918C918097884F836102046FEF724
:1059D0004DFE94F8AEE094F88C800EF01F0E0EF1A0
:1059E000010E08F00F0808F1010C72460121B2FB0C
:1059F000FCF30CFB1323234401F1010993F88D30D0
:105A000003F00F03022B02F1010203D15FFA89F1C7
:105A10001029ECD110F17F0F84F8B51028D094F83C
:105A2000AF3094F8B11003F01F03234401F00F01CD
:105A300093F99E2094F8313043F305035BB201FBE8
:105A40000322024492B27F2A12D894F8333012B261
:105A5000394603F07F032046FEF72EF994F8AEE0B6
:105A600094F88C800EF01F0E08F00F080EF1010E56
:105A700094F8AE300EF01F0E6EF30403C64584F8A2
:105A8000AE3000F3F28094F8AF305A1C02F01F02DF
:105A900062F3040384F8AF3094F89D3003F00F03F1
:105AA00093420CDA94F82E3003F00703032B00F036
:105AB000FB8094F8AF306FF3040384F8AF3076B214
:105AC000731993FBF5F205FB123384F8B0605BB2F7
:105AD000626FA16FE56D276E84F8EA308A4204F1A7
