:1000000000800020BD010000BD0500007505000056
:1000100075050000750500007505000075050000F8
:10002000750500007505000075050000BD050000A0
:10003000BD0500007505000015150000191500002C
:10004000BD050000BD050000BD050000BD050000A8
:10005000BD050000BD050000BD050000BD05000098
:10006000BD050000BD050000BD050000BD05000088
:10007000BD050000BD050000BD050000BD05000078
:10008000BD050000BD050000BD050000BD05000068
:10009000BD050000BD050000BD050000BD05000058
:1000A000BD050000BD050000BD050000BD05000048
:1000B000BD050000BD050000BD050000BD05000038
:1000C000BD050000BD050000BD050000BD05000028
:1000D000BD050000BD050000BD050000BD05000018
:1000E000BD050000BD050000BD050000BD05000008
:1000F000BD050000BD050000BD050000BD050000F8
:10010000BD050000BD050000BD050000BD050000E7
:10011000BD050000BD050000BD050000BD050000D7
:10012000BD050000BD050000BD050000BD050000C7
:10013000BD050000BD050000BD050000BD050000B7
:10014000BD050000BD050000BD050000BD050000A7
:10015000BD050000BD050000BD050000BD05000097
:10016000BD05000031090000BD050000BD0500000F
:10017000BD050000BD050000BD050000BD05000077
:10018000BD050000BD050000BD050000BD05000067
:10019000BD050000BD050000BD050000BD05000057
:1001A000BD050000BD050000BD050000BD05000047
:1001B000BD050000BD050000BD050000564B4CF21A
:1001C000205210B51A804DF628121A8000BF00BFC9
:1001D00000F0F8F9514B4FF010621A60504A9A60E3
:1001E000504ADA60504A136813F4807304D14F49BF
:1001F0000B604FF4A85313604D4B1A78110703D5C9
:100200001A7842F008021A704A4B4B492A221A7097
:100210004A4A4B4B8B4204D252F8040F43F8040B6A
:10022000F8E7484B484900228B4202D243F8042B9E
:10023000FAE74649464A002352F8230041F82300D2
:1002400001336F2BF8D1434B434A802103F8011B44
:100250009342FBD1414B3D4A1A60414B8A221A70AE
:10026000A3F5805324225A70A0221A709A7992071B
:10027000FCD59A79D406FCD43A4A937903F00C035E
:10028000082B384BF9D103221A7140225A719A79FE
:100290009006FCD5334A9179324B4906FBD5324A58
:1002A000324911600221516020221A709A7902F0BD
:1002B0000C020C2AFAD12E4B2E4A1A602E4B2F4AD2
:1002C0001A6000225A60072243F8042C2C4AC3F813
:1002D0000C2D62B600F006FA144B1B68DA0705D540
:1002E000284800F099F9284B284A1A60284B1B78B7
:1002F0005B0609D5244C254B22689A4204D121483B
:1003000000F08AF90023236001F066FA00F060F93A
:1003100001F00AF9FEE700BF0E20054030800440DE
:10032000823F04000100002B10D0034014D0034092
:1003300002D0074000E007405891FF1FAC1A0000B0
:10034000308CFF1F5891FF1FC492FF1F0082FF1FB8
:100350000000000000E400E05FE400E008ED00E0E1
:100360000050064000400640448004400000030165
:1003700004800440C010050014E000E0FF76010096
:100380000000202002D19A601CE00340A5C3945ACB
:1003900000F00740FFFFFFFFFFFFFFFFFFFFFFFF32
:1003A000FFFFFFFFFFFFFFFFFFFFFFFFFFFFFFFF5D
:1003B000FFFFFFFFFFFFFFFFFFFFFFFFFFFFFFFF4D
:1003C000FFFFFFFFFFFFFFFFFFFFFFFFFFFFFFFF3D
:1003D000FFFFFFFFFFFFFFFFFFFFFFFFFFFFFFFF2D
:1003E000FFFFFFFFFFFFFFFFFFFFFFFFFFFFFFFF1D
:1003F000FFFFFFFFFFFFFFFFFFFFFFFFFFFFFFFF0D
:10040000FFFFFFFFFFFFFFFFFFFFFFFFDEF9FFFF23
:1004100010B5054C237833B9044B13B10448AFF33E
:1004200000800123237010BD5891FF1F00000000C1
:10043000B01A0000084B10B51BB108490848AFF3CB
:1004400000800848036803B910BD074B002BFBD0A0
:10045000BDE81040184700BF000000005C91FF1F7E
:10046000B01A00005891FF1F0000000010B50024D2
:1004700020460021013400F055F8B4F5006FF7D1A3
:1004800001210D20BDE8104000F0D8B8704700BF32
:1004900000F000B8F0B51B4B1B4E596818689A68FD
:1004A000DB6885B06C460FC4337899071DD5174AB1
:1004B000174C1378174913F0700318BF1370164ABE
:1004C000164B8027177000263320032226706D46B6
:1004D00008701A7072B6043C45F001052046A84722
:1004E00062B6237813F0700309D10D4B064901E081
:1004F000013B02D00A78D207FAD505B0F0BD2370CF
:1005000005B0F0BD141900000100024000000240D7
:10051000040002400B000240070002400A000240B3
:10052000410D0300B0F5006F17D238B50F4B1B78A3
:10053000DA070D46044611D504F1A0500378AB420A
:100540000AD00B4A137813F0700318BF1370074AD0
:1005500005701378DB07FCD538BD7047FFF79AFFAD
:1005600004F1A0500378AB42EBD1F5E70100024063
:100570000000024008B5104C08E0236859050DD46E
:1005800023681A050FD42368DB0411D423685803A9
:10059000F3D500F0CDF923685905F1D500F00EF838
:1005A00023681A05EFD500F009F82368DB04EDD5C0
:1005B00000F004F8EAE700BF3480044008B5FFF714
:1005C000D9FF00BF014B10221A8070470020054060
:1005D000704700BF10B40F4B53F8302092F88042A0
:1005E0002CB1012369B182F8803010BC704703EB55
:1005F000C0035B681A6841B922F002021A6010BC9D
:10060000704782F8003110BC704742F003021A6054
:1006100010BC70472419000030B4054B054D064C42
:10062000002210211A602A602060196030BC7047D7
:1006300014D0034004D0034000D00340212801D847
:10064000FFF7C8BF704700BF2DE9F843054672B6F3
:10065000204F214B214A1B683C68126862B6520148
:1006600002D5322B88BF013495B3C3F5BB331C4E82
:10067000DFF86490DFF86480FF334FF47A72A6FBF2
:10068000031302FB04F404EB931472B6D9F80010C0
:100690003A68D8F800E062B6C1F5BB33FF33A6FB79
:1006A00003031EF0806FC4EB93134FF47A7002D0F3
:1006B000322988BF013200FB0233B3F57A7F04D3BD
:1006C000013D05D004F57A74DFE700F035FFDCE783
:1006D000BDE8F8837491FF1F18E000E004ED00E02E
:1006E000ABAAAAAAF8B52D4B2D49DFF8D0E0DFF868
:1006F000D0C02C4E2C4D2D4C2D4A2E4F4FF40000C7
:1007000018604FF0807018604FF0007018604FF064
:10071000806018604FF00060186000200860282397
:100720004BF6FF71CCF80010CEF800303360136048
:100730002B6023603B60B3629362092245F8242C4E
:10074000C4F8D80F05F57F65C7F8D41F07F5FF2754
:1007500007F5FA67C6F8F83F2B6006F5FF26C4F8E0
:10076000D42F05F5FD2504F5FF24386006F2F47654
:100770001148316005F5FF6504F5FD642B602360C9
:10078000026000F04FFF1920FFF75EFF00F0B6FD9A
:1007900040F21310BDE8F840FFF756BF08E100E053
:1007A0000480034014800340248003402C800340D5
:1007B0001C8003403480034000800B400C800340C9
:1007C0000880034030B472B6334A13781B0706D54D
:1007D000324B196A002943D0996A00294ED05378C8
:1007E0001D0706D52D4B196C00294DD0996C002999
:1007F00046D093781C0706D5284B196E002945D0A2
:10080000996E00293ED0D378190707D5234BD3F82A
:10081000801000293ED0D3F8881091B113791B07BE
:1008200008D51E4BD3F8A020002A31D0D3F8A82039
:1008300015243AB162B61A4B00221A7030BC00F08F
:10084000D9BD11241649174D0A7843F8345003EBEB
:10085000C4030830013A58600A7062B630BC704771
:1008600004220F4C104D217843F8325003EBC203A1
:1008700008304A1E5860227062B6EFE70524E1E7AF
:100880000924DFE70D24DDE70822EAE70C22E8E788
:100890001422E6E71022E4E7341A00000080FF1F6C
:1008A0005D92FF1FC800400088004000431E042BDB
:1008B0001DD81B4A400140F0100030B4104472B6FD
:1008C000184CE25C032A1BD8DFE802F0021215176D
:1008D00003220D88E25410F0080F14BFC8238823A8
:1008E00043EA054308310360416062B630BC70479B
:1008F00008300222EDE70522EBE708300422E8E7A2
:10090000094A52F8230038B1084A52F823004160DE
:1009100042F8231062B6E9E742F82310034AF7E7EA
:100920000080FF1F6C92FF1F2C92FF1F4092FF1F41
:100930002DE9F04FDFF814B3DFF814A387B044E0DB
:10094000AD4F4FEA930807EBC809013ED9F80420E0
:1009500003F00803F6B2A2F1080003F0FF04002B35
:1009600040F0028157F838301B0C99B222F8081C6D
:10097000002B00F0F080A14B22F8064C42F8044C0A
:1009800053F82620002A00F06C819D4D55F8263042
:1009900058609C4C45F8260034F81630194424F869
:1009A000161000F007FD002800F05481964A974B7E
:1009B00019F0080F00F1080018BF1346C9F8040029
:1009C00047F8383008238BF800309BF80040E4B239
:1009D00060071DD58E4B1B78BBB18E490A7802F09B
:1009E000FF032AB1013BDBB20B70002B00F07484D3
:1009F00089490A7802F0FF032AB1013BDBB20B7090
:100A0000002B00F0F58000F01BFD04238BF8003074
:100A100004F0080303F0FF02002B00F0D2809AF8E4
:100A20000030DBB21E098BD19C08DFF8CC9159F85D
:100A3000342009EBC401C2F38302013A49680C2A4D
:100A40007AD8DFE802F07D7D79797979797943790F
:100A5000797907000868714D6B4B4A68704F49F807
:100A6000343081B26F4E6A6040F2816400222860A7
:100A7000A1424FF001003A60C9F81020C9F81820CF
:100A8000307000F2F280B1F5D06F80F03E83B1F5A6
:100A9000817F00F0CD8200F24781802900F05882EA
:100AA000822940F08982A98801F07F01052900F29E
:100AB00083825D4B5D4C89000B44227062701A7812
:100AC000930740F13E832070022045E2544F3A687C
:100AD00042B3574B534E5749188834780D78402805
:100AE000864645F0020828BF4FF0400E002C84F0E7
:100AF00001043470CEEB00000CBF8824C82409EB3D
:100B0000C80680B285F0010544EA0E447260188080
:100B100049F8384072440D7018B9BEF1400F18BF43
:100B200000223A603D4B1A88B2F5A06F04D1002133
:100B30009A785970404B1A70404A0123137041E76C
:100B4000364A158842F22100854200F059812E4A2A
:100B500049F83420F0E72C4A2C4B19F0080F18BF45
:100B6000134647F838302DE700F044FC344A354945
:100B700052F82630002B00F0348158688C5D42F822
:100B8000260003F10802C9F80420032C05D8DFE889
:100B900004F0120F150204228A551A8819F0080F62
:100BA0000CBF8823C82343EA024347F8383009E7DB
:100BB00002228A55F1E703228A55EEE705228A557B
:100BC000EBE7E00700F15B81210600F18581A207D8
:100BD00006D51D4A1D4913780220DBB21370087038
:100BE000E30602D5194B10221A7007B0BDE8F08F4A
:100BF00000F04AFC07E700BF0080FF1FD491FF1FF1
:100C00007C91FF1FAC92FF1FC8004000880040008D
:100C10006892FF1FE991FF1F7892FF1F5492FF1FF8
:100C20007891FF1FE891FF1FC02007406092FF1FCF
:100C30009091FF1F5C92FF1F98200740942007406F
:100C40002C92FF1F6C92FF1F8820074080200740D6
:100C500090200740A54A47F83800137801331370F5
:100C6000B0E643F82600A24D93E642F22104A142E9
:100C700000F0B38000F2F080B1F5086F00F08881D9
:100C8000B1F5106F40F098819A4A9B4CA978117089
:100C900004F1A00502E00834A54209D0236A190630
:100CA000F9D5606A0834083800F0A4FBA542F5D1F4
:100CB000924C934A934994488D4D01940023934C50
:100CC00002940596039580461C46049716460D46E9
:100CD000306828B1476800F08DFB3846002FF9D105
:100CE00000233360039B28681A46002342F824300F
:100CF00028B1476800F07EFB3846002FF9D1019BF0
:100D000000221B782A6048F8042B029A4FF0000159
:100D1000023B22F81410032B00F29F81DFE813F04E
:100D2000F0019901F001990140F20232914240F044
:100D30003881A98801F07F01052900F23D816A8888
:100D4000002A40F03981724C019089000C442178CE
:100D500041F0020121700020029080468446044642
:100D60006C490D7845F0020E09EBCE030393019B0D
:100D7000002B039B5C600CBF8824C82448EA040352
:100D800085F0010449F83E3032700C70DFF868E1FC
:100D9000614BDFF88081002840F01581BCF1400FE5
:100DA0001BD144F0020C09EBCC03029CDFF848E1B4
:100DB0005C60002A40F01D81020442F088029DF828
:100DC00004304EF83C20044433700D702346402814
:100DD00003D10020514A3B601080514A0123137017
:100DE000AAE68B5D032B00F21C8101A252F823F0CE
:100DF000C5090000C5090000CD0E0000D30E00009B
:100E0000928892B9474A0D784878157050708D785D
:100E1000C8789570D07010680D79157186284D7955
:100E200089795571917100F0B8803A493A4E0A7843
:100E3000307882F00105002842F002020D700CBFEC
:100E40008821C82149F8321009EBC20280F0010064
:100E50000021307051607AE642F22124A14240F034
:100E6000A780A988002940F06A812F4B2F4A304C77
:100E70001B68AD78136001900A4625706BE71E4B26
:100E8000274824491A614FF0020E80F800E0204FF5
:100E90000A70284919609960274E284D284C9A619C
:100EA0000D213970FF213170DFF8A0E02970227028
:100EB000244D254A8EF800109F27012406F8047C53
:100EC0005D600470DA6007B0BDE8F08F00238B55D9
:100ED00078E501238B5575E50D49184B80220D20CF
:100EE00008701A70A2077FF57BAE72E65D92FF1F55
:100EF0007C91FF1F6892FF1F0080FF1F6C92FF1FF5
:100F0000D491FF1F2C92FF1F4092FF1FAC92FF1F36
:100F1000C02007405C92FF1FE891FF1F9091FF1FC8
:100F200094200740B892FF1F7491FF1FC092FF1FCB
:100F30008492FF1F880040008820074080200740DF
:100F4000982007409491FF1FEC91FF1F8C200740D1
:100F5000B84C022022706270EA88824280F0BD8123
:100F6000B5490D78402A944645F0020E28BF4FF04F
:100F7000400C04EB0C0309EBCE0002930123446008
:100F80004FEA0C48CCEB020001930022C824F5E69E
:100F9000AA4AA84C12782270DEE7A94A0F211170E4
:100FA00043E7B1F5A06F07D1012300220193D2E6F8
:100FB00042F221329142F7D0A24A0F231370A24A83
:100FC00001231370B8E540287FF6EBAE44F002042D
:100FD0000EEBC401029E4E60BAB19DF804109B4A0C
:100FE00019703346403888F8005040334EF83420AA
:100FF000F0E69DF8043033700204029B0D7042F05D
:10100000C80203444EF83C20E1E69DF80410197034
:10101000029B8F4A88F80050403840334EF8342005
:10102000D8E619F0080F0CBF022303238B55C9E43F
:10103000A98801F07F010529BED86A88002ABBD1A2
:10104000804C019089000C44217821F0020121702C
:1010500081E6019B4FF001021A70019B01340133BC
:10106000052C06F1040605F1040501937FF430AE6A
:10107000784C794D2278794B049F059E0021297088
:101080001A70120700F1B58062787549DFF8E081C7
:101090000A7013074FF00001C9F83010C9F8381072
:1010A00000F19280A2786F49DFF8C4810A701007BE
:1010B0004FF00001C9F85010C9F858106ED46A49B1
:1010C000E2780A700021C9F87010C9F87810110789
:1010D000DFF89C814CD422796449654C0A70002168
:1010E0001207C9F89010C9F898102CD433780193DE
:1010F000002183F00102C9F8B010C9F8B8102AE63F
:10110000019B4FF000021A70A7E75A4A5468002C5E
:101110003FF452AF6888B5F804E004E00C3254683C
:10112000002C3FF449AF13888342F7D153887345AD
:10113000F4D1000A03280CBF207810890CE7019035
:1011400009E6022008E700F035F900286CD00830E5
:101150003F4AC4F8A400C4F8A02000F02BF90028EE
:101160005CD00830394AC9F8AC00C9F8A820BDE7FE
:1011700000F020F9002800F085800830344AC8F8D3
:101180008400C8F8802000F015F9002874D00830D9
:101190002E4AC9F88C00C9F888209CE700F00AF9AB
:1011A000002800F087800830294AC8F86400C8F891
:1011B000602000F0FFF8002876D00830234AC9F8F4
:1011C0006C00C9F868207AE700F0F4F8002865D0D0
:1011D00008301F4AC8F84400C8F8402000F0EAF878
:1011E000002855D00830194AC9F84C00C9F84820E1
:1011F00058E700F0DFF8002868D00830144AC9F832
:101200002400C9F8202000F0D5F8002858D0083074
:101210000E4AC9F82C00C9F8282035E72A78C9F801
:10122000A80001322A7061E72A78C4F8A0000132D0
:101230002A7092E76092FF1F5C92FF1F6892FF1F67
:10124000E991FF1FC020074094200740C8004000DC
:1012500088004000341A00005D92FF1FC420074040
:10126000C8200740CC200740D0200740D4200740AA
:101270000080FF1F3C1A00002A78C9F8880001325C
:101280002A7028E72A78C8F8800001322A707AE7A5
:101290002A78C9F8480001322A7003E72A78C8F88A
:1012A000400001322A7099E72A78C9F868000132B3
:1012B0002A7004E72A78C8F8600001322A7078E7BB
:1012C0002A78C9F8280001322A70DDE62A78C9F8A0
:1012D000200001322A7096E700BE4028844628BFCD
:1012E0004FF0400C04EB0C0302930123CCEB000005
:1012F0004FEA0C480022019332E500BF2DE9F84384
:10130000204C00F0FFF9002204F1C00023461A60CF
:101310005A60083383424FF00001F8D11A4A1B4F3C
:1013200013681B4D1B481C4EDFF87880DFF878C02F
:10133000DFF87890DFF878E043F480231360C4F39B
:1013400007233B70C4F307432B70240EFF2302F5E1
:1013500028320470114D88F8003011488CF80030A4
:10136000D4323370012389F8003070268EF80010D3
:101370004FF40074102107F8183C2E7004601170AF
:10138000BDE8F8830080FF1F348004409C200740A4
:10139000B0200740B42007401020074049E400E097
:1013A00008E100E0802007408820074094200740A3
:1013B0000021074072B60D480268B2FA82F31D2B75
:1013C00010DC4FF00041D94022EA0102026062B60F
:1013D000074803EBC303DB00C2180021C1501046CD
:1013E0005160704762B60020704700BF308CFF1F0D
:1013F000BC83FF1F0D4B0E4AC31AA2FB03231B091C
:101400001D2B0CD80B4A127852B972B60A484FF00D
:101410000041026821FA03F31A43026062B6704782
:10142000064A1278002AF0D0FFF7CCB9BC83FF1F20
:10143000398EE3385D92FF1F308CFF1F6892FF1FCB
:1014400038B5084B1C7824B9074D296809B14B8879
:1014500003B938BD9B000B800420FFF727FA2C60EE
:1014600038BD00BF7192FF1F7492FF1F044B054AE5
:101470001B6850881BB11A885B88D31A18447047C0
:101480008092FF1FAC92FF1F38B50E4B1B7873B9CB
:101490000D4C216861B103F0FF054B880B800320E0
:1014A000FFF704FA256038BD084B01221A7038BDD9
:1014B000FFF780FF0028F7D00146BDE83840032041
:1014C000FFF7F4B97992FF1F7C92FF1F7892FF1FFC
:1014D00070B5EFF3108272B60C4C206880B10C4EE0
:1014E00000254369236073B19D6102B962B64577F7
:1014F00083689847EFF3108272B620680028F0D115
:1015000002B962B670BD3360EFE700BF8892FF1F7B
:101510008C92FF1FFFF7DCBF024A13680133136090
:10152000704700BF7491FF1F08B5FEF79FFFFEF7DD
:10153000ADFF00F001F8FAE72DE9F843314E3378BA
:1015400093B1314F3A787AB90122D9073A7036D43B
:101550009A0719D400225B073A7005D52B4B1A68FD
:1015600012B1EFF305820AB1BDE8F883EFF3108101
:1015700072B6186818B1264C2278002A2ED000299D
:10158000F2D162B6BDE8F883DFF8908098F80020C9
:10159000002ADFD0DFF88890002405E0013498F8B5
:1015A0000030E4B2A34212D959F824502B682846DF
:1015B0001B6998470028F1D02B699847EEE7FFF7A1
:1015C00055FFC8B9134B1B781BB93378C0E7337884
:1015D000C0E7337803F0FE033370B9E745691D6057
:1015E000012323705DB1AA6101B962B60025457778
:1015F000836898472570B7E700F0C6F8E2E7064B26
:101600001D60F1E7348CFF1F9992FF1F9492FF1F1A
:101610009892FF1F2E8DFF1F9092FF1FA892FF1F11
:101620009C92FF1F30B42948294A2A4B2A4D602436
:10163000E121047011701B78284C082B30D00A2B44
:101640002748284937D00C2B0CBF35223D221223C6
:101650002A60236002600B60234B24491B78244AD4
:10166000BBB101230B601360224B23491B78234A33
:10167000012B26D9042B0FD9082B1ED9102B94BF70
:10168000862387230B6013601D4B01221A7030BC28
:1016900070470B601360E7E784230B601360F3E788
:1016A00000F58E200F490830012213232A602360A1
:1016B00002600B60D0E73922F7E785230B601360E7
:1016C000E2E780230B601360DEE700BF00400740C5
:1016D00001400740358CFF1F08B003400CB00340A9
:1016E00008B00B400CB00B409B92FF1F20B0034092
:1016F00020B00B40368CFF1F24B0034024B00B40B9
:101700009A92FF1F70B584B072B6194B194D1A48E2
:10171000702241260F2480211A702E701A46047000
:10172000197013781B06FCD5144B186862B6144B5D
:10173000144C984298BF00EB800001A998BF40006C
:101740000A2200F023F801A92046002311F8012BFA
:1017500001333AB10A2B20F8022FF7D11623237058
:1017600004B070BD5B00DBB2237004B070BD00BF7D
:10177000000002400700024006000240080002404C
:101780007F969800188DFF1F704700BFF0B44D1E64
:101790002E46002400E00134B0FBF2F302FB1300FC
:1017A000092800F130078ABF3730F8B2C0B206F816
:1017B000010F1846002BEED10A1953704CB1107866
:1017C00015F8016F28700133E01A834202F80169AD
:1017D000F5DB0846F0BC704770B50F4E0F4D761B19
:1017E000B61018BF002405D0013455F8043B9847C3
:1017F000A642F9D10A4E0B4D761B00F04BF9B610FC
:1018000018BF002406D0013455F8043B9847A6427F
:10181000F9D170BD70BD00BFA01A0000A01A000071
:10182000AC1A0000A01A0000024B13B1024800F0ED
:1018300005B8704700000000491800000023014669
:101840001A46184600F014B838B5074D074C2C1B43
:10185000A41005D0013C55F8043D9847002CF9D15F
:10186000BDE8384000F022B9000000000000000090
:101870002DE9F047254C2568D5F8484106468846AD
:1018800092469946C4B360681F2817DC431C76B1A2
:1018900004EB80050122C5F888A0D4F888118240A5
:1018A0001143022EC4F88811C5F808911ED00230E9
:1018B000636044F820800020BDE8F087144B03B338
:1018C0004FF4C870AFF300800446D0B1D5F848316A
:1018D000002780E88800C5F8484138460123C4F84D
:1018E0008871C4F88C71002EE1D0D1E7D4F88C1146
:1018F0000A43C4F88C21DAE705F5A674C5F8484117
:10190000C1E74FF0FF30BDE8F08700BF901A00003C
:10191000000000006FF07F030370037813F0800F66
:10192000FBD070474008FE4340A004404408FE43FB
:1019300044A004400018FE4300C004403000FE43B1
:10194000309004403400FE43349004401C18FE43A1
:101950001CC004401018FE4310C004400818FE4389
:1019600008C004400C18FE430CC004400C10FE4399
:101970000CB004401010FE4310B004401810FE4399
:1019800018B004401C10FE431CB004401410FE4369
:1019900014B004400418FE4304C004400010FE4389
:1019A00000B004400008FE4300A004400408FE43C9
:1019B00004A004400C08FE430CA004400808FE43A9
:1019C00008A004401418FE4314C004401818FE4335
:1019D00018C004400410FE4304B004400810FE4345
:1019E00008B004401400FE43149004404C08FE4329
:1019F0004CA004400420FE4304D004402410FE43C5
:101A000024B004402010FE4320B004402810FE43C0
:101A100028B004402C10FE432CB004400020FE43AC
:101A200000D004404808FE4348A004401000FE4394
:101A3000109004401519151519FFFFFF0001000053
:101A4000388CFF1F1200000000020000648CFF1F92
:101A50009500000000030000148DFF1F000000002F
:101A6000010309044C8CFF1F00000000020309045D
:101A7000FC8CFF1F0000000003030904188DFF1FEA
:101A80000000000000000000000000000000000056
:101A9000308DFF1FF8B500BFF8BC08BC9E467047EC
:0C1AA0002918000035040000910400002B
:041AAC00F8B500BFCA
:101AB000FFFFFFFF010A04001201100100000040B7
:101AC000C0168904750201020301000018035400C6
:101AD000650065006E0073007900640075006900A0
:101AE0006E006F0009029500030100C032080B0070
:101AF00002020201000904000001020201000524A3
:101B00000010010524010101042402060524060039
:101B1000010705810310004009040100020A0000CA
:101B2000000705020240000007058302400000098B
:101B30000402000201030000072401000125000641
:101B40002402010100062402020200092403010309
:101B50000102010009240302040101010009050535
:101B60000240000000000525010101090584024032
:101B700000000000052501010300000018035400C7
:101B8000650065006E007300790020004D0049007B
:101B900044004900040309040C0300000000000095
:101BA0000000000000000000000000000000010034
:101BB000000000001C90FF1F8490FF1FEC90FF1F8F
:101BC0000000000000000000000000000000000015
:101BD0000000000000000000000000000000000005
:101BE00000000000000000000000000000000000F5
:101BF00000000000000000000000000000000000E5
:101C000000000000000000000000000000000000D4
:101C100000000000000000000000000000000000C4
:101C200000000000000000000000000000000000B4
:101C300000000000000000000000000000000000A4
:101C40000000000000000000000000000000000094
:101C50000000000000000000010000000000000083
:101C60000E33CDAB34126DE6ECDE05000B00000048
:101C70000000000000000000000000000000000064
:101C80000000000000000000000000000000000054
:101C90000000000000000000000000000000000044
:101CA0000000000000000000000000000000000034
:00000001FF
