:1000000000800020BD010000CDA5000085A50000F6
:1000100085A5000085A5000085A5000085A5000038
:1000200085A5000085A5000085A50000CDA50000E0
:10003000CDA5000085A50000E1C10000E5C10000DC
:10004000CDA50000CDA50000CDA50000CDA50000E8
:10005000CDA50000CDA50000CDA50000CDA50000D8
:10006000CDA50000CDA50000CDA50000CDA50000C8
:10007000CDA50000CDA50000CDA50000CDA50000B8
:10008000CDA50000CDA50000CDA50000CDA50000A8
:10009000CDA50000CDA50000CDA50000CDA5000098
:1000A0005998000065980000CDA50000CDA500007E
:1000B000CDA50000CDA50000CDA50000CDA5000078
:1000C000CDA50000CDA50000CDA50000CDA5000068
:1000D000CDA50000CDA50000CDA50000CDA5000058
:1000E000CDA50000CDA50000CDA50000CDA5000048
:1000F000CDA5000065CD0000CDA50000CDA5000078
:10010000CDA50000CDA50000CDA50000CDA5000027
:10011000CDA50000CDA50000CDA50000CDA5000017
:10012000CDA50000CDA50000CDA50000CDA5000007
:10013000CDA50000CDA50000CDA50000CDA50000F7
:10014000CDA50000CDA50000CDA50000CDA50000E7
:10015000CDA50000CDA50000CDA50000CDA50000D7
:10016000CDA5000065AE0000CDA50000CDA5000026
:10017000CDA50000CDA50000CDA50000CDA50000B7
:10018000CDA50000CDA50000CDA50000CDA50000A7
:10019000CDA50000CDA50000CDA50000CDA5000097
:1001A000CDA50000CDA50000CDA50000CDA5000087
:1001B000CDA50000CDA50000CDA50000564B4CF20A
:1001C000205210B51A804DF628121A8000BF00BFC9
:1001D0000AF000FA514B4FF010621A60504A9A60D0
:1001E000504ADA60504A136813F4807304D14F49BF
:1001F0000B604FF4A85313604D4B1A78110703D5C9
:100200001A7842F008021A704A4B4B492A221A7097
:100210004A4A4B4B8B4204D252F8040F43F8040B6A
:10022000F8E7484B484900228B4202D243F8042B9E
:10023000FAE74649464A002352F8230041F82300D2
:1002400001336F2BF8D1434B434A802103F8011B44
:100250009342FBD1414B3D4A1A60414B8A221A70AE
:10026000A3F5805324225A70A0221A709A7992071B
:10027000FCD59A79D406FCD43A4A937903F00C035E
:10028000082B384BF9D103221A7146225A719A79F8
:100290009006FCD5334A9179324B4906FBD5324A58
:1002A0004FF0827111600921516020221A709A79F1
:1002B00002F00C020C2AFAD12C4B2D4A1A602D4B5D
:1002C0002D4A1A6000225A60072243F8042C2B4A58
:1002D000C3F80C2D62B60AF09BFC144B1B68DA07BE
:1002E00005D527480AF0E8FA264B274A1A60274B1B
:1002F0001B785B0609D5234C234B22689A4204D114
:100300001F480AF0D9FA002323600AF069F917F0B0
:10031000D9FE0CF0ABF8FEE70E200540308004401B
:10032000823F04000100002B10D0034014D0034092
:1003300002D0074000E00740E0A0FF1F1448020081
:10034000308CFF1FE0A0FF1F90D1FF1F0082FF1F16
:100350000000000000E400E05FE400E008ED00E0E1
:1003600000500640004006404480044004800440A1
:10037000C010050014E000E0BFD401000000202000
:10038000FE2DA3621CE00340A5C3945A00F0074071
:10039000FFFFFFFFFFFFFFFFFFFFFFFFFFFFFFFF6D
:1003A000FFFFFFFFFFFFFFFFFFFFFFFFFFFFFFFF5D
:1003B000FFFFFFFFFFFFFFFFFFFFFFFFFFFFFFFF4D
:1003C000FFFFFFFFFFFFFFFFFFFFFFFFFFFFFFFF3D
:1003D000FFFFFFFFFFFFFFFFFFFFFFFFFFFFFFFF2D
:1003E000FFFFFFFFFFFFFFFFFFFFFFFFFFFFFFFF1D
:1003F000FFFFFFFFFFFFFFFFFFFFFFFFFFFFFFFF0D
:10040000FFFFFFFFFFFFFFFFFFFFFFFFDEF9FFFF23
:1004100010B5054C237833B9044B13B10448AFF33E
:1004200000800123237010BDE0A0FF1F000000002A
:1004300058440200084B10B51BB108490848AFF3F7
:1004400000800848036803B910BD074B002BFBD0A0
:10045000BDE81040184700BF00000000E4A0FF1FE7
:1004600058440200E0A0FF1F0000000010B584B057
:100470000A4C0B4B02930B4A01924FF0FF3300934F
:100480002046094B2022802108F09EF8074A08499F
:10049000204604B0BDE810400DF094BEFCA0FF1F44
:1004A000801A060040420F00A893FF1F0C8DFF1F0B
:1004B0002186000030B5094C83B001252046009507
:1004C0002B463C22022108F001FA20460221A576A3
:1004D00003B0BDE8304007F0C9BB00BFFCA0FF1F60
:1004E00070B5CEB2044680E80600D5B2304602218F
:1004F0000AF018FB022128460AF014FB30460AF0E5
:1005000003FBA06028460AF0FFFA0023E0602361A5
:100510006361204670BD00BF30B5044683B00078EB
:100520000AF0F2FA054620790AF0EEFAA3689D4235
:10053000E36824D0984231D0A560E060ADB1A0B1AD
:100540002369012B37DD0023236101221E4B6169E2
:100550001B680193019B63615B1A132B32D9312B0A
:100560008CBF002301231BB201E00022134692B28C
:10057000002062F30F0063F31F4003B030BD9842C8
:10058000F3D02369A56085420CBF01224FF0FF32F2
:1005900013442361E060002DE7D0D0E72369A56014
:1005A000854214BF01224FF0FF3213442361E06003
:1005B000002DDAD0C3E7002201332261D5DA4FF0F3
:1005C000FF32C3E70223D2E704CDFF1F10B5044674
:1005D000322240F2E2430160C8B2E260A36102212C
:1005E0000AF0A0FA00234FF0FF3103226160227469
:1005F000A3606361204610BD10B5044682B0007848
:100600000AF082FA636898421B4B09D01B6800937A
:10061000E268009B60601344A360002002B010BD3C
:100620001B680193A268019B9A4209D8217C4A1E4B
:10063000032A05D8DFE802F00F020707012818D0C7
:10064000002002B010BD0028FAD1A2690120134495
:1006500063612074E2E730B10128F1D103208842C0
:100660002074DBD1ECE762699A42E9D2022020745F
:10067000D4E70420F3E700BF04CDFF1F704700BF9D
:1006800010B5184C636D1868036882B0DB6947F6D3
:1006900012219847144B1B6801930120019BC4F859
:1006A000003100FA00F200234FF6FF71024384F894
:1006B000580084F8702084F85A3084F85930636602
:1006C000236684F8F83084F8753084F8743084F840
:1006D000763084F87730C4F8FC30A166E16602B069
:1006E00010BD00BF64A1FF1F04CDFF1F0B460146D4
:1006F00018460AB90BF04AB900220BF0FFB800BF48
:1007000010B54FF60F000BF0ABF8044B5B6D18689B
:100710000368F8211B68BDE81040184764A1FF1F5B
:1007200010B54FF60F200BF09BF8044B5B6D18686B
:100730000368FA211B68BDE81040184764A1FF1F39
:1007400010B54FF60F300BF08BF8044B5B6D18684B
:100750000368FB211B68BDE81040184764A1FF1F18
:1007600010B54FF60F400BF07BF8044B5B6D18682B
:100770000368FC211B68BDE81040184764A1FF1FF7
:1007800008B500200BF082F9003018BF012008BD29
:100790002DE9F041E0290C469DF8185008D8013D9C
:1007A000EDB20F2D02D849B2002912DBBDE8F0816D
:1007B000F729FBD90834E4B2012303FA04F414F056
:1007C000DD0FF3D0436D18680368BDE8F0411B6886
:1007D00018471F46436D8046186803682943C9B20D
:1007E0001B6816469847D8F854301868036806F016
:1007F0007F011B6804F0EF049847C02CD6D0D8F8CE
:1008000054301868036807F07F011B68BDE8F041A9
:10081000184700BF2DE9F0415FFA82F80C0608F195
:10082000FF3504F0FE4444F410442D02064605F45E
:10083000706544F00904000482B02C4300F4FE000B
:100840000F4620430BF00CF8CDF80080FBB2F2B25B
:1008500090210348FFF79CFF02B0BDE8F08100BF84
:1008600064A1FF1F00B583B0D2B20092CBB2C2B276
:1008700090210348FFF78CFF03B05DF804FB00BF35
:1008800064A1FF1F2DE9F0415FFA82F80C0608F120
:10089000FF3504F0FE4444F400442D02064605F4FE
:1008A000706544F00804000482B02C4300F4FE009C
:1008B0000F4620430AF0D4FFCDF80080FBB2F2B21D
:1008C00080210348FFF764FF02B0BDE8F08100BF5C
:1008D00064A1FF1F00B583B0D2B20092CBB2C2B206
:1008E00080210348FFF754FF03B05DF804FB00BF0D
:1008F00064A1FF1F2DE9F0415FFA82F80C0608F1B0
:10090000FF3504F0FE4444F430442D02064605F45D
:10091000706544F00B04000482B02C4300F4FE0028
:100920000F4620430AF09CFFCDF80080FBB2F2B2E4
:10093000B0210348FFF72CFF02B0BDE8F08100BFF3
:1009400064A1FF1F00B583B0D2B20092CBB2C2B295
:10095000B0210348FFF71CFF03B05DF804FB00BFA4
:1009600064A1FF1F30B50304CDB2044603F4FE03B7
:10097000681E43F44043000283B043F00C0300F4CC
:10098000706018430AF06CFF0095E2B20023C021AA
:100990000248FFF7FDFE03B030BD00BF64A1FF1F9A
:1009A000036810B504460BB17430984794F875305D
:1009B000803B7F2B00F28580DFE813F08A00830004
:1009C000830083008300830083008300830083000F
:1009D00083008300830083008300830096008300EC
:1009E00083008300830083008300830083008300EF
:1009F0008300830083008300830083009A008300C8
:100A000083008300830083008300830083008300CE
:100A10008300830083008300830083009E008300A3
:100A200083008300830083008300830083008300AE
:100A3000830083008300830083008300A20083007F
:100A4000830083008300830083008300830083008E
:100A5000830083008300830083008300AC00830055
:100A6000830083008300830083008300830083006E
:100A7000830083008300830083008300B000830031
:100A8000830083008300830083008300830083004E
:100A9000830083008300830083008300C400800000
:100AA000D500E50083008300ED008300F100F50030
:100AB000F900FD000101830005018400A36A002BF9
:100AC00064D110BD236D002BFBD0BDE8104018474A
:100AD000A368002BF5D094F8772094F8761094F85A
:100AE0007400BDE810401847E368002BF3D1E8E735
:100AF0002369002BEFD1E4E76369002BEBD1E0E73A
:100B0000A369002BDDD094F8761094F87400BDE84A
:100B100010401847E369002BF5D1D2E7226A002A7A
:100B2000CFD094F8771094F8763094F87400C90117
:100B300001F47E5103F07F031943A1F50051BDE894
:100B400010401047626A002ABBD094F8763094F8BF
:100B5000771043EA0121802904F1780028BF802121
:100B6000BDE810401047E26A002AAAD094F8773016
:100B700094F87600DB0103F47E5300F07F00184305
:100B8000BDE810401047236B002B9AD094F87600F4
:100B9000BDE810401847636B002B96D191E7A36B1B
:100BA000002B92D18DE7236C002B8ED189E7E36B6C
:100BB000002B8AD185E7636C002B86D181E7A36C7B
:100BC000002B82D17DE7E36C002B7FF47EAF78E7CA
:100BD000F8B5436D0446186803681B69984708B95F
:100BE0000020F8BD94F80D31626D23F0010384F804
:100BF0000D31106803685B699847C3B2FD2BEFD0D5
:100C0000626E002A49D001067ED494F85B10F02968
:100C10005FD0F7295DD0A11881F85B30216E4B1EA3
:100C20009A4253D394F85B30F02B00F00A82F72BF2
:100C300000F007821A0650D4002284F87520B02AEA
:100C40005CD0A02A5AD0D02A58D0E02A56D0C02A48
:100C500054D0002084F87400032994F85C0008BF85
:100C600094F85D5084F8760018BF0025002101201B
:100C7000B02A84F877506166216684F8F80008D0BD
:100C800000F2D581902A04D0A02A02D0802A00D078
:100C9000002384F859300120F8BD94F8592084F8D5
:100CA0005B3015064DD440B20028C0F20E8294F994
:100CB0000D01636840F0010084F80D0103B198470D
:100CC000002084F8590060662066F8BD0132626633
:100CD00086E7A11881F87830A0E703F10C02D2B2C0
:100CE000012AA9D9FD2BA7D0EF2B00F2EC8103F04C
:100CF000F002802A84F8752040F0EF8103F00F00A5
:100D0000013084F87400A7E7A3F1F0010F293FF642
:100D10007CAF012000FA01F111F0810540F0B181B2
:100D200011F45F4F3FF471AF84F8765084F8775038
:100D300084F8745084F87530C4F8FC0084F8F80026
:100D4000F8BD02F10C01CDB2012DACD9FD2AAAD01B
:100D5000EF2A00F2578102F0F006802E40F0538116
:100D600040B20028A0DB0120C9B2814284F85B2098
:100D700084F85C3060669AD9FD2A98D0EF2A94BF37
:100D800002F0F0051546A5F180037F2B8FD801A155
:100D900051F823F0FD0F0000AF0C0000AF0C000075
:100DA000AF0C0000AF0C0000AF0C0000AF0C000057
:100DB000AF0C0000AF0C0000AF0C0000AF0C000047
:100DC000AF0C0000AF0C0000AF0C0000AF0C000037
:100DD000AF0C0000FD0F0000AF0C0000AF0C0000D6
:100DE000AF0C0000AF0C0000AF0C0000AF0C000017
:100DF000AF0C0000AF0C0000AF0C0000AF0C000007
:100E0000AF0C0000AF0C0000AF0C0000AF0C0000F6
:100E1000AF0C0000FD0F0000AF0C0000AF0C000095
:100E2000AF0C0000AF0C0000AF0C0000AF0C0000D6
:100E3000AF0C0000AF0C0000AF0C0000AF0C0000C6
:100E4000AF0C0000AF0C0000AF0C0000AF0C0000B6
:100E5000AF0C0000FD0F0000AF0C0000AF0C000055
:100E6000AF0C0000AF0C0000AF0C0000AF0C000096
:100E7000AF0C0000AF0C0000AF0C0000AF0C000086
:100E8000AF0C0000AF0C0000AF0C0000AF0C000076
:100E9000AF0C0000F50F0000AF0C0000AF0C00001D
:100EA000AF0C0000AF0C0000AF0C0000AF0C000056
:100EB000AF0C0000AF0C0000AF0C0000AF0C000046
:100EC000AF0C0000AF0C0000AF0C0000AF0C000036
:100ED000AF0C0000F50F0000AF0C0000AF0C0000DD
:100EE000AF0C0000AF0C0000AF0C0000AF0C000016
:100EF000AF0C0000AF0C0000AF0C0000AF0C000006
:100F0000AF0C0000AF0C0000AF0C0000AF0C0000F5
:100F1000AF0C0000FD0F0000AF0C0000AF0C000094
:100F2000AF0C0000AF0C0000AF0C0000AF0C0000D5
:100F3000AF0C0000AF0C0000AF0C0000AF0C0000C5
:100F4000AF0C0000AF0C0000AF0C0000AF0C0000B5
:100F5000AF0C0000B30F0000F50F0000FD0F000004
:100F6000F50F0000AF0C0000AF0C0000950F000063
:100F7000B30F0000950F0000950F0000950F0000C3
:100F8000950F0000950F0000AF0C0000950F0000BA
:100F9000950F00000023012084F8743084F8763027
:100FA00084F8773084F875506366236684F8F80017
:100FB000F8BD80210023216684F8785084F85930E8
:100FC0007F21636E8B422ED302F00F020023013289
:100FD00094F85C1084F87420012084F8761084F86A
:100FE000773084F8755063662366C4F8FC0084F893
:100FF000F800F8BD022323660121E2E703232366FC
:101000000221DEE7164606F0DF05902D3FF4A8AE7C
:1010100006F0BF05A02D3FF4A3AE06F0EF06C02EEC
:101020003FF49EAE3FE6013363660020F8BDD02A50
:101030003FF42FAEE02A3FF42CAEC02A7FF428AE56
:1010400027E6F02280230025012194F8F76084F838
:10105000752084F8763084F8F720C4F8FC302046F8
:1010600084F8775084F8745084F8F810FFF798FCEF
:10107000F722022384F8796084F878202846636692
:10108000F8BD94F87810F02902D0F7297FF40FAE5C
:10109000551C224400214FEA152E82F87830012693
:1010A000F02784F8765084F877E084F8741084F898
:1010B00059103046C4F8FC5084F87570616621669A
:1010C00084F8F860F8BD1A46B7E503F10C02D2B215
:1010D000012A7FF6ECAD1A4650E6902A3FF40EAE98
:1010E000ADE500BF90F87030DA0718D513F0FE0FA9
:1010F00015D070B590F8755085F08002602A82B0E6
:1011000004460DD890F874608E4231D081B35B08EC
:10111000012B32D0032B00F09F8002B070BD7047CE
:10112000A5F1F0030F2BF8D801A252F823F000BF6D
:101130002712000005120000D3110000B7110000B3
:101140001B1100001B1100008F1100001B1100007B
:101150008F1100001B1100008F1100008F11000083
:101160008F1100001B1100008F1100008F11000073
:101170005B08012B01D0022BCFD194F8773094F883
:101180007620009629462046FFF702FBC5E705F1C9
:101190000803DBB2072BC0D8012202FA03F313F0D5
:1011A000DD0FBAD0636D1868036829461B6802B06A
:1011B000BDE870401847436D90F876501868036892
:1011C000F3211B689847636D186805F07F01036879
:1011D000ECE7436D90F87750186894F87620036830
:1011E000F2211B6842EAC5159847636D18680368C9
:1011F00005F07F011B689847636D1868C5F3C61139
:101200000368D3E7436D90F87650186894F8773008
:1012100002682D0103F00F03126805F07005F1213B
:101220001D439047BEE790F8763090F8776043EA28
:101230000626802E28BF802600F17805002E3FF478
:101240006CAF2E44636D15F8011B186803681B68AA
:101250009847B542F6D160E794F8773094F8762055
:1012600000962946FFF794FA57E700BF70B5174C70
:1012700094F85860102E02D90025284670BD2046EB
:10128000FFF7A6FC05460028F6D094F87530902BA1
:101290000CD083F08003602B0BD90C48FFF780FB48
:1012A00031460A48FFF71EFF284670BD94F8773094
:1012B0003BB194F874309E42EFD0002EEDD0002563
:1012C000EEE7802384F87530F3E700BF64A1FF1FC9
:1012D000F8B5294C294F94F87030DFF8ACE0C7F826
:1012E00000E00025012243F0010362F347034FF6BB
:1012F000FF76294604F17800802284F87030676513
:1013000025606560A560E56025616561A561E561B1
:1013100025626562A562E56225636563A563E56391
:1013200025646564A564E564256584F8585084F8EF
:10133000595084F85A5025666566A666E66684F8B4
:10134000745084F8755084F8765084F8775084F897
:10135000F85017F033FB2046C4F80051C4F804518C
:10136000C4F8085184F80C5184F80D51044A054919
:10137000BDE8F8400CF026BF64A1FF1F60A1FF1F6D
:101380000C8DFF1F7D0600001096FF1F0020704788
:10139000704700BF194B1B7870B505460E461446C2
:1013A0003BBB174B1B78CBB9A3F15533A3FB0623EB
:1013B000DB0813F0010FA3EB830306EB830318BFD5
:1013C0000C33104A104832F82310002205F012FFA7
:1013D0000D4805F029FE0D4B01221A700C4B1B78AD
:1013E00003B970BD2A4621463046BDE87040FFF77C
:1013F00071BA0021172009F081FBD2E7338DFF1F5E
:101400009CA3FF1F08D3010078A2FF1FA8BCFF1FE9
:1014100011A3FF1F054B1B7803B9704710B40C468E
:1014200011460246204610BCFFF78CBA11A3FF1FDD
:10143000024B0A460146186805F034BDCCBCFF1FBC
:1014400010B5044606F0EAFA0A2830D00D283DD03F
:101450004FF6FD73984201D9012010BD0346B4F93F
:101460004220B4F9401004F1080006F0BBFA94F8E9
:101470002230032BF0D8DFE803F0140E0802B4F892
:101480004230181AA4F84200E6E7B4F84030181ABF
:10149000A4F84000E0E7B4F842301844A4F8420051
:1014A000DAE7B4F840301844A4F84000D4E794F9DF
:1014B000333094F93410B4F842205B1A13440022FC
:1014C000A4F84230A4F84020012010BD0023A4F865
:1014D0004030012010BD00BF10B50446D0F84801CF
:1014E00008B10AF0CDFFD4F83C0108B10AF0C8FFFA
:1014F000D4F8300108B10AF0C3FF04F1100008F07D
:10150000AFFB204610BD00BF2DE9F84FDFF85C812E
:10151000504ED8F800301E40002EC0F29580DFF803
:1015200050914C4DD9F80030C8F800601D40002D96
:10153000C0F28580C9F800500B36C5F11A050124A8
:10154000A1B200224448013405F054FE0B2CF7D11F
:10155000DFF820A1414F9AF80030002B57D14FF00F
:101560000A0B08E05D450BF1010B0FDD0134BBF107
:101570001A0FA4B21BD0B542F4DD00222146364832
:1015800005F038FE5D450BF1010BEFDCFF22114643
:10159000388805F059FE05F0FBFE214602462E482C
:1015A00005F028FE0134BBF11A0FA4B2E3D1FF22EB
:1015B0001146388805F048FE05F0EAFE711C024627
:1015C00089B2254805F016FED8F800300133102BFB
:1015D000C8F80030D9F8003004BF0133C9F8003032
:1015E000102B25D01E4A1F4B10681B681E49034450
:1015F000012013600870BDE8F88F0022A1B21648E0
:1016000005F0F8FDA54206DC01341B2CCFD0B54215
:10161000F3DDA542F8DDFF221146388805F014FEFF
:1016200005F0B6FEA1B202460B4805F0E3FDEBE77C
:101630009AF8003083F001038AF80030D2E7013DC8
:1016400065F00F05013575E7013E66F00F060136BE
:1016500065E700BF0F00008078A2FF1F388EFF1FD4
:10166000E4BCFF1F3C8EFF1F12BDFF1F4CA3FF1FDA
:101670008CA3FF1FE4A2FF1F10B5183814F068FFF9
:1016800009490A4C14F0B8FF0BF0C2FC15F07AF9C6
:1016900001212060172009F031FA21682820BDE8D7
:1016A000104009F01DB900BF90759242C8BCFF1FE1
:1016B0002D4B1B7810B50C46002B3BD12B4B1B78C8
:1016C0001BB1A4F11803352B3AD9294B1B7883BBE6
:1016D000A3F15533274AA3FB0413DB081470A3EBD3
:1016E000830204EB8204DA0713D50C34012B2DD0CE
:1016F000022B29D0032B2DD0042B2ED0052B2FD03D
:10170000062B25D0072B4FF6FF7218BF6FF07F42D4
:1017100003E06FF07F42002BE8D1174B174833F8F6
:10172000241005F067FD154805F07EFC144B0122DE
:101730001A7010BD114602462046FFF793F8BDE728
:101740002046FFF799FFC0E70E4AE6E70E4AE4E7B6
:101750000E4AE2E74FF47F42DFE74FF0FF12DCE78B
:101760004FF6FF72D9E700BF11A3FF1F338DFF1F94
:101770009CA3FF1FF5BCFF1F08D3010078A2FF1F29
:10178000A8BCFF1F00FFFF000080FF0000FF8000DB
:101790002DE9F0471546002A63D004460F46DFF8CE
:1017A000C88000264FF6FD7900F1080A0BE006F02C
:1017B00035F90A2825D00D2832D0484511D9012005
:1017C000013D06440AD0236817F8011B1B684345F6
:1017D0002046ECD09847013D0644F4D13046BDE8A0
:1017E000F0870346B4F94220B4F94010504606F0A1
:1017F000F9F894F82230032BE1D8DFE803F02B242A
:101800001D1694F9333094F93410B4F842205B1A61
:1018100013440022A4F84230A4F840200120CFE76E
:101820000023A4F840300120CAE7B4F84230181A67
:10183000A4F842000120C3E7B4F84030181AA4F815
:1018400040000120BCE7B4F842301844A4F842003C
:101850000120B5E7B4F840301844A4F84000012056
:10186000AEE71646BAE700BF41140000F8B50D4ECA
:1018700033689842044611D30B4A0C4D12680C4F42
:1018800085FB0215D217C2EBA505E41AFEF738FF57
:101890003B6803FB05F39C423360F6D21B1B3360AD
:1018A000F8BD00BFF0BCFF1F54D20100ABAAAA2AAA
:1018B000ACBCFF1F70B50D4D2B689842044612D387
:1018C0000B4E32682A60E41A09F032F901460948E1
:1018D00003F04AFF09F02CF90146074803F090FF96
:1018E0002B68A342EDD91B1B2B6070BD44BDFF1FAD
:1018F000ACBCFF1F7CC0FF1F7CBDFF1FF8B50F4FA6
:101900000F4D3B680F4E03EB8303044603440A4626
:1019100055F8230056F82410FEF7ECFF3B680A4FF9
:1019200056F8242047F8242003EB83031C4407497E
:10193000074855F8243002600B60F8BDDCBCFF1F7F
:101940009C8EFF1F4CBDFF1F14A3FF1F94A2FF1FFF
:1019500030A3FF1F2DE9F04FDFF878B2DFF8B08237
:10196000994E9A4FDFF8ACA2DFF8AC9285B05D4695
:10197000002458F8040BC0B208F0E0FC034601460E
:1019800028683B6005F02AFE55F8042BDAF80010B1
:10199000D36AD9F80000994200F3D4808342A8BFEB
:1019A0000346401A00F0CA805B1AC3EB833100EB98
:1019B000D07301EB630300FB03F1002993FBF0F309
:1019C000B8BF03F1FF33D91192F834203B6046F8D9
:1019D000041B002A67D07E4B1878D8B1DBF81020A2
:1019E000DBF80030D26ADFF834E293F834C09300B9
:1019F000CEF80030774ABCF1000F05D1536893F858
:101A00003430002B00F0A880734A744B12680392A4
:101A1000039A1A60724B1B78032B44D8DFE803F05B
:101A20004A02024A6F4B1B78002B55D06E4B1B7835
:101A3000002B51D06D4B6E481B686E4ADFF8E0E119
:101A400003EB83032344042C50F8233013606A4BC8
:101A5000CEF80040196000F09F8004F0B9F92044EE
:101A6000664B56F8042CC270DA68019340F2CB2121
:101A700001FB0232204692F8851001F00F0101317E
:101A8000FFF73CFF019BDA6840F2CB2101FB0233F8
:101A9000204693F8851001F00F010131FFF72EFF6A
:101AA000574B01221A700134052C7FF462AF05B048
:101AB000BDE8F08F534B1B78002B45D120B9484B24
:101AC00020469978FFF71AFF4D4B01340122052C6F
:101AD0001A707FF44EAFEAE74B4B1B78002B48D0CF
:101AE000424B43481B68434ADFF834E103EB83036E
:101AF0002344042C50F8233013603F4BCEF80040B1
:101B000019603E4B4AD0D86803EB800240F2CB2CE0
:101B1000526A02EB820E0CFB00F002EB4E02024412
:101B20001A442244034482F8921093F8851001F07D
:101B30000F0101312046FFF7E1FEC5E73F2141F6E5
:101B4000FF7341E70B462CE70028BDD12F4B204601
:101B50001968FFF7D3FEB7E7936893F83430002B8A
:101B60007FF452AFD36893F83430002B7FF44CAF3E
:101B700050E7224BDA6840F2CB2101FB02332046CA
:101B800093F8851001F00F0101310134FFF7B6FE23
:101B9000052C7FF4EEAE8AE7184B74E7D3F80CE01F
:101BA00003EB8E0040F2CB22406A02FB0EF24FF0B4
:101BB0000B0E0EFB0022134493F8902061F30602F3
:101BC00083F8902080E700BF4CBDFF1FE0A2FF1FFD
:101BD000D0BCFF1F34A3FF1F04CDFF1F80A3FF1F36
:101BE0009CA3FF1F2CA3FF1FDCA2FF1FDCBCFF1F59
:101BF0009C8EFF1F94A2FF1F30A3FF1F48A5FF1F4D
:101C0000A8BCFF1F328DFF1F55A3FF1FB48DFF1F00
:101C100040D2010094A3FF1F3C8DFF1F388EFF1F91
:101C2000F0A3FF1F2DE9F043734B744C196883B088
:101C3000084614F0D9FB14F0CBFE7149714A0B68C9
:101C40000093009B156820605B1B984208D86E4883
:101C50000968037801910199116083F00103037011
:101C60006A4B1B783BB3684B1C78002C40F0988083
:101C70002546264627464FF47F020021644805F09A
:101C8000B9FA3A460121624805F0B4FA3246022117
:101C90005F4805F0AFFA2A460B215D4805F0AAFA25
:101CA00022460C215A4805F0A5FA5A4B01221A7017
:101CB00003B0BDE8F083584B1A78002A7CD0524B11
:101CC0001B78002B73D199469846FF22002150487B
:101CD00005F090FA514A4E48012105F08BFA504A1E
:101CE0004B48032105F086FA4FF6FF72042148485D
:101CF00005F080FA4FF0FF120521454805F07AFA09
:101D0000484B1F68132F18DD474DA7F108060B2419
:101D100005E04A46013405F06DFAA6420DD015F8EB
:101D2000013F3B483D4AA1B2002BF2D1A1B2384855
:101D3000013405F05FFAA642F1D14FF47F0206218B
:101D4000334805F057FA132F10DD384D132415F8DA
:101D5000013F2F484246A1B21BB92D484FF47F02E4
:101D6000A1B2013405F046FABC42F0D100220221B2
:101D7000274805F03FFA00220721254805F03AFAE6
:101D800000220821224805F035FA294A2048092175
:101D900005F030FAFF220A211D4805F02BFA84E7EE
:101DA0001E4D1F4F47F6FF744FF0FF1663E7DFF835
:101DB0006C904FF47F0888E71146154805F01AFA31
:101DC0001C4B1B78002B7FF470AF164B1E68012E46
:101DD0007FF76BAF184D194F012403E00134A64281
:101DE0003FF463AF55F8043F0133F7D13A68084830
:101DF000A1B205F0FFF9F1E7E0BCFF1FD8BCFF1F5F
:101E000004CDFF1F48A3FF1F68BDFF1FF4BCFF1FC9
:101E100078A2FF1F12BDFF1F60BDFF1F0080FF00E3
:101E200000FF800070D301006BBDFF1F73BDFF1F5B
:101E300000FFFF00D0BCFF1F488DFF1F388DFF1F24
:101E40002DE9F04F9D4B9E4C196887B00746084618
:101E500014F0CAFA14F0BCFD9A4A9B491368029325
:101E6000029B0D6820605B1B98424FEA400408D833
:101E7000964D10682B78039083F0010303982B7024
:101E800008601368924A0493049B11688D485B1A9A
:101E90009C4208D88F4900680B780590059810601F
:101EA00083F001030B708C4E737923B1874D2B782F
:101EB000002B40F08B80894C2378A3B1834D2B7885
:101EC000002B40F0B081864B1B78002B6AD0854BED
:101ED0001B78012B6ED0022B72D14D22002182483B
:101EE00005F088F90EE07E4B1B78002B5AD0774D19
:101EF0002B78002BEBD07D4B7B4853F8272000211B
:101F000005F078F940F2CB2303FB076393F88E309A
:101F1000D90740F1B080764BDFF8FC9153F82730B9
:101F2000C9F8003007F1180806EB880223785468D6
:101F30002401002B57D06F4B1B78002B53D06E4BD6
:101F40001F68012F49DD614DDFF8D091DFF8D081A6
:101F500001240DE0012632460B21634805F04AF9C1
:101F6000013432461A21604805F044F9A74234D0C2
:101F7000D9F80020614B1340002B6CDBD8F800200F
:101F8000A24203F10B0370D0A3425ED00022A1B2A3
:101F9000554805F02FF92B78002BDBD0584A47F62F
:101FA000FF76D9E7574B1B78002BA0D14D4B1B7800
:101FB000012B90D1544A4C48002105F01BF9A1E7B0
:101FC00000221146484805F015F99BE7012200213F
:101FD0004548424C05F00EF994E74C4B01221A702B
:101FE00007B0BDE8F08F474B1B78002B50D0424B19
:101FF0001F68112F09DD103F0125A9B200223A48C0
:10200000013505F0F7F8AF42F7D104F10F070B25C2
:10201000DFF80C810AE0D8F800309D4201D005F0CD
:10202000E9F80134BC4205F10105D6DCF3682E481D
:1020300006EB8303A9B25B6AA3424FF00002EAD128
:102040004FF4000205F0D6F8EBE72D4A2648A1B27E
:1020500005F0D0F89FE7013BD8F8002063F00F03AC
:102060000133A24203F10B038ED1274A1E48A1B2CD
:1020700005F0C0F88FE71D491D4ADFF89C90244BFE
:1020800051F8271052F82720C9F800101A6049E7C4
:10209000F36840F2CB2A0AFB036393F88E305A07A9
:1020A0009BD41C4B1B78002B40F0F980124B1D6811
:1020B000012D63DD0AFB076A012441E0E0BCFF1F3C
:1020C000D8BCFF1F04CDFF1F48A3FF1F68BDFF1F23
:1020D000D8A2FF1FE8BCFF1F48A5FF1F2CA3FF1FAE
:1020E00010A3FF1F9CA3FF1F78A2FF1F0CD20100AB
:1020F000ECD10100DCA2FF1F70D301000F000080B3
:102100000080FF0055A3FF1F8080800012BDFF1FCD
:10211000B4A2FF1F08BDFF1FECBCFF1F70A3FF1F71
:10212000C4BCFF1F022C6FD0FB1CA34200F08280B6
:102130000022A1B2904805F05DF80134AC4218D0FD
:102140009AF8843003F03F030B33A342F0DB012CF9
:10215000E8D18A4B5B7823B1894B1B78002B40F088
:10216000E280884A84480121013405F043F8AC42FA
:10217000E6D106EB8808D8F80440240140F2CB2BC6
:102180000BFB07FB06EB0B0804EB84025B4608F134
:102190008F0804EB4202CDF804B01E44DFF800B211
:1021A000904404F10F0A0B2513E0A24200F0C18015
:1021B00098F80220D0065DD4734A6F48294605F08E
:1021C00019F801340135A245ADB208F10B08FFF64C
:1021D00004AF96F8842002F03F020132A242F0DD03
:1021E0000BEB8702A307526ADFD0A2423AD098F8DD
:1021F0000220D2063ED4654A1278002ADCD1294654
:102200005D4804F0F7FFDCE75C4B9B7823B15C4B47
:102210001B78002B40F087804FF6807202215648D1
:1022200004F0E8FF89E744F64D420021524804F0EB
:10223000E1FF67E61FFA84FB5946D9F800204E48B3
:1022400004F0D8FF514B1B78002B3FF476AF4C4B7A
:102250001B78002B3FF471AF59460022464804F02A
:10226000C9FF6AE79BF80520002A67D198F8022089
:10227000D1066CD598F80A20530709D0444A127841
:1022800032B9444A3C481268294604F0B3FF98E743
:10229000D9F800203848294604F0ACFF91E7384DC2
:1022A0002A78002A51D0374A4FF6807401213248EB
:1022B00004F0A0FF224602212F4804F09BFF364B7A
:1022C000D3F80090B9F1030FC8BF032407DDA1B212
:1022D00000222948013404F08DFF4C45F7D140F22B
:1022E000CB2303FB07674FF47F0297F884902B4FB3
:1022F00006EB8806C9F30119002473681E4804F12F
:102300000B01A34289B204F1010407D004F072FF6B
:10231000A145FFF662AE57F8042FEEE72B78002BAD
:1023200008BF0022F2E700222146134804F062FFB2
:1023300003E79BF80520002A3FF43AAF4FF4000270
:1023400029460D4804F056FF3BE71446AEE70F4A16
:102350001278002A7FF430AF04EB8402019B04EB77
:1023600042021A445A4492F89120C2F30012002A01
:102370007FF427AF43E700BF78A2FF1FB8A2FF1F7B
:1023800068BDFF1FFFFF80002020200010A3FF1F5B
:10239000E8BCFF1FB4A2FF1F70D30100DCD1010015
:1023A00048A5FF1F10B550B904460121094805F0A2
:1023B00031FB21460748BDE8104005F02DBB002148
:1023C000044805F027FB01210248BDE8104005F054
:1023D00023BB00BFB0A3FF1FA0F11803352B00D90A
:1023E0007047FFF749B900BF0021172008F086BBEE
:1023F000F8B5204DDFF8A8E01F4B2D68DEF800404F
:102400001B6894FBF3F607461C4850F8270005EBC1
:10241000450503FB164300EB850401337F2CCEF802
:10242000003016D81546164A164E174812783470E2
:1024300040F8274012B1154A15681D44144B2A462E
:10244000204643F82750FEF7E5F9A4F11803352B91
:102450000BD9B9B26FF07F420E4804F0CBFE0E49A3
:102460000E4A01230B701370F8BD2046FFF704F9E4
:10247000EFE700BF74A3FF1FC48DFF1F5CD20100F4
:1024800054A3FF1FF5BCFF1F488DFF1FE8A2FF1FCD
:10249000C88DFF1F78A2FF1F12BDFF1FA8BCFF1F22
:1024A00088A3FF1F38B50F4D044655F820007F283C
:1024B0000DD80D4B002153F82420FEF7E3F900213D
:1024C000172008F01BFB4FF0FF3345F82430A1B272
:1024D0000022064804F08EFE0549064A01230B70CF
:1024E000137038BD488DFF1FC88DFF1F78A2FF1FD6
:1024F00012BDFF1FA8BCFF1F2DE9F0473A4FBDF8E2
:10250000206005468946384629469246984605F099
:10251000D1FA97F9314080B2A4B2C0EB0803341B62
:1025200003EBD37304EBD47409EB63030AEB640489
:1025300000222846A7F84030A7F8424087F84620F6
:1025400017F0BEF848B304463E464FF6FD7801E06A
:10255000013C22D015F8011B234805F05FFA0A2838
:102560002FD00D283BD04045F2D80346B6F9422083
:10257000B6F940101D4805F035FA96F82230032BC5
:10258000E6D8DFE803F018120C02B7F84230013C3D
:10259000A3EB0000A7F84200DCD1BDE8F087B7F854
:1025A0004030181AA7F84000D2E7B7F84230184474
:1025B000A7F84200CCE7B7F840301844A7F840002D
:1025C000C6E796F9333096F93410B6F842205B1A14
:1025D00013440022A6F84230A6F84020B8E70023B2
:1025E000A6F84030B4E700BFA8A3FF1FB0A3FF1FA9
:1025F00030B5054683B010460C46FFF7D3FE074BB7
:102600001A685200610116230332009309B228466A
:1026100012B22023FFF770FF03B030BDC08DFF1F43
:1026200030B51D4C83B0012104F1080005F0D8F944
:1026300004F10800194905F0E3F9002504F1080048
:102640000121A4F84050A4F8425084F8465005F007
:10265000E1F9294604F1080005F0DEF9104B5A783B
:102660001B78934210D00F4B1B784BB90E48202398
:10267000009314222C235621FFF73EFF03B030BDF8
:102680000A4B53F82200F2E7064A1278002AEDD0EE
:10269000064A52F82300EAE7A8A3FF1FA407020096
:1026A0009CA3FF1FD1BCFF1FC8D00100608EFF1F7D
:1026B00070B5064684B010460D46FFF773FE0A4B10
:1026C0001C68640002A930460A22033415F03AFD62
:1026D000A4B269011623009322B209B202A82023F2
:1026E000FFF70AFF04B070BDC08DFF1FF8B5134E91
:1026F000074600257088002498B12304FF2293FB2D
:10270000F0F02844114680B204F09EFD04F040FE33
:10271000A1B20246094804F06DFD70880134A04260
:10272000EBDC064804F080FC05F58075384608F0BF
:1027300021FAB5F5803FDDD1F8BD00BF78A2FF1FBB
:102740002DE9F047494BDFF83C81494E0FCB86B06D
:1027500006AC04E90F00474806F08EFA002108F1A4
:10276000080005F03DF945464FF0000A4148424C4B
:1027700006F082FA1223002240494148A8F840306E
:10278000A8F8423088F846200FFA8AF905F038F99F
:102790004FF6FD7701E0B44222D014F8011B39480E
:1027A00005F03CF90A284FD00D285BD0B842F2D88A
:1027B0000346B5F94220B5F94010314805F012F949
:1027C00095F82230032BE6D8DFE803F038322C02EC
:1027D000B8F84230B442A3EB0000A8F84200DCD1C4
:1027E0002949274805F00CF909F0030906AB03EB6A
:1027F0008909202359F8100C00930A225021FFF771
:102800007BFE1C4806F044FB0AF1010A642008F034
:10281000B1F9BAF1100FA9D1642006B0BDE8F047B4
:1028200008F0A8B9B8F84030181AA8F84000B2E784
:10283000B8F842301844A8F84200ACE7B8F8403085
:102840001844A8F84000A6E795F9333095F93410FC
:10285000B5F842205B1A13440022A5F84230A5F8CF
:10286000402098E70023A5F8403094E734D00100D9
:1028700066D00100FCA0FF1F60D0010058D5010008
:10288000B0A3FF1FA8A3FF1F14DE01002DE9F04F26
:1028900085B001A80B223C493C4E07F035FBA6F160
:1028A00040073D46002456F8043F05F5307B03F011
:1028B0007F0AA9469DF804300B226AF3060309F14A
:1028C0008F0001A991448DF8043007F01DFBD94514
:1028D000F0D140F2CB2303FB04724FF00F0892F8C3
:1028E000840092F8851092F8879092F88E3092F8D2
:1028F00086A092F888C092F889E068F3050064F336
:1029000003016FF3050982F8840092F88A0082F8C7
:10291000851082F8879092F88B104FF0030969F3C5
:1029200005004FF0020969F3030182F88B1092F859
:102930008D1082F88A004FF0010B92F88C0001F0A4
:10294000800103F0F8035C446FF3050A6FF3050C94
:102950006BF3050E6FF306006FF3C7116FF3C3033C
:10296000082C82F886A082F888C082F889E005F2F7
:10297000CB2582F88C0082F88D1082F88E3092D1AF
:1029800005B0BDE8F08F00BF44D0010088A5FF1F4F
:102990002DE9F041DFF880801B4BD8F800001A7851
:1029A00003681A4C5B681A4F00219847D8F800005A
:1029B0002278036801215B689847D8F80000154A1F
:1029C0000368127B5B6802219847D8F80000A27860
:1029D0000368013AD2B25B68032198470424661D5C
:1029E0003D46D8F8000055F8042F036821465B687F
:1029F000D2B201349847B442F3D11D2C07F1140729
:102A0000EDD1BDE8F08100BF34D201009CA3FF1FCF
:102A1000988EFF1F48A5FF1F28A3FF1F2DE9F04137
:102A20001E4E3068036800219B689847FF2803D03A
:102A30001B4B1B78834202D00020BDE8F081306838
:102A4000184C0368DFF864809B680121984733685D
:102A500020701A6818460221936898473368124913
:102A60001A686060C8609268184603219047013078
:102A7000A0700424671D45463068036821469B68A2
:102A800098470134A74245F8040FF5D11D2F08F1EE
:102A900014083C46EED10120BDE8F08128A3FF1FB9
:102AA00034D201009CA3FF1F48A5FF1F988EFF1F73
:102AB0002DE9F84FDFF854B0134FDBF80000DFF8D2
:102AC00050A00368DB68984703F07CF9C7F1200544
:102AD0008046A0F2CB29B8F1000F3C46C8BF07EBF7
:102AE000080609DDDBF800000368611914F8012B02
:102AF0005B689847B442F5D107F2CB2757454D4460
:102B0000E9D1BDE8F88F00BFCCA5FF1F28A3FF1FA8
:102B100024BCFF1F2DE9F0471A4FDFF86C8038689E
:102B2000DFF868A00368ADF5347DDB68984703F0F3
:102B300049F92024814640F2CB22002101A815F05A
:102B40003DFFB9F1000F04EB0906C8BF01AD09DD77
:102B50003868036821469B6898470134B44205F8F9
:102B6000010BF5D140F2CB2208F1840001A9904479
:102B700007F0CAF9D0453446DDD10DF5347DBDE806
:102B8000F08700BF28A3FF1F48A5FF1FA0BBFF1FA2
:102B9000F0B5454D454A2B68454C46488BB000780A
:102BA000059305992B680693069F2B680793079E4C
:102BB0002B680893404B11601F604049404B414ACD
:102BC000089F266000240F601C7101213E4E947006
:102BD0001472DC6083F82240A3F84040A3F842401E
:102BE00083F846401E60198383F8211010705070DE
:102BF00007F09EFF354B364A1B68DFF838E129683D
:102C0000344D099103EB830310603349334A344E4A
:102C1000099F55F823503348DEF8003037600D60C7
:102C2000136003F019F8304B304A19683048314BC3
:102C3000126801601A60084613F0D6FB13F0C8FE54
:102C40002D4B2E4F18600B220C212D482D4E2E4D52
:102C5000FDF746FC21462D48FDF7B8FC2C4B2D4ACC
:102C600019682D4B126801930623039305242B4BFF
:102C7000009338462A4B029402F018FE324638463A
:102C800028490BF09FFA284B284A1988B2F90020EE
:102C90005223284604F098FA3246284624490BF07D
:102CA00091FA0BB0F0BD00BF04CDFF1F48A3FF1F7A
:102CB00004BDFF1F58D20100D8A2FF1FD4BCFF1FC4
:102CC000A8A3FF1F9CA3FF1F24D00100DCBCFF1F93
:102CD000F8BCFF1F9C8EFF1F94A2FF1F30A3FF1F95
:102CE00080A3FF1F48A5FF1FBC8DFF1F74A3FF1FFC
:102CF00090A2FF1F00BDFF1FD8BCFF1FF4A3FF1F42
:102D000058A3FF1F0C8DFF1F78A2FF1F98A2FF1F63
:102D1000408DFF1F348EFF1F708EFF1F948EFF1F8C
:102D2000408EFF1FD914000070D3010078D301003A
:102D3000616F00004CBDFF1FF0B583B00024154D3E
:102D400001942026224680230746214600961248F9
:102D500004F0F4FF2846012104F042FE28460F4902
:102D600004F04EFE2846012104F054FE2146284678
:102D700004F052FE21460096384680230A22FFF7CF
:102D8000BBFB074A074B0849116001221A7003B0C8
:102D9000F0BD00BFB0A3FF1FFCA0FF1F58D501006E
:102DA000FCBCFF1FA8BCFF1F20A107000FB400B58B
:102DB00089B00AAB182153F8042B019302A818F02C
:102DC00011F902A8FFF7B8FF09B05DF804EB04B0F1
:102DD000704700BF00B500EB400083B081000122C6
:102DE00002232B310192009309B206231E220348CD
:102DF00004F0A4FF03B05DF804FB00BFFCA0FF1FBC
:102E000089B900B500EB400183B0890001232B3163
:102E10000193009309B206231F22044804F08EFF99
:102E200003B05DF804FBFFF7D5BF00BFFCA0FF1F98
:102E300070B51C4B1C481C6882B0002201250A2179
:102E40008DE8220023B2114604F078FF174B164894
:102E5000B3F90050002CB4BFE11C214602262B46DA
:102E600041F38F010096002205F0E0FF04EBD471DE
:102E70002B46002241F34F0100960B4805F0D6FF88
:102E8000204613F065FB4FF07D5113F0B5FB13F0B6
:102E900079FD009601B22B460022034805F0C6FFDB
:102EA00002B070BD6CD30100FCA0FF1F04D3010071
:102EB0002DE9F04F9A4C0546884694E80F0091B0F2
:102EC00004AE0CAF86E80F0087E80F0000230993DB
:102ED00008930A930B930B2D00F2AF82DFE815F0F5
:102EE00033008400A500D300F60072019201B40102
:102EF000DA01FA011C020C008A4A8B4B15688B4AD6
:102F00008B4904921B788B4A059101358A490692B8
:102F10006FF07E02089507910992002B40F0918294
:102F2000864B0D93864B1B786FF07E020A92002B26
:102F300000F08A82834B0E93834A7C4B12680B927B
:102F40004FF0030B16E0814A814B1568814A824994
:102F500012689B7809780A92804A09930435804B5D
:102F60000B9105927F49804A089504930691079238
:102F70004FF0010B7D4C039304F1080001214FF049
:102F8000000904F02DFD04F108007949DFF830A2B2
:102F900004F036FDA4F84090A4F8429084F84690DE
:102FA000FFF746FF494604F1080004F033FD04F141
:102FB0000800012104F030FD039B01244FF00A09B1
:102FC000DAF80020CDF80090023A184621B212B289
:102FD0002023FFF791FA612C04F1200400F0B48162
:102FE000A4B256F8043FEBE7624A634BD5681B680E
:102FF000099340F2CB2303FB0523604993F88D200E
:103000005F4B604C059302F07F025F4B0A920868A9
:103010005E4A0793013504940895069213F0B2FCBA
:103020004FF0010B23460B90A4E7524A584BD1684E
:10303000049340F2CB2000FB0122564D92F88E0003
:1030400092F88B1092F88420534C059402F03F02C2
:10305000013201F00F010992504A06926FF07E0290
:1030600055F821100A920B920207C0F380050E91C9
:1030700048BF344A4A4958BF304A089507910F92D1
:103080004FF0020B76E73649464A434B364C0591E2
:1030900006920793049402F09BFE2C4B05781A6865
:1030A00005F07F0504320992089502F091FE4278FE
:1030B00002F07F020A9202F08BFE827802F00F0289
:1030C000013223460B924FF0010B53E7364B374941
:1030D000374A384C07936FF07E05059106920494A9
:1030E000089502F075FE827A3349039402F00702D4
:1030F0004FF0020B51F822200C9202F069FE027A86
:103100000A9502F07F02099202F062FE427A2B4990
:10311000039B02F03F0251F822200E922AE700BFE3
:1031200050D00100DCBCFF1F11A3FF1F70D00100B5
:10313000BCD00100C4D00100CCD00100D8D0010027
:10314000328DFF1FD4D00100B48DFF1F74A3FF1F69
:103150009CA3FF1F30A3FF1FF5BCFF1FA4D00100DD
:1031600068D00100A8D0010094D00100A8A3FF1FDF
:103170007410020048A5FF1FF4A2FF1FBC8DFF1FA3
:10318000DCD0010078D00100ECD00100E4D00100D7
:103190007CD00100008FFF1FF0D001008CD0010017
:1031A000F4D0010024D10100C8D0010010D10100E9
:1031B00028D101009CD001003C90FF1F1893FF1FF5
:1031C000C08DFF1FA448A549A54AA64BDFF8CC92A5
:1031D000049005910692079300246FF07E0502F09B
:1031E000F7FD204490F90330002BC0F2208108AA9B
:1031F00042F824300134042CF1D1089D049B4FF097
:10320000030BB7E6984A994BD5681B680A9340F2BE
:10321000CB2303FB0523964893F8841093F885206D
:10322000944B049301F03F0102F00F02013101328F
:10323000013509910B929049904A089505900691A5
:1032400007924FF0010B95E6874A8D4BD1680493A6
:1032500040F2CB2000FB01224FF0020B92F88C00D1
:1032600092F8865092F8871092F8882000F07F003C
:1032700001F03F0102F03F0205F03F0501350B90E0
:10328000099180480A928049804A089505900691E4
:1032900007926FE6744A7E48D36840F2CB2101FB67
:1032A00003226FF07E0592F88B1092F88E20794BF6
:1032B000049301F00F01C2F3800250F8210009923B
:1032C0007549764A0C9005910692079208954FF041
:1032D000030B4FE6644C724AE3681568DFF800920E
:1032E000CDF8109004EB830304355A6A6D4B0593B7
:1032F0000132604B09926C4A06920793089502F0DE
:1033000067FDE1680278013102F07F024B460B91C4
:103310000A924FF0010B2DE6644B65491B68654A24
:103320006548096812680568099101330A93634882
:10333000634B0B926349644A089504930590069188
:1033400007924FF0020B15E60121604804F048FB9C
:103350005F495E4804F054FB01215C4804F05AFBCD
:1033600000215A4804F058FB08F1FF33032B0DD815
:10337000DFE803F023392E02152201238DE80C002B
:1033800062211D230922534804F0D8FC0DF12009C5
:1033900000235C1CC8EB0406B6FA86F6760915F124
:1033A0007F0F19B22846324628D0FFF781F9042C46
:1033B0002AD059F8045F2346EBE7152201238DE854
:1033C0000C0002211D230922424804F0B7FCDDE76E
:1033D000152201238DE80C0042211D2309223D48BE
:1033E00004F0ACFCD2E7152201238DE80C00222169
:1033F0001D230922374804F0A1FCC7E757F8230032
:10340000FFF7F6F8042CD4D1BBF1000F0CD0002349
:103410005C1CA34518464FF0000118D0FFF7F0FCE4
:10342000042C01D02346F3E711B0BDE8F08F08ABC0
:1034300047F8249043F82450DCE60025AB46049B73
:1034400098E5254B0D936DE5244B0E9374E5FFF73E
:10345000C1FC2346DCE700BF30D1010034D10100BC
:1034600038D101003CD1010048A5FF1F98A3FF1FE0
:10347000F0D0010078D00100F8D00100FCD00100AC
:1034800084D0010004D1010008D1010010D1010055
:10349000008FFF1F8CD001007CD0010018D10100EB
:1034A00074A3FF1F1CD1010094D0010064BDFF1F55
:1034B000E8A2FF1FFCA2FF1FC48DFF1FACD00100BC
:1034C0006CD00100B4D00100B8D00100B0A3FF1F40
:1034D0008CFE0100FCA0FF1FD4D00100D8D0010059
:1034E00068D001002DE9F04FAA4899B002F0C8FA5F
:1034F00007F01EFBA84B186007F01AFBA74A1368D9
:103500001060C31A079304D0A54F7B79002B40F0BD
:10351000AD85A44B0293A44B039303F0FFF8A3489B
:1035200005F0AAFB029B039A1B680F93A0490F9B0F
:10353000126809689B489B1A994280F018839D4B3A
:1035400006931A4601231370FEF704FA9A4BDFF82C
:103550008CB21B78002B40F097809BF800309BF8D2
:1035600001209A4200F09080944A8D4F14688BF8A5
:103570000130934ADBF80430FB60002C4FF001036C
:1035800004921370C8BF002507DDA9B200228D4840
:10359000013503F02FFEAC42F7D18B4B0593194652
:1035A000012200230A708BF808308848FCF7B4FF2A
:1035B00003B20B903BB3029ABDF92E4012681192F0
:1035C0007D4A039812781199016004FB03F404EB1F
:1035D00084041C44734D002A00F074839BF801306E
:1035E0001C4484F302048BF80140FFF719F82B68A0
:1035F0001293774A129B12687649013B9B1A0B6023
:10360000049B01221A707448FCF7F6FF012800F0B1
:103610004B84022800F03583DFF87881D8F84C31EC
:10362000D8F848219B1A9B0800F09980DFF8DCA1AC
:103630005B4F584802F084F9FB68179007EB83034F
:10364000C5B2A5F10B02040E01925B6EC0F30746F2
:1036500000F06B81029A039912681492149A0A601E
:1036600001220AF80520002D40F0B881524B1B784A
:10367000002B40F09F819BF80030032B00F24F811C
:10368000DFE803F00AC6C60A9BF80830534A002B4D
:1036900000F00983137867E7514B1B784BB19DF815
:1036A0005D30022B00F0DA834E4B1B78002B40F08C
:1036B000CC80002E40F0FB80002C00F09A82002D80
:1036C00040F01C812E46474B1B78002B40F0B08009
:1036D000454B01221A709AF80110002900F0AD80C4
:1036E000002E34D09BF800200123013A9A422ED8B4
:1036F000FA682B4840F2CB2404FB027494F88E4005
:10370000640724D4002940F02A829AF80210F1B903
:10371000E91E072940F27D850A2D18DD3349097815
:10372000A9B93349097891B900EB82020498526E25
:10373000037001982F49304C304D237000EB02127A
:103740000A602F4A2F482B701370FFF72FFBD8F811
:103750004C31D8F848219B1A9B087FF46AAF069B2E
:103760001A78002A40F01982274C2368002B05DDC7
:1037700007995B1A002B236040F3A4859BF8003067
:10378000032B00F20E84DFE813F01204BC03BC0329
:10379000120400BFF4A3FF1FF8BCFF1F04A3FF1F08
:1037A00048A5FF1F04CDFF1F80A3FF1FFCA0FF1F24
:1037B000348DFF1FD0BCFF1FD1BCFF1F70D3010091
:1037C000A8BCFF1F78A2FF1F12BDFF1F58A3FF1F39
:1037D000448DFF1FD4BCFF1F98A2FF1F9CA3FF1F97
:1037E000328DFF1F60BDFF1FF4BCFF1F55A3FF1FDD
:1037F00010A3FF1F70A3FF1F2CA3FF1FF8A2FF1F22
:10380000DCA2FF1F9CD10100FCBCFF1FB8A2FF1F60
:10381000A44C2378002B00F02681A34A1378002BB8
:1038200040F0F481002313702370049B0121197070
:103830009AF8011000297FF453AF9C4B9B78002B22
:103840007FF44EAF9A4B19704AE786BB002C00F00C
:10385000D081019B0F2B40F2A882012D00F0EC8754
:10386000022DE5D0032D01F06080042D01F0F380DE
:10387000052D01F06A81062D01F01983EB1F012B44
:10388000D6D9092D01F0B6830A2D7FF418AF894BE4
:1038900001211A680020FCF7BDFF282007F06AF913
:1038A000844B002108461A68FCF7ECFFC0E7002CA7
:1038B00040F0F5820126EDB97F4B1A780AB100225B
:1038C0001A70002211467D4803F094FC0022012169
:1038D0007A4803F08FFC00220221784803F08AFC2A
:1038E00000220B21754803F085FC00220C2173484F
:1038F00003F080FC00230AF8053099E7019B012BB7
:1039000040F290846B1EDAB2012A40F21C826C4BAA
:103910009BF8022019682846FEF76AFD0026002C55
:1039200086D100230AF8053082E79BF80030032B8C
:10393000F5D801A252F823F0993600004939000069
:103940004939000099360000002DD3D0FB6840F2C1
:10395000CB2202FB037393F88E20520700F175828D
:10396000514B1B781BB957490B78002BC2D0564BD3
:103970001B68002BBEDD7B79544A002B00F060826F
:10398000504C2378002BB5D0DFF8589199F80030CF
:10399000002BAFD002F030FAFB6807EB8303002264
:1039A0005B6A89F80020002BA4D1237000230AF859
:1039B00005303DE7FEF7ECFFFFF77AF89BF80030A3
:1039C000032B3FF635AF01A252F823F099360000E1
:1039D0001138000011380000993600009BF80020D3
:1039E000032A9CD801A151F822F000BF99360000AB
:1039F000FD390000FD39000099360000294C01997D
:103A0000227801EB0313002A6ED027490A78002A96
:103A100000F001810B2D00F052841A2D00F0138369
:103A20002B4B2C4A1B6852F825002B49264A03EBE6
:103A3000430300EB830900230B70156002F0C8F903
:103A40000378224A69F3060303707B79002B00F0A8
:103A5000E386049A01231370002D7FF4E9AE2378E6
:103A6000002B7FF4DAAE1D4B1A78AAB9154B1A78E1
:103A700092B90F4B1A78002A40F0A2839AF80130CD
:103A8000002B00F05885012315483B74FFF78EF991
:103A9000049A01231370CBE61D70049B01221A7057
:103AA000C6E600BF2CA3FF1FDCA2FF1FB8A2FF1FAA
:103AB00008BDFF1FB48DFF1FF4BCFF1F78A2FF1FBE
:103AC000B88DFF1F55A3FF1FC4BCFF1F48A5FF1FD4
:103AD00074A3FF1F5CD20100F8A2FF1F10A3FF1FF9
:103AE000A8D1010000A3FF1FB8490A78002A40F0BE
:103AF000A980B7490A78002A40F0BC83F86840F2F0
:103B0000CB2202FB007292F88EE01EF0040F40F010
:103B1000F9839AF801E0BEF1000F07D0AD4A927820
:103B200022B1AD4A4FF0010C82F800C06A1E012A92
:103B300092D9EA1E072A00F2CA849AF80230BEF12E
:103B4000000F00F08185002B40F0818597F805E09B
:103B5000A24BBEF1000F01F0EF80FA6079E79AF80E
:103B60000220002A3FF4F3AD9B4A1370EFE503688F
:103B70001093109B9A1A092A036800F299809848BA
:103B80000C93984B9849994A069004460C981860F3
:103B900000230B6013602370D6E49BF80030002BE9
:103BA00000F0F780032B00F0F480914805F064F8F2
:103BB000049A01231370029B8E4C1B6816938E4A45
:103BC000169B216812688D4D5B1A9A42C0F047839C
:103BD000059B8B4C1B78002B40F08D81FCF7D0FDB2
:103BE0000028FBD1FDF742FB0028FBD119B0BDE84E
:103BF000F08F002D00F001829BF802102846FEF79E
:103C000051FC002300260AF8053011E67D497E4B61
:103C10000D601D6006E66A1E012A7FF61DAFEA1ED2
:103C2000072A40F2C5820A2D7FF716AF7548774AFA
:103C3000036001231370049A0B701370002D7FF43E
:103C4000F7AD0CE76B1E012B7FF606AFEA1E072AC5
:103C500000F286829AF80130FA60DFF88091002B3A
:103C600040F059845B4B9B78002B3FF4F2AE10463A
:103C700002F0F8FFD9F80C1065480131FFF796F80B
:103C8000E7E6534D2B78002B40F0BE8161499BF84D
:103C900000308BF8013001220A70FEF7C1FC049A53
:103CA00001231370B8E45C4B0493554B05937CE4FB
:103CB0004B4A0D934B4B069211460D9A1A60002306
:103CC0000B7041E4554E3278002A40F0E0813F4FBE
:103CD0003A78002A40F09A833D4D2A78002A00F075
:103CE00051849BF80020013A012A3FF68CAC4C4DE0
:103CF0002A68002A00F0E486052A00F0E186012AFD
:103D000000F04D87022A00F0EB87032A01F00981B9
:103D1000062A01F0FA80072A01F0E380082A40F021
:103D2000D18302F055F8457A02F052F805F03F05CC
:103D30002C44232C437AA8BF232424EAE47464F39C
:103D400005034372BEE3374A1278002A3FF4DFAD21
:103D5000012B3FF6E3AD344E34483368344A012D2D
:103D600014BF01214FF0FF310B4483FB00015818B1
:103D7000D917C1EBE001C1EB0111591A21EAE17138
:103D800082FB01322B483160CB17C3EB6203036027
:103D9000C4E5029B1A68134B1592159A1B689A4248
:103DA0007FF603AFFDF7B0FBFFE6234A0199535CB2
:103DB00083F001035354681C002B00F004821F4B56
:103DC00001211A68FCF726FD32E500BF10A3FF1F92
:103DD00055A3FF1FB8A2FF1F08BDFF1F48A5FF1F67
:103DE000D0BCFF1FE4BCFF1F4CA3FF1F8CA3FF1F11
:103DF000FCA0FF1FD4BCFF1F448DFF1F04CDFF1F7D
:103E000012BDFF1F70A3FF1FC4BCFF1FF8A2FF1F3E
:103E10004CD10100D1BCFF1FA8BCFF1F2CA3FF1F6A
:103E2000F0A2FF1FF4BCFF1F74A2FF1F89888888BF
:103E30006766666628BDFF1F6CBDFF1FB48DFF1F40
:103E4000D168284602F024FA9AE593F8851001F02B
:103E50000F0101312846FEF725FB81E5002D7FF497
:103E600023ACA64B1A7882F001021A70002A7FF464
:103E7000ECACA34A1268012A7FF71BAC4FF0010992
:103E8000089409934C469146A1B200229D48013402
:103E900003F0B0F9A145F7D1089C099B05E426463B
:103EA000002D3FF410ACC3E4029B9BF801201B687B
:103EB00013939BF800300398139901609A4292483B
:103EC00000F0148291490978002940F08381002B89
:103ED00000F0A280032B40F024828D498D4A0B68AC
:103EE000013382FB0320DA17C2EB600202EB82028D
:103EF0009A1A0A60D3E6834803F096F800232370E9
:103F00006CE6854AD36840F2CB2101FB032393F88A
:103F10008E30590700F17C84049B1B78002B3FF402
:103F200057AE7A4B1B78002B7FF445AE2368002BED
:103F30007FF441AE794E7A4F3378002B40F0CB8539
:103F40003B78784D002B40F0E1852B7893B9764B88
:103F500070491A68754881FB0231D317C3EB6101C0
:103F6000036801EB8101511A002B01F03181012B13
:103F700001F05F812B78A3B16D4B66491A686D48DB
:103F800081FB0231D317C3EB6101036801EB8101AF
:103F9000511A002B00F02387012B02D10420FEF7D9
:103FA00087FF049B1B78002B3FF412AE03E6FDF75E
:103FB00039FE049B1B78002B3FF40AAE534B1B7851
:103FC000002B7FF4F8AD524B52491A685A4881FBD6
:103FD0000231D317C3EB6101006801EB8101511A73
:103FE000002800F07B84012800F0778402287FF409
:103FF000E2AD0B20FEF75CFFD3E7504B1A782E465C
:10400000002A7FF45CAC5CE4434FF86802F0B2FD38
:104010004B4B01221A7042E63D4C4A4822683D4D06
:10402000013282FB00011144D317C3EBE103C3EB60
:104030000313D31A85FB03213F482360DA17C2EB31
:10404000610303602BE601233F4940480A6813449B
:10405000042BA8BF04236FF0040E7345B8BF73464A
:104060009A4203603FF4F5AC0B60F2E4384B079CD6
:1040700002931B68374A0E930E9B039220461360EF
:10408000FDF7F4FB2046FDF715FCFFF746BA9BF859
:104090000020013A012A3FF6B6AA214F3A78002AB9
:1040A00040F0BA811F4D2A78002A7FF420AE2A4AB8
:1040B0001278002A00F07182284D2E680A2E40F2F4
:1040C000B685A6F10B02022A05D8002BC1F2FF80AB
:1040D000012E00F0E287022E00F06185032E01F030
:1040E0001880042E01F00480062E00F0FB87072EB6
:1040F00000F0E487082E40F0E58112E660BDFF1F66
:1041000070D3010078A2FF1F9CA3FF1FD1BCFF1F2B
:1041100074A2FF1F6766666648A5FF1F2CA3FF1FDA
:1041200010A3FF1F55A3FF1F08A3FF1F0CA3FF1F12
:10413000F0A2FF1FA4BCFF1F28BDFF1FF4BCFF1F80
:10414000E9BCFF1F8988888874A3FF1F00BDFF1F7B
:1041500004CDFF1F80A3FF1FDCA2FF1F84A3FF1F4E
:104160000A2D7FF779ACD7F80C908F4A40F2CB2319
:1041700003FB097309F1080193F8840007EB81013F
:10418000A5F10B0E6EF3050083F884004868A5F1D5
:104190000A0383423FF75DAC019B089218464B60CF
:1041A00002F094FC089A02EB8909C9F8640050E413
:1041B000FA60049A01231370002D7FF439AB4EE4AA
:1041C0001D70FFF735BB794B31461A68FCF75AFB77
:1041D000FFF72EBB027002F069FC754B1C68002CC7
:1041E000C8BF002507DDA9B200227248013503F0DF
:1041F00001F8AC42F7D1059901220A706E4A0023FA
:104200001370FEF70DFA9BF80030002B7FF462AEBE
:1042100002E76A49049A6A4813700B70FEF7C6FDFC
:10422000FFF795BA674B1B78002B3FF470AB6649DC
:1042300066480A680B2D14BF01234FF0FF33134467
:10424000042BA8BF04236FF00406B342B8BF334663
:10425000934203603FF462AB0B60FFF75FBB5C48C7
:1042600004F016FE2B681793179B049A2360002313
:104270001370ADE4FB68544A56485749126851F828
:10428000251007EB830302EB42025B6A0360534B8A
:1042900001EB82091D6001F09BFD037869F30603C1
:1042A00003707B79002B00F0BF824D4A012313700D
:1042B000049A1370002D7FF4BBAAFFF7D0BB4FF018
:1042C000FF33C1E604999BF80030226001220A7096
:1042D000032B3FF670AC01A252F823F0AF3F000071
:1042E000033F0000033F0000AF3F0000324A324965
:1042F0001278002A3FF4EBAD00220A70002B7FF405
:10430000E9AD89E692F88520364B02F00F020132C2
:1043100019682846FEF76CF8002D7FF489AAFFF78C
:104320009EBB013B012B3FF6BAAC2F4E234F337897
:10433000DBB12E4B1B78C3B13C78002C40F06E8172
:104340002B4D2C482A68013282FB00011144D317FF
:10435000C3EBE103C3EB0313D31A092B2B6040F328
:10436000CE84254B02221A6099E43B78002B40F062
:104370005581224D2A78002A00F09A822048214A4D
:104380000168013182FB0124CA17C2EBA40202EBCF
:104390008202A1EB4202042A026040F3D2831A4B4C
:1043A00001221A607BE400BF48A5FF1FB48DFF1FE8
:1043B00070D3010078A2FF1FD1BCFF1F10A3FF1F05
:1043C000C0D10100F4BCFF1F74A3FF1F00BDFF1F7D
:1043D000FCA0FF1F70A3FF1F5CD20100C4BCFF1F25
:1043E00000A3FF1FB88DFF1F2CA3FF1FDCA2FF1F20
:1043F00084A3FF1F8988888890A3FF1F55A3FF1FF0
:10440000F0A2FF1F67666666A4BCFF1F9BF8002032
:10441000013A012A3FF6F7A8BC4E32680A2A40F258
:104420002482022A00F01B84032A26D1B84DB94FFA
:104430002868002BACBF01214FF0FF31084400F188
:104440000F031E2B286004D8F86802F045FB326881
:104450002868FB6840F2CB2101FB037393F884309A
:1044600003F03F030133C3F10101814200F3B4843F
:10447000013B8342A8BF03462B60042A00F0C5839A
:10448000062A40F09E83A34FFA6840F2CB2101FB3D
:10449000027180318B79097903F03F031B1901F018
:1044A0003F0100F11B858B42A8BF0B4603F03F0381
:1044B00040F2CB2101FB027292F8861063F30501F2
:1044C00082F88610049A01231370FFF79CB80A2D16
:1044D0007FF7C2AABEF1000F40F0A5829AF8022031
:1044E000002A7FF4B9AA03EB830203EB420340F2F4
:1044F000CB2202FB00333B4493F89120C2F300111E
:1045000081F0010161F3041283F89120002D7FF402
:104510008FA9FFF7A4BA804B9B781046002B00F0C0
:10452000BC8002F04DFBD9F80C107C480131FEF73D
:104530003DFCFFF78EBA784B9B785BB97B79754A67
:10454000002B00F06C82557102F06CFA02F0AEFAAA
:10455000FFF76EB9FB6840F2CB2202FB037303F155
:10456000840293F88D30517A83F08003DB0963F382
:10457000C7115172002B00F08B806948FEF716FCC2
:10458000FFF786BA9BF80020032A3FF63CA8DFE835
:1045900012F03C01F100F1008E00624D2E682046C1
:1045A00011F0D6FF314611F01FFF5F49044612F0AB
:1045B000C1F9002840F057815C49204612F0D8F933
:1045C00000B15A4C5A4B314620461C6012F0A8F9F3
:1045D00000287FF477AF574B2C601D68284611F0F8
:1045E000B7FF214612F008F801465348534C12F029
:1045F000B7F812F0EDF9524B524A1860002D1B68C3
:10460000B8BF0335AD1003FB05F51560106811F058
:104610009BFF4D4911F0F0FF206053E73B4C4B48A6
:104620002268013282FB00011144D317C3EBE1037E
:10463000C3EB0313D31A092B236040F33181444B9E
:1046400002221A60FFF72BBB002B3FF486AA40F230
:10465000CB2303FB0273A91E93F88E300892DB076D
:104660004CBF3C483C48FEF7A1FB089A40F2CB23E4
:1046700003FB027202F1840192F88E301A46C3F3F2
:10468000000383F0010363F300028A72FFF7E1B9CC
:104690003248FEF78BFBFFF7FBB902F0D1FAD9F8ED
:1046A0000C102F480131FEF781FBFFF7D2B92D4DD9
:1046B000296859B9002BC0F2018607D02A4B9BF814
:1046C000022018687F21FCF715F92968049A012354
:1046D00013700A2940F20681012900F0B7830629E8
:1046E00040F03983214A13681C44002C40F3BD84F8
:1046F000102C00F37884A3423FF4E4AE012C146044
:1047000000F0B8841A4B01221A70DBE6D4A2FF1F16
:1047100098A3FF1F48A5FF1FB8A2FF1F58D1010093
:10472000B0D10100BC8DFF1F000020420000964365
:1047300090A2FF1F54D20100C0E1644CE0BCFF1FF7
:10474000ACBCFF1F0CBDFF1F6F12833A898888889D
:1047500048BDFF1F74D1010080D10100B8D1010014
:1047600040D1010074A2FF1F30D20100C48DFF1F91
:1047700054A3FF1FC34D2B68002B00F0A782052B0D
:1047800000F0A482012B00F00884022B00F02885A1
:10479000032B00F00185042B3FF4FFAE062B00F045
:1047A000D383072B40F0CC84B74FFD6840F2CB2376
:1047B00003FB057393F8843003F03F030133234474
:1047C000002B40F33285402BA8BF4023581E00F039
:1047D0003F0005F1080140F2CB2202FB057207EB16
:1047E000810792F88440796860F305048B4282F86F
:1047F0008440A54C3FF766AE013B18467B6002F053
:1048000065F904EB850460665CE6A04D296860E705
:10481000FDF708FAFFF780BB9D4BD2681968284660
:1048200001F0E6FCFFF715B9994B974A1968D26871
:10483000284601F0DDFC38E5DFF880920C2403E027
:104840000134142C3EF4F4AF19F8013F002BF7D0DB
:10485000904B1A684FF0000389F800300021204681
:10486000FCF710F8ECE78C4CACE640F22141D1406B
:10487000C8070BD589490A68A0180228A8BF0220DA
:1048800020EAE07000EB800208603260012A7FF4C9
:10489000C8AD7D4FFB68234483F30303FB6011E63F
:1048A000042B7E4B3FF77CAD00221A60FFF7F7B96F
:1048B00074487B4B0168013183FB0134CB17C3EB98
:1048C000A40303EB8303A1EB4303042B0360754BA9
:1048D0003FF766AD1A60FFF7E2B90A20FEF7E8FA83
:1048E000FFF75FBB40F22143CB40DF070BD56E4A99
:1048F00013682344022BA8BF022323EAE37303EBCC
:1049000083011360296002297FF4E6AE9BF8022040
:104910001319002B40F35984102BA8BF1023934286
:104920003FF4D0AD8BF80230CCE55A4B012108465C
:104930001A68FBF76FFF282006F01CF9554B012180
:104940001A680620FBF766FF142006F013F9514B96
:1049500031461A680620FBF795FF282006F00AF971
:104960004C4B01211A680420FBF754FF142006F079
:1049700001F9484B31461A680420FBF783FF2820D1
:1049800006F0F8F8434B01211A680420FBF742FFB8
:10499000142006F0EFF83F4B31461A680420FBF76D
:1049A00071FF282006F0E6F83A4B01211A6804202E
:1049B000FBF730FF142006F0DDF8364B31461A685D
:1049C0000420FBF75FFF282006F0D4F8314B0121CB
:1049D0001A680420FBF71EFF142006F0CBF82D4BBD
:1049E00031461A680420FBF74DFF282006F0C2F874
:1049F000284B01211A680720FBF70CFF142006F052
:104A0000B9F8244B1A6831460720FBF73BFF214BCE
:104A100031461A680120FBF735FFFEF709BF02F0A7
:104A200025F8FEF705BF9AF80230002B40F02082EF
:104A30001E4B1F490198186001230B701D4A0499F1
:104A40001D4823700B701370FEF7B0F9002D7EF433
:104A5000EFAEFFF704B80F4B012108461A68FBF7C9
:104A6000D9FE282006F086F80A4B01211A68032097
:104A7000FBF7D0FE282006F07DF8064B31461A6879
:104A80000320C2E708A3FF1F48A5FF1F74A2FF1F52
:104A9000B88DFF1FB48DFF1F0000204248BDFF1FCF
:104AA000676666660CA3FF1F28BDFF1F70A3FF1F6C
:104AB000F8A2FF1FDCA2FF1F9CD101006BBDFF1FEE
:104AC000C9480168214481F3010101EB81020160C1
:104AD0002A60FFF714B9C54DC54BC6491A68C648C8
:104AE00081FB0231D317C3EB6101036801EB810144
:104AF000511A002B00F0A081012B00F0C982022B7B
:104B000000F0C2823B78002B3FF434AABB4BB9497A
:104B10001A68BB4881FB0231D317C3EB61010368FC
:104B200001EB8101511A002B00F08B81012B00F069
:104B3000A682022B7FF41EAA0820FEF7B9F9FFF720
:104B400019BAA94A1360FFF7AAB8AE4B012108466B
:104B50001A68FBF75FFE282006F00CF8A94B01212C
:104B60001A680220FBF756FE282006F003F8A54B32
:104B700031461A680220FBF785FEA24B31461A68BF
:104B80000120FBF77FFEA04B304603F1100113F824
:104B9000012F02B118708B42F9D1FEF749BE9B4B31
:104BA0009B491A681444042CA8BF04246FF0040025
:104BB0008442B8BF0446A2420C603FF483AC1C6040
:104BC00080E4072A40F0A280924FFA6840F2CB219D
:104BD00001FB02718031CB79097903F03F031B1986
:104BE00001F03F0100F1AE8101318B42A8BF0B46BD
:104BF00003F03F0340F2CB2101FB027292F88710D1
:104C000063F3050182F887105CE4824FFB6840F291
:104C1000CB2202FB037393F8852002F00F010C44B2
:104C200084F3040464F3030283F885204AE440F229
:104C30002142F240D2070BD56F490A682244022A6A
:104C4000A8BF022222EAE27202EB82060A602E600C
:104C5000A6F10B02022A3FF63BAAFFF736BA6D4FC8
:104C6000D7F80C8040F2CB2202FB087292F8841035
:104C700001F03F0101312144002940F3B081402976
:104C8000A8BF402101F1FF3E0EF03F0E08F10802DF
:104C900040F2CB2000FB087007EB820790F88450AD
:104CA0007A686EF30505914280F88450594D3FF7BC
:104CB00009AC013908460193796001F007FF05EB63
:104CC000880532686866019BFFF7AEBB52490A68E7
:104CD000224482F3010202EB82030A602B6051E559
:104CE000002B40F3188101F087F82A68494F4B499F
:104CF000FB6807EB83035B6A0B60FFF706B8042BC6
:104D00003D4B3FF74DAB1C60FEF7C9BF082A40F092
:104D1000BC82404FFB6840F2CB2202FB037393F846
:104D2000882002F03F010C4484F3040464F305027C
:104D300083F88820FFF7C6BB03EB8500DA600346E3
:104D40000122C0F818E03648C3F858E00A70FEF7B0
:104D50002DF8FEF77EBE072936D0082940F06D8277
:104D6000304F314B38681B78204480F3070038609F
:104D7000002B00F07481DFF8B880DFF8B890D8F825
:104D80000020D9F80030561C1344B34202DAFFF772
:104D900099BB38683146FBF7E5FDD8F80020D9F813
:104DA000003001361344B342F3DA29680B2940F08E
:104DB00060821E4A13682344042BA8BF042323EAFD
:104DC000E3731360FFF77EBB194A1368234483F330
:104DD00004031360FFF776BB0B46FFF74DBB0920BA
:104DE000FEF766F8FFF7DDB8A4BCFF1F55A3FF1F51
:104DF00084A3FF1F6766666690A3FF1FD4A2FF1FF0
:104E000048BDFF1FB48DFF1F6BBDFF1F74A3FF1FA5
:104E100000BDFF1F48A5FF1F0CA3FF1F70A3FF1FAE
:104E200068D1010064BDFF1F54A3FF1FDCBCFF1F3E
:104E3000E8A2FF1FC48DFF1F0320FEF739F83B785F
:104E400061E60620FEF734F8FFF794B8C94BCA496B
:104E50001A681444042CA8BF04246FF00400844290
:104E6000B8BF044694420C607FF4A9AEFFF72ABB9A
:104E700040F2CB2303FB0070DFF8089390F8840026
:104E800000F03F0001F022FE019A824205DCD9F8D1
:104E90000C3009EB8309C9F86420A5F10A01B74871
:104EA000FDF784FF002D7EF4C3ACFEF7D8BDDFF81C
:104EB000E492142403E001341C2C3EF4B9AC19F83C
:104EC000013F002BF7D0AE4B1A684FF0000389F872
:104ED000003000212046FBF7D5FCECE70023FFF76C
:104EE000E7BA00F075FF037A03F07F0600F070FF69
:104EF0003319642B017A2A68A8BF642323EAE37379
:104F000063F306010172FEF709BF204601F0DAF8EB
:104F10002A68FEF700BF3FF4E9AE00F097FF2A6869
:104F2000E4E600F055FF037803F07F0600F050FF41
:104F30003319027883F3070363F3060202702A68C9
:104F4000FEF7E6BE002355E68E4FFB6840F2CB220B
:104F500002FB037797F88E30C3F380031C1997F890
:104F60008E3000F1E780012C40F3BE8143F0040352
:104F700087F88E30844B1C68002CC8BF002507DDE5
:104F8000A9B200228148013502F034F9AC42F7D1D0
:104F9000059A01231370FFF795BA7A4FFA682244F5
:104FA00082F3030240F2CB2101FB0271FA6091F817
:104FB0008E2056077FF586AA734A1668002E09DDF3
:104FC0000027B9B200227148013702F013F9BE423E
:104FD000F7D12B68059901220A70FFF7DFBB4FF06C
:104FE000000E012152E6102B3FF46CAA102313602F
:104FF000FFF788BB624B01211A680620FBF70AFC09
:105000005F4B01211A680720FBF704FC5C4B012170
:105010001A680520FBF7FEFB594B01211A68042092
:10502000FBF7F8FB282005F0A5FD554B00211A6879
:105030000620FBF727FC524B00211A680720FBF7DC
:1050400021FC4F4B00211A680520FBF71BFC4C4B41
:1050500000211A680420FBF715FCFEF7E9BB9BF85A
:105060000210FBF77FFC2968A0E6012B3FF42AAA77
:1050700001231360464B00221A70FFF723BA072062
:10508000FDF716FFFEF776BF0520FDF711FF39E5A6
:105090000420FDF70DFF3B7835E500F099FE03781D
:1050A00003F07F0600F094FE3319027883F30703C0
:1050B00063F3060202702E68FFF70DB800F088FE59
:1050C000037A03F07F0600F083FE3319642B027A23
:1050D0002E68A8BF642323EAE37363F30602027217
:1050E000FFF708B8204600F0EDFF2E68FEF7FFBF7F
:1050F00000F06EFE837803F00F0600F069FE3319AE
:10510000827883F3040363F3030282702E68FEF750
:10511000EBBF00F05DFE437803F07F0600F058FE21
:105120003319427883F3070363F3060242702E6853
:10513000FEF7D7BF6FF3820387F88E30FFF7C2B94F
:10514000082B5BD10F4FFB6840F2CB2202FB0373AD
:1051500003F1800293F88B1001F00F031C44062C1E
:10516000A8BF062424EAE4740B4664F30303D37255
:10517000FFF7A8B974A3FF1F00BDFF1F8CD101006A
:10518000B48DFF1F48A5FF1F70D3010078A2FF1F39
:1051900054A3FF1F73BDFF1F6C4F6D48FB6840F2A7
:1051A000CB2202FB037797F88D30194603F07F037B
:1051B0002344632BA8BF632323EAE37363F306014D
:1051C000037087F88D10FFF77DB90123FFF7A7BBA8
:1051D0000120FDF76DFE3378002B3FF493AC7BE4A8
:1051E0005A4F2146F86801F023FC5A492B680A6897
:1051F000224402F306020A60FFF7D0BA092B7FF4BB
:1052000061A9524FFB6840F2CB2202FB037797F86B
:105210008E301946C3F3C0031C4484F3010464F3C5
:10522000C30187F88E10FFF74DB900200123FFF767
:10523000D0BA0220FDF73CFECDE709297FF4B6ADD8
:10524000454E9BF8022033680021234483F3070373
:1052500008463360FBF74EFB31689BF802202020A4
:10526000FBF748FB3D4B9BF802101868FBF77AFBF5
:105270009BE50C2934D13A4A1378234483F3010384
:1052800003F001031370FFF71DB9092A34D12F4F22
:10529000FB6840F2CB2202FB037797F88C3019466B
:1052A00003F07F031C44642CA8BF642424EAE47444
:1052B00064F3060187F88C10FFF704B9294B9BF8BB
:1052C00002201868FBF716FB2968FFF7FFB900F00A
:1052D0007FFD3044FF2300F8083C2E68FEF7F8BE3F
:1052E0000D2923D1204AC7E764F3820387F88E3063
:1052F000002C3FF4E7A83DE60B2A3FF423AF0C2A2D
:105300007FF4E0A8114FFB6840F2CB2202FB037749
:1053100097F88E301946C3F380031C4484F30104CC
:1053200064F3820187F88E10FFF7CCB80E297FF462
:10533000C9A80E4A13682344002B05DD102BA8BF13
:1053400010231360FFF7BEB80123FAE748A5FF1F3B
:10535000ECA2FF1FF4A2FF1FFCA2FF1F64BDFF1FF2
:1053600011A3FF1F30D20100328DFF1FB48DFF1F2C
:1053700070B5184D82B0284603F07EFCB5F90C10CC
:1053800001291FDD0022012694B26300688901967D
:105390009BB2C91A09B2C31A1BB200910D4811463B
:1053A00002F04EFD0B4803F073FD012005F0E2FB17
:1053B000B5F90C10023401EBD17322B243F34F0361
:1053C0009342E1DC4FF4FA7002B0BDE8704005F0A2
:1053D000D1BB00BFFCA0FF1F2DE9F04FA34CA44A96
:1053E0002068A44DA44F83B040F2EE2613783BB161
:1053F0002B78DB0704D5236839685B1A0E2B08D895
:10540000236811781B1A002900F02981B3F5FA6F7F
:10541000ECD901F061FC994D994F2860082007F004
:105420002DF82B68974A984903603860974B984E3F
:10543000984D994F45601760984D994A9948356045
:105440001A60086005F074FB2368974A9749019336
:10545000974B019C106000220C601A6005F068FBFD
:10546000944A954B14681860204611F071F8934BDC
:10547000934D1968DFF8AC92DFF8AC8211F0BCF8FC
:105480000146904811F06CF911F0A2FA8E4B8F4A48
:105490001860002C1B68B8BF0334A41003FB04F48D
:1054A0001460106811F050F8894911F0A5F82860CF
:1054B0000D2004F043FF06F0CFFF0D2004F03EFF67
:1054C00013F0F0FA0D2004F005FF4FF0814A4FF081
:1054D000844B0026382006F0D1FF4FF480674760E8
:1054E0000027002507624FF00107794BC0F810A094
:1054F00001222946077580F82450044601F05CFF1C
:10550000744B49F8044B43F8265001364FF40053CE
:10551000052EC4F810B048F8045B6360DAD1FBF7DD
:10552000AFF80121172005F0FDFA6B4C6B4E0C23F0
:105530001846237005F0D2FA207810F009FC0246D4
:105540000B4600204FF0804107F086FD10F026FF4B
:10555000634B30804022294628201A6005F0C0F9AC
:10556000FDF75CFA00287ED15E4B4A4F1B785E4EF9
:105570005E4D5F4C5F49604A78604FF0010E87F8DE
:1055800002E03B705D4B5E4F0968126836682D681B
:1055900024681E605D609C60D9601A61F860FDF748
:1055A00075F9FDF7F5F9FDF783FA564D564CFAF704
:1055B00081FF2846A56003F05FFBFFF7D9FEC820F6
:1055C00005F0D8FA284603F057FB04F10800012142
:1055D00002F020FA002104F1080002F01DFAFDF7A4
:1055E000AFF84A4804F0EAFB494801F0C9FC4848D2
:1055F00001F01AFD474B4648197801F09FFE464BD3
:105600001D68002DC8BF00240DDDA1B2434A4048EB
:1056100001F0F0FD3E4801F007FD0134052005F0E2
:10562000A9FAAC42F1D10520FDF760F84FF4FA7009
:1056300005F0A0FA0022ABB21146354801F0E0FDBA
:10564000334801F0F1FC642005F094FA2D4803F092
:105650001FFC334B01221A7003B0BDE8F08FB34238
:105660007FF6C4AED5E6FDF755FA9EE704CDFF1FE1
:10567000F8CDFF1F74CEFF1F80D1FF1F28A3FF1F8F
:10568000CCBCFF1F58CEFF1F5CCEFF1F28CEFF1FD4
:1056900060CEFF1F9CA3FF1F95130000B1160000F2
:1056A0003114000015140000F8BCFF1F80A3FF1F79
:1056B0004CA3FF1F54D2010004A3FF1FBC8DFF1F8A
:1056C000E0BCFF1FC0E1644CACBCFF1F0CBDFF1F62
:1056D0006F12833A14BDFF1F78A3FF1F10BDFF1F79
:1056E00050A3FF1F58D2010074D3010000D3010062
:1056F0007CD3010038D201002CD201009C8EFF1F08
:1057000048A5FF1FFCA0FF1FA8A3FF1F04A4FF1FA5
:1057100078A2FF1F3CD2010070D30100808080007E
:10572000A8BCFF1F34A3FF1F30BDFF1FF0B400252E
:105730009DF810702C4602E00134202C10D0465DFC
:105740001435002EF8D104EB8404A40006190125B9
:105750000555284671603361B2603773F0BC7047FD
:105760000020F0BC704700BFF8B50E4600F11004F1
:1057700000F52475002702E01434AC4215D014F86B
:10578000103C002BF8D02368B342F5D854F8082C0D
:1057900054F80C0C0021FBF775F814F8043C2BB9F5
:1057A00004F8107C1434AC42E9D1F8BD0021172074
:1057B00005F0A4F9F4E700BF4FF0FF31FFF7D4BFC5
:1057C000F0B400259DF814702C4602E00134202C22
:1057D00012D0465D1835002EF8D104EB4404E400E5
:1057E0000619012505557160049971612846B36059
:1057F000F2603774F0BC70470020F0BC704700BF07
:105800002DE9F0410E4600F1140400F5457500271E
:1058100002E01834AC421BD014F8143C002BF8D032
:105820002368B342F5D854F80C2C54F8081C54F8EB
:10583000100CFAF7EFFF14F8043C23B154F8100CE5
:105840001838352806D904F8147C1834AC42E3D152
:10585000BDE8F08110F07CFE084910F0CDFE07F0A5
:10586000D7FB01218046172005F048F9404611F08A
:1058700089F80146282005F033F8E4E79075924254
:10588000002308491A46CA541433B3F5207FFAD1CD
:10589000002305491A46CA541833B3F5407FFAD19C
:1058A000704700BF7CC0FF1F7CBDFF1FF0B583B0F9
:1058B00006460A9C0B98B160F260346000250094A3
:1058C0001946706000FB04F40190099B089A06F1E8
:1058D000100004F0A9F9C6F83051C6F83451C6F8E2
:1058E00038513CB3B4F1805F28D22701384606F026
:1058F000C5FDC219C6F83821C6F83001C6F8340112
:105900002B4608B103718360013C00F11000F8D10F
:1059100000233046C6F83421C6F83C31C6F8403181
:10592000C6F84431C6F84831C6F84C31C6F8503193
:1059300003B0F0BDC6F838412246E9E708F048FC5C
:1059400010B4D0F84C21D0F84831D31A9B1083B052
:1059500034D052F8043DC0F84C21DA789978FAB97D
:105960001C7958788DF8061000218DF80720996071
:105970008DF805408DF804009DF804409DF8051051
:105980009DF806209DF80730002064F3070061F3BE
:105990000F2062F3174063F31F6003B010BC704721
:1059A0000029DDD118795A788DF8061001238DF879
:1059B00005008DF804208DF80730DDE78DF8043000
:1059C0008DF805308DF806308DF80730D4E700BF2C
:1059D0002DE9F8434468D0F80080C8EB0405AD1009
:1059E0000646894605D06B009D4229D96FF0030514
:1059F00000E00425284606F041FD7468D6F80080D2
:105A00000746C8EB0404D9F80030E74218BF3B5101
:105A1000A3080DD104343C44B8F1000F02D0404635
:105A200006F02EFD3D44B56037607460BDE8F88334
:105A3000224641463846043412F05CFF3C44EEE70F
:105A4000B3F1804FD2D213B91D461F46D9E7ED00FE
:105A5000D0E700BF38B543680C4604318B42054699
:105A600002D05A1A900803D1043B6B60204638BD1F
:105A7000204612F03FFF6B68043B6B60204638BD48
:105A80002DE9F04300F1100583B00446284604F0E8
:105A9000EFF85A4B1B680193019E04F5A478012787
:105AA000284604F0BDF9002849D0284604F0C4F97E
:105AB0006268D4F830C1C0F30743C0F3076113FB39
:105AC0000212D2B24FEA0219C0F3072E0CEB0903FF
:105AD0005FFA8EF1009300296DD00129E0D1996819
