:1000000000800020BD0100008DA6000045A6000074
:1000100045A6000045A6000045A6000045A6000034
:1000200045A6000045A6000045A600008DA60000DC
:100030008DA6000045A60000E9C20000EDC2000048
:100040008DA600008DA600008DA600008DA60000E4
:100050008DA600008DA600008DA600008DA60000D4
:100060008DA600008DA600008DA600008DA60000C4
:100070008DA600008DA600008DA600008DA60000B4
:100080008DA600008DA600008DA600008DA60000A4
:100090008DA600008DA600008DA600008DA6000094
:1000A00019990000259900008DA600008DA600007A
:1000B0008DA600008DA600008DA600008DA6000074
:1000C0008DA600008DA600008DA600008DA6000064
:1000D0008DA600008DA600008DA600008DA6000054
:1000E0008DA600008DA600008DA600008DA6000044
:1000F0008DA6000069CE00008DA600008DA6000030
:100100008DA600008DA600008DA600008DA6000023
:100110008DA600008DA600008DA600008DA6000013
:100120008DA600008DA600008DA600008DA6000003
:100130008DA600008DA600008DA600008DA60000F3
:100140008DA600008DA600008DA600008DA60000E3
:100150008DA600008DA600008DA600008DA60000D3
:100160008DA6000025AF00008DA600008DA6000022
:100170008DA600008DA600008DA600008DA60000B3
:100180008DA600008DA600008DA600008DA60000A3
:100190008DA600008DA600008DA600008DA6000093
:1001A0008DA600008DA600008DA600008DA6000083
:1001B0008DA600008DA600008DA60000564B4CF2C7
:1001C000205210B51A804DF628121A8000BF00BFC9
:1001D0000AF060FA514B4FF010621A60504A9A6070
:1001E000504ADA60504A136813F4807304D14F49BF
:1001F0000B604FF4A85313604D4B1A78110703D5C9
:100200001A7842F008021A704A4B4B492A221A7097
:100210004A4A4B4B8B4204D252F8040F43F8040B6A
:10022000F8E7484B484900228B4202D243F8042B9E
:10023000FAE74649464A002352F8230041F82300D2
:1002400001336F2BF8D1434B434A802103F8011B44
:100250009342FBD1414B3D4A1A60414B8A221A70AE
:10026000A3F5805324225A70A0221A709A7992071B
:10027000FCD59A79D406FCD43A4A937903F00C035E
:10028000082B384BF9D103221A7146225A719A79F8
:100290009006FCD5334A9179324B4906FBD5324A58
:1002A0004FF0827111600921516020221A709A79F1
:1002B00002F00C020C2AFAD12C4B2D4A1A602D4B5D
:1002C0002D4A1A6000225A60072243F8042C2B4A58
:1002D000C3F80C2D62B60AF0FBFC144B1B68DA075E
:1002E00005D527480AF048FB264B274A1A60274BBA
:1002F0001B785B0609D5234C234B22689A4204D114
:100300001F480AF039FB002323600AF0C9F917F0EF
:100310005DFF0CF02FF9FEE70E2005403080044011
:10032000823F04000100002B10D0034014D0034092
:1003300002D0074000E00740009DFF1F3449020043
:100340004088FF1F009DFF1F8CCDFF1F0082FF1FF5
:100350000000000000E400E05FE400E008ED00E0E1
:1003600000500640004006404480044004800440A1
:10037000C010050014E000E0BFD401000000202000
:10038000D04BCB621CE00340A5C3945A00F0074059
:10039000FFFFFFFFFFFFFFFFFFFFFFFFFFFFFFFF6D
:1003A000FFFFFFFFFFFFFFFFFFFFFFFFFFFFFFFF5D
:1003B000FFFFFFFFFFFFFFFFFFFFFFFFFFFFFFFF4D
:1003C000FFFFFFFFFFFFFFFFFFFFFFFFFFFFFFFF3D
:1003D000FFFFFFFFFFFFFFFFFFFFFFFFFFFFFFFF2D
:1003E000FFFFFFFFFFFFFFFFFFFFFFFFFFFFFFFF1D
:1003F000FFFFFFFFFFFFFFFFFFFFFFFFFFFFFFFF0D
:10040000FFFFFFFFFFFFFFFFFFFFFFFFDEF9FFFF23
:1004100010B5054C237833B9044B13B10448AFF33E
:1004200000800123237010BD009DFF1F000000000D
:1004300078450200084B10B51BB108490848AFF3D6
:1004400000800848036803B910BD074B002BFBD0A0
:10045000BDE81040184700BF00000000049DFF1FCA
:1004600078450200009DFF1F0000000010B584B019
:100470000A4C0B4B02930B4A01924FF0FF3300934F
:100480002046094B2022802108F0FEF8074A08493F
:10049000204604B0BDE810400DF018BF1C9DFF1FA2
:1004A000801A060040420F00C48FFF1F1C89FF1FE7
:1004B000E186000030B5094C83B001252046009547
:1004C0002B463C22022108F061FA20460221A57643
:1004D00003B0BDE8304007F029BC00BF1C9DFF1FE2
:1004E00070B5CEB2044680E80600D5B2304602218F
:1004F0000AF078FB022128460AF074FB30460AF025
:1005000063FBA06028460AF05FFB0023E0602361E4
:100510006361204670BD00BF30B5044683B00078EB
:100520000AF052FB054620790AF04EFBA3689D4273
:10053000E36824D0984231D0A560E060ADB1A0B1AD
:100540002369012B37DD0023236101221E4B6169E2
:100550001B680193019B63615B1A132B32D9312B0A
:100560008CBF002301231BB201E00022134692B28C
:10057000002062F30F0063F31F4003B030BD9842C8
:10058000F3D02369A56085420CBF01224FF0FF32F2
:1005900013442361E060002DE7D0D0E72369A56014
:1005A000854214BF01224FF0FF3213442361E06003
:1005B000002DDAD0C3E7002201332261D5DA4FF0F3
:1005C000FF32C3E70223D2E724C9FF1F10B5044658
:1005D000322240F2E2430160C8B2E260A36102212C
:1005E0000AF000FB00234FF0FF3103226160227408
:1005F000A3606361204610BD10B5044682B0007848
:100600000AF0E2FA636898421B4B09D01B6800931A
:10061000E268009B60601344A360002002B010BD3C
:100620001B680193A268019B9A4209D8217C4A1E4B
:10063000032A05D8DFE802F00F020707012818D0C7
:10064000002002B010BD0028FAD1A2690120134495
:1006500063612074E2E730B10128F1D103208842C0
:100660002074DBD1ECE762699A42E9D2022020745F
:10067000D4E70420F3E700BF24C9FF1F704700BF81
:1006800010B5184C636D1868036882B0DB6947F6D3
:1006900012219847144B1B6801930120019BC4F859
:1006A000003100FA00F200234FF6FF71024384F894
:1006B000580084F8702084F85A3084F85930636602
:1006C000236684F8F83084F8753084F8743084F840
:1006D000763084F87730C4F8FC30A166E16602B069
:1006E00010BD00BF849DFF1F24C9FF1F0B4601469C
:1006F00018460AB90BF0BEB900220BF073B900BF5F
:1007000010B54FF60F000BF01FF9044B5B6D186826
:100710000368F8211B68BDE810401847849DFF1F3F
:1007200010B54FF60F200BF00FF9044B5B6D1868F6
:100730000368FA211B68BDE810401847849DFF1F1D
:1007400010B54FF60F300BF0FFF8044B5B6D1868D7
:100750000368FB211B68BDE810401847849DFF1FFC
:1007600010B54FF60F400BF0EFF8044B5B6D1868B7
:100770000368FC211B68BDE810401847849DFF1FDB
:1007800008B500200BF0F6F9003018BF012008BDB5
:100790002DE9F041E0290C469DF8185008D8013D9C
:1007A000EDB20F2D02D849B2002912DBBDE8F0816D
:1007B000F729FBD90834E4B2012303FA04F414F056
:1007C000DD0FF3D0436D18680368BDE8F0411B6886
:1007D00018471F46436D8046186803682943C9B20D
:1007E0001B6816469847D8F854301868036806F016
:1007F0007F011B6804F0EF049847C02CD6D0D8F8CE
:1008000054301868036807F07F011B68BDE8F041A9
:10081000184700BF2DE9F0415FFA82F80C0608F195
:10082000FF3504F0FE4444F410442D02064605F45E
:10083000706544F00904000482B02C4300F4FE000B
:100840000F4620430BF080F8CDF80080FBB2F2B2E7
:1008500090210348FFF79CFF02B0BDE8F08100BF84
:10086000849DFF1F00B583B0D2B20092CBB2C2B25A
:1008700090210348FFF78CFF03B05DF804FB00BF35
:10088000849DFF1F2DE9F0415FFA82F80C0608F104
:10089000FF3504F0FE4444F400442D02064605F4FE
:1008A000706544F00804000482B02C4300F4FE009C
:1008B0000F4620430BF048F8CDF80080FBB2F2B2AF
:1008C00080210348FFF764FF02B0BDE8F08100BF5C
:1008D000849DFF1F00B583B0D2B20092CBB2C2B2EA
:1008E00080210348FFF754FF03B05DF804FB00BF0D
:1008F000849DFF1F2DE9F0415FFA82F80C0608F194
:10090000FF3504F0FE4444F430442D02064605F45D
:10091000706544F00B04000482B02C4300F4FE0028
:100920000F4620430BF010F8CDF80080FBB2F2B276
:10093000B0210348FFF72CFF02B0BDE8F08100BFF3
:10094000849DFF1F00B583B0D2B20092CBB2C2B279
:10095000B0210348FFF71CFF03B05DF804FB00BFA4
:10096000849DFF1F30B50304CDB2044603F4FE039B
:10097000681E43F44043000283B043F00C0300F4CC
:10098000706018430AF0E0FF0095E2B20023C02136
:100990000248FFF7FDFE03B030BD00BF849DFF1F7E
:1009A000036810B504460BB17430984794F875305D
:1009B000803B7F2B00F28580DFE813F08A00830004
:1009C000830083008300830083008300830083000F
:1009D00083008300830083008300830096008300EC
:1009E00083008300830083008300830083008300EF
:1009F0008300830083008300830083009A008300C8
:100A000083008300830083008300830083008300CE
:100A10008300830083008300830083009E008300A3
:100A200083008300830083008300830083008300AE
:100A3000830083008300830083008300A20083007F
:100A4000830083008300830083008300830083008E
:100A5000830083008300830083008300AC00830055
:100A6000830083008300830083008300830083006E
:100A7000830083008300830083008300B000830031
:100A8000830083008300830083008300830083004E
:100A9000830083008300830083008300C400800000
:100AA000D500E50083008300ED008300F100F50030
:100AB000F900FD000101830005018400A36A002BF9
:100AC00064D110BD236D002BFBD0BDE8104018474A
:100AD000A368002BF5D094F8772094F8761094F85A
:100AE0007400BDE810401847E368002BF3D1E8E735
:100AF0002369002BEFD1E4E76369002BEBD1E0E73A
:100B0000A369002BDDD094F8761094F87400BDE84A
:100B100010401847E369002BF5D1D2E7226A002A7A
:100B2000CFD094F8771094F8763094F87400C90117
:100B300001F47E5103F07F031943A1F50051BDE894
:100B400010401047626A002ABBD094F8763094F8BF
:100B5000771043EA0121802904F1780028BF802121
:100B6000BDE810401047E26A002AAAD094F8773016
:100B700094F87600DB0103F47E5300F07F00184305
:100B8000BDE810401047236B002B9AD094F87600F4
:100B9000BDE810401847636B002B96D191E7A36B1B
:100BA000002B92D18DE7236C002B8ED189E7E36B6C
:100BB000002B8AD185E7636C002B86D181E7A36C7B
:100BC000002B82D17DE7E36C002B7FF47EAF78E7CA
:100BD000F8B5436D0446186803681B69984708B95F
:100BE0000020F8BD94F80D31626D23F0010384F804
:100BF0000D31106803685B699847C3B2FD2BEFD0D5
:100C0000626E002A49D001067ED494F85B10F02968
:100C10005FD0F7295DD0A11881F85B30216E4B1EA3
:100C20009A4253D394F85B30F02B00F00A82F72BF2
:100C300000F007821A0650D4002284F87520B02AEA
:100C40005CD0A02A5AD0D02A58D0E02A56D0C02A48
:100C500054D0002084F87400032994F85C0008BF85
:100C600094F85D5084F8760018BF0025002101201B
:100C7000B02A84F877506166216684F8F80008D0BD
:100C800000F2D581902A04D0A02A02D0802A00D078
:100C9000002384F859300120F8BD94F8592084F8D5
:100CA0005B3015064DD440B20028C0F20E8294F994
:100CB0000D01636840F0010084F80D0103B198470D
:100CC000002084F8590060662066F8BD0132626633
:100CD00086E7A11881F87830A0E703F10C02D2B2C0
:100CE000012AA9D9FD2BA7D0EF2B00F2EC8103F04C
:100CF000F002802A84F8752040F0EF8103F00F00A5
:100D0000013084F87400A7E7A3F1F0010F293FF642
:100D10007CAF012000FA01F111F0810540F0B181B2
:100D200011F45F4F3FF471AF84F8765084F8775038
:100D300084F8745084F87530C4F8FC0084F8F80026
:100D4000F8BD02F10C01CDB2012DACD9FD2AAAD01B
:100D5000EF2A00F2578102F0F006802E40F0538116
:100D600040B20028A0DB0120C9B2814284F85B2098
:100D700084F85C3060669AD9FD2A98D0EF2A94BF37
:100D800002F0F0051546A5F180037F2B8FD801A155
:100D900051F823F0FD0F0000AF0C0000AF0C000075
:100DA000AF0C0000AF0C0000AF0C0000AF0C000057
:100DB000AF0C0000AF0C0000AF0C0000AF0C000047
:100DC000AF0C0000AF0C0000AF0C0000AF0C000037
:100DD000AF0C0000FD0F0000AF0C0000AF0C0000D6
:100DE000AF0C0000AF0C0000AF0C0000AF0C000017
:100DF000AF0C0000AF0C0000AF0C0000AF0C000007
:100E0000AF0C0000AF0C0000AF0C0000AF0C0000F6
:100E1000AF0C0000FD0F0000AF0C0000AF0C000095
:100E2000AF0C0000AF0C0000AF0C0000AF0C0000D6
:100E3000AF0C0000AF0C0000AF0C0000AF0C0000C6
:100E4000AF0C0000AF0C0000AF0C0000AF0C0000B6
:100E5000AF0C0000FD0F0000AF0C0000AF0C000055
:100E6000AF0C0000AF0C0000AF0C0000AF0C000096
:100E7000AF0C0000AF0C0000AF0C0000AF0C000086
:100E8000AF0C0000AF0C0000AF0C0000AF0C000076
:100E9000AF0C0000F50F0000AF0C0000AF0C00001D
:100EA000AF0C0000AF0C0000AF0C0000AF0C000056
:100EB000AF0C0000AF0C0000AF0C0000AF0C000046
:100EC000AF0C0000AF0C0000AF0C0000AF0C000036
:100ED000AF0C0000F50F0000AF0C0000AF0C0000DD
:100EE000AF0C0000AF0C0000AF0C0000AF0C000016
:100EF000AF0C0000AF0C0000AF0C0000AF0C000006
:100F0000AF0C0000AF0C0000AF0C0000AF0C0000F5
:100F1000AF0C0000FD0F0000AF0C0000AF0C000094
:100F2000AF0C0000AF0C0000AF0C0000AF0C0000D5
:100F3000AF0C0000AF0C0000AF0C0000AF0C0000C5
:100F4000AF0C0000AF0C0000AF0C0000AF0C0000B5
:100F5000AF0C0000B30F0000F50F0000FD0F000004
:100F6000F50F0000AF0C0000AF0C0000950F000063
:100F7000B30F0000950F0000950F0000950F0000C3
:100F8000950F0000950F0000AF0C0000950F0000BA
:100F9000950F00000023012084F8743084F8763027
:100FA00084F8773084F875506366236684F8F80017
:100FB000F8BD80210023216684F8785084F85930E8
:100FC0007F21636E8B422ED302F00F020023013289
:100FD00094F85C1084F87420012084F8761084F86A
:100FE000773084F8755063662366C4F8FC0084F893
:100FF000F800F8BD022323660121E2E703232366FC
:101000000221DEE7164606F0DF05902D3FF4A8AE7C
:1010100006F0BF05A02D3FF4A3AE06F0EF06C02EEC
:101020003FF49EAE3FE6013363660020F8BDD02A50
:101030003FF42FAEE02A3FF42CAEC02A7FF428AE56
:1010400027E6F02280230025012194F8F76084F838
:10105000752084F8763084F8F720C4F8FC302046F8
:1010600084F8775084F8745084F8F810FFF798FCEF
:10107000F722022384F8796084F878202846636692
:10108000F8BD94F87810F02902D0F7297FF40FAE5C
:10109000551C224400214FEA152E82F87830012693
:1010A000F02784F8765084F877E084F8741084F898
:1010B00059103046C4F8FC5084F87570616621669A
:1010C00084F8F860F8BD1A46B7E503F10C02D2B215
:1010D000012A7FF6ECAD1A4650E6902A3FF40EAE98
:1010E000ADE500BF90F87030DA0718D513F0FE0FA9
:1010F00015D070B590F8755085F08002602A82B0E6
:1011000004460DD890F874608E4231D081B35B08EC
:10111000012B32D0032B00F09F8002B070BD7047CE
:10112000A5F1F0030F2BF8D801A252F823F000BF6D
:101130002712000005120000D3110000B7110000B3
:101140001B1100001B1100008F1100001B1100007B
:101150008F1100001B1100008F1100008F11000083
:101160008F1100001B1100008F1100008F11000073
:101170005B08012B01D0022BCFD194F8773094F883
:101180007620009629462046FFF702FBC5E705F1C9
:101190000803DBB2072BC0D8012202FA03F313F0D5
:1011A000DD0FBAD0636D1868036829461B6802B06A
:1011B000BDE870401847436D90F876501868036892
:1011C000F3211B689847636D186805F07F01036879
:1011D000ECE7436D90F87750186894F87620036830
:1011E000F2211B6842EAC5159847636D18680368C9
:1011F00005F07F011B689847636D1868C5F3C61139
:101200000368D3E7436D90F87650186894F8773008
:1012100002682D0103F00F03126805F07005F1213B
:101220001D439047BEE790F8763090F8776043EA28
:101230000626802E28BF802600F17805002E3FF478
:101240006CAF2E44636D15F8011B186803681B68AA
:101250009847B542F6D160E794F8773094F8762055
:1012600000962946FFF794FA57E700BF70B5174C70
:1012700094F85860102E02D90025284670BD2046EB
:10128000FFF7A6FC05460028F6D094F87530902BA1
:101290000CD083F08003602B0BD90C48FFF780FB48
:1012A00031460A48FFF71EFF284670BD94F8773094
:1012B0003BB194F874309E42EFD0002EEDD0002563
:1012C000EEE7802384F87530F3E700BF849DFF1FAD
:1012D000F8B5294C294F94F87030DFF8ACE0C7F826
:1012E00000E00025012243F0010362F347034FF6BB
:1012F000FF76294604F17800802284F87030676513
:1013000025606560A560E56025616561A561E561B1
:1013100025626562A562E56225636563A563E56391
:1013200025646564A564E564256584F8585084F8EF
:10133000595084F85A5025666566A666E66684F8B4
:10134000745084F8755084F8765084F8775084F897
:10135000F85017F0BBFB2046C4F80051C4F8045104
:10136000C4F8085184F80C5184F80D51044A054919
:10137000BDE8F8400CF0AABF849DFF1F809DFF1FB1
:101380001C89FF1F7D0600002C92FF1F0020704764
:10139000704700BF194B1B7870B505460E461446C2
:1013A0003BBB174B1B78CBB9A3F15533A3FB0623EB
:1013B000DB0813F0010FA3EB830306EB830318BFD5
:1013C0000C33104A104832F82310002205F072FF47
:1013D0000D4805F089FE0D4B01221A700C4B1B784D
:1013E00003B970BD2A4621463046BDE87040FFF77C
:1013F00071BA0021172009F0E1FBD2E74289FF1FF3
:10140000BC9FFF1F18D40100989EFF1FC8B8FF1F84
:10141000299FFF1F054B1B7803B9704710B40C467A
:1014200011460246204610BCFFF78CBA299FFF1FC9
:10143000024B0A460146186805F094BDECB8FF1F40
:1014400010B5044606F04AFB0A2830D00D283DD0DE
:101450004FF6FD73984201D9012010BD0346B4F93F
:101460004220B4F9401004F1080006F01BFB94F888
:101470002230032BF0D8DFE803F0140E0802B4F892
:101480004230181AA4F84200E6E7B4F84030181ABF
:10149000A4F84000E0E7B4F842301844A4F8420051
:1014A000DAE7B4F840301844A4F84000D4E794F9DF
:1014B000333094F93410B4F842205B1A13440022FC
:1014C000A4F84230A4F84020012010BD0023A4F865
:1014D0004030012010BD00BF10B50446D0F84801CF
:1014E00008B10BF051F8D4F83C0108B10BF04CF8FE
:1014F000D4F8300108B10BF047F804F1100008F0FF
:101500000FFC204610BD00BF2DE9F84FDFF85C81CD
:10151000504ED8F800301E40002EC0F29580DFF803
:1015200050914C4DD9F80030C8F800601D40002D96
:10153000C0F28580C9F800500B36C5F11A050124A8
:10154000A1B200224448013405F0B4FE0B2CF7D1BF
:10155000DFF820A1414F9AF80030002B57D14FF00F
:101560000A0B08E05D450BF1010B0FDD0134BBF107
:101570001A0FA4B21BD0B542F4DD00222146364832
:1015800005F098FE5D450BF1010BEFDCFF221146E3
:10159000388805F0B9FE05F05BFF214602462E486B
:1015A00005F088FE0134BBF11A0FA4B2E3D1FF228B
:1015B0001146388805F0A8FE05F04AFF711C024666
:1015C00089B2254805F076FED8F800300133102B9B
:1015D000C8F80030D9F8003004BF0133C9F8003032
:1015E000102B25D01E4A1F4B10681B681E49034450
:1015F000012013600870BDE8F88F0022A1B21648E0
:1016000005F058FEA54206DC01341B2CCFD0B542B4
:10161000F3DDA542F8DDFF221146388805F074FE9F
:1016200005F016FFA1B202460B4805F043FEEBE7BA
:101630009AF8003083F001038AF80030D2E7013DC8
:1016400065F00F05013575E7013E66F00F060136BE
:1016500065E700BF0F000080989EFF1F4C8AFF1FA8
:1016600004B9FF1F508AFF1F32B9FF1F609FFF1F81
:10167000A89FFF1F009FFF1F10B5183814F0ECFF44
:1016800009490A4C15F03CF80BF044FD15F0FEF941
:1016900001212060172009F091FA21682820BDE877
:1016A000104009F07DB900BF90759242E8B8FF1F65
:1016B0002D4B1B7810B50C46002B3BD12B4B1B78C8
:1016C0001BB1A4F11803352B3AD9294B1B7883BBE6
:1016D000A3F15533274AA3FB0413DB081470A3EBD3
:1016E000830204EB8204DA0713D50C34012B2DD0CE
:1016F000022B29D0032B2DD0042B2ED0052B2FD03D
:10170000062B25D0072B4FF6FF7218BF6FF07F42D4
:1017100003E06FF07F42002BE8D1174B174833F8F6
:10172000241005F0C7FD154805F0DEFC144B01221E
:101730001A7010BD114602462046FFF793F8BDE728
:101740002046FFF799FFC0E70E4AE6E70E4AE4E7B6
:101750000E4AE2E74FF47F42DFE74FF0FF12DCE78B
:101760004FF6FF72D9E700BF299FFF1F4289FF1F75
:10177000BC9FFF1F15B9FF1F18D40100989EFF1FC3
:10178000C8B8FF1F00FFFF000080FF0000FF8000BF
:101790002DE9F0471546002A63D004460F46DFF8CE
:1017A000C88000264FF6FD7900F1080A0BE006F02C
:1017B00095F90A2825D00D2832D0484511D90120A5
:1017C000013D06440AD0236817F8011B1B684345F6
:1017D0002046ECD09847013D0644F4D13046BDE8A0
:1017E000F0870346B4F94220B4F94010504606F0A1
:1017F00059F994F82230032BE1D8DFE803F02B24C9
:101800001D1694F9333094F93410B4F842205B1A61
:1018100013440022A4F84230A4F840200120CFE76E
:101820000023A4F840300120CAE7B4F84230181A67
:10183000A4F842000120C3E7B4F84030181AA4F815
:1018400040000120BCE7B4F842301844A4F842003C
:101850000120B5E7B4F840301844A4F84000012056
:10186000AEE71646BAE700BF41140000F8B50D4ECA
:1018700033689842044611D30B4A0C4D12680C4F42
:1018800085FB0215D217C2EBA505E41AFEF738FF57
:101890003B6803FB05F39C423360F6D21B1B3360AD
:1018A000F8BD00BF10B9FF1F60D30100ABAAAA2A80
:1018B000CCB8FF1F70B50D4D2B689842044612D36B
:1018C0000B4E32682A60E41A09F092F90146094881
:1018D00003F0AAFF09F08CF90146074803F0F0FF76
:1018E0002B68A342EDD91B1B2B6070BD68B9FF1F8D
:1018F000CCB8FF1F9CBCFF1F9CB9FF1FF8B50F4F52
:101900000F4D3B680F4E03EB8303044603440A4626
:1019100055F8230056F82410FEF7ECFF3B680A4FF9
:1019200056F8242047F8242003EB83031C4407497E
:10193000074855F8243002600B60F8BDFCB8FF1F63
:101940008C8AFF1F70B9FF1F2C9FFF1FB49EFF1FC3
:10195000449FFF1F2DE9F04FDFF878B2DFF8B08227
:10196000994E9A4FDFF8ACA2DFF8AC9285B05D4695
:10197000002458F8040BC0B208F040FD03460146AD
:1019800028683B6005F08AFE55F8042BDAF8001051
:10199000D36AD9F80000994200F3D4808342A8BFEB
:1019A0000346401A00F0CA805B1AC3EB833100EB98
:1019B000D07301EB630300FB03F1002993FBF0F309
:1019C000B8BF03F1FF33D91192F834203B6046F8D9
:1019D000041B002A67D07E4B1878D8B1DBF81020A2
:1019E000DBF80030D26ADFF834E293F834C09300B9
:1019F000CEF80030774ABCF1000F05D1536893F858
:101A00003430002B00F0A880734A744B12680392A4
:101A1000039A1A60724B1B78032B44D8DFE803F05B
:101A20004A02024A6F4B1B78002B55D06E4B1B7835
:101A3000002B51D06D4B6E481B686E4ADFF8E0E119
:101A400003EB83032344042C50F8233013606A4BC8
:101A5000CEF80040196000F09F8004F019FA20448D
:101A6000664B56F8042CC270DA68019340F2CB2121
:101A700001FB0232204692F8851001F00F0101317E
:101A8000FFF73CFF019BDA6840F2CB2101FB0233F8
:101A9000204693F8851001F00F010131FFF72EFF6A
:101AA000574B01221A700134052C7FF462AF05B048
:101AB000BDE8F08F534B1B68002B45D120B9484B34
:101AC00020469978FFF71AFF4D4B01340122052C6F
:101AD0001A707FF44EAFEAE74B4B1B78002B48D0CF
:101AE000424B43481B68434ADFF834E103EB83036E
:101AF0002344042C50F8233013603F4BCEF80040B1
:101B000019603E4B4AD0D86803EB800240F2CB2CE0
:101B1000526A02EB820E0CFB00F002EB4E02024412
:101B20001A442244034482F8921093F8851001F07D
:101B30000F0101312046FFF7E1FEC5E73F2141F6E5
:101B4000FF7341E70B462CE70028BDD12F4B204601
:101B50001968FFF7D3FEB7E7936893F83430002B8A
:101B60007FF452AFD36893F83430002B7FF44CAF3E
:101B700050E7224BDA6840F2CB2101FB02332046CA
:101B800093F8851001F00F0101310134FFF7B6FE23
:101B9000052C7FF4EEAE8AE7184B74E7D3F80CE01F
:101BA00003EB8E0040F2CB22406A02FB0EF24FF0B4
:101BB0000B0E0EFB0022134493F8902061F30602F3
:101BC00083F8902080E700BF70B9FF1FFC9EFF1FC5
:101BD000F0B8FF1F489FFF1F24C9FF1F989FFF1FDA
:101BE000BC9FFF1F419FFF1FF99EFF1FFCB8FF1FF7
:101BF0008C8AFF1FB49EFF1F449FFF1F68A1FF1F19
:101C0000C8B8FF1FA09FFF1F699FFF1F5889FF1FB4
:101C100048D30100B09FFF1F4889FF1F4C8AFF1F58
:101C200010A0FF1F2DE9F04F974B984C196885B015
:101C3000084614F05DFC14F04FFF9549954A0B6877
:101C40000293029B156820605B1B984208D892485B
:101C50000968037803910399116083F0010303700D
:101C60008E4B1B78002B50D08B4B1F78002F40F0F1
:101C7000C2800197BA460097894BD3F800B0BBF1F8
:101C8000010F22DD874D884EDFF84892DFF8488249
:101C9000012402E001345C4517D055F8043F0133BC
:101CA000F8D1328810464AB1202A00F0AD8099F868
:101CB000002098F8001005F027FB0246A1B27B48EF
:101CC000013405F0F7FA5C45E7D14FF47F020021BB
:101CD000764805F0EFFA009A7448012105F0EAFA17
:101CE00052460221714805F0E5FA019A6F480B212E
:101CF00005F0E0FA3A460C216C4805F0DBFA6C4B33
:101D000001221A7005B0BDE8F08F6A4B1A78002ADC
:101D100000F08580604B1B78002B7BD1994698465C
:101D2000FF220021614805F0C5FA634A5F4801219E
:101D300005F0C0FA614A5D48032105F0BBFA4FF691
:101D4000FF720421594805F0B5FA4FF0FF12052142
:101D5000564805F0AFFA524B1F68132F18DD584D47
:101D6000A7F108060B2405E04A46013405F0A2FA63
:101D7000B4420DD015F8013F4C484F4AA1B2002B98
:101D8000F2D1A1B24948013405F094FAB442F1D13C
:101D90004FF47F020621454805F08CFA132F10DD21
:101DA000484D132415F8013F40484246A1B21BB9E3
:101DB0003E484FF47F02A1B2013405F07BFABC42E9
:101DC000F0D100220221394805F074FA00220721DF
:101DD000364805F06FFA00220821344805F06AFA07
:101DE000394A3248092105F065FAFF220A212F48B5
:101DF00005F060FA83E7314A2F4B47F6FF778DE80D
:101E00000C004FF0FF1A37E7304A2848A1B205F01E
:101E100051FA3FE7DFF8A0904FF47F0880E71146C2
:101E2000224805F047FA2A4B1B78002B7FF467AF56
:101E30001B4B1E68012E7FF762AF1A4D1A4FDFF859
:101E40009490DFF89480012403E00134A6423FF42B
:101E500056AF55F8043F0133F7D13A88104642B1E6
:101E6000202A0BD099F8002098F8001005F04CFAC1
:101E70000246A1B20D4805F01DFAE6E7134A0B48E9
:101E8000A1B205F017FAE0E700B9FF1FF8B8FF1F8D
:101E900024C9FF1F5C9FFF1F88B9FF1F14B9FF1FD4
:101EA00084D401005C89FF1F4CB9FF1F989EFF1F5F
:101EB00032B9FF1FF89EFF1F0080FF0000FF800067
:101EC0008BB9FF1F93B9FF1F00FFFF0020202000E8
:101ED000F0B8FF1FCC89FF1F4C89FF1F2DE9F04F81
:101EE0009D4B9E4C196887B00746084614F000FBCE
:101EF00014F0F2FD9A4A9B4913680293029B0D6805
:101F000020605B1B98424FEA400408D8964D106849
:101F10002B78039083F0010303982B7008601368FB
:101F2000924A0493049B11688D485B1A9C4208D81E
:101F30008F4900680B7805900598106083F00103C5
:101F40000B708C4E737923B1874D2B78002B40F0AA
:101F50008B80894C2378A3B1834D2B78002B40F0E4
:101F6000B081864B1B78002B6AD0854B1B78012BE8
:101F70006ED0022B72D14D220021824805F09AF9D1
:101F80000EE07E4B1B78002B5AD0774D2B78002B20
:101F9000EBD07D4B7B4853F82720002105F08AF9D0
:101FA00040F2CB2303FB076393F88E30D90740F14F
:101FB000B080764BDFF8FC9153F82730C9F8003039
:101FC00007F1180806EB8802237854682401002BD7
:101FD00057D06F4B1B78002B53D06E4B1F68012FCF
:101FE00049DD614DDFF8D091DFF8D08101240DE0AB
:101FF000012632460B21634805F05CF90134324674
:102000001A21604805F056F9A74234D0D9F80020CB
:10201000614B1340002B6CDBD8F80020A24203F187
:102020000B0370D0A3425ED00022A1B2554805F048
:1020300041F92B78002BDBD0584A47F6FF76D9E7D9
:10204000574B1B78002BA0D14D4B1B78012B90D107
:10205000544A4C48002105F02DF9A1E70022114611
:10206000484805F027F99BE7012200214548424CEA
:1020700005F020F994E74C4B01221A7007B0BDE837
:10208000F08F474B1B78002B50D0424B1F68112F0D
:1020900009DD103F0125A9B200223A48013505F0BB
:1020A00009F9AF42F7D104F10F070B25DFF80C81D6
:1020B0000AE0D8F800309D4201D005F0FBF8013469
:1020C000BC4205F10105D6DCF3682E4806EB83031C
:1020D000A9B25B6AA3424FF00002EAD14FF40002BA
:1020E00005F0E8F8EBE72D4A2648A1B205F0E2F842
:1020F0009FE7013BD8F8002063F00F030133A242B1
:1021000003F10B038ED1274A1E48A1B205F0D2F885
:102110008FE71D491D4ADFF89C90244B51F827108A
:1021200052F82720C9F800101A6049E7F36840F216
:10213000CB2A0AFB036393F88E305A079BD41C4BBF
:102140001B78002B40F0F980124B1D68012D63DDD8
:102150000AFB076A012441E000B9FF1FF8B8FF1F1E
:1021600024C9FF1F5C9FFF1F88B9FF1F18B9FF1FFD
:1021700008B9FF1F68A1FF1F419FFF1F289FFF1F76
:10218000BC9FFF1F989EFF1F14D30100F4D20100D3
:10219000F99EFF1F84D401000F0000800080FF0023
:1021A000699FFF1F8080800032B9FF1FD49EFF1FF0
:1021B00028B9FF1F0CB9FF1F849FFF1FE4B8FF1F42
:1021C000022C6FD0FB1CA34200F082800022A1B23F
:1021D000904805F06FF80134AC4218D09AF884307A
:1021E00003F03F030B33A342F0DB012CE8D18A4B11
:1021F0005B7823B1894B1B78002B40F0E280884A42
:1022000084480121013405F055F8AC42E6D106EBD3
:102210008808D8F80440240140F2CB2B0BFB07FBC5
:1022200006EB0B0804EB84025B4608F18F0804EB15
:102230004202CDF804B01E44DFF800B2904404F12D
:102240000F0A0B2513E0A24200F0C18098F802208B
:10225000D0065DD4734A6F48294605F02BF8013447
:102260000135A245ADB208F10B08FFF604AF96F8B0
:10227000842002F03F020132A242F0DD0BEB870224
:10228000A307526ADFD0A2423AD098F80220D206C1
:102290003ED4654A1278002ADCD129465D4805F013
:1022A00009F8DCE75C4B9B7823B15C4B1B78002B77
:1022B00040F087804FF680720221564804F0FAFF02
:1022C00089E744F64D420021524804F0F3FF67E6E7
:1022D0001FFA84FB5946D9F800204E4804F0EAFF63
:1022E000514B1B78002B3FF476AF4C4B1B78002BE7
:1022F0003FF471AF59460022464804F0DBFF6AE71D
:102300009BF80520002A67D198F80220D1066CD5E9
:1023100098F80A20530709D0444A127832B9444A3F
:102320003C481268294604F0C5FF98E7D9F8002018
:102330003848294604F0BEFF91E7384D2A78002A34
:1023400051D0374A4FF680740121324804F0B2FF71
:10235000224602212F4804F0ADFF364BD3F80090FF
:10236000B9F1030FC8BF032407DDA1B20022294839
:10237000013404F09FFF4C45F7D140F2CB2303FB1F
:1023800007674FF47F0297F884902B4F06EB88067F
:10239000C9F30119002473681E4804F10B01A3421C
:1023A00089B204F1010407D004F084FFA145FFF6CF
:1023B00062AE57F8042FEEE72B78002B08BF0022FF
:1023C000F2E700222146134804F074FF03E79BF86C
:1023D0000520002A3FF43AAF4FF4000229460D4889
:1023E00004F068FF3BE71446AEE70F4A1278002A74
:1023F0007FF430AF04EB8402019B04EB42021A44E9
:102400005A4492F89120C2F30012002A7FF427AFB9
:1024100043E700BF989EFF1FD89EFF1F88B9FF1F8C
:10242000FFFF800020202000289FFF1F08B9FF1F0A
:10243000D49EFF1F84D40100E4D2010068A1FF1FD5
:1024400010B550B904460121094805F043FB214667
:102450000748BDE8104005F03FBB0021044805F0E7
:1024600039FB01210248BDE8104005F035BB00BF33
:10247000D09FFF1FA0F11803352B00D97047FFF73D
:10248000FBB800BF0021172008F098BBF8B5204D1D
:10249000DFF8A8E01F4B2D68DEF800401B6894FBB6
:1024A000F3F607461C4850F8270005EB450503FBEB
:1024B000164300EB850401337F2CCEF8003016D88C
:1024C0001546164A164E17481278347040F82740C1
:1024D00012B1154A15681D44144B2A46204643F88C
:1024E0002750FEF797F9A4F11803352B0BD9B9B291
:1024F0006FF07F420E4804F0DDFE0E490E4A0123C4
:102500000B701370F8BD2046FFF7B6F8EFE700BF79
:10251000889FFF1FD889FF1F6CD30100689FFF1F92
:1025200015B9FF1F5C89FF1F049FFF1FDC89FF1F78
:10253000989EFF1F32B9FF1FC8B8FF1FA49FFF1F3F
:1025400038B50F4D044655F820007F280DD80D4BA7
:10255000002153F82420FEF795F90021172008F0F8
:102560002DFB4FF0FF3345F82430A1B2002206487E
:1025700004F0A0FE0549064A01230B70137038BD14
:102580005C89FF1FDC89FF1F989EFF1F32B9FF1F68
:10259000C8B8FF1F2DE9F0473A4FBDF82060054647
:1025A0008946384629469246984605F0E3FA97F957
:1025B000314080B2A4B2C0EB0803341B03EBD373E9
:1025C00004EBD47409EB63030AEB6404002228468D
:1025D000A7F84030A7F8424087F8462017F0F0F8F7
:1025E00048B304463E464FF6FD7801E0013C22D058
:1025F00015F8011B234805F071FA0A282FD00D2881
:102600003BD04045F2D80346B6F94220B6F9401017
:102610001D4805F047FA96F82230032BE6D8DFE88C
:1026200003F018120C02B7F84230013CA3EB000093
:10263000A7F84200DCD1BDE8F087B7F84030181A9F
:10264000A7F84000D2E7B7F842301844A7F8420094
:10265000CCE7B7F840301844A7F84000C6E796F931
:10266000333096F93410B6F842205B1A1344002236
:10267000A6F84230A6F84020B8E70023A6F840307C
:10268000B4E700BFC89FFF1FD09FFF1F30B50546AE
:1026900083B010460C46FFF7D3FE074B1A68520072
:1026A000610116230332009309B2284612B2202397
:1026B000FFF770FF03B030BDD489FF1F30B51D4C4C
:1026C00083B0012104F1080005F0EAF904F10800E3
:1026D000194905F0F5F9002504F108000121A4F8D5
:1026E0004050A4F8425084F8465005F0F3F92946CA
:1026F00004F1080005F0F0F9104B5A781B7893426A
:1027000010D00F4B1B784BB90E4820230093142296
:102710002C235621FFF73EFF03B030BD0A4B53F880
:102720002200F2E7064A1278002AEDD0064A52F853
:102730002300EAE7C89FFF1FB4080200BC9FFF1FE9
:10274000F1B8FF1F7CD10100748AFF1F70B50646E7
:1027500084B010460D46FFF773FE0A4B1C686400F8
:1027600002A930460A22033415F070FDA4B26901B3
:102770001623009322B209B202A82023FFF70AFF12
:1027800004B070BDD489FF1FF8B5134E074600256D
:102790007088002498B12304FF2293FBF0F02844B2
:1027A000114680B204F0B0FD04F052FEA1B2024620
:1027B000094804F07FFD70880134A042EBDC064834
:1027C00004F092FC05F58075384608F033FAB5F54B
:1027D000803FDDD1F8BD00BF989EFF1F2DE9F04777
:1027E000494BDFF83C81494E0FCB86B006AC04E97B
:1027F0000F00474806F0A0FA002108F1080005F094
:102800004FF945464FF0000A4148424C06F094FA11
:102810001223002240494148A8F84030A8F842302D
:1028200088F846200FFA8AF905F04AF94FF6FD7745
:1028300001E0B44222D014F8011B394805F04EF9EA
:102840000A284FD00D285BD0B842F2D80346B5F91C
:102850004220B5F94010314805F024F995F82230AE
:10286000032BE6D8DFE803F038322C02B8F8423008
:10287000B442A3EB0000A8F84200DCD12949274864
:1028800005F01EF909F0030906AB03EB89092023C3
:1028900059F8100C00930A225021FFF77BFE1C48C8
:1028A00006F056FB0AF1010A642008F0C3F9BAF1F8
:1028B000100FA9D1642006B0BDE8F04708F0BAB9FE
:1028C000B8F84030181AA8F84000B2E7B8F842301B
:1028D0001844A8F84200ACE7B8F840301844A8F80B
:1028E0004000A6E795F9333095F93410B5F8422049
:1028F0005B1A13440022A5F84230A5F8402098E75F
:102900000023A5F8403094E734D1010066D10100DE
:102910001C9DFF1F60D1010068D60100D09FFF1FE2
:10292000C89FFF1F24DF01002DE9F04F85B001A8EB
:102930000B223C493C4E07F047FBA6F140073D46C1
:10294000002456F8043F05F5307B03F07F0AA946C2
:102950009DF804300B226AF3060309F18F0001A9E8
:1029600091448DF8043007F02FFBD945F0D140F2A7
:10297000CB2303FB04724FF00F0892F8840092F807
:10298000851092F8879092F88E3092F886A092F88F
:1029900088C092F889E068F3050064F303016FF3DF
:1029A000050982F8840092F88A0082F8851082F87E
:1029B000879092F88B104FF0030969F305004FF0F0
:1029C000020969F3030182F88B1092F88D1082F8E6
:1029D0008A004FF0010B92F88C0001F0800103F0A7
:1029E000F8035C446FF3050A6FF3050C6BF3050EF7
:1029F0006FF306006FF3C7116FF3C303082C82F85F
:102A000086A082F888C082F889E005F2CB2582F89A
:102A10008C0082F88D1082F88E3092D105B0BDE81E
:102A2000F08F00BF44D10100A8A1FF1F2DE9F041A4
:102A3000DFF880801B4BD8F800001A7803681A4C26
:102A40005B681A4F00219847D8F800002278036885
:102A500001215B689847D8F80000154A0368127B8B
:102A60005B6802219847D8F80000A2780368013A11
:102A7000D2B25B68032198470424661D3D46D8F80E
:102A8000000055F8042F036821465B68D2B2013478
:102A90009847B442F3D11D2C07F11407EDD1BDE8DE
:102AA000F08100BF7CD40100BC9FFF1F888AFF1FFC
:102AB00068A1FF1F24B9FF1F2DE9F0411E4E3068A9
:102AC000036800219B689847FF2803D01B4B1B78A5
:102AD000834202D00020BDE8F0813068184C0368C2
:102AE000DFF864809B6801219847336820701A687A
:102AF0001846022193689847336812491A68606043
:102B0000C86092681846032190470130A0700424E1
:102B1000671D45463068036821469B689847013425
:102B2000A74245F8040FF5D11D2F08F114083C46C3
:102B3000EED10120BDE8F08124B9FF1F7CD4010053
:102B4000BC9FFF1F68A1FF1F888AFF1F2DE9F84F58
:102B5000DFF854B0134FDBF80000DFF850A0036833
:102B6000DB68984703F08EF9C7F120058046A0F294
:102B7000CB29B8F1000F3C46C8BF07EB080609DDBA
:102B8000DBF800000368611914F8012B5B689847B3
:102B9000B442F5D107F2CB2757454D44E9D1BDE802
:102BA000F88F00BFECA1FF1F24B9FF1F44B8FF1F1F
:102BB0002DE9F0471A4FDFF86C803868DFF868A01D
:102BC0000368ADF5347DDB68984703F05BF920249A
:102BD000814640F2CB22002101A815F077FFB9F120
:102BE000000F04EB0906C8BF01AD09DD38680368B2
:102BF00021469B6898470134B44205F8010BF5D192
:102C000040F2CB2208F1840001A9904407F0DCF9DE
:102C1000D0453446DDD10DF5347DBDE8F08700BFE9
:102C200024B9FF1F68A1FF1FC0B7FF1FF0B5454DB6
:102C3000454A2B68454C46488BB00078059305996A
:102C40002B680693069F2B680793079E2B680893B3
:102C5000404B11601F604049404B414A089F26602D
:102C600000240F601C7101213E4E94701472DC60D0
:102C700083F82240A3F84040A3F8424083F846403E
:102C80001E60198383F821101070507007F0B0FF98
:102C9000354B364A1B68DFF838E12968344D099115
:102CA00003EB830310603349334A344E099F55F8D0
:102CB00023503348DEF8003037600D60136003F0B6
:102CC0002BF8304B304A19683048314B126801609C
:102CD0001A60084613F00CFC13F0FEFE2D4B2E4F2D
:102CE00018600B220C212D482D4E2E4DFDF7F8FBC0
:102CF00021462D48FDF76AFC2C4B2D4A19682D4BB7
:102D0000126801930623039305242B4B0093384646
:102D10002A4B029402F02AFE3246384628490BF02C
:102D2000D5FA284B284A1988B2F9002052232846A0
:102D300004F0AAFA3246284624490BF0C7FA0BB031
:102D4000F0BD00BF24C9FF1F5C9FFF1F8C9FFF1FAA
:102D500068D3010018B9FF1FF4B8FF1FC89FFF1FF9
:102D6000BC9FFF1F24D10100FCB8FF1FB49FFF1FB1
:102D70008C8AFF1FB49EFF1F449FFF1F989FFF1F59
:102D800068A1FF1FD089FF1F889FFF1FB09EFF1FF4
:102D900020B9FF1FF8B8FF1F14A0FF1F6C9FFF1F73
:102DA0001C89FF1F989EFF1FB89EFF1F5089FF1FA1
:102DB000488AFF1F848AFF1F0C8BFF1F548AFF1F46
:102DC000D914000084D4010088D4010021700000CF
:102DD00070B9FF1FF0B583B00024154D0194202673
:102DE00022468023074621460096124805F006F841
:102DF0002846012104F054FE28460F4904F060FEE5
:102E00002846012104F066FE2146284604F064FEAF
:102E100021460096384680230A22FFF7BBFB074A6B
:102E2000074B0849116001221A7003B0F0BD00BFC2
:102E3000D09FFF1F1C9DFF1F68D601001CB9FF1FFC
:102E4000C8B8FF1F20A107000FB400B589B00AABB6
:102E5000182153F8042B019302A818F043F902A893
:102E6000FFF7B8FF09B05DF804EB04B0704700BF8E
:102E700000B500EB400083B08100012202232B311A
:102E80000192009309B206231E22034804F0B6FF04
:102E900003B05DF804FB00BF1C9DFF1F89B900B59E
:102EA00000EB400183B0890001232B310193009393
:102EB00009B206231F22044804F0A0FF03B05DF806
:102EC00004FBFFF7D5BF00BF1C9DFF1F70B51C4B57
:102ED0001C481C6882B0002201250A218DE82200CE
:102EE00023B2114604F08AFF174B1648B3F900507D
:102EF000002CB4BFE11C214602262B4641F38F0172
:102F00000096002205F0F2FF04EBD4712B4600225C
:102F100041F34F0100960B4805F0E8FF204613F0FF
:102F20009BFB4FF07D5113F0EBFB13F0AFFD0096D0
:102F300001B22B460022034805F0D8FF02B070BD55
:102F400080D401001C9DFF1F14D401002DE9F04F17
:102F50009C4C0546884694E80F0091B004AE0CAF37
:102F600086E80F0087E80F000023099308930A936F
:102F70000B930C2D00F2B482DFE815F05000B9007D
:102F800068009600DA00030172019401BA01DA01C7
:102F9000FC0114020D008C4A8C4B0493059206929E
:102FA000079200254FF0040B894C039304F10800AD
:102FB00001214FF0000904F073FD04F10800854978
:102FC000DFF898A204F07CFDA4F84090A4F84290A9
:102FD00084F84690FFF77AFF494604F1080004F0B0
:102FE00079FD04F10800012104F076FD039B012422
:102FF0004FF00A09DAF80020CDF80090023A18469E
:1030000021B212B22023FFF7C5FA612C04F120048B
:1030100000F0EE81A4B256F8043FEBE76E4A6F4B26
:1030200015686F4A6F4912689B7809780A926E4A50
:10303000099304356D4B0B9105926D496D4A0895C6
:103040000493069107924FF0010BADE76A4A6B4B70
:10305000D168049340F2CB2000FB0122684D92F826
:103060008E0092F88B1092F88420664C059402F042
:103070003F02013201F00F010992634A06926FF09C
:103080007E0255F821100A920B920207C0F38005C8
:103090000E9148BF5D4A5E4958BF5E4A0895079148
:1030A0000F924FF0020B7FE750495B4A554B514C52
:1030B000059106920793049402F0EAFE464B0578C8
:1030C0001A6805F07F0504320992089502F0E0FEC7
:1030D000427802F07F020A9202F0DAFE827802F071
:1030E0000F02013223460B924FF0010B5CE7424A7C
:1030F0004A4BD5681B68099340F2CB2303FB052399
:10310000474993F88D20474B474C059302F07F02C7
:10311000464B0A920868464A07930135049408957D
:10312000069213F0B3FC4FF0010B23460B903BE7E4
:10313000404B4149414A424C07936FF07E0505914F
:1031400006920494089502F0A3FE827A3D49039406
:1031500002F007024FF0020B51F822200C9202F00D
:1031600097FE027A0A9502F07F02099202F090FE21
:10317000427A3549039B02F03F0251F822200E9219
:1031800012E732483249334A334BDFF83C9004901F
:1031900005910692079300246FF07E0502F078FEF9
:1031A000204490F90330002BC0F2948108AA42F821
:1031B00024300134042CF1D1089D049B4FF0030B03
:1031C000F2E600BF50D10100E4D1010078D1010046
:1031D000C89FFF1F84110200889FFF1FBC9FFF1F15
:1031E000449FFF1F15B9FF1FACD1010068D101003A
:1031F000B0D101009CD1010068A1FF1F84D1010062
:103200001C8BFF1FFCD1010094D10100DCD1010017
:1032100000D20100E0D101002CD20100109FFF1F5D
:10322000D089FF1FE8D1010080D10100F8D1010051
:10323000F0D101007CD101001CD2010030D201008C
:10324000A4D10100588CFF1F348FFF1F38D201001A
:103250003CD2010040D2010044D20100D489FF1FBA
:10326000A44AA54BD5681B680A9340F2CB2303FB05
:103270000523A24893F8841093F88520A04B04936B
:1032800001F03F0102F00F020131013201350991D5
:103290000B929C499C4A08950590069107924FF025
:1032A000010B81E6934A994BD168049340F2CB20FD
:1032B00000FB01224FF0020B92F88C0092F886502E
:1032C00092F8871092F8882000F07F0001F03F010B
:1032D00002F03F0205F03F0501350B9009918C4843
:1032E0000A928C498C4A08950590069107925BE6F4
:1032F000804A8A48D36840F2CB2101FB03226FF059
:103300007E0592F88B1092F88E20854B049301F085
:103310000F01C2F3800250F8210009928149824ACC
:103320000C9005910692079208954FF0030B3BE62F
:10333000704C7E4AE3681568DFF85492CDF810901F
:1033400004EB830304355A6A794B059301326C4BC5
:103350000992784A06920793089502F099FDE16870
:103360000278013102F07F024B460B910A924FF036
:10337000010B19E6704B71491B68714A7148096865
:1033800012680568099101330A936F486F4B0B92DD
:103390006F49704A089504930590069107924FF083
:1033A000020B01E66C4A6D4B15686D4A6D4904923B
:1033B0001B786D4A059101356C4906926FF07E02CB
:1033C000089507910992002B40F08E80684B0D9371
:1033D000684A694B1168694A53F8213012680E93A4
:1033E0006FF07E030A930B925D4B4FF0030BDBE50E
:1033F0000121634804F054FB6249614804F060FB1A
:1034000001215F4804F066FB00215D4804F064FB85
:1034100008F1FF33032B0DD8DFE803F023392E0228
:10342000152201238DE80C0062211D230922564834
:1034300004F0E4FC0DF1200900235C1CC8EB040639
:10344000B6FA86F6760915F17F0F19B2284632468C
:1034500028D0FFF77BF9042C2AD059F8045F2346C3
:10346000EBE7152201238DE80C0002211D23092220
:10347000454804F0C3FCDDE7152201238DE80C006C
:1034800042211D230922404804F0B8FCD2E715224E
:1034900001238DE80C0022211D2309223A4804F063
:1034A000ADFCC7E757F82300FFF7F0F8042CD4D1A0
:1034B000BBF1000F0BD000235C1CA3454FF00001B3
:1034C000184614D0FFF7EAFC042C2346F4D111B0BF
:1034D000BDE8F08F08AB47F8249043F8245068E625
:1034E0000025AB46049B5FE5284B0D9370E7FFF783
:1034F000BFFCE9E768A1FF1FB89FFF1FFCD10100D7
:1035000080D1010004D2010008D201008CD1010059
:1035100010D2010014D201001CD201001C8BFF1F2D
:1035200094D1010084D10100E4D10100889FFF1FE4
:1035300024D201009CD1010084B9FF1F049FFF1F0A
:10354000149FFF1FD889FF1FB4D101006CD1010067
:10355000BCD10100C0D10100FCB8FF1F299FFF1F93
:1035600070D10100C4D10100CCD10100D4D101003F
:10357000E0D10100A09FFF1F148BFF1F5889FF1F80
:10358000D09FFF1F9CFF01001C9DFF1FDCD101008D
:1035900068D101002DE9F04FAA4899B002F0D0FAA5
:1035A00007F026FBA84B186007F022FBA74A136818
:1035B0001060C31A079304D0A54F7B79002B40F00D
:1035C000AD85A44B0293A44B039303F007F9A348E2
:1035D00005F0B2FB029B039A1B680F93A0490F9B57
:1035E000126809689B489B1A994280F018839D4B8A
:1035F00006931A4601231370FEF7ACF99A4BDFF8D5
:103600008CB21B78002B40F097809BF800309BF821
:1036100001209A4200F09080944A8D4F14688BF8F4
:103620000130934ADBF80430FB60002C4FF00103BB
:1036300004921370C8BF002507DDA9B200228D488F
:10364000013503F037FEAC42F7D18B4B0593194699
:10365000012200230A708BF808308848FCF75CFFD1
:1036600003B20B903BB3029ABDF92E40126811923F
:103670007D4A039812781199016004FB03F404EB6E
:1036800084041C44734D002A00F074839BF80130BD
:103690001C4484F302048BF80140FFF70FF82B68F9
:1036A0001293774A129B12687649013B9B1A0B6072
:1036B000049B01221A707448FCF79EFF012800F059
:1036C0004B84022800F03583DFF87881D8F84C313C
:1036D000D8F848219B1A9B0800F09980DFF8DCA1FC
:1036E0005B4F584802F08CF9FB68179007EB830397
:1036F000C5B2A5F10B02040E01925B6EC0F3074642
:1037000000F06B81029A039912681492149A0A606D
:1037100001220AF80520002D40F0B881524B1B7899
:10372000002B40F09F819BF80030032B00F24F816B
:10373000DFE803F00AC6C60A9BF80830534A002B9C
:1037400000F00983137867E7514B1B684BB19DF874
:103750005D30022B00F0DA834E4B1B78002B40F0DB
:10376000CC80002E40F0FB80002C00F09A82002DCF
:1037700040F01C812E46474B1B78002B40F0B08058
:10378000454B01221A709AF80110002900F0AD8013
:10379000002E34D09BF800200123013A9A422ED803
:1037A000FA682B4840F2CB2404FB027494F88E4054
:1037B000640724D4002940F02A829AF80210F1B953
:1037C000E91E072940F27D850A2D18DD3349097865
:1037D000A9B93349097891B900EB82020498526E75
:1037E000037001982F49304C304D237000EB0212CA
:1037F0000A602F4A2F482B701370FFF725FBD8F86B
:103800004C31D8F848219B1A9B087FF46AAF069B7D
:103810001A78002A40F01982274C2368002B05DD16
:1038200007995B1A002B236040F3A4859BF80030B6
:10383000032B00F20E84DFE813F01204BC03BC0378
:10384000120400BF14A0FF1FB49FFF1F1C9FFF1F87
:1038500068A1FF1F24C9FF1F989FFF1F1C9DFF1F0A
:103860004489FF1FF0B8FF1FF1B8FF1F84D4010087
:10387000C8B8FF1F989EFF1F32B9FF1F6C9FFF1F24
:103880005489FF1FF4B8FF1FB89EFF1FBC9FFF1F86
:10389000A09FFF1FF89EFF1F14B9FF1F699FFF1F06
:1038A000289FFF1F849FFF1F419FFF1F409FFF1FF7
:1038B000F99EFF1FA4D201001CB9FF1FD89EFF1F55
:1038C000A44C2378002B00F02681A34A1378002B08
:1038D00040F0F481002313702370049B01211970C0
:1038E0009AF8011000297FF453AF9C4B9B78002B72
:1038F0007FF44EAF9A4B19704AE786BB002C00F05C
:10390000D081019B0F2B40F2A882012D00F0F1879E
:10391000022DE5D0032D01F04280042D01F0D58069
:10392000052D01F07D81062D01F01883EB1F012B81
:10393000D6D9092D01F040840A2D7FF418AF894BA8
:1039400001211A680020FCF765FF282007F072F9B2
:10395000844B002108461A68FCF794FFC0E7002C4E
:1039600040F0F5820126EDB97F4B1A780AB10022AA
:103970001A70002211467D4803F09CFC00220121B0
:103980007A4803F097FC00220221784803F092FC69
:1039900000220B21754803F08DFC00220C21734896
:1039A00003F088FC00230AF8053099E7019B012BFE
:1039B00040F290846B1EDAB2012A40F21C826C4BFA
:1039C0009BF8022019682846FEF760FD0026002CAF
:1039D00086D100230AF8053082E79BF80030032BDC
:1039E000F5D801A252F823F049370000F939000058
:1039F000F939000049370000002DD3D0FB6840F2B0
:103A0000CB2202FB037393F88E20520700F17582DC
:103A1000514B1B781BB957490B78002BC2D0564B22
:103A20001B68002BBEDD7B79544A002B00F06082BE
:103A3000504C2378002BB5D0DFF8589199F800301E
:103A4000002BAFD002F038FAFB6807EB83030022AB
:103A50005B6A89F80020002BA4D1237000230AF8A8
:103A600005303DE7FEF7E2FFFFF770F89BF8003006
:103A7000032B3FF635AF01A252F823F0493700007F
:103A8000C1380000C1380000493700009BF8002011
:103A9000032A9CD801A151F822F000BF4937000049
:103AA000AD3A0000AD3A000049370000294C0199B9
:103AB000227801EB0313002A6ED027490A78002AE6
:103AC00000F001810B2D00F052841A2D00F01383B9
:103AD0002B4B2C4A1B6852F825002B49264A03EB36
:103AE000430300EB830900230B70156002F0D0F94B
:103AF0000378224A69F3060303707B79002B00F0F8
:103B0000E886049A01231370002D7FF4E9AE237830
:103B1000002B7FF4DAAE1D4B1A78AAB9154B1A7830
:103B200092B90F4B1A78002A40F0A2839AF801301C
:103B3000002B00F05885012315483B74FFF784F9EA
:103B4000049A01231370CBE61D70049B01221A70A6
:103B5000C6E600BF419FFF1FF99EFF1FD89EFF1FB3
:103B600028B9FF1F5889FF1F14B9FF1F989EFF1F18
:103B7000C889FF1F699FFF1FE4B8FF1F68A1FF1FCF
:103B8000889FFF1F6CD30100409FFF1F289FFF1FCE
:103B9000B0D20100189FFF1FB8490A78002A40F0F0
:103BA000A980B7490A78002A40F0BC83F86840F23F
:103BB000CB2202FB007292F88EE01EF0040F40F060
:103BC000F9839AF801E0BEF1000F07D0AD4A927870
:103BD00022B1AD4A4FF0010C82F800C06A1E012AE2
:103BE00092D9EA1E072A00F2CA849AF80230BEF17E
:103BF000000F00F08185002B40F0818597F805E0EB
:103C0000A24BBEF1000F01F0DA80FA6079E79AF872
:103C10000220002A3FF4F3AD9B4A1370EFE50368DE
:103C20001093109B9A1A092A036800F29980984809
:103C30000C93984B9849994A069004460C98186042
:103C400000230B6013602370D6E49BF80030002B38
:103C500000F0F780032B00F0F480914805F06CF839
:103C6000049A01231370029B8E4C1B6816938E4A94
:103C7000169B216812688D4D5B1A9A42C0F04783EB
:103C8000059B8B4C1B78002B40F08D81FCF778FD59
:103C90000028FBD1FDF7EAFA0028FBD119B0BDE8F6
:103CA000F08F002D00F001829BF802102846FEF7ED
:103CB00047FC002300260AF8053011E67D497E4BBB
:103CC0000D601D6006E66A1E012A7FF61DAFEA1E22
:103CD000072A40F2C5820A2D7FF716AF7548774A4A
:103CE000036001231370049A0B701370002D7FF48E
:103CF000F7AD0CE76B1E012B7FF606AFEA1E072A15
:103D000000F286829AF80130FA60DFF88091002B89
:103D100040F059845B4B9B78002B3FF4F2AE104689
:103D200003F000F8D9F80C1065480131FFF78CF862
:103D3000E7E6534D2B78002B40F0BE8161499BF89C
:103D400000308BF8013001220A70FEF7B7FC049AAC
:103D500001231370B8E45C4B0493554B05937CE44A
:103D60004B4A0D934B4B069211460D9A1A60002355
:103D70000B7041E4554E3278002A40F0E0813F4F0D
:103D80003A78002A40F09A833D4D2A78002A00F0C4
:103D900051849BF80020013A012A3FF68CAC4C4D2F
:103DA0002A68002A00F0F886052A00F0F586012A24
:103DB00000F02487022A00F0F387032A01F0E7804D
:103DC000062A01F0C580072A01F0AE80082A40F0DB
:103DD000D18302F05DF8457A02F05AF805F03F050C
:103DE0002C44232C437AA8BF232424EAE47464F3EC
:103DF00005034372BEE3374A1278002A3FF4DFAD71
:103E0000012B3FF6E3AD344E34483368344A012D7C
:103E100014BF01214FF0FF310B4483FB0001581800
:103E2000D917C1EBE001C1EB0111591A21EAE17187
:103E300082FB01322B483160CB17C3EB6203036076
:103E4000C4E5029B1A68134B1592159A1B689A4297
:103E50007FF603AFFDF758FBFFE6234A0199535C59
:103E600083F001035354681C002B00F004821F4BA5
:103E700001211A68FCF7CEFC32E500BF289FFF1F26
:103E8000699FFF1FD89EFF1F28B9FF1F68A1FF1F52
:103E9000F0B8FF1F04B9FF1F609FFF1FA89FFF1FFF
:103EA0001C9DFF1FF4B8FF1F5489FF1F24C9FF1F6B
:103EB00032B9FF1F849FFF1FE4B8FF1F409FFF1F01
:103EC00054D20100F1B8FF1FC8B8FF1F419FFF1F68
:103ED0000C9FFF1F14B9FF1F949EFF1F89888888BD
:103EE0006766666648B9FF1F8CB9FF1F5889FF1FB8
:103EF000D168284602F02CFA9AE593F8851001F073
:103F00000F0101312846FEF71BFB81E5002D7FF4F0
:103F100023ACA64B1A7882F001021A70002A7FF4B3
:103F2000ECACA34A1268012A7FF71BAC4FF00109E1
:103F3000089409934C469146A1B200229D48013451
:103F400003F0B8F9A145F7D1089C099B05E4264682
:103F5000002D3FF410ACC3E4029B9BF801201B68CA
:103F600013939BF800300398139901609A4292488A
:103F700000F0148291490978002940F08381002BD8
:103F800000F0A280032B40F024828D498D4A0B68FB
:103F9000013382FB0320DA17C2EB600202EB8202DC
:103FA0009A1A0A60D3E6834803F09EF80023237030
:103FB0006CE6854AD36840F2CB2101FB032393F8DA
:103FC0008E30590700F18184049B1B78002B3FF44D
:103FD00057AE7A4B1B78002B7FF445AE2368002B3D
:103FE0007FF441AE794E7A4F3378002B40F09E85B6
:103FF0003B78784D002B40F0B4852B7893B9764B05
:1040000070491A68754881FB0231D317C3EB61010F
:10401000036801EB8101511A002B01F00B80012B89
:1040200001F083812B78A3B16D4B66491A686D4806
:1040300081FB0231D317C3EB6101036801EB8101FE
:10404000511A002B00F0E086012B02D10420FEF76C
:104050007DFF049B1B78002B3FF412AE03E6FDF7B7
:10406000E1FD049B1B78002B3FF40AAE534B1B78F9
:10407000002B7FF4F8AD524B52491A685A4881FB25
:104080000231D317C3EB6101006801EB8101511AC2
:10409000002800F08084012800F07C8402287FF44E
:1040A000E2AD0B20FEF752FFD3E7504B1A782E46B5
:1040B000002A7FF45CAC5CE4434FF86802F0BAFD80
:1040C0004B4B01221A7042E63D4C4A4822683D4D56
:1040D000013282FB00011144D317C3EBE103C3EBB0
:1040E0000313D31A85FB03213F482360DA17C2EB81
:1040F000610303602BE601233F4940480A681344EB
:10410000042BA8BF04236FF0040E7345B8BF734699
:104110009A4203603FF4F5AC0B60F2E4384B079C25
:1041200002931B68374A0E930E9B0392204613603E
:10413000FDF79CFB2046FDF7BDFBFFF746BA9BF859
:104140000020013A012A3FF6B6AA214F3A78002A08
:1041500040F0BA811F4D2A78002A7FF420AE2A4A07
:104160001278002A00F07182284D2E680A2E40F243
:10417000B785A6F10B02022A05D8002BC1F21C81DB
:10418000012E00F0A687022E00F03885032E00F0E5
:10419000DC87042E00F0C887062E00F0BF87072EAC
:1041A00000F0A887082E40F0E58112E6F89EFF1F78
:1041B00084D40100989EFF1FBC9FFF1FF1B8FF1F12
:1041C000949EFF1F6766666668A1FF1F419FFF1FE1
:1041D000289FFF1F699FFF1F209FFF1F249FFF1F16
:1041E0000C9FFF1FC4B8FF1F48B9FF1F14B9FF1F62
:1041F00009B9FF1F89888888889FFF1F20B9FF1F82
:1042000024C9FF1F989FFF1FF99EFF1F9C9FFF1F40
:104210000A2D7FF779ACD7F80C908F4A40F2CB2368
:1042200003FB097309F1080193F8840007EB81018E
:10423000A5F10B0E6EF3050083F884004868A5F124
:104240000A0383423FF75DAC019B089218464B601E
:1042500002F09CFC089A02EB8909C9F8640050E45A
:10426000FA60049A01231370002D7FF439AB4EE4F9
:104270001D70FFF735BB794B31461A68FCF702FB1E
:10428000FFF72EBB027002F071FC754B1C68002C0E
:10429000C8BF002507DDA9B200227248013503F02E
:1042A00009F8AC42F7D1059901220A706E4A002341
:1042B0001370FEF703FA9BF80030002B7FF462AE18
:1042C00002E76A49049A6A4813700B70FEF7BCFD56
:1042D000FFF795BA674B1B78002B3FF470AB66492C
:1042E00066480A680B2D14BF01234FF0FF331344B7
:1042F000042BA8BF04236FF00406B342B8BF3346B3
:10430000934203603FF462AB0B60FFF75FBB5C4816
:1043100004F01EFE2B681793179B049A236000235A
:104320001370ADE4FB68544A56485749126851F877
:10433000251007EB830302EB42025B6A0360534BD9
:1043400001EB82091D6001F0A3FD037869F3060308
:1043500003707B79002B00F0C4824D4A0123137057
:10436000049A1370002D7FF4BBAAFFF7D0BB4FF067
:10437000FF33C1E604999BF80030226001220A70E5
:10438000032B3FF670AC01A252F823F05F4000000F
:10439000B33F0000B33F00005F400000324A3249A3
:1043A0001278002A3FF4EBAD00220A70002B7FF454
:1043B000E9AD89E692F88520364B02F00F02013212
:1043C00019682846FEF762F8002D7FF489AAFFF7E6
:1043D0009EBB013B012B3FF6BAAC2F4E234F3378E7
:1043E000DBB12E4B1B78C3B13C78002C40F06E81C2
:1043F0002B4D2C482A68013282FB00011144D3174F
:10440000C3EBE103C3EB0313D31A092B2B6040F377
:10441000C084254B02221A6099E43B78002B40F0BF
:104420005581224D2A78002A00F09F822048214A97
:104430000168013182FB0124CA17C2EBA40202EB1E
:104440008202A1EB4202042A026040F3B0831A4BBD
:1044500001221A607BE400BF68A1FF1F5889FF1F7B
:1044600084D40100989EFF1FF1B8FF1F289FFF1FF3
:10447000C8D2010014B9FF1F889FFF1F20B9FF1F7A
:104480001C9DFF1F849FFF1F6CD30100E4B8FF1F1A
:10449000189FFF1FC889FF1F419FFF1FF99EFF1F25
:1044A0009C9FFF1F89888888AC9FFF1F699FFF1F03
:1044B0000C9FFF1F67666666C4B8FF1F9BF800204D
:1044C000013A012A3FF6F7A8BF4E32680A2A40F2A5
:1044D0002982022A00F01C84032A26D1BB4DBC4F3E
:1044E0002868002BACBF01214FF0FF31084400F1D8
:1044F0000F031E2B286004D8F86802F04DFB3268C9
:104500002868FB6840F2CB2101FB037393F88430E9
:1045100003F03F030133C3F10101814200F37E84C4
:10452000013B8342A8BF03462B60042A00F0C683E8
:10453000062A40F09F83A64FFA6840F2CB2101FB88
:10454000027180318B79097903F03F031B1901F067
:104550003F0100F176848B42A8BF0B4603F03F0376
:1045600040F2CB2101FB027292F8861063F3050141
:1045700082F88610049A01231370FFF79CB80A2D65
:104580007FF7C2AABEF1000F40F087829AF802209E
:10459000002A7FF4B9AA03EB830203EB420340F243
:1045A000CB2202FB00333B4493F89120C2F300116D
:1045B00081F0010161F3041283F89120002D7FF452
:1045C0008FA9FFF7A4BA834B9B781046002B00F00D
:1045D000BC8002F055FBD9F80C107F480131FEF782
:1045E00033FCFFF78EBA7B4B9B785BB97B79784ABB
:1045F000002B00F04E82557102F074FA02F0B6FA08
:10460000FFF76EB9FB6840F2CB2202FB037303F1A4
:10461000840293F88D30517A83F08003DB0963F3D1
:10462000C7115172002B00F08B806C48FEF70CFC18
:10463000FFF786BA9BF80020032A3FF63CA8DFE884
:1046400012F09F00F900F9008E00654D2E6820469B
:1046500012F002F8314611F04BFF6249044612F0A5
:10466000EDF9002840F05C815F49204612F004FA21
:1046700000B15D4C5D4B314620461C6012F0D4F910
:1046800000287FF477AF5A4B2C601D68284611F044
:10469000E3FF214612F034F801465648564C12F01A
:1046A000E3F812F019FA554B554A1860002D1B68B3
:1046B000B8BF0335AD1003FB05F51560106811F0A8
:1046C000C7FF504912F01CF8206053E73E4C4E489B
:1046D0002268013282FB00011144D317C3EBE103CE
:1046E000C3EB0313D31A092B236040F33681474BE6
:1046F00002221A60FFF72BBB002B3FF486AA40F280
:10470000CB2303FB0273A91E93F88E300892DB07BC
:104710004CBF3F483F48FEF797FB089A40F2CB2337
:1047200003FB027202F1840192F88E301A46C3F341
:10473000000383F0010363F300028A72FFF7E1B91B
:104740003548FEF781FBFFF7FBB902F0D9FAD9F83B
:104750000C1032480131FEF777FBFFF7D2B9304A2F
:10476000116851B9002BC0F2E48506D02D4B9BF89F
:10477000022018687F21FCF7BDF8049A012313700A
:10478000294B1B78002B7EF496AF254E33680A2BFD
:1047900040F21182012B00F03B84062B40F046834F
:1047A000224A13681C44002C40F3E584102C00F3CB
:1047B0008684A3423FF4DEAE012C146040F0848472
:1047C0001B4B00221A70D5E6F49EFF1FB89FFF1FF7
:1047D00068A1FF1FD89EFF1F60D20100B8D2010060
:1047E000D089FF1F0000204200009643B09EFF1FAB
:1047F00060D30100C0E1644C00B9FF1FCCB8FF1FBB
:104800002CB9FF1F6F12833A898888886CB9FF1F03
:104810007CD2010088D20100C0D2010048D2010040
:10482000949EFF1F38D3010014B9FF1FD889FF1FC2
:10483000689FFF1FB04D2B68002B00F0A082052B56
:1048400000F09D82012B00F04A83022B00F00285CC
:10485000032B00F0E684042B3FF4F7AE062B00F0A8
:104860001583072B40F00485A44FFD6840F2CB234D
:1048700003FB057393F8843003F03F0301332344B3
:10488000002B40F3A285402BA8BF4023581E00F008
:104890003F0005F1080140F2CB2202FB057207EB55
:1048A000810792F88440796860F305048B4282F8AE
:1048B0008440924C3FF75EAE013B18467B6002F0AD
:1048C00065F904EB8504606654E6FDF7ABF9FFF784
:1048D0007BBB8B4BD2681968284601F0E9FCFFF7D7
:1048E00010B9874B854A1968D268284601F0E0FC68
:1048F00033E5DFF834920C2403E00134142C3EF449
:10490000EFAF19F8013F002BF7D07E4B1A684FF03C
:10491000000389F8003000212046FBF7B3FFECE7E5
:10492000794CA7E640F22141D140C8070BD5774921
:104930000A68A0180228A8BF022020EAE07000EB55
:10494000800208603260012A7FF4C3AD6B4FFB68C0
:10495000234483F30303FB600CE6042B6B4B3FF70C
:1049600077AD00221A60FFF7F2B96348684B01681F
:10497000013183FB0134CB17C3EBA40303EB8303A7
:10498000A1EB4303042B0360624B3FF761AD1A6058
:10499000FFF7DDB90A20FEF7D9FAFFF75ABB594BEA
:1049A000012108461A68FBF735FF282006F042F976
:1049B000544B01211A680620FBF72CFF142006F047
:1049C00039F9504B31461A680620FBF75BFF282067
:1049D00006F030F94B4B01211A680420FBF71AFF4F
:1049E000142006F027F9474B31461A680420FBF7DC
:1049F00049FF282006F01EF9424B01211A680420C5
:104A0000FBF708FF142006F015F93E4B31461A68F3
:104A10000420FBF737FF282006F00CF9394B012161
:104A20001A680420FBF7F6FE142006F003F9354B54
:104A300031461A680420FBF725FF282006F0FAF813
:104A4000304B01211A680420FBF7E4FE142006F025
:104A5000F1F82C4B31461A680420FBF713FF28208D
:104A600006F0E8F8274B01211A680720FBF7D2FE71
:104A7000142006F0DFF8234B1A6831460720FBF7B5
:104A800001FF204B31461A680120FBF7FBFEFEF7C1
:104A900027BF02F04BF8FEF723BF9AF80230002B35
:104AA00040F086821C4B1D490198186001230B7051
:104AB0001B4A04991B4823700B701370FEF7C4F94E
:104AC000002D7EF40DAFFFF722B80E4B01210846F2
:104AD0001A68FBF79FFE282006F0ACF8094B01216D
:104AE0001A680320FBF796FE282006F0A3F8054B72
:104AF00031461A680320C2E7209FFF1F68A1FF1FED
:104B0000C889FF1F5889FF1F000020426CB9FF1F92
:104B100067666666249FFF1F849FFF1F409FFF1FDD
:104B2000F99EFF1FA4D201008BB9FF1FC64DC74BD2
:104B3000C7491A68C74881FB0231D317C3EB61012B
:104B4000036801EB8101511A002B00F06A81012BEF
:104B500000F00C83022B00F057823B78002B3FF4CF
:104B600061AABD4BBA491A68BC4881FB0231D31710
:104B7000C3EB6101036801EB8101511A002B00F0C6
:104B80004881012B00F03B82022B7FF44BAA0820C6
:104B9000FEF7DCF9FFF746BAB1480168214481F31A
:104BA000010101EB810201602A60FFF700B9AC4A04
:104BB0001360FFF7CCB840F22142DA40D7070BD59B
:104BC000A8490A682244022AA8BF022222EAE27205
:104BD00002EB82030A603360022B7FF4DBAD9BF8AB
:104BE00002201319002B40F30882102BA8BF1023BA
:104BF00093423FF4BFAC8BF80230BBE49A4B9B4925
:104C00001A681444042CA8BF04246FF004008442E2
:104C1000B8BF0446A2420C603FF4ACAC1C60A9E4EF
:104C2000934B012108461A68FBF7F4FD282006F093
:104C300001F88F4B01211A680220FBF7EBFD2820B9
:104C400005F0F8FF8A4B31461A680220FBF71AFE7E
:104C5000874B31461A680120FBF714FE854B30461E
:104C600003F1100113F8012F02B118708B42F9D132
:104C7000FEF736BE072A40F0B1807F4FFA6840F257
:104C8000CB2101FB02718031CB79097903F03F031D
:104C90001B1901F03F0100F1788101318B42A8BF5F
:104CA0000B4603F03F0340F2CB2101FB027292F866
:104CB000871063F3050182F887105BE46E4FFB6891
:104CC00040F2CB2202FB037393F8852002F00F0120
:104CD0000C4484F3040464F3030283F8852049E45C
:104CE00040F22142F240D2070BD55A490A682244C9
:104CF000022AA8BF022222EAE27202EB82060A60BE
:104D00002E60A6F10B02022A3FF63AAAFFF735BA47
:104D1000594FD7F80C8040F2CB2202FB087292F870
:104D2000841001F03F0101312144002940F3F88053
:104D30004029A8BF402101F1FF3E0EF03F0E08F1CF
:104D4000080240F2CB2000FB087007EB820790F8C6
:104D500084507A686EF30505914280F88450464D80
:104D60003FF708AC013908460193796001F00EFF66
:104D700005EB880532686866019BFFF7ADBB3F49CC
:104D80000A68224482F3010202EB82030A602B606C
:104D900058E5042B2F4B3FF75BAB1C60FEF7D7BFEA
:104DA000002B40F3248101F087F82A68324F344900
:104DB000FB6807EB83035B6A0B60FEF7FEBF03EB48
:104DC0008500DA6003460122C0F818E02D48C3F8D8
:104DD00058E00A70FEF738F8FEF793BE082A40F054
:104DE000B082254FFB6840F2CB2202FB037393F89D
:104DF000882002F03F010C4484F3040464F30502AC
:104E000083F88820FFF7B6BB0920FEF79FF8FFF76D
:104E100020B90620FEF79AF8FFF704B90B46FFF712
:104E200083BB0320FEF792F83B7897E6072B40F010
:104E30000981154A1368234483F304031360FFF7C1
:104E400099BB0023FFF78CBB699FFF1F9C9FFF1F2F
:104E500067666666AC9FFF1FF49EFF1F6CB9FF1F5D
:104E6000C4B8FF1F48B9FF1F889FFF1F20B9FF1F4D
:104E70005889FF1F8BB9FF1F68A1FF1F249FFF1FC9
:104E8000849FFF1F70D20100049FFF1FBD4FFB686E
:104E900040F2CB2202FB037797F88E30C3F38003F6
:104EA0001C1997F88E3000F10481012C40F36282C6
:104EB00043F0040387F88E30B34B1C68002CC8BF46
:104EC000002507DDA9B20022B048013502F0F2F951
:104ED000AC42F7D1059A01231370FFF74BBBA94FE2
:104EE000FA68224482F3030240F2CB2101FB0271F3
:104EF000FA6091F88E2056077FF53CABA24A1668FF
:104F0000002E09DD0027B9B20022A048013702F0C7
:104F1000D1F9BE42F7D12B68059901220A709DE4B0
:104F20004FF0000E01210AE700F0B2FF037A03F010
:104F30007F0600F0ADFF3319642B017A2A68A8BF01
:104F4000642323EAE37363F306010172FEF73EBFB5
:104F5000204601F017F92A68FEF735BFDFF84C92BA
:104F6000142403E001341C2C3EF4BAAC19F8013FC0
:104F7000002BF7D0864B1A684FF0000389F80030F9
:104F800000212046FBF77EFCECE700238BE600F0D7
:104F90007FFF037803F07F0600F07AFF3319027871
:104FA00083F3070363F3060202702A68FEF708BF63
:104FB00040F2CB2303FB0070DFF8C89190F8840027
:104FC00000F03F0001F0E2FD019A824205DCD9F8D1
:104FD0000C3009EB8309C9F86420A5F10A016D487A
:104FE000FDF732FF002D7EF47BACFEF790BD3FF461
:104FF000DDAE00F08BFF2A68D8E60123F8E5072034
:10500000FDF7A4FFFFF70EB80520FDF79FFFA4E50D
:10501000614B62491A681444042CA8BF04246FF041
:1050200004008442B8BF044694420C607FF4F6AD9D
:10503000FFF7A0BA0120FDF789FF3378002B3FF47A
:105040008CAD74E5082B40F0CA81554F554B38683C
:105050001B78204480F307003860002B00F0B981F2
:10506000DFF84C81DFF84C91D8F80020D9F80030F7
:10507000551C1344AB4202DAFFF77CBA3868294664
:10508000FBF770FCD8F80020D9F800300135134444
:10509000AB42F3DA33680B2B40F00481424A1368C9
:1050A0002344042BA8BF042323EAE3731360FFF710
:1050B00061BA6FF3820387F88E30FFF75BBA102B6B
:1050C0003FF458AA10231360364B01221A70FFF7E1
:1050D00051BA00F0DDFE037803F07F0600F0D8FE41
:1050E0003319027883F3070363F3060202702E6814
:1050F000FFF749B800F0CCFE037A03F07F0600F01A
:10510000C7FE3319642B027A2E68A8BF642323EAF2
:10511000E37363F306020272FFF744B8204601F01E
:1051200031F82E68FFF73BB800F0B2FE837803F049
:105130000F0600F0ADFE3319827883F3040363F3A6
:10514000030282702E68FFF727B800F0A1FE4378B3
:1051500003F07F0600F09CFE3319427883F30703C7
:1051600063F3060242702E68FFF713B80420FDF7C0
:10517000EDFE3B78F2E4012B3FF4FCA90123136020
:10518000FFF71EBB68A1FF1F84D40100989EFF1F7C
:105190005889FF1F94D20100889FFF1F20B9FF1F6D
:1051A00084B9FF1F689FFF1FFCB8FF1F93B9FF1F43
:1051B000049FFF1FD889FF1F974B01211A68062003
:1051C000FBF728FB944B01211A680720FBF722FB11
:1051D000914B01211A680520FBF71CFB8E4B012126
:1051E0001A680420FBF716FB282005F023FD8A4BE4
:1051F00000211A680620FBF745FB874B00211A683F
:105200000720FBF73FFB844B00211A680520FBF7C2
:1052100039FB814B00211A680420FBF733FBFEF7B2
:105220005FBB7E4F7E48FB6840F2CB2202FB0377D8
:1052300097F88D30194603F07F032344632BA8BFF2
:10524000632323EAE37363F30601037087F88D1089
:10525000FFF790B9714F2146F86801F049FC714998
:105260002B680A68224402F306020A60FFF7F6BAC6
:10527000082B23D1694FFB6840F2CB2202FB03735A
:1052800003F1800293F88B1001F00F031C44062CED
:10529000A8BF062424EAE4740B4664F30303D37224
:1052A000FFF768B90C2B20D15F4A1378234483F3AE
:1052B000010303F001031370FFF75CB9092B7FF4BE
:1052C00059A9564FFB6840F2CB2202FB037797F8AF
:1052D0008E301946C3F3C0031C4484F3010464F305
:1052E000C30187F88E10FFF745B90D2B0DD14F493B
:1052F0004F4B0A681B68A21805D49342A8BF1346F7
:105300000B60FFF737B90023FAE70E2B7FF432A9C1
:10531000414A13682344002B05DD102BA8BF10233E
:105320001360FFF727B90123FAE70220FDF70EFE0D
:1053300083E6404B9BF802201868FBF7DBFAFFF787
:105340001CBA092A1ED1354FFB6840F2CB2202FB62
:10535000037797F88C30194603F07F031C44642CC4
:10536000A8BF642424EAE47464F3060187F88C106F
:10537000FFF700B964F3820387F88E30002C3FF406
:10538000F9A899E50B2A3FF475AF0C2A7FF4F2A82F
:10539000224FFB6840F2CB2202FB037797F88E3056
:1053A0001946C3F380031C4484F3010464F38201AF
:1053B00087F88E10FFF7DEB800F06AFD3044FF2357
:1053C00000F8083C2E68FEF7DBBE00200123FFF743
:1053D00060BA9BF80210FBF7C5FA33685BE6092B4D
:1053E0007FF459AE144D9BF802202B680021234412
:1053F00083F3070308462B60FBF77CFA29689BF8C8
:1054000002202020FBF776FA0C4B9BF8021018685C
:10541000FBF7A8FA3EE600BF5889FF1F68A1FF1FEF
:10542000089FFF1F109FFF1F299FFF1FA09FFF1FA7
:105430005CD3010038D30100149FFF1F84B9FF1F04
:1054400070B5184D82B0284603F076FCB5F90C1003
:1054500001291FDD0022012694B2630068890196AC
:105460009BB2C91A09B2C31A1BB200910D4811466A
:1054700002F046FD0B4803F06BFD012005F0DAFB5E
:10548000B5F90C10023401EBD17322B243F34F0390
:105490009342E1DC4FF4FA7002B0BDE8704005F0D1
:1054A000C9BB00BF1C9DFF1F2DE9F04FA04CA14AB6
:1054B0002068A14D83B040F2EE2613780BB12B7813
:1054C00043B9236811781B1A002900F02981B3F52C
:1054D000FA6FF2D901F060FC984D994F28600820CE
:1054E00007F050F82B68974A974903603860974B4C
:1054F000974E984D984F45601760984D984A994837
:1055000035601A60086005F073FB2368964A974976
:105510000193974B019C106000220C601A6005F00B
:1055200067FB944A944B14681860204611F094F875
:10553000924B934D1968DFF8AC92DFF8AC8211F012
:10554000DFF801468F4811F08FF911F0C5FA8E4B44
:105550008E4A1860002C1B68B8BF0334A41003FBEC
:1055600004F41460106811F073F8894911F0C8F858
:1055700028600D2004F042FF06F0F2FF0D2004F039
:105580003DFF13F017FB0D2004F004FF4FF0814A9C
:105590004FF0844B0026382006F0F4FF4FF480676C
:1055A00047600027002507624FF00107784BC0F8DD
:1055B00010A001222946077580F82450044601F006
:1055C0005BFF744B49F8044B43F8265001364FF407
:1055D0000053052EC4F810B048F8045B6360DAD1BC
:1055E000FBF74EF80121172005F0FCFA6A4C6B4ED0
:1055F0000C231846237005F0D1FA207810F02CFC0B
:1056000002460B4600204FF0804107F0A7FD10F046
:1056100049FF634B30804022294628201A6005F05C
:10562000BFF9FDF749FA00287ED15E4B494F1B7840
:105630005D4E5E4D5E4C5F495F4A78604FF0010EF3
:1056400087F802E03B705D4B5D4F09681268366871
:105650002D6824681E605D609C60D9601A61F860E6
:10566000FDF762F9FDF7E2F9FDF770FA554D564C7A
:10567000FAF720FF2846A56003F05EFBFFF7E0FE87
:10568000C82005F0D7FA284603F056FB04F10800BD
:10569000012102F01FFA002104F1080002F01CFAB7
:1056A000FDF79CF8494804F0E9FB494801F0C8FCC3
:1056B000474801F019FD474B4548197801F09EFE17
:1056C000454B1D68002DC8BF00240DDDA1B2434A23
:1056D0003F4801F0EFFD3E4801F006FD0134052092
:1056E00005F0A8FAAC42F1D10520FDF74DF84FF4D2
:1056F000FA7005F09FFA0022ABB21146344801F06F
:10570000DFFD334801F0F0FC642005F093FA2D48EA
:1057100003F01EFC324B01221A7003B0BDE8F08F7B
:10572000B3427FF6CAAED5E6FDF742FA9EE700BF68
:1057300024C9FF1F08CAFF1F71CAFF1F24B9FF1F1A
:10574000ECB8FF1F64CAFF1F68CAFF1F34CAFF1FDF
:105750006CCAFF1FBC9FFF1F95130000B11600000D
:105760003114000015140000B49FFF1F989FFF1F05
:10577000609FFF1F60D301001C9FFF1FD089FF1F88
:1057800000B9FF1FC0E1644CCCB8FF1F2CB9FF1F4C
:105790006F12833A34B9FF1F909FFF1F30B9FF1F6C
:1057A000649FFF1F68D3010064D301003CD3010054
:1057B0008CD4010040D3010034D301008C8AFF1F38
:1057C00068A1FF1F1C9DFF1FC89FFF1F24A0FF1F74
:1057D000989EFF1F44D3010084D401008080800084
:1057E000C8B8FF1F489FFF1F54B9FF1FF0B4002522
:1057F0009DF810702C4602E00134202C10D0465D3C
:105800001435002EF8D104EB8404A40006190125F8
:105810000555284671603361B2603773F0BC70473C
:105820000020F0BC704700BFF8B50E4600F1100430
:1058300000F52475002702E01434AC4215D014F8AA
:10584000103C002BF8D02368B342F5D854F8082C4C
:1058500054F80C0C0021FBF715F814F8043C2BB994
:1058600004F8107C1434AC42E9D1F8BD00211720B3
:1058700005F0A4F9F4E700BF4FF0FF31FFF7D4BF04
:10588000F0B400259DF814702C4602E00134202C61
:1058900012D0465D1835002EF8D104EB4404E40024
:1058A0000619012505557160049971612846B36098
:1058B000F2603774F0BC70470020F0BC704700BF46
:1058C0002DE9F0410E4600F1140400F5457500275E
:1058D00002E01834AC421BD014F8143C002BF8D072
:1058E0002368B342F5D854F80C2C54F8081C54F82B
:1058F000100CFAF78FFF14F8043C23B154F8100C85
:105900001838352806D904F8147C1834AC42E3D191
:10591000BDE8F08110F0A0FE084910F0F1FE07F09C
:10592000F9FB01218046172005F048F9404611F0A7
:10593000ADF80146282005F033F8E4E7907592426F
:10594000002308491A46CA541433B3F5207FFAD10C
:10595000002305491A46CA541833B3F5407FFAD1DB
:10596000704700BF9CBCFF1F9CB9FF1FF0B583B000
:1059700006460A9C0B98B160F260346000250094E2
:105980001946706000FB04F40190099B089A06F127
:10599000100004F0A9F9C6F83051C6F83451C6F821
:1059A00038513CB3B4F1805F28D22701384606F065
:1059B000E9FDC219C6F83821C6F83001C6F834012D
:1059C0002B4608B103718360013C00F11000F8D14F
:1059D00000233046C6F83421C6F83C31C6F84031C1
:1059E000C6F84431C6F84831C6F84C31C6F85031D3
:1059F00003B0F0BDC6F838412246E9E708F06CFC78
:105A000010B4D0F84C21D0F84831D31A9B1083B091
:105A100034D052F8043DC0F84C21DA789978FAB9BC
:105A20001C7958788DF8061000218DF807209960B0
:105A30008DF805408DF804009DF804409DF8051090
:105A40009DF806209DF80730002064F3070061F3FD
:105A50000F2062F3174063F31F6003B010BC704760
:105A60000029DDD118795A788DF8061001238DF8B8
:105A700005008DF804208DF80730DDE78DF804303F
:105A80008DF805308DF806308DF80730D4E700BF6B
:105A90002DE9F8434468D0F80080C8EB0405AD1048
:105AA0000646894605D06B009D4229D96FF0030553
:105AB00000E00425284606F065FD7468D6F80080ED
:105AC0000746C8EB0404D9F80030E74218BF3B5141
:105AD000A3080DD104343C44B8F1000F02D0404675
