:1000000000800020BD01000005920000BD910000AD
:10001000BD910000BD910000BD910000BD910000A8
:10002000BD910000BD910000BD910000059200004F
:1000300005920000BD91000045AE000049AE0000F1
:100040000592000005920000059200000592000054
:100050000592000005920000059200000592000044
:100060000592000005920000059200000592000034
:100070000592000005920000059200000592000024
:100080000592000005920000059200000592000014
:100090000592000005920000059200000592000004
:1000A00025880000318800000592000005920000BC
:1000B00005920000059200000592000005920000E4
:1000C00005920000059200000592000005920000D4
:1000D00005920000059200000592000005920000C4
:1000E00005920000059200000592000005920000B4
:1000F000059200007DB80000059200000592000006
:100100000592000005920000059200000592000093
:100110000592000005920000059200000592000083
:100120000592000005920000059200000592000073
:100130000592000005920000059200000592000063
:100140000592000005920000059200000592000053
:100150000592000005920000059200000592000043
:1001600005920000D19A000005920000059200005F
:100170000592000005920000059200000592000023
:100180000592000005920000059200000592000013
:100190000592000005920000059200000592000003
:1001A00005920000059200000592000005920000F3
:1001B000059200000592000005920000564B4CF29B
:1001C000205210B51A804DF628121A8000BF00BFC9
:1001D00009F01CF8514B4FF010621A60504A9A60B7
:1001E000504ADA60504A136813F4807304D14F49BF
:1001F0000B604FF4A85313604D4B1A78110703D5C9
:100200001A7842F008021A704A4B4B492A221A7097
:100210004A4A4B4B8B4204D252F8040F43F8040B6A
:10022000F8E7484B484900228B4202D243F8042B9E
:10023000FAE74649464A002352F8230041F82300D2
:1002400001336F2BF8D1434B434A802103F8011B44
:100250009342FBD1414B3D4A1A60414B8A221A70AE
:10026000A3F5805324225A70A0221A709A7992071B
:10027000FCD59A79D406FCD43A4A937903F00C035E
:10028000082B384BF9D103221A7140225A719A79FE
:100290009006FCD5334A9179324B4906FBD5324A58
:1002A000324911600221516020221A709A7902F0BD
:1002B0000C020C2AFAD12E4B2E4A1A602E4B2F4AD2
:1002C0001A6000225A60072243F8042C2C4AC3F813
:1002D0000C2D62B609F0A2FA144B1B68DA0705D59B
:1002E000284809F0F1F8284B284A1A60284B1B7857
:1002F0005B0609D5244C254B22689A4204D121483B
:1003000009F0E2F8002323600DF060FC08F084FFA0
:100310000AF0CAFEFEE700BF0E2005403080044010
:10032000823F04000100002B10D0034014D0034092
:1003300002D0074000E00740249FFF1F443C01001B
:10034000308CFF1F249FFF1F48CEFF1F0082FF1F1E
:100350000000000000E400E05FE400E008ED00E0E1
:100360000050064000400640448004400000030165
:1003700004800440C010050014E000E0FF76010096
:1003800000002020C31983611CE00340A5C3945AD8
:1003900000F00740FFFFFFFFFFFFFFFFFFFFFFFF32
:1003A000FFFFFFFFFFFFFFFFFFFFFFFFFFFFFFFF5D
:1003B000FFFFFFFFFFFFFFFFFFFFFFFFFFFFFFFF4D
:1003C000FFFFFFFFFFFFFFFFFFFFFFFFFFFFFFFF3D
:1003D000FFFFFFFFFFFFFFFFFFFFFFFFFFFFFFFF2D
:1003E000FFFFFFFFFFFFFFFFFFFFFFFFFFFFFFFF1D
:1003F000FFFFFFFFFFFFFFFFFFFFFFFFFFFFFFFF0D
:10040000FFFFFFFFFFFFFFFFFFFFFFFFDEF9FFFF23
:1004100010B5054C237833B9044B13B10448AFF33E
:1004200000800123237010BD249FFF1F00000000E7
:10043000403C0100084B10B51BB108490848AFF318
:1004400000800848036803B910BD074B002BFBD0A0
:10045000BDE81040184700BF00000000289FFF1FA4
:10046000403C0100249FFF1F0000000010B584B035
:100470000A4C0B4B02930B4A01924FF0FF3300934F
:100480002046094B2022802107F08AF8074A0849B4
:10049000204604B0BDE810400CF0ACBB409FFF1FED
:1004A000801A060040420F002894FF1F0C8DFF1F8A
:1004B000F975000030B5094C83B001252046009540
:1004C0002B463C22022107F0EDF920460221A576B9
:1004D00003B0BDE8304006F0B5BB00BF409FFF1F32
:1004E00070B5CEB2044680E80600D5B2304602218F
:1004F00009F01EF90221284609F01AF9304609F0E0
:1005000009F9A060284609F005F90023E06023619D
:100510006361204670BD00BF30B5044683B00078EB
:1005200009F0F8F80546207909F0F4F8A3689D422F
:10053000E36824D0984231D0A560E060ADB1A0B1AD
:100540002369012B37DD0023236101221E4B6169E2
:100550001B680193019B63615B1A132B32D9312B0A
:100560008CBF002301231BB201E00022134692B28C
:10057000002062F30F0063F31F4003B030BD9842C8
:10058000F3D02369A56085420CBF01224FF0FF32F2
:1005900013442361E060002DE7D0D0E72369A56014
:1005A000854214BF01224FF0FF3213442361E06003
:1005B000002DDAD0C3E7002201332261D5DA4FF0F3
:1005C000FF32C3E70223D2E794CAFF1F10B50446E7
:1005D0000160C8B2022109F0ABF800234FF0FF31EF
:1005E000032261602273A3602361204610BD00BF17
:1005F00010B5044682B0007809F08CF86368984220
:100600001A4B08D01B680093009B60603233A360D4
:10061000002002B010BD1B680193A268019B9A42A2
:1006200009D8217B4A1E032A05D8DFE802F00F0211
:100630000707012818D0002002B010BD0028FAD109
:1006400003F2E243012023612073E2E730B1012885
:10065000F1D1032088422073DBD1ECE722699A4272
:10066000E9D202202073D4E70420F3E794CAFF1FE5
:10067000704700BF10B5184C636D1868036882B0EE
:10068000DB6947F612219847144B1B680193012040
:10069000019BC4F8003100FA00F200234FF6FF710D
:1006A000024384F8580084F8702084F85A3084F8A3
:1006B00059306366236684F8F83084F8753084F81E
:1006C000743084F8763084F87730C4F8FC30A16652
:1006D000E16602B010BD00BFA89FFF1F94CAFF1FB4
:1006E00010B54FF60F0009F09FFF044B5B6D1868C3
:1006F0000368F8211B68BDE810401847A89FFF1F3A
:1007000010B54FF60F2009F08FFF044B5B6D186892
:100710000368FA211B68BDE810401847A89FFF1F17
:1007200010B54FF60F3009F07FFF044B5B6D186872
:100730000368FB211B68BDE810401847A89FFF1FF6
:1007400010B54FF60F4009F06FFF044B5B6D186852
:100750000368FC211B68BDE810401847A89FFF1FD5
:1007600008B5002009F0C4FF003018BF012008BD03
:100770002DE9F041E0290C469DF8185008D8013DBC
:10078000EDB20F2D02D849B2002912DBBDE8F0818D
:10079000F729FBD90834E4B2012303FA04F414F076
:1007A000DD0FF3D0436D18680368BDE8F0411B68A6
:1007B00018471F46436D8046186803682943C9B22D
:1007C0001B6816469847D8F854301868036806F036
:1007D0007F011B6804F0EF049847C02CD6D0D8F8EE
:1007E00054301868036807F07F011B68BDE8F041CA
:1007F000184700BF2DE9F0415FFA82F80C0608F1B6
:10080000FF3504F0FE4444F410442D02064605F47E
:10081000706544F00904000482B02C4300F4FE002B
:100820000F46204309F000FFCDF80080FBB2F2B282
:1008300090210348FFF79CFF02B0BDE8F08100BFA4
:10084000A89FFF1F2DE9F0415FFA82F80C0608F11E
:10085000FF3504F0FE4444F400442D02064605F43E
:10086000706544F00804000482B02C4300F4FE00DC
:100870000F46204309F0D8FECDF80080FBB2F2B25B
:1008800080210348FFF774FF02B0BDE8F08100BF8C
:10089000A89FFF1F2DE9F0415FFA82F80C0608F1CE
:1008A000FF3504F0FE4444F430442D02064605F4BE
:1008B000706544F00B04000482B02C4300F4FE0089
:1008C0000F46204309F0B0FECDF80080FBB2F2B233
:1008D000B0210348FFF74CFF02B0BDE8F08100BF34
:1008E000A89FFF1F036810B504460BB174309847EA
:1008F00094F87530803B7F2B00F28580DFE813F0A1
:100900008A008300830083008300830083008300C8
:1009100083008300830083008300830083008300BF
:10092000960083008300830083008300830083009C
:10093000830083008300830083008300830083009F
:100940009A00830083008300830083008300830078
:10095000830083008300830083008300830083007F
:100960009E00830083008300830083008300830054
:10097000830083008300830083008300830083005F
:10098000A200830083008300830083008300830030
:10099000830083008300830083008300830083003F
:1009A000AC00830083008300830083008300830006
:1009B000830083008300830083008300830083001F
:1009C000B0008300830083008300830083008300E2
:1009D00083008300830083008300830083008300FF
:1009E000C4008000D100E10083008300E90083009F
:1009F000ED00F100F500F900FD0083000101840025
:100A0000A36A002B60D110BD236D002BFBD0BDE885
:100A100010401847A368002BF5D094F8772094F87D
:100A2000761094F87400BDE810401847E368002B76
:100A3000F3D1E8E72369002BEFD1E4E76369002BEA
:100A4000EBD1E0E7A369002BDDD094F8761094F8A1
:100A50007400BDE810401847E369002BF5D1D2E7D8
:100A6000226A002ACFD094F8771094F8763094F860
:100A70007400C90101F47E5103F07F031943A1F50D
:100A80000051BDE810401047636A002BBBD0B4F89A
:100A90007610802904F1780028BF8021BDE810403D
:100AA0001847E26A002AAED094F8773094F87600BE
:100AB000DB0103F47E5300F07F001843BDE81040D3
:100AC0001047236B002B9ED094F87600BDE81040B1
:100AD0001847636B002B9AD195E7A36B002B96D137
:100AE00091E7236C002B92D18DE7E36B002B8ED125
:100AF00089E7636C002B8AD185E7A36C002B86D134
:100B000081E7E36C002B82D17DE700BFF8B5436D30
:100B10000446186803681B69984708B90020F8BDA7
:100B200094F80D31626D23F0010384F80D311068E3
:100B300003685B699847C3B2FD2BEFD0626E002A51
:100B400049D001067ED494F85B10F0295FD0F729D4
:100B50005DD0A11881F85B30216E4B1E9A4253D3B1
:100B600094F85B30F02B00F00A82F72B00F007823C
:100B70001A0650D4002284F87520B02A5CD0A02A2E
:100B80005AD0D02A58D0E02A56D0C02A54D00020BB
:100B900084F87400032994F85C0008BF94F85D5051
:100BA00084F8760018BF002500210120B02A84F8BF
:100BB00077506166216684F8F80008D000F2D5818C
:100BC000902A04D0A02A02D0802A00D0002384F8E2
:100BD00059300120F8BD94F8592084F85B3015068F
:100BE0004DD440B20028C0F20E8294F90D01636822
:100BF00040F0010084F80D0103B19847002084F80B
:100C0000590060662066F8BD0132626686E7A11869
:100C100081F87830A0E703F10C02D2B2012AA9D9F9
:100C2000FD2BA7D0EF2B00F2EC8103F0F002802A1D
:100C300084F8752040F0EF8103F00F00013084F854
:100C40007400A7E7A3F1F0010F293FF67CAF012064
:100C500000FA01F111F0810540F0B18111F45F4F0C
:100C60003FF471AF84F8765084F8775084F874506C
:100C700084F87530C4F8FC0084F8F800F8BD02F17F
:100C80000C01CDB2012DACD9FD2AAAD0EF2A00F279
:100C9000578102F0F006802E40F0538140B20028C8
:100CA000A0DB0120C9B2814284F85B2084F85C306B
:100CB00060669AD9FD2A98D0EF2A94BF02F0F00519
:100CC0001546A5F180037F2B8FD801A151F823F0A1
:100CD000390F0000EB0B0000EB0B0000EB0B0000EA
:100CE000EB0B0000EB0B0000EB0B0000EB0B00002C
:100CF000EB0B0000EB0B0000EB0B0000EB0B00001C
:100D0000EB0B0000EB0B0000EB0B0000EB0B00000B
:100D1000390F0000EB0B0000EB0B0000EB0B0000A9
:100D2000EB0B0000EB0B0000EB0B0000EB0B0000EB
:100D3000EB0B0000EB0B0000EB0B0000EB0B0000DB
:100D4000EB0B0000EB0B0000EB0B0000EB0B0000CB
:100D5000390F0000EB0B0000EB0B0000EB0B000069
:100D6000EB0B0000EB0B0000EB0B0000EB0B0000AB
:100D7000EB0B0000EB0B0000EB0B0000EB0B00009B
:100D8000EB0B0000EB0B0000EB0B0000EB0B00008B
:100D9000390F0000EB0B0000EB0B0000EB0B000029
:100DA000EB0B0000EB0B0000EB0B0000EB0B00006B
:100DB000EB0B0000EB0B0000EB0B0000EB0B00005B
:100DC000EB0B0000EB0B0000EB0B0000EB0B00004B
:100DD000310F0000EB0B0000EB0B0000EB0B0000F1
:100DE000EB0B0000EB0B0000EB0B0000EB0B00002B
:100DF000EB0B0000EB0B0000EB0B0000EB0B00001B
:100E0000EB0B0000EB0B0000EB0B0000EB0B00000A
:100E1000310F0000EB0B0000EB0B0000EB0B0000B0
:100E2000EB0B0000EB0B0000EB0B0000EB0B0000EA
:100E3000EB0B0000EB0B0000EB0B0000EB0B0000DA
:100E4000EB0B0000EB0B0000EB0B0000EB0B0000CA
:100E5000390F0000EB0B0000EB0B0000EB0B000068
:100E6000EB0B0000EB0B0000EB0B0000EB0B0000AA
:100E7000EB0B0000EB0B0000EB0B0000EB0B00009A
:100E8000EB0B0000EB0B0000EB0B0000EB0B00008A
:100E9000EF0E0000310F0000390F0000310F00008D
:100EA000EB0B0000EB0B0000D10E0000EF0E00007A
:100EB000D10E0000D10E0000D10E0000D10E0000B6
:100EC000D10E0000EB0B0000D10E0000D10E00008F
:100ED0000023012084F8743084F8763084F8773069
:100EE00084F875506366236684F8F800F8BD8021A5
:100EF0000023216684F8785084F859307F21636E8E
:100F00008B422ED302F00F020023013294F85C10C2
:100F100084F87420012084F8761084F8773084F8FF
:100F2000755063662366C4F8FC0084F8F800F8BDC9
:100F3000022323660121E2E7032323660221DEE781
:100F4000164606F0DF05902D3FF4A8AE06F0BF056B
:100F5000A02D3FF4A3AE06F0EF06C02E3FF49EAEE8
:100F60003FE6013363660020F8BDD02A3FF42FAE80
:100F7000E02A3FF42CAEC02A7FF428AE27E6F02208
:100F800080230025012194F8F76084F8752084F807
:100F9000763084F8F720C4F8FC30204684F8775087
:100FA00084F8745084F8F810FFF79CFCF7220223B1
:100FB00084F8796084F8782028466366F8BD94F850
:100FC0007810F02902D0F7297FF40FAE551C224487
:100FD00000214FEA152E82F878300126F02784F898
:100FE000765084F877E084F8741084F8591030460D
:100FF000C4F8FC5084F875706166216684F8F86066
:10100000F8BD1A46B7E503F10C02D2B2012A7FF609
:10101000ECAD1A4650E6902A3FF40EAEADE500BFA7
:1010200090F87030DA0718D513F0FE0F15D070B5B0
:1010300090F8755085F08002602A82B004460DD881
:1010400090F874608E4231D081B35B08012B32D0AE
:10105000032B00F09B8002B070BD7047A5F1F00338
:101060000F2BF8D801A252F823F000BF6311000043
:10107000411100000F110000F31000005710000094
:1010800057100000CB10000057100000CB100000DC
:1010900057100000CB100000CB100000CB10000058
:1010A00057100000CB100000CB1000005B08012B94
:1010B00001D0022BCFD194F8773094F876200096A7
:1010C00029462046FFF754FBC5E705F10803DBB2CC
:1010D000072BC0D8012202FA03F313F0DD0FBAD0B8
:1010E000636D1868036829461B6802B0BDE870404C
:1010F0001847436D90F8765018680368F3211B6811
:101100009847636D186805F07F010368ECE7436D4D
:1011100090F87750186894F876200368F2211B68DD
:1011200042EAC5159847636D1868036805F07F01AA
:101130001B689847636D1868C5F3C6110368D3E749
:10114000436D90F87650186894F8773002682D0156
:1011500003F00F03126805F07005F1211D4390475D
:10116000BEE7B0F87660802E28BF802600F17805B3
:10117000002E3FF470AF2E44636D15F8011B186804
:1011800003681B689847B542F6D164E794F8773056
:1011900094F8762000962946FFF7EAFA5BE700BF4D
:1011A00070B5174C94F85860102E02D900252846C7
:1011B00070BD2046FFF7AAFC05460028F6D094F83B
:1011C0007530902B0CD083F08003602B0BD90C482A
:1011D000FFF788FB31460A48FFF722FF284670BD1B
:1011E00094F877303BB194F874309E42EFD0002EE3
:1011F000EDD00025EEE7802384F87530F3E700BFDB
:10120000A89FFF1FF8B5294C294F94F87030DFF8DC
:10121000ACE0C7F800E00025012243F0010362F3CF
:1012200047034FF6FF76294604F17800802284F8C0
:101230007030676525606560A560E5602561656162
:10124000A561E56125626562A562E5622563656366
:10125000A563E56325646564A564E564256584F894
:10126000585084F8595084F85A5025666566A66629
:10127000E66684F8745084F8755084F8765084F8E3
:10128000775084F8F8500CF0ABFF2046C4F80051BA
:10129000C4F80451C4F8085184F80C5184F80D5175
:1012A000044A0549BDE8F8400BF0A4BCA89FFF1F05
:1012B000A49FFF1F0C8DFF1F71060000F095FF1FFC
:1012C00000207047704700BF10B5044605F092FB40
:1012D0000A2830D00D283DD04FF6FD73984201D931
:1012E000012010BD0346B4F94220B4F9401004F1C6
:1012F000080005F063FB94F82230032BF0D8DFE8F8
:1013000003F0140E0802B4F84230181AA4F8420090
:10131000E6E7B4F84030181AA4F84000E0E7B4F863
:1013200042301844A4F84200DAE7B4F840301844D8
:10133000A4F84000D4E794F9333094F93410B4F8A9
:1013400042205B1A13440022A4F84230A4F8402043
:10135000012010BD0023A4F84030012010BD00BFC3
:1013600010B518380CF08EF909490A4C0CF0DEF96A
:101370000AF064FB0CF0A0FB01212060172008F0AC
:10138000C3F921682820BDE8104008F0AFB800BFBD
:1013900090759242CCBAFF1F00B5294B1B7883B0E1
:1013A0001BB1A1F11803352B34D9264B1B78D3B9C7
:1013B000A3F15533244AA3FB0103DB081170A3EB0F
:1013C000830201EB8201DA0710D483B91F4A204B54
:1013D000204833F8211004F0E9FE1E4804F006FE10
:1013E0001D4B01221A7003B05DF804FB0C31012B78
:1013F00018D0022B14D0032B18D0042B19D0052B96
:101400001AD0062B10D0114A4FF6FF70072B08BFD9
:101410000246DCE708460191FFF7A2FF0199C4E705
:101420000E4AD4E70E4AD2E70E4AD0E74FF47F4285
:10143000CDE74FF0FF12CAE74FF6FF72C7E700BFD4
:10144000328DFF1F94B7FF1FBEBCFF1F808080003E
:10145000C4EA0000B8A0FF1FACBAFF1F00FFFF00E6
:101460000080FF0000FF8000134B1B7810B50C4676
:10147000E3B9124B1B78C3B911491248A1FB0431DF
:10148000C90811F0010FA1EB810104EB81010E4BA2
:1014900018BF0C31002233F8211004F087FE0948F0
:1014A00004F0A4FD094B01221A7010BD0021172081
:1014B00008F02AF9DDE700BF328DFF1F94B7FF1F48
:1014C000ABAAAAAAB8A0FF1FC4EA0000ACBAFF1FCB
:1014D00070B5134D134C144B00202E46014603F5F6
:1014E000807243F8041F9342FBD105EBC003043420
:1014F0009B79DB0918BF16F8303000F1010018BFE6
:1015000003F03F03082844F8043C1346E7D1FFF7F3
:1015100017F9FFF7F5F8054B00221A7070BD00BFF0
:10152000F492FF1F28BAFF1FD4BCFF1F3493FF1F84
:101530002DE9F0471546002A63D004460F46DFF830
:10154000C88000264FF6FD7900F1080A0BE005F08F
:1015500051FA0A2825D00D2832D0484511D901204A
:10156000013D06440AD0236817F8011B1B68434558
:101570002046ECD09847013D0644F4D13046BDE802
:10158000F0870346B4F94220B4F94010504605F004
:1015900015FA94F82230032BE1D8DFE803F02B246E
:1015A0001D1694F9333094F93410B4F842205B1AC4
:1015B00013440022A4F84230A4F840200120CFE7D1
:1015C0000023A4F840300120CAE7B4F84230181ACA
:1015D000A4F842000120C3E7B4F84030181AA4F878
:1015E00040000120BCE7B4F842301844A4F842009F
:1015F0000120B5E7B4F840301844A4F840000120B9
:10160000AEE71646BAE700BFC9120000F8B50D4EA6
:1016100033689842044611D30B4A0C4D12680C4FA4
:1016200085FB0215D217C2EBA505E41AFFF758F89F
:101630003B6803FB05F39C423360F6D21B1B33600F
:10164000F8BD00BF18BCFF1FD4E90000ABAAAA2A4E
:10165000B0BAFF1F70B50D4D2B689842044612D3E7
:101660000B4E32682A60E41A08F068F8014609480F
:1016700004F002FA08F062F80146074804F048FA5C
:101680002B68A342EDD91B1B2B6070BD40A1FF1F2F
:10169000B0BAFF1F0CC8FF1F0CC5FF1FF8B50446EA
:1016A0000A4E0B4D0B4F55F820000A4656F82410F1
:1016B000FFF7F0F80849094A56F8243055F8240095
:1016C00047F8243008601360F8BD00BF48A1FF1F31
:1016D0009493FF1F60A1FF1F1CA1FF1F80A1FF1F8C
:1016E0002DE9F04FDFF81892744DDFF81882744E30
:1016F000744FDFF814B2DFF814A283B0002459F855
:10170000040BC0B207F034FC0346014628683B6076
:1017100004F052FF55F8041BDBF80000CA6ADAF83F
:101720000030904200F3A6809342D4BFC0EB030286
:10173000C0EB02021B1AB3F5804FAABF9203C2EBA3
:101740008232013392FBF3F391F834203B604FEA8D
:10175000E31E48F804EB002A58D05B4B1B78032BA0
:1017600054D8DFE803F04B02024B584B1B78002B98
:1017700053D0574B1B78002B4FD0564A5649574BE6
:101780001460042C32680A60C3F800E000F0818025
:10179000534A544B1168D3F800C0534A019301EBEC
:1017A000810001EB40014FF4307000FB0C1002EBA4
:1017B000CC01DFF848C1009249788444A44401F088
:1017C0000F01013120468CF803E0FFF767FF9DE829
:1017D0000C001B6802EBC3022046517801F00F0198
:1017E0000131FFF75BFF0134404B0122052C1A70D9
:1017F00006F1040683D103B0BDE8F08F3C4B2046D0
:101800001968FFF74BFF394B01221A700134052C80
:1018100006F104067FF473AFEDE7364B1B785BB33C
:101820002C4A2E4B2C491460042C3268C3F800E07B
:101830000A602C4B30D01B682F492B4A51F82310DB
:1018400001EB810001EB40014FF4307002EBC30269
:1018500000FB0313294851780344234401F00F018E
:101860000131204683F803E0FFF718FF1F4B0122E8
:101870001A70CBE700225DE71A4B1B4A1B6802EB8C
:10188000C3022046517801F00F010131FFF706FF36
:10189000BCE7144B144A9CE71B68174A174852F8D8
:1018A00023204FF4307101FB03F10B2303FB0213E0
:1018B00003445A786EF306025A70D7E7D0BAFF1F76
:1018C0009493FF1F18A1FF1F94B7FF1F7CA1FF1F58
:1018D00014A1FF1FA4BAFF1F1CA1FF1F80A1FF1F9F
:1018E000B0B7FF1FE4C4FF1FF492FF1FACBAFF1F85
:1018F000348DFF1F95B7FF1F28BAFF1F94A1FF1F4C
:10190000C0E9000048A1FF1F50BAFF1FF08DFF1F64
:1019100030B5214B214C196883B008460BF0FEFD11
:101920000CF0F0F81E491F4A0B680093009B1568E5
:1019300020605B1B984208D81B4809680378019116
:101940000199116083F001030370184B1C7864B196
:101950004FF47F020021164804F028FC124B1B783C
:10196000BBB1144A47F6FF7405E0224621461048F1
:1019700004F01CFC22460B210D4804F017FC224603
:101980001A210B4804F012FC0B4B01221A7003B011
:1019900030BD01242246EEE70CBCFF1F34A1FF1F1F
:1019A00094CAFF1F88A1FF1F08C5FF1F1CBCFF1F93
:1019B000B8A0FF1F0080FF00BFBCFF1F2DE9F04F44
:1019C000B14BB24D196887B0044608460BF0A6FD2E
:1019D0000CF098F8AE4AAF4913680293029B0E6868
:1019E00028609B1B98424FEA40050BD8DFF8EC8239
:1019F000106898F80030039083F00103039888F88A
:101A0000003008601368A44A0493049B1168A0483E
:101A10005B1A9D4208D8A14900680B78059005988B
:101A2000106083F001030B70DFF8B4A29AF8003065
:101A300033B1DFF8A88298F80030002B40F0938093
:101A4000974D2B78B3B1DFF8948298F80030002BD3
:101A500040F05881934B1B78002B70D0924B1B7831
:101A6000012B74D0022B78D14D2200218F4804F035
:101A70009DFB10E08B4B1B78002B60D0DFF85C8265
:101A800098F80030002BE9D0894B884853F824207F
:101A9000002104F08BFB874E06EBC403DB79D807EB
:101AA00040F19C80844BDFF83C8253F82430C8F826
:101AB0000030DFF834922B7859F824502D01002B98
:101AC0005ED07E4B1B78002B5AD005F10F03DFF858
:101AD0000C82DFF818A2DFF818B201930B2711E08F
:101AE000774A47F6FF790B21704804F05FFB4A46BE
:101AF0001A216E4804F05AFB019B013501379D42C3
:101B0000BFB237DC16F8343003F03F0301339D4297
:101B100008DADAF800309D4200F0EE80DBF80030A1
:101B20009D4268D000223946604804F03FFB98F897
:101B30000030002BD4D14FF001094A46D3E7614B66
:101B40001B78002B9AD1584B1B78012B8AD15E4A07
:101B50005648002104F02AFB9DE700221146534815
:101B600004F024FB97E70122002150484C4D04F07B
:101B70001DFB90E7554B01221A7007B0BDE8F08FAE
:101B8000504B1B78002B3CD0DFF86891DFF844A164
:101B900005F10F080B2714E0DAF80030434859F834
:101BA0002330AB424FF00002B9B268D0DEF800300B
:101BB0009F4201D004F0FAFA0135A84507F1010768
:101BC000D8DB16F83430DFF824E103F03F030133AB
:101BD000AB42E1DC0022B9B23448EBE73449364A83
:101BE000DFF800813A4B51F8241052F82420C8F84D
:101BF00000101A605DE7324A2C48394604F0D6FAE4
:101C000095E7344B1B6806EBC303DB795907B1D466
:101C1000314B1B78002B7CD10227012509E00022E3
:101C2000A9B2224804F0C2FA1B2F00F09D800135B2
:101C3000013716F8343003F03F030B33AB42EEDBD1
:101C4000012D00F01681022D00F00681E31CAB424D
:101C5000E5D11FFA85FB5946D8F80020134804F057
:101C6000A5FA104B1B78002BDED01C4B1B78002BE9
:101C7000DAD0594600220D4804F098FAD4E74FF420
:101C8000000204F093FA97E70CBCFF1F34A1FF1F7A
:101C900094CAFF1F88A1FF1F10A1FF1F10BCFF1FC8
:101CA0007CA1FF1F8CA1FF1F94B7FF1FB8A0FF1FCF
:101CB0008CE90000F492FF1F6CE9000014A1FF1FE3
:101CC0000080FF0095B7FF1F80808000BFBCFF1F12
:101CD000E8A0FF1FE4C4FF1F30BCFF1F08C5FF1FA3
:101CE000ECA0FF1F14BCFF1FE8C4FF1FC8BAFF1FF2
:101CF000B0B7FF1F28BAFF1F674A6848394604F08B
:101D000055FA14E744F64D420021644804F04EFAB7
:101D1000C1E60125A9B200226048013504F046FA67
:101D20001B2DF7D116F83470DFF894815C4EC7F3A1
:101D300001174FF47F02002559F82430574805F168
:101D40000B01AB4289B205F1010507D004F02EFA70
:101D5000AF42FFF60FAF56F8042FEDE798F80030CA
:101D6000002B08BF0022F1E759F824504FF43079D6
:101D70002D0105F10F0B09FB04F90B2716E0AB420F
:101D80005FD005EB8503474A05EB43034B441344FF
:101D90009A78D00641D4444A4048394604F006FABD
:101DA00001350137AB45BFB2FFF6E4AE16F834306B
:101DB00003F03F030133AB42F2DD3C4B1B78CBB960
:101DC0003B4BAA0753F82430D9D0AB4218D005EBCF
:101DD0008503344A05EB43034B4413449A78D206F7
:101DE0001BD4324B1A78002ADAD139462B4804F03A
:101DF000DDF9D5E72C4A2948394604F0D7F9DFE761
:101E00009AF800200ABB05EB8503264905EB43033E
:101E10004B440B449978C906E7D59B7A5B0709D0F8
:101E2000244B1B7833B9244B1C481A68394604F0FC
:101E3000BDF9B5E7D8F800201848394604F0B6F9DE
:101E4000AEE79AF80030002B9BD04FF400023946E1
:101E5000124804F0ABF9A3E7184B9B7813B1184B69
:101E60001B7893B94FF6807202210C4804F09EF95A
:101E7000DDE6124B5B7813B1114B1B782BB9114A7D
:101E80000648012104F092F9D1E6002229460348D0
:101E900004F08CF9CBE600BF80808000B8A0FF1F63
:101EA0005CE9000094A1FF1F202020008CA1FF1FEF
:101EB00028BAFF1F10BCFF1FE8A0FF1FF0A0FF1FE4
:101EC00008C5FF1FFFFF800010B550B9044601216F
:101ED000094804F08BFD21460748BDE8104004F096
:101EE00087BD0021044804F081FD01210248BDE8BE
:101EF000104004F07DBD00BF64BAFF1F2DE9F84318
:101F0000574EDFF8688116F8302058F8203002F07C
:101F10003F020132934204464FEAC00533DB731996
:101F20009979C9095CD15F783F0948F8247077191D
:101F3000FB78B97803F00F02B2EB111F6DD0FA797C
:101F4000591C6FF3410261F30303FA71FB700CF04B
:101F500099F916F8342058F82430354402F03F023D
:101F60000132E97890FBF2F606FB1200013060F3D3
:101F70000711E970002B3B4AB8BF0F331B1142F821
:101F80002430BDE8F88306EB050E9EF80710C1F378
:101F90004001A1B19EF802009EF8017000F00F0010
:101FA0003F09B8420ADD834208DB9EF80630DB09B0
:101FB000BBD058B3013848F82400B8E7E8B170192D
:101FC0008779FF09D6D0002B0DDB0029D2D04278CB
:101FD000B3EB121FCEDA7319987800F00F00E8E720
:101FE000D979C1F340010029F5D173195B78A2EBCF
:101FF0001312013A48F8242099E7701990F803E089
:10200000B3EB1E1FDBDB8379DB098ED07319DB7822
:102010001B09013B48F8243089E77B7913F07F09DD
:102020000BD17319DA796FF34102DA717319012157
:10203000DA7861F30302DA7089E70CF023F90A4BCE
:10204000C21783FB0013C2EB6313642202FB13006D
:102050008145E6DDFB7943F00203FB71E6E700BF53
:10206000F492FF1FE8C4FF1F1F85EB5128BAFF1F22
:1020700070B50B4D0B4E002406EBC40320469B7934
:10208000DB092B680ABF204603F1FF33013301341B
:102090002B60FFF733FF082C05F10405ECD170BD70
:1020A00028BAFF1FF492FF1FF8B5124E124D3746A3
:1020B000002408E0013B002B2B6015DB0134082CC9
:1020C00005F104050FD006EBC4039B79DB092B68EF
:1020D000F0D02046013301342B60FFF70FFF082CAE
:1020E00005F10405EFD1F8BD17F8343003F03F03D4
:1020F0002B60E3E7F492FF1F28BAFF1F094A0A4941
:1021000002EBC0029279D20951F8202004D10132A9
:1021100041F82020FFF7F2BE013A41F82020FFF7F6
:10212000EDBE00BFF492FF1F28BAFF1F414A424B89
:1021300070B415681968414CAA00531905EB4303A4
:102140004FF4307606FB013323449B7A03F00703F8
:102150001844062812D8DFE800F01321303F4E5D06
:1021600004002A4405EB42024FF4307505FB0122BE
:1021700014440622A37A62F30203A37270BC704770
:102180002A4405EB42024FF4307303FB012214444E
:10219000A37A6FF30203A37270BC7047531905EB67
:1021A00043024FF4307303FB012214440122A37A4B
:1021B00062F30203A37270BC7047531905EB43022C
:1021C0004FF4307303FB012214440222A37A62F31A
:1021D0000203A37270BC7047531905EB43024FF41E
:1021E000307303FB012214440322A37A62F3020337
:1021F000A37270BC7047531905EB43024FF4307360
:1022000003FB012214440422A37A62F30203A372A3
:1022100070BC7047531905EB43024FF4307303FB56
:10222000012214440522A37A62F30203A37270BC54
:10223000704700BFB0B7FF1FE4C4FF1F94A1FF1F8A
:10224000F8B51E4CDFF8A0E01D4B2568DEF80070E5
:102250001B6897FBF3F406461A4850F8260005EB76
:10226000450503FB147300EB850401337F2CCEF886
:10227000003014D8144D15482D78154F002D08BF87
:102280001346144D40F826301A4620463C7045F857
:102290002640FEF7AFFAA4F11803352B0AD9B1B2E4
:1022A0000D4A0E4803F082FF0D490E4A01230B70C0
:1022B0001370F8BD2046FFF753F8F0E7E0C4FF1FA6
:1022C000F092FF1FDCE90000E5BAFF1F7C92FF1FC0
:1022D000BEBCFF1F0C8EFF1F80808000B8A0FF1FB8
:1022E000BFBCFF1FACBAFF1F48BAFF1F0D4B10B594
:1022F000044653F820007F2809D80B4B002153F8DF
:102300002420FEF79FFA0021172007F0FDF9A1B263
:102310000022064803F04AFF0549064A01230B70D4
:10232000137010BD0C8EFF1F7C92FF1FB8A0FF1F03
:10233000BFBCFF1FACBAFF1FF8B51D4C1D4B246876
:1023400053F8203004EB440403EB84047F2C05464F
:102350000AD9A9B2184A194803F028FF1849194A9E
:1023600001230B701370F8BD174E18483368DFF85F
:102370006CE0174F00EBC30057F8227040780EEB6B
:10238000821300F00F0201322046DC55FEF732FACC
:1023900033681049104ACB5C42F82540002BD8D056
:1023A000A4F11803352BD4D82046FEF7D9FFD0E787
:1023B000E0C4FF1FDCE9000080808000B8A0FF1FA0
:1023C000BFBCFF1FACBAFF1FE4C4FF1FF492FF1F86
:1023D00028BAFF1F7092FF1F0C8EFF1F28B8FF1F27
:1023E00038B5134B044653F820007F280AD9A1B210
:1023F0000022104803F0DAFE0F49104A01230B7047
:10240000137038BD0E4D0F4B2A6803EBC203002139
:102410005A7802F00F020132FEF714FA2B680A4ACA
:10242000D35C002BE3D00021172007F06DF9DEE725
:102430000C8EFF1FB8A0FF1FBFBCFF1FACBAFF1F51
:10244000E4C4FF1FF492FF1F7092FF1F2DE9F04FAD
:10245000BF4EC04F56F82030BF4903EB830203EB59
:1024600042034FF4307202FB00333B4487B09D7A45
:1024700011F8008005F00705062D044600F00A81DA
:10248000013D042D00F20381DFE805F046323C03F4
:102490002200B24A56F8240002EBC4029379C3F337
:1024A000C01181F0010161F3C713937100EB800348
:1024B0004FF4307500EB430005FB04F52844384425
:1024C000DFF890928378D9062AD407B0BDE8F08F60
:1024D0000BF0D8FEA14B13F8343003F03F03013367
:1024E00090FBF3F202FB1300013046F82400DDE715
:1024F0009A4B56F8240003EBC4039A796FF3C71282
:102500009A71D3E7954B56F8240003EBC4039A79EC
:1025100042F080029A71C9E7002046F82400C5E71E
:102520004378DFF868B2DFF834A203F07F03CBF81A
:10253000003007F003F956F82430CDF8008003EBA3
:10254000830103EB41031D4409EB0501844A91F823
:1025500002E0136819F80510824A0EF00F0505FB1A
:1025600003334FEAC40918440AEB0905106095F8D3
:1025700001E013687C480EF00F02013201F07F0188
:1025800003F05CFA56F82430DA0700F19980AA7952
:1025900002F07F02622A40F39B80632A00F0FC80F5
:1025A000724903EB83024FF4307505FB04F503EB2E
:1025B00042030AEB09022B44507817F803E00B683A
:1025C000DBF80020009300F00F03CDF804800EF03C
:1025D0007F0101336648DFF8B881DFF8B8B103F056
:1025E00077FA56F82420049590000025039481186A
:1025F000049B02EB41011944394429440AEB090EBA
:1026000091F90340002C214626DB9EF80120594B0E
:1026100002F00F0253F825000132FEF73BF9039B4D
:10262000C8F8004056F8232090000135042D08F129
:102630000408DCD1039C104402EB40004FF43073DB
:1026400003FB04004C4B395C03EB8414C1F3060319
:10265000A35407B0BDE8F08F5BF82510D8F8004010
:102660008C420AEB090EE0D09EF80120414B02F0AB
:102670000F0253F825000132FEF70CF9039B5BF8BB
:10268000251056F82320C8F800109000CDE756F822
:1026900024000BE7072008F003FD05283FF6F0AE05
:1026A00001A353F820F000BF8F2600001925000079
:1026B000F12400000525000093240000D12400002F
:1026C00007F03CF82949224B086053F8243068E7AA
:1026D00007F034F805902A79284902F00F020868BB
:1026E0002749049103920AF0C9FF039A049951F80B
:1026F00022100BF01BF8234903900968224880FB45
:102700000130C917C1EBA0000AF0BCFF039A0146D3
:1027100010460BF0BFF80390A87900F07F000AF094
:10272000B1FF039A014610460BF000F8059B0546E1
:1027300018460AF0A3FF014628460AF0EFFE0BF008
:10274000E1F90A49024B086053F8243029E700BF39
:1027500028BAFF1F94A1FF1F7092FF1FF492FF1F62
:10276000B8BCFF1F24B8FF1F0CC8FF1F84A1FF1FA8
:102770000CC5FF1F9493FF1F28B8FF1FB0BAFF1F9F
:10278000A893FF1FD4E90000ABAAAA2AEC92FF1F6E
:10279000B4BAFF1F60A1FF1F0BF074FD059006F097
:1027A000CDFF1B4904902D7908681A49039105F063
:1027B0000F050AF063FF039951F825100AF0B6FFE0
:1027C000154905460968154880FB0130C917C1EB5A
:1027D000A0000AF057FF014628460BF05BF8059B66
:1027E00005460F4883FB00015818D917C1EBA0110B
:1027F00001EB4100C1EB4011581A01300AF042FFD1
:10280000014628460AF092FF049A0546104690E7D2
:10281000B0BAFF1FA893FF1FD4E90000ABAAAA2AF1
:10282000859176AC2DE9F04F974FDFF88CA23B688D
:10283000DFF888B25AF8232002EB820102EB410252
:102840004FF4307101FB03235B4485B0187A10F01C
:102850007F0440F0A28001948C4B1B78012B00F088
:102860008480022B40F09080894B1B78002B00F075
:102870008E8006F063FFDFF848920090002463E04A
:10288000844B854A03EBC40310681A79039309EB60
:10289000050802F00F02C8F8086002920AF0EEFE86
:1028A0007E4B029A53F822100AF040FF0290304605
:1028B0000AF0E4FE029A014610460AF02FFE0BF0E1
:1028C00021F9039BDB79C8F80400DB0732D45AF8FE
:1028D0002420734B02F10F010B40002BC0F2B58096
:1028E0007049A00101444D44CE5CAB810EB100257E
:1028F000CD54019BF3B102EB820302EB43014FF491
:10290000307303FB04135B440244597A664D6748F5
:1029100055F8223001F03F0100EBC10650F83100BC
:1029200071680133834245F8223000F093808B4276
:1029300080F299803B68A34200F083802046FFF735
:10294000DDFB0134082C1FD0250109EB0508009B95
:10295000D8F80460B342F4D3554B1B78002B8FD0CA
:10296000FEF7B6FDD8F804608AE7494B1B7873B1CF
:1029700006F0E4FE3C68DFF84891434E230109EB82
:1029800003025568A84219D205B0BDE8F08F386837
:1029900005B0BDE8F04FFFF711B80BF073FC454BE5
:1029A000C21783FB0013C2EB6313642202FB130004
:1029B0008442D4BF0023012301934DE73C4A12789F
:1029C000002A54D15AF82410354A0F310A40002AFF
:1029D00055DB344901EB841109EB03008E5C8281E5
:1029E0000EB1002088542B4A2B49DFF8B0800868CC
:1029F00002EBC40299441679C9F8085006F00F0694
:102A00000AF03CFE58F826100AF090FE06462846CA
:102A10000AF034FE014630460AF080FD0BF072F8F1
:102A2000019BC9F804001BB12046FFF70FFD3C686D
:102A30002046FEF7C3FF386805B0BDE8F04FFFF74A
:102A400017BB2046FEF7BAFF78E7013B63F00F03A0
:102A5000013345E78B4202DB002345F82230204654
:102A6000FFF7F4FC66E7002345F8223062E7FEF743
:102A70002FFD3468230109EB03025568A2E7013AF0
:102A800062F00F020132A4E7E4C4FF1F94B7FF1FF6
:102A9000ECA0FF1FF492FF1FB8BCFF1FA893FF1FFD
:102AA0000F00008028B8FF1FD8BCFF1F808EFF1FBB
:102AB0003493FF1F1F85EB5128BAFF1F94A1FF1FFE
:102AC00038BCFF1F0C4B70B501220C4E1A7000244D
:102AD00006F034FE06EB04150134686006F02EFEA5
:102AE000082CA860F4D1064B1B7803B170BDBDE87B
:102AF0007040FDF715BE00BFECA0FF1F38BCFF1FE4
:102B00003493FF1F07285BD82DE9F84F2D4B2E4D2E
:102B100013F8304004F03F04013404EB840204EB6A
:102B20004202073222F00702214400AFEE464FF086
:102B3000000CADEB020D4FF4307291FBF4F36E46D6
:102B400002FB005504FB1313E04603EB830205EB85
:102B50000C0103EB4202B01808F101080133D1F86F
:102B600000B0D1F804A0B1F80890897A46F802B014
:102B700093FBF4F244450CF10B0CC0F804A0A0F850
:102B80000890817204FB1233DFDC00231846F21830
:102B9000E9180130D2F80090D2F80480B2F808C0E9
:102BA000927A45F803908442C1F8048003F10B0344
:102BB000A1F808C08A72EADCF546BD46BDE8F88F88
:102BC000704700BFF492FF1F94A1FF1F2DE9F0474B
:102BD0003A4FBDF820600546894638462946924658
:102BE000984603F053FF97F9314080B2A4B2C0EB8E
:102BF0000803341B03EBD37304EBD47409EB6303B6
:102C00000AEB640400222846A7F84030A7F84240A7
:102C100087F846200BF074FB48B304463E464FF657
:102C2000FD7801E0013C22D015F8011B234803F098
:102C3000E1FE0A282FD00D283BD04045F2D80346AC
:102C4000B6F94220B6F940101D4803F0B7FE96F8D9
:102C50002230032BE6D8DFE803F018120C02B7F895
:102C60004230013CA3EB0000A7F84200DCD1BDE8F4
:102C7000F087B7F84030181AA7F84000D2E7B7F845
:102C800042301844A7F84200CCE7B7F84030184467
:102C9000A7F84000C6E796F9333096F93410B6F835
:102CA00042205B1A13440022A6F84230A6F84020C6
:102CB000B8E70023A6F84030B4E700BF5CBAFF1FB6
:102CC00064BAFF1F30B5054683B010460C46FFF7C7
:102CD000FBF8074B1A685200610116230332009378
:102CE00009B2284612B22023FFF770FF03B030BDAF
:102CF000A88FFF1FF0B5194C194F1A4E85B004F17B
:102D0000400502E00834AC4226D02379002BF9D0EC
:102D10003B680393039B1448336004F099FF01213F
:102D2000124803F049FE1249104803F055FE0121F4
:102D30000E4803F05BFE00210C4803F059FE2023EF
:102D4000206800930A2280230021FFF73FFF002321
:102D500023710834AC42D8D105B0F0BDCC93FF1F2D
:102D600094CAFF1F0CA1FF1F409FFF1F64BAFF1FE3
:102D700068EC000030B51E4C83B0012104F108005E
:102D800003F01AFE04F108001A4903F025FE00259D
:102D900004F108000121A4F84050A4F8425084F83E
:102DA000465003F023FE294604F1080003F020FEFC
:102DB000114A124B12781B78934210D0104B1B789B
:102DC0004BB910482023009314222C235621FFF7DF
:102DD000FDFE03B030BD0C4B53F82200F2E7084A69
:102DE0001278002AEDD0084A52F82300EAE700BF23
:102DF0005CBAFF1FB41E010074A1FF1F94B7FF1F30
:102E0000E4BAFF1F94EA00007C93FF1F70B50646EA
:102E100084B010460D46FFF757F80A4B1C68640053
:102E200002A930460A2203340AF010FFA4B2690155
:102E30001623009322B209B202A82023FFF7C6FE90
:102E400004B070BDA88FFF1FF8B5134E07460025CC
:102E50007088002498B12304FF2293FBF0F02844EB
:102E6000114680B203F0CCF903F06EFAA1B202462B
:102E7000094803F09BF970880134A042EBDC064856
:102E800003F0B4F805F58075384606F079FCB5F521
:102E9000803FDDD1F8BD00BFB8A0FF1F2DE9F0478E
:102EA000494BDFF83C81494E0FCB86B006AC04E9B4
:102EB0000F00474804F0CCFE002108F1080003F0A1
:102EC0007BFD45464FF0000A4148424C04F0C0FEED
:102ED0001223002240494148A8F84030A8F8423067
:102EE00088F846200FFA8AF903F076FD4FF6FD7751
:102EF00001E0B44222D014F8011B394803F07AFDF6
:102F00000A284FD00D285BD0B842F2D80346B5F955
:102F10004220B5F94010314803F050FD95F82230B9
:102F2000032BE6D8DFE803F038322C02B8F8423041
:102F3000B442A3EB0000A8F84200DCD1294927489D
:102F400003F04AFD09F0030906AB03EB89092023CE
:102F500059F8100C00930A225021FFF737FE1C4845
:102F600004F082FF0AF1010A642006F009FCBAF1BC
:102F7000100FA9D1642006B0BDE8F04706F000BCF0
:102F8000B8F84030181AA8F84000B2E7B8F8423054
:102F90001844A8F84200ACE7B8F840301844A8F844
:102FA0004000A6E795F9333095F93410B5F8422082
:102FB0005B1A13440022A5F84230A5F8402098E798
:102FC0000023A5F8403094E7CCE70000FEE70000BE
:102FD000409FFF1FF8E7000068EC000064BAFF1F85
:102FE0005CBAFF1F24F500002DE9F04F334BDFF8EA
:102FF000D4C0186859681C899A7A314DDFF8C8E046
:1030000085B001AB03C300271C809A704FF00F0AF4
:103010004FF001094FF003085CF8046F002206F03E
:103020007F069DF8043066F306038DF8043001AB8B
:1030300003CBAC18A8500B3218889B786160B2F5AE
:10304000307F2081A372ECD11EF837306AF305037C
:103050000EF837300EEBC70305F530755978DE7979
:10306000DA789C79987867F303016FF3000659705A
:10307000DE71F1B293F801B05E7969F3030204F0F6
:103080007F0400F0F00001F0FD0101376FF306044A
:103090006FF3071B6FF307106FF3060668F3071251
:1030A0006FF38201082F9C7183F801B098705E71F4
:1030B000DA70D971B0D105B0BDE8F08FDCE700005F
:1030C00094A1FF1F3493FF1FF492FF1F70B5164E9B
:1030D000164B30681A780368154D5B6800219847D5
:1030E0003068144A036812785B6801219847306899
:1030F000114A036812785B68022198470F4B3068C9
:103100001A680368013A5B68D2B203219847042425
:10311000306855F8042B036821465B68D2B201344D
:103120009847092CF4D170BD78A1FF1F28EB00004F
:103130009493FF1F94B7FF1FE4C4FF1F348DFF1F3C
:1031400070B51A4D2868036800219B689847FF28CE
:1031500003D0174B1B78834201D0002070BD286834
:10316000144E036801219B6898472B6812491A681E
:10317000087092681846022190472B680F491A6818
:10318000086092681846032190470D4B0130186083
:1031900004242868036821469B6898470134092C59
:1031A00046F8040BF5D1012070BD00BF78A1FF1FC8
:1031B00028EB00009493FF1F94B7FF1FE4C4FF1F88
:1031C000348DFF1F2DE9F04F83B00023DFF8A0B04E
:1031D00001934FF02009019A1346C8460B33C8EB00
:1031E000030309F53079C8EB020A0093009B03EB57
:1031F00008071D4B0AEB08051E685D445F441FFA73
:1032000088F1336815F8012B5B684C1C30469847F1
:10321000A4B2BD422146F4D108F10B08C845E5D15E
:10322000019BB8F5B15F03F530730193C146D2D16C
:103230000E4C4FF484670C4B1D6804F10806C4EB78
:1032400007082B6804EB080114F8012B5B6889B2AE
:1032500028469847A642F4D10837B7F58C6F344614
:10326000E9D103B0BDE8F08F78A1FF1FF492FF1FF2
:1032700094A1FF1F2DE9F04F85B00023DFF898B02F
:10328000DFF8988003934FF02009039A13464F46C6
:103290000B3309F53071DB1B0191C9EB020A029374
:1032A000029BDBF800900AEB0705DE194544464413
:1032B000B9B2D9F8003048469B684C1C984705F8CD
:1032C000010BA4B2B5422146F3D1019B0B379F42BB
:1032D000E6D1039BB7F5B15F03F530730393B946AD
:1032E000D3D10C4C4FF48467DBF8005004F108088C
:1032F0003E1B2B68A1199B6889B22846984704F8A1
:10330000010B4445F5D10837B7F58C6FECD105B00A
:10331000BDE8F08FF492FF1F78A1FF1F94A1FF1F5B
:10332000F0B5424C424A236842488BB00493049D56
:1033300023680593059E23680693069F23680793D9
:103340000799236808933C4B15603C4A1E603C4B30
:1033500011603C4D089E0760002201211A713A4815
:10336000DA6083F82220A3F84020A3F8422083F8F3
:103370004620198383F821102E60186006F0DEF9CC
:103380003249236809930B46314A099D43F8045B8F
:1033900010606C3122680392039A43F8042B8B422D
:1033A000F8D12C4B2C4E2D4F2D4D2E4A19683668D6
:1033B0003F682D4B2D4C2E6017602D482D4A2E4E08
:1033C0002E4D1B782468016033702B701460084602
:1033D0000AF0A4F80AF096FB294B0B2218600C2186
:1033E0002848FDF77DF800212748FDF7EFF8052272
:1033F00006238DE80C002549254B264A264802F075
:103400003BFC264A2649244809F0F4FB254B264A72
:10341000198812882548522302F0B2FE1F4A244917
:10342000224809F0E7FB0BB0F0BD00BF94CAFF1FB4
:1034300088A1FF1F2CBCFF1F10A1FF1F0CA1FF1FA5
:103440005CBAFF1F20BCFF1FBCE70000B4B7FF1F22
:1034500024BCFF1FA08FFF1F9493FF1F48A1FF1FD5
:103460001CA1FF1F80A1FF1FD8E90000E0C4FF1FBF
:10347000D0A0FF1F28BCFF1F94B7FF1F74A1FF1F20
:1034800034A1FF1F98B7FF1FD4A0FF1F5C93FF1F3D
:103490008C93FF1FC493FF1FE8BAFF1F0C8DFF1F03
:1034A000B15C000030EB000038EB0000B8A0FF1F5B
:1034B000255F000000B500EB400083B081000122D1
:1034C00002232B310192009309B206231E220348E6
:1034D00003F020FC03B05DF804FB00BF409FFF1F1A
:1034E00089B900B500EB400183B0890001232B317D
:1034F0000193009309B206231F22044803F00AFC3B
:1035000003B05DF804FBFFF7D5BF00BF409FFF1F6E
:1035100070B51C4B1C481C6882B0002201250A2192
:103520008DE8220023B2114603F0F4FB174B164836
:10353000B3F90050002CB4BFE11C214602262B46F3
:1035400041F38F010096002204F05CFC04EBD4717F
:103550002B46002241F34F0100960B4804F052FC29
:1035600020460AF08FF84FF07D510AF0DFF80AF09C
:10357000A3FA009601B22B460022034804F042FC55
:1035800002B070BD2CEB0000409FFF1FC0EA00009E
:103590002DE9F04F914C05460F4694E80F0091B08D
:1035A00004AE0DF1300886E80F0088E80F00002314
:1035B000099308930A930B930A2D00F28582DFE8A2
:1035C00015F050006D008C00B800E2005D018C0128
:1035D000AC01CA01E7010B00814A824B1568824A9F
:1035E000089504930592069207924FF0000A7F4CCB
:1035F000039304F1080001214FF0000903F0DCF906
:1036000004F108007A49DFF870B203F0E5F9A4F894
:103610004090A4F8429084F84690FFF779FF49461D
:1036200004F1080003F0E2F904F10800012103F0BD
:10363000DFF9039B01244FF00A09DBF80020CDF8E5
:103640000090023A184621B212B22023FFF7BEFAC8
:10365000612C04F1200400F0C281A4B256F8043FAA
:10366000EBE7644A644B12781B680AB1634B1B6832
:103670006349644A0D686449126809780A92634A8A
:1036800009930435624B0B9105926249624A089591
:103690000493069107924FF0000AA8E75F4A604B37
:1036A0001568604A60491268099203EBC5035F4CD4
:1036B0009A795F4B059302F07F025E4B0A9208688D
:1036C0005D4A079301350895049406920AF0F4F9CF
:1036D0004FF0010A23460B9089E7504A504B11687E
:1036E000564813F83120405C554C03EBC10302F0FF
:1036F0003F021979DD7901F00F03013254F82310EC
:103700000992504A504B514C0E91C5F380055049D7
:1037100006926FF07E0208950493059407910A9231
:103720000B92002800F0D4814A4A0F924FF0020A0F
:103730005DE7494A394B1168484A1868049201EB21
:103740008102474B474C059401EB42014FF4307224
:1037500002FB0011244C444A444806920790CA18C0
:103760006FF07E00002312F9011F0029C0F2A6812C
:1037700008AD45F823100133042BF4D1089D049BB8
:103780004FF0030A33E7344B244A1B681268384869
:103790001B4C03EB830103EB41034FF4307101FB3E
:1037A0000233C118C55C8A78487821681A4B0493A3
:1037B00002F00F02013204310B92154A099105F013
:1037C0007F0500F07F002B490592204A08950A905A
:1037D000069107924FF0010A09E700BFE8E70000F1
:1037E000F092FF1F04E800003CE800005CBAFF1FF5
:1037F00084270100E5BAFF1F348DFF1F48BAFF1F61
:10380000E0C4FF1F80A1FF1FBEBCFF1F34E8000003
:1038100000E8000038E8000024E80000E4C4FF1FCE
:10382000F492FF1F38A1FF1FA08FFF1F08E80000C0
:1038300040E8000050E8000048E800007092FF1FD8
:103840000C94FF1F1CE800000CE8000054E8000086
:1038500058E800005CE80000B0B7FF1F8CE80000EB
:1038600096A1FF1F90E8000094E8000098E800008F
:1038700094A1FF1F9CE80000A88FFF1F994A9A4B54
:1038800011681A6899489A4C01EB810301EB4301D6
:103890004FF4307303FB021303449648997A1A7A63
:1038A0005B7A01F0070103F03F0354F8211050F850
:1038B0002300914C914B0C9102F07F026FF07E053A
:1038C00009928F498F4A0E900493059406910792AE
:1038D00008950A954FF0020A89E6834A8A4B1568D3
:1038E0008A4813F8352003EBC50102F03F024978FE
:1038F00003680A9301F00F0101310132844B0B91EF
:103900000135844809928449844A049308950590B6
:10391000069107924FF0010A69E6734B7A4A1968DB
:103920007F4B049302EBC1024FF0020A9178557865
:10393000527902F07F020B9201F00F022D09090962
:103940000992784A0A910135774905926A4A0895A1
:10395000069107924BE6644B6B4A1968734B0493CC
:1039600002EBC10272481179D27901F00F01C2F362
:10397000800250F8210009926E496F4A0C906FF056
:103980007E0505910692079208954FF0030A2EE6F0
:10399000544B554A1B681268544803EB830103EBF0
:1039A00041034FF4307101FB02336449C05C644B46
:1039B00051F822101D68634B049300F07F00013121
:1039C000013204350A9009915F480B925F49504AD1
:1039D00008950590069107924FF0010A07E601212C
:1039E0005B4802F0E9FF5B49594802F0F5FF01210D
:1039F000574802F0FBFF0021554802F0F9FF032F62
:103A00000DD8DFE807F020362B02152201238DE8C0
:103A10000C0062211D2309224F4803F07BF908AEF8
:103A200000243B1BB3FA83F35B0915F17F0F21B22E
:103A300028461A4628D00134FFF7E8F9042C2AD08A
:103A400056F8045FEDE7152201238DE80C000221F2
:103A50001D230922404803F05DF9E0E71522012308
:103A60008DE80C0042211D2309223B4803F052F946
:103A7000D5E7152201238DE80C0022211D23092200
:103A8000354803F047F9CAE758F824000134FFF736
:103A900019F9042CD4D1BAF1000F0CD000235C1C0E
:103AA000A24518464FF0000117D0FFF719FD042C6E
:103AB00001D02346F3E711B0BDE8F08F08A948F81C
:103AC000234041F8230056E60025AA46049B8EE5D4
:103AD000224A0F924FF0020A89E5FFF7EBFC2346DA
:103AE000DDE700BFB0B7FF1FE4C4FF1F94A1FF1FB5
:103AF0003C8DFF1F5C8DFF1F7CE800002CE8000060
:103B0000A0E8000094EA0000F492FF1F54BAFF1FDF
:103B100008E8000054E8000064E8000068E80000DD
:103B200014E8000070E8000074E800001CE80000E1
:103B30000C94FF1F0CE800003CE8000028BAFF1FAF
:103B4000E0C4FF1F00E8000084E8000024E8000053
:103B500064BAFF1F9C150100409FFF1F60E8000032
:103B60002DE9F04FA448A5B002F0AAF805F0E6FD53
:103B7000A24B186005F0E2FDA14B1C681860041B05
:103B800004D0A04B1B78002B40F0C083FEF74AFE08
:103B90009D4804F05DF8FDF7A3FD9C48FCF7BCFCD4
:103BA00003B21990002B40F0F981994BDFF8ACA2D9
:103BB000DFF8ACB2DFF8AC9201939648FCF718FD41
:103BC000012800F01A82022800F05D82924FDFF88F
:103BD0008482894802F02EF9002852D0864802F0EB
:103BE00035F9C0F30721D8F80020CBB2012BC6B2BB
:103BF00057F8222000F038819BF80020032A00F2B9
:103C0000BC81DFE812F0EB0004000400EB00002BA5
:103C100040F0B681F6B1D8F80020804B03EBC20328
:103C2000DA79500700F120837D4B1B78002B00F0E0
:103C30001F827C4B1B68002B0CDD724B1B78002B0A
:103C400000F0AE847848037823B1784C2378002BB9
:103C500040F05C84764B774C1B681C930022A25585
:103C6000754B1C9A43F826206578002DB1D1A378B6
:103C7000002BAED1714B60481D7002F0DBF80028BC
:103C8000ACD1D9F80050002D40F3A486664F6C4AA1
:103C90003F7813976B4FD2F800C06B4A3F680E977E
:103CA00017780F97694F5E4A3F7810971778684AE0
:103CB000684B12780B92614A1B6863495D4C12781D
:103CC0000D9163490891029219469AF80020534BCE
:103CD00094F801E0524E0A924FF430721696CDF8E5
:103CE0000CE003EBC10394F802E0514ECDF810E074
:103CF00002FB01F2149706939BF80080059117923E
:103D00001590119012904C4F0990CDF81CA0DDF841
:103D100018A00C9000900346B146A6461EF803205A
:103D200052B331681D911D9957F82340091B8C45EA
:103D30004FEA830B20D8D9F800101E911E990C1B56
:103D400042F20E718C4217D808F1FF3101290BD8CD
:103D50009AF80710490707D40399002940F0138106
:103D60000499002900F0F48132681F921F9AA2F58D
:103D70001C520F3A47F80B2001339D42CED1009BD5
:103D8000DDF81CA0002B41F077830C9B23B1089B2E
:103D90001A469DF82C301370099B1BB19DF82830F2
:103DA0008AF80030129B13B1264B0E9A1A60119BB1
:103DB00023B10D9B1A469DF83C301370159B1BB127
:103DC000224B9DF840201A70002800F00586169BB3
:103DD0001A469DF85030137000F0FEBD002B40F0E5
:103DE000CF80002E40F035821B4B1A78002A3FF41A
:103DF00031AF1E702EE700BFE8BAFF1F24BCFF1FC3
:103E000044A1FF1FECA0FF1F409FFF1F98B7FF1F9B
:103E1000BFBCFF1FD4A0FF1FE8C4FF1FF492FF1F09
:103E200014A1FF1FC8BAFF1F95B7FF1F58BAFF1F85
:103E300094CAFF1FF0A0FF1FB4B7FF1F30BCFF1FC5
:103E4000FC8DFF1FB0B7FF1F7CA1FF1F75A1FF1FD7
:103E50008CA1FF1FE4C4FF1F1CBCFF1FACBAFF1FD7
:103E600094B7FF1F30EB00009C4CA15566BB9C4BE8
:103E70001B78002B40F0F3819BF80030032B21D8F6
:103E8000DFE813F0DC00E100E100DC000B2E00F0C5
:103E90008E831A2E40F0D481924B1B78002B00F0B9
:103EA000CF810123904991480A681344042BA8BF8D
:103EB00004236FF00405AB42B8BF2B469A4203605F
:103EC00000D00B606578D0E69BF80030032BF9D862
:103ED00001A151F823F000BF8D3E0000E93E000033
:103EE000E93E00008D3E0000002E00F0AC80804BCB
:103EF00080491B681B9308787F4B1B9D43F8265015
:103F0000A6F10B0E0EEB0212002800F0B5817B49E2
:103F10000B78002B00F044820B2E00F066861A2EE0
:103F200000F07D86764B77481B6850F826E0D8F87D
:103F300000C06D4A74491268744D03EB830003EBB3
:103F400040034FF4307000FB0C3302EB4202C85CBC
:103F50002D780EEB820262F30600DFF8D8E16C4A9E
:103F6000C85400231370CEF80060002D00F06F8459
:103F700001238AF80030657877E6002B3FF46AAEBB
:103F8000564C657871E6049A0099002A18BF1146CC
:103F90000091029918BF11460291E5E6BDF966400D
:103FA0004F4A04FB03F4127804EB84041C44002AF7
:103FB00000F00081574A5849137801911C4484F35A
:103FC00002041470FEF7D6FE494B544A1B681A933C
:103FD0001A9B12685249DFF870A15248DFF848B1C5
:103FE000DFF86891013B9B1A01220B608AF80020E0
:103FF000FCF7FEFA01287FF4E6AD464A9BF8003054
:10400000127849489A4200F0F382354D2978002908
:1040100040F05882002B00F06A81032B40F0F382BD
:1040200042480368424A013382FB0321DA17C2EB9C
:10403000610202EB82029B1A03604AE0294B657819
:1040400001221A7011E62B49244A0B786578002B5F
:1040500000F03781294A13781BB12948354B066097
:104060001E600023012013700B708AF80000FCE52D
:1040700031480378002B3FF4EDAD2E4B1B68002B2D
:104080003FF7DBADE6E52C4F3B78002B00F0978245
:104090002A4A2B4B15681C4953F825604FF430739E
:1040A00006F07F0603FB05F5002202EB820302EB1C
:1040B00043032B44C818CC5C66F30604CC548378C5
:1040C00001326FF30303402A8370EED11D4B0122AE
:1040D0001A7001238AF8003078E500BFF0A0FF1FB6
:1040E000E4BAFF1F1CBCFF1FE0C4FF1F28BCFF1F5A
:1040F00094CAFF1F7CA1FF1FB4B7FF1F14A1FF1FAD
:10410000B0B7FF1FDCE9000094A1FF1FECA0FF1F68
:1041100075A1FF1F74A1FF1FBFBCFF1F008EFF1FF3
:1041200020BCFF1FD4A0FF1F94B7FF1FEC8DFF1F03
:1041300067666666C8BAFF1F95B7FF1FE4C4FF1F16
:104140003893FF1F11BCFF1FACBAFF1F30EB0000FC
:10415000D91E072940F2D5800A2B7FF705AE1399A7
:1041600000297FF401AE0B9900297FF4FDADB3491E
:10417000059851F82040B249A3F10B0000EB041060
:1041800000EB80040E9000EB4404179804440C44A8
:104190001046A2781490C2F3001181F0010161F37E
:1041A0000412A2701590109011900F901290099027
:1041B0000A90D9E5A34A1278002A40F0AE80A24ABC
:1041C0001278002A40F00582A04FDFF8E8B23A7872
:1041D000002A00F0D8829BF80020013A012A00F260
:1041E000FF819B4E3268042A00F02487012A00F0E8
:1041F000E283002A40F08E87964A97481168631838
:10420000042BA8BF04236FF00405AB42B8BF2B46B4
:10421000924D0360994218BF13602B681BB920466A
:10422000FDF784FF2B68012B00F06886022B00F05D
:104230004386DFF884A28A4BDFF88092019380E204
:10424000884B894A196812683046FDF7F9FF65788E
:104250000BE5854B30461968FEF748F8FAE4FEF79F
:1042600035FFFEF7AFFF07E6597801F00F01013186
:104270003046FEF73BF8D7E4734B1B78002B00F079
:10428000A480731E012B7FF61DAEF31E072B00F2D8
:104290006582764A6578C8F800309278002D40F043
:1042A000D08452B1664872494FF4307202FB030069
:1042B00004F07EFC6F4B01221A7301238AF8003050
:1042C000D3E4614B1978002965D1604B1978002936
:1042D00061D1694B1978002940F05282002D00F01D
:1042E000C0846649634A01230B701377E5E7644B8A
:1042F0001B68002B3FF494AE012B7FF4EAAE6148BB
:104300008FE609920A920C920B922DE52046FDF75A
:104310007DF92046FDF79EF938E4DFF898B19BF867
:104320000020013A012A00F25B81474A1278002AF4
:1043300040F0C081454F3A78002A7FF452AF524A8C
:104340001278002A00F0EA80504A1268032A00F22C
:104350008287002BC1F214814D4B1B68002B40F06B
:10436000BD864C4B4C4A1B68106835494B4A03EBE1
:10437000830503EB45034FF4307505FB00354B5DBA
:1043800003F07F00204480F3070060F306034B55E1
:104390001368424D42E701221E708AF8002064E44F
:1043A000731E012B7FF68EADF31E072B40F2CE81DC
:1043B0000A2E7FF787AD374B39481A600123037007
:1043C0000B708AF8003065784FE420480378002BA2
:1043D00000F04081D8F8002032491E4B51F82200ED
:1043E00031491B6851F826C0DFF8C4E000EB8001BA
:1043F00000EB41014FF4307505FB0211104D0091A7
:1044000003EB43036D5C9EF80010DFF8B4E00CEBA7
:104410008303DFF880C0CEF8006063F30605CCF8B4
:104420000000074B00981D54002900F024821F4A09
:104430006578012313708AF8003016E4E8C4FF1F82
:1044400094A1FF1F7CA1FF1F8CA1FF1F95B7FF1F29
:10445000F88DFF1FE0C4FF1F28BCFF1F6C92FF1FD9
:10446000BFBCFF1F788EFF1F348DFF1FF0A0FF1F02
:10447000AC8FFF1FCC93FF1F30BCFF1F3493FF1F77
:10448000C0BCFF1FE892FF1F14A1FF1F7892FF1FFF
:10449000F48DFF1FB0B7FF1FE4C4FF1F588DFF1F2F
:1044A00075A1FF1F28BAFF1FDCE9000058BAFF1FE3
:1044B000ECA0FF1F94B7FF1FACBAFF1F30EB00004A
:1044C000C8BAFF1FB549B64B027000240C601C70BF
:1044D000FCF736F9B34801F0F7FAD9F80060A642C4
:1044E00007DDA1B20022B048013401F05FFEA64210
:1044F000F7D10199002301222B700A70FEF73AFCD4
:104500009BF80030002B7FF488ADF0E6D8F800006F
:10451000FDF7AEFD00232370FFF79CBBA34F2046A1
:104520003C6809F0AFF8214608F0F8FFA0490546BD
:1045300009F09AFA002800F081819D4D9D4B21469B
:1045400028461D6009F086FA00287FF472AE9A4B67
:104550003D601C68DFF8C8A2DFF8C892204609F069
:1045600091F8294609F0E2F801469448944D09F083
:1045700091F909F0C7FA934B934A1860002C1B6815
:1045800092490191B8BF0334A41003FB04F41460F2
:10459000106809F073F88E4909F0C8F82860D0E077
:1045A000D8F800103046FDF71BFFFFF74BBB894BD7
:1045B0001B78002B3FF444AE4FF0FF3372E4864A81
:1045C000864B9BF80010117001221A70FEF7D2FB87
:1045D0007FE5DFF854B29BF80020013A012A69D93F
:1045E0007A4BDFF83CA2DFF83C920193FFF7E5BA83
:1045F0007A4A117800293FF40DAD00211170002B8B
:104600007FF40BAD73E6013B012B3FF662AD744BBB
:104610001B7873B1734B1B785BB1734B1B78002B0A
:1046200040F00481714B1B68002B40F027857048D7
:10463000F7E46D4B1B78002B40F0F8806D4F3B7812
:10464000002B00F0F7826C4B1B68002B40F08F832F
:104650006A48E6E4D8F80050694B029303EBC503BF
:104660000095DD796D0700F1FA806578654B35B10D
:104670009B7823B1644B4FF0010C83F800C0731E8C
:10468000012B7FF6F2AAF31E072B00F25783002DB1
:1046900000F08B83424A1178002940F086835B4EFC
:1046A000C8F80030012246F8231002708AF8002072
:1046B000FFF7DBBA564F3868042800F0C78400289B
:1046C00040F08483534A544813685449234483F385
:1046D000030313600B68002B40F002834D4A484BE4
:1046E000116803EBC1010A7902F00F032344062B82
:1046F000A8BF062323EAE37363F303020A71026887
:10470000002A40F0C88243493D4B0968C8001E1882
:1047100013F83150717814EB111105F03F0505D4F1
:104720008D422A46A8BF0A4602F00F020344DFF872
:10473000F0A059782548DFF8EC90019062F307115A
:10474000597001238AF80030FFF737BA0122C8F800
:1047500000308AF800206578FFF787BA0A2E7FF7C5
:10476000B1AB274BD8F80020657813F83210012040
:104770006EF3050103F832108AF80000FFF775BAEE
:104780001E70FFF772BA9BF80020032A3FF628AF8D
:10479000DFE812F00C01B800B800770034BCFF1F4E
:1047A000ECA0FF1F0CC8FF1FB8A0FF1FA08FFF1FAA
:1047B00000002042D0A0FF1FD4E90000C0E1644CFB
:1047C0000CBCFF1FB0BAFF1FB8BCFF1FBFBCFF1F50
:1047D0006F12833A1CBCFF1F74A1FF1FE4BAFF1FB6
:1047E0007CA1FF1F14A1FF1F8CA1FF1F4CBAFF1F4C
:1047F000F48DFF1F95B7FF1FA8BAFF1FF88DFF1F8D
:10480000F492FF1FF0A0FF1F30BCFF1F28BAFF1F4C
:10481000048EFF1FE4C4FF1F088EFF1F388DFF1F8B
:10482000ACBAFF1F30EB000094B7FF1FA94B1B6809
:10483000002B40F0F681A848FFF7F3BBA7492846B4
:1048400009F030F900283FF479AEA44D76E6A44B88
:10485000624630461968FDF76FFDFFF789BB5A784D
:104860009F4B02F00F02013230461968FDF7E8FC59
:104870006578FFF7FAB99A4B30461968FDF75CFD89
:10488000D5E5984D2A68042A00F06D85DFF8BCA2B2
:1048900001238AF80030042A00F0AB83012A00F0DB
:1048A000B983002A40F07E828F4A904811686318CD
:1048B000042BA8BF04236FF00405AB42B8BF2B46FE
:1048C0009942036000F06E82894913600B68002BE7
:1048D0007FF4B1AC874A13681C44002C40F3D683A4
:1048E000102C00F3E483A3423FF4A5AC012C146028
:1048F00000F0D183804A814B01920122DFF850926F
:104900001A701EE77E4B1B68042B00F0D683002B29
:1049100040F063857B487C490268224482F30302AD
:1049200001EBC2010260CA79560740F1D083DFF87B
:104930002092D9F80060002EC8BF1D4607DDA9B23D
:1049400000227248013501F031FCAE42F7D16A4BCA
:10495000019319466E4B01221B680A70002B40F030
:1049600092846849684A096802EBC101CA79C2F3B6
:104970008000041900F11786012C40F3758542F080
:104980000402CA71D9F80050002DC8BF002407DD09
:10499000A1B200225D48013401F008FCA542F7D124
:1049A000019ADFF8A8A101231370CAE64D4BDFF886
:1049B0009CA11A686FE7002B524D40F3B58328681D
:1049C000FDF756FB326828685249534B51F82010C6
:1049D00019600EE49BF80080B8F1030F4BD8DFE8B4
:1049E00008F04E02024E4D4D2B78002B40F0B28065
:1049F0004B484C49036820934B4A209B0968126836
:104A00005B1A9A4280F0A68003682193219B14329E
:104A1000591A8A4240F29E803A4A3B4B126803EB95
:104A2000C2030122DB798AF800205A0700F1B38023
:104A30003E4B0D931B78002B00F0B0803C4B3D4F5C
:104A400008933D4B1B68002B00F06881012B00F0A0
:104A50006C84022B00F06284089B1B78002B40F0D2
:104A6000B6803B783BB1354B1B68002B00F05E8174
:104A7000012B00F06F849AF8003083B91AE0FCF73C
:104A800047FF9AF80030ABB1244B1B783BB92C4B55
:104A90001868002800F0BE80012800F0B581204C85
:104AA000284D23682293284A229B296812685B1AA2
:104AB0009A4265D3019B104C1B78002B5AD1FBF70F
:104AC0004FFE0028FBD1FCF76BFB0028FBD125B083
:104AD000BDE8F08FDCC4FF1F048EFF1F000096436B
:104AE000788EFF1FEC8DFF1FE0C4FF1F28BCFF1F47
:104AF000E892FF1FF092FF1FBFBCFF1FE5BAFF1F28
:104B00005893FF1FE4C4FF1FF492FF1FB8A0FF1FBC
:104B10007C8EFF1F28BAFF1FB0B7FF1FE4BAFF1F2C
:104B200094CAFF1F0CA1FF1FA48FFF1F7CA1FF1FB2
:104B30008CA1FF1F95B7FF1F4CBAFF1FA8BAFF1F1C
:104B4000C0BCFF1F20BCFF1F008EFF1FACBAFF1FA1
:104B500030EB0000BB4ABC4B126803EBC203DB79AD
:104B60005B0718D49AF80030002BA3D02B78002BC9
:104B700095D15DE7B54801F039FA002323709EE72F
:104B8000B34803F071F923682393239B2B60002320
:104B90008AF800308EE7FCF7BBFEE3E7AD4B0893E5
:104BA0001B78AD4F9BB93B78002B7FF45AAFAB4BD2
:104BB0001B68002B00F0C283012B00F0E383FEF79B
:104BC00099F80D9B1B78002B3FF446AF39E7A44BB7
:104BD0001B68002B00F09C80012B00F09F82022BB1
:104BE00000F0A982FEF786F83BE74FF0FF339D49BE
:104BF0009D480A681344042BA8BF04236FF00405E2
:104C0000AB42B8BF2B46934203603FF4B1A90B609F
:104C1000FFF7AEB9954B1968FEF7BAFC2BE70123F5
:104C2000E5E7012B00F02782022B7FF452AA90487F
:104C3000FFF7F7B9894B1B68002B63D18D48FFF74D
:104C4000F0B9002A40F07C818B498C484FF43072D7
:104C500002FB031103F0ACFF894B01221A71FFF72D
:104C60002CBB9378002B40F08880864D00922B78E7
:104C7000002B00F0698384482E7000F025FF834BE1
:104C80002E701E60FBF75CFD7F4800F01DFF009A50
:104C90005578FEF7EABF012A40F0BC80694A6A4BAA
:104CA0001268D000191813F83220897801F00F012A
:104CB00002F03F02091902F1010200F178828A42F2
:104CC000A8BF0A4602F00F02034471489978DFF842
:104CD000E0A1DFF8E091019062F30301997030E503
:104CE000012B7FF40CAD574A574B116803EBC10100
:104CF000CB79C3F38002224482F3010262F3820380
:104D0000CB71FCE4012B7FF4E4A96248FFF789B979
:104D1000614B06201968FEF73BFC63E75F4B0420FC
:104D20001968FEF735FC089B1B7897E65C4B092059
:104D30001968FEF72DFCFDF7DDFF9CE60A2E7EF7D5
:104D400094AF002D00F0FD81A278002A00F02083AE
:104D5000029B009813F83030C3F301130B339E42CB
:104D600000F3388347F820E01546FEF77EBF012B9D
:104D70007FF4AFA94B48FFF754B9334BD8F8001074
:104D800003EBC1018B7983F08002D20962F3C71370
:104D90008B713B4B002A00F00C82012283F82C20FF
:104DA000FFF78BBA404B1B6891E5A278002A00F010
:104DB000AA81029A02EBC303DA79C2F3000181F0FF
:104DC000010161F30002DA71FEF74FBF012840F0E4
:104DD00069821C4A1C4B156813F8352002F03F020B
:104DE00001322244002A40F35B82402AA8BF4022BD
:104DF000013A02F03F0213F835602C481C4962F377
:104E0000050603F8356065E4274B0A201968FEF7AC
:104E1000BFFB30E6022A40F001820A4A0A4B1268C0
:104E20001B49019103EBC202DFF884A09378DFF8FD
:104E3000849004EB131484F3040464F30713937055
:104E40007FE400BFE4C4FF1FF492FF1FB8A0FF1F60
:104E5000409FFF1F8CA1FF1F95B7FF1F5CA1FF1F85
:104E6000DCC4FF1FE0C4FF1F28BCFF1FEC8DFF1F29
:104E7000388DFF1F5893FF1F94A1FF1FAC8FFF1F9A
:104E8000CC93FF1FECA0FF1F0CC8FF1F34BCFF1FFB
:104E9000BFBCFF1F7C8EFF1F048EFF1FF48DFF1F02
:104EA000F88DFF1F6C92FF1FE892FF1F088EFF1FF7
:104EB000ACBAFF1F30EB0000C04BC14A1B68116841
:104EC000C04ADFF850A3DFF8509303EB830003EBF5
:104ED00040034FF4307000FB01339918BA4B019333
:104EE0004A7802F03F031C44232CA8BF232424EA61
:104EF000E474134664F305034B7022E4AF4BB04AED
:104F00001B681268B149DFF80CA3DFF80C9303EBC0
:104F1000830003EB40034FF4307000FB023319446D
:104F2000A94B01930A7A02F07F031C44642CA8BFAA
:104F3000642424EAE474134664F306030B7200E469
:104F4000A349A44A51F823601168CDF814A04FF486
:104F5000307202FB03F2034606F07F0001F07F0689
:104F600000969A4E02903146DDF808A00395DDF8D0
:104F700000C0CDF810B01144FF2035460094934690
:104F800003EB830403EB44045C442A192E5D6AF3AB
:104F900006062E55967892F801E06FF30306967098
:104FA000967A6CF3060E6FF3020682F801E09672B1
:104FB000C870087148718871C871167A4FF0640E14
:104FC0006EF3060602F108041672527A01336FF38B
:104FD0000502402B01F10B016270D1D17E4B039D84
:104FE000009CDDF810B0DDF814A001221A75FFF75F
:104FF00064B97A4B1B68042B7FF469AC784ADFF8FC
:105000001892136870490191234483F301031360DC
:10501000FFF797BB734B19686018002803DD102851
:105020000246A8BF10228A423FF4BCAE6B491A6008
:105030000B684CE46C4D2B68042B7FF4EFA86B4A93
:10504000DFF8D0A11368DFF8D091DBE76848694941
:105050000368042B7FF43EAB0B68042B7FF43AAB60
:10506000654A13682344022BA8BF022323EAE37393
:105070001360FFF72FBB5E48FEF7D3BF012B13D0A1
:10508000022B7FF426A85D48FEF7CBBF012B3FF42F
:10509000D2A8012313604C4A594B01920022DFF839
:1050A00078911A70FFF74DBB5648FEF7BABF102B28
:1050B0003FF4C1A8102313601CE4534B1B68042B5E
:1050C00000F0B381404ADFF85091019246E44E4B24
:1050D0003D4ADFF844911B6801923FE4012B49D11E
:1050E0004A4A4B4811686318042BA8BF04236FF089
:1050F0000405AB42B8BF2B469942036018BF13604A
:10510000404AFFF745B90122C8F800308AF800206C
:10511000FEF7ABBD344D2B68FFF780B8344B07204A
:105120001968FEF735FA5DE53FF44DAC2868FCF7E9
:10513000BBFF326847E42F4B08201968FEF728FAB6
:1051400050E5A378002B7EF492AD02EB8203009829
:1051500002EB43024FF430711C4B01FB002213445D
:105160009A78C2F3001181F0010161F304129A7080
:10517000FEF77DBD022B40F05A82104B104A1B688F
:10518000106812491F4A03EB830503EB45034FF4F4
:10519000307505FB003319444B7803F07F00204441
:1051A00080F3070060F306034B70FFF7F1B80022AD
:1051B0008AE5012283F82420FFF77FB8B0B7FF1FEC
:1051C000E4C4FF1F9CA1FF1FBFBCFF1F94A1FF1FD2
:1051D0003893FF1F788EFF1FCC93FF1FE892FF1FAD
:1051E000C0BCFF1F348DFF1F6C92FF1FA8BAFF1FAA
:1051F000088EFF1F388DFF1FDCC4FF1F7892FF1F32
:10520000E5BAFF1F588DFF1F7C8EFF1FE0C4FF1FF4
:1052100028BCFF1FACBAFF1F30EB0000032A7FF44D
:1052200008A8984A984B1168984A019203EBC1016B
:10523000DFF8A8A24A79DFF8A89202F07F031C44A5
:10524000642CA8BF642424EAE474134664F30603C0
:105250004B71FFF776BA8E4B042A1B687FF47EA849
:10526000042B7FF47BA88B4A1368042B7FF490A84F
:1052700089490B682344022BA8BF022323EAE37366
:105280000B60FFF785B8012B00F0A781022B00F01F
:105290008E81032B00F0BD81DFF840A2FFF751BAE9
:1052A0000022A8E5022822D17C4E764D3268002BE0
:1052B000ACBF01214FF0FF310A4402F10F031E2B56
:1052C000326004D82868FDF71DFC38683268296808
:1052D0006D4B13F8313003F03F030133C3F101018B
:1052E000914219DC013B9342A8BF13463360032867
:1052F00040F0C481634A644B15686948694903EB0F
:10530000C5056B7803F00F02224482F3040262F3B6
:1053100003036B70FFF7DEB90B46E7E7624B032030
:105320001968FEF735F9FFF797BB5A4B0520196846
:10533000FEF72EF9089B1B78FFF790BB5B4B012013
:105340001968FEF725F93AE4FDF7BCFB009A557899
:10535000FEF78BBC564B05201968FEF719F9FDF7CF
:10536000C9FCFFF788BB002BC0F27E813FF48EAAF8
:10537000504B514A186812687F21FBF78BFA2A6854
:10538000FFF784BA4D4B02201968FEF701F916E4C5
:105390000EEB8E03009E4A480EEB43034FF430722F
:1053A00002FB0633034447489A78C0F800E0C2F392
:1053B000001080F00100DFF82CE1434E60F304128E
:1053C00001209A708EF8000008708AF80000307092
:1053D000FEF74BBC1546FEF748BC012B27D1294BE5
:1053E00037491E684FF4307303FB06F6E7B200221C
:1053F00002EB820302EB430333440132C85CC0F387
:1054000006053D4465F30600402AC854F0D12F49F3
:105410002A4B0A681D481B68DFF8C490019022449B
:1054200002F306020A60FFF799BA294A08E6022B3E
:105430005AD1144B144A1868264D204BDFF8A0901F
:105440001B6802EBC000817901F07F022244632ACD
:10545000A8BF632222EAE27262F306012A700B4AB5
:1054600081710192FFF77ABA64F38202CA71002C4B
:105470003FF412AFFFF786BA174B9DF808201A7059
:10548000FEF783BCE4C4FF1FF492FF1FBFBCFF1FE5
:10549000F48DFF1F588DFF1F4CBAFF1F54BAFF1F1A
:1054A000088EFF1F388DFF1F7892FF1F5893FF1F34
:1054B0006C92FF1FB0E90000348DFF1F7C8EFF1F30
:1054C00094A1FF1FB0B7FF1F14A1FF1F38A1FF1F3A
:1054D0005CA1FF1F3CA1FF1F30BCFF1FACBAFF1F28
:1054E00030EB000075A1FF1F032B7FF4F0AD664F7A
:1054F0003D68204608F0C6F8294608F00FF86349D1
:10550000064608F0B1FA002838D16149304608F063
:10551000C9FA00B15E4E5F4B294630461E6008F066
:1055200099FA00287FF4D3AD5B4B3E601D68DFF82D
:10553000B091284608F0A6F8314608F0F7F8014681
:105540005648574E08F0A6F908F0DCFA554B564A73
:105550001860002D1B6855490191B8BF0335AD1087
:1055600003FB05F51560106808F088F8504908F04D
:10557000DDF8504B30601B68FFF7F0B9434ECAE7C7
:105580004D4B4E491B6808684D4903EB830503EBFF
:1055900045034FF4307505FB003319440A44FF23DB
:1055A000D370FEF7D9BE63F38202CA7174E6434A30
:1055B000444B1168DFF82CA103EBC1010A7902F01A
:1055C0000F031C44062CA8BF062424EAE4741346E7
:1055D00064F303030B71FFF7B4B8384A394B116811
:1055E00013F8312002F03F0201321444002C49DD4F
:1055F000402C2246A8BF4022013A02F03F0213F895
:105600003100DFF8E0A062F3050003F83100FFF796
:1056100098B82A4B2C491A68DFF8C8A08B5C234441
:1056200083F3010303F001038B54FFF78AB8032BC4
:105630007FF466AD204B214A1B6810682049234A3D
:1056400003EB830503EB45034FF4307505FB003393
:1056500019448B7803F00F00204480F3040060F3BA
:1056600003038B70FEF794BE194B1A4A1868126830
:105670000021FBF70FF92A68FFF708B91648174908
:10568000FFF728B80022BAE7A08FFF1F00002042D2
:1056900000009643D0A0FF1FD4E90000C0E1644C95
:1056A0000CBCFF1FB0BAFF1FB8BCFF1FBFBCFF1F61
:1056B0006F12833A7C8EFF1FB0B7FF1FE4C4FF1F39
:1056C00094A1FF1FF492FF1F7092FF1F588DFF1FC0
:1056D000B0E90000348DFF1F088EFF1F388DFF1FBB
:1056E00030EB0000ACBAFF1F70B5184D82B02846F1
:1056F00002F0AEFAB5F90C1001291FDD00220126D7
:1057000094B26300688901969BB2C91A09B2C31AA0
:105710001BB200910D48114601F07EFB0B4802F0D0
:10572000A3FB012004F02CF8B5F90C10023401EBB6
:10573000D17322B243F34F039342E1DC4FF4FA708A
:1057400002B0BDE8704004F01BB800BF409FFF1FCF
:105750002DE9F0478D498E4B8E4A8F481A6082B0F2
:10576000086000F04FFA8D4B8D491B6801938D4BFB
:10577000019A08601A6003F0E1FF8B4B8B4E1860B2
:1057800003F0DCFF8A4A8B4B14681860204607F050
:1057900079FF894B894D1968894F07F0C7FF01468A
:1057A000884808F077F808F0ADF9874B874A186009
:1057B000002C1B68B8BF0334A41003FB04F414606E
:1057C000106807F05BFF824907F0B0FF306003F01C
:1057D000B5FF286003F0B2FF7E4B7F4ED5F800E0A6
:1057E00018600225002306EBC30107EB03120C79B6
:1057F000C2F804E0013365F30304082B0C719060D8
:10580000F1D10D2003F0B4FB05F044FC0D2003F0B2
:105810007BFB0024DFF81C82704FDFF81CA24FF0E6
:1058200084492646382005F047FC694B01220021B7
:10583000054600F09DFD4AF8246001344FF4005302
:10584000052C48F8045BC5F8109047F8046B6B60B2
:10585000E8D1FAF70FFF0121172003F069FF604C30
:10586000604D0C231846237003F03EFF207807F0AC
:1058700009FB02460B4600204FF0804106F002F97A
:1058800007F026FE584B28804022002128201A606D
:1058900003F02CFEFDF754FC002874D1534C544BFC
:1058A0002478544A1C705449544B1268544F554E36
:1058B000554D0968554C1A60554A3F6836682D6841
:1058C000596001219F60DE601D6120601160FDF75D
:1058D0008BFB504D504CFAF7EDFD2846A56002F0C9
:1058E000B7F9FFF701FFC82003F04AFF284602F08E
:1058F000AFF904F10800012101F078F8002104F16A
:10590000080001F075F8FDF7C9FA444800F060FAA4
:10591000434800F017FB424800F068FB414B404809
:10592000197800F0E7FC404B1D68002DC8BF00242B
:105930000DDDA1B23D4A3A4800F038FC384800F08D
:1059400055FB0134052003F01BFFAC42F1D10520CB
:10595000FDF77AFA4FF4FA7003F012FF0022ABB2AF
:1059600011462F4800F028FC2D4800F03FFB642032
:1059700003F006FF274802F077FA2D4B01221A7038
:1059800002B0BDE8F087FDF775FCA2E7E8CBFF1F8A
:10599000F0CBFF1F991300006914000094CAFF1F89
:1059A00078A1FF1F0CA1FF1F24BCFF1F0CBCFF1F11
:1059B000D4E9000044A1FF1FA08FFF1FD8C4FF1F20
:1059C00038BCFF1FC0E1644CB0BAFF1FB8BCFF1F5A
:1059D0006F12833A08BCFF1FF492FF1FC4BCFF1F65
:1059E00020B8FF1FBCBCFF1F90A1FF1FD8E900001B
:1059F00094B7FF1F34EB0000B4E900009493FF1F3D
:105A00003CEB0000B8E90000ACE90000E4C4FF1F73
:105A1000348DFF1F409FFF1F5CBAFF1FE8BAFF1FB6
:105A2000B8A0FF1FBCE9000030EB000080808000C0
:105A3000ACBAFF1FD0BAFF1F20A1FF1FF0B4002592
:105A40009DF810702C4602E00134202C10D0465DE9
:105A50001435002EF8D104EB8404A40006190125A6
:105A60000555284671603361B2603773F0BC7047EA
:105A70000020F0BC704700BFF8B50E4600F11004DE
:105A800000F52475002702E01434AC4215D014F858
:105A9000103C002BF8D02368B342F5D854F8082CFA
:105AA00054F80C0C0021FAF7CDFE14F8043C2BB985
:105AB00004F8107C1434AC42E9D1F8BD0021172061
:105AC00003F022FEF4E700BF4FF0FF31FFF7D4BF31
:105AD000F0B400259DF814702C4602E00134202C0F
