:1000000000800020BD010000559F00000D9F0000F2
:100010000D9F00000D9F00000D9F00000D9F000030
:100020000D9F00000D9F00000D9F0000559F0000D8
:10003000559F00000D9F000069BB00006DBB0000D4
:10004000559F0000559F0000559F0000559F0000E0
:10005000559F0000559F0000559F0000559F0000D0
:10006000559F0000559F0000559F0000559F0000C0
:10007000559F0000559F0000559F0000559F0000B0
:10008000559F0000559F0000559F0000559F0000A0
:10009000559F0000559F0000559F0000559F000090
:1000A000E1910000ED910000559F0000559F000078
:1000B000559F0000559F0000559F0000559F000070
:1000C000559F0000559F0000559F0000559F000060
:1000D000559F0000559F0000559F0000559F000050
:1000E000559F0000559F0000559F0000559F000040
:1000F000559F0000EDC60000559F0000559F000071
:10010000559F0000559F0000559F0000559F00001F
:10011000559F0000559F0000559F0000559F00000F
:10012000559F0000559F0000559F0000559F0000FF
:10013000559F0000559F0000559F0000559F0000EF
:10014000559F0000559F0000559F0000559F0000DF
:10015000559F0000559F0000559F0000559F0000CF
:10016000559F0000EDA70000559F0000559F00001F
:10017000559F0000559F0000559F0000559F0000AF
:10018000559F0000559F0000559F0000559F00009F
:10019000559F0000559F0000559F0000559F00008F
:1001A000559F0000559F0000559F0000559F00007F
:1001B000559F0000559F0000559F0000564B4CF284
:1001C000205210B51A804DF628121A8000BF00BFC9
:1001D00009F0C4FE514B4FF010621A60504A9A6009
:1001E000504ADA60504A136813F4807304D14F49BF
:1001F0000B604FF4A85313604D4B1A78110703D5C9
:100200001A7842F008021A704A4B4B492A221A7097
:100210004A4A4B4B8B4204D252F8040F43F8040B6A
:10022000F8E7484B484900228B4202D243F8042B9E
:10023000FAE74649464A002352F8230041F82300D2
:1002400001336F2BF8D1434B434A802103F8011B44
:100250009342FBD1414B3D4A1A60414B8A221A70AE
:10026000A3F5805324225A70A0221A709A7992071B
:10027000FCD59A79D406FCD43A4A937903F00C035E
:10028000082B384BF9D103221A7146225A719A79F8
:100290009006FCD5334A9179324B4906FBD5324A58
:1002A0004FF0827111600921516020221A709A79F1
:1002B00002F00C020C2AFAD12C4B2D4A1A602D4B5D
:1002C0002D4A1A6000225A60072243F8042C2B4A58
:1002D000C3F80C2D62B60AF05FF9144B1B68DA07FD
:1002E00005D5274809F0ACFF264B274A1A60274B53
:1002F0001B785B0609D5234C234B22689A4204D114
:100300001F4809F09DFF0023236009F02DFE17F020
:100310009DFB0BF06FFDFEE70E2005403080044092
:10032000823F04000100002B10D0034014D0034092
:1003300002D0074000E00740D0A0FF1F8C41020020
:10034000308CFF1FD0A0FF1F70D1FF1F0082FF1F46
:100350000000000000E400E05FE400E008ED00E0E1
:1003600000500640004006404480044004800440A1
:10037000C010050014E000E0BFD401000000202000
:10038000AF759E621CE00340A5C3945A00F007407D
:10039000FFFFFFFFFFFFFFFFFFFFFFFFFFFFFFFF6D
:1003A000FFFFFFFFFFFFFFFFFFFFFFFFFFFFFFFF5D
:1003B000FFFFFFFFFFFFFFFFFFFFFFFFFFFFFFFF4D
:1003C000FFFFFFFFFFFFFFFFFFFFFFFFFFFFFFFF3D
:1003D000FFFFFFFFFFFFFFFFFFFFFFFFFFFFFFFF2D
:1003E000FFFFFFFFFFFFFFFFFFFFFFFFFFFFFFFF1D
:1003F000FFFFFFFFFFFFFFFFFFFFFFFFFFFFFFFF0D
:10040000FFFFFFFFFFFFFFFFFFFFFFFFDEF9FFFF23
:1004100010B5054C237833B9044B13B10448AFF33E
:1004200000800123237010BDD0A0FF1F000000003A
:10043000D03D0200084B10B51BB108490848AFF386
:1004400000800848036803B910BD074B002BFBD0A0
:10045000BDE81040184700BF00000000D4A0FF1FF7
:10046000D03D0200D0A0FF1F0000000010B584B0F6
:100470000A4C0B4B02930B4A01924FF0FF3300934F
:100480002046094B2022802107F062FD074A0849D7
:10049000204604B0BDE810400DF058BBECA0FF1F93
:1004A000801A060040420F009893FF1F0C8DFF1F1B
:1004B000A97F000030B5094C83B001252046009586
:1004C0002B463C22022107F0C5FE20460221A576DC
:1004D00003B0BDE8304007F08DB800BFECA0FF1FAF
:1004E00070B5CEB2044680E80600D5B2304602218F
:1004F00009F0DCFF0221284609F0D8FF304609F058
:10050000C7FFA060284609F0C3FF0023E060236115
:100510006361204670BD00BF30B5044683B00078EB
:1005200009F0B6FF0546207909F0B2FFA3689D42A5
:10053000E36824D0984231D0A560E060ADB1A0B1AD
:100540002369012B37DD0023236101221E4B6169E2
:100550001B680193019B63615B1A132B32D9312B0A
:100560008CBF002301231BB201E00022134692B28C
:10057000002062F30F0063F31F4003B030BD9842C8
:10058000F3D02369A56085420CBF01224FF0FF32F2
:1005900013442361E060002DE7D0D0E72369A56014
:1005A000854214BF01224FF0FF3213442361E06003
:1005B000002DDAD0C3E7002201332261D5DA4FF0F3
:1005C000FF32C3E70223D2E7E4CCFF1F10B5044695
:1005D000322240F2E2430160C8B2E260A36102212C
:1005E00009F064FF00234FF0FF31032261602274A1
:1005F000A3606361204610BD10B5044682B0007848
:1006000009F046FF636898421B4B09D01B680093B2
:10061000E268009B60601344A360002002B010BD3C
:100620001B680193A268019B9A4209D8217C4A1E4B
:10063000032A05D8DFE802F00F020707012818D0C7
:10064000002002B010BD0028FAD1A2690120134495
:1006500063612074E2E730B10128F1D103208842C0
:100660002074DBD1ECE762699A42E9D2022020745F
:10067000D4E70420F3E700BFE4CCFF1F704700BFBE
:1006800010B5184C636D1868036882B0DB6947F6D3
:1006900012219847144B1B6801930120019BC4F859
:1006A000003100FA00F200234FF6FF71024384F894
:1006B000580084F8702084F85A3084F85930636602
:1006C000236684F8F83084F8753084F8743084F840
:1006D000763084F87730C4F8FC30A166E16602B069
:1006E00010BD00BF54A1FF1FE4CCFF1F0B46014605
:1006F00018460AB90AF00EBE00220AF0C3BD00BFB8
:1007000010B54FF60F000AF06FFD044B5B6D1868D3
:100710000368F8211B68BDE81040184754A1FF1F6B
:1007200010B54FF60F200AF05FFD044B5B6D1868A3
:100730000368FA211B68BDE81040184754A1FF1F49
:1007400010B54FF60F300AF04FFD044B5B6D186883
:100750000368FB211B68BDE81040184754A1FF1F28
:1007600010B54FF60F400AF03FFD044B5B6D186863
:100770000368FC211B68BDE81040184754A1FF1F07
:1007800008B500200AF046FE003018BF012008BD61
:100790002DE9F041E0290C469DF8185008D8013D9C
:1007A000EDB20F2D02D849B2002912DBBDE8F0816D
:1007B000F729FBD90834E4B2012303FA04F414F056
:1007C000DD0FF3D0436D18680368BDE8F0411B6886
:1007D00018471F46436D8046186803682943C9B20D
:1007E0001B6816469847D8F854301868036806F016
:1007F0007F011B6804F0EF049847C02CD6D0D8F8CE
:1008000054301868036807F07F011B68BDE8F041A9
:10081000184700BF2DE9F0415FFA82F80C0608F195
:10082000FF3504F0FE4444F410442D02064605F45E
:10083000706544F00904000482B02C4300F4FE000B
:100840000F4620430AF0D0FCCDF80080FBB2F2B294
:1008500090210348FFF79CFF02B0BDE8F08100BF84
:1008600054A1FF1F00B583B0D2B20092CBB2C2B286
:1008700090210348FFF78CFF03B05DF804FB00BF35
:1008800054A1FF1F2DE9F0415FFA82F80C0608F130
:10089000FF3504F0FE4444F400442D02064605F4FE
:1008A000706544F00804000482B02C4300F4FE009C
:1008B0000F4620430AF098FCCDF80080FBB2F2B25C
:1008C00080210348FFF764FF02B0BDE8F08100BF5C
:1008D00054A1FF1F00B583B0D2B20092CBB2C2B216
:1008E00080210348FFF754FF03B05DF804FB00BF0D
:1008F00054A1FF1F2DE9F0415FFA82F80C0608F1C0
:10090000FF3504F0FE4444F430442D02064605F45D
:10091000706544F00B04000482B02C4300F4FE0028
:100920000F4620430AF060FCCDF80080FBB2F2B223
:10093000B0210348FFF72CFF02B0BDE8F08100BFF3
:1009400054A1FF1F00B583B0D2B20092CBB2C2B2A5
:10095000B0210348FFF71CFF03B05DF804FB00BFA4
:1009600054A1FF1F30B50304CDB2044603F4FE03C7
:10097000681E43F44043000283B043F00C0300F4CC
:10098000706018430AF030FC0095E2B20023C021E9
:100990000248FFF7FDFE03B030BD00BF54A1FF1FAA
:1009A000036810B504460BB17430984794F875305D
:1009B000803B7F2B00F28580DFE813F08A00830004
:1009C000830083008300830083008300830083000F
:1009D00083008300830083008300830096008300EC
:1009E00083008300830083008300830083008300EF
:1009F0008300830083008300830083009A008300C8
:100A000083008300830083008300830083008300CE
:100A10008300830083008300830083009E008300A3
:100A200083008300830083008300830083008300AE
:100A3000830083008300830083008300A20083007F
:100A4000830083008300830083008300830083008E
:100A5000830083008300830083008300AC00830055
:100A6000830083008300830083008300830083006E
:100A7000830083008300830083008300B000830031
:100A8000830083008300830083008300830083004E
:100A9000830083008300830083008300C400800000
:100AA000D500E50083008300ED008300F100F50030
:100AB000F900FD000101830005018400A36A002BF9
:100AC00064D110BD236D002BFBD0BDE8104018474A
:100AD000A368002BF5D094F8772094F8761094F85A
:100AE0007400BDE810401847E368002BF3D1E8E735
:100AF0002369002BEFD1E4E76369002BEBD1E0E73A
:100B0000A369002BDDD094F8761094F87400BDE84A
:100B100010401847E369002BF5D1D2E7226A002A7A
:100B2000CFD094F8771094F8763094F87400C90117
:100B300001F47E5103F07F031943A1F50051BDE894
:100B400010401047626A002ABBD094F8763094F8BF
:100B5000771043EA0121802904F1780028BF802121
:100B6000BDE810401047E26A002AAAD094F8773016
:100B700094F87600DB0103F47E5300F07F00184305
:100B8000BDE810401047236B002B9AD094F87600F4
:100B9000BDE810401847636B002B96D191E7A36B1B
:100BA000002B92D18DE7236C002B8ED189E7E36B6C
:100BB000002B8AD185E7636C002B86D181E7A36C7B
:100BC000002B82D17DE7E36C002B7FF47EAF78E7CA
:100BD000F8B5436D0446186803681B69984708B95F
:100BE0000020F8BD94F80D31626D23F0010384F804
:100BF0000D31106803685B699847C3B2FD2BEFD0D5
:100C0000626E002A49D001067ED494F85B10F02968
:100C10005FD0F7295DD0A11881F85B30216E4B1EA3
:100C20009A4253D394F85B30F02B00F00A82F72BF2
:100C300000F007821A0650D4002284F87520B02AEA
:100C40005CD0A02A5AD0D02A58D0E02A56D0C02A48
:100C500054D0002084F87400032994F85C0008BF85
:100C600094F85D5084F8760018BF0025002101201B
:100C7000B02A84F877506166216684F8F80008D0BD
:100C800000F2D581902A04D0A02A02D0802A00D078
:100C9000002384F859300120F8BD94F8592084F8D5
:100CA0005B3015064DD440B20028C0F20E8294F994
:100CB0000D01636840F0010084F80D0103B198470D
:100CC000002084F8590060662066F8BD0132626633
:100CD00086E7A11881F87830A0E703F10C02D2B2C0
:100CE000012AA9D9FD2BA7D0EF2B00F2EC8103F04C
:100CF000F002802A84F8752040F0EF8103F00F00A5
:100D0000013084F87400A7E7A3F1F0010F293FF642
:100D10007CAF012000FA01F111F0810540F0B181B2
:100D200011F45F4F3FF471AF84F8765084F8775038
:100D300084F8745084F87530C4F8FC0084F8F80026
:100D4000F8BD02F10C01CDB2012DACD9FD2AAAD01B
:100D5000EF2A00F2578102F0F006802E40F0538116
:100D600040B20028A0DB0120C9B2814284F85B2098
:100D700084F85C3060669AD9FD2A98D0EF2A94BF37
:100D800002F0F0051546A5F180037F2B8FD801A155
:100D900051F823F0FD0F0000AF0C0000AF0C000075
:100DA000AF0C0000AF0C0000AF0C0000AF0C000057
:100DB000AF0C0000AF0C0000AF0C0000AF0C000047
:100DC000AF0C0000AF0C0000AF0C0000AF0C000037
:100DD000AF0C0000FD0F0000AF0C0000AF0C0000D6
:100DE000AF0C0000AF0C0000AF0C0000AF0C000017
:100DF000AF0C0000AF0C0000AF0C0000AF0C000007
:100E0000AF0C0000AF0C0000AF0C0000AF0C0000F6
:100E1000AF0C0000FD0F0000AF0C0000AF0C000095
:100E2000AF0C0000AF0C0000AF0C0000AF0C0000D6
:100E3000AF0C0000AF0C0000AF0C0000AF0C0000C6
:100E4000AF0C0000AF0C0000AF0C0000AF0C0000B6
:100E5000AF0C0000FD0F0000AF0C0000AF0C000055
:100E6000AF0C0000AF0C0000AF0C0000AF0C000096
:100E7000AF0C0000AF0C0000AF0C0000AF0C000086
:100E8000AF0C0000AF0C0000AF0C0000AF0C000076
:100E9000AF0C0000F50F0000AF0C0000AF0C00001D
:100EA000AF0C0000AF0C0000AF0C0000AF0C000056
:100EB000AF0C0000AF0C0000AF0C0000AF0C000046
:100EC000AF0C0000AF0C0000AF0C0000AF0C000036
:100ED000AF0C0000F50F0000AF0C0000AF0C0000DD
:100EE000AF0C0000AF0C0000AF0C0000AF0C000016
:100EF000AF0C0000AF0C0000AF0C0000AF0C000006
:100F0000AF0C0000AF0C0000AF0C0000AF0C0000F5
:100F1000AF0C0000FD0F0000AF0C0000AF0C000094
:100F2000AF0C0000AF0C0000AF0C0000AF0C0000D5
:100F3000AF0C0000AF0C0000AF0C0000AF0C0000C5
:100F4000AF0C0000AF0C0000AF0C0000AF0C0000B5
:100F5000AF0C0000B30F0000F50F0000FD0F000004
:100F6000F50F0000AF0C0000AF0C0000950F000063
:100F7000B30F0000950F0000950F0000950F0000C3
:100F8000950F0000950F0000AF0C0000950F0000BA
:100F9000950F00000023012084F8743084F8763027
:100FA00084F8773084F875506366236684F8F80017
:100FB000F8BD80210023216684F8785084F85930E8
:100FC0007F21636E8B422ED302F00F020023013289
:100FD00094F85C1084F87420012084F8761084F86A
:100FE000773084F8755063662366C4F8FC0084F893
:100FF000F800F8BD022323660121E2E703232366FC
:101000000221DEE7164606F0DF05902D3FF4A8AE7C
:1010100006F0BF05A02D3FF4A3AE06F0EF06C02EEC
:101020003FF49EAE3FE6013363660020F8BDD02A50
:101030003FF42FAEE02A3FF42CAEC02A7FF428AE56
:1010400027E6F02280230025012194F8F76084F838
:10105000752084F8763084F8F720C4F8FC302046F8
:1010600084F8775084F8745084F8F810FFF798FCEF
:10107000F722022384F8796084F878202846636692
:10108000F8BD94F87810F02902D0F7297FF40FAE5C
:10109000551C224400214FEA152E82F87830012693
:1010A000F02784F8765084F877E084F8741084F898
:1010B00059103046C4F8FC5084F87570616621669A
:1010C00084F8F860F8BD1A46B7E503F10C02D2B215
:1010D000012A7FF6ECAD1A4650E6902A3FF40EAE98
:1010E000ADE500BF90F87030DA0718D513F0FE0FA9
:1010F00015D070B590F8755085F08002602A82B0E6
:1011000004460DD890F874608E4231D081B35B08EC
:10111000012B32D0032B00F09F8002B070BD7047CE
:10112000A5F1F0030F2BF8D801A252F823F000BF6D
:101130002712000005120000D3110000B7110000B3
:101140001B1100001B1100008F1100001B1100007B
:101150008F1100001B1100008F1100008F11000083
:101160008F1100001B1100008F1100008F11000073
:101170005B08012B01D0022BCFD194F8773094F883
:101180007620009629462046FFF702FBC5E705F1C9
:101190000803DBB2072BC0D8012202FA03F313F0D5
:1011A000DD0FBAD0636D1868036829461B6802B06A
:1011B000BDE870401847436D90F876501868036892
:1011C000F3211B689847636D186805F07F01036879
:1011D000ECE7436D90F87750186894F87620036830
:1011E000F2211B6842EAC5159847636D18680368C9
:1011F00005F07F011B689847636D1868C5F3C61139
:101200000368D3E7436D90F87650186894F8773008
:1012100002682D0103F00F03126805F07005F1213B
:101220001D439047BEE790F8763090F8776043EA28
:101230000626802E28BF802600F17805002E3FF478
:101240006CAF2E44636D15F8011B186803681B68AA
:101250009847B542F6D160E794F8773094F8762055
:1012600000962946FFF794FA57E700BF70B5174C70
:1012700094F85860102E02D90025284670BD2046EB
:10128000FFF7A6FC05460028F6D094F87530902BA1
:101290000CD083F08003602B0BD90C48FFF780FB48
:1012A00031460A48FFF71EFF284670BD94F8773094
:1012B0003BB194F874309E42EFD0002EEDD0002563
:1012C000EEE7802384F87530F3E700BF54A1FF1FD9
:1012D000F8B5294C294F94F87030DFF8ACE0C7F826
:1012E00000E00025012243F0010362F347034FF6BB
:1012F000FF76294604F17800802284F87030676513
:1013000025606560A560E56025616561A561E561B1
:1013100025626562A562E56225636563A563E56391
:1013200025646564A564E564256584F8585084F8EF
:10133000595084F85A5025666566A666E66684F8B4
:10134000745084F8755084F8765084F8775084F897
:10135000F85016F0FBFF2046C4F80051C4F80451C1
:10136000C4F8085184F80C5184F80D51044A054919
:10137000BDE8F8400CF0EABB54A1FF1F50A1FF1FCD
:101380000C8DFF1F7D0600000096FF1F0020704798
:10139000704700BF194B1B7870B505460E461446C2
:1013A0003BBB174B1B78CBB9A3F15533A3FB0623EB
:1013B000DB0813F0010FA3EB830306EB830318BFD5
:1013C0000C33104A104832F82310002205F0D6FBE7
:1013D0000D4805F0EDFA0D4B01221A700C4B1B78ED
:1013E00003B970BD2A4621463046BDE87040FFF77C
:1013F00071BA0021172009F045F8D2E7328DFF1F9E
:1014000090A3FF1F80CC010068A2FF1F9CBCFF1FA0
:1014100009A3FF1F054B1B7803B9704710B40C4696
:1014200011460246204610BCFFF78CBA09A3FF1FE5
:10143000024B0A460146186805F0F8B9C0BCFF1F08
:1014400010B5044605F0AEFF0A2830D00D283DD077
:101450004FF6FD73984201D9012010BD0346B4F93F
:101460004220B4F9401004F1080005F07FFF94F821
:101470002230032BF0D8DFE803F0140E0802B4F892
:101480004230181AA4F84200E6E7B4F84030181ABF
:10149000A4F84000E0E7B4F842301844A4F8420051
:1014A000DAE7B4F840301844A4F84000D4E794F9DF
:1014B000333094F93410B4F842205B1A13440022FC
:1014C000A4F84230A4F84020012010BD0023A4F865
:1014D0004030012010BD00BF10B50446D0F84801CF
:1014E00008B10AF091FCD4F83C0108B10AF08CFC78
:1014F000D4F8300108B10AF087FC04F1100008F0BC
:1015000073F8204610BD00BF10B5183814F0E4FC85
:1015100009490A4C14F034FD0BF03EFA14F0F6FEC3
:1015200001212060172008F0ADFF21682820BDE8C8
:10153000104008F099BE00BF90759242BCBCFF1FDE
:101540002C4B1B7810B50C46002B39D12A4B1B783D
:101550001BB1A4F11803352B38D9284B1B78D3B90C
:10156000A3F15533264AA3FB0413DB081470A3EB45
:10157000830204EB8204DA070ED473B9214A224BAA
:10158000224833F8241005F0F9FA204805F010FA43
:101590001F4B01221A7010BD0C34012B1CD0022BE2
:1015A00018D0032B1CD0042B1DD0052B1ED0062BCE
:1015B00014D0144A4FF6FF71072B08BF0A46DEE726
:1015C000114602462046FFF74DF9BFE72046FFF7D8
:1015D0009BFFC2E70F4AD2E70F4AD0E70F4ACEE798
:1015E0004FF47F42CBE74FF0FF12C8E74FF6FF7290
:1015F000C5E700BF09A3FF1F328DFF1F90A3FF1F88
:10160000E9BCFF1F8080800080CC010068A2FF1F22
:101610009CBCFF1F00FFFF000080FF0000FF800058
:101620002DE9F0471546002A63D004460F46DFF83F
:10163000C88000264FF6FD7900F1080A0BE005F09E
:10164000B1FE0A2825D00D2832D0484511D90120F5
:10165000013D06440AD0236817F8011B1B68434567
:101660002046ECD09847013D0644F4D13046BDE811
:10167000F0870346B4F94220B4F94010504605F013
:1016800075FE94F82230032BE1D8DFE803F02B2419
:101690001D1694F9333094F93410B4F842205B1AD3
:1016A00013440022A4F84230A4F840200120CFE7E0
:1016B0000023A4F840300120CAE7B4F84230181AD9
:1016C000A4F842000120C3E7B4F84030181AA4F887
:1016D00040000120BCE7B4F842301844A4F84200AE
:1016E0000120B5E7B4F840301844A4F840000120C8
:1016F000AEE71646BAE700BF41140000F8B50D4E3C
:1017000033689842044611D30B4A0C4D12680C4FB3
:1017100085FB0215D217C2EBA505E41AFEF7F0FF10
:101720003B6803FB05F39C423360F6D21B1B33601E
:10173000F8BD00BFE4BCFF1FCCCB0100ABAAAA2AB6
:10174000A0BCFF1F70B50D4D2B689842044612D304
:101750000B4E32682A60E41A08F0AEFE01460948D2
:1017600003F0C6FC08F0A8FE0146074803F00CFD94
:101770002B68A342EDD91B1B2B6070BD38BDFF1F2A
:10178000A0BCFF1F5CC0FF1F5CBDFF1FF8B50F4F63
:101790000F4D3B680F4E03EB8303044603440A4698
:1017A00055F8230056F82410FFF7A4F83B680A4FB9
:1017B00056F8242047F8242003EB83031C440749F0
:1017C000074855F8243002600B60F8BDD0BCFF1FFD
:1017D0008C8EFF1FF0A2FF1F0CA3FF1FD0A2FF1FC4
:1017E0002CA3FF1F2DE9F04FDFF824827C4D7D4EA6
:1017F0007D4FDFF820A2DFF82092DFF820B283B01F
:10180000002458F8040BC0B208F05CFA0346014605
:1018100028683B6005F0A6FB55F8042BDAF80010A9
:10182000D36AD9F80000994200F3B2808342A8BF7E
:101830000346401A00F0A8805B1AC3EB833100EB2B
:10184000D07301EB630303FB00F1002993FBF0F37A
:10185000B8BF03F1FF33D91192F834203B6046F84A
:10186000041B002A56D09BF80030032B52D8DFE827
:1018700003F0490202495D4B1B78002B4FD05C4BB3
:101880001B78002B4BD05B4B5B481B685B4ADFF837
:1018900090E103EB83032344042C50F823301360BE
:1018A000574BCEF80040196000F0838003F054FFDE
:1018B0002044544B56F8042CC270DA68019340F26D
:1018C000CB2101FB0232204692F8851001F00F0176
:1018D0000131FFF75BFF019BDA6840F2CB2101FB8E
:1018E0000233204693F8851001F00F010131FFF714
:1018F0004DFF0134444B0122052C1A7081D103B0F5
:10190000BDE8F08F9BF802102046FFF73FFF3E4BEB
:1019100001221A700134052C7FF473AFEFE73B4BC3
:101920001B78002B36D0334B33481B68334ADFF823
:10193000F0E003EB83032344042C50F823301360BE
:101940002F4BCEF8004019602E4B34D0D86803EBF3
:10195000800240F2CB2C526A02EB820E0CFB00F0AC
:1019600002EB4E0202441A442244034482F89210CD
:1019700093F8851001F00F0101312046FFF706FFB3
:10198000214B01221A70C5E73F2141F6FF7363E73F
:101990000B464EE71B4BDA6840F2CB2101FB0233CA
:1019A000204693F8851001F00F010131FFF7EEFE9C
:1019B000B0E7144B90E7D3F80CE003EB8E0040F255
:1019C000CB22406A02FB0EF24FF00B0E0EFB002200
:1019D000134493F8902061F3060283F89020CFE738
:1019E00030A3FF1FF0A2FF1FCCA2FF1F34BDFF1FBB
:1019F000C8A2FF1FD0BCFF1F8C8EFF1FD0A2FF1FED
:101A00002CA3FF1F3CA5FF1F9CBCFF1F28A3FF1F8B
:101A1000B8CB010084A3FF1F348DFF1F90A3FF1FCD
:101A2000E4A3FF1F2DE9F0434B4B4C4C196883B0E6
:101A3000084614F09DF914F08FFC4949494A0B6897
:101A40000093009B156820605B1B984208D84648AD
:101A50000968037801910199116083F00103037013
:101A6000424B1B7833B3404B1C78002C62D1254687
:101A7000264627464FF47F0200213D4805F07EF8B8
:101A80003A4601213A4805F079F8324602213848B1
:101A900005F074F82A460B21354805F06FF8224608
:101AA0000C21334805F06AF8324B01221A7003B05A
:101AB000BDE8F083304B1A78002A47D02A4B1B78B8
:101AC000002B3ED199469846FF220021284805F078
:101AD00055F82A4B1F68132FE6DD294DA7F108069C
:101AE0000B2405E04A46013405F048F8A6420DD023
:101AF00015F8013F1E48234AA1B2002BF2D1A1B232
:101B00001B48013405F03AF8A642F1D1132FCBDD82
:101B10001D4D132415F8013F15484246A1B21BB9CB
:101B200013484FF47F02A1B2013405F027F8BC42FC
:101B3000F0D1B9E747F6FF74124D144F4FF0FF167E
:101B400098E7DFF840904FF47F08BDE7114608485A
:101B500005F014F8A8E700BFD4BCFF1FCCBCFF1FE2
:101B6000E4CCFF1F44A3FF1F48BDFF1FE8BCFF1FBD
:101B700068A2FF1F16BDFF1F40BDFF1FE8CC01007C
:101B80004BBDFF1F0080FF0053BDFF1F00FF800003
:101B90002DE9F04F9D4B9E4C196887B007460846CB
:101BA00014F0E6F814F0D8FB9A4A9B4913680293A4
:101BB000029B0D6820605B1B98424FEA400408D8E6
:101BC000964D10682B78039083F0010303982B70D7
:101BD00008601368924A0493049B11688D485B1A4D
:101BE0009C4208D88F4900680B78059005981060D2
:101BF00083F001030B708C4E737923B1874D2B78E2
:101C0000002B40F08B80894C2378A3B1834D2B7837
:101C1000002B40F0B081864B1B78002B6AD0854B9F
:101C20001B78012B6ED0022B72D14D2200218248ED
:101C300004F0A4FF0EE07E4B1B78002B5AD0774DAA
:101C40002B78002BEBD07D4B7B4853F827200021CD
:101C500004F094FF40F2CB2303FB076393F88E302C
:101C6000D90740F1B080764BDFF8FC9153F827306C
:101C7000C9F8003007F1180806EB88022378546889
:101C80002401002B57D06F4B1B78002B53D06E4B89
:101C90001F68012F49DD614DDFF8D091DFF8D08159
:101CA00001240DE0012632460B21634804F066FF53
:101CB000013432461A21604804F060FFA74234D054
:101CC000D9F80020614B1340002B6CDBD8F80020C2
:101CD000A24203F10B0370D0A3425ED00022A1B256
:101CE000554804F04BFF2B78002BDBD0584A47F6C1
:101CF000FF76D9E7574B1B78002BA0D14D4B1B78B3
:101D0000012B90D1544A4C48002104F037FFA1E741
:101D100000221146484804F031FF9BE701220021D0
:101D20004548424C04F02AFF94E74C4B01221A70BC
:101D300007B0BDE8F08F474B1B78002B50D0424BCB
:101D40001F68112F09DD103F0125A9B200223A4872
:101D5000013504F013FFAF42F7D104F10F070B2553
:101D6000DFF80C810AE0D8F800309D4201D004F081
:101D700005FF0134BC4205F10105D6DCF3682E48AD
:101D800006EB8303A9B25B6AA3424FF00002EAD1DB
:101D90004FF4000204F0F2FEEBE72D4A2648A1B210
:101DA00004F0ECFE9FE7013BD8F8002063F00F033E
:101DB0000133A24203F10B038ED1274A1E48A1B280
:101DC00004F0DCFE8FE71D491D4ADFF89C90244B90
:101DD00051F8271052F82720C9F800101A6049E777
:101DE000F36840F2CB2A0AFB036393F88E305A075C
:101DF0009BD41C4B1B78002B40F0F980124B1D68C4
:101E0000012D63DD0AFB076A012441E0D4BCFF1FFA
:101E1000CCBCFF1FE4CCFF1F44A3FF1F48BDFF1F26
:101E2000C4A2FF1FDCBCFF1F3CA5FF1F34BDFF1F6A
:101E300008A3FF1F90A3FF1F68A2FF1F84CB010010
:101E4000E0C90100C8A2FF1FE8CC01000F0000801C
:101E50000080FF0028A3FF1F8080800016BDFF1FA9
:101E6000A0A2FF1F0CBDFF1FE0BCFF1F68A3FF1F48
:101E7000B8BCFF1F022C6FD0FB1CA34200F0828075
:101E80000022A1B2904804F079FE0134AC4218D08F
:101E90009AF8843003F03F030B33A342F0DB012CAC
:101EA000E8D18A4B5B7823B1894B1B78002B40F03B
:101EB000E280884A84480121013404F05FFEAC428C
:101EC000E6D106EB8808D8F80440240140F2CB2B79
:101ED0000BFB07FB06EB0B0804EB84025B4608F1E7
:101EE0008F0804EB4202CDF804B01E44DFF800B2C4
:101EF000904404F10F0A0B2513E0A24200F0C180C8
:101F000098F80220D0065DD4734A6F48294604F041
:101F100035FE01340135A245ADB208F10B08FFF6DC
:101F200004AF96F8842002F03F020132A242F0DDB5
:101F30000BEB8702A307526ADFD0A2423AD098F88F
:101F40000220D2063ED4654A1278002ADCD1294606
:101F50005D4804F013FEDCE75C4B9B7823B15C4BDF
:101F60001B78002B40F087804FF680720221564884
:101F700004F004FE89E744F64D420021524804F083
:101F8000FDFD67E61FFA84FB5946D9F800204E484C
:101F900004F0F4FD514B1B78002B3FF476AF4C4B13
:101FA0001B78002B3FF471AF59460022464804F0DD
:101FB000E5FD6AE79BF80520002A67D198F8022022
:101FC000D1066CD598F80A20530709D0444A1278F4
:101FD00032B9444A3C481268294604F0CFFD98E7DC
:101FE000D9F800203848294604F0C8FD91E7384D5B
:101FF0002A78002A51D0374A4FF68074012132489E
:1020000004F0BCFD224602212F4804F0B7FD364BF8
:10201000D3F80090B9F1030FC8BF032407DDA1B2C4
:1020200000222948013404F0A9FD4C45F7D140F2C3
:10203000CB2303FB07674FF47F0297F884902B4F65
:1020400006EB8806C9F30119002473681E4804F1E1
:102050000B01A34289B204F1010407D004F08EFD04
:10206000A145FFF662AE57F8042FEEE72B78002B60
:1020700008BF0022F2E700222146134804F07EFD4B
:1020800003E79BF80520002A3FF43AAF4FF4000223
:1020900029460D4804F072FD3BE71446AEE70F4AAF
:1020A0001278002A7FF430AF04EB8402019B04EB2A
:1020B00042021A445A4492F89120C2F30012002AB4
:1020C0007FF427AF43E700BF68A2FF1FA4A2FF1F52
:1020D00048BDFF1FFFFF80002020200008A3FF1F36
:1020E000DCBCFF1FA0A2FF1FE8CC010074CB0100E5
:1020F0003CA5FF1F10B550B904460121094805F061
:102100004DF921460748BDE8104005F049B90021C6
:10211000044805F043F901210248BDE8104005F0EC
:102120003FB900BFA4A3FF1FA0F11803352B00D9AE
:102130007047FFF7E9B900BF0021172008F0A2B9E6
:10214000F8B51F4DDFF8A8E01E4B2D68DEF8004003
:102150001B6894FBF3F607461B4850F8270005EB75
:10216000450503FB164300EB850401337F2CCEF8B5
:10217000003016D81546154A154E16481278347098
:1021800040F8274012B1144A15681D44134B2A46E3
:10219000204643F82750FEF73DFBA4F11803352BEA
:1021A0000AD9B9B20E4A0F4804F0E8FC0E490F4AAA
:1021B00001230B701370F8BD2046FFF7A5F9F0E777
:1021C0006CA3FF1FBC8DFF1FD4CB01004CA3FF1FCE
:1021D000E9BCFF1F408DFF1FD4A2FF1FC08DFF1F52
:1021E0008080800068A2FF1F16BDFF1F9CBCFF1FE0
:1021F0007CA3FF1F0D4B10B5044653F820007F2829
:1022000009D80B4B002153F82420FEF73BFB00219B
:10221000172008F037F9A1B20022064804F0AEFCFE
:102220000549064A01230B70137010BD408DFF1F36
:10223000C08DFF1F68A2FF1F16BDFF1F9CBCFF1FA4
:102240002DE9F0473A4FBDF82060054689463846EB
:1022500029469246984605F0F1F897F9314080B248
:10226000A4B2C0EB0803341B03EBD37304EBD474A8
:1022700009EB63030AEB640400222846A7F8403008
:10228000A7F8424087F8462016F0DAFE48B3044625
:102290003E464FF6FD7801E0013C22D015F8011BC7
:1022A000234805F07FF80A282FD00D283BD0404561
:1022B000F2D80346B6F94220B6F940101D4805F0A1
:1022C00055F896F82230032BE6D8DFE803F0181211
:1022D0000C02B7F84230013CA3EB0000A7F8420023
:1022E000DCD1BDE8F087B7F84030181AA7F84000F5
:1022F000D2E7B7F842301844A7F84200CCE7B7F865
:1023000040301844A7F84000C6E796F9333096F9F4
:102310003410B6F842205B1A13440022A6F842306B
:10232000A6F84020B8E70023A6F84030B4E700BF85
:102330009CA3FF1FA4A3FF1F30B5054683B0104622
:102340000C46FFF7D7FE074B1A68520061011623AF
:102350000332009309B2284612B22023FFF770FF20
:1023600003B030BDB88DFF1F30B51D4C83B00121C7
:1023700004F1080004F0F8FF04F10800194905F021
:1023800003F8002504F108000121A4F84050A4F846
:10239000425084F8465005F001F8294604F108003F
:1023A00004F0FEFF104B5A781B78934210D00F4B6D
:1023B0001B784BB90E482023009314222C2356215E
:1023C000FFF73EFF03B030BD0A4B53F82200F2E79F
:1023D000064A1278002AEDD0064A52F82300EAE7AE
:1023E0009CA3FF1F1C01020090A3FF1FC4BCFF1F82
:1023F0006CCA0100508EFF1F70B5064684B01046AF
:102400000D46FFF777FE0A4B1C68640002A93046B0
:102410000A22033415F05AFBA4B269011623009373
:1024200022B209B202A82023FFF70AFF04B070BD50
:10243000B88DFF1FF8B5134E07460025708800249D
:1024400098B12304FF2293FBF0F02844114680B298
:1024500004F0BEFB04F060FCA1B20246094804F09F
:102460008DFB70880134A042EBDC064804F0A0FA32
:1024700005F58075384608F041F8B5F5803FDDD1A7
:10248000F8BD00BF68A2FF1F2DE9F047494BDFF8F8
:102490003C81494E0FCB86B006AC04E90F0047489B
:1024A00006F0AEF8002108F1080004F05DFF454693
:1024B0004FF0000A4148424C06F0A2F812230022D5
:1024C00040494148A8F84030A8F8423088F84620F2
:1024D0000FFA8AF904F058FF4FF6FD7701E0B44295
:1024E00022D014F8011B394804F05CFF0A284FD0B1
:1024F0000D285BD0B842F2D80346B5F94220B5F9B1
:102500004010314804F032FF95F82230032BE6D812
:10251000DFE803F038322C02B8F84230B442A3EBC3
:102520000000A8F84200DCD12949274804F02CFF1C
:1025300009F0030906AB03EB8909202359F8100CB5
:1025400000930A225021FFF77BFE1C4806F064F935
:102550000AF1010A642007F0D1FFBAF1100FA9D1E6
:10256000642006B0BDE8F04707F0C8BFB8F84030B7
:10257000181AA8F84000B2E7B8F842301844A8F892
:102580004200ACE7B8F840301844A8F84000A6E78D
:1025900095F9333095F93410B5F842205B1A13449D
:1025A0000022A5F84230A5F8402098E70023A5F8BE
:1025B000403094E7B4C9010006CA0100ECA0FF1F37
:1025C00000CA0100D0CE0100A4A3FF1F9CA3FF1FDF
:1025D0008CD701002DE9F04F85B001A80B223C49B2
:1025E0003C4E07F055F9A6F140073D46002456F849
:1025F000043F05F5307B03F07F0AA9469DF80430BF
:102600000B226AF3060309F18F0001A991448DF8AA
:10261000043007F03DF9D945F0D140F2CB2303FB5C
:1026200004724FF00F0892F8840092F8851092F827
:10263000879092F88E3092F886A092F888C092F82F
:1026400089E068F3050064F303016FF3050982F87C
:10265000840092F88A0082F8851082F8879092F8B8
:102660008B104FF0030969F305004FF0020969F37D
:10267000030182F88B1092F88D1082F88A004FF0D7
:10268000010B92F88C0001F0800103F0F8035C4428
:102690006FF3050A6FF3050C6BF3050E6FF306007D
:1026A0006FF3C7116FF3C303082C82F886A082F87A
:1026B00088C082F889E005F2CB2582F88C0082F888
:1026C0008D1082F88E3092D105B0BDE8F08F00BF3A
:1026D000C4C901007CA5FF1F2DE9F041DFF880800F
:1026E0001B4BD8F800001A7803681A4C5B681A4F25
:1026F00000219847D8F800002278036801215B6820
:102700009847D8F80000154A0368127B5B680221DD
:102710009847D8F80000A2780368013AD2B25B6803
:10272000032198470424661D3D46D8F8000055F85B
:10273000042F036821465B68D2B201349847B44243
:10274000F3D11D2C07F11407EDD1BDE8F08100BFD6
:10275000ACCB010090A3FF1F888EFF1F3CA5FF1F7D
:1027600024A3FF1F2DE9F0411E4E306803680021AD
:102770009B689847FF2803D01B4B1B78834202D0ED
:102780000020BDE8F0813068184C0368DFF86480F1
:102790009B6801219847336820701A681846022107
:1027A00093689847336812491A686060C8609268F5
:1027B0001846032190470130A0700424671D454648
:1027C0003068036821469B6898470134A74245F862
:1027D000040FF5D11D2F08F114083C46EED101205D
:1027E000BDE8F08124A3FF1FACCB010090A3FF1F25
:1027F0003CA5FF1F888EFF1F2DE9F84FDFF854B06E
:10280000134FDBF80000DFF850A00368DB6898473F
:1028100002F09CFFC7F120058046A0F2CB29B8F159
:10282000000F3C46C8BF07EB080609DDDBF80000D7
:102830000368611914F8012B5B689847B442F5D11D
:1028400007F2CB2757454D44E9D1BDE8F88F00BFCB
:10285000C0A5FF1F24A3FF1F18BCFF1F2DE9F047D1
:102860001A4FDFF86C803868DFF868A00368ADF5B0
:10287000347DDB68984702F069FF2024814640F2EE
:10288000CB22002101A815F061FDB9F1000F04EB86
:102890000906C8BF01AD09DD3868036821469B6899
:1028A00098470134B44205F8010BF5D140F2CB2230
:1028B00008F1840001A9904406F0EAFFD0453446AF
:1028C000DDD10DF5347DBDE8F08700BF24A3FF1FE7
:1028D0003CA5FF1F94BBFF1FF0B5414B414D1A684B
:1028E0004148424E007889B00492049A19680591D3
:1028F000059F19680691069C19683D4B07913D4953
:102900001A603D4B3D4A0C60002401212F601C7170
:10291000079F3B4D376094701472DC6083F822404F
:10292000A3F84040A3F8424083F846401D60198355
:1029300083F821101070507007F0BEFD314B324A01
:102940001B68324E324D106003EB83033149324A2B
:1029500055F82350314833680D60136002F040FE93
:102960002F4B304A19683048304B126801601A60AA
:10297000084613F0FDF913F0EFFC2D4B2D4F1860B6
:102980000B220C212C482D4E2D4DFDF7A9FD214683
:102990002C48FDF71BFE2C4B2C4A19682C4B126857
:1029A00001930623039305242A4B009338462A4BB0
:1029B000029402F03FFC3246384628490BF0C6F834
:1029C000274B284A1988B2F900205223284604F0E0
:1029D000BFF83246284624490BF0B8F809B0F0BDDC
:1029E000E4CCFF1FC4A2FF1FD0CB0100C8BCFF1F57
:1029F00044A3FF1F08BDFF1F9CA3FF1F90A3FF1F41
:102A0000A4C90100D0BCFF1F88A3FF1FF0A2FF1FB5
:102A10008C8EFF1FD0A2FF1F2CA3FF1F3CA5FF1F02
:102A2000B48DFF1F6CA3FF1F80A2FF1F04BDFF1FFB
:102A3000CCBCFF1FE8A3FF1F50A3FF1F0C8DFF1F7F
:102A400068A2FF1F84A2FF1F388DFF1F2C8EFF1F5F
:102A5000608EFF1F848EFF1F308EFF1FD914000071
:102A6000E8CC0100F0CC0100E9680000F0B583B0CB
:102A70000024154D01942026224680230746214636
:102A80000096124804F01EFE2846012104F06CFC5A
:102A900028460F4904F078FC2846012104F07EFC0A
:102AA0002146284604F07CFC2146009638468023C7
:102AB0000A22FFF7C5FB074A074B084911600122AC
:102AC0001A7003B0F0BD00BFA4A3FF1FECA0FF1F4E
:102AD000D0CE010000BDFF1F9CBCFF1F20A107003E
:102AE0000FB400B589B00AAB182153F8042B019339
:102AF00002A817F037FF02A8FFF7B8FF09B05DF88A
:102B000004EB04B0704700BF00B500EB400083B099
:102B10008100012202232B310192009309B2062386
:102B20001E22034804F0CEFD03B05DF804FB00BF95
:102B3000ECA0FF1F89B900B500EB400183B089000C
:102B400001232B310193009309B206231F2204486D
:102B500004F0B8FD03B05DF804FBFFF7D5BF00BF7C
:102B6000ECA0FF1F70B51C4B1C481C6882B00022F3
:102B700001250A218DE8220023B2114604F0A2FDAE
:102B8000174B1648B3F90050002CB4BFE11C214686
:102B900002262B4641F38F010096002205F00AFE23
:102BA00004EBD4712B46002241F34F0100960B48F1
:102BB00005F000FE204613F08FF94FF07D5113F021
:102BC000DFF913F0A3FB009601B22B460022034865
:102BD00005F0F0FD02B070BDE4CC0100ECA0FF1FD9
:102BE0007CCC01002DE9F04FA84C0546884694E8BE
:102BF0000F0091B004AE0CAF86E80F0087E80F001D
:102C00000023099308930A930B930B2D00F2B182D2
:102C1000DFE815F030008100A200D000F3001C01B5
:102C20009401B601DC01FC011E020C00984A994B8C
:102C30001568994A994904921B78994A059101357A
:102C4000984906926FF07E02089507910992002B31
:102C500040F09382944B0D93944B1B786FF07E025F
:102C60000B92002B00F08C82914B0F934FF0030BD3
:102C7000894B16E08F4A904B1568904A904912682C
:102C80009B7809780A928F4A099304358E4B0B91F1
:102C900005928E498E4A08950493069107924FF04B
:102CA000010B8C4C039304F1080001214FF0000943
:102CB00004F05AFB04F108008749DFF87CA204F015
:102CC00063FBA4F84090A4F8429084F84690FFF784
:102CD00049FF494604F1080004F060FB04F10800D4
:102CE000012104F05DFB039B01244FF00A09DAF88F
:102CF0000020CDF80090023A184621B212B22023EB
:102D0000FFF79EFA612C04F1200400F0B981A4B20F
:102D100056F8043FEBE7714A714BD5681B6809937D
:102D200040F2CB2303FB05236E4993F88D206E4BB5
:102D30006E4C059302F07F026D4B0A9208686D4A53
:102D40000793013504940895069213F0DFFA4FF0CB
:102D5000010B23460B90A4E7604A674BD1680493AC
:102D600040F2CB2000FB0122644D92F88E0092F8D5
:102D70008B1092F88420624C059402F03F020132DD
:102D800001F00F0109925F4A06926FF07E0255F83A
:102D900021100A920B920207C0F380050E9148BFE2
:102DA000434A594958BF404A089507910F924FF03E
:102DB000020B76E74449554A514B454C0591069222
:102DC0000793049402F0C8FC3A4B05781A6805F0A2
:102DD0007F0504320992089502F0BEFC427802F0A9
:102DE0007F020A9202F0B8FC827802F00F020132F0
:102DF00023460B924FF0010B53E7454B4549464A9A
:102E0000464C07936FF07E05059106920494089551
:102E100002F0A2FC827A4249039402F007024FF0CA
:102E2000020B51F822200C9202F096FC027A0A95CD
:102E300002F07F02099202F08FFC427A3949039B2B
:102E400002F03F0251F822200E922AE73648374915
:102E5000374A384BDFF84890049005910692079363
:102E600000246FF07E0502F077FC204490F90330D7
:102E7000002BC0F2788108AA42F824300134042CD7
:102E8000F1D1089D049B4FF0030B0AE7D0C9010064
:102E9000D0BCFF1F09A3FF1F10CA01005CCA0100BC
:102EA00064CA010068CA010074CA0100AC8DFF1F2A
:102EB00070CA01006CA3FF1F90A3FF1F2CA3FF1F6C
:102EC000E9BCFF1F44CA010008CA010048CA01004A
:102ED00034CA01009CA3FF1FEC0902003CA5FF1FA0
:102EE000DCA2FF1FB48DFF1F78CA010018CA0100C1
:102EF00088CA010080CA01001CCA0100F08EFF1FB1
:102F00008CCA01002CCA010090CA0100BCCA010091
:102F10006CCA0100ACCA0100C0CA01003CCA010071
:102F20002C90FF1F0893FF1FC8CA0100CCCA0100E4
:102F3000D0CA0100D4CA0100B88DFF1F954A964B34
:102F4000D5681B680A9340F2CB2303FB0523934803
:102F500093F8841093F88520914B049301F03F017E
:102F600002F00F0201310132013509910B928D49B6
:102F70008D4A08950590069107924FF0010B90E657
:102F8000844A8A4BD168049340F2CB2000FB012293
:102F90004FF0020B92F88C0092F8865092F887104E
:102FA00092F8882000F07F0001F03F0102F03F021C
:102FB00005F03F0501350B9009917D480A927D4946
:102FC0007D4A08950590069107926AE6714A7B480A
:102FD000D36840F2CB2101FB03226FF07E0592F80B
:102FE0008B1092F88E20764B049301F00F01C2F300
:102FF000800250F8210009927249734A0C900591A1
:103000000692079208954FF0030B4AE6614C6F4A0F
:10301000E3681568DFF8F891CDF8109004EB8303AE
:1030200004355A6A6A4B059301325D4B0992694A2D
:1030300006920793089502F08FFBE1680278013150
:1030400002F07F024B460B910A924FF0010B28E6EB
:10305000614B62491B68624A6248096812680568E8
:10306000099101330A936048604B0B926049614AB1
:10307000089504930590069107924FF0020B10E615
:1030800001215D4804F070F95C495B4804F07CF96B
:103090000121594804F082F90021574804F080F9D1
:1030A00008F1FF33032B0DD8DFE803F023392E029C
:1030B000152201238DE80C0062211D2309225048AE
:1030C00004F000FB0DF1200900235C1CC8EB040692
:1030D000B6FA86F6760915F17F0F19B22846324600
:1030E00028D0FFF789F9042C2AD059F8045F234629
:1030F000EBE7152201238DE80C0002211D23092294
:103100003F4804F0DFFADDE7152201238DE80C00CB
:1031100042211D2309223A4804F0D4FAD2E71522AD
:1031200001238DE80C0022211D230922344804F0DC
:10313000C9FAC7E757F82300FFF7FEF8042CD4D1EB
:10314000BBF1000F0CD000235C1CA34518464FF0C8
:1031500000011BD0FFF7EEFC042C01D02346F3E75F
:1031600011B0BDE8F08F08AB47F8249043F8245025
:1031700084E60025AB46049B93E5224B0D936BE55B
:10318000214B0F934FF0030B204B8AE5FFF7BCFC5C
:103190002346D9E73CA5FF1F8CA3FF1F8CCA010063
:1031A00018CA010094CA010098CA010024CA01008B
:1031B000A0CA0100A4CA0100ACCA0100F08EFF1F22
:1031C0002CCA01001CCA010064CA01006CA3FF1FC5
:1031D000B4CA010034CA010044BDFF1FD4A2FF1FBE
:1031E000E0A2FF1FBC8DFF1F4CCA01000CCA0100EA
:1031F00054CA010058CA0100A4A3FF1F04F801002B
:10320000ECA0FF1F70CA010074CA010010CA0100BF
:1032100008CA01002DE9F04FAD488BB002F0F4F878
:1032200007F04AF9AB4B186007F046F9AA4A136851
:103230001060C31A049304D0A84E7379002B40F099
:103240001E8502F02FFFA648DFF8C0B205F0D8F9BE
:10325000FEF7C8FAA34B1B78002B40F08B809BF83D
:1032600000309BF801209A4200F084809E4A9B4ED9
:1032700015689E4A019211468BF80130DBF8042054
:10328000F2600123002D0B70C8BF002407DDA1B23E
:1032900000229748013403F071FCA542F7D1954B09
:1032A00003931946012200230A708BF808309248D4
:1032B000FDF732F905B206900DB3BDF91A40894BFE
:1032C00005FB04F41B7804EB84042C44002B00F071
:1032D0008A839BF801301C4484F302048BF801407C
:1032E000FFF742F8854B864A1B680793079B1268D5
:1032F0008449013B9B1A0B60019B01221A70824892
:10330000FDF77AF9012800F01084022800F05483B8
:10331000DFF8BC81D8F84C31D8F848219B1A9B08BB
:1033200000F09D80DFF814926C4E694801F0CCFFEC
:10333000F368099006EB8303C5B2A5F10B02040EF6
:1033400000925B6EC0F3074700F0FE80012209F88F
:103350000520002D40F05681624B1B78002B40F079
:103360003D819BF80030032B00F23481DFE803F04D
:103370000A8C8C0A9BF80830644A002B00F02E83DC
:10338000137873E7624B1B785BB19DF82530022BF5
:1033900000F0A0835F4B0293029B1B78002B40F050
:1033A0007481BA46002F40F07381002C00F0B38383
:1033B000002D00F08980009B012B40F20B846B1ED6
:1033C000DAB2012A40F25283534B9BF8022019686B
:1033D0002846FEF7B5FE99F80130002B6AD0BAF105
:1033E000000F34D09BF800200127013ABA422ED8B2
:1033F000F0683A4C40F2CB2202FB006292F88E2039
:10340000520724D4002B40F0C58199F80230F3B95B
:10341000EB1E072B40F2DB840A2D18DD3F490B78A9
:10342000ABB93F4A137893B904EB80003D4A436E31
:103430001770009A01983C493C4C077002EB03134B
:103440003B4A0B6027703B481770FFF749FBD8F8E1
:103450004C31D8F848219B1A9B087FF466AF364C54
:103460002068002805DD049BC01A0028206040F376
:10347000B7849BF80030032B00F25C82DFE813F086
:103480007A020A020A027A02284C2378002B00F002
:103490006181244B1B78002B40F0B381214900232C
:1034A0000B702370019B0122BA461A7099F8013003
:1034B000002B94D1214A9278002A90D1204A13708F
:1034C0008DE7A246002DF1D11E4B01221A70EDE7C7
:1034D000E8A3FF1F88A3FF1FE8A2FF1F3CA5FF1F53
:1034E000ECA0FF1FC4BCFF1FE8CC01009CBCFF1F69
:1034F00068A2FF1F16BDFF1F50A3FF1FE4CCFF1FD4
:103500003C8DFF1FC8BCFF1F84A2FF1F90A3FF1F9D
:10351000AC8DFF1F40BDFF1FB08DFF1F28A3FF1FF5
:1035200008A3FF1FC8A2FF1F68A3FF1F34BDFF1F12
:1035300020A3FF1F34CB010000BDFF1FA4A2FF1F6B
:103540000CBDFF1FE8BCFF1F9BF80030032B41D8C8
:1035500001A252F823F000BF853300006935000056
:1035600069350000853300007DB1F36840F2CB225D
:1035700002FB036393F88E20520700F1A282B34B43
:103580001B783BB9B2490B7823B9BA46002309F836
:1035900005308BE7AF4B1B68002BF6DD7379AE4A25
:1035A000002B00F08982AA4C2378002BEDD0DFF8A5
:1035B000E0A29AF80030002BE7D002F0E1F8F368BF
:1035C00006EB830300225B6A8AF80020002BDCD123
:1035D0002370DAE7BA46002CD8D067E7FFF77CF80B
:1035E000FFF70AF99BF80030032B4CD801A252F8E0
:1035F00023F000BF853300008934000089340000C7
:10360000853300009BF80020032AE3D801A151F87C
:1036100022F000BF8533000025360000253600006B
:10362000853300008D4C0099227801EB0313002AAA
:1036300055D0864A1278002A00F0CB800B2D00F07E
:103640000A841A2D00F00883854B864A1B6852F8BD
:10365000250085497F4A03EB430300EB830A0023DF
:103660000B70156002F078F803787B4A6AF3060362
:1036700003707379002B00F08B86019A012313707D
:10368000002D3FF402AFBA4610E7002F00F08A8009
:10369000002C7FF416AF4FF0010A002D7FF476AFB7
:1036A000724B1A780AB100221A7000221146704833
:1036B00003F064FA002201216D4803F05FFA002252
:1036C00002216B4803F05AFA00220B21684803F0EC
:1036D00055FA00220C21664803F050FA56E7654A75
:1036E0001278002A40F0928059490A78002A40F066
:1036F0008D83F06840F2CB2202FB006292F88EE0EC
:103700001EF0040F40F0B98399F801E0BEF1000FFC
:1037100007D0594A927822B1584A4FF0010C82F8EA
:1037200000C06A1E012AABD9EA1E072A00F28C8467
:1037300099F80230BEF1000F00F07A85002B40F0BE
:103740007A8596F805E0444BBEF1000F00F0EE8755
:10375000F26092E7474B1A78B2B93D4B1A789AB9A2
:10376000464B1A78002A40F00F8399F80130002B5D
:1037700000F09E84012342483374FFF7B1F9019AA7
:103780000123BA46137091E61D70019B0122BA46CF
:103790001A708BE699F80230002B3FF458AE374B85
:1037A0001F7054E6002C00F0B681364B009913F8D8
:1037B00001A08AF0010A03F801A0681CBAF1000F09
:1037C00000F0DB829BF802200121BA46FDF722F8C7
:1037D0006CE66A1E012A7FF653AFEA1E072A40F202
:1037E000C3820A2D7FF74CAF27491F4A0B60012384
:1037F0001370164A1370019A1370002D7FF443AFB3
:1038000043E6214A134B15601D6047E66B1E012BF2
:103810007FF636AFEA1E072A00F27E8299F8013061
:10382000F260DFF834A0002B40F03284124B9B781A
:10383000002B3FF422AF104602F0D8FEDAF80C104D
:1038400012480131FFF74CF917E700BFC8A2FF1F6C
:1038500028A3FF1FB8BCFF1F3CA5FF1F34BDFF1FDF
:103860006CA3FF1FD4CB010020A3FF1FE8BCFF1FE8
:1038700068A2FF1F08A3FF1FA4A2FF1F0CBDFF1F0C
:1038800040CB01004CBDFF1F68A3FF1FE4CA01002D
:10389000E4A2FF1FB54AD36840F2CB2101FB03230A
:1038A00093F88E30590700F1D982019B1B78002BC9
:1038B0004FD0AF4B1B78002B3FD12368002B3CD15E
:1038C000AC4FDFF800833B78002B00F09285AA4EC6
:1038D000AA4BAB491A68AB4881FB0231D317C3EB43
:1038E0006101036801EB8101511A002B00F0088788
:1038F000012B00F09687022B00F08E8798F800309D
:10390000002B40F09A853378A3B19F4B9C491A68ED
:103910009E4881FB0231D317C3EB6101036801EBC1
:103920008101511A002B00F0FC86012B02D10420EA
:10393000FFF758F9019B1B785BB1954D954C2B68AF
:103940000893954A089B216812685B1A9A42C0F056
:103950009F81039B914C1B78002B40F03581FCF735
:103960000FFF0028FBD1FDF781FC0028FBD10BB035
:10397000BDE8F08FFEF756F8019B1B78002BE8D0CE
:103980007B4B1B78002BD8D1854B7D491A68854825
:1039900081FB0231D317C3EB6101006801EB8101A8
:1039A000511A0028C4D0012800F008860228C4D18A
:1039B0000B20FFF717F9BDE76F4E3378002B40F06F
:1039C0002C816B499BF800308BF8013001220A7082
:1039D000FEF7CAFC019A0123137099E4724B01931C
:1039E0006E4B039363E4634F3B78002B40F05B81A5
:1039F000DFF8D08198F80030002B40F0BF825E4E97
:103A00003378002B00F07C839BF80030013B012BC6
:103A10003FF675AC5C4F3B68002B00F08485052BAE
:103A200000F08185012B00F0B785022B00F0548651
:103A3000032B00F06787062B00F0AC87072B00F004
:103A40009587082B40F0FB8201F086FE457A01F055
:103A500083FE05F03F052C44232C437AA8BF232482
:103A600024EAE47464F305034372E8E24F4A1278EF
:103A7000002A3FF4A9AC012B3FF618AD484C4C4846
:103A800023683F4F012D14BF01224FF0FF321A442B
:103A900082FB00011144D317C3EBE103C3EB031313
:103AA000D31A23EAE37387FB03213E482360DA1726
:103AB000C2EB61030360F9E4D168284602F0ACF878
:103AC00071E593F8851001F00F0101312846FEF7EA
:103AD00091FB54E5002D7FF45DAC364B0293194603
:103AE0001B7883F001030B70002B7FF4CEAD324BBB
:103AF0001B68012B7FF755AC4FF0010A0594544623
:103B00009A46A1B200222D48013403F037F8A245AD
:103B1000F7D1059C40E4002D78D09BF80210284690
:103B2000FEF768FB4FF0000A30E59BF801209BF898
:103B3000003023489A4200F094810D490978002909
:103B400040F02681002B70D0032B40F0D381144825
:103B50000B4A0368013382FB0321DA17C2EB6102CF
:103B600002EB82029B1A036034E700BF3CA5FF1FF3
:103B7000C4BCFF1F34BDFF1F28A3FF1FD8BCFF1FFD
:103B80006766666680A3FF1FECA2FF1F98BCFF1F3D
:103B9000E4CCFF1FC8BCFF1F3C8DFF1F16BDFF1FDD
:103BA00064A2FF1F2CBDFF1F9CBCFF1FE8BCFF1FB2
:103BB0008988888840BDFF1FE8CC010068A2FF1FEC
:103BC00090A3FF1F08A3FF1FB34802F0F1FE0023DC
:103BD0002370C4E6B14B1B78002B3FF4F5ABB04922
:103BE000B0480A680B2D14BF01234FF0FF33134474
:103BF000042BA8BF04236FF00404A342B8BF2346DC
:103C0000934203603FF452AC0B604FE4A34B1A782D
:103C1000AA46002A7FF447AD47E5A34EF06802F0BC
:103C20006DFCA24B01221A70D4E6A14CA148226877
:103C3000A14D013282FB00011144D317C3EBE10314
:103C4000C3EB0313D31A85FB03219C482360DA17C7
:103C5000C2EB61030360BDE60123914991480A6804
:103C60001344042BA8BF04236FF0040E7345B8BFA0
:103C700073469A4203603FF400AD0B60FDE4049C80
:103C80002046FDF73BFD2046FDF75CFDFFF7D9BA66
:103C90008B4804F0C1FD2B680993099B019A2360AE
:103CA0000023137055E69BF80030013B012B3FF6D3
:103CB00026ABDFF8248298F80030002B40F06481B6
:103CC000804E3378002B7FF4A5AE7F4B1B78002B02
:103CD00000F021827D4E37680A2F40F27484A7F1EC
:103CE0000B03022B05D8002DC0F25587012F00F0E1
:103CF0001487022F00F05084032F00F09A86042FBF
:103D000000F08686062F00F07D86072F00F066867D
:103D1000082F40F0948197E60A2D7FF7B1ACD6F8D2
:103D20000CA0614A40F2CB2303FB0A630AF10801AD
:103D300093F8840006EB8101A5F10B0E6EF30500EC
:103D400083F884004868A5F10A0383423FF795ACE5
:103D5000009B029218464B6002F07CFB029A02EB39
:103D60008A0ACAF8640088E4F260019A0123137099
:103D7000002D7FF488ACFFF788BB39469BF8022002
:103D8000FCF780FDFFF792BB1D70BA46FFF78EBBB4
:103D9000027002F04FFB4E4B1D68002DC8BF00247F
:103DA00007DDA1B200223C48013402F0E7FEA54243
:103DB000F7D1039901220A70464A00231370FEF7D7
:103DC000D3FA9BF80030002B7FF4BEAE2DE7019BA9
:103DD000414A1F7041481770FEF782FEFFF737BB5C
:103DE00001989BF800300121002201702260032B12
:103DF0003FF6A3AD01A252F823F000BF75390000D1
:103E0000953800009538000075390000F368244AA1
:103E100033483449126851F8251006EB830302EB4E
:103E200042025B6A0360304B01EB820A1D6001F0C5
:103E300093FC03786AF3060303707379002B00F098
:103E4000AF822A4A01231370019A1370002D7FF468
:103E50001AACFFF71ABB4FF0FF33FEE6FDF7E2FDA9
:103E600023E51C4A1B491278002A3FF46BAE00225E
:103E70000A70002B7FF468AED7E692F885201C4BC1
:103E800002F00F02013219682846FEF759F9002D99
:103E90007FF4F9ABFFF7F9BA68A2FF1FE8BCFF1F78
:103EA0006CA3FF1F04BDFF1F3CA5FF1FDDBCFF1F50
:103EB00064A2FF1F89888888676666662CBDFF1F1D
:103EC000ECA0FF1F28A3FF1FC8A2FF1FD8BCFF1F25
:103ED000E8CC0100C4BCFF1F08A3FF1F58CB0100A2
:103EE00068A3FF1FD4CB0100B8BCFF1FE4A2FF1FD3
:103EF000B08DFF1F013B012B3FF66CADB14FDFF8DA
:103F000028833B78E3B1B04B1B78CBB198F80040E5
:103F1000002C40F04181AD4DAD482A68013282FB52
:103F200000011144D317C3EBE103C3EB0313D31A0E
:103F3000092B2B6040F3C983A64B02221A6049E586
:103F400098F80010002940F02781A34E3278002A0B
:103F500000F09582A14CA24B2268013283FB023013
:103F6000D317C3EBA00303EB8303A2EB4303042BA0
:103F700023609C4B00F31C8219602BE59BF80030FA
:103F8000013B012B3FF6BBA9974F3B680A2B40F240
:103F90001382022B00F02F83032B2BD1DFF88C82AE
:103FA000924ED8F80000002DACBF01214FF0FF3138
:103FB000084400F10F021E2AC8F8000005D8F06876
:103FC00002F04EFA3B68D8F80000F26840F2CB21CC
:103FD00001FB026292F8842002F03F020132C2F13A
:103FE0000101814200F31584013A8242A8BF0246D2
:103FF000C8F80020042B00F05683062B40F03083D5
:104000007A4EF26840F2CB2101FB026180318B795C
:10401000097903F03F031B1901F03F0100F1CB8444
:104020008B42A8BF0B4603F03F0340F2CB2101FBBC
:10403000026292F8861063F3050182F88610019AF5
:1040400001231370FFF75BB90A2D7FF719ABBEF19F
:10405000000F40F0508299F80220002A7FF410AB44
:1040600003EB830203EB420340F2CB2202FB00335B
:10407000334493F89120C2F3001181F0010161F300
:10408000041283F89120002D7FF4FDAAFFF7FDB9FB
:10409000574B9B781046002B00F0F38002F054FA47
:1040A000DAF80C1053480131FEF71AFDFFF7E5BAB4
:1040B0004F4B9B7863B973794C4A002B00F0168202
:1040C0005571BA4602F072F902F0B4F9FFF7EEB991
:1040D000F36840F2CB2202FB036303F1840293F8FE
:1040E0008D30517A83F08003DB0963F3C71151727D
:1040F000002B00F0C1804048FEF7F2FCFFF73FBB09
:104100009BF80030032B3FF6FAA8DFE813F03E01DE
:10411000F300F300C400394D2E68204611F0DCFE98
:10412000314611F025FE3649044612F0C7F8002842
:1041300040F05D813349204612F0DEF800B1314C89
:10414000314B314620461C6012F0AEF800287FF457
:1041500076AF2E4B2C601D68284611F0BDFE21461F
:1041600011F00EFF01462A4811F0BEFF12F0F4F8DC
:10417000284B294918601A682B1EB8BF03339B10BF
:1041800002FB03F30B600868244C11F0A1FE2449E4
:1041900011F0F6FE206052E7134C0D482268013200
:1041A00082FB00011144D317C3EBE103C3EB0313FC
:1041B000D31A092B236040F35B811A4B02221A6049
:1041C00008E400BF34BDFF1FC8A2FF1FD8BCFF1FFB
:1041D0008988888880A3FF1F28A3FF1FECA2FF1FE8
:1041E0006766666698BCFF1FC0A2FF1F3CA5FF1F45
:1041F000A4A2FF1FF0CA010048CB0100B48DFF1F2D
:10420000000020420000964380A2FF1FCCCB01009B
:10421000C0E1644CA0BCFF1F10BDFF1FD4BCFF1F3A
:104220006F12833A3CBDFF1F08A3FF1F8CA3FF1F23
:10423000002B3FF48DAA40F2CB2303FB0263A91E9F
:1042400093F88E300292D8074CBFBC48BC48FEF7AA
:1042500047FC029A40F2CB2303FB026202F1840185
:1042600092F88E301A46C3F3000383F0010363F320
:1042700000028A72FFF701BAB248FEF731FCFFF77D
:104280007EBA02F0A1F9DAF80C10AF480131FEF75E
:1042900027FCFFF7F2B9AD4E316859B9002DC0F2D5
:1042A000228507D0AA4B9BF8022018687F21FCF7D3
:1042B00021FB3168019A012313700A2940F2F3802F
:1042C000012900F09582062940F05482A14A136822
:1042D0001C44002C40F37883102C00F36F83A3421E
:1042E0003FF4ADAE012C146000F073839A4B0122B1
:1042F0001A70A4E6994D2A68002A00F00882052A5F
:1043000000F00582012A00F01083022A00F03584B3
:10431000032A00F01984042A00F0A483062A00F07E
:104320008A82072A40F0DA838D4EF56840F2CB236B
:1043300003FB056393F8843003F03F030133234408
:10434000002B40F3B284402BA8BF4023581E00F03E
:104350003F0005F1080140F2CB2202FB056206EBAB
:10436000810692F88440716860F305048B4282F8FC
:1043700084407B4C3FF763AE013B1846736002F00C
:1043800069F804EB8504606659E6704E316894E77D
:10439000744BD2681968284601F0EEFBFFF76DB93F
:1043A000704B6F4A1968D268284601F0E5FB48E572
:1043B00001221A60FFF70EBB40F22142DA40D20719
:1043C0000BD569490A682244022AA8BF022222EAC0
:1043D000E27202EB82030A603B60012B7FF4D9ADED
:1043E0005F4EF368234483F30303F36027E65F4CD7
:1043F000A6E698F800305E4EFBB93378002B7FF4C8
:1044000082AA564B5B491A685B4881FB0231D3177D
:10441000C3EB6101036801EB8101511A002B00F02D
:104420007883012B7FF46FAA0220FEF7DBFB3B7839
:10443000002B3FF463AAFFF74BBA504B4D491A6863
:10444000494881FB0231D317C3EB6101036801EBDB
:104450008101511A002B00F04E81012B00F0A08247
:10446000022B7FF450AA0820FEF7BCFBFFF74BBAE3
:10447000042B3D4B9CDC00221A60FFF7ABBA374C93
:104480003C4B2168013183FB0130CB17C3EBA00308
:1044900003EB8303A1EB4303042B2360364B87DC40
:1044A0001A60FFF797BA40F22143CB40D8070BD5EB
:1044B000334A13682344022BA8BF022323EAE37381
:1044C00003EB83011360316002297FF4F9AE9BF89E
:1044D00002201319002B40F3C382102BA8BF102316
:1044E00093423FF4ACAD8BF80230A8E501F082FFB7
:1044F000BA46FEF7DBBF99F80230002B40F0C481CA
:10450000204B214A00991960012313701F4A20484B
:104510001370019A23701370FEF7E2FA002D7FF4F6
:10452000B2A8FEF7B2BF1B490A68224482F3010217
:1045300002EB82030A603B60FFF774BA0CCB010008
:1045400018CB010050CB0100D8CA010064A2FF1FA4
:10455000A8CB0100BC8DFF1F4CA3FF1F78A3FF1F3A
:104560003CA5FF1FB08DFF1F3CBDFF1F0000204278
:1045700028A3FF1F6766666604A3FF1FC0A2FF1F74
:104580002CBDFF1F68A3FF1F20A3FF1FC8A2FF1F92
:1045900034CB010098BCFF1FCB4BCC491A681444A4
:1045A000042CA8BF04246FF004008442B8BF044662
:1045B000A2420C603FF443AD1C6040E50A20FEF7C8
:1045C00011FBFFF7B7B940F22143FB40DB070BD5E6
:1045D000BF4A13682344022BA8BF022323EAE373D4
:1045E00003EB830713603760A7F10B03022B3FF641
:1045F0007DABFFF778BBB74ED6F80C8040F2CB23EB
:1046000003FB086393F8843003F03F030133234432
:10461000002B40F30D81402BA8BF4023581E00F013
:104620003F0040F2CB2108F1080E01FB086106EBC8
:104630008E0E91F88460DEF8042060F30506934244
:1046400081F88460A34E3FF7FAAC013B1846CEF8E0
:10465000043001F0FFFE06EB88063B6870669BE4C1
:10466000072B72D19B4EF26840F2CB2101FB026115
:104670008031CB79097903F03F031B1901F03F0129
:1046800000F1518101318B42A8BF0B4603F03F037B
:1046900040F2CB2101FB026292F8871063F305011F
:1046A00082F88710CBE48B4EF36840F2CB2202FBFA
:1046B000036393F8852002F00F010C4484F3040493
:1046C00064F3030283F88520B9E4042B804B3FF7A1
:1046D0006FAE1C60FFF77EB9002D40F3668101F0DC
:1046E0004FF83B687B4E7C49F26806EB8202526AC7
:1046F0000A60FFF79DB90620FEF774FAFFF703B9C9
:104700000320FEF76FFA98F80030FFF7F9B8734905
:104710000B68234483F3010303EB83020B602A60DD
:10472000F0E50920FEF75EFAFFF704B903EB850018
:10473000DA6003460122C0F818E06948C3F858E07F
:104740000A70FEF7CDF9FEF798BF082B40F094826F
:10475000604EF36840F2CB2202FB036393F888209B
:1047600002F03F010C4484F3040464F3050283F86F
:10477000882064E4072934D0082940F01582594F75
:10478000594B38681B78204480F307003860002BB1
:1047900000F0D481DFF85891DFF86481D9F8002067
:1047A000D8F80030551C1344AB4201DA47E43868AE
:1047B0002946FCF7D7F8D9F80020D8F800300135A1
:1047C0001344AB42F3DA31680B2940F00982474ABF
:1047D00013682344042BA8BF042323EAE373136064
:1047E0002DE4434A1368234483F30403136026E44F
:1047F000354B36491A681444042CA8BF04246FF0C2
:1048000004008442B8BF044694420C607FF4D4AEE6
:1048100015E40A46FFF7ECBB0520FEF7E3F9FFF7C6
:104820006DB80420FEF7DEF998F80030FFF768B89D
:1048300000200123F5E6274EF36840F2CB2202FB6D
:10484000036696F88E30C3F380031C1996F88E30F9
:1048500000F10081012C40F34F8243F0040386F8FD
:104860008E30244B1D68002DC8BF002407DDA1B287
:1048700000222148013402F081F9A542F7D1039AC0
:1048800001231370FFF7DBBB40F2CB2303FB006077
:10489000DFF840A090F8840000F03F0001F0DAFD5E
:1048A000009A824205DCDAF80C300AEB830ACAF877
:1048B0006420A5F10A011148FEF712F9002D7EF4DB
:1048C000E2AEFEF7E2BD00BF6CA3FF1F04BDFF1FF9
:1048D00080A3FF1F3CA5FF1F68A3FF1F04A3FF1FAA
:1048E00000CB010044BDFF1F4CA3FF1FD0BCFF1F26
:1048F000D4A2FF1FE8CC010068A2FF1F24CB010057
:10490000BC8DFF1F00F028FF037803F07F0500F047
:1049100023FF2B19027883F3070363F30602027067
:104920003B68FFF788B80023B2E6C14EF368234422
:1049300083F3030340F2CB2101FB0361F36091F8A1
:104940008E3059077FF57BABBA4B1E68002E09DD10
:104950000027B9B20022B848013702F00FF9BE4271
:10496000F7D12A68039901230B70D7E400F0F4FE15
:10497000027A02F07F0500F0EFFE2A19642A017A1C
:104980003B68A8BF642222EAE27262F30601017268
:10499000FFF757B8204601F059F83B68FFF74EB8CB
:1049A0000720FEF71FF9FEF7AEBF3FF49BAE00F005
:1049B00011FF3B6896E60023FFF737BB102B3FF44F
:1049C0003EAB1023136091E4012B3FF438AB01237D
:1049D00013609A4B00221A70FFF731BB00F0BCFE47
:1049E000037A03F07F0500F0B7FE2B19642B027ADF
:1049F0003768A8BF642323EAE37363F306020272F5
:104A0000FFF786B9204601F021F83768FFF77DB936
:104A100000F0A2FE837803F00F0500F09DFE2B1935
:104A2000827883F3040363F3030282703768FFF72D
:104A300069B900F091FE437803F07F0500F08CFE29
:104A40002B19427883F3070363F306024270376839
:104A5000FFF755B96FF3820386F88E30FFF7EFBA90
:104A600001233DE5764D20462C6811F035FA2146AC
:104A700011F07EF97349064611F020FC00282BD175
:104A80007149304611F038FC00B16F4E6F4B214632
:104A900030461E6011F008FC00287FF4D0AA6C4B51
:104AA0002E601C68204611F017FA314611F068FAA2
:104AB0000146684811F018FB11F04EFC664B674A3E
:104AC0001860002C1B68B8BF0334A41003FB04F467
:104AD00014601068FFF758BB5A4ED7E7082A40F019
:104AE0008B80534EF36840F2CB2202FB036303F149
:104AF000800293F88B1001F00F031C44062CA8BF12
:104B0000062424EAE4740B4664F30303D372FFF72C
:104B100096BA0120FEF766F889E400F01DFE0378DE
:104B200003F07F0500F018FE2B19027883F30703CA
:104B300063F3060202703768FFF7DBB89BF80210D8
:104B4000FBF710FF31683FE6394E454AF36840F203
:104B5000CB2101FB036696F88D30184603F07F03E6
:104B60002344632BA8BF632323EAE37363F30600A4
:104B7000137086F88D00FFF762BA2D4E2146F0685B
:104B800001F01AFC37492A680B68234403F3060333
:104B90000B60FFF7C3BB00F0DFFD3844FF2300F8D4
:104BA000083C3768FFF7A2B809297FF40DAE2E4DF7
:104BB0009BF802202B680021234483F30703084657
:104BC0002B60FBF797FE29689BF802202020FBF75B
:104BD00091FE264B9BF802101868FBF7C3FEF2E526
:104BE0000C2920D1224A1378234483F3010303F0D4
:104BF00001031370FFF723BA092A7FF420AA0C4E91
:104C0000F36840F2CB2202FB036696F88E30194619
:104C1000C3F3C0031C4484F3010464F3C30186F8A6
:104C20008E10FFF70CBA0E297FF409AA114ADAE7B1
:104C30003CA5FF1FE8CC010068A2FF1F4CA3FF1F8B
:104C4000B48DFF1F000020420000964380A2FF1F8A
:104C5000CCCB0100C0E1644CA0BCFF1F10BDFF1F06
:104C6000D8A2FF1FDCA2FF1FE0A2FF1F44BDFF1F51
:104C700009A3FF1FAC8DFF1F092B1AD1234EF36828
:104C800040F2CB2202FB036696F88C30194603F003
:104C90007F031C44642CA8BF642424EAE47464F3F6
:104CA000060186F88C10FFF7CAB900200123FFF730
:104CB00050BB0B2B3FF415AF0C2B7FF4C0A9134E48
:104CC000F36840F2CB2202FB036696F88E30194659
:104CD000C3F380031C4484F3010464F3820186F867
:104CE0008E10FFF7ACB90A4B9BF802201868FBF74F
:104CF00001FE3168FFF7DEBA64F3820386F88E3076
:104D0000002C7FF4AEADFFF79AB900BF3CA5FF1FA2
:104D1000A8CB010070B5184D82B0284603F070FC96
:104D2000B5F90C1001291FDD0022012694B26300A1
:104D3000688901969BB2C91A09B2C31A1BB20091C5
:104D40000D48114602F040FD0B4803F065FD0120BF
:104D500005F0D4FBB5F90C10023401EBD17322B28B
:104D600043F34F039342E1DC4FF4FA7002B0BDE825
:104D7000704005F0C3BB00BFECA0FF1F9F48A04AD6
:104D80002DE9F84F04689F4D9F4F40F2EE261378AF
:104D90003BB12B78DB0704D5036839685B1A0E2B0F
:104DA00008D8036811781B1B002900F02081B3F597
:104DB000FA6FECD901F054FC944C954F2060082018
:104DC00007F020F8934A9449944B24683860944D36
:104DD000944E954F04601660944C954A47609548F0
:104DE00008601A602C6005F067FB934B934D1860C8
:104DF00005F062FB924A934B14681860204611F04C
:104E00006BF8914BDFF8A4921968DFF8A48211F0D7
:104E1000B7F801468D4811F067F911F09DFA8C4BF7
:104E20008C4A1860002C1B68B8BF0334A41003FB25
:104E300004F41460106811F04BF8874911F0A0F8E1
:104E400028600D2004F03EFF06F0CAFF0D2004F09C
:104E500039FF13F0EFFA0D2004F000FF4FF0814A04
:104E60004FF0844B0026382006F0CCFF4FF48067CB
:104E700047600027002507624FF00107764BC0F816
:104E800010A001222946077580F82450044601F03D
:104E900057FF724B49F8044B43F8265001364FF444
:104EA0000053052EC4F810B048F8045B6360DAD1F3
:104EB000FBF7E6FB0121172005F0F8FA684C694E74
:104EC0000C231846237005F0CDFA207810F004FC6E
:104ED00002460B4600204FF0804107F081FD10F0A4
:104EE00021FF614B30804022294628201A6005F0BE
:104EF000BBF9FDF737FC00287DD15C4B4A4F1B788E
:104F00005B4E5C4D5C4C5D495D4A78604FF0010E34
:104F100087F802E03B705B4B5B4F096812683668AC
:104F20002D6824681E605D609C60D9601A61F8601D
:104F3000FDF750FBFDF7D0FBFDF75EFC534D544CE5
:104F4000FBF7B8FA2846A56003F05AFBFFF7E2FE2C
:104F5000C82005F0D3FA284603F052FB04F10800FC
:104F6000012102F01BFA002104F1080002F018FAF6
:104F7000FDF78AFA474804F0E5FB474801F0C4FC16
:104F8000454801F015FD454B4348197801F09AFE5C
:104F9000434B1D68002DC8BF00240DDDA1B2414A5E
:104FA0003D4801F0EBFD3C4801F002FD01340520D5
:104FB00005F0A4FAAC42F1D10520FDF73BFA4FF41D
:104FC000FA7005F09BFA0022ABB21146324801F0AC
:104FD000DBFD314801F0ECFC642005F08FFA2B4832
:104FE00003F01AFC304B01221A70BDE8F88FB3426F
:104FF0007FF6CDAEDEE6FDF731FC9FE7E4CCFF1F88
:10500000D8CDFF1F54CEFF1F60D1FF1F24A3FF1F69
:10501000C0BCFF1F38CEFF1F3CCEFF1F08CEFF1FB6
:1050200040CEFF1F9513000090A3FF1F4115000005
:10503000311400001514000088A3FF1FD4BCFF1F0B
:10504000CCCB0100E8A2FF1FB48DFF1FC0E1644C70
:10505000A0BCFF1F10BDFF1F6F12833A18BDFF1FBA
:1050600070A3FF1F14BDFF1F48A3FF1FD0CB01007B
:10507000ECCC010078CC0100F4CC0100B0CB0100F5
:10508000A4CB01008C8EFF1F3CA5FF1FECA0FF1FCF
:105090009CA3FF1FF8A3FF1F68A2FF1FB4CB010052
:1050A000E8CC0100808080009CBCFF1F30A3FF1F64
:1050B000ECBCFF1FF0B400259DF810702C4602E0F8
:1050C0000134202C10D0465D1435002EF8D104EBAD
:1050D0008404A40006190125055528467160336132
:1050E000B2603773F0BC70470020F0BC704700BF5F
:1050F000F8B50E4600F1100400F52475002702E013
:105100001434AC4215D014F8103C002BF8D02368AE
:10511000B342F5D854F8082C54F80C0C0021FBF7D6
:10512000B1FB14F8043C2BB904F8107C1434AC42E5
:10513000E9D1F8BD0021172005F0A4F9F4E700BF7C
:105140004FF0FF31FFF7D4BFF0B400259DF8147085
:105150002C4602E00134202C12D0465D1835002E7A
:10516000F8D104EB4404E4000619012505557160EB
:10517000049971612846B360F2603774F0BC7047DF
:105180000020F0BC704700BF2DE9F0410E4600F151
:10519000140400F54575002702E01834AC421BD01A
:1051A00014F8143C002BF8D02368B342F5D854F817
:1051B0000C2C54F8081C54F8100CFBF72BFB14F8BB
:1051C000043C23B154F8100C1838352806D904F8DB
:1051D000147C1834AC42E3D1BDE8F08110F07CFEC1
:1051E000084910F0CDFE07F0D7FB012180461720BB
:1051F00005F048F9404611F089F80146282005F0ED
:1052000033F8E4E790759242002308491A46CA54DD
:105210001433B3F5207FFAD1002305491A46CA5446
:105220001833B3F5407FFAD1704700BF5CC0FF1F51
:105230005CBDFF1FF0B583B006460A9C0B98B160B9
:10524000F2603460002500941946706000FB04F49D
:105250000190099B089A06F1100004F0A9F9C6F81C
:105260003051C6F83451C6F838513CB3B4F1805FC0
:1052700028D22701384606F0C5FDC219C6F83821E4
:10528000C6F83001C6F834012B4608B103718360BB
:10529000013C00F11000F8D100233046C6F834215B
:1052A000C6F83C31C6F84031C6F84431C6F848313A
:1052B000C6F84C31C6F8503103B0F0BDC6F83841DD
:1052C0002246E9E708F048FC10B4D0F84C21D0F8A9
:1052D0004831D31A9B1083B034D052F8043DC0F843
:1052E0004C21DA789978FAB91C7958788DF806103B
:1052F00000218DF8072099608DF805408DF8040095
:105300009DF804409DF805109DF806209DF8073093
:10531000002064F3070061F30F2062F3174063F38A
:105320001F6003B010BC70470029DDD118795A788E
:105330008DF8061001238DF805008DF804208DF8F6
:105340000730DDE78DF804308DF805308DF8063034
:105350008DF80730D4E700BF2DE9F8434468D0F852
:105360000080C8EB0405AD100646894605D06B00E9
:105370009D4229D96FF0030500E00425284606F078
:1053800041FD7468D6F800800746C8EB0404D9F8DC
:105390000030E74218BF3B51A3080DD104343C4410
:1053A000B8F1000F02D0404606F02EFD3D44B56036
:1053B00037607460BDE8F8832246414638460434BD
:1053C00012F060FF3C44EEE7B3F1804FD2D213B944
:1053D0001D461F46D9E7ED00D0E700BF38B543684A
:1053E0000C4604318B42054602D05A1A900803D16C
:1053F000043B6B60204638BD204612F043FF6B68CB
:10540000043B6B60204638BD2DE9F04300F11005E8
:1054100083B00446284604F0EFF85A4B1B6801930A
:10542000019E04F5A4780127284604F0BDF9002860
:1054300049D0284604F0C4F96268D4F830C1C0F3FA
:105440000743C0F3076113FB0212D2B24FEA0219FD
:10545000C0F3072E0CEB09035FFA8EF100930029CD
:105460006DD00129E0D19968B9B958700CF80920BC
:10547000E068DA689970301A824238BF1971D4F83E
:105480004021D4F844118A426ED01AB11360D4F886
:105490004021009B0432C4F84021D4F84C21D4F8B8
:1054A00050119E6000208A42DF70987057D012B170
:1054B0001360D4F84C210432C4F84C21284604F07F
:1054C00073F90028B5D1D4F83C51D4F840114B1BE6
:1054D0009B0831D0E768A3688D42A6EB0707A6EBCF
:1054E000030629D004F59E784FF0010905E09B687A
:1054F0009F4219D804358D421ED02B680093DA786C
:10550000002AF4D09A689642F4D9D4F84C21D4F801
:10551000501183F802908A422DD012B11360D4F852
:105520004C210432C4F84C2129464046FFF756FF6F
:10553000D4F840118D42E0D103B0BDE8F0831A7970
:10554000997883F803E00132DE601A7109B183F8BB
:1055500002E0D4F84C21D4F850118A42A7D1694610
:105560004046FFF7F9FE5FE7694604F59E70FFF7D6
:10557000F3FE009B91E7694604F5A470FFF7ECFE8B
:10558000D2E700BFE4CCFF1FF8B5134C134B00204B
:10559000A4F12406014640F2CB2703F5807243F8BC
:1055A000041F9342FBD107FB0065013095F88D3055
:1055B000DB091CBF95F8843003F03F030828236003
:1055C00004F104041346E8D1FBF7CAF8FBF7A8F886
:1055D00000233374F8BD00BF60A5FF1FD8C2FF1FB2
:1055E0002DE9F843044604F067FF064604F064FF23
:1055F00041F25C7205460021204612F0A7FE6421AC
:105600007F22E16122622420262325212722606453
:10561000A364E16422652A202E233121332241F242
:10562000461E6065A365E16501230F212266032004
:1056300002224FF0040C84F8E608E37104EB0E003C
:10564000237484F88A3084F88C3084F8503384F8DA
:10565000553384F8573384F8203684F8223684F89A
:10566000EB3884F8ED3884F8841084F84F1384F80C
:105670001A1684F8E51884F8B01B84F88B2084F897
:10568000562384F81B2684F8212684F8EC2884F815
:10569000B1CB4FF0050C84F8B63B84F8B72B84F8F7
:1056A000B83B84F8813E84F8822E84F8833E84F8E7
:1056B0007CCE41F2114704F80E104FF0060E84F82C
:1056C0007B1E80F801E08371C2710372E019E1551D
:1056D00041F2E4618371037207234370C27104F5E0
:1056E000B85E655004F5B95241F2047741F210708A
:1056F00041F2147141F22473E5516550CEF8006017
:105700002650166004F5BA50E55004F5B75941F239
:10571000F06841F2F46C41F2307E41F2347741F2AC
:10572000447141F2507241F254730660C9F800604E
:1057300044F8086044F80C5044F80E60E551655098
:105740002046A650E550BDE8F88300BF002840F28F
:10575000CB2018BFBB207047074B08491A68CB689D
:1057600002EB820002EB400240F2CB2000FB03235D
:10577000C8188F30704700BF68A3FF1F3CA5FF1FEC
:1057800013490020F0B4A1F12006074640F2CB25D2
:1057900008E0002BB8BF04F1100301301B110828EA
:1057A0000B6412D051F8044F05FB0062631C0B60C0
:1057B00092F8842002F03F0201329342E9DB01308B
:1057C000002308280F600B64ECD1F0BC704700BFC9
:1057D0005CA5FF1F104A10B40021A2F1200440F282
:1057E000CB2004E001311B110829136412D052F8B8
:1057F000043F013B002B1360F4DA00FB014301314D
:1058000093F8843003F03F03136008294FEA231311
:105810001364ECD110BC70475CA5FF1F2DE9F0416B
:105820007C4D40F2CB2202FB005202F1800700F1D6
:105830000806397905EB860301F03F015B68013109
:105840008B4204464ADB92F88D30DB0902F1880274
:1058500040F08580BF7907F03F0705EB86035F6066
:1058600040F2CB2707FB045707F18003197A5A7AD5
:1058700001F03F0102F03F02914200F09B8097F857
:105880008E206FF3410287F88E205A7A511C61F303
:1058900005025A7212F0D8FD40F2CB2202FB0452EC
:1058A00005EB860692F8843092F88A1003F03F03E5
:1058B000013390FBF3F707FB1300013060F30501A0
:1058C00082F88A107368002B04F1180405EB840534
:1058D000B8BF0F331B116B60BDE8F081883290793F
:1058E000C0F3400040B397F807E0BF790EF03F0ED9
:1058F00007F03F07BE4514DD734512DB5379DB0922
:10590000ABD040F2CB2303FB0453424A93F88730D9
:10591000990642D003F03F0302EB8602013B53603D
:105920009EE740F2CB2202FB045202F1800E92F875
:1059300087C01CF03F0F25D040F2CB2202FB04525F
:1059400092F88D70FF09BED0002B0BDB0028BAD077
:1059500092F8862002F03F029342D2DBB3E79079BF
:10596000C0F340000028CCD140F2CB2303FB04530A
:1059700005EB860293F8863003F03F03C91A01391C
:1059800051606DE792F88AE00EF03F0E7345D3DB6D
:1059900092F88D30DB093FF460AF40F2CB2303FB7C
:1059A000045305EB860293F88A3003F03F03013B72
:1059B000536055E797F88C3013F07F0815D140F20B
:1059C000CB2303FB045393F88E206FF3410283F83B
:1059D0008E2040F2CB2303FB0453012193F889204E
:1059E00061F3050283F8892054E712F02DFD0A4B7C
:1059F000C21783FB0013C2EB6313642202FB130084
:105A00008045DCDD97F88E3043F0020387F88E3056
:105A1000DFE700BF3CA5FF1F1F85EB510A4B40F29B
:105A2000CB2101FB00310246083291F88D1003EBC7
:105A30008203C9095A6803D101325A60FFF7EEBEEA
:105A4000013A5A60FFF7EABE3CA5FF1F484B49499F
:105A500070B41D68CC68AA00531905EB430340F2EB
:105A6000CB2606FB04330B4493F8993003F007036D
:105A70001844062814D8DFE800F015253647586981
:105A800004002A4405EB420240F2CB2505FB042228
:105A90001144062291F8993062F3020381F899309B
:105AA00070BC70472A4405EB420240F2CB2303FB53
:105AB0000422114491F899306FF3020381F8993070
:105AC00070BC7047531905EB430240F2CB2303FB34
:105AD00004221144012291F8993062F3020381F803
