:1000000000800020BD01000041A50000F9A400000F
:10001000F9A40000F9A40000F9A40000F9A400006C
:10002000F9A40000F9A40000F9A4000041A5000013
:1000300041A50000F9A4000055C1000059C100000D
:1000400041A5000041A5000041A5000041A5000018
:1000500041A5000041A5000041A5000041A5000008
:1000600041A5000041A5000041A5000041A50000F8
:1000700041A5000041A5000041A5000041A50000E8
:1000800041A5000041A5000041A5000041A50000D8
:1000900041A5000041A5000041A5000041A50000C8
:1000A000CD970000D997000041A5000041A50000B0
:1000B00041A5000041A5000041A5000041A50000A8
:1000C00041A5000041A5000041A5000041A5000098
:1000D00041A5000041A5000041A5000041A5000088
:1000E00041A5000041A5000041A5000041A5000078
:1000F00041A50000D9CC000041A5000041A50000A9
:1001000041A5000041A5000041A5000041A5000057
:1001100041A5000041A5000041A5000041A5000047
:1001200041A5000041A5000041A5000041A5000037
:1001300041A5000041A5000041A5000041A5000027
:1001400041A5000041A5000041A5000041A5000017
:1001500041A5000041A5000041A5000041A5000007
:1001600041A50000D9AD000041A5000041A5000057
:1001700041A5000041A5000041A5000041A50000E7
:1001800041A5000041A5000041A5000041A50000D7
:1001900041A5000041A5000041A5000041A50000C7
:1001A00041A5000041A5000041A5000041A50000B7
:1001B00041A5000041A5000041A50000564B4CF2AE
:1001C000205210B51A804DF628121A8000BF00BFC9
:1001D0000AF0BAF9514B4FF010621A60504A9A6017
:1001E000504ADA60504A136813F4807304D14F49BF
:1001F0000B604FF4A85313604D4B1A78110703D5C9
:100200001A7842F008021A704A4B4B492A221A7097
:100210004A4A4B4B8B4204D252F8040F43F8040B6A
:10022000F8E7484B484900228B4202D243F8042B9E
:10023000FAE74649464A002352F8230041F82300D2
:1002400001336F2BF8D1434B434A802103F8011B44
:100250009342FBD1414B3D4A1A60414B8A221A70AE
:10026000A3F5805324225A70A0221A709A7992071B
:10027000FCD59A79D406FCD43A4A937903F00C035E
:10028000082B384BF9D103221A7146225A719A79F8
:100290009006FCD5334A9179324B4906FBD5324A58
:1002A0004FF0827111600921516020221A709A79F1
:1002B00002F00C020C2AFAD12C4B2D4A1A602D4B5D
:1002C0002D4A1A6000225A60072243F8042C2B4A58
:1002D000C3F80C2D62B60AF055FC144B1B68DA0704
:1002E00005D527480AF0A2FA264B274A1A60274B61
:1002F0001B785B0609D5234C234B22689A4204D114
:100300001F480AF093FA002323600AF023F917F03C
:1003100095FE0CF065F8FEE70E20054030800440A5
:10032000823F04000100002B10D0034014D0034092
:1003300002D0074000E00740E0A0FF1F9447020002
:10034000308CFF1FE0A0FF1F90D1FF1F0082FF1F16
:100350000000000000E400E05FE400E008ED00E0E1
:1003600000500640004006404480044004800440A1
:10037000C010050014E000E0BFD401000000202000
:10038000992DA1621CE00340A5C3945A00F00740D8
:10039000FFFFFFFFFFFFFFFFFFFFFFFFFFFFFFFF6D
:1003A000FFFFFFFFFFFFFFFFFFFFFFFFFFFFFFFF5D
:1003B000FFFFFFFFFFFFFFFFFFFFFFFFFFFFFFFF4D
:1003C000FFFFFFFFFFFFFFFFFFFFFFFFFFFFFFFF3D
:1003D000FFFFFFFFFFFFFFFFFFFFFFFFFFFFFFFF2D
:1003E000FFFFFFFFFFFFFFFFFFFFFFFFFFFFFFFF1D
:1003F000FFFFFFFFFFFFFFFFFFFFFFFFFFFFFFFF0D
:10040000FFFFFFFFFFFFFFFFFFFFFFFFDEF9FFFF23
:1004100010B5054C237833B9044B13B10448AFF33E
:1004200000800123237010BDE0A0FF1F000000002A
:10043000D8430200084B10B51BB108490848AFF378
:1004400000800848036803B910BD074B002BFBD0A0
:10045000BDE81040184700BF00000000E4A0FF1FE7
:10046000D8430200E0A0FF1F0000000010B584B0D8
:100470000A4C0B4B02930B4A01924FF0FF3300934F
:100480002046094B2022802108F058F8074A0849E5
:10049000204604B0BDE810400DF050BEFCA0FF1F88
:1004A000801A060040420F00A893FF1F0C8DFF1F0B
:1004B0009585000030B5094C83B001252046009594
:1004C0002B463C22022108F0BBF920460221A576EA
:1004D00003B0BDE8304007F083BB00BFFCA0FF1FA6
:1004E00070B5CEB2044680E80600D5B2304602218F
:1004F0000AF0D2FA022128460AF0CEFA30460AF073
:10050000BDFAA06028460AF0B9FA0023E060236132
:100510006361204670BD00BF30B5044683B00078EB
:100520000AF0ACFA054620790AF0A8FAA3689D42C1
:10053000E36824D0984231D0A560E060ADB1A0B1AD
:100540002369012B37DD0023236101221E4B6169E2
:100550001B680193019B63615B1A132B32D9312B0A
:100560008CBF002301231BB201E00022134692B28C
:10057000002062F30F0063F31F4003B030BD9842C8
:10058000F3D02369A56085420CBF01224FF0FF32F2
:1005900013442361E060002DE7D0D0E72369A56014
:1005A000854214BF01224FF0FF3213442361E06003
:1005B000002DDAD0C3E7002201332261D5DA4FF0F3
:1005C000FF32C3E70223D2E704CDFF1F10B5044674
:1005D000322240F2E2430160C8B2E260A36102212C
:1005E0000AF05AFA00234FF0FF31032261602274AF
:1005F000A3606361204610BD10B5044682B0007848
:100600000AF03CFA636898421B4B09D01B680093C0
:10061000E268009B60601344A360002002B010BD3C
:100620001B680193A268019B9A4209D8217C4A1E4B
:10063000032A05D8DFE802F00F020707012818D0C7
:10064000002002B010BD0028FAD1A2690120134495
:1006500063612074E2E730B10128F1D103208842C0
:100660002074DBD1ECE762699A42E9D2022020745F
:10067000D4E70420F3E700BF04CDFF1F704700BF9D
:1006800010B5184C636D1868036882B0DB6947F6D3
:1006900012219847144B1B6801930120019BC4F859
:1006A000003100FA00F200234FF6FF71024384F894
:1006B000580084F8702084F85A3084F85930636602
:1006C000236684F8F83084F8753084F8743084F840
:1006D000763084F87730C4F8FC30A166E16602B069
:1006E00010BD00BF64A1FF1F04CDFF1F0B460146D4
:1006F00018460AB90BF004B900220BF0B9B800BFD4
:1007000010B54FF60F000BF065F8044B5B6D1868E1
:100710000368F8211B68BDE81040184764A1FF1F5B
:1007200010B54FF60F200BF055F8044B5B6D1868B1
:100730000368FA211B68BDE81040184764A1FF1F39
:1007400010B54FF60F300BF045F8044B5B6D186891
:100750000368FB211B68BDE81040184764A1FF1F18
:1007600010B54FF60F400BF035F8044B5B6D186871
:100770000368FC211B68BDE81040184764A1FF1FF7
:1007800008B500200BF03CF9003018BF012008BD6F
:100790002DE9F041E0290C469DF8185008D8013D9C
:1007A000EDB20F2D02D849B2002912DBBDE8F0816D
:1007B000F729FBD90834E4B2012303FA04F414F056
:1007C000DD0FF3D0436D18680368BDE8F0411B6886
:1007D00018471F46436D8046186803682943C9B20D
:1007E0001B6816469847D8F854301868036806F016
:1007F0007F011B6804F0EF049847C02CD6D0D8F8CE
:1008000054301868036807F07F011B68BDE8F041A9
:10081000184700BF2DE9F0415FFA82F80C0608F195
:10082000FF3504F0FE4444F410442D02064605F45E
:10083000706544F00904000482B02C4300F4FE000B
:100840000F4620430AF0C6FFCDF80080FBB2F2B29B
:1008500090210348FFF79CFF02B0BDE8F08100BF84
:1008600064A1FF1F00B583B0D2B20092CBB2C2B276
:1008700090210348FFF78CFF03B05DF804FB00BF35
:1008800064A1FF1F2DE9F0415FFA82F80C0608F120
:10089000FF3504F0FE4444F400442D02064605F4FE
:1008A000706544F00804000482B02C4300F4FE009C
:1008B0000F4620430AF08EFFCDF80080FBB2F2B263
:1008C00080210348FFF764FF02B0BDE8F08100BF5C
:1008D00064A1FF1F00B583B0D2B20092CBB2C2B206
:1008E00080210348FFF754FF03B05DF804FB00BF0D
:1008F00064A1FF1F2DE9F0415FFA82F80C0608F1B0
:10090000FF3504F0FE4444F430442D02064605F45D
:10091000706544F00B04000482B02C4300F4FE0028
:100920000F4620430AF056FFCDF80080FBB2F2B22A
:10093000B0210348FFF72CFF02B0BDE8F08100BFF3
:1009400064A1FF1F00B583B0D2B20092CBB2C2B295
:10095000B0210348FFF71CFF03B05DF804FB00BFA4
:1009600064A1FF1F30B50304CDB2044603F4FE03B7
:10097000681E43F44043000283B043F00C0300F4CC
:10098000706018430AF026FF0095E2B20023C021F0
:100990000248FFF7FDFE03B030BD00BF64A1FF1F9A
:1009A000036810B504460BB17430984794F875305D
:1009B000803B7F2B00F28580DFE813F08A00830004
:1009C000830083008300830083008300830083000F
:1009D00083008300830083008300830096008300EC
:1009E00083008300830083008300830083008300EF
:1009F0008300830083008300830083009A008300C8
:100A000083008300830083008300830083008300CE
:100A10008300830083008300830083009E008300A3
:100A200083008300830083008300830083008300AE
:100A3000830083008300830083008300A20083007F
:100A4000830083008300830083008300830083008E
:100A5000830083008300830083008300AC00830055
:100A6000830083008300830083008300830083006E
:100A7000830083008300830083008300B000830031
:100A8000830083008300830083008300830083004E
:100A9000830083008300830083008300C400800000
:100AA000D500E50083008300ED008300F100F50030
:100AB000F900FD000101830005018400A36A002BF9
:100AC00064D110BD236D002BFBD0BDE8104018474A
:100AD000A368002BF5D094F8772094F8761094F85A
:100AE0007400BDE810401847E368002BF3D1E8E735
:100AF0002369002BEFD1E4E76369002BEBD1E0E73A
:100B0000A369002BDDD094F8761094F87400BDE84A
:100B100010401847E369002BF5D1D2E7226A002A7A
:100B2000CFD094F8771094F8763094F87400C90117
:100B300001F47E5103F07F031943A1F50051BDE894
:100B400010401047626A002ABBD094F8763094F8BF
:100B5000771043EA0121802904F1780028BF802121
:100B6000BDE810401047E26A002AAAD094F8773016
:100B700094F87600DB0103F47E5300F07F00184305
:100B8000BDE810401047236B002B9AD094F87600F4
:100B9000BDE810401847636B002B96D191E7A36B1B
:100BA000002B92D18DE7236C002B8ED189E7E36B6C
:100BB000002B8AD185E7636C002B86D181E7A36C7B
:100BC000002B82D17DE7E36C002B7FF47EAF78E7CA
:100BD000F8B5436D0446186803681B69984708B95F
:100BE0000020F8BD94F80D31626D23F0010384F804
:100BF0000D31106803685B699847C3B2FD2BEFD0D5
:100C0000626E002A49D001067ED494F85B10F02968
:100C10005FD0F7295DD0A11881F85B30216E4B1EA3
:100C20009A4253D394F85B30F02B00F00A82F72BF2
:100C300000F007821A0650D4002284F87520B02AEA
:100C40005CD0A02A5AD0D02A58D0E02A56D0C02A48
:100C500054D0002084F87400032994F85C0008BF85
:100C600094F85D5084F8760018BF0025002101201B
:100C7000B02A84F877506166216684F8F80008D0BD
:100C800000F2D581902A04D0A02A02D0802A00D078
:100C9000002384F859300120F8BD94F8592084F8D5
:100CA0005B3015064DD440B20028C0F20E8294F994
:100CB0000D01636840F0010084F80D0103B198470D
:100CC000002084F8590060662066F8BD0132626633
:100CD00086E7A11881F87830A0E703F10C02D2B2C0
:100CE000012AA9D9FD2BA7D0EF2B00F2EC8103F04C
:100CF000F002802A84F8752040F0EF8103F00F00A5
:100D0000013084F87400A7E7A3F1F0010F293FF642
:100D10007CAF012000FA01F111F0810540F0B181B2
:100D200011F45F4F3FF471AF84F8765084F8775038
:100D300084F8745084F87530C4F8FC0084F8F80026
:100D4000F8BD02F10C01CDB2012DACD9FD2AAAD01B
:100D5000EF2A00F2578102F0F006802E40F0538116
:100D600040B20028A0DB0120C9B2814284F85B2098
:100D700084F85C3060669AD9FD2A98D0EF2A94BF37
:100D800002F0F0051546A5F180037F2B8FD801A155
:100D900051F823F0FD0F0000AF0C0000AF0C000075
:100DA000AF0C0000AF0C0000AF0C0000AF0C000057
:100DB000AF0C0000AF0C0000AF0C0000AF0C000047
:100DC000AF0C0000AF0C0000AF0C0000AF0C000037
:100DD000AF0C0000FD0F0000AF0C0000AF0C0000D6
:100DE000AF0C0000AF0C0000AF0C0000AF0C000017
:100DF000AF0C0000AF0C0000AF0C0000AF0C000007
:100E0000AF0C0000AF0C0000AF0C0000AF0C0000F6
:100E1000AF0C0000FD0F0000AF0C0000AF0C000095
:100E2000AF0C0000AF0C0000AF0C0000AF0C0000D6
:100E3000AF0C0000AF0C0000AF0C0000AF0C0000C6
:100E4000AF0C0000AF0C0000AF0C0000AF0C0000B6
:100E5000AF0C0000FD0F0000AF0C0000AF0C000055
:100E6000AF0C0000AF0C0000AF0C0000AF0C000096
:100E7000AF0C0000AF0C0000AF0C0000AF0C000086
:100E8000AF0C0000AF0C0000AF0C0000AF0C000076
:100E9000AF0C0000F50F0000AF0C0000AF0C00001D
:100EA000AF0C0000AF0C0000AF0C0000AF0C000056
:100EB000AF0C0000AF0C0000AF0C0000AF0C000046
:100EC000AF0C0000AF0C0000AF0C0000AF0C000036
:100ED000AF0C0000F50F0000AF0C0000AF0C0000DD
:100EE000AF0C0000AF0C0000AF0C0000AF0C000016
:100EF000AF0C0000AF0C0000AF0C0000AF0C000006
:100F0000AF0C0000AF0C0000AF0C0000AF0C0000F5
:100F1000AF0C0000FD0F0000AF0C0000AF0C000094
:100F2000AF0C0000AF0C0000AF0C0000AF0C0000D5
:100F3000AF0C0000AF0C0000AF0C0000AF0C0000C5
:100F4000AF0C0000AF0C0000AF0C0000AF0C0000B5
:100F5000AF0C0000B30F0000F50F0000FD0F000004
:100F6000F50F0000AF0C0000AF0C0000950F000063
:100F7000B30F0000950F0000950F0000950F0000C3
:100F8000950F0000950F0000AF0C0000950F0000BA
:100F9000950F00000023012084F8743084F8763027
:100FA00084F8773084F875506366236684F8F80017
:100FB000F8BD80210023216684F8785084F85930E8
:100FC0007F21636E8B422ED302F00F020023013289
:100FD00094F85C1084F87420012084F8761084F86A
:100FE000773084F8755063662366C4F8FC0084F893
:100FF000F800F8BD022323660121E2E703232366FC
:101000000221DEE7164606F0DF05902D3FF4A8AE7C
:1010100006F0BF05A02D3FF4A3AE06F0EF06C02EEC
:101020003FF49EAE3FE6013363660020F8BDD02A50
:101030003FF42FAEE02A3FF42CAEC02A7FF428AE56
:1010400027E6F02280230025012194F8F76084F838
:10105000752084F8763084F8F720C4F8FC302046F8
:1010600084F8775084F8745084F8F810FFF798FCEF
:10107000F722022384F8796084F878202846636692
:10108000F8BD94F87810F02902D0F7297FF40FAE5C
:10109000551C224400214FEA152E82F87830012693
:1010A000F02784F8765084F877E084F8741084F898
:1010B00059103046C4F8FC5084F87570616621669A
:1010C00084F8F860F8BD1A46B7E503F10C02D2B215
:1010D000012A7FF6ECAD1A4650E6902A3FF40EAE98
:1010E000ADE500BF90F87030DA0718D513F0FE0FA9
:1010F00015D070B590F8755085F08002602A82B0E6
:1011000004460DD890F874608E4231D081B35B08EC
:10111000012B32D0032B00F09F8002B070BD7047CE
:10112000A5F1F0030F2BF8D801A252F823F000BF6D
:101130002712000005120000D3110000B7110000B3
:101140001B1100001B1100008F1100001B1100007B
:101150008F1100001B1100008F1100008F11000083
:101160008F1100001B1100008F1100008F11000073
:101170005B08012B01D0022BCFD194F8773094F883
:101180007620009629462046FFF702FBC5E705F1C9
:101190000803DBB2072BC0D8012202FA03F313F0D5
:1011A000DD0FBAD0636D1868036829461B6802B06A
:1011B000BDE870401847436D90F876501868036892
:1011C000F3211B689847636D186805F07F01036879
:1011D000ECE7436D90F87750186894F87620036830
:1011E000F2211B6842EAC5159847636D18680368C9
:1011F00005F07F011B689847636D1868C5F3C61139
:101200000368D3E7436D90F87650186894F8773008
:1012100002682D0103F00F03126805F07005F1213B
:101220001D439047BEE790F8763090F8776043EA28
:101230000626802E28BF802600F17805002E3FF478
:101240006CAF2E44636D15F8011B186803681B68AA
:101250009847B542F6D160E794F8773094F8762055
:1012600000962946FFF794FA57E700BF70B5174C70
:1012700094F85860102E02D90025284670BD2046EB
:10128000FFF7A6FC05460028F6D094F87530902BA1
:101290000CD083F08003602B0BD90C48FFF780FB48
:1012A00031460A48FFF71EFF284670BD94F8773094
:1012B0003BB194F874309E42EFD0002EEDD0002563
:1012C000EEE7802384F87530F3E700BF64A1FF1FC9
:1012D000F8B5294C294F94F87030DFF8ACE0C7F826
:1012E00000E00025012243F0010362F347034FF6BB
:1012F000FF76294604F17800802284F87030676513
:1013000025606560A560E56025616561A561E561B1
:1013100025626562A562E56225636563A563E56391
:1013200025646564A564E564256584F8585084F8EF
:10133000595084F85A5025666566A666E66684F8B4
:10134000745084F8755084F8765084F8775084F897
:10135000F85017F0F3FA2046C4F80051C4F80451CD
:10136000C4F8085184F80C5184F80D51044A054919
:10137000BDE8F8400CF0E2BE64A1FF1F60A1FF1FB2
:101380000C8DFF1F7D0600001096FF1F0020704788
:10139000704700BF194B1B7870B505460E461446C2
:1013A0003BBB174B1B78CBB9A3F15533A3FB0623EB
:1013B000DB0813F0010FA3EB830306EB830318BFD5
:1013C0000C33104A104832F82310002205F0CCFEEE
:1013D0000D4805F0E3FD0D4B01221A700C4B1B78F4
:1013E00003B970BD2A4621463046BDE87040FFF77C
:1013F00071BA0021172009F03BFBD2E7338DFF1FA4
:101400009CA3FF1F88D2010078A2FF1FA5BCFF1F6D
:1014100011A3FF1F054B1B7803B9704710B40C468E
:1014200011460246204610BCFFF78CBA11A3FF1FDD
:10143000024B0A460146186805F0EEBCC8BCFF1F07
:1014400010B5044606F0A4FA0A2830D00D283DD085
:101450004FF6FD73984201D9012010BD0346B4F93F
:101460004220B4F9401004F1080006F075FA94F82F
:101470002230032BF0D8DFE803F0140E0802B4F892
:101480004230181AA4F84200E6E7B4F84030181ABF
:10149000A4F84000E0E7B4F842301844A4F8420051
:1014A000DAE7B4F840301844A4F84000D4E794F9DF
:1014B000333094F93410B4F842205B1A13440022FC
:1014C000A4F84230A4F84020012010BD0023A4F865
:1014D0004030012010BD00BF10B50446D0F84801CF
:1014E00008B10AF087FFD4F83C0108B10AF082FF86
:1014F000D4F8300108B10AF07DFF04F1100008F0C3
:1015000069FB204610BD00BF2DE9F84FDFF85C8174
:10151000504ED8F800301E40002EC0F29580DFF803
:1015200050914C4DD9F80030C8F800601D40002D96
:10153000C0F28580C9F800500B36C5F11A050124A8
:10154000A1B200224448013405F00EFE0B2CF7D165
:10155000DFF820A1414F9AF80030002B57D14FF00F
:101560000A0B08E05D450BF1010B0FDD0134BBF107
:101570001A0FA4B21BD0B542F4DD00222146364832
:1015800005F0F2FD5D450BF1010BEFDCFF2211468A
:10159000388805F013FE05F0B5FE214602462E48B8
:1015A00005F0E2FD0134BBF11A0FA4B2E3D1FF2232
:1015B0001146388805F002FE05F0A4FE711C0246B3
:1015C00089B2254805F0D0FDD8F800300133102B42
:1015D000C8F80030D9F8003004BF0133C9F8003032
:1015E000102B25D01E4A1F4B10681B681E49034450
:1015F000012013600870BDE8F88F0022A1B21648E0
:1016000005F0B2FDA54206DC01341B2CCFD0B5425B
:10161000F3DDA542F8DDFF221146388805F0CEFD46
:1016200005F070FEA1B202460B4805F09DFDEBE708
:101630009AF8003083F001038AF80030D2E7013DC8
:1016400065F00F05013575E7013E66F00F060136BE
:1016500065E700BF0F00008078A2FF1F388EFF1FD4
:10166000E0BCFF1F3C8EFF1F0EBDFF1F4CA3FF1FE2
:101670008CA3FF1FE4A2FF1F10B5183814F024FF3D
:1016800009490A4C14F074FF0BF07CFC15F036F994
:1016900001212060172009F0EBF921682820BDE81E
:1016A000104009F0D7B800BF90759242C4BCFF1F2C
:1016B0002D4B1B7810B50C46002B3BD12B4B1B78C8
:1016C0001BB1A4F11803352B3AD9294B1B7883BBE6
:1016D000A3F15533274AA3FB0413DB081470A3EBD3
:1016E000830204EB8204DA0713D50C34012B2DD0CE
:1016F000022B29D0032B2DD0042B2ED0052B2FD03D
:10170000062B25D0072B4FF6FF7218BF6FF07F42D4
:1017100003E06FF07F42002BE8D1174B174833F8F6
:10172000241005F021FD154805F038FC144B01226A
:101730001A7010BD114602462046FFF793F8BDE728
:101740002046FFF799FFC0E70E4AE6E70E4AE4E7B6
:101750000E4AE2E74FF47F42DFE74FF0FF12DCE78B
:101760004FF6FF72D9E700BF11A3FF1F338DFF1F94
:101770009CA3FF1FF1BCFF1F88D2010078A2FF1FAE
:10178000A5BCFF1F00FFFF000080FF0000FF8000DE
:101790002DE9F0471546002A63D004460F46DFF8CE
:1017A000C88000264FF6FD7900F1080A0BE006F02C
:1017B000EFF80A2825D00D2832D0484511D901204C
:1017C000013D06440AD0236817F8011B1B684345F6
:1017D0002046ECD09847013D0644F4D13046BDE8A0
:1017E000F0870346B4F94220B4F94010504606F0A1
:1017F000B3F894F82230032BE1D8DFE803F02B2470
:101800001D1694F9333094F93410B4F842205B1A61
:1018100013440022A4F84230A4F840200120CFE76E
:101820000023A4F840300120CAE7B4F84230181A67
:10183000A4F842000120C3E7B4F84030181AA4F815
:1018400040000120BCE7B4F842301844A4F842003C
:101850000120B5E7B4F840301844A4F84000012056
:10186000AEE71646BAE700BF41140000F8B50D4ECA
:1018700033689842044611D30B4A0C4D12680C4F42
:1018800085FB0215D217C2EBA505E41AFEF738FF57
:101890003B6803FB05F39C423360F6D21B1B3360AD
:1018A000F8BD00BFECBCFF1FD4D10100ABAAAA2A2F
:1018B000A8BCFF1F70B50D4D2B689842044612D38B
:1018C0000B4E32682A60E41A09F0ECF80146094828
:1018D00003F004FF09F0E6F80146074803F04AFF69
:1018E0002B68A342EDD91B1B2B6070BD40BDFF1FB1
:1018F000A8BCFF1F7CC0FF1F7CBDFF1FF8B50F4FAA
:101900000F4D3B680F4E03EB8303044603440A4626
:1019100055F8230056F82410FEF7ECFF3B680A4FF9
:1019200056F8242047F8242003EB83031C4407497E
:10193000074855F8243002600B60F8BDD8BCFF1F83
:101940009C8EFF1F48BDFF1F14A3FF1F94A2FF1F03
:1019500030A3FF1F2DE9F04FDFF86C82894E8A4FCC
:10196000DFF868A2DFF86892DFF868B2874D85B0CB
:10197000002458F8040BC0B208F09AFC0346014654
:1019800028683B6005F0E4FD55F8042BDAF80010F8
:10199000D36AD9F80000994200F3C2808342A8BFFD
:1019A0000346401A00F0B8805B1AC3EB833100EBAA
:1019B000D07301EB630300FB03F1002993FBF0F309
:1019C000B8BF03F1FF33D91192F834203B6046F8D9
:1019D000041B002A56D06E4B1B680393039ADBF856
:1019E00000309A4205D0694B6A4A1B69DB6A9B004A
:1019F0001360694B1B78032B44D8DFE803F04A02DD
:101A0000024A664B1B78002B54D0654B1B78002B89
:101A100050D0644B64481B68644ADFF8BCE103EBB8
:101A200083032344042C50F823301360604BCEF81A
:101A30000040196000F08F8004F084F920445D4B71
:101A400056F8042CC270DA68019340F2CB2101FBF6
:101A50000232204692F8851001F00F010131FFF7A4
:101A60004DFF019BDA6840F2CB2101FB0233204697
:101A700093F8851001F00F010131FFF73FFF4E4B46
:101A800001221A700134052C7FF473AF05B0BDE854
:101A9000F08F4A4B1B78002B44D13F4B204699785E
:101AA000FFF72CFF444B01340122052C1A707FF400
:101AB00060AFEBE7424B1B78002B39D0394B3A48EB
:101AC0001B683A4ADFF810E103EB83032344042C3C
:101AD00050F823301360364BCEF800401960354B78
:101AE0003BD0D86803EB800240F2CB2C526A02EB69
:101AF000820E0CFB00F002EB4E0202441A44224418
:101B0000034482F8921093F8851001F00F0101311F
:101B10002046FFF7F3FEC5E73F2141F6FF7353E789
:101B20000B463EE7274B20461968FFF7E7FEB9E76B
:101B3000204BDA6840F2CB2101FB0233204693F8B8
:101B4000851001F00F0101310134FFF7D7FE052C9C
:101B50007FF40FAF9AE7174B84E7D3F80CE003EB61
:101B60008E0040F2CB22406A02FB0EF24FF00B0EC9
:101B70000EFB0022134493F8902061F3060283F8D1
:101B800090208FE748BDFF1FE0A2FF1F34A3FF1F77
:101B900004CDFF1F388EFF1F9CA3FF1FA4BCFF1F97
:101BA000DCA2FF1FD8BCFF1F9C8EFF1F94A2FF1F4B
:101BB00030A3FF1F48A5FF1FA5BCFF1F328DFF1FCD
:101BC0002CA3FF1FB48DFF1FC0D1010094A3FF1FE2
:101BD0003C8DFF1F80A3FF1FF0A3FF1F2DE9F043E3
:101BE0006C4B6D4C196883B0084614F0B9FB14F0C7
:101BF000ABFE6A496A4A0B680093009B1568206037
:101C00005B1B984208D867480968037801910199DD
:101C1000116083F001030370634B1B783BB3614B8E
:101C20001C78002C40F089802546264627464FF434
:101C30007F0200215D4805F097FA3A4601215B4892
:101C400005F092FA32460221584805F08DFA2A46EC
:101C50000B21564805F088FA22460C21534805F01E
:101C600083FA534B01221A7003B0BDE8F083514B45
:101C70001A78002A6DD04B4B1B78002B64D1994603
:101C80009846FF220021494805F06EFA4A4A474823
:101C9000012105F069FA494A4448032105F064FA34
:101CA0004FF6FF720421414805F05EFA4FF0FF1233
:101CB00005213E4805F058FA414B1F68132F18DDE7
:101CC000404DA7F108060B2405E04A46013405F013
:101CD0004BFAA6420DD015F8013F3448364AA1B25E
:101CE000002BF2D1A1B23148013405F03DFAA642F1
:101CF000F1D14FF47F0206212C4805F035FA132F5D
:101D000010DD314D132415F8013F28484246A1B299
:101D10001BB926484FF47F02A1B2013405F024FA22
:101D2000BC42F0D1294A2148092105F01DFAFF22C1
:101D30000A211E4805F018FA93E71F4D1F4F47F67A
:101D4000FF744FF0FF1672E7DFF86C904FF47F08D6
:101D500097E71146154805F007FA1D4B1B78002B35
:101D60007FF47FAF164B1E68012E7FF77AAF194DB7
:101D7000194F012403E00134A6423FF472AF55F835
:101D8000043F0133F7D13A680848A1B205F0ECF9F5
:101D9000F1E700BFDCBCFF1FD4BCFF1F04CDFF1F59
:101DA00048A3FF1F68BDFF1FF0BCFF1F78A2FF1FE5
:101DB0000EBDFF1F5CBDFF1F0080FF0000FF800005
:101DC000F0D201006BBDFF1F73BDFF1F00FFFF00BE
:101DD000CCBCFF1F488DFF1F388DFF1F2DE9F04F32
:101DE0009D4B9E4C196887B00746084614F0B8FA18
:101DF00014F0AAFD9A4A9B4913680293029B0D684E
:101E000020605B1B98424FEA400408D8964D10684A
:101E10002B78039083F0010303982B7008601368FC
:101E2000924A0493049B11688D485B1A9C4208D81F
:101E30008F4900680B7805900598106083F00103C6
:101E40000B708C4E737923B1874D2B78002B40F0AB
:101E50008B80894C2378A3B1834D2B78002B40F0E5
:101E6000B081864B1B78002B6AD0854B1B78012BE9
:101E70006ED0022B72D14D220021824805F074F9F8
:101E80000EE07E4B1B78002B5AD0774D2B78002B21
:101E9000EBD07D4B7B4853F82720002105F064F9F7
:101EA00040F2CB2303FB076393F88E30D90740F150
:101EB000B080764BDFF8FC9153F82730C9F800303A
:101EC00007F1180806EB8802237854682401002BD8
:101ED00057D06F4B1B78002B53D06E4B1F68012FD0
:101EE00049DD614DDFF8D091DFF8D08101240DE0AC
:101EF000012632460B21634805F036F9013432469B
:101F00001A21604805F030F9A74234D0D9F80020F2
:101F1000614B1340002B6CDBD8F80020A24203F188
:101F20000B0370D0A3425ED00022A1B2554805F049
:101F30001BF92B78002BDBD0584A47F6FF76D9E700
:101F4000574B1B78002BA0D14D4B1B78012B90D108
:101F5000544A4C48002105F007F9A1E70022114638
:101F6000484805F001F99BE7012200214548424C11
:101F700005F0FAF894E74C4B01221A7007B0BDE85F
:101F8000F08F474B1B78002B50D0424B1F68112F0E
:101F900009DD103F0125A9B200223A48013505F0BC
:101FA000E3F8AF42F7D104F10F070B25DFF80C81FE
:101FB0000AE0D8F800309D4201D005F0D5F8013490
:101FC000BC4205F10105D6DCF3682E4806EB83031D
:101FD000A9B25B6AA3424FF00002EAD14FF40002BB
:101FE00005F0C2F8EBE72D4A2648A1B205F0BCF88F
:101FF0009FE7013BD8F8002063F00F030133A242B2
:1020000003F10B038ED1274A1E48A1B205F0ACF8AC
:102010008FE71D491D4ADFF89C90244B51F827108B
:1020200052F82720C9F800101A6049E7F36840F217
:10203000CB2A0AFB036393F88E305A079BD41C4BC0
:102040001B78002B40F0F980124B1D68012D63DDD9
:102050000AFB076A012441E0DCBCFF1FD4BCFF1F60
:1020600004CDFF1F48A3FF1F68BDFF1FD8A2FF1F9D
:10207000E4BCFF1F48A5FF1FA4BCFF1F10A3FF1F48
:102080009CA3FF1F78A2FF1F8CD101006CD101001F
:10209000DCA2FF1FF0D201000F0000800080FF00D3
:1020A0002CA3FF1F808080000EBDFF1FB4A2FF1F66
:1020B00004BDFF1FE8BCFF1F70A3FF1FC0BCFF1FB4
:1020C000022C6FD0FB1CA34200F082800022A1B240
:1020D000904805F049F80134AC4218D09AF88430A1
:1020E00003F03F030B33A342F0DB012CE8D18A4B12
:1020F0005B7823B1894B1B78002B40F0E280884A43
:1021000084480121013405F02FF8AC42E6D106EBFA
:102110008808D8F80440240140F2CB2B0BFB07FBC6
:1021200006EB0B0804EB84025B4608F18F0804EB16
:102130004202CDF804B01E44DFF800B2904404F12E
:102140000F0A0B2513E0A24200F0C18098F802208C
:10215000D0065DD4734A6F48294605F005F801346E
:102160000135A245ADB208F10B08FFF604AF96F8B1
:10217000842002F03F020132A242F0DD0BEB870225
:10218000A307526ADFD0A2423AD098F80220D206C2
:102190003ED4654A1278002ADCD129465D4804F015
:1021A000E3FFDCE75C4B9B7823B15C4B1B78002B97
:1021B00040F087804FF680720221564804F0D4FF29
:1021C00089E744F64D420021524804F0CDFF67E60E
:1021D0001FFA84FB5946D9F800204E4804F0C4FF8A
:1021E000514B1B78002B3FF476AF4C4B1B78002BE8
:1021F0003FF471AF59460022464804F0B5FF6AE744
:102200009BF80520002A67D198F80220D1066CD5EA
:1022100098F80A20530709D0444A127832B9444A40
:102220003C481268294604F09FFF98E7D9F800203F
:102230003848294604F098FF91E7384D2A78002A5B
:1022400051D0374A4FF680740121324804F08CFF98
:10225000224602212F4804F087FF364BD3F8009026
:10226000B9F1030FC8BF032407DDA1B2002229483A
:10227000013404F079FF4C45F7D140F2CB2303FB46
:1022800007674FF47F0297F884902B4F06EB880680
:10229000C9F30119002473681E4804F10B01A3421D
:1022A00089B204F1010407D004F05EFFA145FFF6F6
:1022B00062AE57F8042FEEE72B78002B08BF002200
:1022C000F2E700222146134804F04EFF03E79BF893
:1022D0000520002A3FF43AAF4FF4000229460D488A
:1022E00004F042FF3BE71446AEE70F4A1278002A9B
:1022F0007FF430AF04EB8402019B04EB42021A44EA
:102300005A4492F89120C2F30012002A7FF427AFBA
:1023100043E700BF78A2FF1FB8A2FF1F68BDFF1FE1
:10232000FFFF80002020200010A3FF1FE4BCFF1F40
:10233000B4A2FF1FF0D201005CD1010048A5FF1F2D
:1023400010B550B904460121094805F01DFB21468E
:102350000748BDE8104005F019BB0021044805F00E
:1023600013FB01210248BDE8104005F00FBB00BF80
:10237000B0A3FF1FA0F11803352B00D97047FFF75A
:102380007BB900BF0021172008F072BBF8B5204DC3
:10239000DFF8A8E01F4B2D68DEF800401B6894FBB7
:1023A000F3F607461C4850F8270005EB450503FBEC
:1023B000164300EB850401337F2CCEF8003016D88D
:1023C0001546164A164E17481278347040F82740C2
:1023D00012B1154A15681D44144B2A46204643F88D
:1023E0002750FEF717FAA4F11803352B0BD9B9B211
:1023F0006FF07F420E4804F0B7FE0E490E4A0123EB
:102400000B701370F8BD2046FFF736F9EFE700BFF9
:1024100074A3FF1FC48DFF1FDCD1010054A3FF1F55
:10242000F1BCFF1F488DFF1FE8A2FF1FC88DFF1FD3
:1024300078A2FF1F0EBDFF1FA5BCFF1F88A3FF1FB3
:1024400038B50F4D044655F820007F280DD80D4BA8
:10245000002153F82420FEF715FA0021172008F078
:1024600007FB4FF0FF3345F82430A1B200220648A5
:1024700004F07AFE0549064A01230B70137038BD3B
:10248000488DFF1FC88DFF1F78A2FF1F0EBDFF1FC5
:10249000A5BCFF1F2DE9F0473A4FBDF82060054667
:1024A0008946384629469246984605F0BDFA97F97E
:1024B000314080B2A4B2C0EB0803341B03EBD373EA
:1024C00004EBD47409EB63030AEB6404002228468E
:1024D000A7F84030A7F8424087F8462017F0B0F838
:1024E00048B304463E464FF6FD7801E0013C22D059
:1024F00015F8011B234805F04BFA0A282FD00D28A8
:102500003BD04045F2D80346B6F94220B6F9401018
:102510001D4805F021FA96F82230032BE6D8DFE8B3
:1025200003F018120C02B7F84230013CA3EB000094
:10253000A7F84200DCD1BDE8F087B7F84030181AA0
:10254000A7F84000D2E7B7F842301844A7F8420095
:10255000CCE7B7F840301844A7F84000C6E796F932
:10256000333096F93410B6F842205B1A1344002237
:10257000A6F84230A6F84020B8E70023A6F840307D
:10258000B4E700BFA8A3FF1FB0A3FF1F30B50546E7
:1025900083B010460C46FFF7D3FE074B1A68520073
:1025A000610116230332009309B2284612B2202398
:1025B000FFF770FF03B030BDC08DFF1F30B51D4C5D
:1025C00083B0012104F1080005F0C4F904F108000A
:1025D000194905F0CFF9002504F108000121A4F8FC
:1025E0004050A4F8425084F8465005F0CDF92946F1
:1025F00004F1080005F0CAF9104B5A781B78934291
:1026000010D00F4B1B784BB90E4820230093142297
:102610002C235621FFF73EFF03B030BD0A4B53F881
:102620002200F2E7064A1278002AEDD0064A52F854
:102630002300EAE7A8A3FF1F240702009CA3FF1FB3
:10264000CDBCFF1F48D00100608EFF1F70B506464D
:1026500084B010460D46FFF773FE0A4B1C686400F9
:1026600002A930460A22033415F028FDA4B26901FC
:102670001623009322B209B202A82023FFF70AFF13
:1026800004B070BDC08DFF1FF8B5134E074600257E
:102690007088002498B12304FF2293FBF0F02844B3
:1026A000114680B204F08AFD04F02CFEA1B202466D
:1026B000094804F059FD70880134A042EBDC06485B
:1026C00004F06CFC05F58075384608F00DFAB5F598
:1026D000803FDDD1F8BD00BF78A2FF1F2DE9F04794
:1026E000494BDFF83C81494E0FCB86B006AC04E97C
:1026F0000F00474806F07AFA002108F1080005F0BB
:1027000029F945464FF0000A4148424C06F06EFA5E
:102710001223002240494148A8F84030A8F842302E
:1027200088F846200FFA8AF905F024F94FF6FD776C
:1027300001E0B44222D014F8011B394805F028F911
:102740000A284FD00D285BD0B842F2D80346B5F91D
:102750004220B5F94010314805F0FEF895F82230D6
:10276000032BE6D8DFE803F038322C02B8F8423009
:10277000B442A3EB0000A8F84200DCD12949274865
:1027800005F0F8F809F0030906AB03EB89092023EB
:1027900059F8100C00930A225021FFF77BFE1C48C9
:1027A00006F030FB0AF1010A642008F09DF9BAF145
:1027B000100FA9D1642006B0BDE8F04708F094B925
:1027C000B8F84030181AA8F84000B2E7B8F842301C
:1027D0001844A8F84200ACE7B8F840301844A8F80C
:1027E0004000A6E795F9333095F93410B5F842204A
:1027F0005B1A13440022A5F84230A5F8402098E760
:102800000023A5F8403094E7B4CF0100E6CF0100E3
:10281000FCA0FF1FE0CF0100D8D40100B0A3FF1F30
:10282000A8A3FF1F94DD01002DE9F04F85B001A89A
:102830000B223C493C4E07F021FBA6F140073D46E8
:10284000002456F8043F05F5307B03F07F0AA946C3
:102850009DF804300B226AF3060309F18F0001A9E9
:1028600091448DF8043007F009FBD945F0D140F2CE
:10287000CB2303FB04724FF00F0892F8840092F808
:10288000851092F8879092F88E3092F886A092F890
:1028900088C092F889E068F3050064F303016FF3E0
:1028A000050982F8840092F88A0082F8851082F87F
:1028B000879092F88B104FF0030969F305004FF0F1
:1028C000020969F3030182F88B1092F88D1082F8E7
:1028D0008A004FF0010B92F88C0001F0800103F0A8
:1028E000F8035C446FF3050A6FF3050C6BF3050EF8
:1028F0006FF306006FF3C7116FF3C303082C82F860
:1029000086A082F888C082F889E005F2CB2582F89B
:102910008C0082F88D1082F88E3092D105B0BDE81F
:10292000F08F00BFC4CF010088A5FF1F2DE9F04143
:10293000DFF880801B4BD8F800001A7803681A4C27
:102940005B681A4F00219847D8F800002278036886
:1029500001215B689847D8F80000154A0368127B8C
:102960005B6802219847D8F80000A2780368013A12
:10297000D2B25B68032198470424661D3D46D8F80F
:10298000000055F8042F036821465B68D2B2013479
:102990009847B442F3D11D2C07F11407EDD1BDE8DF
:1029A000F08100BFB4D101009CA3FF1F988EFF1FD0
:1029B00048A5FF1F28A3FF1F2DE9F0411E4E3068D8
:1029C000036800219B689847FF2803D01B4B1B78A6
:1029D000834202D00020BDE8F0813068184C0368C3
:1029E000DFF864809B6801219847336820701A687B
:1029F0001846022193689847336812491A68606044
:102A0000C86092681846032190470130A0700424E2
:102A1000671D45463068036821469B689847013426
:102A2000A74245F8040FF5D11D2F08F114083C46C4
:102A3000EED10120BDE8F08128A3FF1FB4D1010031
:102A40009CA3FF1F48A5FF1F988EFF1F2DE9F84F7D
:102A5000DFF854B0134FDBF80000DFF850A0036834
:102A6000DB68984703F068F9C7F120058046A0F2BB
:102A7000CB29B8F1000F3C46C8BF07EB080609DDBB
:102A8000DBF800000368611914F8012B5B689847B4
:102A9000B442F5D107F2CB2757454D44E9D1BDE803
:102AA000F88F00BFCCA5FF1F28A3FF1F24BCFF1F6A
:102AB0002DE9F0471A4FDFF86C803868DFF868A01E
:102AC0000368ADF5347DDB68984703F035F92024C1
:102AD000814640F2CB22002101A815F02FFFB9F169
:102AE000000F04EB0906C8BF01AD09DD38680368B3
:102AF00021469B6898470134B44205F8010BF5D193
:102B000040F2CB2208F1840001A9904407F0B6F905
:102B1000D0453446DDD10DF5347DBDE8F08700BFEA
:102B200028A3FF1F48A5FF1FA0BBFF1FF0B5454D01
:102B3000454A2B68454C46488BB00078059305996B
:102B40002B680693069F2B680793079E2B680893B4
:102B5000404B11601F604049404B414A089F26602E
:102B600000240F601C7101213E4E94701472DC60D1
:102B700083F82240A3F84040A3F8424083F846403F
:102B80001E60198383F821101070507007F08AFFBF
:102B9000354B364A1B68DFF838E12968344D099116
:102BA00003EB830310603349334A344E099F55F8D1
:102BB00023503348DEF8003037600D60136003F0B7
:102BC00005F8304B304A19683048314B12680160C3
:102BD0001A60084613F0C4FB13F0B6FE2D4B2E4FBF
:102BE00018600B220C212D482D4E2E4DFDF778FC40
:102BF00021462D48FDF7EAFC2C4B2D4A19682D4B38
:102C0000126801930623039305242B4B0093384647
:102C10002A4B029402F004FE3246384628490BF053
:102C20008DFA284B284A1988B2F9002052232846E9
:102C300004F084FA3246284624490BF07FFA0BB0A0
:102C4000F0BD00BF04CDFF1F48A3FF1F00BDFF1F45
:102C5000D8D10100D8A2FF1FD0BCFF1FA8A3FF1F1F
:102C60009CA3FF1FA4CF0100D8BCFF1FF4BCFF1F13
:102C70009C8EFF1F94A2FF1F30A3FF1F80A3FF1F86
:102C800048A5FF1FBC8DFF1F74A3FF1F90A2FF1F4D
:102C9000FCBCFF1FD4BCFF1FF4A3FF1F58A3FF1FE2
:102CA0000C8DFF1F78A2FF1F98A2FF1F408DFF1FF2
:102CB000348EFF1F708EFF1F948EFF1F408EFF1FEC
:102CC000D9140000F0D20100F8D20100D56E000046
:102CD00048BDFF1FF0B583B00024154D0194202698
:102CE00022468023074621460096124804F0E0FF62
:102CF0002846012104F02EFE28460F4904F03AFE32
:102D00002846012104F040FE2146284604F03EFEFC
:102D100021460096384680230A22FFF7BBFB074A6C
:102D2000074B0849116001221A7003B0F0BD00BFC3
:102D3000B0A3FF1FFCA0FF1FD8D40100F8BCFF1FE9
:102D4000A5BCFF1F20A107000FB400B589B00AABD6
:102D5000182153F8042B019302A818F003F902A8D4
:102D6000FFF7B8FF09B05DF804EB04B0704700BF8F
:102D700000B500EB400083B08100012202232B311B
:102D80000192009309B206231E22034804F090FF2B
:102D900003B05DF804FB00BFFCA0FF1F89B900B5BC
:102DA00000EB400183B0890001232B310193009394
:102DB00009B206231F22044804F07AFF03B05DF82D
:102DC00004FBFFF7D5BF00BFFCA0FF1F70B51C4B75
:102DD0001C481C6882B0002201250A218DE82200CF
:102DE00023B2114604F064FF174B1648B3F90050A4
:102DF000002CB4BFE11C214602262B4641F38F0173
:102E00000096002205F0CCFF04EBD4712B46002283
:102E100041F34F0100960B4805F0C2FF204613F026
:102E200053FB4FF07D5113F0A3FB13F067FD0096A9
:102E300001B22B460022034805F0B2FF02B070BD7C
:102E4000ECD20100FCA0FF1F84D201002DE9F04F5D
:102E50009A4C0546884694E80F0091B004AE0CAF3A
:102E600086E80F0087E80F000023099308930A9370
:102E70000B930B2D00F2AF82DFE815F033008400D6
:102E8000A500D300F60072019201B401DA01FA0143
:102E90001C020C008A4A8B4B15688B4A8B490492A2
:102EA0001B788B4A059101358A4906926FF07E02A4
:102EB000089507910992002B40F09182864B0D9363
:102EC000864B1B786FF07E020A92002B00F08A82FC
:102ED000834B0E93834A7C4B12680B924FF0030B8B
:102EE00016E0814A814B1568814A824912689B78B5
:102EF00009780A92804A09930435804B0B91059218
:102F00007F49804A08950493069107924FF0010B80
:102F10007D4C039304F1080001214FF0000904F0F7
:102F200019FD04F108007949DFF830A204F022FD10
:102F3000A4F84090A4F8429084F84690FFF746FF2A
:102F4000494604F1080004F01FFD04F108000121C6
:102F500004F01CFD039B01244FF00A09DAF800205D
:102F6000CDF80090023A184621B212B22023FFF7A2
:102F700091FA612C04F1200400F0B481A4B256F857
:102F8000043FEBE7624A634BD5681B68099340F244
:102F9000CB2303FB0523604993F88D205F4B604CE6
:102FA000059302F07F025F4B0A9208685E4A07931E
:102FB000013504940895069213F0A0FC4FF0010B24
:102FC00023460B90A4E7524A584BD168049340F231
:102FD000CB2000FB0122564D92F88E0092F88B1008
:102FE00092F88420534C059402F03F02013201F024
:102FF0000F010992504A06926FF07E0255F8211097
:103000000A920B920207C0F380050E9148BF344A22
:103010004A4958BF304A089507910F924FF0020B6A
:1030200076E73649464A434B364C0591069207935C
:10303000049402F087FE2C4B05781A6805F07F0592
:1030400004320992089502F07DFE427802F07F0278
:103050000A9202F077FE827802F00F0201322346D4
:103060000B924FF0010B53E7364B3749374A384C38
:1030700007936FF07E05059106920494089502F07F
:1030800061FE827A3349039402F007024FF0020B8B
:1030900051F822200C9202F055FE027A0A9502F0B5
:1030A0007F02099202F04EFE427A2B49039B02F006
:1030B0003F0251F822200E922AE700BFD0CF010034
:1030C000D8BCFF1F11A3FF1FF0CF01003CD00100AF
:1030D00044D001004CD0010058D00100328DFF1FB8
:1030E00054D00100B48DFF1F74A3FF1F9CA3FF1FCA
:1030F00030A3FF1FF1BCFF1F24D00100E8CF010067
:1031000028D0010014D00100A8A3FF1FF40F020073
:1031100048A5FF1FF4A2FF1FBC8DFF1F5CD001005C
:10312000F8CF01006CD0010064D00100FCCF010099
:10313000008FFF1F70D001000CD0010074D001007F
:10314000A4D0010048D0010090D00100A8D0010017
:103150001CD001003C90FF1F1893FF1FC08DFF1F64
:10316000A448A549A54AA64BDFF8CC920490059146
:103170000692079300246FF07E0502F0E3FD2044E1
:1031800090F90330002BC0F2208108AA42F82430C5
:103190000134042CF1D1089D049B4FF0030BB7E6DA
:1031A000984A994BD5681B680A9340F2CB2303FBDE
:1031B0000523964893F8841093F88520944B049344
:1031C00001F03F0102F00F02013101320135099196
:1031D0000B929049904A08950590069107924FF0FE
:1031E000010B95E6874A8D4BD168049340F2CB20C2
:1031F00000FB01224FF0020B92F88C0092F88650EF
:1032000092F8871092F8882000F07F0001F03F01CB
:1032100002F03F0205F03F0501350B90099180480F
:103220000A928049804A08950590069107926FE6B8
:10323000744A7E48D36840F2CB2101FB03226FF031
:103240007E0592F88B1092F88E20794B049301F052
:103250000F01C2F3800250F8210009927549764AA5
:103260000C9005910692079208954FF0030B4FE6DC
:10327000644C724AE3681568DFF80092CDF810904C
:1032800004EB830304355A6A6D4B05930132604B9E
:1032900009926C4A06920793089502F053FDE16883
:1032A0000278013102F07F024B460B910A924FF0F7
:1032B000010B2DE6644B65491B68654A6548096842
:1032C00012680568099101330A936348634B0B92B6
:1032D0006349644A089504930590069107924FF05C
:1032E000020B15E60121604804F034FB5F495E489B
:1032F00004F040FB01215C4804F046FB00215A48E1
:1033000004F044FB08F1FF33032B0DD8DFE803F092
:1033100023392E02152201238DE80C0062211D2382
:103320000922534804F0C4FC0DF1200900235C1C61
:10333000C8EB0406B6FA86F6760915F17F0F19B2C6
:103340002846324628D0FFF781F9042C2AD059F8B4
:10335000045F2346EBE7152201238DE80C000221D0
:103360001D230922424804F0A3FCDDE715220123B6
:103370008DE80C0042211D2309223D4804F098FCF1
:10338000D2E7152201238DE80C0022211D230922FA
:10339000374804F08DFCC7E757F82300FFF7F6F82D
:1033A000042CD4D1BBF1000F0CD000235C1CA3452E
:1033B00018464FF0000118D0FFF7F0FC042C01D0A4
:1033C0002346F3E711B0BDE8F08F08AB47F824902F
:1033D00043F82450DCE60025AB46049B98E5254BDA
:1033E0000D936DE5244B0E9374E5FFF7C1FC234666
:1033F000DCE700BFB0D00100B4D00100B8D00100BC
:10340000BCD0010048A5FF1F98A3FF1F70D001008A
:10341000F8CF010078D001007CD0010004D0010079
:1034200084D0010088D0010090D00100008FFF1FE0
:103430000CD00100FCCF010098D0010074A3FF1F45
:103440009CD0010014D0010060BDFF1FE8A2FF1F47
:10345000FCA2FF1FC48DFF1F2CD00100ECCF010088
:1034600034D0010038D00100B0A3FF1F0CFE0100D2
:10347000FCA0FF1F54D0010058D00100E8CF01008C
:103480002DE9F04FAA4899B002F0B4FA07F00AFB10
:10349000A84B186007F006FBA74A13681060C31A10
:1034A000079304D0A54F7B79002B40F0AD85A44B4A
:1034B0000293A44B039303F0EBF8A34805F096FBAB
:1034C000029B039A1B680F93A0490F9B126809681F
:1034D0009B489B1A994280F018839D4B06931A468D
:1034E00001231370FEF736FA9A4BDFF88CB21B7883
:1034F000002B40F097809BF800309BF801209A4207
:1035000000F09080944A8D4F14688BF80130934AF4
:10351000DBF80430FB60002C4FF0010304921370C1
:10352000C8BF002507DDA9B200228D48013503F090
:103530001BFEAC42F7D18B4B0593194601220023A9
:103540000A708BF808308848FCF7E6FF03B20B904E
:103550003BB3029ABDF92E40126811927D4A03983E
:1035600012781199016004FB03F404EB84041C44F9
:10357000734D002A00F074839BF801301C4484F3DF
:1035800002048BF80140FFF719F82B681293774A71
:10359000129B12687649013B9B1A0B60049B012227
:1035A0001A707448FDF728F8012800F04B840228AF
:1035B00000F03583DFF87881D8F84C31D8F848210D
:1035C0009B1A9B0800F09980DFF8DCA15B4F5848FC
:1035D00002F070F9FB68179007EB8303C5B2A5F101
:1035E0000B02040E01925B6EC0F3074600F06B8184
:1035F000029A039912681492149A0A6001220AF836
:103600000520002D40F0B881524B1B78002B40F074
:103610009F819BF80030032B00F24F81DFE803F01D
:103620000AC6C60A9BF80830534A002B00F00983EB
:10363000137867E7514B1B784BB19DF85D30022B37
:1036400000F0DA834E4B1B78002B40F0CC80002E2C
:1036500040F0FB80002C00F09A82002D40F01C818D
:103660002E46474B1B78002B40F0B080454B012283
:103670001A709AF80110002900F0AD80002E34D0A5
:103680009BF800200123013A9A422ED8FA682B4871
:1036900040F2CB2404FB027494F88E40640724D4D7
:1036A000002940F02A829AF80210F1B9E91E072990
:1036B00040F27D850A2D18DD33490978A9B93349CF
:1036C000097891B900EB82020498526E0370019858
:1036D0002F49304C304D237000EB02120A602F4A04
:1036E0002F482B701370FFF72FFBD8F84C31D8F808
:1036F00048219B1A9B087FF46AAF069B1A78002A20
:1037000040F01982274C2368002B05DD07995B1ACE
:10371000002B236040F3A4859BF80030032B00F2BC
:103720000E84DFE813F01204BC03BC03120400BFD4
:10373000F4A3FF1FF4BCFF1F04A3FF1F48A5FF1F36
:1037400004CDFF1F80A3FF1FFCA0FF1F348DFF1FB0
:10375000CCBCFF1FCDBCFF1FF0D20100A5BCFF1FDA
:1037600078A2FF1F0EBDFF1F58A3FF1F448DFF1F30
:10377000D0BCFF1F98A2FF1F9CA3FF1F328DFF1F0D
:103780005CBDFF1FF0BCFF1F2CA3FF1F10A3FF1F7A
:1037900070A3FF1FA4BCFF1FF8A2FF1FDCA2FF1F26
:1037A0001CD10100F8BCFF1FB8A2FF1FA44C237856
:1037B000002B00F02681A34A1378002B40F0F481FF
:1037C000002313702370049B012119709AF80110D3
:1037D00000297FF453AF9C4B9B78002B7FF44EAFB6
:1037E0009A4B19704AE786BB002C00F0D081019BF0
:1037F0000F2B40F2A882012D00F0EC87022DE5D0BE
:10380000032D01F06080042D01F0F380052D01F0FF
:103810006A81062D01F00583EB1F012BD6D9092DF6
:1038200001F0A2830A2D7FF418AF894B01211A6899
:103830000020FCF7EFFF282007F056F9844B002109
:1038400008461A68FDF71EF8C0E7002C40F0F58224
:103850000126EDB97F4B1A780AB100221A700022B6
:1038600011467D4803F080FC002201217A4803F0D4
:103870007BFC00220221784803F076FC00220B2119
:10388000754803F071FC00220C21734803F06CFCB6
:1038900000230AF8053099E7019B012B40F2908440
:1038A0006B1EDAB2012A40F21C826C4B9BF802209C
:1038B00019682846FEF76AFD0026002C86D10023F1
:1038C0000AF8053082E79BF80030032BF5D801A2F7
:1038D00052F823F035360000E5380000E5380000E6
:1038E00035360000002DD3D0FB6840F2CB2202FB1E
:1038F000037393F88E20520700F17582514B1B78A9
:103900001BB957490B78002BC2D0564B1B68002BB4
:10391000BEDD7B79544A002B00F06082504C237846
:10392000002BB5D0DFF8589199F80030002BAFD0BC
:1039300002F01CFAFB6807EB830300225B6A89F83C
:103940000020002BA4D1237000230AF805303DE7A6
:10395000FEF7ECFFFFF77AF89BF80030032B3FF6F9
:1039600035AF01A252F823F035360000AD37000024
:10397000AD370000353600009BF80020032A9CD8A4
:1039800001A151F822F000BF35360000993900003E
:103990009939000035360000294C0199227801EB55
:1039A0000313002A6ED027490A78002A00F001810B
:1039B0000B2D00F052841A2D00F013832B4B2C4A50
:1039C0001B6852F825002B49264A03EB430300EB02
:1039D000830900230B70156002F0B4F90378224AC2
:1039E00069F3060303707B79002B00F0E386049AE9
:1039F00001231370002D7FF4E9AE2378002B7FF4B0
:103A0000DAAE1D4B1A78AAB9154B1A7892B90F4B3A
:103A10001A78002A40F0A2839AF80130002B00F0B7
:103A20005885012315483B74FFF78EF9049A01234A
:103A30001370CBE61D70049B01221A70C6E600BF0E
:103A4000A4BCFF1FDCA2FF1FB8A2FF1F04BDFF1F05
:103A5000B48DFF1FF0BCFF1F78A2FF1FB88DFF1FA2
:103A60002CA3FF1FC0BCFF1F48A5FF1F74A3FF1F8F
:103A7000DCD10100F8A2FF1F10A3FF1F28D1010015
:103A800000A3FF1FB8490A78002A40F0A980B7496F
:103A90000A78002A40F0BC83F86840F2CB2202FB8F
:103AA000007292F88EE01EF0040F40F0F9839AF84D
:103AB00001E0BEF1000F07D0AD4A927822B1AD4AC5
:103AC0004FF0010C82F800C06A1E012A92D9EA1E4A
:103AD000072A00F2CA849AF80230BEF1000F00F003
:103AE0008185002B40F0818597F805E0A24BBEF15F
:103AF000000F01F0DC80FA6079E79AF80220002AD2
:103B00003FF4F3AD9B4A1370EFE503681093109BED
:103B10009A1A092A036800F2998098480C93984BE6
:103B20009849994A069004460C98186000230B6047
:103B300013602370D6E49BF80030002B00F0F78070
:103B4000032B00F0F480914805F050F8049A01230B
:103B50001370029B8E4C1B6816938E4A169B21682D
:103B600012688D4D5B1A9A42C0F04783059B8B4CBF
:103B70001B78002B40F08D81FCF702FE0028FBD162
:103B8000FDF774FB0028FBD119B0BDE8F08F002DC4
:103B900000F001829BF802102846FEF751FC00233A
:103BA00000260AF8053011E67D497E4B0D601D6048
:103BB00006E66A1E012A7FF61DAFEA1E072A40F2BA
:103BC000C5820A2D7FF716AF7548774A0360012337
:103BD0001370049A0B701370002D7FF4F7AD0CE78F
:103BE0006B1E012B7FF606AFEA1E072A00F28682C3
:103BF0009AF80130FA60DFF88091002B40F0598488
:103C00005B4B9B78002B3FF4F2AE104602F0E4FFD2
:103C1000D9F80C1065480131FFF796F8E7E6534DE7
:103C20002B78002B40F0BE8161499BF800308BF867
:103C3000013001220A70FEF7C1FC049A01231370BF
:103C4000B8E45C4B0493554B05937CE44B4A0D93CD
:103C50004B4B069211460D9A1A6000230B7041E4FB
:103C6000554E3278002A40F0E0813F4F3A78002AE2
:103C700040F09A833D4D2A78002A00F051849BF849
:103C80000020013A012A3FF68CAC4C4D2A68002AEC
:103C900000F0E486052A00F0E186012A00F03A8768
:103CA000022A00F0D887032A01F0F580062A01F0E5
:103CB000E680072A01F0CF80082A40F0D18302F085
:103CC00041F8457A02F03EF805F03F052C44232CDC
:103CD000437AA8BF232424EAE47464F305034372FF
:103CE000BEE3374A1278002A3FF4DFAD012B3FF6DE
:103CF000E3AD344E34483368344A012D14BF0121FA
:103D00004FF0FF310B4483FB00015818D917C1EB6A
:103D1000E001C1EB0111591A21EAE17182FB013284
:103D20002B483160CB17C3EB62030360C4E5029BF1
:103D30001A68134B1592159A1B689A427FF603AFC7
:103D4000FDF7E2FBFFE6234A0199535C83F0010390
:103D50005354681C002B00F004821F4B01211A6889
:103D6000FCF758FD32E500BF10A3FF1F2CA3FF1F77
:103D7000B8A2FF1F04BDFF1F48A5FF1FCCBCFF1F3B
:103D8000E0BCFF1F4CA3FF1F8CA3FF1FFCA0FF1F65
:103D9000D0BCFF1F448DFF1F04CDFF1F0EBDFF1FB2
:103DA00070A3FF1FC0BCFF1FF8A2FF1FCCD00100F3
:103DB000CDBCFF1FA5BCFF1FA4BCFF1FF0A2FF1FAF
:103DC000F0BCFF1F74A2FF1F89888888676666663B
:103DD00024BDFF1F6CBDFF1FB48DFF1FD168284697
:103DE00002F010FA9AE593F8851001F00F01013105
:103DF0002846FEF725FB81E5002D7FF423ACA64B7A
:103E00001A7882F001021A70002A7FF4ECACA34AFF
:103E10001268012A7FF71BAC4FF00109089409933F
:103E20004C469146A1B200229D48013403F09CF912
:103E3000A145F7D1089C099B05E42646002D3FF4D7
:103E400010ACC3E4029B9BF801201B6813939BF802
:103E500000300398139901609A42924800F014824E
:103E600091490978002940F08381002B00F0A2805D
:103E7000032B40F024828D498D4A0B68013382FB6D
:103E80000320DA17C2EB600202EB82029A1A0A6080
:103E9000D3E6834803F082F8002323706CE6854A5A
:103EA000D36840F2CB2101FB032393F88E305907EE
:103EB00000F17C84049B1B78002B3FF457AE7A4BB7
:103EC0001B78002B7FF445AE2368002B7FF441AEB6
:103ED000794E7A4F3378002B40F0CB853B78784D84
:103EE000002B40F0E1852B7893B9764B70491A6826
:103EF000754881FB0231D317C3EB6101036801EB05
:103F00008101511A002B01F01D81012B01F04B8121
:103F10002B78A3B16D4B66491A686D4881FB02315D
:103F2000D317C3EB6101036801EB8101511A002B28
:103F300000F01087012B02D10420FEF787FF049BBD
:103F40001B78002B3FF412AE03E6FDF747FE049BFF
:103F50001B78002B3FF40AAE534B1B78002B7FF4E9
:103F6000F8AD524B52491A685A4881FB0231D317B7
:103F7000C3EB6101006801EB8101511A002800F0D8
:103F80007B84012800F0778402287FF4E2AD0B20C7
:103F9000FEF75CFFD3E7504B1A782E46002A7FF4D9
:103FA0005CAC5CE4434FF86802F09EFD4B4B012291
:103FB0001A7042E63D4C4A4822683D4D013282FB70
:103FC00000011144D317C3EBE103C3EB0313D31A6E
:103FD00085FB03213F482360DA17C2EB61030360CE
:103FE0002BE601233F4940480A681344042BA8BF2D
:103FF00004236FF0040E7345B8BF73469A42036002
:104000003FF4F5AC0B60F2E4384B079C02931B685D
:10401000374A0E930E9B039220461360FDF726FC51
:104020002046FDF747FCFFF746BA9BF80020013A0F
:10403000012A3FF6B6AA214F3A78002A40F0BA8109
:104040001F4D2A78002A7FF420AE2A4A1278002ACF
:1040500000F07182284D2E680A2E40F2A385A6F149
:104060000B02022A05D8002BC1F2EB80012E00F0D2
:10407000CE87022E00F04E85032E01F00480042E20
:1040800000F0F087062E00F0E787072E00F0D087BB
:10409000082E40F0E58112E65CBDFF1FF0D2010062
:1040A00078A2FF1F9CA3FF1FCDBCFF1F74A2FF1FA0
:1040B0006766666648A5FF1FA4BCFF1F10A3FF1F0D
:1040C0002CA3FF1F08A3FF1F0CA3FF1FF0A2FF1FBD
:1040D00064BDFF1F24BDFF1FF0BCFF1FE5BCFF1F19
:1040E0008988888874A3FF1FFCBCFF1F04CDFF1FB5
:1040F00080A3FF1FDCA2FF1F84A3FF1F0A2D7FF7F1
:1041000079ACD7F80C908F4A40F2CB2303FB0973AC
:1041100009F1080193F8840007EB8101A5F10B0E6A
:104120006EF3050083F884004868A5F10A03834212
:104130003FF75DAC019B089218464B6002F080FC93
:10414000089A02EB8909C9F8640050E4FA60049AFD
:1041500001231370002D7FF439AB4EE41D70FFF77F
:1041600035BB794B31461A68FCF78CFBFFF72EBB49
:10417000027002F055FC754B1C68002CC8BF00256E
:1041800007DDA9B200227248013502F0EDFFAC4212
:10419000F7D1059901220A706E4A00231370FEF7C9
:1041A0000DFA9BF80030002B7FF462AE02E76A49FB
:1041B000049A6A4813700B70FEF7C6FDFFF795BAB4
:1041C000674B1B78002B3FF470AB664966480A6862
:1041D0000B2D14BF01234FF0FF331344042BA8BF52
:1041E00004236FF00406B342B8BF33469342036022
:1041F0003FF462AB0B60FFF75FBB5C4804F002FE6C
:104200002B681793179B049A236000231370ADE467
:10421000FB68544A56485749126851F8251007EB75
:10422000830302EB42025B6A0360534B01EB82099A
:104230001D6001F087FD037869F3060303707B7945
:10424000002B00F0BF824D4A01231370049A1370B3
:10425000002D7FF4BBAAFFF7D0BB4FF0FF33C1E6C0
:1042600004999BF80030226001220A70032B3FF66C
:1042700070AC01A252F823F04B3F00009F3E0000BB
:104280009F3E00004B3F0000324A32491278002A1C
:104290003FF4EBAD00220A70002B7FF4E9AD89E614
:1042A00092F88520364B02F00F0201321968284639
:1042B000FEF76CF8002D7FF489AAFFF79EBB013B47
:1042C000012B3FF6BAAC2F4E234F3378DBB12E4B88
:1042D0001B78C3B13C78002C40F06E812B4D2C48EC
:1042E0002A68013282FB00011144D317C3EBE103BA
:1042F000C3EB0313D31A092B2B6040F3BB84254B6C
:1043000002221A6099E43B78002B40F05581224D3F
:104310002A78002A00F09A822048214A0168013157
:1043200082FB0124CA17C2EBA40202EB8202A1EBBA
:104330004202042A026040F3D2831A4B01221A601F
:104340007BE400BF48A5FF1FB48DFF1FF0D2010022
:1043500078A2FF1FCDBCFF1F10A3FF1F40D101009B
:10436000F0BCFF1F74A3FF1FFCBCFF1FFCA0FF1FBE
:1043700070A3FF1FDCD10100C0BCFF1F00A3FF1F03
:10438000B88DFF1FA4BCFF1FDCA2FF1F84A3FF1F6B
:104390008988888890A3FF1F2CA3FF1FF0A2FF1F0E
:1043A0006766666664BDFF1F9BF80020013A012A1C
:1043B0003FF6F7A8BC4E32680A2A40F22482022A4D
:1043C00000F00884032A26D1B84DB94F2868002B85
:1043D000ACBF01214FF0FF31084400F10F031E2B49
:1043E000286004D8F86802F031FB32682868FB685E
:1043F00040F2CB2101FB037393F8843003F03F03B9
:104400000133C3F10101814200F3A184013B8342E6
:10441000A8BF03462B60042A00F0B283062A40F0AE
:104420008B83A34FFA6840F2CB2101FB02718031EC
:104430008B79097903F03F031B1901F03F0100F16B
:1044400007858B42A8BF0B4603F03F0340F2CB2108
:1044500001FB027292F8861063F3050182F8861060
:10446000049A01231370FFF79CB80A2D7FF7C2AAA4
:10447000BEF1000F40F0A5829AF80220002A7FF4D6
:10448000B9AA03EB830203EB420340F2CB2202FB07
:1044900000333B4493F89120C2F3001181F00101F5
:1044A00061F3041283F89120002D7FF48FA9FFF7A8
:1044B000A4BA804B9B781046002B00F0BC8002F021
:1044C00039FBD9F80C107C480131FEF73DFCFFF7B1
:1044D0008EBA784B9B785BB97B79754A002B00F0DC
:1044E0006C82557102F058FA02F09AFAFFF76EB931
:1044F000FB6840F2CB2202FB037303F1840293F8C2
:104500008D30517A83F08003DB0963F3C711517258
:10451000002B00F08B806948FEF716FCFFF786BA87
:104520009BF80020032A3FF63CA8DFE812F03C018C
:10453000F100F1008E00624D2E68204611F0C4FF9C
:10454000314611F00DFF5F49044612F0AFF9002823
:1045500040F057815C49204612F0C6F900B15A4C30
:104560005A4B314620461C6012F096F900287FF421
:1045700077AF574B2C601D68284611F0A5FF2146E8
:1045800011F0F6FF01465348534C12F0A5F812F013
:10459000DBF9524B524A1860002D1B68B8BF033537
:1045A000AD1003FB05F51560106811F089FF4D494A
:1045B00011F0DEFF206053E73B4C4B48226801328C
:1045C00082FB00011144D317C3EBE103C3EB0313D8
:1045D000D31A092B236040F33181444B02221A6025
:1045E000FFF72BBB002B3FF486AA40F2CB2303FB43
:1045F0000273A91E93F88E300892DB074CBF3C482B
:104600003C48FEF7A1FB089A40F2CB2303FB027261
:1046100002F1840192F88E301A46C3F3000383F04E
:10462000010363F300028A72FFF7E1B93248FEF733
:104630008BFBFFF7FBB902F0BDFAD9F80C102F483D
:104640000131FEF781FBFFF7D2B92D4D296859B929
:10465000002BC0F2ED8507D02A4B9BF8022018688A
:104660007F21FCF747F92968049A012313700A296E
:1046700040F20681012900F0A383062940F0268339
:10468000214A13681C44002C40F3A984102C00F329
:104690006484A3423FF4E4AE012C146000F0A484CF
:1046A0001A4B01221A70DBE6D4A2FF1F98A3FF1F4A
:1046B00048A5FF1FB8A2FF1FD8D0010030D10100CC
:1046C000BC8DFF1F000020420000964390A2FF1FF8
:1046D000D4D10100C0E1644CDCBCFF1FA8BCFF1FAB
:1046E00008BDFF1F6F12833A8988888844BDFF1F69
:1046F000F4D0010000D1010038D10100C0D0010088
:1047000074A2FF1FB0D10100C48DFF1F54A3FF1F6F
:10471000C34D2B68002B00F09482052B00F0918292
:10472000012B00F0F483022B00F01485032B00F022
:10473000ED84042B3FF4FFAE062B00F0BF83072B64
:1047400040F0B884B74FFD6840F2CB2303FB0573FC
:1047500093F8843003F03F0301332344002B40F3EC
:104760001E85402BA8BF4023581E00F03F0005F1D6
:10477000080140F2CB2202FB057207EB810792F899
:104780008440796860F305048B4282F88440A54C2C
:104790003FF766AE013B18467B6002F051F904EB2F
:1047A000850460665CE6A04D296860E7FDF716FAAF
:1047B000FFF780BB9D4BD2681968284601F0D2FCF8
:1047C000FFF715B9994B974A1968D268284601F046
:1047D000C9FC38E5DFF880920C2403E00134142C86
:1047E0003EF4F4AF19F8013F002BF7D0904B1A6854
:1047F0004FF0000389F8003000212046FCF742F812
:10480000ECE78C4CACE640F22141D140C8070BD517
:1048100089490A68A0180228A8BF022020EAE0708F
:1048200000EB800208603260012A7FF4C8AD7D4F42
:10483000FB68234483F30303FB6011E6042B7E4BE8
:104840003FF77CAD00221A60FFF7F7B974487B4B45
:104850000168013183FB0134CB17C3EBA40303EBE5
:104860008303A1EB4303042B0360754B3FF766AD55
:104870001A60FFF7E2B90A20FEF7E8FAFFF75FBB1C
:1048800040F22143CB40DF070BD56E4A1368234427
:10489000022BA8BF022323EAE37303EB8301136017
:1048A000296002297FF4E6AE9BF802201319002B41
:1048B00040F34584102BA8BF102393423FF4D0ADA2
:1048C0008BF80230CCE55A4B012108461A68FBF7F9
:1048D000A1FF282006F008F9554B01211A6806208F
:1048E000FBF798FF142006F0FFF8514B31461A6889
:1048F0000620FBF7C7FF282006F0F6F84C4B0121F5
:104900001A680420FBF786FF142006F0EDF8484BE8
:1049100031461A680420FBF7B5FF282006F0E4F8BA
:10492000434B01211A680420FBF774FF142006F0A2
:10493000DBF83F4B31461A680420FBF7A3FF282021
:1049400006F0D2F83A4B01211A680420FBF762FF07
:10495000142006F0C9F8364B31461A680420FBF7DC
:1049600091FF282006F0C0F8314B01211A6804207D
:10497000FBF750FF142006F0B7F82D4B31461A68AC
:104980000420FBF77FFF282006F0AEF8284B01211A
:104990001A680720FBF73EFF142006F0A5F8244B09
:1049A0001A6831460720FBF76DFF214B31461A6824
:1049B0000120FBF767FFFEF709BF02F011F8FEF7D1
:1049C00005BF9AF80230002B40F00C821E4B1F49A5
:1049D0000198186001230B701D4A04991D4823702B
:1049E0000B701370FEF7B0F9002D7EF4EFAEFFF7F9
:1049F00004B80F4B012108461A68FBF70BFF28206B
:104A000006F072F80A4B01211A680320FBF702FF37
:104A1000282006F069F8064B31461A680320C2E7E1
:104A200008A3FF1F48A5FF1F74A2FF1FB88DFF1F1B
:104A3000B48DFF1F0000204244BDFF1F67666666FD
:104A40000CA3FF1F24BDFF1F70A3FF1FF8A2FF1FB1
:104A5000DCA2FF1F1CD101006BBDFF1FC548016810
:104A6000214481F3010101EB810201602A60FFF71B
:104A700014B9C14DC14BC2491A68C24881FB023109
:104A8000D317C3EB6101036801EB8101511A002BBD
:104A900000F06581012B00F0B582022B00F0AE82A0
:104AA0003B78002B3FF434AAB74BB5491A68B74896
:104AB00081FB0231D317C3EB6101036801EB810174
:104AC000511A002B00F05081012B00F09282022B32
:104AD0007FF41EAA0820FEF7B9F9FFF719BAA54A14
:104AE0001360FFF7AAB8AA4B012108461A68FBF722
:104AF00091FE282005F0F8FFA54B01211A6802203D
:104B0000FBF788FE282005F0EFFFA14B31461A681D
:104B1000022048E79F4BA0491A681444042CA8BF00
:104B200004246FF004008442B8BF0446A2420C6023
:104B30003FF496AC1C6093E4072A40F0A280974FA4
:104B4000FA6840F2CB2101FB02718031CB790979FF
:104B500003F03F031B1901F03F0100F1AD8101316A
:104B60008B42A8BF0B4603F03F0340F2CB2101FB71
:104B7000027292F8871063F3050182F887106FE4E0
:104B8000864FFB6840F2CB2202FB037393F885202B
:104B900002F00F010C4484F3040464F3030283F86D
:104BA00085205DE440F22142F240D2070BD57549E1
:104BB0000A682244022AA8BF022222EAE27202EB19
:104BC00082060A602E60A6F10B02022A3FF64EAA68
:104BD000FFF749BA714FD7F80C8040F2CB2202FBA5
:104BE000087292F8841001F03F010131214400293C
:104BF00040F3AF814029A8BF402101F1FF3E0EF0F4
:104C00003F0E08F1080240F2CB2000FB087007EBD2
:104C1000820790F884507A686EF30505914280F817
:104C200084505E4D3FF71CAC013908460193796012
:104C300001F006FF05EB880532686866019BFFF707
:104C4000C1BB57490A68224482F3010202EB820386
:104C50000A602B6064E5002B40F3178101F086F8B1
:104C60002A684E4F4F49FB6807EB83035B6A0B6072
:104C7000FFF719B8042B434B3FF760AB1C60FEF7FE
:104C8000DCBF082A40F0BB82444FFB6840F2CB22D5
:104C900002FB037393F8882002F03F010C4484F375
:104CA000040464F3050283F88820FFF7D9BB03EB03
:104CB0008500DA6003460122C0F818E03A48C3F8DC
:104CC00058E00A70FEF740F8FEF791BE072936D08B
:104CD000082940F06C82354F354B38681B782044EA
:104CE00080F307003860002B00F07381DFF8C88084
:104CF000DFF8C890D8F80020D9F80030561C1344CB
:104D0000B34202DAFFF7ACBB38683146FBF72AFE44
:104D1000D8F80020D9F8003001361344B342F3DA52
:104D200029680B2940F05F82224A13682344042B30
:104D3000A8BF042323EAE3731360FFF791BB1E4A65
:104D40001368234483F304031360FFF789BB0B4606
:104D5000FFF760BB0920FEF779F8FFF7F0B80320F2
:104D6000FEF774F83B789CE60620FEF76FF8FFF735
:104D7000CFB800BF64BDFF1F2CA3FF1F84A3FF1F7C
:104D80006766666690A3FF1FD4A2FF1F44BDFF1F86
:104D9000B48DFF1F74A3FF1FFCBCFF1F48A5FF1F9E
:104DA0000CA3FF1F70A3FF1FE8D0010060BDFF1F11
:104DB00054A3FF1FD8BCFF1FE8A2FF1FC48DFF1F15
:104DC000C94BCA491A681444042CA8BF04246FF0C4
:104DD00004008442B8BF044694420C607FF4AAAE3B
:104DE000FFF73EBB40F2CB2303FB0070DFF80893D4
:104DF00090F8840000F03F0001F022FE019A824208
:104E000005DCD9F80C3009EB8309C9F86420A5F159
:104E10000A01B748FDF798FF002D7EF4D7ACFEF7E6
:104E2000ECBDDFF8E492142403E001341C2C3EF4C2
:104E3000CDAC19F8013F002BF7D0AE4B1A684FF0FC
:104E4000000389F8003000212046FBF71BFDECE74A
:104E50000023FFF7FBBA00F075FF037A03F07F062B
:104E600000F070FF3319642B017A2A68A8BF64230D
:104E700023EAE37363F306010172FEF71DBF2046C8
:104E800001F0DAF82A68FEF714BF3FF4EAAE00F04A
:104E900097FF2A68E5E600F055FF037803F07F06E8
:104EA00000F050FF3319027883F3070363F306021F
:104EB00002702A68FEF7FABE002356E68E4FFB68A2
:104EC00040F2CB2202FB037797F88E30C3F38003C6
:104ED0001C1997F88E3000F1E780012C40F3BE8159
:104EE00043F0040387F88E30844B1C68002CC8BF45
:104EF000002507DDA9B200228148013502F034F90E
:104F0000AC42F7D1059A01231370FFF7A9BA7A4F83
:104F1000FA68224482F3030240F2CB2101FB0271C2
:104F2000FA6091F88E2056077FF59AAA734A1668A0
:104F3000002E09DD0027B9B200227148013702F0C6
:104F400013F9BE42F7D12B68059901220A70FFF7C9
:104F5000F3BB4FF0000E012153E6102B3FF480AA63
:104F600010231360FFF79CBB624B01211A680620D7
:104F7000FBF750FC5F4B01211A680720FBF74AFC46
:104F80005C4B01211A680520FBF744FC594B0121B9
:104F90001A680420FBF73EFC282005F0A5FD554BC0
:104FA00000211A680620FBF76DFC524B00211A689D
:104FB0000720FBF767FC4F4B00211A680520FBF721
:104FC00061FC4C4B00211A680420FBF75BFCFEF7E8
:104FD000FDBB9BF80210FBF7C5FC2968A1E6012B7D
:104FE0003FF43EAA01231360464B00221A70FFF7DC
:104FF00037BA0720FDF72AFFFEF78ABF0520FDF725
:1050000025FF4DE50420FDF721FF3B7849E500F041
:1050100099FE037803F07F0600F094FE33190278BE
:1050200083F3070363F3060202702E68FFF721B8CB
:1050300000F088FE037A03F07F0600F083FE331948
:10504000642B027A2E68A8BF642323EAE37363F318
:1050500006020272FFF71CB8204600F0EDFF2E6832
:10506000FFF713B800F06EFE837803F00F0600F030
:1050700069FE3319827883F3040363F303028270B9
:105080002E68FEF7FFBF00F05DFE437803F07F0659
:1050900000F058FE3319427883F3070363F30602E6
:1050A00042702E68FEF7EBBF6FF3820387F88E30F5
:1050B000FFF7D6B9082B5BD10F4FFB6840F2CB222C
:1050C00002FB037303F1800293F88B1001F00F03CE
:1050D0001C44062CA8BF062424EAE4740B4664F39F
:1050E0000303D372FFF7BCB974A3FF1FFCBCFF1FFF
:1050F0000CD10100B48DFF1F48A5FF1FF0D20100A5
:1051000078A2FF1F54A3FF1F73BDFF1F6C4F6D4894
:10511000FB6840F2CB2202FB037797F88D301946EB
:1051200003F07F032344632BA8BF632323EAE373C5
:1051300063F30601037087F88D10FFF791B901231F
:10514000FFF7BBBB0120FDF781FE3378002B3FF456
:10515000A7AC8FE45A4F2146F86801F023FC5A4966
:105160002B680A68224402F306020A60FFF7E4BAD9
:10517000092B7FF475A9524FFB6840F2CB2202FB4A
:10518000037797F88E301946C3F3C0031C4484F3A9
:10519000010464F3C30187F88E10FFF761B90020A2
:1051A0000123FFF7E4BA0220FDF750FECDE70929FD
:1051B0007FF4B7AD454E9BF80220336800212344AD
:1051C00083F3070308463360FBF794FB31689BF8D1
:1051D00002202020FBF78EFB3D4B9BF80210186845
:1051E000FBF7C0FB9CE50C2934D13A4A13782344E1
:1051F00083F3010303F001031370FFF731B9092AA8
:1052000034D12F4FFB6840F2CB2202FB037797F893
:105210008C30194603F07F031C44642CA8BF64241F
:1052200024EAE47464F3060187F88C10FFF718B9D8
:10523000294B9BF802201868FBF75CFB2968FFF7F5
:1052400013BA00F07FFD3044FF2300F8083C2E68BD
:10525000FEF70CBF0D2923D1204AC7E764F3820370
:1052600087F88E30002C3FF4FBA83DE60B2A3FF474
:1052700023AF0C2A7FF4F4A8114FFB6840F2CB2235
:1052800002FB037797F88E301946C3F380031C4462
:1052900084F3010464F3820187F88E10FFF7E0B80D
:1052A0000E297FF4DDA80E4A13682344002B05DD88
:1052B000102BA8BF10231360FFF7D2B80123FAE721
:1052C00048A5FF1FECA2FF1FF4A2FF1FFCA2FF1FB7
:1052D00060BDFF1F11A3FF1FB0D10100328DFF1F62
:1052E000B48DFF1F70B5184D82B0284603F07EFCC8
:1052F000B5F90C1001291FDD0022012694B26300CC
:10530000688901969BB2C91A09B2C31A1BB20091EF
:105310000D48114602F04EFD0B4803F073FD0120CD
:1053200005F0E2FBB5F90C10023401EBD17322B2A7
:1053300043F34F039342E1DC4FF4FA7002B0BDE84F
:10534000704005F0D1BB00BFFCA0FF1F2DE9F04F5E
:10535000A34CA44A2068A44DA44F83B040F2EE268B
:1053600013783BB12B78DB0704D5236839685B1AC7
:105370000E2B08D8236811781B1A002900F0298108
:10538000B3F5FA6FECD901F061FC994D994F2860A3
:10539000082007F02DF82B68974A98490360386079
:1053A000974B984E984D994F45601760984D994A84
:1053B000994835601A60086005F074FB2368974AC5
:1053C00097490193974B019C106000220C601A6072
:1053D00005F068FB944A954B14681860204611F05C
:1053E00073F8934B934D1968DFF8AC92DFF8AC82F9
:1053F00011F0BEF80146904811F06EF911F0A4FAD0
:105400008E4B8F4A1860002C1B68B8BF0334A41061
:1054100003FB04F41460106811F052F8894911F08C
:10542000A7F828600D2004F043FF06F0CFFF0D2001
:1054300004F03EFF13F0F6FA0D2004F005FF4FF0E4
:10544000814A4FF0844B0026382006F0D1FF4FF4FC
:10545000806747600027002507624FF00107794BFE
:10546000C0F810A001222946077580F82450044690
:1054700001F05CFF744B49F8044B43F826500136A9
:105480004FF40053052EC4F810B048F8045B636075
:10549000DAD1FBF7F5F80121172005F0FDFA6B4C86
:1054A0006B4E0C231846237005F0D2FA207810F0CA
:1054B0000BFC02460B4600204FF0804107F086FDB2
:1054C00010F028FF634B30804022294628201A60C4
:1054D00005F0C0F9FDF770FA00287ED15E4B4A4F07
:1054E0001B785E4E5E4D5F4C5F49604A78604FF0BE
:1054F000010E87F802E03B705D4B5E4F0968126851
:1055000036682D6824681E605D609C60D9601A61F1
:10551000F860FDF789F9FDF709FAFDF797FA564D9E
:10552000564CFAF7C7FF2846A56003F05FFBFFF76C
:10553000D9FEC82005F0D8FA284603F057FB04F13D
:105540000800012102F020FA002104F1080002F015
:105550001DFAFDF7C3F84A4804F0EAFB494801F098
:10556000C9FC484801F01AFD474B4648197801F03C
:105570009FFE464B1D68002DC8BF00240DDDA1B263
:10558000434A404801F0F0FD3E4801F007FD013478
:10559000052005F0A9FAAC42F1D10520FDF774F819
:1055A0004FF4FA7005F0A0FA0022ABB2114635486C
:1055B00001F0E0FD334801F0F1FC642005F094FABD
:1055C0002D4803F01FFC334B01221A7003B0BDE8D5
:1055D000F08FB3427FF6C4AED5E6FDF769FA9EE7D9
:1055E00004CDFF1FF8CDFF1F74CEFF1F80D1FF1F1A
:1055F00028A3FF1FC8BCFF1F58CEFF1F5CCEFF1F94
:1056000028CEFF1F60CEFF1F9CA3FF1F9513000035
:10561000B11600003114000015140000F4BCFF1F87
:1056200080A3FF1F4CA3FF1FD4D1010004A3FF1FC1
:10563000BC8DFF1FDCBCFF1FC0E1644CA8BCFF1F7A
:1056400008BDFF1F6F12833A10BDFF1F78A3FF1F15
:105650000CBDFF1F50A3FF1FD8D10100F4D20100E1
:1056600080D20100FCD20100B8D10100ACD1010010
:105670009C8EFF1F48A5FF1FFCA0FF1FA8A3FF1FB4
:1056800004A4FF1F78A2FF1FBCD10100F0D20100CB
:1056900080808000A5BCFF1F34A3FF1F2CBDFF1F0F
:1056A000F0B400259DF810702C4602E00134202C47
:1056B00010D0465D1435002EF8D104EB8404A4000C
:1056C000061901250555284671603361B2603773AC
:1056D000F0BC70470020F0BC704700BFF8B50E4624
:1056E00000F1100400F52475002702E01434AC42E8
:1056F00015D014F8103C002BF8D02368B342F5D82D
:1057000054F8082C54F80C0C0021FBF7BBF814F8E3
:10571000043C2BB904F8107C1434AC42E9D1F8BD38
:105720000021172005F0A4F9F4E700BF4FF0FF3186
:10573000FFF7D4BFF0B400259DF814702C4602E0AA
:105740000134202C12D0465D1835002EF8D104EB20
:105750004404E4000619012505557160049971613E
:105760002846B360F2603774F0BC70470020F0BC8C
:10577000704700BF2DE9F0410E4600F1140400F51A
:105780004575002702E01834AC421BD014F8143CD5
:10579000002BF8D02368B342F5D854F80C2C54F8F9
:1057A000081C54F8100CFBF735F814F8043C23B12E
:1057B00054F8100C1838352806D904F8147C18341D
:1057C000AC42E3D1BDE8F08110F07EFE084910F054
:1057D000CFFE07F0D7FB01218046172005F048F9DE
:1057E000404611F08BF80146282005F033F8E4E735
:1057F00090759242002308491A46CA541433B3F5EF
:10580000207FFAD1002305491A46CA541833B3F54C
:10581000407FFAD1704700BF7CC0FF1F7CBDFF1FD7
:10582000F0B583B006460A9C0B98B160F260346014
:10583000002500941946706000FB04F40190099B58
:10584000089A06F1100004F0A9F9C6F83051C6F81C
:105850003451C6F838513CB3B4F1805F28D22701E7
:10586000384606F0C5FDC219C6F83821C6F8300121
:10587000C6F834012B4608B103718360013C00F186
:105880001000F8D100233046C6F83421C6F83C3168
:10589000C6F84031C6F84431C6F84831C6F84C3134
:1058A000C6F8503103B0F0BDC6F838412246E9E7EA
:1058B00008F04AFC10B4D0F84C21D0F84831D31A83
:1058C0009B1083B034D052F8043DC0F84C21DA78F4
:1058D0009978FAB91C7958788DF8061000218DF85E
:1058E000072099608DF805408DF804009DF804406C
:1058F0009DF805109DF806209DF80730002064F300
:10590000070061F30F2062F3174063F31F6003B0D9
:1059100010BC70470029DDD118795A788DF806102F
:1059200001238DF805008DF804208DF80730DDE7A0
:105930008DF804308DF805308DF806308DF807307D
:10594000D4E700BF2DE9F8434468D0F80080C8EBE5
:105950000405AD100646894605D06B009D4229D945
:105960006FF0030500E00425284606F041FD746849
:10597000D6F800800746C8EB0404D9F80030E742A7
:1059800018BF3B51A3080DD104343C44B8F1000FBB
:1059900002D0404606F02EFD3D44B560376074608D
:1059A000BDE8F883224641463846043412F062FFCF
:1059B0003C44EEE7B3F1804FD2D213B91D461F46E7
:1059C000D9E7ED00D0E700BF38B543680C46043195
:1059D0008B42054602D05A1A900803D1043B6B60F3
:1059E000204638BD204612F045FF6B68043B6B60D3
:1059F000204638BD2DE9F04300F1100583B0044680
:105A0000284604F0EFF85A4B1B680193019E04F5F9
:105A1000A4780127284604F0BDF9002849D028467B
:105A200004F0C4F96268D4F830C1C0F30743C0F38E
:105A3000076113FB0212D2B24FEA0219C0F3072E1C
:105A40000CEB09035FFA8EF1009300296DD0012958
:105A5000E0D19968B9B958700CF80920E068DA68A3
:105A60009970301A824238BF1971D4F84021D4F8A5
:105A700044118A426ED01AB11360D4F84021009BC1
:105A80000432C4F84021D4F84C21D4F850119E605F
:105A900000208A42DF70987057D012B11360D4F89A
:105AA0004C210432C4F84C21284604F073F9002834
:105AB000B5D1D4F83C51D4F840114B1B9B0831D0E0
:105AC000E768A3688D42A6EB0707A6EB030629D07B
:105AD00004F59E784FF0010905E09B689F4219D8B4
