:1000000000800020BD01000071A2000029A20000B4
:1000100029A2000029A2000029A2000029A20000B4
:1000200029A2000029A2000029A2000071A200005C
:1000300071A2000029A2000085BE000089BE000058
:1000400071A2000071A2000071A2000071A2000064
:1000500071A2000071A2000071A2000071A2000054
:1000600071A2000071A2000071A2000071A2000044
:1000700071A2000071A2000071A2000071A2000034
:1000800071A2000071A2000071A2000071A2000024
:1000900071A2000071A2000071A2000071A2000014
:1000A000FD9400000995000071A2000071A20000FB
:1000B00071A2000071A2000071A2000071A20000F4
:1000C00071A2000071A2000071A2000071A20000E4
:1000D00071A2000071A2000071A2000071A20000D4
:1000E00071A2000071A2000071A2000071A20000C4
:1000F00071A2000009CA000071A2000071A20000F4
:1001000071A2000071A2000071A2000071A20000A3
:1001100071A2000071A2000071A2000071A2000093
:1001200071A2000071A2000071A2000071A2000083
:1001300071A2000071A2000071A2000071A2000073
:1001400071A2000071A2000071A2000071A2000063
:1001500071A2000071A2000071A2000071A2000053
:1001600071A2000009AB000071A2000071A20000A2
:1001700071A2000071A2000071A2000071A2000033
:1001800071A2000071A2000071A2000071A2000023
:1001900071A2000071A2000071A2000071A2000013
:1001A00071A2000071A2000071A2000071A2000003
:1001B00071A2000071A2000071A20000564B4CF227
:1001C000205210B51A804DF628121A8000BF00BFC9
:1001D0000AF052F8514B4FF010621A60504A9A6080
:1001E000504ADA60504A136813F4807304D14F49BF
:1001F0000B604FF4A85313604D4B1A78110703D5C9
:100200001A7842F008021A704A4B4B492A221A7097
:100210004A4A4B4B8B4204D252F8040F43F8040B6A
:10022000F8E7484B484900228B4202D243F8042B9E
:10023000FAE74649464A002352F8230041F82300D2
:1002400001336F2BF8D1434B434A802103F8011B44
:100250009342FBD1414B3D4A1A60414B8A221A70AE
:10026000A3F5805324225A70A0221A709A7992071B
:10027000FCD59A79D406FCD43A4A937903F00C035E
:10028000082B384BF9D103221A7146225A719A79F8
:100290009006FCD5334A9179324B4906FBD5324A58
:1002A0004FF0827111600921516020221A709A79F1
:1002B00002F00C020C2AFAD12C4B2D4A1A602D4B5D
:1002C0002D4A1A6000225A60072243F8042C2B4A58
:1002D000C3F80C2D62B60AF0EDFA144B1B68DA076E
:1002E00005D527480AF03AF9264B274A1A60274BCA
:1002F0001B785B0609D5234C234B22689A4204D114
:100300001F480AF02BF90023236009F0BBFF17F008
:100310002DFD0BF0FDFEFEE70E2005403080044071
:10032000823F04000100002B10D0034014D0034092
:1003300002D0074000E00740D0A0FF1FD4440200D5
:10034000308CFF1FD0A0FF1F70D1FF1F0082FF1F46
:100350000000000000E400E05FE400E008ED00E0E1
:1003600000500640004006404480044004800440A1
:10037000C010050014E000E0BFD401000000202000
:10038000947EA0621CE00340A5C3945A00F007408D
:10039000FFFFFFFFFFFFFFFFFFFFFFFFFFFFFFFF6D
:1003A000FFFFFFFFFFFFFFFFFFFFFFFFFFFFFFFF5D
:1003B000FFFFFFFFFFFFFFFFFFFFFFFFFFFFFFFF4D
:1003C000FFFFFFFFFFFFFFFFFFFFFFFFFFFFFFFF3D
:1003D000FFFFFFFFFFFFFFFFFFFFFFFFFFFFFFFF2D
:1003E000FFFFFFFFFFFFFFFFFFFFFFFFFFFFFFFF1D
:1003F000FFFFFFFFFFFFFFFFFFFFFFFFFFFFFFFF0D
:10040000FFFFFFFFFFFFFFFFFFFFFFFFDEF9FFFF23
:1004100010B5054C237833B9044B13B10448AFF33E
:1004200000800123237010BDD0A0FF1F000000003A
:1004300018410200084B10B51BB108490848AFF33A
:1004400000800848036803B910BD074B002BFBD0A0
:10045000BDE81040184700BF00000000D4A0FF1FF7
:1004600018410200D0A0FF1F0000000010B584B0AA
:100470000A4C0B4B02930B4A01924FF0FF3300934F
:100480002046094B2022802107F0F0FE074A084948
:10049000204604B0BDE810400DF0E8BCECA0FF1F02
:1004A000801A060040420F009893FF1F0C8DFF1F1B
:1004B000C582000030B5094C83B001252046009567
:1004C0002B463C22022108F053F820460221A57653
:1004D00003B0BDE8304007F01BBA00BFECA0FF1F1F
:1004E00070B5CEB2044680E80600D5B2304602218F
:1004F0000AF06AF9022128460AF066F930460AF045
:1005000055F9A06028460AF051F90023E060236104
:100510006361204670BD00BF30B5044683B00078EB
:100520000AF044F9054620790AF040F9A3689D4293
:10053000E36824D0984231D0A560E060ADB1A0B1AD
:100540002369012B37DD0023236101221E4B6169E2
:100550001B680193019B63615B1A132B32D9312B0A
:100560008CBF002301231BB201E00022134692B28C
:10057000002062F30F0063F31F4003B030BD9842C8
:10058000F3D02369A56085420CBF01224FF0FF32F2
:1005900013442361E060002DE7D0D0E72369A56014
:1005A000854214BF01224FF0FF3213442361E06003
:1005B000002DDAD0C3E7002201332261D5DA4FF0F3
:1005C000FF32C3E70223D2E7E4CCFF1F10B5044695
:1005D000322240F2E2430160C8B2E260A36102212C
:1005E0000AF0F2F800234FF0FF3103226160227419
:1005F000A3606361204610BD10B5044682B0007848
:100600000AF0D4F8636898421B4B09D01B6800932A
:10061000E268009B60601344A360002002B010BD3C
:100620001B680193A268019B9A4209D8217C4A1E4B
:10063000032A05D8DFE802F00F020707012818D0C7
:10064000002002B010BD0028FAD1A2690120134495
:1006500063612074E2E730B10128F1D103208842C0
:100660002074DBD1ECE762699A42E9D2022020745F
:10067000D4E70420F3E700BFE4CCFF1F704700BFBE
:1006800010B5184C636D1868036882B0DB6947F6D3
:1006900012219847144B1B6801930120019BC4F859
:1006A000003100FA00F200234FF6FF71024384F894
:1006B000580084F8702084F85A3084F85930636602
:1006C000236684F8F83084F8753084F8743084F840
:1006D000763084F87730C4F8FC30A166E16602B069
:1006E00010BD00BF54A1FF1FE4CCFF1F0B46014605
:1006F00018460AB90AF09CBF00220AF051BF00BF99
:1007000010B54FF60F000AF0FDFE044B5B6D186844
:100710000368F8211B68BDE81040184754A1FF1F6B
:1007200010B54FF60F200AF0EDFE044B5B6D186814
:100730000368FA211B68BDE81040184754A1FF1F49
:1007400010B54FF60F300AF0DDFE044B5B6D1868F4
:100750000368FB211B68BDE81040184754A1FF1F28
:1007600010B54FF60F400AF0CDFE044B5B6D1868D4
:100770000368FC211B68BDE81040184754A1FF1F07
:1007800008B500200AF0D4FF003018BF012008BDD2
:100790002DE9F041E0290C469DF8185008D8013D9C
:1007A000EDB20F2D02D849B2002912DBBDE8F0816D
:1007B000F729FBD90834E4B2012303FA04F414F056
:1007C000DD0FF3D0436D18680368BDE8F0411B6886
:1007D00018471F46436D8046186803682943C9B20D
:1007E0001B6816469847D8F854301868036806F016
:1007F0007F011B6804F0EF049847C02CD6D0D8F8CE
:1008000054301868036807F07F011B68BDE8F041A9
:10081000184700BF2DE9F0415FFA82F80C0608F195
:10082000FF3504F0FE4444F410442D02064605F45E
:10083000706544F00904000482B02C4300F4FE000B
:100840000F4620430AF05EFECDF80080FBB2F2B204
:1008500090210348FFF79CFF02B0BDE8F08100BF84
:1008600054A1FF1F00B583B0D2B20092CBB2C2B286
:1008700090210348FFF78CFF03B05DF804FB00BF35
:1008800054A1FF1F2DE9F0415FFA82F80C0608F130
:10089000FF3504F0FE4444F400442D02064605F4FE
:1008A000706544F00804000482B02C4300F4FE009C
:1008B0000F4620430AF026FECDF80080FBB2F2B2CC
:1008C00080210348FFF764FF02B0BDE8F08100BF5C
:1008D00054A1FF1F00B583B0D2B20092CBB2C2B216
:1008E00080210348FFF754FF03B05DF804FB00BF0D
:1008F00054A1FF1F2DE9F0415FFA82F80C0608F1C0
:10090000FF3504F0FE4444F430442D02064605F45D
:10091000706544F00B04000482B02C4300F4FE0028
:100920000F4620430AF0EEFDCDF80080FBB2F2B294
:10093000B0210348FFF72CFF02B0BDE8F08100BFF3
:1009400054A1FF1F00B583B0D2B20092CBB2C2B2A5
:10095000B0210348FFF71CFF03B05DF804FB00BFA4
:1009600054A1FF1F30B50304CDB2044603F4FE03C7
:10097000681E43F44043000283B043F00C0300F4CC
:10098000706018430AF0BEFD0095E2B20023C0215A
:100990000248FFF7FDFE03B030BD00BF54A1FF1FAA
:1009A000036810B504460BB17430984794F875305D
:1009B000803B7F2B00F28580DFE813F08A00830004
:1009C000830083008300830083008300830083000F
:1009D00083008300830083008300830096008300EC
:1009E00083008300830083008300830083008300EF
:1009F0008300830083008300830083009A008300C8
:100A000083008300830083008300830083008300CE
:100A10008300830083008300830083009E008300A3
:100A200083008300830083008300830083008300AE
:100A3000830083008300830083008300A20083007F
:100A4000830083008300830083008300830083008E
:100A5000830083008300830083008300AC00830055
:100A6000830083008300830083008300830083006E
:100A7000830083008300830083008300B000830031
:100A8000830083008300830083008300830083004E
:100A9000830083008300830083008300C400800000
:100AA000D500E50083008300ED008300F100F50030
:100AB000F900FD000101830005018400A36A002BF9
:100AC00064D110BD236D002BFBD0BDE8104018474A
:100AD000A368002BF5D094F8772094F8761094F85A
:100AE0007400BDE810401847E368002BF3D1E8E735
:100AF0002369002BEFD1E4E76369002BEBD1E0E73A
:100B0000A369002BDDD094F8761094F87400BDE84A
:100B100010401847E369002BF5D1D2E7226A002A7A
:100B2000CFD094F8771094F8763094F87400C90117
:100B300001F47E5103F07F031943A1F50051BDE894
:100B400010401047626A002ABBD094F8763094F8BF
:100B5000771043EA0121802904F1780028BF802121
:100B6000BDE810401047E26A002AAAD094F8773016
:100B700094F87600DB0103F47E5300F07F00184305
:100B8000BDE810401047236B002B9AD094F87600F4
:100B9000BDE810401847636B002B96D191E7A36B1B
:100BA000002B92D18DE7236C002B8ED189E7E36B6C
:100BB000002B8AD185E7636C002B86D181E7A36C7B
:100BC000002B82D17DE7E36C002B7FF47EAF78E7CA
:100BD000F8B5436D0446186803681B69984708B95F
:100BE0000020F8BD94F80D31626D23F0010384F804
:100BF0000D31106803685B699847C3B2FD2BEFD0D5
:100C0000626E002A49D001067ED494F85B10F02968
:100C10005FD0F7295DD0A11881F85B30216E4B1EA3
:100C20009A4253D394F85B30F02B00F00A82F72BF2
:100C300000F007821A0650D4002284F87520B02AEA
:100C40005CD0A02A5AD0D02A58D0E02A56D0C02A48
:100C500054D0002084F87400032994F85C0008BF85
:100C600094F85D5084F8760018BF0025002101201B
:100C7000B02A84F877506166216684F8F80008D0BD
:100C800000F2D581902A04D0A02A02D0802A00D078
:100C9000002384F859300120F8BD94F8592084F8D5
:100CA0005B3015064DD440B20028C0F20E8294F994
:100CB0000D01636840F0010084F80D0103B198470D
:100CC000002084F8590060662066F8BD0132626633
:100CD00086E7A11881F87830A0E703F10C02D2B2C0
:100CE000012AA9D9FD2BA7D0EF2B00F2EC8103F04C
:100CF000F002802A84F8752040F0EF8103F00F00A5
:100D0000013084F87400A7E7A3F1F0010F293FF642
:100D10007CAF012000FA01F111F0810540F0B181B2
:100D200011F45F4F3FF471AF84F8765084F8775038
:100D300084F8745084F87530C4F8FC0084F8F80026
:100D4000F8BD02F10C01CDB2012DACD9FD2AAAD01B
:100D5000EF2A00F2578102F0F006802E40F0538116
:100D600040B20028A0DB0120C9B2814284F85B2098
:100D700084F85C3060669AD9FD2A98D0EF2A94BF37
:100D800002F0F0051546A5F180037F2B8FD801A155
:100D900051F823F0FD0F0000AF0C0000AF0C000075
:100DA000AF0C0000AF0C0000AF0C0000AF0C000057
:100DB000AF0C0000AF0C0000AF0C0000AF0C000047
:100DC000AF0C0000AF0C0000AF0C0000AF0C000037
:100DD000AF0C0000FD0F0000AF0C0000AF0C0000D6
:100DE000AF0C0000AF0C0000AF0C0000AF0C000017
:100DF000AF0C0000AF0C0000AF0C0000AF0C000007
:100E0000AF0C0000AF0C0000AF0C0000AF0C0000F6
:100E1000AF0C0000FD0F0000AF0C0000AF0C000095
:100E2000AF0C0000AF0C0000AF0C0000AF0C0000D6
:100E3000AF0C0000AF0C0000AF0C0000AF0C0000C6
:100E4000AF0C0000AF0C0000AF0C0000AF0C0000B6
:100E5000AF0C0000FD0F0000AF0C0000AF0C000055
:100E6000AF0C0000AF0C0000AF0C0000AF0C000096
:100E7000AF0C0000AF0C0000AF0C0000AF0C000086
:100E8000AF0C0000AF0C0000AF0C0000AF0C000076
:100E9000AF0C0000F50F0000AF0C0000AF0C00001D
:100EA000AF0C0000AF0C0000AF0C0000AF0C000056
:100EB000AF0C0000AF0C0000AF0C0000AF0C000046
:100EC000AF0C0000AF0C0000AF0C0000AF0C000036
:100ED000AF0C0000F50F0000AF0C0000AF0C0000DD
:100EE000AF0C0000AF0C0000AF0C0000AF0C000016
:100EF000AF0C0000AF0C0000AF0C0000AF0C000006
:100F0000AF0C0000AF0C0000AF0C0000AF0C0000F5
:100F1000AF0C0000FD0F0000AF0C0000AF0C000094
:100F2000AF0C0000AF0C0000AF0C0000AF0C0000D5
:100F3000AF0C0000AF0C0000AF0C0000AF0C0000C5
:100F4000AF0C0000AF0C0000AF0C0000AF0C0000B5
:100F5000AF0C0000B30F0000F50F0000FD0F000004
:100F6000F50F0000AF0C0000AF0C0000950F000063
:100F7000B30F0000950F0000950F0000950F0000C3
:100F8000950F0000950F0000AF0C0000950F0000BA
:100F9000950F00000023012084F8743084F8763027
:100FA00084F8773084F875506366236684F8F80017
:100FB000F8BD80210023216684F8785084F85930E8
:100FC0007F21636E8B422ED302F00F020023013289
:100FD00094F85C1084F87420012084F8761084F86A
:100FE000773084F8755063662366C4F8FC0084F893
:100FF000F800F8BD022323660121E2E703232366FC
:101000000221DEE7164606F0DF05902D3FF4A8AE7C
:1010100006F0BF05A02D3FF4A3AE06F0EF06C02EEC
:101020003FF49EAE3FE6013363660020F8BDD02A50
:101030003FF42FAEE02A3FF42CAEC02A7FF428AE56
:1010400027E6F02280230025012194F8F76084F838
:10105000752084F8763084F8F720C4F8FC302046F8
:1010600084F8775084F8745084F8F810FFF798FCEF
:10107000F722022384F8796084F878202846636692
:10108000F8BD94F87810F02902D0F7297FF40FAE5C
:10109000551C224400214FEA152E82F87830012693
:1010A000F02784F8765084F877E084F8741084F898
:1010B00059103046C4F8FC5084F87570616621669A
:1010C00084F8F860F8BD1A46B7E503F10C02D2B215
:1010D000012A7FF6ECAD1A4650E6902A3FF40EAE98
:1010E000ADE500BF90F87030DA0718D513F0FE0FA9
:1010F00015D070B590F8755085F08002602A82B0E6
:1011000004460DD890F874608E4231D081B35B08EC
:10111000012B32D0032B00F09F8002B070BD7047CE
:10112000A5F1F0030F2BF8D801A252F823F000BF6D
:101130002712000005120000D3110000B7110000B3
:101140001B1100001B1100008F1100001B1100007B
:101150008F1100001B1100008F1100008F11000083
:101160008F1100001B1100008F1100008F11000073
:101170005B08012B01D0022BCFD194F8773094F883
:101180007620009629462046FFF702FBC5E705F1C9
:101190000803DBB2072BC0D8012202FA03F313F0D5
:1011A000DD0FBAD0636D1868036829461B6802B06A
:1011B000BDE870401847436D90F876501868036892
:1011C000F3211B689847636D186805F07F01036879
:1011D000ECE7436D90F87750186894F87620036830
:1011E000F2211B6842EAC5159847636D18680368C9
:1011F00005F07F011B689847636D1868C5F3C61139
:101200000368D3E7436D90F87650186894F8773008
:1012100002682D0103F00F03126805F07005F1213B
:101220001D439047BEE790F8763090F8776043EA28
:101230000626802E28BF802600F17805002E3FF478
:101240006CAF2E44636D15F8011B186803681B68AA
:101250009847B542F6D160E794F8773094F8762055
:1012600000962946FFF794FA57E700BF70B5174C70
:1012700094F85860102E02D90025284670BD2046EB
:10128000FFF7A6FC05460028F6D094F87530902BA1
:101290000CD083F08003602B0BD90C48FFF780FB48
:1012A00031460A48FFF71EFF284670BD94F8773094
:1012B0003BB194F874309E42EFD0002EEDD0002563
:1012C000EEE7802384F87530F3E700BF54A1FF1FD9
:1012D000F8B5294C294F94F87030DFF8ACE0C7F826
:1012E00000E00025012243F0010362F347034FF6BB
:1012F000FF76294604F17800802284F87030676513
:1013000025606560A560E56025616561A561E561B1
:1013100025626562A562E56225636563A563E56391
:1013200025646564A564E564256584F8585084F8EF
:10133000595084F85A5025666566A666E66684F8B4
:10134000745084F8755084F8765084F8775084F897
:10135000F85017F08BF92046C4F80051C4F8045136
:10136000C4F8085184F80C5184F80D51044A054919
:10137000BDE8F8400CF07ABD54A1FF1F50A1FF1F3B
:101380000C8DFF1F7D0600000096FF1F0020704798
:10139000704700BF194B1B7870B505460E461446C2
:1013A0003BBB174B1B78CBB9A3F15533A3FB0623EB
:1013B000DB0813F0010FA3EB830306EB830318BFD5
:1013C0000C33104A104832F82310002205F064FD57
:1013D0000D4805F07BFC0D4B01221A700C4B1B785D
:1013E00003B970BD2A4621463046BDE87040FFF77C
:1013F00071BA0021172009F0D3F9D2E7338DFF1F0E
:1014000090A3FF1FC8CF010068A2FF1F9CBCFF1F55
:1014100009A3FF1F054B1B7803B9704710B40C4696
:1014200011460246204610BCFFF78CBA09A3FF1FE5
:10143000024B0A460146186805F086BBC0BCFF1F78
:1014400010B5044606F03CF90A2830D00D283DD0EE
:101450004FF6FD73984201D9012010BD0346B4F93F
:101460004220B4F9401004F1080006F00DF994F898
:101470002230032BF0D8DFE803F0140E0802B4F892
:101480004230181AA4F84200E6E7B4F84030181ABF
:10149000A4F84000E0E7B4F842301844A4F8420051
:1014A000DAE7B4F840301844A4F84000D4E794F9DF
:1014B000333094F93410B4F842205B1A13440022FC
:1014C000A4F84230A4F84020012010BD0023A4F865
:1014D0004030012010BD00BF10B50446D0F84801CF
:1014E00008B10AF01FFED4F83C0108B10AF01AFE58
:1014F000D4F8300108B10AF015FE04F1100008F02C
:1015000001FA204610BD00BF10B5183814F074FE63
:1015100009490A4C14F0C4FE0BF0CCFB15F086F818
:1015200001212060172009F03BF921682820BDE83F
:10153000104009F027B800BF90759242BCBCFF1F55
:101540002C4B1B7810B50C46002B39D12A4B1B783D
:101550001BB1A4F11803352B38D9284B1B78D3B90C
:10156000A3F15533264AA3FB0413DB081470A3EB45
:10157000830204EB8204DA070ED473B9214A224BAA
:10158000224833F8241005F087FC204805F09EFB24
:101590001F4B01221A7010BD0C34012B1CD0022BE2
:1015A00018D0032B1CD0042B1DD0052B1ED0062BCE
:1015B00014D0144A4FF6FF71072B08BF0A46DEE726
:1015C000114602462046FFF74DF9BFE72046FFF7D8
:1015D0009BFFC2E70F4AD2E70F4AD0E70F4ACEE798
:1015E0004FF47F42CBE74FF0FF12C8E74FF6FF7290
:1015F000C5E700BF09A3FF1F338DFF1F90A3FF1F87
:10160000E9BCFF1F80808000C8CF010068A2FF1FD7
:101610009CBCFF1F00FFFF000080FF0000FF800058
:101620002DE9F0471546002A63D004460F46DFF83F
:10163000C88000264FF6FD7900F1080A0BE006F09D
:101640003FF80A2825D00D2832D0484511D901206D
:10165000013D06440AD0236817F8011B1B68434567
:101660002046ECD09847013D0644F4D13046BDE811
:10167000F0870346B4F94220B4F94010504606F012
:1016800003F894F82230032BE1D8DFE803F02B2491
:101690001D1694F9333094F93410B4F842205B1AD3
:1016A00013440022A4F84230A4F840200120CFE7E0
:1016B0000023A4F840300120CAE7B4F84230181AD9
:1016C000A4F842000120C3E7B4F84030181AA4F887
:1016D00040000120BCE7B4F842301844A4F84200AE
:1016E0000120B5E7B4F840301844A4F840000120C8
:1016F000AEE71646BAE700BF41140000F8B50D4E3C
:1017000033689842044611D30B4A0C4D12680C4FB3
:1017100085FB0215D217C2EBA505E41AFEF7F0FF10
:101720003B6803FB05F39C423360F6D21B1B33601E
:10173000F8BD00BFE4BCFF1F14CF0100ABAAAA2A6A
:10174000A0BCFF1F70B50D4D2B689842044612D304
:101750000B4E32682A60E41A09F03CF80146094849
:1017600003F054FE09F036F80146074803F09AFEEC
:101770002B68A342EDD91B1B2B6070BD38BDFF1F2A
:10178000A0BCFF1F5CC0FF1F5CBDFF1FF8B50F4F63
:101790000F4D3B680F4E03EB8303044603440A4698
:1017A00055F8230056F82410FFF7A4F83B680A4FB9
:1017B00056F8242047F8242003EB83031C440749F0
:1017C000074855F8243002600B60F8BDD0BCFF1FFD
:1017D0008C8EFF1FF0A2FF1F0CA3FF1FD0A2FF1FC4
:1017E00030A3FF1F2DE9F04FDFF84482824D834E76
:1017F000834FDFF840A2DFF84092DFF840B283B0B9
:10180000002458F8040BC0B208F0EAFB0346014676
:1018100028683B6005F034FD55F8042BDAF8001019
:10182000D36AD9F80000994200F3B3808342A8BF7D
:101830000346401A00F0A9805B1AC3EB833100EB2A
:10184000D07301EB630303FB00F1002993FBF0F37A
:10185000B8BF03F1FF33D91192F834203B6046F84A
:10186000041B002A48D09BF80030032B44D8DFE843
:1018700003F049020249634B1B78002B53D0624BA3
:101880001B78002B4FD0614B61481B68614ADFF821
:10189000B0E103EB83032344042C50F8233013609E
:1018A0005D4BCEF80040196000F08E8004F0E2F845
:1018B00020445A4B56F8042CC270DA68019340F267
:1018C000CB2101FB0232204692F8851001F00F0176
:1018D0000131FFF75BFF019BDA6840F2CB2101FB8E
:1018E0000233204693F8851001F00F010131FFF714
:1018F0004DFF4B4B01221A700134052C81D103B0EE
:10190000BDE8F08F474B1B78002B44D19BF80210A9
:101910002046FFF73BFF424B01340122052C1A7091
:101920007FF46FAFEBE7404B1B78002B39D0374B80
:1019300037481B68374ADFF808E103EB8303234489
:10194000042C50F823301360334BCEF8004019605C
:10195000324B3BD0D86803EB800240F2CB2C526A6A
:1019600002EB820E0CFB00F002EB4E0202441A4422
:101970002244034482F8921093F8851001F00F017D
:1019800001312046FFF702FFC5E73F2141F6FF7313
:1019900062E70B464DE7254B20461968FFF7F6FE38
:1019A000B9E71E4BDA6840F2CB2101FB0233204637
:1019B00093F8851001F00F0101310134FFF7E6FEC5
:1019C000052C7FF41EAF9AE7144B85E7D3F80CE0A3
:1019D00003EB8E0040F2CB22406A02FB0EF24FF086
:1019E0000B0E0EFB0022134493F8902061F30602C5
:1019F00083F890208FE700BF34A3FF1FF0A2FF1FE2
:101A0000CCA2FF1F34BDFF1FC8A2FF1FD0BCFF1F09
:101A10008C8EFF1FD0A2FF1F30A3FF1F3CA5FF1F0E
:101A20009CBCFF1F328DFF1F2CA3FF1FAC8DFF1F1F
:101A300000CF010088A3FF1F348DFF1F90A3FF1F5D
:101A4000E4A3FF1F2DE9F0435E4B5F4C196883B0A0
:101A5000084614F01DFB14F00FFE5C495C4A0B684D
:101A60000093009B156820605B1B984208D859487A
:101A70000968037801910199116083F001030370F3
:101A8000554B1B783BB3534B1C78002C40F089809E
:101A90002546264627464FF47F0200214F4805F091
:101AA000FBF93A4601214D4805F0F6F9324602218C
:101AB0004A4805F0F1F92A460B21484805F0ECF9AF
:101AC00022460C21454805F0E7F9454B01221A70E2
:101AD00003B0BDE8F083434B1A78002A6DD03D4B2C
:101AE0001B78002B64D199469846FF2200213B4881
:101AF00005F0D2F93C4A3948012105F0CDF93B4ABD
:101B00003648032105F0C8F94FF6FF720421334827
:101B100005F0C2F94FF0FF120521304805F0BCF97D
:101B2000334B1F68132F18DD324DA7F108060B2425
:101B300005E04A46013405F0AFF9A6420DD015F88C
:101B4000013F2648284AA1B2002BF2D1A1B2234876
:101B5000013405F0A1F9A642F1D14FF47F0206212C
:101B60001E4805F099F9132F10DD234D132415F8A5
:101B7000013F1A484246A1B21BB918484FF47F02F0
:101B8000A1B2013405F088F9BC42F0D11B4A1348D8
:101B9000092105F081F9FF220A21104805F07CF99E
:101BA00093E7114D114F47F6FF744FF0FF1672E7A0
:101BB000DFF834904FF47F0897E71146074805F0A7
:101BC0006BF982E7D4BCFF1FCCBCFF1FE4CCFF1F26
:101BD00048A3FF1F48BDFF1FE8BCFF1F68A2FF1FEF
:101BE00016BDFF1F40BDFF1F0080FF0000FF8000EB
:101BF00030D001004BBDFF1F53BDFF1F00FFFF0092
:101C00002DE9F04F9D4B9E4C196887B0074608465A
:101C100014F03EFA14F030FD9A4A9B49136802937F
:101C2000029B0D6820605B1B98424FEA400408D875
:101C3000964D10682B78039083F0010303982B7066
:101C400008601368924A0493049B11688D485B1ADC
:101C50009C4208D88F4900680B7805900598106061
:101C600083F001030B708C4E737923B1874D2B7871
:101C7000002B40F08B80894C2378A3B1834D2B78C7
:101C8000002B40F0B081864B1B78002B6AD0854B2F
:101C90001B78012B6ED0022B72D14D22002182487D
:101CA00005F0FAF80EE07E4B1B78002B5AD0774DEA
:101CB0002B78002BEBD07D4B7B4853F8272000215D
:101CC00005F0EAF840F2CB2303FB076393F88E306C
:101CD000D90740F1B080764BDFF8FC9153F82730FC
:101CE000C9F8003007F1180806EB88022378546819
:101CF0002401002B57D06F4B1B78002B53D06E4B19
:101D00001F68012F49DD614DDFF8D091DFF8D081E8
:101D100001240DE0012632460B21634805F0BCF892
:101D2000013432461A21604805F0B6F8A74234D093
:101D3000D9F80020614B1340002B6CDBD8F8002051
:101D4000A24203F10B0370D0A3425ED00022A1B2E5
:101D5000554805F0A1F82B78002BDBD0584A47F600
:101D6000FF76D9E7574B1B78002BA0D14D4B1B7842
:101D7000012B90D1544A4C48002105F08DF8A1E781
:101D800000221146484805F087F89BE70122002110
:101D90004548424C05F080F894E74C4B01221A70FC
:101DA00007B0BDE8F08F474B1B78002B50D0424B5B
:101DB0001F68112F09DD103F0125A9B200223A4802
:101DC000013505F069F8AF42F7D104F10F070B2593
:101DD000DFF80C810AE0D8F800309D4201D005F010
:101DE0005BF80134BC4205F10105D6DCF3682E48EE
:101DF00006EB8303A9B25B6AA3424FF00002EAD16B
:101E00004FF4000205F048F8EBE72D4A2648A1B24E
:101E100005F042F89FE7013BD8F8002063F00F037C
:101E20000133A24203F10B038ED1274A1E48A1B20F
:101E300005F032F88FE71D491D4ADFF89C90244BCE
:101E400051F8271052F82720C9F800101A6049E706
:101E5000F36840F2CB2A0AFB036393F88E305A07EB
:101E60009BD41C4B1B78002B40F0F980124B1D6853
:101E7000012D63DD0AFB076A012441E0D4BCFF1F8A
:101E8000CCBCFF1FE4CCFF1F48A3FF1F48BDFF1FB2
:101E9000C4A2FF1FDCBCFF1F3CA5FF1F34BDFF1FFA
:101EA00008A3FF1F90A3FF1F68A2FF1FCCCE010055
:101EB00020CD0100C8A2FF1F30D001000F0000801C
:101EC0000080FF002CA3FF1F8080800016BDFF1F35
:101ED000A0A2FF1F0CBDFF1FE0BCFF1F6CA3FF1FD4
:101EE000B8BCFF1F022C6FD0FB1CA34200F0828005
:101EF0000022A1B2904804F0CFFF0134AC4218D0C8
:101F00009AF8843003F03F030B33A342F0DB012C3B
:101F1000E8D18A4B5B7823B1894B1B78002B40F0CA
:101F2000E280884A84480121013404F0B5FFAC42C4
:101F3000E6D106EB8808D8F80440240140F2CB2B08
:101F40000BFB07FB06EB0B0804EB84025B4608F176
:101F50008F0804EB4202CDF804B01E44DFF800B253
:101F6000904404F10F0A0B2513E0A24200F0C18057
:101F700098F80220D0065DD4734A6F48294604F0D1
:101F80008BFF01340135A245ADB208F10B08FFF615
:101F900004AF96F8842002F03F020132A242F0DD45
:101FA0000BEB8702A307526ADFD0A2423AD098F81F
:101FB0000220D2063ED4654A1278002ADCD1294696
:101FC0005D4804F069FFDCE75C4B9B7823B15C4B18
:101FD0001B78002B40F087804FF680720221564814
:101FE00004F05AFF89E744F64D420021524804F0BC
:101FF00053FF67E61FFA84FB5946D9F800204E4884
:1020000004F04AFF514B1B78002B3FF476AF4C4B4A
:102010001B78002B3FF471AF59460022464804F06C
:102020003BFF6AE79BF80520002A67D198F8022059
:10203000D1066CD598F80A20530709D0444A127883
:1020400032B9444A3C481268294604F025FF98E713
:10205000D9F800203848294604F01EFF91E7384D92
:102060002A78002A51D0374A4FF68074012132482D
:1020700004F012FF224602212F4804F00DFF364BD8
:10208000D3F80090B9F1030FC8BF032407DDA1B254
:1020900000222948013404F0FFFE4C45F7D140F2FC
:1020A000CB2303FB07674FF47F0297F884902B4FF5
:1020B00006EB8806C9F30119002473681E4804F171
:1020C0000B01A34289B204F1010407D004F0E4FE3D
:1020D000A145FFF662AE57F8042FEEE72B78002BF0
:1020E00008BF0022F2E700222146134804F0D4FE84
:1020F00003E79BF80520002A3FF43AAF4FF40002B3
:1021000029460D4804F0C8FE3BE71446AEE70F4AE7
:102110001278002A7FF430AF04EB8402019B04EBB9
:1021200042021A445A4492F89120C2F30012002A43
:102130007FF427AF43E700BF68A2FF1FA4A2FF1FE1
:1021400048BDFF1FFFFF80002020200008A3FF1FC5
:10215000DCBCFF1FA0A2FF1F30D00100BCCE0100DD
:102160003CA5FF1F10B550B904460121094805F0F0
:10217000A3FA21460748BDE8104005F09FBA0021A8
:10218000044805F099FA01210248BDE8104005F025
:1021900095BA00BFA4A3FF1FA0F11803352B00D9E7
:1021A0007047FFF7B1B900BF0021172008F0F8BA57
:1021B000F8B51F4DDFF8A8E01E4B2D68DEF8004093
:1021C0001B6894FBF3F607461B4850F8270005EB05
:1021D000450503FB164300EB850401337F2CCEF845
:1021E000003016D81546154A154E16481278347028
:1021F00040F8274012B1144A15681D44134B2A4673
:10220000204643F82750FEF705FBA4F11803352BB1
:102210000AD9B9B20E4A0F4804F03EFE0E490F4AE1
:1022200001230B701370F8BD2046FFF76DF9F0E73E
:1022300070A3FF1FBC8DFF1F1CCF010050A3FF1F09
:10224000E9BCFF1F408DFF1FD4A2FF1FC08DFF1FE1
:102250008080800068A2FF1F16BDFF1F9CBCFF1F6F
:1022600080A3FF1F0D4B10B5044653F820007F28B4
:1022700009D80B4B002153F82420FEF703FB002163
:10228000172008F08DFAA1B20022064804F004FEDF
:102290000549064A01230B70137010BD408DFF1FC6
:1022A000C08DFF1F68A2FF1F16BDFF1F9CBCFF1F34
:1022B0002DE9F0473A4FBDF820600546894638467B
:1022C00029469246984605F047FA97F9314080B280
:1022D000A4B2C0EB0803341B03EBD37304EBD47438
:1022E00009EB63030AEB640400222846A7F8403098
:1022F000A7F8424087F8462017F042F848B3044652
:102300003E464FF6FD7801E0013C22D015F8011B56
:10231000234805F0D5F90A282FD00D283BD0404599
:10232000F2D80346B6F94220B6F940101D4805F030
:10233000ABF996F82230032BE6D8DFE803F0181249
:102340000C02B7F84230013CA3EB0000A7F84200B2
:10235000DCD1BDE8F087B7F84030181AA7F8400084
:10236000D2E7B7F842301844A7F84200CCE7B7F8F4
:1023700040301844A7F84000C6E796F9333096F984
:102380003410B6F842205B1A13440022A6F84230FB
:10239000A6F84020B8E70023A6F84030B4E700BF15
:1023A0009CA3FF1FA4A3FF1F30B5054683B01046B2
:1023B0000C46FFF7D7FE074B1A685200610116233F
:1023C0000332009309B2284612B22023FFF770FFB0
:1023D00003B030BDB88DFF1F30B51D4C83B0012157
:1023E00004F1080005F04EF904F10800194905F060
:1023F00059F9002504F108000121A4F84050A4F87F
:10240000425084F8465005F057F9294604F1080077
:1024100005F054F9104B5A781B78934210D00F4BAB
:102420001B784BB90E482023009314222C235621ED
:10243000FFF73EFF03B030BD0A4B53F82200F2E72E
:10244000064A1278002AEDD0064A52F82300EAE73D
:102450009CA3FF1F6404020090A3FF1FC4BCFF1FC6
:10246000A8CD0100508EFF1F70B5064684B01046FF
:102470000D46FFF777FE0A4B1C68640002A9304640
:102480000A22033415F0B2FCA4B2690116230093AA
:1024900022B209B202A82023FFF70AFF04B070BDE0
:1024A000B88DFF1FF8B5134E07460025708800242D
:1024B00098B12304FF2293FBF0F02844114680B228
:1024C00004F014FD04F0B6FDA1B20246094804F080
:1024D000E3FC70880134A042EBDC064804F0F6FB14
:1024E00005F58075384608F097F9B5F5803FDDD1E0
:1024F000F8BD00BF68A2FF1F2DE9F047494BDFF888
:102500003C81494E0FCB86B006AC04E90F0047482A
:1025100006F004FA002108F1080005F0B3F845467A
:102520004FF0000A4148424C06F0F8F9122300220D
:1025300040494148A8F84030A8F8423088F8462081
:102540000FFA8AF905F0AEF84FF6FD7701E0B442D4
:1025500022D014F8011B394805F0B2F80A284FD0F0
:102560000D285BD0B842F2D80346B5F94220B5F940
:102570004010314805F088F895F82230032BE6D852
:10258000DFE803F038322C02B8F84230B442A3EB53
:102590000000A8F84200DCD12949274805F082F85C
:1025A00009F0030906AB03EB8909202359F8100C45
:1025B00000930A225021FFF77BFE1C4806F0BAFA6E
:1025C0000AF1010A642008F027F9BAF1100FA9D125
:1025D000642006B0BDE8F04708F01EB9B8F84030F6
:1025E000181AA8F84000B2E7B8F842301844A8F822
:1025F0004200ACE7B8F840301844A8F84000A6E71D
:1026000095F9333095F93410B5F842205B1A13442C
:102610000022A5F84230A5F8402098E70023A5F84D
:10262000403094E7F4CC010046CD0100ECA0FF1F40
:1026300040CD010018D20100A4A3FF1F9CA3FF1FDF
:10264000D4DA01002DE9F04F85B001A80B223C49F6
:102650003C4E07F0ABFAA6F140073D46002456F881
:10266000043F05F5307B03F07F0AA9469DF804304E
:102670000B226AF3060309F18F0001A991448DF83A
:10268000043007F093FAD945F0D140F2CB2303FB95
:1026900004724FF00F0892F8840092F8851092F8B7
:1026A000879092F88E3092F886A092F888C092F8BF
:1026B00089E068F3050064F303016FF3050982F80C
:1026C000840092F88A0082F8851082F8879092F848
:1026D0008B104FF0030969F305004FF0020969F30D
:1026E000030182F88B1092F88D1082F88A004FF067
:1026F000010B92F88C0001F0800103F0F8035C44B8
:102700006FF3050A6FF3050C6BF3050E6FF306000C
:102710006FF3C7116FF3C303082C82F886A082F809
:1027200088C082F889E005F2CB2582F88C0082F817
:102730008D1082F88E3092D105B0BDE8F08F00BFC9
:1027400004CD01007CA5FF1F2DE9F041DFF880805A
:102750001B4BD8F800001A7803681A4C5B681A4FB4
:1027600000219847D8F800002278036801215B68AF
:102770009847D8F80000154A0368127B5B6802216D
:102780009847D8F80000A2780368013AD2B25B6893
:10279000032198470424661D3D46D8F8000055F8EB
:1027A000042F036821465B68D2B201349847B442D3
:1027B000F3D11D2C07F11407EDD1BDE8F08100BF66
:1027C000F4CE010090A3FF1F888EFF1F3CA5FF1FC2
:1027D00028A3FF1F2DE9F0411E4E30680368002139
:1027E0009B689847FF2803D01B4B1B78834202D07D
:1027F0000020BDE8F0813068184C0368DFF8648081
:102800009B6801219847336820701A681846022196
:1028100093689847336812491A686060C860926884
:102820001846032190470130A0700424671D4546D7
:102830003068036821469B6898470134A74245F8F1
:10284000040FF5D11D2F08F114083C46EED10120EC
:10285000BDE8F08128A3FF1FF4CE010090A3FF1F65
:102860003CA5FF1F888EFF1F2DE9F84FDFF854B0FD
:10287000134FDBF80000DFF850A00368DB689847CF
:1028800003F0F2F8C7F120058046A0F2CB29B8F199
:10289000000F3C46C8BF07EB080609DDDBF8000067
:1028A0000368611914F8012B5B689847B442F5D1AD
:1028B00007F2CB2757454D44E9D1BDE8F88F00BF5B
:1028C000C0A5FF1F28A3FF1F18BCFF1F2DE9F0475D
:1028D0001A4FDFF86C803868DFF868A00368ADF540
:1028E000347DDB68984703F0BFF82024814640F22E
:1028F000CB22002101A815F0B9FEB9F1000F04EBBD
:102900000906C8BF01AD09DD3868036821469B6828
:1029100098470134B44205F8010BF5D140F2CB22BF
:1029200008F1840001A9904407F040F9D0453446ED
:10293000DDD10DF5347DBDE8F08700BF28A3FF1F72
:102940003CA5FF1F94BBFF1FF0B5414B414D1A68DA
:102950004148424E007889B00492049A1968059162
:10296000059F19680691069C19683D4B07913D49E2
:102970001A603D4B3D4A0C60002401212F601C7100
:10298000079F3B4D376094701472DC6083F82240DF
:10299000A3F84040A3F8424083F846401D601983E5
:1029A00083F821101070507007F014FF314B324A39
:1029B0001B68324E324D106003EB83033149324ABB
:1029C00055F82350314833680D60136002F096FFCC
:1029D0002F4B304A19683048304B126801601A603A
:1029E000084613F055FB13F047FE2D4B2D4F186092
:1029F0000B220C212C482D4E2D4DFDF771FD21464B
:102A00002C48FDF7E3FD2C4B2C4A19682C4B12681F
:102A100001930623039305242A4B009338462A4B3F
:102A2000029402F095FD3246384628490BF01EFA12
:102A3000274B284A1988B2F900205223284604F06F
:102A400015FA3246284624490BF010FA09B0F0BDB9
:102A5000E4CCFF1FC4A2FF1F18CF0100C8BCFF1F9A
:102A600048A3FF1F08BDFF1F9CA3FF1F90A3FF1FCC
:102A7000E4CC0100D0BCFF1F20A3FF1FF0A2FF1F6A
:102A80008C8EFF1FD0A2FF1F30A3FF1F3CA5FF1F8E
:102A9000B48DFF1F70A3FF1F80A2FF1F04BDFF1F87
:102AA000CCBCFF1FE8A3FF1F54A3FF1F0C8DFF1F0B
:102AB00068A2FF1F84A2FF1F388DFF1F2C8EFF1FEF
:102AC000608EFF1F848EFF1F308EFF1FD914000001
:102AD00030D0010038D00100056C0000F0B583B0A3
:102AE0000024154D019420262246802307462146C6
:102AF0000096124804F074FF2846012104F0C2FD3C
:102B000028460F4904F0CEFD2846012104F0D4FDEB
:102B10002146284604F0D2FD2146009638468023FF
:102B20000A22FFF7C5FB074A074B0849116001223B
:102B30001A7003B0F0BD00BFA4A3FF1FECA0FF1FDD
:102B400018D2010000BDFF1F9CBCFF1F20A1070081
:102B50000FB400B589B00AAB182153F8042B0193C8
:102B600002A818F09FF802A8FFF7B8FF09B05DF8B7
:102B700004EB04B0704700BF00B500EB400083B029
:102B80008100012202232B310192009309B2062316
:102B90001E22034804F024FF03B05DF804FB00BFCD
:102BA000ECA0FF1F89B900B500EB400183B089009C
:102BB00001232B310193009309B206231F220448FD
:102BC00004F00EFF03B05DF804FBFFF7D5BF00BFB4
:102BD000ECA0FF1F70B51C4B1C481C6882B0002283
:102BE00001250A218DE8220023B2114604F0F8FEE7
:102BF000174B1648B3F90050002CB4BFE11C214616
:102C000002262B4641F38F010096002205F060FF5B
:102C100004EBD4712B46002241F34F0100960B4880
:102C200005F056FF204613F0E7FA4FF07D5113F000
:102C300037FB13F0FBFC009601B22B460022034841
:102C400005F046FF02B070BD2CD00100ECA0FF1FC4
:102C5000C4CF01002DE9F04F9A4C0546884694E810
:102C60000F0091B004AE0CAF86E80F0087E80F00AC
:102C70000023099308930A930B930B2D00F2AF8264
:102C8000DFE815F033008400A500D300F6007201E0
:102C90009201B401DA01FA011C020C008A4A8B4B42
:102CA00015688B4A8B4904921B788B4A0591013534
:102CB0008A4906926FF07E02089507910992002BCF
:102CC00040F09182864B0D93864B1B786FF07E020D
:102CD0000A92002B00F08A82834B0E93834A7C4B2E
:102CE00012680B924FF0030B16E0814A814B156876
:102CF000814A824912689B7809780A92804A09932E
:102D00000435804B0B9105927F49804A08950493C6
:102D1000069107924FF0010B7D4C039304F10800DC
:102D200001214FF0000904F0ADFC04F108007949DD
:102D3000DFF830A204F0B6FCA4F84090A4F842906A
:102D400084F84690FFF746FF494604F1080004F076
:102D5000B3FC04F10800012104F0B0FC039B012442
:102D60004FF00A09DAF80020CDF80090023A184630
:102D700021B212B22023FFF79BFA612C04F1200448
:102D800000F0B481A4B256F8043FEBE7624A634B0B
:102D9000D5681B68099340F2CB2303FB05236049E8
:102DA00093F88D205F4B604C059302F07F025F4BE0
:102DB0000A9208685E4A07930135049408950692C2
:102DC00013F034FC4FF0010B23460B90A4E7524A5A
:102DD000584BD168049340F2CB2000FB0122564DA2
:102DE00092F88E0092F88B1092F88420534C059440
:102DF00002F03F02013201F00F010992504A06929F
:102E00006FF07E0255F821100A920B920207C0F370
:102E100080050E9148BF344A4A4958BF304A089548
:102E200007910F924FF0020B76E73649464A434B23
:102E3000364C059106920793049402F01BFE2C4B2E
:102E400005781A6805F07F0504320992089502F0AA
:102E500011FE427802F07F020A9202F00BFE8278A5
:102E600002F00F02013223460B924FF0010B53E7A1
:102E7000364B3749374A384C07936FF07E0505913A
:102E800006920494089502F0F5FD827A3349039482
:102E900002F007024FF0020B51F822200C9202F0D0
:102EA000E9FD027A0A9502F07F02099202F0E2FD42
:102EB000427A2B49039B02F03F0251F822200E92E6
:102EC0002AE700BF10CD0100D0BCFF1F09A3FF1FE0
:102ED00050CD01009CCD0100A4CD0100ACCD01007E
:102EE000B8CD0100328DFF1FB4CD0100AC8DFF1FA6
:102EF00070A3FF1F90A3FF1F30A3FF1FE9BCFF1F9C
:102F000084CD010048CD010088CD010074CD0100C1
:102F10009CA3FF1F340D02003CA5FF1FDCA2FF1F76
:102F2000B48DFF1FBCCD010058CD0100CCCD0100F8
:102F3000C4CD01005CCD0100F08EFF1FD0CD01009B
:102F40006CCD0100D4CD010004CE0100A8CD01005C
:102F5000F0CD010008CE01007CCD01002C90FF1FB8
:102F60000893FF1FB88DFF1FA448A549A54AA64B8B
:102F7000DFF8CC92049005910692079300246FF03D
:102F80007E0502F077FD204490F90330002BC0F25B
:102F9000208108AA42F824300134042CF1D1089D84
:102FA000049B4FF0030BB7E6984A994BD5681B6812
:102FB0000A9340F2CB2303FB0523964893F8841031
:102FC00093F88520944B049301F03F0102F00F0227
:102FD00001310132013509910B929049904A0895CF
:102FE0000590069107924FF0010B95E6874A8D4BAD
:102FF000D168049340F2CB2000FB01224FF0020B7A
:1030000092F88C0092F8865092F8871092F88820F7
:1030100000F07F0001F03F0102F03F0205F03F05A4
:1030200001350B90099180480A928049804A0895A1
:103030000590069107926FE6744A7E48D36840F285
:10304000CB2101FB03226FF07E0592F88B1092F8E2
:103050008E20794B049301F00F01C2F3800250F8E7
:10306000210009927549764A0C90059106920792C3
:1030700008954FF0030B4FE6644C724AE3681568FD
:10308000DFF80092CDF8109004EB830304355A6A00
:103090006D4B05930132604B09926C4A069207937F
:1030A000089502F0E7FCE1680278013102F07F0246
:1030B0004B460B910A924FF0010B2DE6644B65498C
:1030C0001B68654A654809681268056809910133FB
:1030D0000A936348634B0B926349644A08950493CF
:1030E0000590069107924FF0020B15E6012160480A
:1030F00004F0C8FA5F495E4804F0D4FA01215C4844
:1031000004F0DAFA00215A4804F0D8FA08F1FF3343
:10311000032B0DD8DFE803F023392E0215220123FB
:103120008DE80C0062211D230922534804F058FC4D
:103130000DF1200900235C1CC8EB0406B6FA86F6E4
:10314000760915F17F0F19B22846324628D0FFF7CD
:103150008BF9042C2AD059F8045F2346EBE715229B
:1031600001238DE80C0002211D230922424804F0AE
:1031700037FCDDE7152201238DE80C0042211D23D9
:1031800009223D4804F02CFCD2E7152201238DE8EA
:103190000C0022211D230922374804F021FCC7E737
:1031A00057F82300FFF700F9042CD4D1BBF1000F2E
:1031B0000CD000235C1CA34518464FF0000118D02A
:1031C000FFF7F0FC042C01D02346F3E711B0BDE873
:1031D000F08F08AB47F8249043F82450DCE6002534
:1031E000AB46049B98E5254B0D936DE5244B0E9360
:1031F00074E5FFF7C1FC2346DCE700BF10CE0100F9
:1032000014CE010018CE01001CCE01003CA5FF1F0A
:103210008CA3FF1FD0CD010058CD0100D8CD0100F7
:10322000DCCD010064CD0100E4CD0100E8CD01005A
:10323000F0CD0100F08EFF1F6CCD01005CCD0100D0
:10324000F8CD010070A3FF1FFCCD010074CD01007B
:1032500044BDFF1FD4A2FF1FE0A2FF1FBC8DFF1FB4
:103260008CCD01004CCD010094CD010098CD010022
:10327000A4A3FF1F4CFB0100ECA0FF1FB4CD010075
:10328000B8CD010048CD01002DE9F04FA9488BB021
:1032900002F048FA07F09EFAA74B186007F09AFA76
:1032A000A64A13681060C31A039304D0A44F7B7915
:1032B000002B40F0378503F083F8A248DFF8B0B266
:1032C00005F02CFBFEF78EFA9F4B1B78002B40F08D
:1032D00089809BF800309BF801209A4200F08280A0
:1032E0009A4A974F15689A4A009211468BF8013016
:1032F000DBF80420FA600123002D0B70C8BF002406
:1033000007DDA1B200229348013403F0C5FDA542B8
:10331000F7D1914B02931946012200230A708BF8D2
:1033200008308E48FDF7F8F805B206900DB3BDF9E8
:103330001A40854B05FB04F41B7804EB84042C44F1
:10334000002B00F0A3839BF801301C4484F302049B
:103350008BF80140FFF740F8814B824A1B680793C6
:10336000079B12688049013B9B1A0B60009B01225E
:103370001A707E48FDF740F9012800F06F8402289A
:1033800000F07283DFF8AC81D8F84C31D8F84821CE
:103390009B1A9B0800F09E80DFF804A2684F6548E6
:1033A00002F020F9FB68099007EB8303C5B2040E15
:1033B000A5F10B095B6EC0F3074600F04D810122B9
:1033C0000AF80520002D40F0A7815F4B1B78002BE9
:1033D00040F08D819BF80030032B34D8DFE803F0F8
:1033E0000A8F8F0A9BF80830614A002B00F049834E
:1033F000137875E75F4B1B785BB19DF82530022B86
:1034000000F0CD835C4B0193019B1B78002B40F0B7
:10341000CB80002E40F0F780002C00F02382002D9E
:1034200000F01D83B9F1010F40F229856B1EDAB25D
:10343000012A40F26E83514B9BF8022019682846FE
:10344000FEF7B6FE0026002C69D100230AF80530ED
:103450009AF80130002B66D0002E33D09BF8002064
:103460000126013AB2422DD8F868354C40F2CB2201
:1034700002FB007292F88E20520723D4002B40F0FA
:10348000E9819AF80230EBB9EB1E072B40F2EE848B
:103490000A2D17DD3A490B78A3B93A4A13788BB94C
:1034A00004EB8000009A436E3749167009EB031352
:1034B000364C374A0B60374B3748267016701E70F3
:1034C000FFF746FBD8F84C31D8F848219B1A9B08E7
:1034D0007FF465AF314C2068002805DD039BC01ADE
:1034E0000028206040F3E8849BF80030032B00F2B2
:1034F0007482DFE813F09202220222029202234C2D
:103500002378002B00F04E81224A1378002B40F0E4
:10351000B681002313702370009B012119709AF863
:103520000130002B98D11E4A9278002A94D11D4A6E
:10353000137091E7E8A3FF1F20A3FF1FE8A2FF1F5E
:103540003CA5FF1FECA0FF1FC4BCFF1F30D0010033
:103550009CBCFF1F68A2FF1F16BDFF1F54A3FF1FC7
:10356000E4CCFF1F3C8DFF1FC8BCFF1F84A2FF1FC0
:1035700090A3FF1F328DFF1F40BDFF1FB08DFF1FA7
:103580002CA3FF1F08A3FF1F6CA3FF1F34BDFF1F49
:1035900024A3FF1FC8A2FF1F7CCE010000BDFF1F98
:1035A000A4A2FF1F0CBDFF1F6EBB002C00F05A81B0
:1035B000B9F10F0F40F2D482012D00F06A87022D7D
:1035C000ADD0032D01F01E80042D01F0D080052D1B
:1035D00001F0FB80062D01F07482EB1F012B9ED9B8
:1035E000092D01F022840A2D7FF419AFB54B01217A
:1035F0001A680020FDF70EF9B24B002108461A6840
:10360000FDF740F98BE7002C40F0EC820126002DFD
:103610007FF41BAFAC4B1A780AB100221A7000225B
:103620001146AA4803F038FC00220121A74803F004
:1036300033FC00220221A54803F02EFC00220B21BE
:10364000A24803F029FC00220C21A04803F024FC2E
:1036500000230AF80530FBE69BF80030032B3FF609
:10366000F2AE01A252F823F0F533000079360000E3
:1036700079360000F5330000002D3FF4E6AEFB681C
:1036800040F2CB2202FB037393F88E20520700F125
:103690007D828F4B1B7823B98E490B78002B3FF42A
:1036A000D4AE8D4B1B68002B7FF7CFAE7B798B4A56
:1036B000002B00F06682874C2378002B3FF4C5AEC8
:1036C00087490B78002B3FF4C0AE019102F0E6F978
:1036D000FB68019907EB830300225B6A0A70002BE9
:1036E0007FF4B3AE237000230AF80530B0E6FFF78D
:1036F0002BF8FFF7B9F89BF80030032B3FF60FAF1C
:1037000001A252F823F000BFF5330000FF3400009F
:10371000FF340000F53300009BF80020032A3FF639
:1037200092AE01A151F822F0F533000039370000C4
:1037300039370000F53300006A4C227809EB031397
:10374000002A4DD062490A78002A00F0DF800B2D54
:1037500000F0EE831A2D00F0D282634B634A1B689F
:1037600052F8250062495C4A03EB430300EB8303F4
:10377000019300230B70156002F07CF90199037826
:10378000564A61F3060303707B79002B00F06E86C6
:10379000009A01231370002D7FF4C1AE2378002B13
:1037A0007FF4B2AE534B1A78AAB94A4B1A7892B941
:1037B000514B1A78002A40F030839AF80130002BE0
:1037C00000F0E48401234D483B74FFF7C1F9009AEF
:1037D00001231370A3E61D70009B01221A709EE660
:1037E000444A1278002A4FD13A490A78002A40F018
:1037F0007983F86840F2CB2202FB007292F88EE0E7
:103800001EF0040F40F0D4839AF801E0BEF1000FDF
:1038100007D03B4A927822B1374A4FF0010C82F828
:1038200000C06A1E012AB6D9EA1E072A00F279846E
:103830009AF80230BEF1000F00F06885002B40F0CE
:10384000688597F805E0254BBEF1000F01F0A080D8
:10385000FA609DE79AF80230002B3FF433AE264B16
:103860001E702FE6002D00F022829BF802102846E1
:10387000FEF7F8FC002300260AF80530E8E52149A8
:10388000154B0D601D6044E66B1E012B83D9EA1EAB
:10389000072A00F294829AF80130FA600F49002B4F
:1038A00040F06384164B9B78002B3FF471AF1046B9
:1038B000019103F029F801991348C9680131FFF714
:1038C00047F965E7AC8DFF1FE8BCFF1F68A2FF1F2B
:1038D000C8A2FF1F2CA3FF1FB8BCFF1F3CA5FF1FE2
:1038E000E4A2FF1F34BDFF1F70A3FF1F1CCF010008
:1038F00024A3FF1F08A3FF1F0CBDFF1F88CE0100DC
:10390000A4A2FF1F6CA3FF1F2CCE01006A1E012A78
:103910007FF641AFEA1E072A40F277820A2D7FF731
:103920003AAFB348B34A036001231370009A0B7097
:103930001370002D7FF4F3AD30E7AF4AD36840F247
:10394000CB2101FB032393F88E30590700F1F3825A
:10395000009B1B78002B4FD0A84B1B78002B3FD12E
:103960002368002B3CD1A64FDFF8EC823B78002B7C
:1039700000F0C785A34EA44BA4491A68A44881FB54
:103980000231D317C3EB6101036801EB8101511AC6
:10399000002B00F0F687012B01F01881022B01F0BB
:1039A000108198F80030002B40F0CF853378A3B118
:1039B000984B96491A68984881FB0231D317C3EB9C
:1039C0006101036801EB8101511A002B00F0AC8703
:1039D000012B02D10420FFF73DF9009B1B785BB15E
:1039E0008E4D8F4C2B6808938E4A089B2168126875
:1039F0005B1A9A42C0F09F81029B8B4C1B78002B74
:103A000040F04F81FCF7BCFE0028FBD1FDF72EFCF7
:103A10000028FBD10BB0BDE8F08FFEF713F8009B38
:103A20001B78002BE8D0754B1B78002BD8D17F4B2F
:103A300076491A687E4881FB0231D317C3EB6101D6
:103A4000006801EB8101511A0028C4D0012800F060
:103A5000A5860228C4D10B20FFF7FCF8BDE72E464F
:103A6000744B01221A705AE5664E3378002B00F031
:103A70002581614FF86802F0CFFE6F4B01221A706A
:103A80000AE16E4B0093684B02934AE45C4F3B782B
:103A9000002B40F05B81DFF8C08198F80030002BEC
:103AA00040F0D982574E3378002B00F096839BF874
:103AB0000030013B012B3FF65CAC564E3368002BC7
:103AC00000F04A86052B00F04786012B00F06B863C
:103AD000022B00F01587032B01F00A80062B01F062
:103AE0009080072B01F07980082B40F0158301F0BE
:103AF000C1FF457A01F0BEFF05F03F052C44232CA1
:103B0000437AA8BF232424EAE47464F305034372D0
:103B100002E3484A1278002A3FF48DAC012B3FF6AD
:103B200091AC424E46483368DFF8E0E0012D14BF07
:103B300001224FF0FF321A4482FB00011144D317D7
:103B4000C3EBE103C3EB0313D31A23EAE3738EFB46
:103B5000032137483360DA17C2EB6103036071E475
:103B6000384A12F8093083F0010302F80930681C62
:103B7000002B00F05581344B01211A68FCF74AFEF6
:103B8000CDE4D168284602F0D5F994E593F8851084
:103B900001F00F0101312846FEF764FB79E5002DA5
:103BA0007FF430AC294B019319461B7883F0010355
:103BB0000B70002B7FF4F8AC254B1B68012B1A46C9
:103BC0007FF727AC01230496059416461C46A1B244
:103BD00000222048013403F05FF9A642F7D1049E89
:103BE000059C11E42646002D3FF43AAF97E400BF50
:103BF0006CA3FF1F24A3FF1F3CA5FF1FC4BCFF1F16
:103C000034BDFF1F2CA3FF1FD8BCFF1F676666666D
:103C100084A3FF1FECA2FF1F98BCFF1FE4CCFF1F73
:103C2000C8BCFF1F3C8DFF1F16BDFF1F64A2FF1FF6
:103C30002CBDFF1FE8BCFF1FDDBCFF1F9CBCFF1F8E
:103C4000898888884CBDFF1FAC8DFF1F40BDFF1FBA
:103C500030D0010068A2FF1F08A3FF1F9BF80120BE
:103C60009BF80030BB489A4200F06881BA49097855
:103C7000002940F0DC805BB3032B40F0A881B748FB
:103C8000B74A0368013382FB0321DA17C2EB6102F2
:103C900002EB82029B1A0360009A01231370FFF764
:103CA00071BBB04803F012F800232370AAE6AE4BB4
:103CB0001A782E46002A7FF4B0ACB0E4A6499BF8EF
:103CC00000308BF8013001220A70FEF785FBE3E734
:103CD000A24CA6482268A24D013282FB0001114489
:103CE000D317C3EBE103C3EB0313D31A85FB032103
:103CF0009F482360DA17C2EB61030360CCE701231E
:103D00009C499D480A681344042BA8BF04236FF004
:103D1000040E7345B8BF73469A4203603FF438AD52
:103D20000B6035E5039C2046FDF7E8FC2046FDF7D7
:103D300009FDFFF7C0BA914804F0FCFE2B68099317
:103D4000099B009A23600023137055E69BF800300E
:103D5000013B012B3FF60DABDFF83C8298F80030B9
:103D6000002B40F07E81864E3378002B7FF4A5AE89
:103D7000844B1B78002B00F03B82834E37680A2F60
:103D800040F23A85A7F10B03022B05D8002DC1F2B2
:103D9000AF80012F00F0C087022F00F00485032FB1
:103DA00000F0A187042F00F08D87062F00F0AC876C
:103DB000072F00F05287082F40F0AE8197E60A2DBA
:103DC0007FF7E9ACFA6840F2CB2303FB027302F100
:103DD000080193F8840007EB8101A5F10B0E6EF347
:103DE000050083F884004868A5F10A0383423FF781
:103DF000CFAC48460192C1F8049002F0B9FC634B85
:103E0000019A03EB82035866C2E4FA60009A012328
:103E10001370002D7FF483ABC0E41D70FFF77FBBF0
:103E20005B4B31461A68FCF72DFDFFF778BB02703B
:103E300002F08EFC574B1D68002DC8BF002407DD23
:103E4000A1B200224748013403F026F8A542F7D179
:103E5000029901220A70404A00231370FEF7BCFA4F
:103E60009BF80030002B7FF407AF31E74A4A009BF4
:103E70004A481E701670FEF76BFEFFF723BB3A4BE5
:103E80001B78002B3FF4D7AA3A493B480A680B2D10
:103E900014BF01234FF0FF331344042BA8BF0423A6
:103EA0006FF00406B342B8BF3346934203603FF459
:103EB000C9AA0B60FFF7C6BA00989BF80030012131
:103EC000002201702260032B3FF68AAD01A252F856
:103ED00023F000BF1B3A00003B3900003B390000D3
:103EE0001B3A0000FB68234A2D4912682D4851F8FF
:103EF000251007EB830302EB42025B6A03602A4B47
:103F000001EB82021D60019201F0B4FD019A037879
:103F100062F3060303707B79002B00F0AF82234A23
:103F200001231370009A1370002D7FF4F8AA35E472
:103F30004FF0FF33E4E6FDF785FD09E5064A064943
:103F40001278002A3FF497AE00220A70002B7FF40B
:103F500093AEBDE690A3FF1FC4BCFF1F64A2FF1F6A
:103F60006766666668A2FF1FE8BCFF1F89888888AD
:103F70002CBDFF1F70A3FF1F04BDFF1FECA0FF1F80
:103F80002CA3FF1FC8A2FF1FD8BCFF1F3CA5FF1F0B
:103F9000AC8DFF1F30D0010008A3FF1FA0CE010091
:103FA0001CCF01006CA3FF1FB8BCFF1FE4A2FF1FC2
:103FB00092F88520B94B02F00F02013219682846A9
:103FC000FEF7F6F8002D7FF4AAAAFFF7E7BB013B46
:103FD000012B3FF661AEB24FDFF828833B78E3B1A7
:103FE000B04B1B78CBB198F80040002C40F04181D9
:103FF000AD4DAE482A68013282FB00011144D3174F
:10400000C3EBE103C3EB0313D31A092B2B6040F37B
:10401000B184A74B02221A603EE698F800100029EE
:1040200040F02781A34E3278002A00F0B082A24CE3
:10403000A24B2268013283FB0230D317C3EBA003EB
:1040400003EB8303A2EB4303042B23609C4B00F39D
:104050001D82196020E69BF80030013B012B3FF6E2
:1040600088A9984E33680A2B40F22E82022B00F06A
:10407000DB83032B2BD1DFF89082934FD8F800001D
:10408000002DACBF01214FF0FF31084400F10F02B9
:104090001E2AC8F8000005D8F86802F06FFB3368E4
:1040A000D8F80000FA6840F2CB2101FB027292F8C6
:1040B000842002F03F020132C2F10101814200F38B
:1040C0008C84013A8242A8BF0246C8F80020042B23
:1040D00000F00484062B40F0DD837B4FFA6840F249
:1040E000CB2101FB027180318B79097903F03F0309
:1040F0001B1901F03F0100F161858B42A8BF0B46FF
:1041000003F03F0340F2CB2101FB027292F88610CC
:1041100063F3050182F88610009A01231370FFF7FC
:1041200028B90A2D7FF737ABBEF1000F40F0F882B7
:104130009AF80220002A7FF42EAB03EB830203EBF4
:10414000420340F2CB2202FB00333B4493F8912020
:10415000C2F3001181F0010161F3041283F8912090
:10416000002D7FF4DCA9FFF719BB584B01919B7818
:104170001046002B00F0F38002F074FB01995448C4
:10418000C9680131FEF7E4FCFFF702BB4F4B9B7897
:104190005BB97B794C4A002B00F0DA82557102F052
:1041A00093FA02F0D5FAFFF7BAB9FB6840F2CB22D6
:1041B00002FB037303F1840293F88D30517A83F08C
:1041C0008003DB0963F3C7115172002B00F0C2803A
:1041D0004048FEF7BDFCFFF7FABA9BF80030032B0E
:1041E0003FF6C7A8DFE813F03F01F400F400C50074
:1041F000394D2E68204611F0FFFF314611F048FF7F
:104200003649044612F0EAF9002840F07881344932
:10421000204612F001FA00B1314C324B31462046B3
:104220001C6012F0D1F900287FF476AF2E4B2C6081
:104230001D68284611F0E0FF214612F031F80146D2
:104240002A4812F0E1F812F017FA294B29491860B0
:104250001A682B1EB8BF03339B1002FB03F30B60DD
:104260000868254C11F0C4FF244912F019F82060A9
:1042700052E7144C0D482268013282FB00011144C0
:10428000D317C3EBE103C3EB0313D31A092B23604A
:1042900040F376811A4B02221A60FDE4B08DFF1FB5
:1042A00034BDFF1FC8A2FF1FD8BCFF1F89888888A4
:1042B00084A3FF1F2CA3FF1FECA2FF1F6766666687
:1042C00098BCFF1FC0A2FF1F3CA5FF1FA4A2FF1F99
:1042D00038CE010090CE0100B48DFF1F00002042B7
:1042E0000000964380A2FF1F14CF0100C0E1644C80
:1042F000A0BCFF1F10BDFF1FD4BCFF1F6F12833A6D
:104300003CBDFF1F08A3FF1F8CA3FF1F002B3FF422
:104310009FAA40F2CB2303FB0273A91E93F88E30B1
:104320000192D8074CBFA448A448FEF711FC019A9B
:1043300040F2CB2303FB027202F1840192F88E302B
:104340001A46C3F3000383F0010363F300028A7289
:10435000FFF71EBA9A48FEF7FBFBFFF738BA02F0E8
:10436000C1FA01999748C9680131FEF7F1FBFFF7DF
:104370000FBA954E316859B9002DC0F2098607D0A1
:10438000924B9BF8022018687F21FCF7B3FA316842
:10439000009A012313700A2940F29F81012900F03D
:1043A0001F83062940F02E83894A13681C44002C81
:1043B00040F33185102C00F3AC83A3423FF4ACAE44
:1043C000012C146000F02C85824B01221A70A3E6A8
:1043D000814D2A68002A00F0C382052A00F0C082BD
:1043E000012A00F0C583022A00F00285032A00F0AA
:1043F000E684042A00F0A784062A00F09083072AA6
:1044000040F01084754FFD6840F2CB2303FB057329
:1044100093F8843003F03F0301332344002B40F32F
:10442000C085402BA8BF4023581E00F03F0005F177
:10443000080140F2CB2202FB057207EB810792F8DC
:104440008440796860F305048B4282F88440634CB1
:104450003FF762AE013B18467B6002F089F904EB3E
:104460008504606658E6584E316894E75C4BD26824
:104470001968284601F00EFDFFF78AB9584B574AD4
:104480001968D268284601F005FD48E501221A6046
:1044900002E4544B01950C241D4602E00134142C17
:1044A0000FD015F8012F002AF8D04F4B1A684FF0A3
:1044B000000320462B7000210134FCF7E3F9142C93
:1044C000EFD1019DFFF72BB840F22142DA40D2072D
:1044D0000BD546490A682244022AA8BF022222EAD2
:1044E000E27202EB82030A603360012B7FF4BEADFF
:1044F0003A4FFB68234483F30303FB600CE63C4C18
:104500008BE698F800303B4EFBB93378002B7FF4F4
:104510004DAA314B38491A68384881FB0231D3170C
:10452000C3EB6101036801EB8101511A002B00F01C
:104530006D84012B7FF43AAA0220FEF78BFB3B78B7
:10454000002B3FF42EAAFFF716BA2D4B2A491A6802
:10455000264881FB0231D317C3EB6101036801EBED
:104560008101511A002B00F0DA81012B00F04F83FA
:10457000022B7FF41BAA0820FEF76CFBFFF716BA8C
:10458000042B1A4B82DC00221A60FFF785BB124C09
:10459000194B2168013183FB0130CB17C3EBA0031A
:1045A00003EB8303A1EB4303042B2360134B3FF77F
:1045B0006DAF1A60FFF770BB54CE010060CE0100F2
:1045C00098CE010020CE010064A2FF1FF0CE0100B2
:1045D000BC8DFF1F50A3FF1F7CA3FF1F3CA5FF1F27
:1045E000B08DFF1F4BBDFF1FAC8DFF1F3CBDFF1FDC
:1045F000000020422CA3FF1F6766666604A3FF1F0E
:10460000C0A2FF1FCB4B012108461A68FCF702F934
:10461000282006F001F9C74B01211A680620FCF793
:10462000F9F8C44B31461A680620FCF72BF928200C
:1046300006F0F2F8BF4B01211A680420FCF7EAF8F3
:10464000BC4B31461A680420FCF71CF9282006F000
:10465000E3F8B84B01211A680420FCF7DBF8B54BEE
:1046600031461A680420FCF70DF9282006F0D4F82A
:10467000B04B01211A680420FCF7CCF8AD4B314651
:104680001A680420FCF7FEF8282006F0C5F8A94BAC
:1046900001211A680420FCF7BDF8A64B31461A68C0
:1046A0000420FCF7EFF8282006F0B6F8A14B012112
:1046B0001A680720FCF7AEF8282006F0ADF89D4BED
:1046C0001A6831460720FCF7DDF89A4B31461A6824
:1046D0000120FCF7D7F8FEF722BF40F22143CB4080
:1046E000D8070BD5944A13682344022BA8BF022392
:1046F00023EAE37303EB83011360316002297FF443
:104700004DAE9BF802201319002B40F30383102BAE
:10471000A8BF102393423FF4FFAC8BF80230FBE4B8
:104720009AF80230002B40F0AE81844B8449C3F8E4
:10473000009001230B70834A0099834823700B700B
:104740001370FEF705FA002D7EF4E9AEFFF726B8E8
:1047500001F0DEFFFEF7E3BE7C490A68224482F3E3
:10476000010202EB82030A603360FFF7AEB9714BBE
:10477000012108461A68FCF74DF8282006F04CF88D
:104780006C4B01211A680220FCF744F8282006F03F
:1047900043F8684B31461A68022094E70A20FEF776
:1047A00059FAFFF71AB96A4B6A491A681444042C7B
:1047B000A8BF04246FF004008442B8BF0446A2429C
:1047C0000C603FF4A9AC1C60A6E45A4B01210846DA
:1047D0001A68FCF71FF8282006F01EF8554B012137
:1047E0001A680320FCF716F8282006F015F8514B3C
:1047F00031461A68032066E740F22143FB40DB079D
:104800000BD5554A13682344022BA8BF022323EA81
:10481000E37303EB830713603760A7F10B03022BED
:104820003FF6B7AAFFF7B2BA4C4FD7F80C8040F268
:10483000CB2303FB087393F8843003F03F03013369
:104840002344002B40F3B781402BA8BF4023581EC0
:1048500000F03F0040F2CB2108F1080E01FB087187
:1048600007EB8E0E91F88470DEF8042060F30507E4
:10487000934281F88470394F3FF74EAC013B1846A4
:10488000CEF8043001F074FF07EB880733687866D0
:10489000FFF7EFBB072B40F08A80304FFA6840F2F9
:1048A000CB2101FB02718031CB79097903F03F0301
:1048B0001B1901F03F0100F17C8101318B42A8BF3F
:1048C0000B4603F03F0340F2CB2101FB027292F84A
:1048D000871063F3050182F887101DE41F4FFB6802
:1048E00040F2CB2202FB037393F8852002F00F0104
:1048F0000C4484F3040464F3030283F885200BE47E
:10490000002D40F3898101F0C9F83368134F0B493A
:10491000FA6807EB8202526A0A60FFF7DCB80620E9
:10492000FEF798F9FFF742B80920FEF793F9FFF771
:1049300054B800BFAC8DFF1F2CBDFF1F6CA3FF1F21
:1049400024A3FF1FC8A2FF1F7CCE010098BCFF1F3D
:1049500070A3FF1F04BDFF1F84A3FF1F3CA5FF1F03
:10496000C8490B68234483F3010303EB83020B6004
:104970002A6035E5042BC44B3FF788AD1C60FFF778
:104980008BB90320FEF766F998F80030FFF70BB8F3
:1049900003EB8500DA6003460122C0F818E0BB484B
:1049A000C3F858E00A70FEF7D3F8FEF7F1BE082B03
:1049B00040F0A782B64FFB6840F2CB2202FB0373A4
:1049C00093F8882002F03F010C4484F3040464F35C
:1049D000050283F88820FFF79FBB0A46FFF775BBE7
:1049E000AC4BAD491A681444042CA8BF04246FF0E2
:1049F00004008442B8BF044694420C607FF4E3AEE6
:104A0000FFF78ABB072936D0082940F04982A34F17
:104A1000A34B38681B78204480F307003860002BD4
:104A200000F03882DFF88092DFF89482D9F8002015
:104A3000D8F80030551C1344AB4202DAFFF76CBBC8
:104A400038682946FBF78EFFD9F80020D8F80030E7
:104A500001351344AB42F3DA31680B2940F03C8254
:104A6000904A13682344042BA8BF042323EAE3736A
:104A70001360FFF751BB8C4A1368234483F304038C
:104A80001360FFF749BB40F2CB2303FB0070804B60
:104A9000019390F8840000F03F0001F069FE814529
:104AA00005DC019BDA6803EB8203C3F86490A5F18F
:104AB0000A017E48FEF74CF8002D7EF430ADFEF77B
:104AC0006DBE7B4B019514241D4603E001341C2C64
:104AD0003FF4F7AC15F8012F002AF7D0754B1A6890
:104AE0004FF000032B7000212046FBF7CBFEEDE7D3
:104AF00000F0C0FF037803F07F0500F0BBFF2B1927
:104B0000027883F3070363F3060202703368FEF74B
:104B1000E5BF102B3FF400AB1023136054E45C4F4F
:104B2000FB6840F2CB2202FB037797F88E30C3F389
:104B300080031C1997F88E3000F1FF80012C40F3A0
:104B40004B8243F0040387F88E305B4B1D68002DC9
:104B5000C8BF002407DDA1B200225848013402F08A
:104B60009BF9A542F7D1029A01231370FFF7D4BA3B
:104B7000474FFB68234483F3030340F2CB2101FB3F
:104B80000371FB6091F88E3059077FF5C5AA4A4B37
:104B90001E68002E09DD0027B9B200224748013700
:104BA00002F07AF9BE42F7D12A68029901230B700C
:104BB00022E4002387E6002001234BE60023FFF7D1
:104BC000A1BA0520FEF746F8FEF7EBBE0420FEF77B
:104BD00041F898F80030FEF7E6BE00F04BFF027A8D
:104BE00002F07F0500F046FF2A19642A017A336833
:104BF000A8BF642222EAE27262F306010172FEF7A4
:104C000073BF204601F0B0F83368FEF76ABF072093
:104C1000FEF720F8FEF7CABE3FF478AE00F068FF5A
:104C2000336873E6082A40F0C081194FFB6840F2F0
:104C3000CB2202FB037303F1800293F88B1001F087
:104C40000F031C44062CA8BF062424EAE4740B4678
:104C500064F30303D372FFF75FBA00F00BFF037A2C
:104C600003F07F0500F006FF2B19642B027A3768EA
:104C7000A8BF642323EAE37363F306020272FFF71B
:104C80009AB800BF04A3FF1F84A3FF1F48CE0100F2
:104C90003CA5FF1F70A3FF1F04BDFF1F44BDFF1FE6
:104CA00050A3FF1FD0BCFF1FD4A2FF1F6CCE01007A
:104CB00053BDFF1FAC8DFF1F30D0010068A2FF1F46
:104CC000BC8DFF1F00F0D6FE837803F00F0500F0C7
:104CD000D1FE2B19827883F3040363F303028270FD
:104CE0003768FFF762B800F0C5FE437803F07F0530
:104CF00000F0C0FE2B19427883F3070363F306022A
:104D000042703768FFF74EB8204601F02DF837683B
:104D1000FFF74EB80123FDE400F0ACFE037803F08A
:104D20007F0500F0A7FE2B19027883F3070363F3D6
:104D3000060202703768FFF72FB86FF3820387F817
:104D40008E30FFF7E9B9A84D20462C6811F054FACF
:104D5000214611F09DF9A549064611F03FFC0028B7
:104D60002BD1A349304611F057FC00B1A04EA14B06
:104D7000214630461E6011F027FC00287FF4CCA9A4
:104D80009D4B2E601C68204611F036FA314611F01A
:104D900087FA0146994811F037FB11F06DFC984BEA
:104DA000984A1860002C1B68B8BF0334A41003FB9A
:104DB00004F414601068FFF754BA8C4ED7E7924F92
:104DC000924AFB6840F2CB2101FB037797F88D30C4
:104DD000184603F07F032344632BA8BF632323EA11
:104DE000E37363F30600137087F88D00FFF794B93F
:104DF000854F2146F86801F06DFC85492A680B68EB
:104E0000234403F306030B60FFF7F6BA0120FDF716
:104E100021FFFFF794BB012B3FF47EA90123136010
:104E20007C4B00221A70FFF777B97B4B01211A687F
:104E30000620FBF7EFFC784B01211A680720FBF7EF
:104E4000E9FC754B01211A680520FBF7E3FC724B66
:104E500001211A680420FBF7DDFC282005F0DCFCAA
:104E60006D4B00211A680620FBF70CFD6A4B0021F0
:104E70001A680720FBF706FD674B00211A6805201A
:104E8000FBF700FD644B00211A680420FBF7FAFCD5
:104E9000FEF745BB9BF80210FBF764FD3168DCE5CB
:104EA00009297FF4DAAD5D4D9BF802202B680021C3
:104EB000234483F3070308462B60FBF71BFD296897
:104EC0009BF802202020FBF715FD554B9BF80210A4
:104ED0001868FBF747FDBFE50C292BD1514A137821
:104EE000234483F3010303F001031370FFF714B9A4
:104EF00000F0C0FD3844FF2300F8083C3768FEF797
:104F000048BF092B1AD1404FFB6840F2CB2202FB6D
:104F1000037797F88C30194603F07F031C44642C08
:104F2000A8BF642424EAE47464F3060187F88C10B3
:104F3000FFF7F2B80D291BD13B4AD0E70B2B3FF40A
:104F400074AE0C2B7FF4E8A82F4FFB6840F2CB2205
:104F500002FB037797F88E301946C3F380031C4495
:104F600084F3010464F3820187F88E10FFF7D4B84C
:104F70000E297FF4D1A8284A13682344002B05DDAD
:104F8000102BA8BF10231360FFF7C6B80123FAE760
:104F9000264B9BF802201868FBF7ACFC3168FFF742
:104FA000F7B900200123FFF742BA092A7FF4B4A819
:104FB000154FFB6840F2CB2202FB037797F88E3047
:104FC0001946C3F3C0031C4484F3010464F3C30112
:104FD00087F88E10FFF7A0B864F3820387F88E304D
:104FE000002C3FF499A8B0E5B48DFF1F00002042CB
:104FF0000000964380A2FF1F14CF0100C0E1644C63
:10500000A0BCFF1F10BDFF1F3CA5FF1FD8A2FF1FA4
:10501000DCA2FF1F50A3FF1FAC8DFF1FE0A2FF1FEC
:1050200044BDFF1F09A3FF1F328DFF1FF0CE0100FB
:1050300070B5184D82B0284603F070FCB5F90C101D
:1050400001291FDD0022012694B2630068890196C0
:105050009BB2C91A09B2C31A1BB200910D4811467E
:1050600002F040FD0B4803F065FD012005F0D4FB84
:10507000B5F90C10023401EBD17322B243F34F03A4
:105080009342E1DC4FF4FA7002B0BDE8704005F0E5
:10509000C3BB00BFECA0FF1F9F48A04A2DE9F84FFB
:1050A00004689F4D9F4F40F2EE2613783BB12B785A
:1050B000DB0704D5036839685B1A0E2B08D8036830
:1050C00011781B1B002900F02081B3F5FA6FECD991
:1050D00001F054FC944C954F2060082007F020F814
:1050E000934A9449944B24683860944D944E954F5C
:1050F00004601660944C954A4760954808601A60B1
:105100002C6005F067FB934B934D186005F062FB34
:10511000924A934B14681860204611F06DF8914B39
:10512000DFF8A4921968DFF8A48211F0B9F80146FB
:105130008D4811F069F911F09FFA8C4B8C4A186078
:10514000002C1B68B8BF0334A41003FB04F41460E4
:10515000106811F04DF8874911F0A2F828600D2071
:1051600004F03EFF06F0CAFF0D2004F039FF13F0F3
:10517000F1FA0D2004F000FF4FF0814A4FF0844B0C
:105180000026382006F0CCFF4FF4806747600027E8
:10519000002507624FF00107764BC0F810A00122EE
:1051A0002946077580F82450044601F057FF724BDA
:1051B00049F8044B43F8265001364FF40053052EAE
:1051C000C4F810B048F8045B6360DAD1FBF758FA12
:1051D0000121172005F0F8FA684C694E0C23184697
:1051E000237005F0CDFA207810F006FC02460B463D
:1051F00000204FF0804107F081FD10F023FF614B4C
:1052000030804022294628201A6005F0BBF9FDF7BE
:10521000E1FA00287DD15C4B4A4F1B785B4E5C4D18
:105220005C4C5D495D4A78604FF0010E87F802E002
:105230003B705B4B5B4F0968126836682D682468C9
:105240001E605D609C60D9601A61F860FDF7FAF934
:10525000FDF77AFAFDF708FB534D544CFBF72AF99A
:105260002846A56003F05AFBFFF7E2FEC82005F0D0
:10527000D3FA284603F052FB04F10800012102F0A2
:105280001BFA002104F1080002F018FAFDF734F9C6
:10529000474804F0E5FB474801F0C4FC454801F0ED
:1052A00015FD454B4348197801F09AFE434B1D68A4
:1052B000002DC8BF00240DDDA1B2414A3D4801F0D8
:1052C000EBFD3C4801F002FD0134052005F0A4FA95
:1052D000AC42F1D10520FDF7E5F84FF4FA7005F086
:1052E0009BFA0022ABB21146324801F0DBFD314897
:1052F00001F0ECFC642005F08FFA2B4803F01AFC57
:10530000304B01221A70BDE8F88FB3427FF6CDAE64
:10531000DEE6FDF7DBFA9FE7E4CCFF1FD8CDFF1FE9
:1053200054CEFF1F60D1FF1F28A3FF1FC0BCFF1F6B
:1053300038CEFF1F3CCEFF1F08CEFF1F40CEFF1F01
:105340009513000090A3FF1F4115000031140000C9
:105350001514000020A3FF1FD4BCFF1F14CF0100B1
:10536000E8A2FF1FB48DFF1FC0E1644CA0BCFF1F6B
:1053700010BDFF1F6F12833A18BDFF1F74A3FF1FDC
:1053800014BDFF1F4CA3FF1F18CF010034D0010034
:10539000C0CF01003CD00100F8CE0100ECCE0100EE
:1053A0008C8EFF1F3CA5FF1FECA0FF1F9CA3FF1FBF
:1053B000F8A3FF1F68A2FF1FFCCE010030D0010040
:1053C000808080009CBCFF1F34A3FF1FECBCFF1F2C
:1053D000F0B400259DF810702C4602E00134202C1A
:1053E00010D0465D1435002EF8D104EB8404A400DF
:1053F000061901250555284671603361B26037737F
:10540000F0BC70470020F0BC704700BFF8B50E46F6
:1054100000F1100400F52475002702E01434AC42BA
:1054200015D014F8103C002BF8D02368B342F5D8FF
:1054300054F8082C54F80C0C0021FBF723FA14F84C
:10544000043C2BB904F8107C1434AC42E9D1F8BD0B
:105450000021172005F0A4F9F4E700BF4FF0FF3159
:10546000FFF7D4BFF0B400259DF814702C4602E07D
:105470000134202C12D0465D1835002EF8D104EBF3
:105480004404E40006190125055571600499716111
:105490002846B360F2603774F0BC70470020F0BC5F
:1054A000704700BF2DE9F0410E4600F1140400F5ED
:1054B0004575002702E01834AC421BD014F8143CA8
:1054C000002BF8D02368B342F5D854F80C2C54F8CC
:1054D000081C54F8100CFBF79DF914F8043C23B198
:1054E00054F8100C1838352806D904F8147C1834F0
:1054F000AC42E3D1BDE8F08110F07EFE084910F027
:10550000CFFE07F0D7FB01218046172005F048F9B0
:10551000404611F08BF80146282005F033F8E4E707
:1055200090759242002308491A46CA541433B3F5C1
:10553000207FFAD1002305491A46CA541833B3F51F
:10554000407FFAD1704700BF5CC0FF1F5CBDFF1FEA
:10555000F0B583B006460A9C0B98B160F2603460E7
:10556000002500941946706000FB04F40190099B2B
:10557000089A06F1100004F0A9F9C6F83051C6F8EF
:105580003451C6F838513CB3B4F1805F28D22701BA
:10559000384606F0C5FDC219C6F83821C6F83001F4
:1055A000C6F834012B4608B103718360013C00F159
:1055B0001000F8D100233046C6F83421C6F83C313B
:1055C000C6F84031C6F84431C6F84831C6F84C3107
:1055D000C6F8503103B0F0BDC6F838412246E9E7BD
:1055E00008F04AFC10B4D0F84C21D0F84831D31A56
:1055F0009B1083B034D052F8043DC0F84C21DA78C7
:105600009978FAB91C7958788DF8061000218DF830
:10561000072099608DF805408DF804009DF804403E
:105620009DF805109DF806209DF80730002064F3D2
:10563000070061F30F2062F3174063F31F6003B0AC
:1056400010BC70470029DDD118795A788DF8061002
:1056500001238DF805008DF804208DF80730DDE773
:105660008DF804308DF805308DF806308DF8073050
:10567000D4E700BF2DE9F8434468D0F80080C8EBB8
:105680000405AD100646894605D06B009D4229D918
:105690006FF0030500E00425284606F041FD74681C
:1056A000D6F800800746C8EB0404D9F80030E7427A
:1056B00018BF3B51A3080DD104343C44B8F1000F8E
:1056C00002D0404606F02EFD3D44B5603760746060
:1056D000BDE8F883224641463846043412F062FFA2
:1056E0003C44EEE7B3F1804FD2D213B91D461F46BA
:1056F000D9E7ED00D0E700BF38B543680C46043168
:105700008B42054602D05A1A900803D1043B6B60C5
:10571000204638BD204612F045FF6B68043B6B60A5
:10572000204638BD2DE9F04300F1100583B0044652
:10573000284604F0EFF85A4B1B680193019E04F5CC
:10574000A4780127284604F0BDF9002849D028464E
:1057500004F0C4F96268D4F830C1C0F30743C0F361
:10576000076113FB0212D2B24FEA0219C0F3072EEF
:105770000CEB09035FFA8EF1009300296DD001292B
:10578000E0D19968B9B958700CF80920E068DA6876
:105790009970301A824238BF1971D4F84021D4F878
:1057A00044118A426ED01AB11360D4F84021009B94
:1057B0000432C4F84021D4F84C21D4F850119E6032
:1057C00000208A42DF70987057D012B11360D4F86D
:1057D0004C210432C4F84C21284604F073F9002807
:1057E000B5D1D4F83C51D4F840114B1B9B0831D0B3
:1057F000E768A3688D42A6EB0707A6EB030629D04E
:1058000004F59E784FF0010905E09B689F4219D886
:1058100004358D421ED02B680093DA78002AF4D02C
:105820009A689642F4D9D4F84C21D4F8501183F8F0
:1058300002908A422DD012B11360D4F84C21043268
:10584000C4F84C2129464046FFF756FFD4F84011D2
:105850008D42E0D103B0BDE8F0831A79997883F8DE
:1058600003E00132DE601A7109B183F802E0D4F876
:105870004C21D4F850118A42A7D169464046FFF71F
:10588000F9FE5FE7694604F59E70FFF7F3FE009BA3
:1058900091E7694604F5A470FFF7ECFED2E700BF7C
:1058A000E4CCFF1FF8B5134C134B0020A4F12406E1
:1058B000014640F2CB2703F5807243F8041F934260
:1058C000FBD107FB0065013095F88D30DB091CBF6B
:1058D00095F8843003F03F030828236004F10404A2
:1058E0001346E8D1FAF73CFFFAF71AFF00233374A6
:1058F000F8BD00BF60A5FF1FD8C2FF1F2DE9F84308
:10590000044604F067FF064604F064FF41F25C724F
:1059100005460021204612F0A9FE64217F22E161A4
:10592000226224202623252127226064A364E164C7
:1059300022652A202E233121332241F2461E606542
:10594000A365E16501230F212266032002224FF0A7
:10595000040C84F8E608E37104EB0E00237484F869
:105960008A3084F88C3084F8503384F8553384F8C6
:10597000573384F8203684F8223684F8EB3884F8DC
:10598000ED3884F8841084F84F1384F81A1684F8DC
:10599000E51884F8B01B84F88B2084F8562384F82B
:1059A0001B2684F8212684F8EC2884F8B1CB4FF02C
:1059B000050C84F8B63B84F8B72B84F8B83B84F820
:1059C000813E84F8822E84F8833E84F87CCE41F2B6
:1059D000114704F80E104FF0060E84F87B1E80F875
:1059E00001E08371C2710372E019E15541F2E46193
:1059F0008371037207234370C27104F5B85E65506A
:105A000004F5B95241F2047741F2107041F2147179
:105A100041F22473E5516550CEF8006026501660BF
:105A200004F5BA50E55004F5B75941F2F06841F277
:105A3000F46C41F2307E41F2347741F2447141F22C
:105A4000507241F254730660C9F8006044F808606F
:105A500044F80C5044F80E60E55165502046A650BD
:105A6000E550BDE8F88300BF002840F2CB2018BF06
:105A7000BB207047074B08491A68CB6802EB8200CD
:105A800002EB400240F2CB2000FB0323C8188F300A
:105A9000704700BF6CA3FF1F3CA5FF1F13490020E8
:105AA000F0B4A1F12006074640F2CB2508E0002B18
:105AB000B8BF04F1100301301B1108280B6412D089
:105AC00051F8044F05FB0062631C0B6092F88420C0
:105AD00002F03F0201329342E9DB01300023082843
