:1000000000800020BD010000D5750100A175010030
:10001000A1750100A1750100A1750100A175010084
:10002000A1750100A1750100A1750100D575010040
:10003000D5750100A1750100A7670100D96701000E
:10004000D5750100D5750100D5750100D575010084
:10005000D5750100D5750100D5750100D575010074
:10006000D5750100D5750100D5750100D575010064
:10007000D5750100D5750100D5750100D575010054
:10008000D5750100D5750100D5750100D575010044
:10009000D5750100D5750100D5750100D575010034
:1000A000058B01000D8B0100D5750100D575010090
:1000B000D5750100D5750100D5750100D575010014
:1000C000D5750100D5750100D5750100D575010004
:1000D000D5750100D5750100D5750100D5750100F4
:1000E000D5750100D5750100D5750100D5750100E4
:1000F000D5750100615F0100D57501009D600100AB
:10010000D575010069610100D5750100D575010043
:10011000D5750100D5750100D5750100D5750100B3
:10012000D5750100D5750100D5750100D5750100A3
:10013000D5750100D5750100D5750100D575010093
:10014000D5750100D5750100D5750100D575010083
:10015000D5750100D5750100D5750100D575010073
:10016000D5750100516F0100D5750100D5750100ED
:10017000D5750100D5750100D5750100D575010053
:10018000D5750100D5750100D5750100D575010043
:10019000D5750100D5750100D5750100D575010033
:1001A000D5750100D5750100D5750100D575010023
:1001B000D5750100D5750100D575010008B55B4BFB
:1001C0004CF22052DA814DF62812DA8100BF00BFCE
:1001D00010221A80A3F520434FF010621A63544A8C
:1001E0009A63544ADA63544A136913F4807302BF62
:1001F00053614FF4A8531361504B9A78100748BFCE
:100200009A784F4844BF42F008029A704D4B2A2218
:100210001A704D4BDA1C121AC11E22F003029942C9
:1002200088BF0022494920F0A3FB494B4948DA1C0A
:10023000121AC11E22F00302994288BF0022002137
:1002400021F002FD444945484FF4DE7220F090FB56
:10025000434B444A802103F8011B9342FBD14FF0EA
:10026000E0233E4AC3F8082D3F4B8A221A70A3F5BB
:10027000805324225A70A0221A709A799107FCD5D3
:100280009A79D206FCD4394B9A7902F00C02082AEA
:10029000FAD105221A7143225A719A799406FCD533
:1002A00032498B795806FCD5314B4FF081725A6434
:1002B00005229A6420220A708A7902F00C020C2A24
:1002C000FAD12C4A5A604FF0E0232B4A5A6100249D
:1002D00007229C611A61294AC3F8202D62B616F0E4
:1002E0005CFD154B5A69D20709D5254A5C615C60F3
:1002F0001A6010225A6103F58053224ADA61224BB8
:100300001B785B060DD521491E4BCA699A4208D15C
:10031000094B1B4800225A615A601860102058612E
:10032000CA6121F0B1FC19F073FD00BF0020054047
:10033000823F04000100002B00D0034000D00740A2
:100340002C8CFF1F00E007402C96FF1FCCCE020034
:10035000901600203096FF1F000000000082FF1F53
:1003600000E400E05FE400E000500640004006408A
:1003700000800440C01005003F190100000020204B
:10038000DC99C468A5C3945A00F0074000E003401C
:10039000FFFFFFFFFFFFFFFFFFFFFFFFFFFFFFFF6D
:1003A000FFFFFFFFFFFFFFFFFFFFFFFFFFFFFFFF5D
:1003B000FFFFFFFFFFFFFFFFFFFFFFFFFFFFFFFF4D
:1003C000FFFFFFFFFFFFFFFFFFFFFFFFFFFFFFFF3D
:1003D000FFFFFFFFFFFFFFFFFFFFFFFFFFFFFFFF2D
:1003E000FFFFFFFFFFFFFFFFFFFFFFFFFFFFFFFF1D
:1003F000FFFFFFFFFFFFFFFFFFFFFFFFFFFFFFFF0D
:10040000FFFFFFFFFFFFFFFFFFFFFFFFDEF9FFFF23
:100410000548064B1B1AD90F01EBA301491002D066
:10042000034B03B1184770472C96FF1F2C96FF1FF4
:100430000000000008B5054B1BB105490548AFF3A6
:100440000080BDE80840FFF7E3BF00BF00000000E8
:100450003096FF1FCCCE020001207047002070476D
:1004600070477047704770477047704770477047D4
:10047000704782B002AB03E9060002B0704700206B
:100480007047F8B505460C468F180026BC4201D1CE
:100490003046F8BD2B6814F8011B1B6828469847A6
:1004A0000644F3E74FF4006070474FF4FA4070479A
:1004B000064A117852789142D0B23CBF044A126881
:1004C000CBB238BF9B18181A704700BF4896FF1F61
:1004D0002C8DFF1F70B5144A147853789C42E1B2FA
:1004E000D8B21DD0114C2568431CAB4212D23F2B11
:1004F00012D8D0188078DEB25670926CC0B242B179
:10050000994238BF4919CB1A61688B4201D8002340
:10051000137070BD0023ECE7566C3F38305CEAE79F
:100520004FF0FF30F5E700BF4896FF1F2C8DFF1FEF
:10053000F0B50B4F04460D4606460FCF0FC63B687D
:1005400033606B7823702B78A370AB7863702B7952
:100550006372EB7823726B7923742046F0BD00BF81
:10056000984B0200C0B2C9B2884282B02CBF0020B2
:10057000012002B0704737B50B460568096904468B
:10058000D8688DE8030020460ECBD5F88850A847E0
:1005900003B030BD0A20704700487047BC440200D9
:1005A00000487047C0440200FF2380F8BE30704707
:1005B000704790F8403010B5DBB990F83A30C3B9C5
:1005C00090F83920A0F8E430012180F83A1080F842
:1005D000B03080F8E13080F8E23052B9054B428704
:1005E000D3F88420DC6FC4630A44A0F84010C3F839
:1005F000842010BD4896FF1F2DE9F043836F466F9E
:100600009B1B022B2ADD90F9E220D0F85CE090F9E8
:10061000B0505F1002EB630292FBF7F307FB13226B
:10062000036EA3EB0E035910134616F81380002433
:100630005FFA84FC8C4504D390F8BC4084B9013B3C
:100640000FE01EF81C90C14504F10104F0D165468D
:1006500090F9E1309D4201D080F8B050BDE8F083C0
:100660000133002BF4DBBB42F2DA9342DDD1EFE73A
:1006700090F83A3010B51BB390F83130114A124C53
:10068000B2F8821043F3040313F0800F14BF92F802
:100690008C30DBB223441C7D4FF4C073B3FBF4F306
:1006A000B1FBF3F403FB141353B9D16F4387D2F8B2
:1006B0008430C16301210B44A0F84010C2F884309B
:1006C00010BD00BF4896FF1F984B0200B0F8AE3037
:1006D00023F4F85323F01F03A0F8AE30B0F8B03085
:1006E00023F47F6323F00F03A0F8B03090F8B2300A
:1006F0006FF3040380F8B2304FF68173A0F8C23074
:10070000FF2380F83830012380F8BC30002380F8C4
:10071000E43080F8E13080F8E230704708B5064AEE
:1007200092F8B0203AB990F8403023B1FFF7CEFFED
:10073000BDE808403DE708BD4896FF1F90F88C10C3
:1007400090F8AE3001F00F0103F01F0310B5013136
:10075000044601330120B3FBF1F201FB12322244C3
:1007600092F88D2002F00F02022A05D1421CD0B26D
:10077000102803F10103EED110BD2DE9F0419C4694
:1007800093B27F2B88B00446884615463ED8214F49
:100790000FCF03AE0FC63B6833609DF8383094F836
:1007A00034008DF80FC00133EDB28DF80C308DF8A8
:1007B0000D508DF80E5020F0DFFE174920F034FF69
:1007C0004FF083410546D4F8C80020F02DFF0146C4
:1007D000284620F029FF054694F8B50020F0CCFE0D
:1007E0000146284620F020FFE38EADF81430CDF806
:1007F000188008AB049013E903008DE80300256816
:1008000003AB0ECBD5F888502046A84708B0BDE80A
:10081000F08100BF984B02000AD7233C90F90B00EF
:100820000428D4BF00200120704782B002AB03E946
:10083000060002B07047F0B58DB00E46054617466B
:1008400010240DF11E010B1B013C1A786FF30302FB
:100850001A70F8D1019BEA6A286B95F834108DF86C
:100860000C1003F0803322F0004222F0801223F4B7
:10087000004313430193029A1B4B13401B4A02404F
:100880001343029395F88C309DF80D20C3F30303B6
:1008900063F3030295F89D308DF80D209DF81E201E
:1008A000C3F3030363F3030205F18D018DF81E20EA
:1008B0000DF10E00102220F05BF805F19E011022D0
:1008C0000DF11F0020F054F801AD3B6815F8012B25
:1008D0005B6831193846013498472B2CF5D106F165
:1008E0002B000DB0F0BD00BFF0E0F0C00F1F0F3FB8
:1008F00003684268934218BF4360704708B54FF4DD
:100900008073014643874430FFF7F2FF01F1500046
:10091000FFF7EEFF01F15C00FFF7EAFF01F168006D
:10092000FFF7E6FFD1F88030D1F88420934218BF5A
:10093000C1F88430FF2381F8BE3008BD82B002AB1D
:1009400003E9060002B07047704770470120704706
:1009500000487047C444020000487047CB4402007E
:10096000037BC27A82B01343019112D1BDF90420F6
:10097000BDF8063013FB02F303EB8303134490F836
:100980002C201344642BA8BF642323EAE37380F86C
:100990002C30034B012283F8402102B0704700BF86
:1009A0004896FF1F38B5136805460C4610465B682D
:1009B00095F82C209847601C38BD38B5136805465B
:1009C0009B6810460C4698476428A8BF642085F8A9
:1009D0002C00601C38BD052070470148704700BFDF
:1009E0001846020000487047CF44020070470620B6
:1009F00070470148704700BFD44402000048704768
:100A0000DF44020037B590F90B5090F90C400AB260
:100A10000B1403FB0223FDB974B990F82C20134486
:100A200083F3010303F0010380F82C30144B0122FF
:100A300083F8402103B030BD013C204490F92D20C3
:100A400013447F2BA8BF7F236FF07D029342B8BF72
:100A5000134680F82D30E9E7012D01D10334ECE78E
:100A6000022DE3D19A1A03EB820390F83420134449
:100A7000642BA8BF642323EAE37380F83430D5E7FE
:100A80004896FF1FF8B5136815465B6890F8342048
:100A9000044628460E4698472B6814F82C2F5B68AE
:100AA000711C28469847B71C09362B6814F8012F8B
:100AB0005B683946284601379847B742F5D1384632
:100AC000F8BDF8B5136804469B6810460E461546F7
:100AD000984784F834002B68711C9B682846984717
:100AE000003818BF012004F82C0FB71C09362B68FA
:100AF00039469B68284698470137B74204F8010FEA
:100B0000F5D13846F8BD00207047C1717047427971
:100B100041718A4205D0036809B19B6F1847DB6FAA
:100B2000FCE770470368017109B11B6F18475B6FE1
:100B3000FCE7007970470346007A10B1987980F09D
:100B40000100704713B5036801911B6D0446984777
:100B5000236838B1D3F880300199204602B0BDE84F
:100B600010401847D3F88430F6E781717047037A54
:100B700083F001030372024B012283F84021704786
:100B80004896FF1F84B073B507AC84E80E00066872
:100B90000B9905460A988DE80300284694E80E0054
:100BA000D6F88840A04702B0BDE8704004B0704756
:100BB00082B08DE80C0002B07047426281627047DB
:100BC00084B073B5466A07AC84E80E00054646B1AA
:100BD0000B990A988DE80300304694E80E00AC6A41
:100BE000A04702B0BDE8704004B0704770B58AB04D
:100BF00002AB83E8060005AD0268044619462846A4
:100C0000D2F89060FFF794FC0AAB13E903008DE87B
:100C10000300204695E80E00B0470AB070BD84B0CE
:100C200073B507AC84E80E00466A00238DF81F30C8
:100C3000012305468DF82D3046B10B990A988DE8B1
:100C40000300304694E80E00AC6AA04702B0BDE84D
:100C5000704004B0704708467047704708207047DE
:100C600000487047E444020000487047EE44020028
:100C7000037BC27A82B01343019112D1BDF90420E3
:100C8000BDF8063013FB02F303EB8303134490F823
:100C90002C201344642BA8BF642323EAE37380F859
:100CA0002C30034B012283F8402102B0704700BF73
:100CB0004896FF1F38B5136805460C4610465B681A
:100CC00095F82C209847601C38BD38B51368054648
:100CD0009B6810460C46984785F82C00601C38BD70
:100CE000F0B502460023FF26957BFF2D0CD003EBC9
:100CF000430404440F78247B04F01F04BC4203D156
:100D00008C78AC4208BF96730133082B02F10302C2
:100D1000EAD1F0BD00F11802FF23837380F826307A
:100D200003309042F9D1704708B501464430FFF7CF
:100D3000DFFD01F15000FFF7DBFD01F15C00FFF783
:100D4000D7FD01F16800FFF7D3FD0846FFF7BEFCB1
:100D5000BDE8084001F1E800DCE70346006808B19F
:100D60005B68184770472DE9F8434D7C06460C46F2
:100D70004DB3002780463A464FF0FF0998F80E1011
:100D8000FF2915D007EB4703334420781B7B03F082
:100D90001F0383420CD1A3788B4209D198F80D3000
:100DA000637021463046FFF7D8FF88F80E902A4638
:100DB0000137082F08F10308E0D1D2B921463046A7
:100DC000BDE8F843C9E72B4600F10E0103EB4302EF
:100DD000885CFF280AD1B31821781A7B61F30402DA
:100DE0001A73A2789A7362785A73E7E70133082B73
:100DF000ECD1BDE8F8830346006808B19B6818474A
:100E000070474B7C2DE9F04105460C4623B307465D
:100E100000264FF0FF0897F82620FF2A15D006EB92
:100E200046032B44217893F8243003F01F038B42B0
:100E30000BD1A378934208D197F8253063702146EF
:100E40002846FFF7D8FF87F826800136082E07F1DD
:100E50000307E0D1BDE8F08100F1260103EB430276
:100E6000885CFF2812D1AB18217893F8242061F315
:100E7000040283F82420A27883F82620627883F87D
:100E8000252021462846BDE8F041B4E70133082B70
:100E9000E4D1DFE738B50B7C05460C460BB94B7C3B
:100EA00053B121462846FFF7ACFF637C3BB1214696
:100EB0002846BDE8384056E7BDE838409BE738BDD6
:100EC0000A7C38B54B7C05460C461AB91BB9BDE8FF
:100ED000384042E71BB121462846FFF792FF2146E2
:100EE0002846BDE838403EE7032070470048704779
:100EF000F344020000487047FE44020037B50B146B
:100F00000AB290F90B1090F90C4003FB022303295D
:100F100013D8DFE801F00218569774B990F834102E
:100F200001F07F021344642BA8BF642323EAE37318
:100F30000A4663F3060280F83420544B012283F8FA
:100F4000402103B030BD032CF7D8DFE804F00212D3
:100F50001E2E90F82C1001F00F0213440C2BA8BF8A
:100F60000C2323EAE3730A4663F3030280F82C2080
:100F7000E3E790F82C2003EB12130C2BA8BF0C23F3
:100F800023EAE37363F30712F0E790F82D1001F002
:100F90000F0213440C2BA8BF0C2323EAE3730A4669
:100FA00063F3030280F82D20C7E790F82D2003EBB0
:100FB00012130C2BA8BF0C2323EAE37363F307126D
:100FC000F0E79A1A03EB8202032CB6D8DFE804F0AC
:100FD000020E1A2A90F82E3003F07F010A4482F3A1
:100FE000070262F3060380F82E30A6E790F82F3050
:100FF00003F07F010A4482F3070262F3060380F8DC
:101000002F309AE790F8301001F07F031344642BDF
:10101000A8BF642323EAE3730A4663F3060280F859
:1010200030208AE790F8311001F01F021344102B92
:10103000A8BF102323EAE3730A4663F3040280F88F
:1010400031207AE794B1012C7FF477AF90F8331018
:1010500001F01F021344102BA8BF102323EAE373EF
:101060000A4663F3040280F8332066E790F83210F2
:1010700001F01F021344102BA8BF102323EAE373CF
:101080000A4663F3040280F8322056E74896FF1FB1
:10109000431E0F2B9FBF044BC0F1100053FA80F08A
:1010A000007D88BF00207047984B0200F0B585B0E6
:1010B000C56A164B1746019A25F00045134025F4E2
:1010C00000052B430193029B114A0E4690F8341001
:1010D000006B03F0E03323F06003024013430293FC
:1010E0009DF80C3061F306038DF80C30002401AD3F
:1010F0003B6815F8012B5B68311938460134984775
:10110000092CF5D106F1090005B0F0BD0000808082
:101110007F1F1F1F2DE9FF41002405460F46904603
:10112000019402948DF80C4001AED8F800303919C2
:101130009B68404698470134092C06F8010BF4D10E
:10114000EA6A104B02989DF80C101340019A22F0A5
:10115000004222F400021343EB622B6B0A4A03F0B5
:10116000E033024023F0600313432B6395F83430DF
:1011700007F1090061F3060385F8343004B0BDE8D7
:10118000F08100BF000080807F1F1F1F37B50B4616
:10119000056809690446D8688DE8030020460ECB2F
:1011A000D5F88850A84703B030BD092070470148E2
:1011B000704700BF0345020000487047D647020051
:1011C000632808B50BD820F0D7F90E4920F02CFA87
:1011D0000D4920F0DDFA0D4920F01EF908BD642804
:1011E0000DD020F0C9F9084920F014F9084920F081
:1011F0001BFA084920F0CCFA4FF07E51ECE74FF093
:101200007E50EBE76666663F0000C842CDCCCC3D21
:101210000000444200001B4390F83A3070B5044689
:10122000DBB990F82E3043F3C4035BB2002B15DA20
:101230004FF07E53C36390F83000FFF7C1FF606545
:1012400094F83700FFF7BCFFA06594F83800FFF76B
:10125000B7FFE065012384F83A3070BD124D2B448E
:10126000187D20F089F901464FF07E5020F090FA69
:1012700094F83660E06306F00F032B4405EB161577
:10128000187D20F079F901464FF07E5020F080FA69
:10129000E064287D20F070F901464FF07E5020F088
:1012A00077FA2065D6E700BF984B0200F0B51646E6
:1012B00090F82C4090F82D2090F8383002F03F0242
:1012C00004F07F0444EA022490F82E2044EA024409
:1012D00090F82F2085B002F01F0244EA02640D4608
:1012E0001B4A00998DF80D300A401443016B019A96
:1012F000009421F0004102F000420A43BDF808408A
:101300000192828E04F0800422F08002144390F84F
:101310003620ADF80840C2F30301C2F303128DF882
:101320000B2090F837208DF80A108DF80C2000243F
:101330006F46336817F8012B5B6829193046013472
:1013400098470E2CF5D105F10E0005B0F0BD00BF99
:1013500080C000E010B5044690F83000FFF730FF81
:10136000606594F8330000F07F0020F009F910491F
:1013700020F00EFA606494F8340000F07F0020F052
:10138000FFF80B4920F004FA94F82F30A06443F3DF
:1013900004035BB25A1CB4BF0023012384F841301C
:1013A000002384F83A302046BDE8104034E700BFFF
:1013B0000000C84290F82E3001F0070270B503F02B
:1013C000070662F3020380F82E3003F00703012BB7
:1013D00004460D4612D1D0F89C10D0F8A0309942A6
:1013E00015D194F839302BB11349D1F88430013B31
:1013F000C1F88430002384F8393008E0032B04D18D
:10140000D0F8A010D0F89C30E9E7002BE9D0012AF1
:1014100003D823682046DB6C9847AE420BD055B901
:10142000204684F83950FFF795FF23682046DB6C8F
:10143000BDE87040184770BD4896FF1F37B5019151
:10144000044690F90C2011FB21F000FA81F300EB27
:10145000800000FA81F194F90B0004280FD8DFE82E
:1014600000F003145581BB004AB994F82C201344B2
:10147000642BA8BF642323EAE37384F82C30774BF2
:10148000012283F8402103B030BD032AF7D8DFE8FA
:1014900002F00211253194F82E1001F007011944D1
:1014A0000429A8BF042121EAE171C9B22046FFF74F
:1014B00081FFE4E794F82E1041F3C40243FA82F36B
:1014C0000F2BA8BF0F2343EAE3730A4663F3C70257
:1014D00084F82E20002384F83A30D0E794F83000C6
:1014E000084480F30800C0B284F83000FFF768FEBB
:1014F0006065EFE794F831300B44C82BA8BFC823D0
:10150000022BB8BF022384F83130B8E772B1012A48
:10151000B5D194F82D2002F03F01194481F3060162
:10152000134661F3050384F82D30A8E794F82F10D3
:1015300041F3040243FA82F30F2B6FF00102A8BFBC
:101540000F239342B8BF134643F304030A4663F3E1
:10155000040284F82F205A1CB4BF0023012384F80E
:1015600041308CE7012A0DD0022A20D0002A86D1F2
:1015700094F83220134483F3010303F0010384F849
:1015800032307CE794F8333003F07F00084464285D
:10159000A8BF642020EAE07060F3060384F83330CB
:1015A0001FF0EEFF2E4920F0F3F8606467E794F82F
:1015B000343003F07F0008446428A8BF642020EA88
:1015C000E07060F3060384F834301FF0D9FF24493B
:1015D00020F0DEF8A06452E7012A0ED0022A25D0BE
:1015E000002A7FF44CAF94F83520134483F30103B1
:1015F00003F0010384F8353041E794F82E20D20936
:1016000007D094F837300B4483F3080384F837305D
:1016100060E794F8362002F00F01194481F30401C9
:10162000134661F3030384F8363053E794F82E2011
:10163000D20907D094F838300B4483F3080384F8B8
:10164000383047E794F8362003EB121383F3040392
:1016500063F3071284F836203CE700BF4896FF1F6B
:101660000000C8422DE9FF4104460D469046002186
:101670000E22684620F0E8FA00276E46D8F80030BF
:10168000E9199B684046984701370E2F06F8010B71
:10169000F4D19DF8003094F82D20C3F3060384F8AC
:1016A0002C309DF80130C3F3050363F30502E38D8D
:1016B00084F82D20BDF8022023F4FF53C2F30C025E
:1016C00023F01F031343E385019A236B22F00042AA
:1016D00003F0004313432363BDF80820A38E22F0D8
:1016E000800203F080031343A3869DF80A309DF81F
:1016F0000B2003F00F0343EA021384F836309DF801
:101700000C3084F837309DF80D3084F8383020469E
:10171000FFF720FE23682046DB6C984705F10E009A
:1017200004B0BDE8F08103684268934218BF43608B
:101730007047014608B59C30FFF7F5FF01F1C00086
:10174000FFF7F1FF01F1A800FFF7EDFF01F1B40091
:10175000FFF7E9FFD1F8CC30D1F8D020934218BF81
:10176000C1F8D03001F16000BDE80840FFF7D2BAFF
:101770007047072070470148704700BF0A450200C4
:10178000004870471145020070B5136814460646BC
:1017900090F82C205B6820460D469847236896F801
:1017A0002D205B68691C20469847236896F82E20F8
:1017B0005B68A91C20469847236896F82F205B6831
:1017C0002046E91C9847281D70BD704704207047CB
:1017D0000048704716450200004870471F45020048
:1017E00010B508461446114617F044FC204610BDBB
:1017F0000846114617F0F8BC07B58DF807100DF133
:101800000700012117F0F0FC03B05DF804FB10B5F0
:10181000044620F053FC204610BD10B5044620F0CD
:101820004DFC204610BD10B5044620F047FC204674
:1018300010BD10B5044620F041FC204610BD10B587
:10184000044620F03BFC204610BD10B5044620F0B5
:1018500035FC204610BD10B5044620F02FFC204674
:1018600010BD10B5044620F029FC204610BD10B56F
:10187000044620F023FC204610BD10B50446D0F8E5
:101880002C0108B120F01AFC204610BD10B504460A
:10189000FFF7F3FF204620F011FC204610BD10B5E5
:1018A000044620F00BFC204610BD10B5044620F085
:1018B00005FC204610BD10B50446406C08B120F070
:1018C000FDFBA06B08B120F0F9FB204610BD10B560
:1018D0000446FFF7F0FF204620F0F0FB204610BD45
:1018E00010B5044620F0EAFB204610BD10B50446B2
:1018F00020F0E4FB204610BD2DE9F041104F97F891
:10190000313104460D4616461BB1034690201CF0AB
:1019100024F997F8303113B128461BF0B5FA094F76
:1019200007F5BE701BF048FBD7F8A00103689F6C59
:101930002A4633462146BC46BDE8F041604700BF19
:101940002C8DFF1F4896FF1F2DE9F041134F97F88C
:10195000313104460D4616461BB10346B0201CF03B
:10196000FCF80F4BB5B9042E4FF001023146A8BF69
:10197000042187F83321C3F8B81183F84021D3F844
:10198000A00103681F6D2A4633462146BC46BDE8C8
:10199000F0416047002287F83321F0E72C8DFF1FCC
:1019A0004896FF1F2DE9F0410E4F97F8313104465C
:1019B0000D4616461BB1034680201CF0CEF897F862
:1019C000303113B128461BF081F9074BD3F8A00141
:1019D0000368DF6C2A4633462146BC46BDE8F04129
:1019E000604700BF2C8DFF1F4896FF1FF0B50229EE
:1019F00097B004465BD943787D2B58D18378002B70
:101A000055D1C178002952D12A4BD3F80402237949
:101A10000E2B44D01F2B04D00D2B48D120230522A0
:101A20003FE0254A254B0768CDE90A236D462E463F
:101A30000C463B6821469B68384698470134282C61
:101A400006F8010BF5D10DF12F01002215F8013B2D
:101A50000132FF2B08BF7F23282A01F8013FF5D16F
:101A6000174817F079FB0AAC2E252079A3780006D9
:101A700040EA032014F8033F40EA034040F004002A
:101A8000033D17F069FB012DEFD19DF857000D4B79
:101A900043EA002017B0BDE8F04017F05DBB5023CB
:101AA0000922214617B0BDE8F0401BF0F1BA17B08B
:101AB000F0BD00BF4896FF1F7D00000F02010D081A
:101AC00004F07D000600F70010B5084B03600446E3
:101AD00000F29C6015F03CF904F28C6015F038F9C6
:101AE00004F27C6015F034F9204610BDC44B0200AE
:101AF00010B50446FFF7E8FF204620F0DFFA204645
:101B000010BD124B70B5036000F580530446D3F846
:101B1000E80808B120F0D2FA04F5C65504F5C3561A
:101B200004350436B54204D0103D284615F010F9AE
:101B3000F8E704F5C250143015F00AF904F5C25064
:101B4000043015F005F9204670BD00BF204C02009E
:101B500010B50446FFF7D5FF204620F0AFFA204627
:101B600010BD38B5044D072405EB041015F0F0F84E
:101B7000013CF9D238BD00BF5098FF1F08B5084698
:101B800017F01AFA012008BD2DE9F04F85B0044680
:101B900016F079FB0A2801460DD1002394F9342070
:101BA000A4F8403094F933309B1AB4F8422013441F
:101BB000A4F842308DE00D2803D10023A4F8403072
:101BC00087E04FF6FD73984200F28380B4F940B08D
:101BD000B4F942A0A4F814B004F10806A4F816A0C1
:101BE000304616F019FB4FF00009002864D006F1CA
:101BF000080594F82810206184F82090284616F0F3
:101C00007EFA43B2A37794F829100393284616F07E
:101C100076FA4FFA80F894F82A10029084F81F8020
:101C2000284616F08AFA94F82B100746284616F034
:101C300084FA94F82C100190284616F07EFA039B43
:101C400000904B4536DD019B029A1A44524294F8AB
:101C50002230029352B239465846019216F086FA63
:101C6000029BA082019A3946504616F070FAA4F8F9
:101C70001C90E08294F82610284616F040FA94F85A
:101C800027108146284616F03AFA074600224946B0
:101C9000304616F07AFA39463046012216F075FAC7
:101CA0000121284616F02BFA0028EFD194F91D30B7
:101CB0004345DFDBBDF9000094F82230032B08D840
:101CC000DFE803F0020B1115B4F840301844A4F813
:101CD0004000012005B0BDE8F08FB4F84230184450
:101CE000A4F84200F5E7B4F840301B1A66E7B4F8F0
:101CF00042301B1A5CE7B1F5006F70B50C46154613
:101D00001CD20F4E7378D90701D416F08FFD04F161
:101D1000A05423789D4211D07378DA0701D416F0CD
:101D200085FD23789D4209D0054A137813F070038E
:101D300018BF137025705378DB07FCD570BD00BF4A
:101D400000000240B1F5006F10B50C460AD2064BF8
:101D50005B78DB0701D416F069FD04F1A05420780C
:101D6000C0B210BD0020FCE70000024037B50546B8
:101D700040688DF80620C36849BA022BADF80410FC
:101D800005D90123032201A91AF030FB70B903B071
:101D900030BD686817F098FA0028F8D1012016F0D5
:101DA00065FF013C14F0FF04F3D1F0E76524F8E788
:101DB0001FB5012349BA009303ABADF80C1040687E
:101DC000022219461AF030FB08B19DF80C0005B04C
:101DD0005DF804FB08B503689B689847BDE80840B8
:101DE000C0B21AF007BA164B10B5036090F8403035
:101DF00004462BB1134AD2F88430013BC2F8843038
:101E000004F1CC0014F0A4FFD4F8800008B120F055
:101E100055F904F174001BF057FE04F168001BF043
:101E200053FE04F15C001BF04FFE04F150001BF068
:101E30004BFE04F144001BF047FE204610BD00BFDE
:101E40007C4C02004896FF1F10B50446FFF7CBFFFD
:101E5000204620F033F9204610BD84B073B507AC9E
:101E600084E80E0090F82D305B0705460FD1066818
:101E70000B990A988DE80300284694E80E00D6F8DE
:101E80008840A04702B0BDE8704004B0704790F8A9
:101E90002C3003F07F03642B00F1E80612D023B945
:101EA00021463046FEF7F6FFECE716F02EFA95F8DD
:101EB0002C30642203F07F03B0FBF2F101FB12002F
:101EC0008342EDD321463046FEF7FAFFDAE784B0CD
:101ED0007FB509AC84E80E009DF8353005467BB12E
:101EE00006680D990C988DE8030094E80E00D6F86A
:101EF00098402846A04704B0BDE8704004B0704741
:101F000016F003FA6423B0FBF3F202FB130095F81A
:101F10002C30C0B28342EED30BAB93E807008DE8C0
:101F200007002E689DF82510D6F8946094E80C0000
:101F30002846B0470D990C982E688DE8030094E868
:101F40000E00D6F88840D4E784B02DE9F04F85B074
:101F50000FAC84E80E009DF84D309DF83D700546AD
:101F60007BB10668139912988DE8030094E80E007F
:101F7000D6F898402846A04705B0BDE8F04F04B019
:101F8000704790F83460642E13D04EB913991298AC
:101F90002E688DE8030094E80E00D6F88840E9E743
:101FA00016F0B3F96423B0FBF3F202FB1300864290
:101FB000ECD395F82C3053B1139912982E688DE814
:101FC0000300284694E80E00D6F88860B0471A4906
:101FD000072202A81EF0CCFC7FB205F12C0805F107
:101FE000330B02AE0DF1480A18F9013FF3B13B443F
:101FF00083F307034FFA83F902A9072211F9010BB2
:10200000484513D0013A12F0FF02F7D19AE80300D5
:102010002A688DF83D30D2F888208DE80300944678
:10202000284694E80E00E04786F80090C34506F184
:102030000106D9D1A0E700BF184D020084B02DE9F8
:10204000F3470BAD85E80E009DF82C909DF82D8090
:10205000044609F1FF33B9F1000F21D00F2BA8BFBF
:102060000F231E469DF83D300EAFDBB1062303FB68
:10207000064397E8030093F82F20424504BFFF2250
:1020800083F82F208DE80300266895E80E00D6F827
:1020900098502046A84702B0BDE8F04704B070470A
:1020A0000026DFE794F82CA0BAF1640F15D0BAF13E
:1020B000000F09D197E803008DE80300266895E832
:1020C0000E00D6F88850E4E716F01FF96423B0FB41
:1020D000F3F202FB13008245ECD3062303FB064315
:1020E00093F82F20FF2A18D093F82E2093F82D1064
:1020F000206893F830E093F832C041EA022193F867
:102100002F2041EA024193F83120D0F88C3041EA87
:102110000E6142EA0C2220469847062303FB064341
:102120009DF82E2083F82D20BDF834201A869DF8C6
:102130003C2083F82E9083F82F8083F83220B9E773
:1021400084B073B507AD85E80E0090F82E305B07BC
:1021500004460FD106680B990A988DE803002046C3
:1021600095E80E00D6F88850A84702B0BDE8704048
:1021700004B0704790F82C60642E04F160040ED017
:1021800026B929462046FEF785FEEEE716F0BDF893
:102190006423B0FBF3F202FB13008642F1D329461D
:1021A0002046FEF78DFEE0E784B0F0B585B00BACBD
:1021B00084E80E009DF83D309DF82D6005467BB10A
:1021C00006680F990E988DE8030094E80E00D6F883
:1021D00098402846A04705B0BDE8F04004B07047DD
:1021E00090F82C70642F13D04FB90F990E982E6869
:1021F0008DE8030094E80E00D6F88840E9E716F071
:1022000084F86423B0FBF3F202FB13008742ECD3A3
:102210000C2172B292FBF1F301FB132251B245FA89
:1022200082F25BB292F930209142BCBF03F1FF33DE
:102230005BB203EB430302EB8303DAB21B06CAD49F
:102240002B688DF82D20D3F894700DAB93E8070020
:102250008DE80700314694E80C002846B847C4E7EB
:102260002DE9F843644B90F90B8093F88C6290F958
:10227000BE3090F90C70002B04460D4652DA90F8EF
:10228000BD30BBB3002E5D4918BF002103201AF0FA
:1022900057FA032D30D1002E14BF00254D252946B5
:1022A00001201AF04DFA294602201AF049FAB8F135
:1022B000050F40F09980DFF84881DFF8489100254C
:1022C000AF4200D18EB994F88C3003F00F039D42D9
:1022D0000BDC631905F10B0093F88D3013F00F033D
:1022E00080B271D149461AF02BFA0135102DE7D191
:1022F000BDE8F8834149C9E7012D0ED1002E3F49C1
:1023000018BF002101201AF01BFA022D07D1002E60
:102310004FF6807118BF0021C6E73849F2E74FF643
:102320008071C1E7B8F1050F1AD1DFF8DC80002E0B
:1023300014BFC1464FF00009002394F9BE20224487
:102340005D1C92F88D2002F00F029A420CBF4946A4
:102350004146A8B21AF0F4F90A2D2B46EDD1AAE7AE
:10236000B8F1060FC4D1DFF8A080DFF8A0900023F9
:1023700094F9BE2022445D1C92F99E209A42ACBF83
:1023800049464146A8B21AF0DBF90A2D2B46EFD197
:10239000DFF87C90002504F19E08AF4200D17EB9A1
:1023A00094F89D3003F00F03AB4209DB18F90530B8
:1023B00005F10B00002B80B21AD1FF211AF0C0F9F1
:1023C0000135102DE9D193E7012B02D14FF4801193
:1023D00089E7022B01D1414685E7032B0CBF4FF45F
:1023E0007F014FF0FF117EE7B8F1060F80D1CFE7F4
:1023F000CCBF49462021E1E74896FF1FFFFF800040
:10240000001080000080FF0010101000D0D0D0001D
:10241000FF80800037B5044619F098FF94F90B301F
:102420008BB9236894F92C501B6D20469847074AB6
:10243000019280F00103064A0092DBB26422294631
:1024400028461CF073FC03B030BD00BFC44402003A
:10245000CF4502002DE9F84FD0E9008916466FF00C
:102460004043A9EB0802B3EB620F07468A464FEAE6
:10247000620402D121481EF078FA012C224638BFAE
:102480000122A418A1EB080B2DD274B39C4228BFE3
:102490001C4660001FF00AFE0546314605EB0B00A6
:1024A00002221EF065FAAB46414651450BF1020B84
:1024B00001F102061BD1A6EB0803A9EB01092B448D
:1024C0004A4618461EF054FA00EB0906B8F1000F10
:1024D00002D040461FF0F2FDC7E9005605EB440567
:1024E000BD60BDE8F88F1C46D3E72546D5E702223C
:1024F000ABF102001EF03CFA3146D6E7234502005C
:1025000038B543688568AB4204460A4607D018468A
:1025100002221EF02DFA03460233636038BD1946CD
:10252000BDE8384096E738B543688568AB42044655
:102530000A4607D0184602221EF01AFA0346023352
:10254000636038BD1946BDE8384083E72DE9F84F90
:10255000D0E9009A17466FF07843AAEB0902B3EB73
:10256000221F80468B464FEA221502D124481EF0D6
:10257000FCF9012D2A4638BF0122AD18A1EB090450
:102580002ED27DB39D4228BF1D4628011FF08EFD2F
:10259000064697E80F00344484E80F00B4464C46E2
:1025A000A3450CF1100C04F110071DD1A7EB09078E
:1025B0003744A446BE4654450EF1100E1AD1A4EB82
:1025C0000C042744B9F1000F02D048461FF076FDF5
:1025D000C8E9006706EB0516C8F80860BDE8F88F83
:1025E0001D46D2E72E46D4E794E80F003C460CE99E
:1025F0000F00D5E794E80F0010340EE90F00DAE77A
:102600002345020030B4836844689C4205460A466C
:1026100006D00FC984E80F0010346C6030BC7047DE
:10262000214630BC92E7F8B5D0F8B820D0F8B430E5
:102630009A42044618D090F82F30194E194AB6F82D
:10264000825043F3040313F0800F14BF96F88C30CC
:10265000DBB213441A7D4FF4C073B3FBF2F3B5FB46
:10266000F3F203FB1255C5B1F8BD01EB0211F36F94
:10267000CB603846FFF7C6FFD4F8B410D4F8B830B2
:10268000EAB25B1AB2EB231F05F10105EDD304F1A9
:10269000B400BDE8F840FFF746B800F1A807EBE743
:1026A0004896FF1F984B020084B02DE9F04788B090
:1026B00011AD85E80E009DF855309DF84660044642
:1026C000BBB190F82D301599B34208BF00230668BE
:1026D00008BF80F8783014988DE8030095E80E0064
:1026E000D6F898502046A84708B0BDE8F04704B097
:1026F000704790F82C30642B15D04BB9159914986D
:1027000026688DE8030095E80E00D6F88850E9E7C2
:1027100015F0FBFD642394F82C20B0FBF3F101FBD2
:1027200013008242EAD30FCD84F82D6003AE0FC6AA
:102730002B68336094F838319DF8451003AD43B1F0
:10274000464BD3F8A422D3F8A83284F8392184F870
:102750003A3194F8642094F93A0194F9393112F03D
:10276000010F4FF00C073ED1B1FBF7F294F8676010
:1027700007FB121161F3030684F86760053A04F160
:102780007806009052B2314604F1600019F03AFA2E
:102790000028A9D0012384F8783094F86530C3F379
:1027A0000303013384F8793004F1940704F19009AC
:1027B0000DF1180856F8043F7F2B0FD898E8030056
:1027C0003A788DF80F2022688DF80D30D2F888A065
:1027D0008DE80300204695E80E00D0474E4507F1EE
:1027E0000107E7D180E70C31CA1A002892FBF7F6FF
:1027F00007FB1626F6B22EDB1949C0EBC00701EB2A
:10280000070C00211CF901EB062914BF9CF900708C
:102810004FF0FF3776450FD0002F0DDBBE4202D1BF
:102820000131C9B208E0764511DDBE420FDABF1BA7
:10283000A6EB0E0E7745F3DB94F8706061F3C506E6
:1028400084F870600C2192FBF1F2063A97E70131AF
:10285000C9B20729D6D13146EEE700BF4896FF1F1F
:102860001F4D020007B50930019149B215F0C5FAB4
:10287000034B012283F8402103B05DF804FB00BF45
:102880004896FF1F70B590F86430DA07044600F1EF
:102890002E0500F1470614D490F8682002F03F029C
:1028A000A2F124035A425A410421284615F0D4F9D2
:1028B00094F9312094F93010304615F0BAFA2846D0
:1028C00070BD90F94A2090F94910284615F0B1FAE8
:1028D0003546F4E707B50191FFF7D4FF9DF90410E1
:1028E00015F08BFA034B012283F8402103B05DF809
:1028F00004FB00BF4896FF1F2DE9F04786B0054650
:102900000591FFF7BFFF90F90290C678BDF9161048
:102910008246BDF914000136B9F1010FF6B205F196
:10292000600701FB00041AD1012E07D102233A46A9
:10293000049103901AF0E6FC0398049995F864302A
:10294000DFF8F48113F0010F00F0AE80A9F1030964
:10295000B9F1030F3AD8DFE809F01380939FB9F17A
:10296000020FEBD195F82C20231A04EB83031344B8
:10297000642BA8BF642323EAE37385F82C30DDE7DA
:10298000012E73B211D195F83831234483F301023B
:1029900002F0010285F83821C4B16848684A002B6A
:1029A000D8BF10461BF0A6FB10E0022B1DD195F8F6
:1029B00038318BB1D8F8A43223440B2BA8BF0B239A
:1029C00023EAE373C8F8A43285F83931012388F883
:1029D000403106B0BDE8F08795F9393123440B2B1F
:1029E000A8BF0B2323EAE373EEE7032BEED195F8A0
:1029F0003831DBB1D8F8A8321C44242CA8BF2424D9
:102A000044EAE474A342C8F8A8420AD0E3B2242BF3
:102A100097BF4C4B4C4803EB8403D3F88C021BF05C
:102A200069FBD8F8A83285F83A31CFE795F93A2111
:102A30001444242CA8BF242444EAE47463B29A42C8
:102A400085F83A31C2D0E3B2242B97BF3D4B3E48C4
:102A500003EB8403D3F88C02A4E7012E04D10A23EC
:102A60003A461AF04FFCB1E7022E05D0032E05D0EE
:102A7000042EABD10D23F3E70B23F1E70C23EFE793
:102A8000012E01D10E23EBE7022E03D0032E9DD1A0
:102A90001023E5E70F23E3E7012E01D11123DFE740
:102AA000022E93D11223DBE7B9F1030F0FD1012ED0
:102AB00001D10623D4E7022E05D0032E05D0042E23
:102AC00084D10823CCE70723CAE70923C8E7B9F173
:102AD000040F7FF47BAF9AF9031029446FF02F00A5
:102AE00091F86A2042F3060344FA83F3302BA8BF1F
:102AF00030238342B8BF034663F3060281F86A209D
:102B0000002C3FF463AF95F838313BB1D8F8A432CC
:102B100085F83931D8F8A83285F83A3195F93A3143
:102B20000A4A009392F90C2095F9393105F17801A0
:102B3000384619F067F849E74896FF1F3D450200FF
:102B400048450200984B0200E65A02002C8DFF1FF8
:102B500084B02DE9F04F87B011AF87E80E0090F8F0
:102B600031109DF844B09DF84520CB0605460FD1A5
:102B70000468159914988DE8030097E80E00D4F8BE
:102B800088402846A04707B0BDE8F04F04B0704722
:102B9000846CD0F84490A145A4EB090309D04846C1
:102BA000C678964202D186785E45ECD004308442E5
:102BB000F6D13C2BE7D801F01F01049359449DF84E
:102BC000463005925846039315F0C2FB1028A8BF63
:102BD0001020E96C049B059A0128B8BF01208C42A3
:102BE0005FFA80F814D0039B237084F8018084F886
:102BF00002B0E2700434AC642B6815991498D3F8D1
:102C000088408DF844808DE8030097E80E00B8E70F
:102C10004FEAA30A002B14BF514601218A445046B3
:102C2000059204931AF0C9FF049B039AC254C11879
:102C3000059A81F802B0064681F80180CA70034601
:102C4000CB465C4503F104030FD10434A4EB090423
:102C50003444B9F1000F02D048461FF02FFA6E64D9
:102C600006EB8A06AC64EE64C6E75946181F0422D8
:102C700003930BF1040B1DF07BFE039BE1E7024481
:102C800008B5431A511C7F29A8BF7F2123EAE370AE
:102C900015F05EFBC0B208BD114B10B5036090F893
:102CA000393004462BB10F4AD2F88430013BC2F8C8
:102CB0008430D4F8CC0008B11FF000FA04F1C00051
:102CC0001AF0FCFD04F1B4001AF0F8FD04F1A800BC
:102CD0001AF0F4FD04F19C001AF0F0FD204610BD3E
:102CE000C04E02004896FF1F10B50446FFF7D4FF00
:102CF00020461FF0E3F9204610BD704770474FF0A3
:102D0000FF30704738B51A4C054684F8B00084F897
:102D1000B100D4F8A00110B103681B699847013DC8
:102D20000123062D11D8DFE805F00421151B1D1F16
:102D300011001048C4F8A0010368DB68984701231C
:102D400084F88E3284F8403138BD00230A4884F874
:102D5000B932EFE70948002380F825302030E9E751
:102D60000648F9E70648E5E70648E3E70648E1E7ED
:102D70004896FF1FC89DFF1FFC98FF1F40A7FF1F1D
:102D8000D8A7FF1F84AEFF1FE4E5FF1F2DE9F04722
:102D9000474C484DD4F8E004DFF81C810368242236
:102DA0005B6800219847D4F8E00495F8B0200368E8
:102DB00001215B689847D4F8E004404A0368127B1D
:102DC0005B6802219847D4F8E00495F8B2200368C4
:102DD000013A5B68D2B2032198470026371DC146ED
:102DE00006F1090AD4F8E00459F8042B03683946BF
:102DF0005B68D2B2013798475745F3D10536192E93
:102E000008F11408EAD12E4ED4F8E004D6F8A02137
:102E10000368013A5B68D2B21D219847D4F8E004F8
:102E200096F8982103681E215B689847D4F8E0045F
:102E300095F8A42203681F215B689847D4F8E00442
:102E400095F8A822036820215B689847D4F8E0042D
:102E500095F8AC22036821215B689847D4F8E00418
:102E600095F8AE22036822215B689847D4F8E00405
:102E7000327A036823215B689847D4F8E00495F818
:102E80008C20036824215B689847D4F8E00494F808
:102E9000E424036825215B689847D4F8E00495F89A
:102EA000B8210368BDE8F0475B682621184700BFDA
:102EB00038B8FF1F4896FF1F608EFF1F58CDFF1FB9
:102EC0002C8DFF1F2DE9F04F604C614FD4F8E004CA
:102ED000036891B09B68002198475E4A0346054607
:102EE0004021684621F0ACF95B4869461AF09EFE25
:102EF000FF2D06D159481AF07DF9002011B0BDE828
:102F0000F08F242D01D05648F5E7D4F8E004554D54
:102F1000036801219B68984785F8B000D4F8E00465
:102F2000036802219B6898474F4BC5F8B400D860EE
:102F3000D4F8E004036803219B689847013085F8C2
:102F4000B2004A481AF056F907F59A79002606F1B8
:102F50000408CA4606F1090BD4F8E00403684146A8
:102F60009B68984708F10108C3454AF8040BF3D160
:102F70000536192E09F11409E9D1D4F8E0040368E3
:102F80001D219B6898470130C7F8A001D4F8E004E0
:102F900003681E219B689847C7F89801D4F8E0049D
:102FA00003681F219B689847C5F8A402D4F8E00481
:102FB000036820219B68984740B2C5F8A802D4F85E
:102FC000E004036821219B689847003818BF01205E
:102FD00085F8AC02D4F8E004036822219B68984786
:102FE000003818BF012095F8A82295F8A41285F89A
:102FF000AE021F4814F044FDD4F8E0040368232116
:103000009B6898473872D4F8E004036824219B68D1
:1030100098470F28A8BF0F2085F88C00D4F8E0044B
:10302000036825219B6898470128A8BF012084F8E0
:10303000E404D4F8E004036826219B689847042838
:10304000A8BF0420C5F8B801012057E738B8FF1F12
:103050002C8DFF1F54450200D08EFF1F71450200CA
:10306000824502004896FF1F58CDFF1F964502007B
:1030700038BDFF1F10B50446D0F8480108B11FF055
:103080001DF8D4F83C0108B11FF018F8D4F830014D
:1030900008B11FF013F8E06908B11FF00FF82046DF
:1030A00010BD70B50446883013F052FE04F1780567
:1030B00004F13806B54204D0103D284613F048FE0E
:1030C000F8E7204670BD2DE9F047836845689D42CA
:1030D0000446894605D00B6845F8043B4560BDE8C9
:1030E000F087D0F800806FF06047A5EB080AB7EBD7
:1030F000AA0F4FEAAA0202D115481DF036FC012A98
:10310000134638BF01239B1802D29F4228BF1F4697
:1031100038461AF052FDD9F8003040F80A3002461D
:1031200029460646404619F0A2FE2946021D2846B9
:1031300019F09DFE0546B8F1000F02D040461EF082
:10314000BDFF266006EB87066560A660C7E700BF87
:1031500023450200814210B51346A1EB000405D0BF
:103160000146224618461FF088FE0346181910BD76
:1031700038B505460C4601F110006968814202D05D
:103180002246FFF7E7FF6B68103B6B60204638BDB7
:1031900038B50D46D0E900138B4204464FF00000CD
:1031A00010D138BD0A786B789A420FD14A782B78C3
:1031B00002F00F02013B9A4208D12046FFF7D8FFE8
:1031C0000146012063689942ECD1EAE71031F9E742
:1031D0002DE9F04F90F8393085B004468A4653B94E
:1031E000FEF71AF88B4AD2F8843001210B4484F898
:1031F0003910C2F88430D4F8A050D4F89C10A942F9
:1032000009D194F82E3003F00703022B03D004F108
:10321000A800FEF788FA691AF02900F283809AF96B
:1032200001200023002ACDE902339AF801307CDA2C
:10323000FF238DF80030D4F8A4309D426E4600F094
:10324000888096E80F0085E80F001035C4F8A0507C
:1032500094F82E20142302F00702D340DB0709D58F
:10326000514604F1A800FFF793FF514604F1B40062
:10327000FFF78EFFD4F8AC30D4F8A820D4F8B410FF
:103280009A1AD4F8B8305B1A1B1103EB22130F2BD8
:1032900048D894F841509AF801209AF901109AF808
:1032A0000300DFF8708194F82D309DF80390BDF88D
:1032B0000470002D66D00025A942029550DAFF2245
:1032C0008DF80020C3F3050A1EF05AF9A16C83465D
:1032D0001EF0AAF91EF01EFB0AF1010AC5B2616CCC
:1032E0005FFA8AFA584605F07F051EF09DF945EA17
:1032F0000A251EF00FFB25F080056D0427F4FE471C
:103300006D0C27F07F0760F30609D8F87C308DF844
:1033100003903D43ADF804500393314604F1B400EB
:10332000FFF770F905B0BDE8F08F9AF803208DF82B
:1033300000309DF8023062F306038DF802309AF8EF
:1033400000309DF80120013B63F303028DF801205A
:1033500071E73246294604F19C00FFF7F7F877E75A
:103360008DF800209DF802209DF8011060F3060200
:103370008DF802209AF80020013A62F303018DF8DB
:1033800001109FE70029029531DAFF228DF8002015
:10339000C3F3050A1EF0F4F8A16C83461EF044F94D
:1033A0001EF0B8FA0AF1010AC5B2616C5FFA8AFA36
:1033B000584605F07F051EF037F945EA0A251EF04C
:1033C000A9FA25F080056D0427F4FE476D0C27F05F
:1033D0007F0760F30609D8F87C308DF803903D43F1
:1033E000ADF804500393314604F1A80098E78DF836
:1033F00000209DF802209DF8011060F306028DF870
:1034000002209AF80020013A62F303018DF80110BE
:10341000BEE700BF4896FF1F38B504469C300D46F6
:10342000FFF7B6FE94F82E3003F00703012B09D105
:10343000294604F1A800FFF7ABFE294604F1B400C9
:10344000FFF7A6FE94F82E3003F00503012B11D1EF
:10345000D4F8A020D4F89C309A420BD194F839309B
:103460002BB1054AD2F88430013BC2F884300023E6
:1034700084F8393038BD00BF4896FF1F2DE9F04F62
:103480000A7C8BB006460D4632B14B7C002B4DD0EA
:103490000BB0BDE8F04FBFE7D0F8D040D0F8CC90EB
:1034A000A4EB090BBBF1B40F67D859494FEAAB083D
:1034B00001FB08F894464FF00C0A0DF11C0E5FFA60
:1034C0008CF7B84536D8AB78524A01936B780293A3
:1034D0002B7AD2F8A40004936B7A03931EF04CF875
:1034E000696895F800A01EF09FF84A4A0746906F59
:1034F0001EF042F8014638461DF08EFF1EF00AFA13
:10350000D6F8D420944240D0019B2370029BA37034
:10351000049BE370039B2371002384F801A0637173
:10352000A0600C34C6F8D040294630460BB0BDE848
:10353000F04F4DE60AFB079797E807008EE8070073
:10354000079A2988C2F30F2291420CF1010CB6D1DF
:10355000DFF8C080D8F8A4001EF00EF869681EF0ED
:1035600063F80446D8F878001EF006F801462046B5
:103570001DF052FF1EF0CEF9B860294606F160003A
:103580000BB0BDE8F04FFDF7ABBBB8F1010F2CBF9E
:10359000C04408F10108059040461AF07CFA019BEE
:1035A00000F80B3000EB0B02029B9370049BD3706E
:1035B000039B0599137100235371074682F801A0FC
:1035C000916084464B469C420CF10C0C1AD1124B74
:1035D000A4EB0904A4085C4324F040440C2304FB3E
:1035E0000333FC18B9F1000F02D048461EF066FD07
:1035F0000C23C6F8CC7003FB0877C6F8D040C6F899
:10360000D47091E793E807000C330CE90700DAE780
:10361000ABAAAAAA4896FF1FABAAAA2A2DE9F04F87
:10362000B64FD0F8CC50D7F878808DB00446D4F897
:10363000D0309D4243D194F83930002B3CD097F8DC
:10364000B0300BB96379BBB3204604F1C00AFDF773
:10365000E3FDBB6F04935046FEF765F8DFF8A0B2B8
:103660004FF00009D4F8A850D4F8AC305FFA89F2D2
:103670005B1BB2EB231F3FD3D4F8C430D4F8C05047
:10368000DFF87882DFF87C920393039BAB4240F033
:10369000DE8094F82E3003F00603022B0CD1D4F810
:1036A000A810D4F8AC308B4206D004F1A805D4F8A9
:1036B000AC30994240F018810DB0BDE8F08FAB6896
:1036C000434505F10C0615D8294607A8FCF730FF3D
:1036D00007A92046FFF7A0FED4F8D0108E4203D0F1
:1036E0002A463046FFF736FDD4F8D0300C3BC4F8FC
:1036F000D0302E4635469AE705EB0215049AEB6862
:10370000039393425DD894F832306E79BBB194F84C
:103710002D2095F804C0E8780CF07F0C00F07F00B5
:1037200012F03F0206F07F01A0EB0C004CD100EB41
:10373000D0730CEB6303AA7863F30602AA7094F8C3
:103740002E2094F83530D20956D0002B52D006F0F6
:103750007F001DF011FFD4F85C8005904146A06DFC
:103760001DF058FE059B014618461DF05DFF0590B3
:1037700094F82D0000F03F001DF0FEFE059B014671
:1037800018461EF005F841461DF046FE01464FF072
:103790007E501DF0FDFF59461DF046FF1EF0BAF8A1
:1037A000039BA86003447206EB601FBFC6F30603C9
:1037B00003F1FF3363F306066E7129465046FEF7A8
:1037C00021FF09F101094DE741430028ACBF01EB9E
:1037D0005201A1EB5201002891FBF2F301FB02F22E
:1037E000634403DB002AA6DA013BA4E7002AA8BF52
:1037F0000133A0E7616DCAE73BB306F07F001DF01F
:10380000BBFED4F8508005904146E06C1DF002FEEE
:10381000059B014618461DF007FF059094F82D0002
:1038200000F03F001DF0A8FE059B014618461DF064
:10383000AFFF41461DF0F0FD0146D7F8A400059109
:1038400000011DF099FE0599A6E7E16BF5E795F9F2
:10385000003095F800B0002B44DB2B4FD8F87830BF
:1038600004930FCF07AE0FC695F801C095F802E09C
:103870003B6833600CF00F0CCEF3060E0CF1010C1C
:1038800094F831008DF81CC08DF81FE08DF81DB044
:103890008DF81EB01DF070FE49461DF0C5FED5F82E
:1038A00008A0D8F8A470064650461DF065FE0146F3
:1038B00030461DF0B9FE064638461DF05DFE014655
:1038C00030461DF065FF049B0A930AAB089093E80D
:1038D00003008DE80300266807AB0ECBD6F888609E
:1038E0002046B0471035D0E64B795B0604D1284618
:1038F000FFF73EFC0146DAE61031D8E64896FF1F96
:10390000002474490AD7233C984B020038B5054679
:103910000C4601F114006968814202D02246FFF78B
:1039200019FC6B68143B6B60204638BD84B02DE9F0
:10393000F04F87B011AC84E80E009DF855309DF82B
:1039400045709DF84790DDF84880054613B3816BBC
:10395000C36B8B4204D000F13806EB6B99420FD158
:10396000159914982E688DE8030094E80E00D6F897
:1039700098402846A04707B0BDE8F04F04B0704714
:103980004B78BB4204D13046FFF7C0FF0146E4E765
:103990001431E2E790F8343003F07F03642B17D042
:1039A0004BB9159914982E688DE8030094E80E0021
:1039B000D6F88840DDE714F0A8FC95F8343064228E
:1039C00003F07F03B0FBF2F101FB12008342E8D366
:1039D00095F82D1001F00F0A0AEB111101310020AA
:1039E00014F0B6FC95F82C1006460A09384601F08A
:1039F0000F01FFF744F9A6EB0A0695F82F2095F87A
:103A00002E1076B20C2303FB060702F07F0201F0B2
:103A10007F014846FFF733F995F8306087F30707D1
:103A200016F07F06FFB2824605D014F06EFCB0FBA4
:103A3000F6F303FB1606C6EB061064233230B0FB28
:103A4000F3F001301DF09CFD41461DF0EDFD6B8E45
:103A5000039041F61F721A4200F0E880EB6BAA6BEC
:103A60009B1AB3F5967F00F2E18095F8320095F845
:103A7000332010F01F0F33D000F01F00FDF708FBBC
:103A8000D306804630D002F01F00FDF701FB404511
:103A9000064628BF4046C0B21DF06EFD81461DF0AF
:103AA000A1FF464538BF46468346F0B21DF064FD8F
:103AB00049461DF0AFFC064658461DF061FD4FF02B
:103AC00040511DF0B1FD014630461DF0ADFD4946A7
:103AD0001DF0A2FC01464FF07E501DF059FE1AE089
:103AE00002F01F00FDF7D4FA002840D01DF044FD7D
:103AF00006461DF077FF1DF043FD4FF040511DF0CD
:103B000093FD314680464FF07E501DF041FE014648
:103B100040461DF089FDDFF834810646D8F8A40040
:103B200000011DF029FD31461DF07EFD0646D8F846
:103B30007C001DF021FD014630461DF06DFC1DF09E
:103B4000E9FED5F83C902B6C9945024612D0039BB8
:103B50008DF845708DF847A0129314900FCC4E4607
:103B60000FC62368336009F11403EB6303E74FF0DA
:103B70005056BEE7D5F838B03549A9EB0B0304938E
:103B80009B104B4333498B4202D133481CF0EDFE6E
:103B9000012B1E4638BF0126F61839D2002E39D027
:103BA0008E4228BF0E461420704305921EF07EFA06
:103BB000059A8046039B8DF8457012938DF847A0B7
:103BC000A9EB0B03149208EB03070FCC0FC7236874
:103BD0003B60C646DC46E1450EF1140E1CD1049B49
:103BE0001E4A9B08534323F04043142203FB022246
:103BF00008EB0204BBF1000F02D058461EF05EFA3B
:103C0000142303FB0683C5F83880EC632B64B2E60B
:103C10000E46C8E7B046CDE767460FCFAEF11404B5
:103C20000FC43B6823600CF1140CD4E71599149869
:103C3000039B8DF845708DE803008DF847A0129323
:103C400094E80E002846FEF783FF94E64896FF1F8F
:103C5000CDCCCCCC6666660623450200CDCCCC0C20
:103C6000F7B5C36B846BA342054606D00E4B9E6F1F
:103C700000F13807EB6B9C4201D103B0F0BDE36863
:103C8000B3420ED8216918468DE80300284694E80F
:103C90000E00FEF75DFF21463846FFF737FE04466B
:103CA000E8E71434E6E700BF4896FF1F84B02DE92B
:103CB000F3470BAD85E80E00466C836C9DF82C80B5
:103CC000B34204463DD123680F990E98D3F888601B
:103CD0008DF82C808DE80300204695E80E00B04753
:103CE0002AE037469DF82E2017F8041B91421DD17B
:103CF000B27842451AD199E80300236896F801800A
:103D0000D3F888A08DF82C808DE80300204695E834
:103D10000E00D047A16C8F4203D032463846FFF7E1
:103D200019FAA36C043BA364374601233E46A26CF8
:103D30009642D6D1002BC6D002B0BDE8F04704B001
:103D4000704700230DF13809F1E738B505460C46F8
:103D5000881C6968814202D02246FFF7FBF96B6834
:103D6000023B6B60204638BD2DE9F041D7B27C1E86
:103D70000304240203F4FE0304F470641C430B06E2
:103D800003F0FE431C43054644F410400E4640F049
:103D9000090015F0E1F93B46F2B2E9B29020BDE826
:103DA000F04119F0DABE2DE9F041D7B27C1E0304D0
:103DB000240203F4FE0304F470641C430B0603F0B6
:103DC000FE431C43054644F400400E4640F0080004
:103DD00015F0C2F93B46F2B2E9B28020BDE8F041ED
:103DE00019F0BBBE2DE9F041D7B27C1E03042402BA
:103DF00003F4FE0304F470641C430B0603F0FE435B
:103E00001C43054644F430400E4640F00B0015F0CC
:103E1000A3F93B46F2B2E9B2B020BDE8F04119F097
:103E20009CBE70B5CDB26A1E0304120203F4FE03F9
:103E300002F470621A43044642F4404040F00C0021
:103E400015F08AF92B46E1B20022BDE87040C0208F
:103E500019F083BE00F0CF02802A00F0EF0305D0F6
:103E6000E02803D0C03B58425841704701207047BA
:103E700003060BD500F10C03DBB2012B06D9FD289C
:103E800004D0EF2803D800F0F000704700207047FE
:103E900070472DE9F0418AB00446684680E8060084
:103EA0009DF802209DF80310EAB99DF8005094F99E
:103EB0000B2094F90C0004F10906002900F0EA80B7
:103EC000042A08DD94F9BE70002F04DA032D02D114
:103ED000012784F8BD70002B00F0EA80E1E083F850
:103EE0009E5084F8C0500AB0BDE8F0810A2DFADD7A
:103EF0001028A5F10B0502D094F8BD30A3B1052A16
:103F00000CBF94F88C3094F89D3005F00F050BBF72
:103F100065F3030365F3030384F88C3084F89D3064
:103F2000FF2384F8BE30DEE76319052A0DBF93F83E
:103F30008D3093F89E3084F8C030C3F303036DB224
:103F400008BF84F8BF302946304613F063FF84F879
:103F5000BE50C8E7012B39D1531FDBB2012BC2D8A9
:103F60000029C0D00A2DBEDDA5F10B016318052A7A
:103F700003BF93F88D206FF3030283F88D20002296
:103F80000CBF002383F89E2049B20CBF84F8BF30D9
:103F900084F8C020304613F03DFF604902A814F0B9
:103FA0001AFAA5F10A0106A819F010F806A902A844
:103FB00014F049FA014604F1CC0014F033FA06A8D3
:103FC00012F0C6FE02A812F0C3FE9EE0022B20D122
:103FD000531FDBB2012B86D8002984D00A2D82DD45
:103FE000A5F10B016318052A07BF94F8BF0093F8E9
:103FF0008D2094F8C02083F89E2008BF60F3030250
:1040000049B208BF83F88D20304613F003FF4449BE
:10401000C4E7032B7FF467AF531FDBB2012B3FF6DE
:1040200062AF00293FF45FAF0A2D7FF75CAFA5F1C7
:104030000B07052A04EB070814D11DF0D3FC0E234F
:1040400090FBF3F202FB130084F8BF0098F88D3068
:1040500060F3030388F88D3079B2304613F0DAFE4E
:1040600030499BE71DF0BEFC0C2390FBF3F202FBF2
:10407000130040B284F8C00088F89E00ECE783B9D2
:104080000A2D7FF730AF94F9BE300B3D9D427FF48F
:104090002AAF45E7032DF2D184F8BD10002B3FF481
:1040A00022AF94F9BE70002FFFF654AF0029E7D07D
:1040B000531FDBB2012B3FF616AF94F9BE30002B35
:1040C000FFF614AF002D3FF40EAF0A2D3FF710AFEF
:1040D000013D052AE9B223446DB27FF400AF93F8A5
:1040E0008D20204461F3030283F88D2084F8BF50B3
:1040F00090F88D200C4B02F00F0203EB820304F1C9
:10410000CC00D3F8C41314F070FA084BC4F8DC30B8
:10411000074B012283F84021E5E600BFA4450200D9
:10412000AC450200B5450200984B020020A10700F3
:104130004896FF1F2DE9F04F044695B018F006F998
:104140002046FEF79FFB90F902500646002D36D11F
:10415000B749B848DFF8DC82DFF8DC9214F026FAC1
:1041600004F1780694F8D03056F8047F03B1B76DA7
:1041700038060CD41DB14946404614F03DFBF8B258
:1041800014F0DCF9014610B1404614F035FB01355E
:10419000EDB2062DE6D1A94BA94AD3F89C35002BE8
:1041A00008BF1346012200920E93D4F8A0000EAB74
:1041B00004F17C011AF0DAF815B0BDE8F08F012D9A
:1041C00010D1236894F864501B6D2046984705F081
:1041D000010503469B499C482A4615B0BDE8F04FAF
:1041E0001AF0A2BA022D12D1236894F92C501B6D3B
:1041F00020469847954A019280F00103944A009224
:10420000DBB26422294628461AF090FDD4E7032D3C
:104210005BD194F86430D90765D494F867108D4F5A
:10422000DFF818820C2301F00F02B2FBF3F003FB5E
:104230001022D2B241F3031107EB820249B20431DA
:104240000EA8D2F8009418F0C1FE0EA908F29C50F6
:1042500014F0D4F80EA812F07BFD94F8683094F8AE
:10426000690003F03F0307EB83030EADD3F830A4DE
:1042700017F030FC08F5C96CBCE80F000FC5DCF87E
:1042800000E0C5F800E00EAD0FCD04F1FC0CACE889
:104290000F002368CCF800E01B6DF57820469847A6
:1042A000D8F89C35CDF800A004F1FC0207F57F7723
:1042B00004F58074014601920294002B08BF3B462E
:1042C0004A4628461AF074FB76E7042D0BD194F881
:1042D000645015F0010506D194F8683003F03F03EF
:1042E000242B00F0EE8018F031F82046FEF7CAFAD1
:1042F00090F90230012B0ED15748584A94F86410B7
:10430000C0F8C020534A01F0010102EB8102D2F84B
:10431000C424C0F8E42094F86420D20730D5033BCD
:10432000032B2DD8DFE803F0023E64B494F8383153
:104330004B484C4A4C49002B08BF0246464BC3F839
:10434000E42094F83921C3F8C0100C21B2FBF1F538
:1043500001FB15223F49D2B201EB82024349D2F858
:10436000CC24C3F8E82094F93A21C3F8C410002AF9
:104370003F49C3F8C810B4BFC3F8EC00C3F8D82055
:10438000236835791B6D96F9027096F90360204613
:104390009847324603463946284615B0BDE8F04FE7
:1043A0001AF02EBA2C4B334AC3F8C02094F8702070
:1043B00002F00701C2F3C202C3F8D4202E4AC3F8A8
:1043C000C82094F87120C3F8D01042F3030252B20F
:1043D000C3F8D820294AC3F8CC2094F87220284981
:1043E000C3F8C41042F3040252B2C3F8DC20C7E79A
:1043F000194B244AC3F8C02094F8732042F30301F8
:1044000049B21209C3F8D0101F49C3F8C410C3F849
:10441000D42094F876101D4AC3F8C8200D4A01F044
:10442000070102EB8102D2F8FC24C3F8EC20A7E7D5
:1044300070450200D4BDFF1FA1CC020038B8FF1F99
:10444000944F0200E08EFF1FBE450200C4440200EC
:10445000C9450200984B02004896FF1FD74502004D
:104460005045020045450200DC450200E1450200DE
:10447000E6450200EC450200CA590200F54502007B
:10448000F1450200F9450200FE4502000246020025
:10449000314B324A324994F87450C3F8C020314A43
:1044A000002D14BF10460846C3F8E4002E48C3F898
:1044B000C40094F87500002808BF0A46C3F8E82035
:1044C0005EE72A4B2A4FDFF8ACB005930DF13808B0
:1044D000C146631993F86A3043F306034FFA83FA2F
:1044E000BAF1000F1ED1D5B92349214814F05EF866
:1044F00057F8103B214A0135002B08BF1346062D03
:1045000048F8043BE5D12368F5781B6D20469847B1
:1045100005AB0246294648461AF076FB4CE659465A
:104520003846E3E7CCBF1649164906A813F053FFF7
:1045300051460AA818F04AFD0AA906A813F083FFFD
:104540000146384613F06EFF0AA812F001FC06A8D7
:1045500012F0FEFBCCE700BF4896FF1F07460200A3
:1045600050450200454502000C460200114602007B
:104570005098FF1F3A470200835E0200944F0200EA
:10458000C94702007045020090F82D3061F3020324
:1045900080F82D3003F00703012B07D1426C836CA8
:1045A0009A420AD14FF48073438706E0032B02D16D
:1045B000826C436CF4E7002BF4D0012902D8036825
:1045C000DB6C18477047F8B5044619F089FA544B6C
:1045D00023605A2384F834300023E3866387A4F8E9
:1045E00040306364A364E36423656365A365E365A6
:1045F00023666366A366E36623676367A367E3676F
:10460000C4F88030C4F88430C4F8883004F19D01C7
:1046100004F18D031A786FF3030203F8012B8B4228
:10462000F8D1002501274FF07E53C4F8C83004F1BB
:10463000E80084F8B570C4F8CC50C4F8D050C4F881
:10464000D45084F8D850C4F8DC50FCF763FB94F8DD
:104650008C30344A84F8397043F00F0384F88C307E
:1046600094F89D3043F00F0384F89D3094F8B230F5
:1046700065F3040384F8B230E36A03F0803323F473
:10468000004343F06403E362236B1A40264B134359
:104690002363FF2384F8BE3094F8E03065F302030F
:1046A00084F8E03004F1090629462046FFF76CFF44
:1046B0003946304613F0BDFA0421304613F0B9FAFA
:1046C0000421304613F0B5FA0421304613F0B1FA54
:1046D0000421304613F0ADFA1121304613F0A9FA47
:1046E0001121304613F0A5FA27722A46A318013289
:1046F00093F88D10102A6FF3030183F88D10F5D114
:10470000002104F19E001DF09FFA084BC4F8EC3024
:10471000074BC4F8E840C4F8F0302046F8BD00BFAD
:104720007C4C0200F0E0F0C0061F010CF34D0000CD
:1047300077050000F8B505464FF492701DF0B6FC01
:104740000446FFF740FF95F82C3095F82D7095F84A
:10475000302095F8320095F8331003F07F0307F00E
:10476000070643EA072395F82E7007F0070C43EA83
:104770000C43C7F3C30743EAC74395F82F7007F00C
:104780007F0743EA0763E76A02F00F0207F080370A
:1047900000F00F0027F4004742EA02223B4342EABE
:1047A000004201F03F01E36242EA0162204B216BCB
:1047B0000B401A4395F8343084F8343095F88C3037
:1047C000226394F88C20C3F3030363F3030295F888
:1047D0009D3084F88C2094F89D20C3F3030363F389
:1047E0000302002384F8413095F8313084F89D208D
:1047F00043F304035BB25A1C4FF01007B4BF00230D
:1048000001233A4605F18D0104F18D0084F8393019
:104810001CF0AEF83A4605F19E0104F19E001CF032
:10482000A7F820463146FFF7AFFE2046F8BD00BF8F
:10483000F0E0F0C02DE9F0418CB004460D46904602
:1048400000212B2201A81DF0FFF9002701AED8F8A6
:104850000030E9199B684046984701372B2F06F82E
:10486000010BF4D19DF80930019A029F9DF80C00CC
:104870009DF8056084F8340043F3040359B2E36AF9
:1048800022F0004203F0803322F0801223F4004330
:104890001343E362226B214B1340214A3A401343F6
:1048A00023639DF80D3094F88C20C3F3030363F366
:1048B00003029DF81E3084F88C2094F89D20C3F3E9
:1048C0000303013163F30302B4BF0023012384F81F
:1048D000393084F89D200DF10E01102204F18D0075
:1048E0001CF046F806F0070610220DF11F0104F136
:1048F0009E001CF03DF820463146FFF745FE94F837
:104900002D3094F8E020C3F3020363F3020205F1B3
:104910002B0084F8E0200CB0BDE8F081F0E0F0C09E
:104920000F1F0F3F73B5022204460E46014601A831
:104930001CF01EF8023C2546617815F8023B0198F0
:1049400043EA0121B047023C022228B901A92846C6
:104950001CF00EF802B070BDA118201D1CF008F864
:10496000E9E72DE9F743044600F15C063046FBF722
:10497000BFFF94F82D3003F00503012B00F0F08009
:10498000676D256DAF4240F0E08094F82D3003F064
:10499000F803802B1FD0E76DD4F86080B8451AD09B
:1049A000A8EB07056A10B2FA82F2C2F11F02B94BF6
:1049B00052004146384618F0AFFF202D40F3E68004
:1049C00007F120053846B34AB24F294619F03BF8A3
:1049D000A84540F0D580236EE76DBB4200F0DC8037
:1049E000DB1B3A7884F8B320023BF918FB5C9A424F
:1049F00040F04D810C3284F8B42094F82D5005F02D
:104A0000F805482D09D0A5F15003DBB2102B2FD8A3
:104A1000A14A22FA03F3DA072AD504F168084046CE
:104A2000FBF766FF022268461BF0A2FF582D01D05B
:104A3000602D04D10222394668461BF099FF0025FB
:104A4000E06D236EE9B21B1AB1EB630FC0F0AC80CE
:104A5000E26EA36E9A4203D169464046FDF750FDCF
:104A60003046FBF745FFE76EA56EBD4240F0B280D1
:104A700094F82D3003F0F803782B19D104F168076E
:104A80003846FBF735FF256EE36DED1A6D104FF0DC
:104A900000085FFA88F3AB4208F10108C0F2A58074
:104AA0003046FBF725FFE76EA56EAF4240F0B980B8
:104AB00094F82D3003F0F80203F0F003302B01D00E
:104AC000402A1CD1256EE36D04F16809ED1A4846B1
:104AD0006D10FBF70DFF013D0027EDB2B846E16D0B
:104AE000236EFAB25B1AB2EB630FC0F0A5803046BA
:104AF000FBF7FEFEE76EA56EAF4240F0B28094F881
:104B00002D3003F0C803082B4BD104F16807384659
:104B1000FBF7EEFED4F86080E56DA84540F0AC8070
:104B20003046FBF7E5FEE56EA36EED1A6D10013D14
:104B30006FB27D00002F34DBA16E30462944013F67
:104B4000FDF7DEFC7FB2023DF4E72946022201A810
:104B50001BF00EFF01A93046FDF7D2FC023511E72C
:104B6000A76C656CAF423FF410AF2946022201A842
:104B70001BF0FEFE01A93046FDF7C2FC0235F1E74D
:104B800028463946FFF7CEFE023521E7414A414625
:104B9000384618F058FF1EE7812384F8B33084F8B4
:104BA000B43003B0BDE8F083022200EB410101A85C
:104BB0001BF0DEFE9DF804209DF800309A4207D0DD
:104BC00069464046FDF79CFC01A94046FDF798FC6C
:104BD000013535E72946022201A81BF0C9FE01A9CB
:104BE0003046FDF78DFC02353FE71CF0FBFEE16D22
:104BF000236E5B1A5B10B0FBF3F202FB13004FEA6B
:104C00004009022201EB400101A81BF0B1FE01A9FD
:104C10003846FDF775FCE16D30464944FFF795F8DD
:104C200037E72946022201A81BF0A2FE01A930465F
:104C3000FDF766FC023538E7D30754BF43462B46E1
:104C40001BB254BF08F1010205F1FF3201EB430131
:104C5000484654BF5FFA82F8D5B20137FDF750FCE1
:104C60003DE72946022201A81BF082FE01A9304639
:104C7000FDF746FC02353FE72946022201A81BF05A
:104C800077FE01A93846FDF73BFC023545E784F87D
:104C9000B430B2E6650500000101010090F8403033
:104CA000F7B504460D46002B63D1FBF782FCFBF7FA
:104CB0000DFD0126A16C676C8F425CD1EA7894F8F7
:104CC000353062F3060384F835302B7A84F83630B9
:104CD0006B7A84F837302B7894F82E20013B63F3FD
:104CE000C60284F82E202046FBF7F0FC04F15000A9
:104CF000FBF7FEFD0126C91B0E290BD86B788DF83A
:104D000004302B7801A9013B04F144008DF80530F3
:104D1000FDF709FC636D226D9B1A0E2B0BD82B78C7
:104D20006A788DF80420013B01A904F150008DF848
:104D30000530FDF7F8FB2046FFF713FE4EB194F85F
:104D4000B030E26D84F8E230236E9B1A5B1084F879
:104D5000E33094F83B3013B1002384F83B30AEB914
:104D600094F83A3093B9204603B0BDE8F040FBF721
:104D700043BC00269EE794F82E2002F00702012A89
:104D8000B9D12046FBF7A2FC1646B4E703B0F0BD4C
:104D900070B506460D4656F8441F0446A36C99426A
:104DA00010D12046FFF7DDFD94F82D30A26C03F002
:104DB0000503012B636C15D1934215D14FF4807319
:104DC000638770BD0A786B789A4209D12B784A784C
:104DD000013B9A4204D13046FEF7B7FF0146DDE7BA
:104DE0000231DBE79A42ECD02046BDE87040FBF789
:104DF00003BC2DE9F04F0A7C8BB006460D4632B15C
:104E00004B7C002B4DD00BB0BDE8F04FC0E7D0F885
:104E10008440D0F88090A4EB090BBBF1540F67D805
:104E200059494FEAAB0801FB08F894464FF00C0AC9
:104E30000DF11C0E5FFA8CF7B84536D8AB78534AA3
:104E400001936B7802932B7AD2F8A40004936B7AC7
:104E500003931CF091FB696895F800A01CF0E4FB3B
:104E60004A4A0746906F1CF087FB014638461CF003
:104E7000D3FA1CF04FFDD6F88820944240D0019B15
:104E80002370029BA370049BE370039B2371002398
:104E900084F801A06371A0600C34C6F884402946F0
:104EA00030460BB0BDE8F04FF8E60AFB079797E8ED
:104EB00007008EE80700079A2988C2F30F22914263
:104EC0000CF1010CB6D1DFF8C480D8F8A4001CF0B6
:104ED00053FB69681CF0A8FB0446D8F878001CF066
:104EE0004BFB014620461CF097FA1CF013FDB860FE
:104EF000294606F1E8000BB0BDE8F04FFBF7F0BE25
:104F0000B8F1010F2CBFC04408F1010805904046DC
:104F100018F0C1FD019B00F80B3000EB0B02029B67
:104F20009370049BD370039B0599137100235371F5
:104F3000074682F801A0916084464B469C420CF1E2
:104F40000C0C1AD1124BA4EB0904A4085C4324F006
:104F500040440C2304FB0333FC18B9F1000F02D0CA
:104F600048461DF0ABF80C23C6F8807003FB0877A9
:104F7000C6F88440C6F8887091E793E807000C33C0
:104F80000CE90700DAE700BFABAAAAAA4896FF1F00
:104F9000ABAAAA2A2DE9F04FD0F8DC30DFF830B305
:104FA000002B8BB004460EDDDBF8BC209B1A002BD7
:104FB000C0F8DC3007DC01238BF840318BF88E32EF
:104FC0000023C0F8DC30DBF87870D4F88050D4F8D7
:104FD00084309D425ED194F84070002F00F0B28280
:104FE00094F8413093B994F83020BA4B02F00F0294
:104FF0001344187D1CF0C0FA01464FF07E501CF09F
:10500000C7FB0123C4F8C80084F84130DBF87830CE
:10501000E66B02939E4200F29582DBF8A400000149
:105020001CF0AAFAD4F8C8101CF0FEFA0546304667
:105030001CF0A2FA014628461CF0EEF91CF06AFCAE
:10504000226EE36DE063D51A9A424FEA650600F0DE
:10505000698294F8E43013B12046FBF737FB94F8EB
:105060002D2094F9B00084F8E1006F2A84F8E36001
:105070004FEAD20100F2ED80052928D8032900F279
:105080003881012900F20A81864200F36A813B4699
:1050900000203BE1AB68BB4205F10C0615D8294660
:1050A00005A8FBF745FA05A92046FFF771FED4F8DD
:1050B0008410B14203D02A463046FEF74BF8D4F8AC
:1050C00084300C3BC4F884302E4635467FE70123FC
:1050D0008B4013F42C6FD7D113F4A85840F0DE8026
:1050E0000D2900F02381054694F8B13094F8322060
:1050F00003F00F0102F00F0291420AD96FF303038C
:1051000084F8B13094F82D3003F00603022B00F040
:105110000C8294F8B230C3F30402013262F3040348
:10512000002884F8B230C0F21E81731E8342A8BFEB
:105130000346D4F85C8018F8132008EB430194F878
:10514000AE3091F8019084F8382003F01F03234417
:105150000FFA82FA93F88D3003F00F03032B40F01F
:10516000FF8194F9C410062900F01F81072900F07F
:105170006981B4F9C2A01AF17F0F40F0AB812046DB
:10518000FBF7DCFA1AF17F0F84F8B5001ED094F813
:10519000AF1094F8330094F8B1C094F8353001F0B2
:1051A0001F01214440F3050091F99E10CDF80090B5
:1051B00040B20CF00F0C0CFB001101EB0A0203F0E3
:1051C0007F03029912B22046FBF7D7FA94F8AE306B
:1051D0005A1C02F01F0262F3040384F8AE3094F804
:1051E0008C3003F00F03934280F27D8194F82E30CF
:1051F00003F00703022B40F074812046FBF766FAA8
:1052000094F8AE306FF3040384F8AE3094F8AF3006
:105210005A1C02F01F0262F3040384F8AF3094F8C2
:105220009D3003F00F03934280F2658194F82E3095
:1052300003F00703032B40F058812046FBF746FAA2
:1052400094F8AF306FF3040384F8AF3094F9B050A2
:105250005DE10F297FD010293FF416AF0E297FF4AE
:1052600042AF022D75D020251CF0BCFB90FBF6F35D
:1052700003FB1600E36D13F8102094F838309A42BF
:1052800003D16B1E13F0FF05EED194F9B0309E42AE
:105290004FF0000359DC84F8B03053E094F8BC3090
:1052A000D3B186424FF000032DDC082D84F8BC30CA
:1052B000A6F1020027D802F0F802502A01D0602A95
:1052C00021D1012384F8BC3000203B461BE000BF05
:1052D0004896FF1F984B020002F0F802502A06D0B1
:1052E000602A14BF0122032290420CDAE9E703226C
:1052F000FAE794F8BC305BB186424FF0000302DC61
:1053000084F8BC30701E94F8BC201AB1451C02E031
:105310000028EAE7451E002B3FF4E6AE94F8B130D2
:105320005A1C62F3030384F8B130DDE61CF05AFB2B
:1053300090FBF6F303FB160094F9B0309E4203DCB9
:1053400084F8B0803B4600E0434694F9B050013504
:10535000E1E7002099E7864203DC2046FFF701FBE6
:1053600095E60023D2E70023E3E694F8B3200C3A55
:1053700094F8AF3003F01F032344204693F99E8036
:1053800094F83530CDF800909044DBF8781003F0B5
:105390007F034246FBF7F1F9A4F8C2806FF07E0A62
:1053A000EDE694F8B4200C32E2E72046FBF7C6F9AC
:1053B000236EDBF878B084F8B500A3EB0803022B6A
:1053C00040F28D8094F8B12094F8B31094F8353001
:1053D00002F00F0202EB420201EB820294F8AF10DE
:1053E00001F01F01214403F07F0391F99E10CDF8D5
:1053F00000900A4420465946FBF7BFF994F8B120C3
:1054000094F8B41094F8353002F00F0202EB420227
:1054100001EB820294F8AF1001F01F01214403F068
:105420007F0391F99E10CDF800900A44204659461A
:10543000FBF7A3F9062384F8C4304FF68173A4F870
:10544000C230ABE72046FBF779F9DBF878B0236E82
:1054500084F8B5000393039B434505D1072384F8E3
:10546000C430A4F8C2A099E794F8AF3098F80110BE
:1054700003F01F032344204693F99E2094F8B13093
:1054800003F00F0303EB430302EB830398F80020C0
:10549000009102EB030A94F83530524603F07F0383
:1054A0005946FBF76AF908F10208D4E794F82D2071
:1054B00002F00502012A07BF606CA26C206D626DCC
:1054C000A3F10801C9B2121AB1EB620FBFF466AFC3
:1054D00010F811A084F8C430A4F8C2A04FE6062347
:1054E000F8E700278CE6002790E694F8AF306FF3DA
:1054F000040384F8AF30002F7FF4A8AE6DB284F8B7
:10550000B050354495FBF6F306FB13556DB204F12C
:10551000740684F8E2503046FBF7EAF9276EE56D31
:10552000AF4212D194F83B3063B194F840302BB1C4
:105530001B4AD2F88430013BC2F88430002384F83F
:10554000403063870BB0BDE8F08F2946022205A8E2
:105550001BF00EFA05A93046FCF7D2FF0235DFE753
:10556000591E0C29B6D801A050F821F09D53000017
:105570009D530000D55400006B530000A35300005E
:10558000AB53000045540000AD540000AD54000082
:10559000AD540000AD540000AD540000AD54000007
:1055A0004896FF1F73B5019190F90B6090F90C209C
:1055B00011FB21F505FA81F3012E05EB8505044663
:1055C00005FA81F0A24D5FD1032A1ED8DFE802F070
:1055D0000222404D94F82D2002F007000344042BD2
:1055E000A8BF042323EAE37303F0070161F3020277
:1055F000884284F82D2008D0D2B202F00702042A93
:1056000003D0D9B22046FEF7BFFF012385F8403111
:1056100002B070BD94F82D2003EBD203102BA8BF6D
:10562000102323EAE37303F01F01104661F3C70060
:10563000B1EBD20F84F82D00E7D0864A02EB83034A
:10564000D3F81C0518F056FD2046FFF78AF9DCE771
:1056500094F82E2002F00701194481F30201134649
:1056600061F3020384F82E30CFE794F82C2002F087
:105670007F030344642BA8BF642323EAE37363F32B
:10568000060284F82C20C0E7023E042EBDD801A1FA
:1056900051F826F0A95600004D5700000B560000A7
:1056A000B557000015580000032AAED8DFE802F015
:1056B00002121F2B94F8302002F00F01194481F3DD
:1056C0000401134661F3030384F83030002384F8A7
:1056D00041309AE794F8322002F00F01194481F327
:1056E0000301134661F3030384F832308DE794F825
:1056F00034300344C82BA8BFC823022BB8BF0223F1
:1057000084F8343081E7D5F888601BF039FF3146E2
:105710001BF082FE504904461EF092FE90B94F499C
:1057200020461EF0ABFE78B9C5F8904021463046C1
:105730001EF07CFE00287FF468AFC5F8884016F0A4
:105740008BFF62E7444CEFE7444CEDE79AB994F8DD
:10575000331041F3050243FA82F3182B6FF017025E
:10576000A8BF18239342B8BF13460A4663F3050245
:1057700084F8332049E7012A7FF447AF94F83110C9
:1057800041F3040243FA82F30F2B6FF00102A8BF2A
:105790000F239342B8BF134643F304030A4663F34F
:1057A000040284F831205A1CB4BF0023012384F87A
:1057B00039302AE70F2A20DC224492F88D1001F0BC
:1057C0000F0633440D2BA8BF0D2323EAE37303F028
:1057D0000F0060F30301864282F88D103FF415AF8D
:1057E0001C4A02EB830304F1CC00D3F8C41312F07B
:1057F000FCFE1B4BC4F8DC3007E794F88C2002F069
:105800000F01194481F30401134661F3030384F883
:105810008C30FAE60F2A0EDC224492F99E100B44DB
:10582000302BA8BF30236FF02F018B42B8BF0B463F
:1058300082F89E30E9E694F89D2002F00F011944A9
:1058400081F30401134661F3030384F89D30DCE621
:105850004896FF1F984B020000002042000096432C
:1058600020A1070070B50C464578067802221BF08F
:105870007FF86570267070BD2DE9F04F85B0054644
:10588000ADF80430531E03EBD373DDF838800F46B8
:1058900016464FEA63090C46A14532DCF3070FD4E4
:1058A000B21E02EBD272B4EB620F09D16600013670
:1058B00005EB4400022205EB46011BF059F8344683
:1058C000661EBDF80430ADF80C3006EBD6767610C7
:1058D000A74205EB44092CDA05EB460415F816300F
:1058E0006078039943EA0020C04710B321460222A2
:1058F00048461BF03DF8731E03EBD37334465E102D
:10590000E6E7611C4C0004F1FF3B05EB4B0205EBA5
:105910008101404617F0F4FFA246002818BF5C46FC
:1059200005EB0A00022205EB440102381BF020F8C7
:10593000B2E7022203A948461BF01AF805B0BDE8F9
:10594000F08F38B50446642518F0CAF80A4B236076
:10595000012184F82C5004F1090012F06AF90123A6
:10596000237212F0D2FCB0FBF5F303FB150084F8B0
:105970002C00204638BD00BF0051020038B5054656
:1059800030201CF093FB0446FFF7DBFF95F82C302A
:1059900084F82C30204638BD6FF07F4202604268A8
:1059A000816822F07F4222F4FE0222F4716222F02A
:1059B0000F0242F4C80242600D4A0A4042F42052EB
:1059C0008260C26802F08032C260026922F07F42C7
:1059D00022F4F81222F4736222F00F0242F0030262
:1059E0000261827D002161F302028182827570472B
:1059F000C00080800A79037962F3000303710B7998
:105A0000027943F343035BB263F3440202714A79C0
:105A1000437962F3030343718A79837962F306035E
:105A20008371CA79C37962F30303C371CB79C279F5
:105A300043F303135BB263F30712C2710A7A037A6A
:105A400062F3050303724B7A0A7C4372037C62F3B0
:105A5000020303740B7C027CC3F3C20363F3C5022D
:105A600002744B7C427C43F303035BB263F3030297
:105A700030B542748B7C827C43F304035BB263F3E6
:105A800004028274CB7CC27C43F303035BB263F3F6
:105A90000302C274CB7CD2B21B0963F30712C27437
:105AA0000B7D03754B7D8A7D4375837D62F3020315
:105AB00083750023CA18C418927AA57A42F30602A5
:105AC00052B2013362F30605062BA572F2D130BD46
:105AD000F0B5034689B002A80C461646FFF75CFFF6
