:1000000000800020BD01000041850000F98400004F
:10001000F9840000F9840000F9840000F9840000EC
:10002000F9840000F9840000F98400004185000093
:1000300041850000F984000081A2000085A2000033
:100040004185000041850000418500004185000098
:100050004185000041850000418500004185000088
:100060004185000041850000418500004185000078
:100070004185000041850000418500004185000068
:100080004185000041850000418500004185000058
:100090004185000041850000418500004185000048
:1000A000E57D0000F17D00004185000041850000F4
:1000B0004185000041850000418500004185000028
:1000C0004185000041850000418500004185000018
:1000D0004185000041850000418500004185000008
:1000E00041850000418500004185000041850000F8
:1000F00041850000C5AC000041850000418500003D
:1001000041850000418500004185000041850000D7
:1001100041850000418500004185000041850000C7
:1001200041850000418500004185000041850000B7
:1001300041850000418500004185000041850000A7
:100140004185000041850000418500004185000097
:100150004185000041850000418500004185000087
:1001600041850000ED8D00004185000041850000C3
:100170004185000041850000418500004185000067
:100180004185000041850000418500004185000057
:100190004185000041850000418500004185000047
:1001A0004185000041850000418500004185000037
:1001B000418500004185000041850000564B4CF20E
:1001C000205210B51A804DF628121A8000BF00BFC9
:1001D00008F0BAF9514B4FF010621A60504A9A6019
:1001E000504ADA60504A136813F4807304D14F49BF
:1001F0000B604FF4A85313604D4B1A78110703D5C9
:100200001A7842F008021A704A4B4B492A221A7097
:100210004A4A4B4B8B4204D252F8040F43F8040B6A
:10022000F8E7484B484900228B4202D243F8042B9E
:10023000FAE74649464A002352F8230041F82300D2
:1002400001336F2BF8D1434B434A802103F8011B44
:100250009342FBD1414B3D4A1A60414B8A221A70AE
:10026000A3F5805324225A70A0221A709A7992071B
:10027000FCD59A79D406FCD43A4A937903F00C035E
:10028000082B384BF9D103221A7146225A719A79F8
:100290009006FCD5334A9179324B4906FBD5324A58
:1002A0004FF0827111600921516020221A709A79F1
:1002B00002F00C020C2AFAD12C4B2D4A1A602D4B5D
:1002C0002D4A1A6000225A60072243F8042C2B4A58
:1002D000C3F80C2D62B608F03FFC144B1B68DA071C
:1002E00005D5274808F08EFA264B274A1A60274B77
:1002F0001B785B0609D5234C234B22689A4204D114
:100300001F4808F07FFA002323600CF083FE08F0FA
:1003100021F90AF0EFF8FEE70E2005403080044096
:10032000823F04000100002B10D0034014D0034092
:1003300002D0074000E00740A498FF1F802F010073
:100340004088FF1FA498FF1FECAEFF1F0082FF1F15
:100350000000000000E400E05FE400E008ED00E0E1
:1003600000500640004006404480044004800440A1
:10037000C010050014E000E0BFD401000000202000
:100380000C89C2601CE00340A5C3945A00F00740EA
:10039000FFFFFFFFFFFFFFFFFFFFFFFFFFFFFFFF6D
:1003A000FFFFFFFFFFFFFFFFFFFFFFFFFFFFFFFF5D
:1003B000FFFFFFFFFFFFFFFFFFFFFFFFFFFFFFFF4D
:1003C000FFFFFFFFFFFFFFFFFFFFFFFFFFFFFFFF3D
:1003D000FFFFFFFFFFFFFFFFFFFFFFFFFFFFFFFF2D
:1003E000FFFFFFFFFFFFFFFFFFFFFFFFFFFFFFFF1D
:1003F000FFFFFFFFFFFFFFFFFFFFFFFFFFFFFFFF0D
:10040000FFFFFFFFFFFFFFFFFFFFFFFFDEF9FFFF23
:1004100010B5054C237833B9044B13B10448AFF33E
:1004200000800123237010BDA498FF1F000000006E
:100430007C2F0100084B10B51BB108490848AFF3E9
:1004400000800848036803B910BD074B002BFBD0A0
:10045000BDE81040184700BF00000000A898FF1F2B
:100460007C2F0100A498FF1F0000000010B584B08D
:100470000A4C0B4B02930B4A01924FF0FF3300934F
:100480002046094B2022802106F078FC074A0849C3
:10049000204604B0BDE810400BF0D0BDC098FF1F4F
:1004A000801A060040420F00A88DFF1F1C89FF1F05
:1004B000D56D000030B5094C83B00125204600956C
:1004C0002B463C22022106F0DBFD20460221A576C8
:1004D00003B0BDE8304005F0A3BF00BFC098FF1FC8
:1004E00070B5CEB2044680E80600D5B2304602218F
:1004F00008F0BCFA0221284608F0B8FA304608F0A5
:10050000A7FAA060284608F0A3FA0023E060236160
:100510006361204670BD00BF30B5044683B00078EB
:1005200008F096FA0546207908F092FAA3689D42F1
:10053000E36824D0984231D0A560E060ADB1A0B1AD
:100540002369012B37DD0023236101221E4B6169E2
:100550001B680193019B63615B1A132B32D9312B0A
:100560008CBF002301231BB201E00022134692B28C
:10057000002062F30F0063F31F4003B030BD9842C8
:10058000F3D02369A56085420CBF01224FF0FF32F2
:1005900013442361E060002DE7D0D0E72369A56014
:1005A000854214BF01224FF0FF3213442361E06003
:1005B000002DDAD0C3E7002201332261D5DA4FF0F3
:1005C000FF32C3E70223D2E75CABFF1F10B504463E
:1005D0000160C8B2022108F049FA00234FF0FF3150
:1005E000032261602273A3602361204610BD00BF17
:1005F00010B5044682B0007808F02AFA6368984281
:100600001A4B08D01B680093009B60603233A360D4
:10061000002002B010BD1B680193A268019B9A42A2
:1006200009D8217B4A1E032A05D8DFE802F00F0211
:100630000707012818D0002002B010BD0028FAD109
:1006400003F2E243012023612073E2E730B1012885
:10065000F1D1032088422073DBD1ECE722699A4272
:10066000E9D202202073D4E70420F3E75CABFF1F3C
:10067000704700BF10B5184C636D1868036882B0EE
:10068000DB6947F612219847144B1B680193012040
:10069000019BC4F8003100FA00F200234FF6FF710D
:1006A000024384F8580084F8702084F85A3084F8A3
:1006B00059306366236684F8F83084F8753084F81E
:1006C000743084F8763084F87730C4F8FC30A16652
:1006D000E16602B010BD00BF2899FF1F5CABFF1F91
:1006E00010B54FF60F0009F0ADF9044B5B6D1868BB
:1006F0000368F8211B68BDE8104018472899FF1FC0
:1007000010B54FF60F2009F09DF9044B5B6D18688A
:100710000368FA211B68BDE8104018472899FF1F9D
:1007200010B54FF60F3009F08DF9044B5B6D18686A
:100730000368FB211B68BDE8104018472899FF1F7C
:1007400010B54FF60F4009F07DF9044B5B6D18684A
:100750000368FC211B68BDE8104018472899FF1F5B
:1007600008B5002009F0D2F9003018BF012008BDFB
:100770002DE9F041E0290C469DF8185008D8013DBC
:10078000EDB20F2D02D849B2002912DBBDE8F0818D
:10079000F729FBD90834E4B2012303FA04F414F076
:1007A000DD0FF3D0436D18680368BDE8F0411B68A6
:1007B00018471F46436D8046186803682943C9B22D
:1007C0001B6816469847D8F854301868036806F036
:1007D0007F011B6804F0EF049847C02CD6D0D8F8EE
:1007E00054301868036807F07F011B68BDE8F041CA
:1007F000184700BF2DE9F0415FFA82F80C0608F1B6
:10080000FF3504F0FE4444F410442D02064605F47E
:10081000706544F00904000482B02C4300F4FE002B
:100820000F46204309F00EF9CDF80080FBB2F2B27A
:1008300090210348FFF79CFF02B0BDE8F08100BFA4
:100840002899FF1F2DE9F0415FFA82F80C0608F1A4
:10085000FF3504F0FE4444F400442D02064605F43E
:10086000706544F00804000482B02C4300F4FE00DC
:100870000F46204309F0E6F8CDF80080FBB2F2B253
:1008800080210348FFF774FF02B0BDE8F08100BF8C
:100890002899FF1F2DE9F0415FFA82F80C0608F154
:1008A000FF3504F0FE4444F430442D02064605F4BE
:1008B000706544F00B04000482B02C4300F4FE0089
:1008C0000F46204309F0BEF8CDF80080FBB2F2B22B
:1008D000B0210348FFF74CFF02B0BDE8F08100BF34
:1008E0002899FF1F036810B504460BB17430984770
:1008F00094F87530803B7F2B00F28580DFE813F0A1
:100900008A008300830083008300830083008300C8
:1009100083008300830083008300830083008300BF
:10092000960083008300830083008300830083009C
:10093000830083008300830083008300830083009F
:100940009A00830083008300830083008300830078
:10095000830083008300830083008300830083007F
:100960009E00830083008300830083008300830054
:10097000830083008300830083008300830083005F
:10098000A200830083008300830083008300830030
:10099000830083008300830083008300830083003F
:1009A000AC00830083008300830083008300830006
:1009B000830083008300830083008300830083001F
:1009C000B0008300830083008300830083008300E2
:1009D00083008300830083008300830083008300FF
:1009E000C4008000D100E10083008300E90083009F
:1009F000ED00F100F500F900FD0083000101840025
:100A0000A36A002B60D110BD236D002BFBD0BDE885
:100A100010401847A368002BF5D094F8772094F87D
:100A2000761094F87400BDE810401847E368002B76
:100A3000F3D1E8E72369002BEFD1E4E76369002BEA
:100A4000EBD1E0E7A369002BDDD094F8761094F8A1
:100A50007400BDE810401847E369002BF5D1D2E7D8
:100A6000226A002ACFD094F8771094F8763094F860
:100A70007400C90101F47E5103F07F031943A1F50D
:100A80000051BDE810401047636A002BBBD0B4F89A
:100A90007610802904F1780028BF8021BDE810403D
:100AA0001847E26A002AAED094F8773094F87600BE
:100AB000DB0103F47E5300F07F001843BDE81040D3
:100AC0001047236B002B9ED094F87600BDE81040B1
:100AD0001847636B002B9AD195E7A36B002B96D137
:100AE00091E7236C002B92D18DE7E36B002B8ED125
:100AF00089E7636C002B8AD185E7A36C002B86D134
:100B000081E7E36C002B82D17DE700BFF8B5436D30
:100B10000446186803681B69984708B90020F8BDA7
:100B200094F80D31626D23F0010384F80D311068E3
:100B300003685B699847C3B2FD2BEFD0626E002A51
:100B400049D001067ED494F85B10F0295FD0F729D4
:100B50005DD0A11881F85B30216E4B1E9A4253D3B1
:100B600094F85B30F02B00F00A82F72B00F007823C
:100B70001A0650D4002284F87520B02A5CD0A02A2E
:100B80005AD0D02A58D0E02A56D0C02A54D00020BB
:100B900084F87400032994F85C0008BF94F85D5051
:100BA00084F8760018BF002500210120B02A84F8BF
:100BB00077506166216684F8F80008D000F2D5818C
:100BC000902A04D0A02A02D0802A00D0002384F8E2
:100BD00059300120F8BD94F8592084F85B3015068F
:100BE0004DD440B20028C0F20E8294F90D01636822
:100BF00040F0010084F80D0103B19847002084F80B
:100C0000590060662066F8BD0132626686E7A11869
:100C100081F87830A0E703F10C02D2B2012AA9D9F9
:100C2000FD2BA7D0EF2B00F2EC8103F0F002802A1D
:100C300084F8752040F0EF8103F00F00013084F854
:100C40007400A7E7A3F1F0010F293FF67CAF012064
:100C500000FA01F111F0810540F0B18111F45F4F0C
:100C60003FF471AF84F8765084F8775084F874506C
:100C700084F87530C4F8FC0084F8F800F8BD02F17F
:100C80000C01CDB2012DACD9FD2AAAD0EF2A00F279
:100C9000578102F0F006802E40F0538140B20028C8
:100CA000A0DB0120C9B2814284F85B2084F85C306B
:100CB00060669AD9FD2A98D0EF2A94BF02F0F00519
:100CC0001546A5F180037F2B8FD801A151F823F0A1
:100CD000390F0000EB0B0000EB0B0000EB0B0000EA
:100CE000EB0B0000EB0B0000EB0B0000EB0B00002C
:100CF000EB0B0000EB0B0000EB0B0000EB0B00001C
:100D0000EB0B0000EB0B0000EB0B0000EB0B00000B
:100D1000390F0000EB0B0000EB0B0000EB0B0000A9
:100D2000EB0B0000EB0B0000EB0B0000EB0B0000EB
:100D3000EB0B0000EB0B0000EB0B0000EB0B0000DB
:100D4000EB0B0000EB0B0000EB0B0000EB0B0000CB
:100D5000390F0000EB0B0000EB0B0000EB0B000069
:100D6000EB0B0000EB0B0000EB0B0000EB0B0000AB
:100D7000EB0B0000EB0B0000EB0B0000EB0B00009B
:100D8000EB0B0000EB0B0000EB0B0000EB0B00008B
:100D9000390F0000EB0B0000EB0B0000EB0B000029
:100DA000EB0B0000EB0B0000EB0B0000EB0B00006B
:100DB000EB0B0000EB0B0000EB0B0000EB0B00005B
:100DC000EB0B0000EB0B0000EB0B0000EB0B00004B
:100DD000310F0000EB0B0000EB0B0000EB0B0000F1
:100DE000EB0B0000EB0B0000EB0B0000EB0B00002B
:100DF000EB0B0000EB0B0000EB0B0000EB0B00001B
:100E0000EB0B0000EB0B0000EB0B0000EB0B00000A
:100E1000310F0000EB0B0000EB0B0000EB0B0000B0
:100E2000EB0B0000EB0B0000EB0B0000EB0B0000EA
:100E3000EB0B0000EB0B0000EB0B0000EB0B0000DA
:100E4000EB0B0000EB0B0000EB0B0000EB0B0000CA
:100E5000390F0000EB0B0000EB0B0000EB0B000068
:100E6000EB0B0000EB0B0000EB0B0000EB0B0000AA
:100E7000EB0B0000EB0B0000EB0B0000EB0B00009A
:100E8000EB0B0000EB0B0000EB0B0000EB0B00008A
:100E9000EF0E0000310F0000390F0000310F00008D
:100EA000EB0B0000EB0B0000D10E0000EF0E00007A
:100EB000D10E0000D10E0000D10E0000D10E0000B6
:100EC000D10E0000EB0B0000D10E0000D10E00008F
:100ED0000023012084F8743084F8763084F8773069
:100EE00084F875506366236684F8F800F8BD8021A5
:100EF0000023216684F8785084F859307F21636E8E
:100F00008B422ED302F00F020023013294F85C10C2
:100F100084F87420012084F8761084F8773084F8FF
:100F2000755063662366C4F8FC0084F8F800F8BDC9
:100F3000022323660121E2E7032323660221DEE781
:100F4000164606F0DF05902D3FF4A8AE06F0BF056B
:100F5000A02D3FF4A3AE06F0EF06C02E3FF49EAEE8
:100F60003FE6013363660020F8BDD02A3FF42FAE80
:100F7000E02A3FF42CAEC02A7FF428AE27E6F02208
:100F800080230025012194F8F76084F8752084F807
:100F9000763084F8F720C4F8FC30204684F8775087
:100FA00084F8745084F8F810FFF79CFCF7220223B1
:100FB00084F8796084F8782028466366F8BD94F850
:100FC0007810F02902D0F7297FF40FAE551C224487
:100FD00000214FEA152E82F878300126F02784F898
:100FE000765084F877E084F8741084F8591030460D
:100FF000C4F8FC5084F875706166216684F8F86066
:10100000F8BD1A46B7E503F10C02D2B2012A7FF609
:10101000ECAD1A4650E6902A3FF40EAEADE500BFA7
:1010200090F87030DA0718D513F0FE0F15D070B5B0
:1010300090F8755085F08002602A82B004460DD881
:1010400090F874608E4231D081B35B08012B32D0AE
:10105000032B00F09B8002B070BD7047A5F1F00338
:101060000F2BF8D801A252F823F000BF6311000043
:10107000411100000F110000F31000005710000094
:1010800057100000CB10000057100000CB100000DC
:1010900057100000CB100000CB100000CB10000058
:1010A00057100000CB100000CB1000005B08012B94
:1010B00001D0022BCFD194F8773094F876200096A7
:1010C00029462046FFF754FBC5E705F10803DBB2CC
:1010D000072BC0D8012202FA03F313F0DD0FBAD0B8
:1010E000636D1868036829461B6802B0BDE870404C
:1010F0001847436D90F8765018680368F3211B6811
:101100009847636D186805F07F010368ECE7436D4D
:1011100090F87750186894F876200368F2211B68DD
:1011200042EAC5159847636D1868036805F07F01AA
:101130001B689847636D1868C5F3C6110368D3E749
:10114000436D90F87650186894F8773002682D0156
:1011500003F00F03126805F07005F1211D4390475D
:10116000BEE7B0F87660802E28BF802600F17805B3
:10117000002E3FF470AF2E44636D15F8011B186804
:1011800003681B689847B542F6D164E794F8773056
:1011900094F8762000962946FFF7EAFA5BE700BF4D
:1011A00070B5174C94F85860102E02D900252846C7
:1011B00070BD2046FFF7AAFC05460028F6D094F83B
:1011C0007530902B0CD083F08003602B0BD90C482A
:1011D000FFF788FB31460A48FFF722FF284670BD1B
:1011E00094F877303BB194F874309E42EFD0002EE3
:1011F000EDD00025EEE7802384F87530F3E700BFDB
:101200002899FF1FF8B5294C294F94F87030DFF862
:10121000ACE0C7F800E00025012243F0010362F3CF
:1012200047034FF6FF76294604F17800802284F8C0
:101230007030676525606560A560E5602561656162
:10124000A561E56125626562A562E5622563656366
:10125000A563E56325646564A564E564256584F894
:10126000585084F8595084F85A5025666566A66629
:10127000E66684F8745084F8755084F8765084F8E3
:10128000775084F8F8500CF0CFF92046C4F800519C
:10129000C4F80451C4F8085184F80C5184F80D5175
:1012A000044A0549BDE8F8400AF0C8BE2899FF1F66
:1012B0002499FF1F1C89FF1F71060000708FFF1FFC
:1012C00000207047704700BF10B5044604F080FF4F
:1012D0000A2830D00D283DD04FF6FD73984201D931
:1012E000012010BD0346B4F94220B4F9401004F1C6
:1012F000080004F051FF94F82230032BF0D8DFE807
:1013000003F0140E0802B4F84230181AA4F8420090
:10131000E6E7B4F84030181AA4F84000E0E7B4F863
:1013200042301844A4F84200DAE7B4F840301844D8
:10133000A4F84000D4E794F9333094F93410B4F8A9
:1013400042205B1A13440022A4F84230A4F8402043
:10135000012010BD0023A4F84030012010BD00BFC3
:1013600010B518380BF0B2FB09490A4C0BF002FC1F
:1013700009F088FD0BF0C4FD01212060172007F063
:1013800061FB21682820BDE8104007F04DBA00BF7E
:10139000907592427CA1FF1F70B50020104C114B3C
:1013A000114E014603F1400243F8041B9342FBD166
:1013B000C0EBC005731901305B79DB091CBF735D9D
:1013C00003F00F030828236004F104041346E9D155
:1013D000FFF7B6F9FFF794F9044B00221A7070BDBD
:1013E000DCA0FF1F30A3FF1F688DFF1FA08DFF1F14
:1013F0002DE9F0471546002A63D004460F46DFF872
:10140000C88000264FF6FD7900F1080A0BE004F0D1
:10141000DFFE0A2825D00D2832D0484511D90120F9
:10142000013D06440AD0236817F8011B1B68434599
:101430002046ECD09847013D0644F4D13046BDE843
:10144000F0870346B4F94220B4F94010504604F046
:10145000A3FE94F82230032BE1D8DFE803F02B241D
:101460001D1694F9333094F93410B4F842205B1A05
:1014700013440022A4F84230A4F840200120CFE712
:101480000023A4F840300120CAE7B4F84230181A0B
:10149000A4F842000120C3E7B4F84030181AA4F8B9
:1014A00040000120BCE7B4F842301844A4F84200E0
:1014B0000120B5E7B4F840301844A4F840000120FA
:1014C000AEE71646BAE700BFC912000070B5084D76
:1014D0002B689842044608D3064EE41AFFF700F939
:1014E00033689B009C422B60F7D21B1B2B6070BDA6
:1014F000C8A2FF1F60A1FF1F70B50D4D2B68984259
:10150000044612D30B4E32682A60E41A07F0B4FA8C
:101510000146094803F0FAFE07F0AEFA0146074813
:1015200003F040FF2B68A342EDD91B1B2B6070BD5D
:10153000949AFF1F60A1FF1FD4A8FF1FD4A5FF1F0F
:10154000F8B504460A4E0B4D0B4F55F820000A46DD
:1015500056F82410FFF79EF90849094A56F8243036
:1015600055F8240047F8243008601360F8BD00BF28
:1015700038A5FF1F5089FF1FA09AFF1F889AFF1FE1
:10158000B89AFF1F2DE9F04F724DDFF80C82724EB2
:10159000724FDFF808B2DFF808A2DFF8089283B0D4
:1015A00022200024C0B206F009FE03460146286846
:1015B0003B6004F0EFFB2968DBF80000CA6ADAF848
:1015C0000030904200F3A5809342D4BFC0EB0302E9
:1015D000C0EB02021B1AB3F5804FAABF9203C2EB05
:1015E0008232013392FBF3F391F834203B604FEAEF
:1015F000E31E49F824E0002A56D0594B1B78032BF0
:1016000052D8DFE803F049020249564B1B78002B01
:1016100054D0554B1B78002B50D0544A5449554B4D
:101620001460042C32680A60C3F800E0524A7ED08D
:10163000524B11681868524B019201EB810C4FEA32
:101640004C1C00EB80000CEB4000C1EBC101DFF84B
:1016500044C1595C00938444A444090901312046E3
:101660008CF803E0FFF76CFF019A009B1268C2EB55
:10167000C2022046995C09090131FFF761FF01347C
:10168000404B0122052C1A7005F1040506F10406F1
:1016900011D103B0BDE8F08F3B4B20461968FFF72E
:1016A0004FFF384B01221A700134052C05F1040557
:1016B00006F10406EDD058F8040F73E7334B1B789E
:1016C0004BB32A4A2A492B4B1460042C32680A6017
:1016D000C3F800E0284A2CD011682D48284B50F858
:1016E000210001EB810200EB8000520102EB40027D
:1016F000C1EBC1012748595C831823440909013112
:10170000204683F803E0FFF71BFF1E4B01221A70EF
:10171000CAE700225EE7184A194B1268C2EBC20200
:101720002046995C09090131FFF70AFFBCE7144B19
:101730009CE713681649174851F82320A02101FBA4
:1017400003F10A2303FB021303445A786EF30602E3
:101750005A70DAE780A1FF1F5089FF1F849AFF1F8C
:10176000308DFF1FB59AFF1F809AFF1F54A1FF1FE6
:10177000889AFF1FB89AFF1FFCA2FF1FF4A2FF1F49
:10178000688DFF1F5CA1FF1F4C89FF1FCC9FFF1FAF
:10179000DCA0FF1FCC9AFF1F80DE000000A1FF1F0E
:1017A000208AFF1F38A5FF1F08B50A4B1A783AB9DF
:1017B0001146094804F0E8F8084B01221A7008BDE8
:1017C000074A0548002104F0DFF8044B01221A7093
:1017D00008BD00BFCCA2FF1F389AFF1F07A3FF1F41
:1017E0004040BF002DE9F04FA14BA24C196887B0D3
:1017F000054608460BF0B6F80BF0A8FB9E4A9F4939
:1018000013680293029B0E6820609B1B98424FEA6C
:10181000400408D89A4816680378039683F00103B9
:10182000039E03700E601368964A0493049B11682C
:1018300091485B1A9C4208D8934900680B78059040
:101840000598106083F001030B70904B1B781BB15F
:101850008B4B1B78002B6FD18D4C2378002B4CD1F8
:101860008C4B1B78002B51D0854B1B78002B55D10E
:10187000894B1B78012B00F0A981022B56D0002246
:101880001146864804F080F84FEAC508844EC5EB3F
:10189000080333449B79D80740F19480814BDFF8EB
:1018A000349253F82530C9F800302378002B58D0F3
:1018B0007D4B1B78002B54D0C5EB08052E4401242A
:1018C0000BE03B68A34279D02B680B33A3423AD09C
:1018D00004F05AF801341B2C3DD03378734D744F0B
:1018E0006E4803F00F030B33A3424FF00002A1B286
:1018F000E7DA0022A1B26948EAE7614B1B78002BC6
:1019000040F06A81634B1B78002BB1D1694B1B7887
:10191000002BADD05A4B1B78002BA9D0664B5F48EB
:1019200053F82520002104F02FF8ADE74D220021C7
:101930005A4804F029F8A7E7012200215748544CDF
:1019400004F022F8A0E7A1B25C4A5448013404F044
:101950001BF81B2CC1D15A4B01221A7007B0BDE8ED
:10196000F08F544B1B78002B39D0C5EB08052E4463
:10197000012411E00B68494852F823300B33A3428D
:101980004FF00002A1B214D02B68A34201D003F0A3
:10199000FBFF01341B2CDED033784A494A4A444DC0
:1019A00003F00F030B33A342E4DA0022A1B23B4859
:1019B000EDE74FF4000203F0E7FFEAE7434A03F0E4
:1019C000E3FF87E73C49374ADFF80891404B51F87D
:1019D000251052F82520C9F800101A6065E7394B28
:1019E0001B68C3EBC30333449B795907B3D4C5EBDE
:1019F000080737444FF0020B01240AE00022A1B28D
:101A0000264803F0C1FFBBF11B0F29D001340BF1B5
:101A1000010B3B7803F00F030B33A342EEDB012CE9
:101A200000F0E180022C00F0EA80EB1CA342E5D13B
:101A30001FFA84FAD9F800201848514603F0A4FF91
:101A4000144A1278002ADED00D4A1278002ADAD021
:101A500051460022114803F097FFBBF11B0FD5D16F
:101A600005EB85077F014FF00B0B002457E000BF0B
:101A7000BCA2FF1F8C9AFF1F5CABFF1FC09AFF1F09
:101A8000D0A5FF1F7C9AFF1FC0A2FF1F589AFF1FFF
:101A9000B59AFF1FC49AFF1F308DFF1F389AFF1F92
:101AA000688DFF1F94DE0000809AFF1FF4A2FF1FC5
:101AB00078A1FF1FCC9FFF1FB4DE00000080FF0055
:101AC00007A3FF1FFCA2FF1FDCA0FF1F8080800078
:101AD000549AFF1FC4A2FF1F524B53F82530A34254
:101AE00052D004EB8403504A07EB430313449B7822
:101AF0001B09012B39D0002B62D04C4B1B78002BDB
:101B000033D14B4B4B481A68594603F03DFF013423
:101B10000BF1010B102C1FFA8BFB3FF41CAFC5EB34
:101B20000803F35C03F00F030133A342EFDD424BE4
:101B30001A780ABBA207CFD03A4A52F82520A2420F
:101B40002DD004EB8402384907EB42020A44927814
:101B50001209012A09D0002ACFD11A78002AD6D139
:101B60005946344803F010FFD1E7D9F80020314836
:101B7000594603F009FFCAE7304A2E4801935946F7
:101B800003F002FF019BD5E72D4B1B78002BA8D05B
:101B90004FF400025946274803F0F6FEB7E7284BFA
:101BA0001B78002BF4D1204A04EB840307EB43039A
:101BB00013449A781209012AD7D0002A9DD1CFE781
:101BC0001E4A1C48594603F0DFFEA0E71D4A19488B
:101BD000002103F0D9FE57E644F64D420021154896
:101BE00003F0D2FE50E6184B5B7813B1174B1B780D
:101BF00093B9174A0F48012103F0C6FE06E7124BBE
:101C00009B7813B1114B1B7833B94FF680720221C8
:101C1000084803F0B9FEF9E600222146054803F022
:101C2000B3FEF3E6DCA0FF1FCC9AFF1FC0A2FF1F8C
:101C3000549AFF1F389AFF1FC49AFF1F20202000CC
:101C4000589AFF1F808080005C9AFF1FD0A5FF1F5D
:101C5000FFFF800010B550B904460121094804F087
:101C6000B3FA21460748BDE8104004F0AFBA00219E
:101C7000044804F0A9FA01210248BDE8104004F02C
:101C8000A5BA00BF14A1FF1F2DE9F041C600321A0A
:101C9000574D584CAB5C54F820E003F00F03013370
:101CA0009E452A4429DB5179C90956D1517801F062
:101CB0000F0144F82010341A2C440746A37803F08F
:101CC0000F02B2EB131F6CD0A27910336FF34102F5
:101CD000A370A271F61B0BF0F9FCAB5DAA1903F01F
:101CE0000F030133D17890FBF3F404FB13000130B0
:101CF00060F30301D170BDE8F08192F806C0CCF327
:101D0000400CBCF1000F11D051780F0901F00F0108
:101D10008F420ADDBE4508DB5379DB09C9D0002FAD
:101D200036D0013F44F82070C5E73FB3321A2A4449
:101D30005179C9090FD0BEF1000F12DBBCF1000FC1
:101D400009D0537803F00F039E453CDA331A2B4435
:101D50005F783F09E3E7BDE8F08192F806C0CCF375
:101D6000400CBCF1000FF1D1321A2A44527802F033
:101D70000F029B1A013B44F820309CE7321A2A4498
:101D8000D77807F00F07BE45D0DB5379DB0990D039
:101D9000331A2B44DB7803F00F03013B44F8203067
:101DA00089E7237913F07F080FD1F31B2B449A792D
:101DB0006FF341029A71F31B2B4401219A7861F36E
:101DC00007129A7086E7BDE8F0810BF07FFC0A4BA2
:101DD000C21783FB0013C2EB6313642202FB1300E0
:101DE0008045E2DDA37943F00203A371E3E700BF7E
:101DF000688DFF1FDCA0FF1F1F85EB5170B50C4DD8
:101E00000C4E0024C4EBC403334420465B79DB0949
:101E10002B680ABF204603F1FF33013301342B60E6
:101E2000FFF732FF082C05F10405EBD170BD00BFB0
:101E3000DCA0FF1F688DFF1F70B5124D124E0024ED
:101E400008E0013B002B2B6016DB0134082C05F168
:101E5000040510D0C4EBC402B3185B79DB092B680E
:101E6000EFD02046013301342B60FFF70DFF082C23
:101E700005F10405EED170BDB35C03F00F032B60D8
:101E8000E3E700BFDCA0FF1F688DFF1F0949C0EB1F
:101E9000C0020A4408495279D20951F8202004D1DD
:101EA000013241F82020FFF7EFBE013A41F820202F
:101EB000FFF7EABE688DFF1FDCA0FF1F3F4B404AC3
:101EC0001B68F0B415683F4C9900CF18AE007F0135
:101ED000721907EB42072744BF7800EB1710072859
:101EE00010D8DFE800F0111D2A3744515E04194470
:101EF0004901721901EB4202A31807219A7861F394
:101F000007129A70F0BC704719444901731901EB2C
:101F1000430323449A786FF307129A70F0BC70471A
:101F200019444901731901EB4303234401219A78B1
:101F300061F307129A70F0BC704719444901731994
:101F400001EB4303234402219A7861F307129A704C
:101F5000F0BC704719444901731901EB4303234452
:101F600003219A7861F307129A70F0BC7047194404
:101F70004901721901EB4202A31804219A7861F316
:101F800007129A70F0BC704719444901721901EBAD
:101F90004202A31805219A7861F307129A70F0BCE7
:101FA000704719444901721901EB4202A318062136
:101FB0009A7861F307129A70F0BC7047FCA2FF1F79
:101FC000F4A2FF1FCC9AFF1F38B5134C134B2468A3
:101FD00053F8203004EB440403EB84047F2C0546C3
:101FE0000AD9A9B20E4A0F4803F0CEFC0E490F4A97
:101FF00001230B70137038BD0D480E4B0470204642
:1020000043F82540FEF7F6FBA4F11803352BE8D87A
:102010002046FFF7A5F9E4E7CCA5FF1F38DC000058
:1020200080808000389AFF1F07A3FF1F5CA1FF1F5D
:1020300006A3FF1FB08AFF1F0C4B10B5044653F8D0
:1020400020007F2807D80A460021FEF7FBFB00216D
:10205000172006F0F7FCA1B20022054803F094FC1B
:102060000449054A01230B70137010BDB08AFF1F8D
:10207000389AFF1F07A3FF1F5CA1FF1FF8B51E4C76
:102080001E4B246853F8203004EB440403EB840413
:102090007F2C05460AD9A9B2194A1A4803F074FCE4
:1020A00019491A4A01230B701370F8BD184FDFF855
:1020B00074E03B681748184EC3EBC30306EB0216E7
:1020C0001EF8033050F822E01A090132204606F8C3
:1020D0000E40FEF78FFB3B681049114ACB5C42F87B
:1020E0002540002BD7D0A4F11803352BD3D8204698
:1020F000FFF736F9CFE700BFCCA5FF1F38DC0000A3
:1021000080808000389AFF1F07A3FF1F5CA1FF1F7C
:10211000FCA2FF1FDCA0FF1F5CA0FF1F388DFF1F6C
:10212000B08AFF1F688DFF1F38B5134B044653F864
:1021300020007F280AD9A1B20022104803F024FC15
:102140000F49104A01230B70137038BD0E4D0F4A12
:102150002B68C3EBC3030021D25C12090132FEF7E6
:1021600071FB2B680A4AD35C002BE4D000211720B6
:1021700006F068FCDFE700BFB08AFF1F389AFF1F38
:1021800007A3FF1F5CA1FF1FFCA2FF1F688DFF1F9D
:10219000388DFF1F2DE9F04FC64DC74955F8203047
:1021A00011F8009087003A18520103EB830302EB09
:1021B0004303C24A134487B093F802804FEA1818C9
:1021C000B8F1070F044600F0118108F1FF38B8F1AB
:1021D000050F0AD8DFE818F02E000600DA00E50047
:1021E0000C001B00002345F8243007B0BDE8F08F39
:1021F000B34BC4EBC4041C446379C3F3C01282F034
:10220000010262F3C713637107B0BDE8F08F0BF0F2
:102210005DFAAB4AC4EBC403D35C03F00F03013394
:1022200090FBF3F202FB1300013045F8240007B0E5
:10223000BDE8F08F55F82430A04ADFF8B0B2A04EC8
:1022400007EB04084FEA481803EB830308EB43034A
:1022500013444FEAC40A5B7803F07F03CBF80030E5
:1022600006F00AFC55F82410964B974A1B68CDF8E7
:10227000009001EB810108EB4108904901EB080E49
:1022800011F808109EF802E00EF00F0E0EFB03335B
:102290001844C4EB0A088A4B106013F808E013686E
:1022A0008A484FEA1E12013201F07F0103F010F854
:1022B00055F82430DA07B04400F1BE8098F80520C4
:1022C00002F07F02622A40F3BF80632A00F014818B
:1022D0007F497B48794E07EB04084FEA4818C4EB66
:1022E0000A0203EB830308EB4303805C16F803E068
:1022F0000B68DBF8002000930309CDF804900EF082
:102300007F0101337348DFF8E891DFF8E8B103F0AB
:1023100029F855F8242003974646574690004FF079
:102320000008A2468118654B06EB4101194441445F
:10233000CAEB070E91F90340002C21463CDB604BB1
:1023400013F80E20644B120953F828000132FEF7EF
:10235000A1FA55F82A20C9F80040900008F10108B8
:10236000B8F1040F09F10409DCD1039F53495B4B19
:1023700057447F01104407EB400003EB0A14095C4B
:10238000C1F30603A35407B0BDE8F08F4C4BC4EB78
:10239000C4041C4463796FF3C713637107B0BDE8CD
:1023A000F08F474BC4EBC4041C44637943F08003B3
:1023B000637107B0BDE8F08F5BF82810D9F80040D2
:1023C0008C42CAEB070EC9D03D4B13F80E20424B8E
:1023D000120953F828000132FEF75CFA55F82A205A
:1023E0005BF82810C9F800109000B7E7082008F043
:1023F0007DF806285CD8DFE800F0041C19161310DD
:102400000D0000218846364808F02AF8344807F0C5
:10241000D7FFDAE606218846F5E705218846F2E788
:1024200004218846EFE703218846ECE7022188462D
:10243000E9E701218846E6E706F01EFB24491D4B2B
:10244000086053F8243044E706F016FB059098F82E
:10245000033024491B0908682349049103930AF0B7
:1024600031FB039B049951F823100AF083FB4FF0D2
:102470007A510AF07FFB039098F8050000F07F0086
:102480000AF024FB039B014618460AF073FB059AE9
:10249000804610460AF016FB014640460AF062FAF2
:1024A0000AF054FD0A49034B086053F8243010E742
:1024B0000721A8E7DCA0FF1F388DFF1FCC9AFF1F64
:1024C000688DFF1F00A3FF1F58A0FF1FD4A8FF1F88
:1024D000BC9AFF1FD4A5FF1F5089FF1F5CA0FF1FE0
:1024E000888FFF1F60A1FF1F408BFF1F448DFF1FC0
:1024F00064A1FF1FA09AFF1F0BF0E8F8049006F0FC
:10250000BBFA164A98F8038006461068144A0392EC
:102510004FEA18180AF0D6FA039A52F828100AF06F
:1025200029FB4FF07A510AF025FB049B80460D48A9
:1025300083FB00011944DA17C2EBA11202EB42013E
:10254000C2EB4112981A01300AF0C0FA0146404627
:102550000AF010FB804630469CE700BF60A1FF1FD9
:10256000408BFF1F859176AC2DE9F04FDFF8848218
:10257000DFF888A2D8F80030DFF884B25AF82320B8
:1025800003EB830302EB82025B0103EB42035B4438
:1025900085B0187A10F07F0440F0A18001948B4B35
:1025A0001B78012B00F08180022B40F08E80884B3D
:1025B0001B78002B00F08C8006F05EFADFF8449266
:1025C0000090002462E0834B834A1868C4EBC40384
:1025D000134409EB0607DA78BD60120903930292EF
:1025E0000AF070FA7D4B029A53F822100AF0C2FAF0
:1025F000029028460AF066FA029A014610460AF04E
:10260000B1F90AF0A3FC039B9B797860DB0732D415
:102610005AF82410724B01F10F021340002B4FEABD
:102620008402C0F2B4806F48304409EB0605C75CF1
:10263000AB810FB10025C554019BE3B12244520187
:1026400001EB810302EB43035B440E445A7A664874
:10265000664950F8263002F03F0201EBC20551F8FE
:1026600032106A6801338B4240F8263000F09480C3
:10267000934280F29A80D8F80030A34200F0838021
:102680002046FFF703FC0134082C1ED0260109EB7D
:102690000607009B7D68AB42F5D3554B1B78002B9A
:1026A00091D0FEF779FE7D688DE7494B1B787BB1B1
:1026B00006F0E2F9D8F80040DFF848914D4E2301CA
:1026C00009EB03025568A8421AD205B0BDE8F08FA5
:1026D000D8F8000005B0BDE8F04FFFF783B80AF066
:1026E000F5FF454BC21783FB0013C2EB6313642253
:1026F00002FB13008442D4BF0023012301934EE761
:102700003B4A1278002A54D15AF82410344A0F3127
:102710000A40002A55DB3349194409EB03008E5C5B
:1027200082810EB1002088542A4A2B4910682B4F11
:10273000C4EBC4020A449944D678C9F80850360953
:102740000AF0C0F957F826100AF014FA064628468F
:102750000AF0B8F9014630460AF004F90AF0F6FB2F
:10276000019BC9F8040023B12046FFF713FDD8F8F8
:1027700000402046FFF736F8D8F8000005B0BDE865
:10278000F04FFFF73BBB2046FFF72CF878E7013B03
:1027900063F00F03013346E7934202DB002340F866
:1027A00026302046FFF7F6FC65E7002340F8263088
:1027B00061E7FEF7F1FD3468230109EB0302556878
:1027C000A2E7013A62F00F020132A4E7308DFF1F49
:1027D000589AFF1F00A3FF1F688DFF1F408BFF1F2C
:1027E0000F0000805CA0FF1F30A3FF1F608BFF1F46
:1027F000A08DFF1FFCA2FF1F1F85EB51DCA0FF1F58
:10280000CC9AFF1F4CA5FF1F0C4B70B501220C4E3C
:102810001A70002406F030F906EB041501346860E4
:1028200006F02AF9082CA860F4D1064B1B7803B1F6
:1028300070BDBDE87040FDF773BF00BF589AFF1F21
:102840004CA5FF1FA08DFF1F072850D82DE9F0478A
:10285000C0EBC002264C274BA25C02F00F020132F3
:1028600002EB82046400073424F00704114400AF33
:10287000EE4600EB8000ADEB040D002403EB4010AE
:102880006D4691FBF2F3264602FB1313011903EB8D
:10289000830805EB480C0136D1F800A0D1F804906C
:1028A000098945F818A00133B242ACF8081004F1C8
:1028B0000A0493FBF2F1CCF8049002FB1133E5DC3F
:1028C00000231C46E918C6180134D1F80080D1F85D
:1028D00004C0098940F80380A242C6F804C03181CF
:1028E00003F10A03EEDCF546BD46BDE8F08770470C
:1028F000688DFF1FCC9AFF1F2DE9F0473A4FBDF8B6
:10290000206005468946384629469246984603F097
:10291000ABFC97F9314080B2A4B2C0EB0803341B82
:1029200003EBD37304EBD47409EB63030AEB640485
:1029300000222846A7F84030A7F8424087F84620F2
:102940000AF0FEFE48B304463E464FF6FD7801E02D
:10295000013C22D015F8011B234803F039FC0A285A
:102960002FD00D283BD04045F2D80346B6F942207F
:10297000B6F940101D4803F00FFC96F82230032BE7
:10298000E6D8DFE803F018120C02B7F84230013C39
:10299000A3EB0000A7F84200DCD1BDE8F087B7F850
:1029A0004030181AA7F84000D2E7B7F84230184470
:1029B000A7F84200CCE7B7F840301844A7F8400029
:1029C000C6E796F9333096F93410B6F842205B1A10
:1029D00013440022A6F84230A6F84020B8E70023AE
:1029E000A6F84030B4E700BF0CA1FF1F14A1FF1FE1
:1029F00030B5054683B010460C46FFF72BF9074B60
:102A00001A680332610116235200009309B2284666
:102A100012B22023FFF770FF03B030BD8C8CFF1F74
:102A2000F0B5194C194F1A4E85B004F1400502E07B
:102A30000834AC4226D02379002BF9D03B680393AD
:102A4000039B1448336004F0F1FC0121124803F0A9
:102A5000A1FB1249104803F0ADFB01210E4803F021
:102A6000B3FB00210C4803F0B1FB20232068009346
:102A70000A2280230021FFF73FFF0023237108343F
:102A8000AC42D8D105B0F0BD508AFF1F5CABFF1F30
:102A9000789AFF1FC098FF1F14A1FF1FD4DF00000A
:102AA00030B51E4C83B0012104F1080003F072FB25
:102AB00004F108001A4903F07DFB002504F1080029
:102AC0000121A4F84050A4F8425084F8465003F085
:102AD0007BFB294604F1080003F078FB114A124BF6
:102AE00012781B78934210D0104B1B784BB91048CA
:102AF0002023009314222C235621FFF7FDFE03B060
:102B000030BD0C4B53F82200F2E7084A1278002A35
:102B1000EDD0084A52F82300EAE700BF0CA1FF1FDE
:102B200020120100388BFF1F308DFF1F94A1FF1F63
:102B300054DE0000908AFF1F70B5064684B0104630
:102B40000D46FFF787F80A4B1C68640002A930465F
:102B50000A2205340AF09EFAA4B2690116230093F2
:102B600022B209B202A82023FFF7C6FE04B070BD4E
:102B70008C8CFF1FF8B5134E074600257088002483
:102B800098B12304FF2293FBF0F02844114680B251
:102B900002F024FF02F0C6FFA1B20246094802F08B
:102BA000F3FE70880134A042EBDC064802F00AFE16
:102BB00005F58075384605F081FFB5F5803FDDD11C
:102BC000F8BD00BF389AFF1F2DE9F047494BDFF8E9
:102BD0003C81494E0FCB86B006AC04E90F00474854
:102BE00004F024FC002108F1080003F0D3FA454664
:102BF0004FF0000A4148424C04F018FC1223002216
:102C000040494148A8F84030A8F8423088F84620AA
:102C10000FFA8AF903F0CEFA4FF6FD7701E0B442DD
:102C200022D014F8011B394803F0D2FA0A284FD0F9
:102C30000D285BD0B842F2D80346B5F94220B5F969
:102C40004010314803F0A8FA95F82230032BE6D85B
:102C5000DFE803F038322C02B8F84230B442A3EB7C
:102C60000000A8F84200DCD12949274803F0A2FA65
:102C700009F0030906AB03EB8909202359F8100C6E
:102C800000930A225021FFF737FE1C4804F0DAFCBB
:102C90000AF1010A642005F011FFBAF1100FA9D161
:102CA000642006B0BDE8F04705F008BFB8F8403032
:102CB000181AA8F84000B2E7B8F842301844A8F84B
:102CC0004200ACE7B8F840301844A8F84000A6E746
:102CD00095F9333095F93410B5F842205B1A134456
:102CE0000022A5F84230A5F8402098E70023A5F877
:102CF000403094E70CDC0000AADC0000C098FF1F05
:102D0000A4DC0000D4DF000014A1FF1F0CA1FF1FF2
:102D100090E800002DE9F047304BDFF8C8C0186894
:102D200059681A892E4DDFF8C0E084B001AB03C3A7
:102D300000271A804FF001094FF003085CF8046F78
:102D4000002206F07F069DF8043066F306038DF836
:102D5000043001AB03CBAC18A8500A321B88238186
:102D6000A02A6160EFD1C7EBC7010EEB01031EF88B
:102D7000012042F00F0267F307120EF801209A7843
:102D80009E795879597893F804A0DC786FF30302A0
:102D90009A706FF30006F2B29E7800F07F0001F0A7
:102DA000F00102F0FD0201376FF306006FF3071127
:102DB0006FF3060A69F3071668F303046FF38202E0
:102DC000082F05F1A0055871597083F804A09E7072
:102DD000DC709A71B2D104B0BDE8F0871CDC000051
:102DE000CC9AFF1F448DFF1F688DFF1F70B5002018
:102DF00005F0C8FA062803D00621002005F0DCFA09
:102E00001A4B01201C7805F0BDFA844203D02146FC
:102E1000012005F0D1FA164B02201C7805F0B2FA19
:102E2000844203D02146022005F0C6FA114B03204C
:102E30001C6805F0A7FA013CE4B2844203D02146A5
:102E4000032005F0B9FA0C4E0424204605F09AFA46
:102E500056F8045BEDB285422946204604F1010490
:102E600001D005F0A9FA092CEFD170BD308DFF1FFC
:102E7000FCA2FF1F4C89FF1F5089FF1F38B500209F
:102E800005F080FA062801D0002038BD012005F0A9
:102E900079FA0C4B0C4D1870022005F073FA0B4BAD
:102EA0001860032005F06EFA094B01301860042405
:102EB000204605F067FA0134092C45F8040BF7D1D8
:102EC000012038BD308DFF1F5089FF1FFCA2FF1F5E
:102ED0004C89FF1F70B5104E202404F1A005A4F109
:102EE00020000A2221463044144405F08DFAA54200
:102EF000F5D1B5F5A46F2C46EFD1084D4FF484649D
:102F0000A4F58460072221462844144405F07CFA85
:102F1000B4F58B6FF4D170BDCC9AFF1F688DFF1F85
:102F20002DE9F843DFF85C80202404F1A0076FF05E
:102F3000200909EB0405454404F10A06204605F082
:102F400021FA0134B44205F8010FF7D1A742F0D1BC
:102F5000B7F5A46F3C46E8D1094D4FF484672C4681
:102F60003E1B0735301905F00DFA04F8010BAC4291
:102F7000F8D10737B7F58B6F2546F0D1BDE8F88358
:102F8000688DFF1FCC9AFF1FF0B53F4C8BB005F04A
:102F9000B1F923680493049D23680593059E236873
:102FA0000693069F236807930799384A2368089376
:102FB000374B1560374A1E603748384B1160384D23
:102FC000089E0760002201211A713648DA6083F8F2
:102FD0002220A3F84020A3F8422083F8462019833A
:102FE00083F821102E60186005F046FD2E492368F5
:102FF00009930B462D4A099D43F8045B10606C3120
:1030000022680392039A43F8042B8B42F8D1284B91
:10301000284F294D294A196829482A4B2A4E2B4CFA
:1030200012683F682D6801601A60084637602560A5
:1030300009F098FC09F08AFF254B0B2218600C213F
:103040002448FDF74DFA00212348FDF7BFFA052279
:1030500006238DE80C002149214B224A224802F028
:10306000F7F9224A2249204808F0E8FF52230E22AD
:103070001B21204802F072FC1C4A1F491D4808F021
:10308000DDFF0BB0F0BD00BF5CABFF1FC09AFF1FA0
:103090007C9AFF1F789AFF1FDCA2FF1F0CA1FF1F65
:1030A000D0A2FF1FFCDB0000E89FFF1FD4A2FF1F80
:1030B000188AFF1F5089FF1F38A5FF1FCCA5FF1FCF
:1030C000509AFF1FD8A2FF1F889AFF1FB89AFF1FB0
:1030D0008C9AFF1FD09FFF1FE0A2FF1F2C8AFF1FAB
:1030E0004489FF1F808CFF1F98A1FF1F1C89FF1FB1
:1030F00089540000389AFF1FFD56000030B5124C6D
:1031000083B0002201210A23204601910093114639
:10311000802303F0EDF9022520232046194600956F
:10312000002204F05DFA2046009520230022402171
:1031300004F056FA0095204620230022602104F076
:103140004FFA03B030BD00BFC098FF1F2DE9F04F0C
:10315000954C05460F4694E80F008FB002AE0DF176
:10316000280886E80F0088E80F00002307930693DD
:1031700008930993092D00F24D82DFE815F06600EF
:103180007D009B00C500ED0061018F01AB01CA010C
:103190000A00864B864A1B6812688648864C03EBF9
:1031A0008301490102EB820201EB4202815C834808
:1031B00054F8232005688248029001F07F01013213
:1031C00001330435089107927E4909937E4A7F4B6B
:1031D000069583460391049205937D4CDFF85CA22B
:1031E00004F1080001214FF0000902F0D3FF04F1BF
:1031F0000800784902F0DEFFA4F84090A4F842905D
:1032000084F84690FFF77AFF494604F1080002F07F
:10321000DBFF04F10800012102F0D8FF01244FF088
:103220000A09DAF80020CDF80090023A21B2584697
:1032300012B22023FFF760FB612C04F1200400F0A0
:103240008481A4B256F804BFEBE75C4A624B156870
:103250001B686249624A0793594B096812780891C2
:1032600004356049099202935F4A06959B46564B86
:10327000039104920593B0E74C4B5C4A1D685C4B8C
:103280005C491B680793C5EBC503134408685B7969
:103290004E4C5949594A029403F07F030893013573
:1032A000574B069503910492059309F029FEA34616
:1032B000099092E73D4B53491B684C4AC95C524CFC
:1032C000C3EBC303D018D35CC2788579120903F02D
:1032D0000F03013354F8220007934C4B4C4A4D4CDA
:1032E0000C90C5F380054C4804936FF07E0306955F
:1032F00002920394059008930993002900F08E81AF
:10330000464B0D93934668E7294A284B1268186884
:103310004349444B444C029102EB8202510000EBC2
:10332000800201EB4212414841490394414C049010
:103330001A44059100236FF07E0012F9011F002945
:10334000C0F2628106AD45F823100133042BF4D19D
:10335000069DDDF808B040E7144A154B12681B685B
:103360001449164802EB8202520103EB830302EB7D
:103370004303CA18CD5C93785178026812480290D2
:1033800003F00F030133043209930D4B079205F04C
:103390007F0501F07F01284A03931E4B0695089193
:1033A00004928346059318E728DC0000FCA2FF1F67
:1033B000F4A2FF1FCC9AFF1FDCA0FF1FCCA5FF1FAC
:1033C000ACDC00002CDD0000CCDC0000B0DC000038
:1033D0000CA1FF1FF01A01004C89FF1FB89AFF1FB4
:1033E00006A3FF1FDCDC0000E0DC0000688DFF1F8F
:1033F000909AFF1F188AFF1FE4DC0000ECDC00003D
:10340000F4DC0000388DFF1F1C8BFF1FC4DC0000A4
:10341000B4DC0000F8DC0000FCDC000000DD000093
:1034200034DD0000CE9AFF1F38DD00003CDD0000D7
:1034300040DD000028DD000044DD00008C8CFF1F13
:10344000784A794B12681B687848794C794902EBC5
:103450008202520103EB830302EB430303441A4647
:10346000987812F8083F5278000902F03F0251F8AC
:10347000201054F82200704A0A9103F07F036FF085
:103480007E056E4C07936E496E4B0C9002929346EC
:10349000039404910593069508959EE6614B6A494D
:1034A0001D686A4AC5EBC5031268CB5C089203F03D
:1034B0000F011B0901310133079109936449654BE1
:1034C000654A03930135654B069502918B4604923C
:1034D000059382E6534A5C4B126861490291C2EB44
:1034E000C20213448B465A7899781B7902F00F0573
:1034F00001F00F01120903F07F03013507920891D3
:1035000009935849584A4D4B0695039104920593E7
:1035100063E6444A4C4B126854490291C2EBC20222
:1035200013445348DA789B791209C3F380038B461E
:10353000079350F822104F4B4F4A0A916FF07E05C7
:10354000039204930593069547E601214B4802F048
:1035500021FE4B49494802F02DFE0121474802F067
:1035600033FE0021454802F031FE032F0DD8DFE87D
:1035700007F020362B02152201238DE80C00622172
:103580001D230B223F4802F0B3FF06AE00243B1B75
:10359000B3FA83F35B0915F17F0F21B228461A466F
:1035A00028D00134FFF7C8FA042C2AD056F8045F5B
:1035B000EDE7152201238DE80C0002211D230B22CB
:1035C000304802F095FFE0E7152201238DE80C005A
:1035D00042211D230B222B4802F08AFFD5E715223A
:1035E00001238DE80C0022211D230B22254802F027
:1035F0007FFFCAE758F824000134FFF7F9F9042CDB
:10360000D4D10FB0BDE8F08F06A948F8234041F8A7
:1036100023009AE6DDF808B00025DEE51A4B0D938D
:103620009346DAE5FCA2FF1FF4A2FF1FCC9AFF1F0E
:103630008889FF1F6489FF1FD4DC000020DD0000A3
:1036400048DD000054DE0000688DFF1F04A1FF1F4D
:10365000B0DC0000F8DC000008DD00000CDD00003C
:10366000BCDC000014DD000018DD0000C4DC00003C
:103670001C8BFF1F28DD0000B4DC000014A1FF1F1D
:1036800008090100C098FF1F04DD00002DE9F04F7C
:103690004148A3B001F000FF05F0EEF93F4B186080
:1036A00005F0EAF93E4B1C681860041B04D03D4B42
:1036B0001B78002B40F01783FEF756FF3A4803F0C3
:1036C000B5FEFDF75FFF3948FCF726FF03B2179000
:1036D000002B40F0CD81364B0093364B0393364B95
:1036E0000793364D364B0293364B0693364B049375
:1036F000DFF8ECA0354B01933548FCF779FF012842
:1037000000F0EE81022800F04A82324CDFF8CCB0A3
:10371000DFF8D090204801F079FF00287DD01E48C6
:1037200001F080FFC0F30722D3B2012BC6B200F034
:1037300022812A78032A00F22F81DFE802F0550265
:103740000255002BE6D1002E59D0DAF80030C3EB39
:10375000C3030BEB03029279500700F19782019BA0
:103760001B78002B00F01082D9F80030002B46DDCA
:103770000C4B1B78002B00F08D83029B1B78002BD9
:103780003DD0154F3B78002B39D0DAF80000FEF71A
:1037900035FB00233B7032E098A1FF1FD4A2FF1F2E
:1037A000989AFF1F589AFF1FC098FF1FD09FFF1FB6
:1037B0005CA1FF1FB59AFF1FC49AFF1F308DFF1F2A
:1037C000CC9FFF1F07A3FF1FF4A2FF1F809AFF1FBC
:1037D000E0A2FF1F5C9AFF1F08A1FF1F688DFF1F5B
:1037E000FCA2FF1F78A1FF1F002B93D1934B002E4B
:1037F00040F0348231461A681920FDF74BF8904AA0
:10380000904B12681A921A9A43F826208E48002389
:10381000A35501F0FBFE002881D18C49DAF8003075
:10382000D1F800E061780591A17809910299884A60
:1038300009780A910499824E09680F91039995F8C5
:1038400000C009781091834911900978139101996A
:10385000149009780E910099129009780D910799AA
:103860000C90C3EBC30903EB830309780B915B0155
:103870001593914408900346B046E25C002A49D073
:103880003168704D1B911B9955F82370C91B8E45EB
:103890004FEA830B3ED8D8F800101C911C99CF1B1F
:1038A00042F20E718F4235D80CF1FF31012929D82F
:1038B00099F80610490725D4059919BB099909BB40
:1038C000D91E072941F2F4810A2B1BDD0A99C9B9D7
:1038D0000B99B9B9A3F10B01159F0F915E4801EB4C
:1038E000810107EB410101448F783809012840F23A
:1038F000CC8510460E901190139014901090129059
:103900000C900D9032681D921D9AA2F51C520F3A30
:1039100045F80B2001331B2BAFD1089B002B41F046
:10392000E6810C9B23B1009B1A469DF8343013703E
:10393000129B1BB1049B1A460F9B1360149B23B16F
:10394000039B1A469DF840301370119B1BB1414BED
:103950009DF84C201A7020B1019B1A469DF8383012
:103960001370BCF1030F01F2F680DFE81CF0F808D9
:10397000B508B508F808A25596B9384B1B78002B46
:1039800040F071812B78032B3FF6C4AEDFE813F0D3
:10399000E800D300D300E800002B3FF430AFB9E6D5
:1039A0002B78032B3FF6B6AEDFE813F0E6000400F9
:1039B0000400E600002E00F0BE80214B214A1B6867
:1039C0001993039B19991B7842F82610A6F10B0155
:1039D000002B00F01E81019B21481B78002B00F07A
:1039E0001582049BDAF8002018681E4B1E4953F814
:1039F0002670DFF864E00968DFF870C0C9F800607D
:103A000002EB820300EB80005B0103EB400301EB60
:103A100041011EF803009CF800C007EB810161F32F
:103A200006000EF803000B4B00211970BCF1000FCB
:103A300000F06784009A012313706BE64C89FF1F26
:103A40005CABFF1FE89FFF1F98A1FF1F4C8AFF1F61
:103A5000688DFF1FB49AFF1FCC9AFF1F94A1FF1F10
:103A6000809AFF1F38DC0000CCA5FF1F589AFF1F6B
:103A7000BDF95E40AA4A04FB03F4127804EB840407
:103A80001C44002A00F0B380A64AA74B00931E46B0
:103A9000A64913780391A64907911C44A5490291B0
:103AA00084F30204A44906911470FEF7F9FFA34BB6
:103AB000A34A1B681893189B1268A249A248A34DF9
:103AC000DFF8D4A2013B9B1A0B60A14B04930122A7
:103AD000A04B32700193FCF78BFD01287FF412AEEE
:103AE000904A2B78127899489A4200F0E2818C4CE7
:103AF0002178002940F09E81002B00F0B980032B33
:103B000000F0B680013B012B6DD8039B1B78002B86
:103B100000F0AF81019B1B78002B00F0AA81079B6E
:103B20001B78002B40F05A838B4B1B68002B40F016
:103B300059868A499DE0039B1B78002B00F0AE80DC
:103B4000019B1B781BB1049BC9F800601E600199A2
:103B500000230B7003990B70009B01221A70D9E5AA
:103B60007F4B64211A681920FCF794FE7D4A137874
:103B700083F001031370CDE57B4B794A1968126815
:103B80003046FEF721FAC5E5029B1B78002B3FF477
:103B900036AED9F80030002B3FF7EAAD2FE6029B96
:103BA0001B78002B00F07C81DAF800006F4B704925
:103BB00053F8204000EB800004F07F044001002215
:103BC00002EB820300EB43030132CE5C64F3060692
:103BD000CE540B44102A9E786FF303069E70EFD1EB
:103BE000644B01221A70009A012313708DE54F4A2D
:103BF00003921278002A7DD0544D2A78013A012A86
:103C000040F2E581484B0093494B0793494B02939F
:103C10006AE5079A1278002A00F0C580721E012A10
:103C20007FF678ADF21E072A00F2C0826078CAF8EB
:103C300000205149002840F030848B78002B3FF45D
:103C4000F9AE4B484D4902EB820200EB4210A02234
:103C500004F0D4F84A4B01221A73EBE63046196897
:103C6000FEF7EAF9CBE5FFF7C1F8FFF733F989E68C
:103C700044490B68444A013382FB0320DA17C2EB44
:103C8000600202EB82029A1A0A60ACE71BF803108A
:103C9000090901313046FEF7CFF960E5079B244A58
:103CA0001B78002B7AD1029B224A1B78002B75D1FE
:103CB0006378314A002B40F08B829378002B40F0E0
:103CC0005183324F3B78002B00F0AB8430483E707C
:103CD00001F044FB2F4B3E701E60FCF731FD2C4879
:103CE00001F03CFB16E52046FDF7F0FB2046FDF712
:103CF00003FCE1E40E4A07921278002A40F0E480C7
:103D00000C4A02921278114D002A00F047822A785C
:103D1000013A012A40F28683034B0093E4E400BF9A
:103D200094A1FF1F388BFF1F5CA1FF1FB59AFF1FD7
:103D3000C49AFF1FCC9FFF1F07A3FF1F5CABFF1F91
:103D4000A08AFF1FD0A2FF1FE0A2FF1F308DFF1F20
:103D5000F4A2FF1F809AFF1FFCA0FF1F248AFF1FF1
:103D60004C89FF1FCCA2FF1F3C8BFF1F488DFF1FFC
:103D7000CC9AFF1FC1A2FF1F5C9AFF1F908CFF1FF0
:103D8000508AFF1F1C8AFF1F67666666589AFF1FCE
:103D9000D4A8FF1FF8A2FF1FFCA2FF1F1670009AF5
:103DA00001231370B6E4029BBB481B78002B00F084
:103DB000E680DAF80020B94BB94953F82270B94BC4
:103DC000D1F8008053F826C0B7480499C9F80060BC
:103DD00002EB820307EB870E5B0103EB4E03DFF878
:103DE000D8E20F60C75C9EF800E008EB48010CEBDE
:103DF000810161F30607C754BEF1000F00F0FD8199
:103E0000AA4A01231370009A137083E4731E012BD6
:103E10007FF680ACF21E072A40F2B9810A2E7FF7A6
:103E200079AC049A1160A24A01231370009A0370BE
:103E300013706FE49F49A04B027000260E601E7045
:103E4000FCF77EFC9D4801F089FAB1B200229C4843
:103E5000013601F099FD1B2EF7D1069900230122AE
:103E600023700A70FEF71CFE2B78002B7FF447AE00
:103E7000FEE6079B1B78002B40F0B081029B1B786D
:103E8000002B00F084828F4B1B68002B40F07B835B
:103E90008D49EEE6DAF800103046FEF745F96CE49D
:103EA0008A4A8B4B2978117001221A70FEF7F8FDAF
:103EB00099E6874A117800293FF41EAE002111705F
:103EC000002B7FF41CAED3E6824D2A78013A012AFA
:103ED00000F25A81804F3868042800F006840028D8
:103EE00040F06883DFF824A27C4EDAF800207C4B97
:103EF000224482F30302CAF800201B68002B40F022
:103F00000283DAF80020774BC2EBC2021344DA785E
:103F100004EB12110629A8BF062121EAE17161F321
:103F20000712DA703668002E40F0C982DAF80070A5
:103F30006C4BF800C21B99189A5C497801F00F018C
:103F4000091902F00F0200F193848A42A8BF0A46C1
:103F500002F00F02C01B034463494F480091597897
:103F600002906248069062F303015970604B04931B
:103F7000604B0193009A01231370FFF7BDBBDAF881
:103F80000030DFF888E1C3EBC3020BEB0207BF7917
:103F90007F0700F13881721E012A7FF6BBABF21E4B
:103FA000072A00F2D8826378002B00F0F282424B9D
:103FB0001978002940F0ED82384ECEF8002046F8FE
:103FC0002210009A012303701370FFF7A3BB4A4A23
:103FD00007921278002A7FF47DAF2F4A029212785E
:103FE000002A40F01F82434A01921278002A00F012
:103FF0008F80424A1268032A00F20084002BDFF807
:104000000CA13B4BC0F2608604933D4B1B68002B18
:1040100040F0C084049BDAF800201B68224939482C
:1040200002EB8202520103EB830302EB4303CA5CFF
:1040300002F07F06264486F3070666F30602CA549A
:104040000368304E1BB92046FDF738FF3368012B5B
:1040500000F02C84022B40F0EE86049ADAF800304F
:104060001068214A2849009203EB83035A0100EBB0
:10407000800002EB40030B44597801F03F021444E6
:10408000232CA8BF232424EAE4740A4664F305021F
:104090005A70164B06936DE7CC9FFF1FDCA0FF1FE5
:1040A000CCA5FF1F38DC0000CC9AFF1F08A1FF1F22
:1040B000B49AFF1FF8A2FF1F589AFF1FD4A8FF1F32
:1040C000389AFF1F58A1FF1F288AFF1F388BFF1F38
:1040D00094A1FF1F308DFF1FA48AFF1FA88AFF1F16
:1040E000AC8AFF1F688DFF1F5CA1FF1F07A3FF1F86
:1040F000F4A2FF1F809AFF1FC49AFF1F408DFF1F6D
:10410000248AFF1F8489FF1FD49AFF1FFCA2FF1F70
:10411000A64E3768204608F0D9FC394608F022FC44
:10412000A349044608F0C4FE00285ED0A04CA14B71
:10413000394620461C6008F0B1FE002840F0098195
:1041400020469D49346008F015FD9C4B00930146C4
:104150009B489C4CDFF8C8A208F0C0FD08F0F6FEB2
:10416000994B9A4A18601B6803EB4303DB0013600A
:10417000106808F0A7FC964908F0FCFC954B0693E4
:10418000954B20600493F5E68C4B00933EE5CAF80E
:104190000020009A01231370FFF7BCBA2A78032A83
:1041A0003FF6BAADDFE802F06368683A0A2E7FF79F
:1041B000B1AADAF80030009EC3EBC30301201BF85C
:1041C0000320307061F303020BF80320FFF7A2BA5B
:1041D0008249834A01230B7013772BE4814B1B68C0
:1041E000002B40F0DB80804943E58049204608F001
:1041F0007DFE00289BD07D4C99E77D4B30461968A9
:10420000FDF73CFFFCE51BF80220794B1209013257
:1042100030461968FDF7D8FEFFF77CBA754E326854
:10422000042A00F0D783654B0093194601230B70D5
:10423000012A00F07B81002A40F084816E4B6F4997
:104240001A68DFF8DCA11444042CA8BF04246FF022
:1042500004008442B8BF0446A2420C6072D05D4A9A
:1042600006921C605C4A664B0492019382E6614BA5
:10427000524A00921A68DBE7624B1B68042B00F07D
:10428000E382002B40F0AB85DFF894A15E48DAF8BA
:104290000020224482F30302C2EBC2010144CAF8A7
:1042A00000208A79520700F1B382584B494A1B68B3
:1042B0000692002B40F0DF82DAF800205249C2EB70
:1042C000C20211448A79C2F38000041900F1AE855C
:1042D000012C40F3B68542F004028A710024A1B299
:1042E00000224B48013401F04FFB1B2CF7D1069AFA
:1042F00001231370314B0093374B0493404B0193D0
:1043000038E63B4B30461968FDF7B8FEFFF792BB25
:10431000032E40F0DC83DAF800203B4B2749009164
:10432000C2EBC20213443B490291197901F07F02AA
:104330001444642CA8BF642424EAE4740A4664F399
:1043400006021A71234B0693234B04932C4B0193C3
:1043500010E61A4B00931F4B06931F4BDFF8C0A0CB
:10436000049307E6DAF80030C3EBC3035B445A79E1
:1043700082F08001C90961F3C7125A71184B0122FA
:10438000002900F0BC8183F82C20FFF753BB224B9F
:104390001B68002B40F0D9801A496AE4012B00F019
:1043A0002A82022B7FF41FAC1C4962E4188AFF1F8B
:1043B00000002042509AFF1F0000C0425CA1FF1F76
:1043C000C0E1644CBCA2FF1F60A1FF1F00A3FF1F40
:1043D0006F12833A07A3FF1FF4A2FF1FA08DFF1FD8
:1043E000508AFF1F34A5FF1FA48AFF1F00009643B9
:1043F0003C8BFF1F1C8AFF1FCCA5FF1FD8A2FF1FED
:10440000809AFF1FA48DFF1F688DFF1F5C8BFF1F0D
:10441000389AFF1FCC9FFF1F9C9AFF1FAC8AFF1F7B
:10442000FCA2FF1FB84E3268042A00F05481012A12
:10443000DFF824A300F03E81B44B0493002A40F03F
:10444000F881B34AB34811686318042BA8BF04234A
:104450006FF00406B342B8BF3346AF4E03609942D3
:1044600018BF136033681BB92046FDF727FD33687A
:10447000012B00F09581022B00F07081A74B009377
:10448000A74B0693A74B019374E580F0010060F3FE
:1044900007178F701046FFF72DBA8978002940F072
:1044A000C480A149A14802EB820201EB4211A02283
:1044B00003F0A4FC9E4B01221A71FFF7BBBA012E38
:1044C00040F09880DAF800609A4BF1008A1B981847
:1044D0009A5C407802F00F0214EB101002F1010216
:1044E00000F144828242A8BF024602F00F02891BFB
:1044F0000B448A4990480091597802908848069068
:1045000062F3071131E5012B7FF40CADDAF80020DE
:10451000884BC2EBC20213449A79C2F38001214452
:1045200081F3010161F382029A71FBE4834B196804
:104530000C44002C03DD102C2246A8BF10228A4216
:1045400018BF1A60DFF810A2FCE6012B7FF44BAB1A
:104550007B49FFF78EBB0A2E7FF7DCA803EB8303B2
:104560005B01714A01EB810103EB410153189A7819
:10457000110901293FF6CEA881F0010161F307126C
:104580009A70FFF7C7B8012B7FF42DAB6249FFF794
:1045900070BBA378002B3FF4FAADC2EBC2025A44C1
:1045A0009379C3F3000181F0010161F3000393717A
:1045B000FFF7B0B8012840F09B81DFF89CA15D4B6C
:1045C000DAF80000C1000A1A9A5C02F00F02013208
:1045D0002244002A40F38A81102AA8BF1022013AFF
:1045E00002F00F02091A574E585C62F30300585448
:1045F000554B82E4022E7FF48BAEDAF800204D4B4F
:1046000046490091C2EBC2024B49029113449A7889
:1046100002F00F010C4484F3040464F303029A7063
:1046200090E6FEF7F1F8FFF775B848484849066884
:1046300051F822103C4F099502EB8202520101F021
:104640007F080892B91806F07F020592FF20089EA5
:10465000059D03EB830206EB42020133BE5C68F367
:104660000606BE543A4402F1080E967892F801C04C
:1046700006F0F00665F3060C6FF30716967082F8E5
:1046800001C0C870087148718871C871167A6425B4
:1046900065F306061672527A102B6FF3050201F1CC
:1046A0000A018EF80120D2D1214B099D01221A75F1
:1046B000FFF7C0B9002B40F3BF80DAF80000FDF728
:1046C0009DFB3268234BDAF80010104853F8213074
:1046D00004900360B2E6104E3368042B00F048816A
:1046E0000A4ADFF874A00492BDE6164E3368042B24
:1046F00000F06581DFF860A0134BFFF7FEBB83F885
:104700002420FFF797B900BF288AFF1FF4A2FF1FDC
:10471000CCA5FF1FD8A2FF1F348DFF1F5CA1FF1F78
:1047200007A3FF1F809AFF1FCC9AFF1F908CFF1FCB
:10473000508AFF1F688DFF1FCC9FFF1F4C89FF1FF2
:104740005C8BFF1FA88AFF1FAC8AFF1F3C8BFF1FDB
:10475000488DFF1FDCA0FF1FFCA2FF1F049ADAF8A0
:1047600000301068B64AB749009203EB83035A0140
:1047700000EB800002EB40030B44597801F03F024C
:104780001444232CA8BF232424EAE4740A4664F3C7
:1047900005025A70AC4B0693AC4B0193FFF7EABB92
:1047A000049ADAF800301068A54A009203EB8303FC
:1047B0005A01A74900EB800002EB400319440A7A32
:1047C00002F07F031C44642CA8BF642424EAE47430
:1047D000134664F306030B729B4B06939B4B0193AA
:1047E000FFF7C8BB012B00F00181022B7FF4FBA96E
:1047F0009849FFF73EBA9849FFF73BBA042A974B0E
:104800002CD0974ADFF88CA21B680492FFF7FFBBFD
:104810001E46B1B200229348013601F0B5F81B2EB6
:10482000F7D1894B069319468F4B01220A701B68FA
:104830003FE58E4E336816E63FF444AFDAF80000E9
:10484000FDF7FAFA32683DE7874B1B68042B00F04E
:104850000A837D4ADFF83CA206922AE51B68042BF6
:1048600000F0F7827E4ADFF82CA20492FFF7CFBB5C
:104870003246FFF76FBB012B00F09182022B00F054
:104880007582032B7FF436ADDAF8002078496C4B43
:1048900000938B5C234483F3010303F001038B54E7
:1048A0006F4B0493694B0193FFF764BB049ADAF8EA
:1048B00000301068624A009203EB83035A01644996
:1048C00000EB800002EB400319440A7A02F07F03F8
:1048D0001C44642CA8BF642424EAE474134664F3E3
:1048E00006030B72584B0693FFF744BB002279E690
:1048F000022840F0A2805F4EDFF898A13268002BBA
:10490000ACBF01214FF0FF310A4402F10F031E2B0F
:10491000326005D8DAF80000FDF796FF3868326893
:10492000DAF800305449C3EBC303CB5C03F00F0348
:104930000133C3F1010191424ADC013B9342A8BF1C
:1049400013463360032840F0A182DAF800304A4869
:10495000414EC3EBC303C25C04EB121181F30401AB
:1049600061F30712C254454BFFF7C7BA0022BEE5F8
:10497000434A334B0093136833490691234483F32E
:1049800001031360364B0493304BDFF808A1019309
:10499000FFF7F0BA012B2CD13A4A3B481168631853
:1049A000042BA8BF04236FF00406B342B8BF3346FC
:1049B0009942036018BF13603448FFF741BB2F4B87
:1049C0001A68042A00F06682DFF8C8A0FFF795BADB
:1049D0000B46B6E7002B27DB3FF425AC2C4B7F21A1
:1049E0001A681C20FBF756FF32681CE42749FFF7C2
:1049F00040B9022B50D1049ADAF8003016681449F5
:104A0000224803EB83035A0106EB860602EB4603BA
:104A100019444B7803F07F02224482F3070262F3C9
:104A200006034B70FFF70CBB194B00211A681C20C2
:104A3000FBF730FF3268FFF7F6BBDFF858A081E7DD
:104A40005CA1FF1FD49AFF1F07A3FF1F809AFF1FBF
:104A5000CC9AFF1F408DFF1FA88AFF1F248AFF1FCB
:104A6000F4A2FF1F389AFF1F5C8BFF1F348DFF1FBE
:104A7000388DFF1F04A1FF1F688DFF1FAC8AFF1F29
:104A800058A1FF1FCCA5FF1FD8A2FF1F8489FF1FBD
:104A90004C89FF1FFCA2FF1F032B8DD1049ADAF86B
:104AA000003016689549964803EB83035A0106EBDC
:104AB000860602EB460319448B7803F00F0222446A
:104AC00082F3040262F303038B70FFF7B9BA8D4BD4
:104AD00000938D4B029335E48C4C2378002B61D1ED
:104AE0008B488C4903681E938B4A1E9B0968126889
:104AF0005B1A9A4256D203681F931F9B1432591AAD
:104B00008A424FD9DAF80030844A0099C3EBC303D4
:104B1000134401229B790A705A0765D4039B1B78C2
:104B2000002B69D07E4B1B68002B00F08380012B8B
:104B300000F0A880022B00F09F80079B1B78002BC1
:104B40006ED1029B1B7833B1764B1B68002B79D05A
:104B5000012B00F09F80009B1B784BB913E0FCF702
:104B600023FE009B1B7873B1684B187800283ED059
:104B7000674C6D4D236820936C4A209B296812680E
:104B80005B1A9A4225D3069B694C1B78DBB9FBF76D
:104B9000E7FD0028FBD1FCF703FB0028FBD123B085
:104BA000BDE8F08FDAF800305C4AC3EBC30313446E
:104BB0009B795B0718D4009B1B78002BE3D02378EC
:104BC000002BD5D1AAE75B4800F0FCFD0023237041
:104BD000DDE7594802F036FD23682193219B009AB6
:104BE0002B6000231370CEE7FCF7DEFDE3E7534BA9
:104BF0001968FEF7ABFAAEE7079B1B7883B9029BF7
:104C00001B78002B9DD14E4B1B68002B4AD0012BEB
:104C100054D0FDF705FF039B1B78002B8DD081E757
:104C2000484B1B68B3B1012B20D0022B18D0FDF7E5
:104C3000F7FE86E7444B04201968FEF787FA079BC6
:104C40001B787CE7414B09201968FEF77FFAFDF7D6
:104C5000E7FE80E73E4B06201968FEF777FAE6E7A5
:104C60003C4B08201968FEF771FAE0E73A4B072041
:104C70001968FEF76BFADAE7384B03201968FEF77C
:104C800065FA5AE71E4B05201968FEF75FFA079B85
:104C90001B7854E7324B05201968FEF757FAFDF7E9
:104CA000BFFE58E72F4B01201968FEF74FFAB0E717
:104CB0000C920D9208920B92FEF724BE2A4B022012
:104CC0001968FEF743FAA4E719460493DAF80030AE
:104CD0000E680A4903EB8303580106EB860600EBD6
:104CE000460319448B18FF22DA70FFF78EB9079B31
:104CF0001A469DF82C301370FEF713BECC9AFF1F96
:104D00008489FF1F5CA1FF1FCC9FFF1F94A1FF1F81
:104D10005CABFF1F789AFF1F888CFF1F688DFF1FF9
:104D2000FCA0FF1F58A1FF1FD0A2FF1FA08AFF1FDA
:104D300007A3FF1F389AFF1FC098FF1F1C8AFF1F81
:104D40009C9AFF1F34A5FF1F248AFF1F288AFF1F7C
:104D5000A48AFF1FAC8AFF1FA88AFF1F408DFF1F78
:104D6000348DFF1FA48DFF1F5C8BFF1FDAF800201E
:104D7000834B84490091C2EBC2021344DA7804EBFE
:104D80001214062CA8BF062424EAE47464F3071264
:104D9000DA707D4B04937D4B0193FFF7EBB8DAF8A3
:104DA0000000774BC1000A1A9A5C02F00F02013230
:104DB0001444002C59DD102C2246A8BF1022013AC1
:104DC00002F00F02091A6F480090585C62F303006A
:104DD00058546D4B04936D4B0193FFF7CBB8012BE7
:104DE00065D1DFF800A26A49DAF8003003EB8303EB
:104DF00058015FFA84FE002303EB830600EB4606AE
:104E000001338A5DC2F30607774467F30602102B6D
:104E10008A55F1D15F49604B0A681B68224402F34E
:104E200006020A605D4A0692FFF743BA63F3820204
:104E30008A71FFF75FBA534B0093584B0693FFF705
:104E400099B864F382028A71002C3FF453AAFFF7E9
:104E500045BA53480368042B09D04B4BDFF884A1B3
:104E60000493FFF7EDB84F4A83E50022AAE74E4AC4
:104E7000DFF870A113682344022BA8BF022323EAA2
:104E8000E3731360404B0493FFF7DAB8474E484B87
:104E9000FFF733B84749DFF84CA10A682244022AD9
:104EA000A8BF022222EAE2720A60FFF726B8022BAC
:104EB0001BD1DFF830A1324ADAF800303E49C3EBAB
:104EC000C3031A44507900F07F032344632BA8BF27
:104ED000632323EAE37363F3060050712E4A0B70D9
:104EE00013682E4A0692FFF7E4B9032B1BD1334E09
:104EF000D6F80080204607F0E9FD414607F032FD74
:104F00002F49074607F0D4FF002837D12D493846EE
:104F100007F0ECFF00B12B4F2B4B414638461F608A
:104F200007F0BCFF38B11C4B1C4ADFF8B8A01B6867
:104F30000692FFF7BEB925493760384607F01AFEDA
:104F400001462348234EDFF89CA007F0C7FE07F078
:104F5000FDFF214B214A18601B6803EB4303DB0074
:104F60001360106807F0AEFD1D4907F003FE0A4B01
:104F70000A4A30601B680692FFF79BB9104FCBE7D7
:104F8000688DFF1F5CA1FF1FF4A2FF1F809AFF1F07
:104F9000CC9AFF1F909AFF1F5C8BFF1F07A3FF1F78
:104FA0008489FF1F9C9AFF1FFCA0FF1FA88AFF1F78
:104FB000AC8AFF1F34A5FF1F95A1FF1F188AFF1F92
:104FC0000000204200009643509AFF1F0000C0429C
:104FD000C0E1644CBCA2FF1F60A1FF1F00A3FF1F24
:104FE0006F12833AFCA2FF1F70B5184D82B028469D
:104FF00002F01CFAB5F90C1001291FDD0022012670
:1050000094B26300688901969BB2C91A09B2C31AA7
:105010001BB200910D48114601F0ECFA0B4802F06A
:1050200011FB012003F04AFDB5F90C10023401EB2D
:10503000D17322B243F34F039342E1DC4FF4FA7091
:1050400002B0BDE8704003F039BD00BFC098FF1F3B
:105050002DE9F0477F4A804B1268804D804C814F8C
:10506000814E82B00192019A1A6003F005FD7F4BD8
:10507000186003F001FD7E4A7E4B10607E4918687F
:1050800007F078FD01467D4807F028FE07F05EFF37
:105090007B4B7C4A18601B6803EB4303DB00136007
:1050A000106807F00FFD784907F064FD286003F0F1
:1050B000E3FC206003F0E0FC744BD4F800E01860DF
:1050C00002250023C3EBC302324407EB0311D4785B
:1050D000C1F804E0013365F30714082BD47088602D
:1050E000F0D10D2003F06AF805F0FAF90D2003F075
:1050F00031F80024DFF8D081654FDFF8D0A14FF000
:1051000084492646382005F0FDF95F4B0122002135
:10511000054600F01BFD4AF8246001344FF40053AB
:10512000052C48F8045BC5F8109047F8046B6B60D9
:10513000E8D1FBF79FFA0121172003F097FC554CAB
:10514000554D0C231846237003F06CFC207807F0B3
:10515000BDF802460B4600204FF0804105F0B6FE38
:1051600007F0DAFB4D4B28804022002128201A60EE
:1051700003F05AFBFDF782FE002868D14849494AEE
:10518000494B0860494E022111700127152516244C
:1051900017201821072237601D605C609860D96075
:1051A0001A61FDF7B7FD424C424DFBF783F92846E3
:1051B000A56002F03BF9FFF717FFC82003F07EFC63
:1051C000284602F033F904F10800012100F0FCFF49
:1051D000002104F1080000F0F9FFFDF7F5FC364866
:1051E00000F0E2F9354800F099FA344800F0EAFAA4
:1051F0003221324800F06CFC0024A1B2304A2F4822
:1052000000F0C2FB2D4800F0DDFA0134052003F068
:1052100055FC1B2CF1D10520FDF7ACFC4FF4FA70C6
:1052200003F04CFC002223461146244800F0B2FB58
:10523000224800F0C7FA642003F040FC1D4802F049
:1052400001FA204B01221A7002B0BDE8F087FDF789
:1052500067FEA8E75CABFF1F789AFF1FBCA2FF1F89
:1052600030A5FF1F4CA5FF1F688DFF1FD4A2FF1F95
:10527000989AFF1F188AFF1F0000C042C0E1644CCB
:1052800060A1FF1F00A3FF1F6F12833AB8A2FF1F88
:105290001CA3FF1F54A0FF1F04A3FF1FC89AFF1FDA
:1052A000FCA2FF1F308DFF1F5089FF1F4C89FF1F7D
:1052B0000CA1FF1FC098FF1F98A1FF1F389AFF1F66
:1052C000808080005CA1FF1F80A1FF1F08A3FF1F3B
:1052D000F0B400259DF810702C4602E00134202C1B
:1052E00010D0465D1435002EF8D104EB8404A400E0
:1052F000061901250555284671603361B260377380
:10530000F0BC70470020F0BC704700BFF8B50E46F7
:1053100000F1100400F52475002702E01434AC42BB
:1053200015D014F8103C002BF8D02368B342F5D800
:1053300054F8082C54F80C0C0021FBF783FA14F8ED
:10534000043C2BB904F8107C1434AC42E9D1F8BD0C
:105350000021172003F076FBF4E700BF4FF0FF3188
:10536000FFF7D4BFF0B400259DF814702C4602E07E
:105370000134202C12D0465D1835002EF8D104EBF4
:105380004404E40006190125055571600499716112
:105390002846B360F2603774F0BC70470020F0BC60
:1053A000704700BF2DE9F0410E4600F1140400F5EE
:1053B0004575002702E01834AC421BD014F8143CA9
:1053C000002BF8D02368B342F5D854F80C2C54F8CD
:1053D000081C54F8100CFBF70DFA14F8043C23B128
:1053E00054F8100C1838352806D904F8147C1834F1
:1053F000AC42E3D1BDE8F08107F068FB084907F053
:10540000B9FB05F03FFD01218046172003F01AFB90
:10541000404607F075FD0146282003F005FAE4E751
:1054200090759242002308491A46CA541433B3F5C2
:10543000207FFAD1002305491A46CA541833B3F520
:10544000407FFAD1704700BFD4A8FF1FD4A5FF1F2B
:10545000F8B504460E46154600214FF48072103010
:105460001F4608F0E1F8069BC4F818310022079B9C
:10547000C4F8102126606560A760C4F81C31E260A2
:10548000C4F814212046F8BD10B50446C06808B120
:1054900007F00AFE204610BD2DE9F843D0F81C3174
:1054A000002B7EDD04460025A3680121585D03F032
:1054B000C9FAD4F81C310135AB42F5DC002B6EDDA6
:1054C0000026B0460127A3680021985D03F0BAFAD0
:1054D0004FF44873013BFDD1D4F81831002BC8BFFD
:1054E0004FF000092EDC4EE0990724D5D4F81011B6
:1054F000D4F814010131C9B203F0FD03814243F035
:10550000080306D0D4F81001204480F81080C4F8B5
:105510001011D4F81001D4F814110130C0B288422F
:1055200009D0D4F8101104EB010E2168495D8EF802
:105530001010C4F810015355D4F8183109F10109BD
:105540004B4520DD6368D4F81C5113F8090003F0C3
:105550007FFA05FB0965E268535DDBB20028C3D121
:105560009807E8D4D4F81011D4F814010131C9B265
:10557000814243F00603CCD0D4F8100120440774D4
:10558000C4F81011C5E7A3680121985D03F05AFA29
:10559000D4F81C310136B34295DCBDE8F883BDE890
:1055A000F883BDE8F88300BF70B5D0F81851D0F883
:1055B0001C610446012106FB05F007F0E7FC002E04
:1055C000E060C8BF002510DDA3680121585D03F02D
:1055D0004DFAA3680121585D03F034FAD4F81C3168
:1055E0000135AB42F0DCD4F81851002DC8BF0025BE
:1055F0000ADD63680221585D03F038FAD4F81831E7
:105600000135AB42F5DC70BD70BD00BFD0F8103184
:10561000D0F814011B1A4CBF03F5807018464010D7
:10562000704700BFD0F81421D0F810319A4220D032
:10563000D0F81421D0F8143102440133DBB2117CCC
:10564000C0F81431D0F81421D0F810319A4218D093
:10565000D0F81421D0F8143102440133127CDBB2AB
:10566000C0F814314FF0000062F3070061F30F201F
:105670007047D0F81421D0F810319A424FF0FF0152
:10568000E6D1FF224FF0000062F3070061F30F2024
:10569000704700BF037AF0B5160C150AF6B2EDB2EA
:1056A0005FFA82FE5BB103FB06F603FB05F503FB25
:1056B0000EFEC6F30726C5F30725CEF3072EC77CDB
:1056C000047CBC4214D0C46804EB8101120E0F4468
:1056D0004BB9D3B23B70077CCE55437CCD54837C11
:1056E00001F803E0F0BD03FB02F3C3F30723F1E786
:1056F000C36801EB41011944EEE700BF10B5044651
:10570000C06807F0D1FCB4F90600002803DBC0B282
:10571000002103F0ABF9204610BD00BF10B50446D0
:10572000B0F90600002807DBC0B2012103F09EF9A2
:105730000021A07903F086F90123637010BD00BF3A
:1057400038B50446C0680D4607F0AEFCE37C207C0B
:1057500083420CBF0320042010FB05F080B2A08020
:10576000012107F013FCE06008B1658038BDA0801E
:10577000608038BDF0B4077CC47CC568C1F3810685
:10578000FF29A4EB0704C1F3811201F0030746745B
:10579000B4FA84F48CBF00260126C1F30111C2744F
:1057A00064098774067001744DB1511AB1FA81F120
:1057B0004909A14203D04188F0BCFFF7C1BFF0BC4A
:1057C000704700BF2DE9F843C368002B57D04569E7
:1057D000044603F051F9854202D903F04DF96061A6
:1057E00003F04AF96569401BB0F5967FF1D372B6B4
:1057F0004649B4F906500B684548464A50F835000A
:10580000E668A788257843F080730B60136843F03F
:10581000010337441360A5B3A1F55D41F8390A6867
:10582000BE4202F196021FD289464FF0010C16F8D3
:10583000018B4FF0080E80250B689B1A952BFBD926
:1058400018EA050FD9F8002080F880C055D00B6801
:105850009B1A5F2BFBD9BEF1010E80F800C14FEA05
:105860005505E9D1B742E2D12B490B689B1A952B1C
:10587000FBD962B603F000F96061BDE8F883BDE8CA
:10588000F88325490A68BE4202F5967220D28946FD
:105890004FF0010C16F8018B4FF0080E80250B68B5
:1058A0009B1AB3F5967FFAD318EA050FD9F80020B2
:1058B00080F880C018D00B689B1A8F2BFBD9BEF1E3
:1058C000010E80F800C14FEA5505E8D1B742E1D199
:1058D00011490B689B1AB3F5967FFAD362B603F0B1
:1058E000CBF86061BDE8F8830B689B1A3B2BE6D8C8
:1058F0000B689B1A3B2BF7D9E1E70B689B1A1D2B12
:10590000A9D80B689B1A1D2BF7D9A4E7FCED00E082
:10591000082D0100001000E0041000E038B54378C5
:105920006BB10446B0F9060000280D4609DBC0B291
:10593000002103F09BF86378E5801BB938BDC18076
:1059400038BDE180EDB22846012103F08FF82846EA
:105950000021BDE8384003F075B800BF70B50025E0
:1059600004460E46457019460572C56045611546E8
:10597000FFF700FF31462046FFF7E2FE20462946AA
:10598000FFF7CCFF204670BD43888B4201D9FFF75B
:1059900081BE7047F8B514464288A24215D9064622
:1059A0000F469BB91546134604E00134A4B2AC423D
:1059B0000BD27388A342F8D9214601343A463046C7
:1059C000A4B2FFF767FEAC42F3D3F8BDE518ADB261
:1059D000954228BF1546AC42E5D3F8BD40F2FA53D4
:1059E00003FB00F000F500400014B0F5FF7F10B499
:1059F00022DAFE2844DDC0F1FE034C1CDBB204FBBE
:105A000003F3C4EB04241B1224120020C943C9B2BF
:105A100001320C440B44084402FB04F402FB03F380
:105A200004F47F441B0202FB00F244EA122003F458
:105A30007F03184310BC7047B0F57F7F84B20DDA46
:105A4000B4F53F7F26D8831C4C1CDBB204FB03F368
:105A5000C4EB0424181224120023D7E79C4225D05B
:105A600040F2FA439C4228D9C0F1FA004B1CC0B264
:105A700003FB00F0C3EB032300121B120024C5E755
:105A80004B1CC0B203FB00F0C3EB032304121B1238
:105A90000020BBE7C0F1FC004B1CC0B203FB00F0D0
:105AA000C3EB0323041218120023AFE74B1CC3EB14
:105AB000032300201B120446A8E7031DDBB2481C89
:105AC00000FB03F3C0EB00201B12001200249DE733
:105AD00070B44E1C047AF6B2A64213D0013C14F006
