:1000000000800020BD010000C17300007973000072
:100010007973000079730000797300007973000030
:10002000797300007973000079730000C1730000D8
:10003000C173000079730000019100000591000078
:10004000C1730000C1730000C1730000C1730000E0
:10005000C1730000C1730000C1730000C1730000D0
:10006000C1730000C1730000C1730000C1730000C0
:10007000C1730000C1730000C1730000C1730000B0
:10008000C1730000C1730000C1730000C1730000A0
:10009000C1730000C1730000C1730000C173000090
:1000A000D96D0000E56D0000C1730000C173000050
:1000B000C1730000C1730000C1730000C173000070
:1000C000C1730000C1730000C1730000C173000060
:1000D000C1730000C1730000C1730000C173000050
:1000E000C1730000C1730000C1730000C173000040
:1000F000C1730000C19A0000C1730000C173000009
:10010000C1730000C1730000C1730000C17300001F
:10011000C1730000C1730000C1730000C17300000F
:10012000C1730000C1730000C1730000C1730000FF
:10013000C1730000C1730000C1730000C1730000EF
:10014000C1730000C1730000C1730000C1730000DF
:10015000C1730000C1730000C1730000C1730000CF
:10016000C17300006D7C0000C1730000C17300000A
:10017000C1730000C1730000C1730000C1730000AF
:10018000C1730000C1730000C1730000C17300009F
:10019000C1730000C1730000C1730000C17300008F
:1001A000C1730000C1730000C1730000C17300007F
:1001B000C1730000C1730000C1730000564B4CF2C4
:1001C000205210B51A804DF628121A8000BF00BFC9
:1001D00007F0FAF8514B4FF010621A60504A9A60DB
:1001E000504ADA60504A136813F4807304D14F49BF
:1001F0000B604FF4A85313604D4B1A78110703D5C9
:100200001A7842F008021A704A4B4B492A221A7097
:100210004A4A4B4B8B4204D252F8040F43F8040B6A
:10022000F8E7484B484900228B4202D243F8042B9E
:10023000FAE74649464A002352F8230041F82300D2
:1002400001336F2BF8D1434B434A802103F8011B44
:100250009342FBD1414B3D4A1A60414B8A221A70AE
:10026000A3F5805324225A70A0221A709A7992071B
:10027000FCD59A79D406FCD43A4A937903F00C035E
:10028000082B384BF9D103221A7146225A719A79F8
:100290009006FCD5334A9179324B4906FBD5324A58
:1002A0004FF0827111600921516020221A709A79F1
:1002B00002F00C020C2AFAD12C4B2D4A1A602D4B5D
:1002C0002D4A1A6000225A60072243F8042C2B4A58
:1002D000C3F80C2D62B607F07FFB144B1B68DA07DE
:1002E00005D5274807F0CEF9264B274A1A60274B39
:1002F0001B785B0609D5234C234B22689A4204D114
:100300001F4807F0BFF9002323600BF07FFD07F0C3
:1003100061F808F0EDFFFEE70E2005403080044054
:10032000823F04000100002B10D0034014D0034092
:1003300002D0074000E0074024A7FF1F381C01003F
:100340004088FF1F24A7FF1FE4B8FF1F0082FF1F84
:100350000000000000E400E05FE400E008ED00E0E1
:1003600000500640004006404480044004800440A1
:10037000C010050014E000E0BFD401000000202000
:10038000080A7A601CE00340A5C3945A00F00740B5
:10039000FFFFFFFFFFFFFFFFFFFFFFFFFFFFFFFF6D
:1003A000FFFFFFFFFFFFFFFFFFFFFFFFFFFFFFFF5D
:1003B000FFFFFFFFFFFFFFFFFFFFFFFFFFFFFFFF4D
:1003C000FFFFFFFFFFFFFFFFFFFFFFFFFFFFFFFF3D
:1003D000FFFFFFFFFFFFFFFFFFFFFFFFFFFFFFFF2D
:1003E000FFFFFFFFFFFFFFFFFFFFFFFFFFFFFFFF1D
:1003F000FFFFFFFFFFFFFFFFFFFFFFFFFFFFFFFF0D
:10040000FFFFFFFFFFFFFFFFFFFFFFFFDEF9FFFF23
:1004100010B5054C237833B9044B13B10448AFF33E
:1004200000800123237010BD24A7FF1F00000000DF
:10043000341C0100084B10B51BB108490848AFF344
:1004400000800848036803B910BD074B002BFBD0A0
:10045000BDE81040184700BF0000000028A7FF1F9C
:10046000341C010024A7FF1F0000000010B584B059
:100470000A4C0B4B02930B4A01924FF0FF3300934F
:100480002046094B2022802105F072FC074A0849CA
:10049000204604B0BDE810400AF0CCBC40A7FF1FC6
:1004A000801A060040420F002C9CFF1F1C89FF1F72
:1004B000C95D000030B5094C83B001252046009588
:1004C0002B463C22022105F0D5FD20460221A576CF
:1004D00003B0BDE8304004F09DBF00BF40A7FF1F40
:1004E00070B5CEB2044680E80600D5B2304602218F
:1004F00007F0FCF90221284607F0F8F9304607F02A
:10050000E7F9A060284607F0E3F90023E0602361E3
:100510006361204670BD00BF30B5044683B00078EB
:1005200007F0D6F90546207907F0D2F9A3689D4275
:10053000E36824D0984231D0A560E060ADB1A0B1AD
:100540002369012B37DD0023236101221E4B6169E2
:100550001B680193019B63615B1A132B32D9312B0A
:100560008CBF002301231BB201E00022134692B28C
:10057000002062F30F0063F31F4003B030BD9842C8
:10058000F3D02369A56085420CBF01224FF0FF32F2
:1005900013442361E060002DE7D0D0E72369A56014
:1005A000854214BF01224FF0FF3213442361E06003
:1005B000002DDAD0C3E7002201332261D5DA4FF0F3
:1005C000FF32C3E70223D2E75CB5FF1F10B5044634
:1005D0000160C8B2022107F089F900234FF0FF3112
:1005E000032261602273A3602361204610BD00BF17
:1005F00010B5044682B0007807F06AF96368984243
:100600001A4B08D01B680093009B60603233A360D4
:10061000002002B010BD1B680193A268019B9A42A2
:1006200009D8217B4A1E032A05D8DFE802F00F0211
:100630000707012818D0002002B010BD0028FAD109
:1006400003F2E243012023612073E2E730B1012885
:10065000F1D1032088422073DBD1ECE722699A4272
:10066000E9D202202073D4E70420F3E75CB5FF1F32
:10067000704700BF10B5184C636D1868036882B0EE
:10068000DB6947F612219847144B1B680193012040
:10069000019BC4F8003100FA00F200234FF6FF710D
:1006A000024384F8580084F8702084F85A3084F8A3
:1006B00059306366236684F8F83084F8753084F81E
:1006C000743084F8763084F87730C4F8FC30A16652
:1006D000E16602B010BD00BFA8A7FF1F5CB5FF1FF9
:1006E00010B54FF60F0008F0EDF8044B5B6D18687D
:1006F0000368F8211B68BDE810401847A8A7FF1F32
:1007000010B54FF60F2008F0DDF8044B5B6D18684C
:100710000368FA211B68BDE810401847A8A7FF1F0F
:1007200010B54FF60F3008F0CDF8044B5B6D18682C
:100730000368FB211B68BDE810401847A8A7FF1FEE
:1007400010B54FF60F4008F0BDF8044B5B6D18680C
:100750000368FC211B68BDE810401847A8A7FF1FCD
:1007600008B5002008F012F9003018BF012008BDBC
:100770002DE9F041E0290C469DF8185008D8013DBC
:10078000EDB20F2D02D849B2002912DBBDE8F0818D
:10079000F729FBD90834E4B2012303FA04F414F076
:1007A000DD0FF3D0436D18680368BDE8F0411B68A6
:1007B00018471F46436D8046186803682943C9B22D
:1007C0001B6816469847D8F854301868036806F036
:1007D0007F011B6804F0EF049847C02CD6D0D8F8EE
:1007E00054301868036807F07F011B68BDE8F041CA
:1007F000184700BF2DE9F0415FFA82F80C0608F1B6
:10080000FF3504F0FE4444F410442D02064605F47E
:10081000706544F00904000482B02C4300F4FE002B
:100820000F46204308F04EF8CDF80080FBB2F2B23C
:1008300090210348FFF79CFF02B0BDE8F08100BFA4
:10084000A8A7FF1F2DE9F0415FFA82F80C0608F116
:10085000FF3504F0FE4444F400442D02064605F43E
:10086000706544F00804000482B02C4300F4FE00DC
:100870000F46204308F026F8CDF80080FBB2F2B214
:1008800080210348FFF774FF02B0BDE8F08100BF8C
:10089000A8A7FF1F2DE9F0415FFA82F80C0608F1C6
:1008A000FF3504F0FE4444F430442D02064605F4BE
:1008B000706544F00B04000482B02C4300F4FE0089
:1008C0000F46204307F0FEFFCDF80080FBB2F2B2E6
:1008D000B0210348FFF74CFF02B0BDE8F08100BF34
:1008E000A8A7FF1F036810B504460BB174309847E2
:1008F00094F87530803B7F2B00F28580DFE813F0A1
:100900008A008300830083008300830083008300C8
:1009100083008300830083008300830083008300BF
:10092000960083008300830083008300830083009C
:10093000830083008300830083008300830083009F
:100940009A00830083008300830083008300830078
:10095000830083008300830083008300830083007F
:100960009E00830083008300830083008300830054
:10097000830083008300830083008300830083005F
:10098000A200830083008300830083008300830030
:10099000830083008300830083008300830083003F
:1009A000AC00830083008300830083008300830006
:1009B000830083008300830083008300830083001F
:1009C000B0008300830083008300830083008300E2
:1009D00083008300830083008300830083008300FF
:1009E000C4008000D100E10083008300E90083009F
:1009F000ED00F100F500F900FD0083000101840025
:100A0000A36A002B60D110BD236D002BFBD0BDE885
:100A100010401847A368002BF5D094F8772094F87D
:100A2000761094F87400BDE810401847E368002B76
:100A3000F3D1E8E72369002BEFD1E4E76369002BEA
:100A4000EBD1E0E7A369002BDDD094F8761094F8A1
:100A50007400BDE810401847E369002BF5D1D2E7D8
:100A6000226A002ACFD094F8771094F8763094F860
:100A70007400C90101F47E5103F07F031943A1F50D
:100A80000051BDE810401047636A002BBBD0B4F89A
:100A90007610802904F1780028BF8021BDE810403D
:100AA0001847E26A002AAED094F8773094F87600BE
:100AB000DB0103F47E5300F07F001843BDE81040D3
:100AC0001047236B002B9ED094F87600BDE81040B1
:100AD0001847636B002B9AD195E7A36B002B96D137
:100AE00091E7236C002B92D18DE7E36B002B8ED125
:100AF00089E7636C002B8AD185E7A36C002B86D134
:100B000081E7E36C002B82D17DE700BFF8B5436D30
:100B10000446186803681B69984708B90020F8BDA7
:100B200094F80D31626D23F0010384F80D311068E3
:100B300003685B699847C3B2FD2BEFD0626E002A51
:100B400049D001067ED494F85B10F0295FD0F729D4
:100B50005DD0A11881F85B30216E4B1E9A4253D3B1
:100B600094F85B30F02B00F00A82F72B00F007823C
:100B70001A0650D4002284F87520B02A5CD0A02A2E
:100B80005AD0D02A58D0E02A56D0C02A54D00020BB
:100B900084F87400032994F85C0008BF94F85D5051
:100BA00084F8760018BF002500210120B02A84F8BF
:100BB00077506166216684F8F80008D000F2D5818C
:100BC000902A04D0A02A02D0802A00D0002384F8E2
:100BD00059300120F8BD94F8592084F85B3015068F
:100BE0004DD440B20028C0F20E8294F90D01636822
:100BF00040F0010084F80D0103B19847002084F80B
:100C0000590060662066F8BD0132626686E7A11869
:100C100081F87830A0E703F10C02D2B2012AA9D9F9
:100C2000FD2BA7D0EF2B00F2EC8103F0F002802A1D
:100C300084F8752040F0EF8103F00F00013084F854
:100C40007400A7E7A3F1F0010F293FF67CAF012064
:100C500000FA01F111F0810540F0B18111F45F4F0C
:100C60003FF471AF84F8765084F8775084F874506C
:100C700084F87530C4F8FC0084F8F800F8BD02F17F
:100C80000C01CDB2012DACD9FD2AAAD0EF2A00F279
:100C9000578102F0F006802E40F0538140B20028C8
:100CA000A0DB0120C9B2814284F85B2084F85C306B
:100CB00060669AD9FD2A98D0EF2A94BF02F0F00519
:100CC0001546A5F180037F2B8FD801A151F823F0A1
:100CD000390F0000EB0B0000EB0B0000EB0B0000EA
:100CE000EB0B0000EB0B0000EB0B0000EB0B00002C
:100CF000EB0B0000EB0B0000EB0B0000EB0B00001C
:100D0000EB0B0000EB0B0000EB0B0000EB0B00000B
:100D1000390F0000EB0B0000EB0B0000EB0B0000A9
:100D2000EB0B0000EB0B0000EB0B0000EB0B0000EB
:100D3000EB0B0000EB0B0000EB0B0000EB0B0000DB
:100D4000EB0B0000EB0B0000EB0B0000EB0B0000CB
:100D5000390F0000EB0B0000EB0B0000EB0B000069
:100D6000EB0B0000EB0B0000EB0B0000EB0B0000AB
:100D7000EB0B0000EB0B0000EB0B0000EB0B00009B
:100D8000EB0B0000EB0B0000EB0B0000EB0B00008B
:100D9000390F0000EB0B0000EB0B0000EB0B000029
:100DA000EB0B0000EB0B0000EB0B0000EB0B00006B
:100DB000EB0B0000EB0B0000EB0B0000EB0B00005B
:100DC000EB0B0000EB0B0000EB0B0000EB0B00004B
:100DD000310F0000EB0B0000EB0B0000EB0B0000F1
:100DE000EB0B0000EB0B0000EB0B0000EB0B00002B
:100DF000EB0B0000EB0B0000EB0B0000EB0B00001B
:100E0000EB0B0000EB0B0000EB0B0000EB0B00000A
:100E1000310F0000EB0B0000EB0B0000EB0B0000B0
:100E2000EB0B0000EB0B0000EB0B0000EB0B0000EA
:100E3000EB0B0000EB0B0000EB0B0000EB0B0000DA
:100E4000EB0B0000EB0B0000EB0B0000EB0B0000CA
:100E5000390F0000EB0B0000EB0B0000EB0B000068
:100E6000EB0B0000EB0B0000EB0B0000EB0B0000AA
:100E7000EB0B0000EB0B0000EB0B0000EB0B00009A
:100E8000EB0B0000EB0B0000EB0B0000EB0B00008A
:100E9000EF0E0000310F0000390F0000310F00008D
:100EA000EB0B0000EB0B0000D10E0000EF0E00007A
:100EB000D10E0000D10E0000D10E0000D10E0000B6
:100EC000D10E0000EB0B0000D10E0000D10E00008F
:100ED0000023012084F8743084F8763084F8773069
:100EE00084F875506366236684F8F800F8BD8021A5
:100EF0000023216684F8785084F859307F21636E8E
:100F00008B422ED302F00F020023013294F85C10C2
:100F100084F87420012084F8761084F8773084F8FF
:100F2000755063662366C4F8FC0084F8F800F8BDC9
:100F3000022323660121E2E7032323660221DEE781
:100F4000164606F0DF05902D3FF4A8AE06F0BF056B
:100F5000A02D3FF4A3AE06F0EF06C02E3FF49EAEE8
:100F60003FE6013363660020F8BDD02A3FF42FAE80
:100F7000E02A3FF42CAEC02A7FF428AE27E6F02208
:100F800080230025012194F8F76084F8752084F807
:100F9000763084F8F720C4F8FC30204684F8775087
:100FA00084F8745084F8F810FFF79CFCF7220223B1
:100FB00084F8796084F8782028466366F8BD94F850
:100FC0007810F02902D0F7297FF40FAE551C224487
:100FD00000214FEA152E82F878300126F02784F898
:100FE000765084F877E084F8741084F8591030460D
:100FF000C4F8FC5084F875706166216684F8F86066
:10100000F8BD1A46B7E503F10C02D2B2012A7FF609
:10101000ECAD1A4650E6902A3FF40EAEADE500BFA7
:1010200090F87030DA0718D513F0FE0F15D070B5B0
:1010300090F8755085F08002602A82B004460DD881
:1010400090F874608E4231D081B35B08012B32D0AE
:10105000032B00F09B8002B070BD7047A5F1F00338
:101060000F2BF8D801A252F823F000BF6311000043
:10107000411100000F110000F31000005710000094
:1010800057100000CB10000057100000CB100000DC
:1010900057100000CB100000CB100000CB10000058
:1010A00057100000CB100000CB1000005B08012B94
:1010B00001D0022BCFD194F8773094F876200096A7
:1010C00029462046FFF754FBC5E705F10803DBB2CC
:1010D000072BC0D8012202FA03F313F0DD0FBAD0B8
:1010E000636D1868036829461B6802B0BDE870404C
:1010F0001847436D90F8765018680368F3211B6811
:101100009847636D186805F07F010368ECE7436D4D
:1011100090F87750186894F876200368F2211B68DD
:1011200042EAC5159847636D1868036805F07F01AA
:101130001B689847636D1868C5F3C6110368D3E749
:10114000436D90F87650186894F8773002682D0156
:1011500003F00F03126805F07005F1211D4390475D
:10116000BEE7B0F87660802E28BF802600F17805B3
:10117000002E3FF470AF2E44636D15F8011B186804
:1011800003681B689847B542F6D164E794F8773056
:1011900094F8762000962946FFF7EAFA5BE700BF4D
:1011A00070B5174C94F85860102E02D900252846C7
:1011B00070BD2046FFF7AAFC05460028F6D094F83B
:1011C0007530902B0CD083F08003602B0BD90C482A
:1011D000FFF788FB31460A48FFF722FF284670BD1B
:1011E00094F877303BB194F874309E42EFD0002EE3
:1011F000EDD00025EEE7802384F87530F3E700BFDB
:10120000A8A7FF1FF8B5294C294F94F87030DFF8D4
:10121000ACE0C7F800E00025012243F0010362F3CF
:1012200047034FF6FF76294604F17800802284F8C0
:101230007030676525606560A560E5602561656162
:10124000A561E56125626562A562E5622563656366
:10125000A563E56325646564A564E564256584F894
:10126000585084F8595084F85A5025666566A66629
:10127000E66684F8745084F8755084F8765084F8E3
:10128000775084F8F8500BF0CBF82046C4F80051A2
:10129000C4F80451C4F8085184F80C5184F80D5175
:1012A000044A0549BDE8F84009F0C4BDA8A7FF1FDE
:1012B000A4A7FF1F1C89FF1F71060000F49DFF1FDC
:1012C00000207047704700BF10B5044603F07AFF56
:1012D0000A2830D00D283DD04FF6FD73984201D931
:1012E000012010BD0346B4F94220B4F9401004F1C6
:1012F000080003F04BFF94F82230032BF0D8DFE80E
:1013000003F0140E0802B4F84230181AA4F8420090
:10131000E6E7B4F84030181AA4F84000E0E7B4F863
:1013200042301844A4F84200DAE7B4F840301844D8
:10133000A4F84000D4E794F9333094F93410B4F8A9
:1013400042205B1A13440022A4F84230A4F8402043
:10135000012010BD0023A4F84030012010BD00BFC3
:1013600010B518380AF0AEFA09490A4C0AF0FEFA2C
:1013700008F086FC0AF0C0FC01212060172006F06E
:10138000A1FA21682820BDE8104006F08DB900BF01
:101390009075924200AFFF1F38B50E4B0E490F4AB1
:1013A00003F12004002553F8040F012809BF086841
:1013B000156000F1FF301060A34201F1040102F159
:1013C0000402F0D1FFF7BCF9FFF79AF9044B0022B1
:1013D0001A7038BD1CA9FF1F4489FF1F24ACFF1FD2
:1013E0000A9CFF1F2DE9F0471546002A63D00446EA
:1013F0000F46DFF8C88000264FF6FD7900F1080A95
:101400000BE003F0DFFE0A2825D00D2832D0484536
:1014100011D90120013D06440AD0236817F8011BA9
:101420001B6843452046ECD09847013D0644F4D163
:101430003046BDE8F0870346B4F94220B4F94010C5
:10144000504603F0A3FE94F82230032BE1D8DFE8E6
:1014500003F02B241D1694F9333094F93410B4F8AA
:1014600042205B1A13440022A4F84230A4F8402022
:101470000120CFE70023A4F840300120CAE7B4F8E8
:101480004230181AA4F842000120C3E7B4F84030F3
:10149000181AA4F840000120BCE7B4F84230184400
:1014A000A4F842000120B5E7B4F840301844A4F88D
:1014B00040000120AEE71646BAE700BFC91200009F
:1014C00070B50E4D2B689842044614D30C4EE41AA6
:1014D000FFF706F933682B6006F00EFA014609485B
:1014E00002F01AFF06F008FA0146074802F056FF1C
:1014F0002B68A342EBD91B1B2B6070BD40B0FF1FB4
:10150000A4B0FF1F54B3FF1FD4B0FF1F0C4A0D4BF4
:1015100070B552F820500C4E1A680C4B56F820103B
:1015200053F8222004462846FFF7B4F90848094931
:10153000094A56F8243040F824300D60136070BD1D
:101540007CCB0000ACB0FF1F00A9FF1FC48BFF1FA6
:1015500050A9FF1F7089FF1F70A9FF1F2DE9F84FC9
:101560003A4C3B4F3B4E3C4DDFF81891DFF8188169
:10157000DFF818A122204FF0000BC0B205F018FED2
:101580000346014620682B6003F0FEFB2068D9F873
:101590000020C16AD8F800308A424FDC8B42D4BFA9
:1015A000C2EB0301C2EB01019B1AB3F5804FAABF46
:1015B0008903C1EB8131013391FBF3F390F83410CF
:1015C0002B60DB1146F8043B00292DD0DAF800101F
:1015D000032929D8DFE801F0220202221F4A1178EC
:1015E00081B31F4A1178F9B11E4A1F4952F82B20C6
:1015F0000A601E481E49C0F800B0BBF1040F0B6022
:101600000CD01C481C49006809681C4A01EB0010FA
:101610000BF1030101EBC00142F821305846FFF7FE
:1016200075FF174B012119700BF1010BBBF1050F71
:1016300004F1040404D057F8040F9EE70021B3E737
:10164000BDE8F88F5846FFF761FFEDE774A9FF1F6B
:1016500028CB000000A9FF1FFCA8FF1F6CA9FF1FDB
:10166000F8A8FF1F7CCB00007089FF1F4CA9FF1F4B
:1016700070A9FF1FACB0FF1F68B0FF1F048CFF1FD5
:10168000E4ACFF1F88ACFF1F7489FF1F34B0FF1F3D
:1016900008B50A4B1A783AB91146094803F06EF9B1
:1016A000084B01221A7008BD074A0548002103F0C3
:1016B00065F9044B01221A7008BD00BF44B0FF1F3A
:1016C000B8A8FF1F76B0FF1F4040BF002DE9F04FC4
:1016D000A04BA14C196883B0054608460AF03EF8B5
:1016E0000AF030FB9D499E4A0B680093009B1668E8
:1016F00020609B1B984208D89A480968037801919A
:101700000199116083F001030370DFF8A48298F857
:10171000003023B1934B1B78002B40F0E380924CB8
:101720002378002B47D1914B1B78002B4CD08D4B4D
:101730001B78002B50D18E4B1B68012B00F062816F
:10174000022B00F0C980002211468A4803F016F9E6
:10175000894B5B5D002B4AD0884B894F53F825306D
:101760003B602378002B4AD0864B1B78002B46D059
:10177000854E864FDFF83C8201240FE03B68A34290
:1017800000F0C680D8F800300B33A34200F0B180DF
:1017900003F0F4F801341B2C00F0B48056F8253027
:1017A00074480A33A3424FF00002A1B2E6DA0022E5
:1017B000A1B27048ECE76B4B1B78002B40F02881FE
:1017C0006A4B1B78002BB6D1714B1B78002BB2D023
:1017D000644B1B78002BAED06E4B664853F8252027
:1017E000002103F0CBF8644B5B5D002BB4D1694B57
:1017F000634F53F825303B602378002BB4D1644B02
:101800001B78002B40F0A0804FF0020B01245E4EAD
:10181000DFF858910AE00022A1B2564803F0AEF872
:10182000BBF11B0F27D001340BF1010B56F825300B
:101830000A33A342EFDB012C00F0F180022C00F010
:10184000FA80EB1CA342E6D11FFA84FA3A684948B1
:10185000514603F093F899F80020002AE0D0414B5C
:101860001A78002ADCD051460022424803F086F85C
:10187000BBF11B0FD7D1484BDFF830B103EB851A12
:101880004FF00B09002413E0A34252D0DAF80030E5
:10189000012B48D0414A3748494603F06FF80134DC
:1018A00009F10109102C1FFA89F90AF1040A29D05B
:1018B00056F82530A342F2DDA2075BF82530E3D0CD
:1018C000A34229D0DAF80030012B2CD0002249465F
:1018D000284803F053F8E2E74D220021254803F0A1
:1018E0004DF835E70122002122481F4C03F046F84D
:1018F0002EE7A1B22A4A1F48013403F03FF81B2CFF
:101900007FF44CAF274B01221A7003B0BDE8F08F73
:10191000254A03F033F83DE798F800206AB9DAF871
:101920000030012BD3D13A681248494603F026F81B
:10193000B5E798F80030002BA8D04FF400024946D4
:101940000C4803F01BF8AAE70F4E184FDFF8688029
:10195000012447E0E0ACFF1F14A9FF1F5CB5FF1F87
:101960008CACFF1FD0B0FF1F6CA9FF1F48A9FF1F41
:1019700034B0FF1FB8A8FF1F90A9FF1F3CCB000089
:101980003CB0FF1FF8A8FF1F4489FF1FFCAEFF1FDC
:101990008CA9FF1F5CCB0000FCACFF1F20202000A7
:1019A0000080FF0076B0FF1F8080800024ACFF1F06
:1019B000D4A8FF1F68B0FF1FACB0FF1FD8F80030DD
:1019C000264857F823300B33A3424FF00002A1B250
:1019D00013D0DEF80030A34201D002F0CFFF013473
:1019E0001B2C8FD056F82530DFF884E00A33A34251
:1019F000E4DA0022A1B21948EFE74FF4000202F046
:101A0000BDFFECE7164A1548002102F0B7FF9FE63C
:101A100044F64D420021114802F0B0FF98E6114B08
:101A20005B7813B1104B1B7893B9104A0B48012116
:101A300002F0A4FFF7E60B4B9B7813B10A4B1B781F
:101A400033B94FF680720221044802F097FFEAE6AC
:101A500000222146014802F091FFE4E6B8A8FF1FEA
:101A600080808000D8A8FF1FD0B0FF1FFFFF80003C
:101A7000FCAEFF1F10B550B904460121094803F020
:101A80009DFB21460748BDE8104003F099BB0021AB
:101A9000044803F093FB01210248BDE8104003F025
:101AA0008FBB00BF9CACFF1F124A1348134B70B48E
:101AB00002F1200500260AE014680131A1421960F4
:101AC000A8BF1E600432AA4203F1040310D050F8EC
:101AD000041F01291968EFD1013900291960F1DAD1
:101AE000116804320139AA42196003F10403EED1EE
:101AF00070BC70474489FF1F1CA9FF1F24ACFF1F47
:101B0000F8B5184C184B246853F8203004EB440403
:101B100003EB84047F2C05460AD9A9B2134A144862
:101B200002F02CFF1349144A01230B701370F8BD07
:101B300013461248124A50F823001768114A124EF1
:101B400052F8272000EB0313204646F82340FEF707
:101B500051FEA4F11803352BDFD82046FFF700FC17
:101B6000DBE700BFA8B0FF1FDCC900008080800059
:101B7000B8A8FF1F76B0FF1FE4ACFF1F24ACFF1F07
:101B8000ACB0FF1FC48BFF1F24AAFF1F114B124ACA
:101B90001B6810B5044652F8200003EB430300EB2A
:101BA00083007F280BD80D4A0D4B1268002153F893
:101BB0002220FEF747FE0021172005F083FEA1B288
:101BC0000022084802F0DAFE0749084A01230B7098
:101BD000137010BDA8B0FF1FDCC90000ACB0FF1F20
:101BE000C48BFF1FB8A8FF1F76B0FF1FE4ACFF1F18
:101BF0002DE9F04F4B4F4C4957F820304FEA001871
:101C000008EB030285B051F822104C1C7FD001294B
:101C100068D14649DFF830910968454DDFF82CA1BD
:101C2000444E5AF820B003EB0113520109EB431361
:101C3000044659F802105B682B60029105F05CFEC7
:101C400057F82430DFF808E10299434409EB4312C6
:101C5000DEF80030D2F808E05A460EFB030336489F
:101C6000DFF8F0B002F042FB57F824205AF8243095
:101C70002D6803934244520159F80210029105F075
:101C80003BFE2A4600900299039B2C4802F06AFB17
:101C900057F82400002508EB0003EA1C02EBC303FD
:101CA00059F823300293002B19461EDB244B5AF8B7
:101CB000242053F82500FEF7EDFD029B57F8240081
:101CC00033600135042D06F10406E4D180444FEA67
:101CD00048121C4B59F8020043F82800A0F11803E1
:101CE000352B1AD905B0BDE8F08F5BF825103368A5
:101CF0008B42E6D0124B5AF8242053F82500FEF709
:101D0000C9FD5BF8253057F824003360D9E70F236D
:101D100047F8203005B0BDE8F08F05B0BDE8F04FC2
:101D2000FFF71EBB24ACFF1FFCACFF1FACB0FF1FB6
:101D3000E88BFF1FE8ACFF1F54B3FF1FD4B0FF1F99
:101D40007CCB000024AAFF1F048CFF1FC48BFF1F45
:101D5000DCACFF1F50A9FF1F444B1B68012B2DE972
:101D6000F0413DD0022B33D1414B1B78002B31D0B9
:101D7000404E05F0C1FD3368984262D33E4A127866
:101D8000002A69D13D4A3E4912680B600024134481
:101D90003C4DDFF800813C4F3360264615F8012F9B
:101DA0003A4B20467AB958F824200F321340002BC2
:101DB00049DB03EB041357F82320002AC8BF47F878
:101DC0002360FFF715FF0134082CE7D1304C30E0D9
:101DD000BDE8F0812E4BBDE8F0411868FFF776BCF6
:101DE000234B1B78002BF5D0224E05F085FD326881
:101DF000904226D3204B1B7853BB254C25492068A5
:101E0000224B51F820100F310B40002B28DB03EB45
:101E100000131D4951F82350002DC4BF002541F87F
:101E20002350164B16491B680A601A443260FFF7AC
:101E3000DFFE2068FFF74AFC2068BDE8F041FFF7AD
:101E400033BEBDE8F081013B63F00F030133B0E71F
:101E5000FFF7A2FA3268D0E7FFF79EFA336891E7FE
:101E6000013B63F00F030133D1E700BF34B0FF1F24
:101E7000D4A8FF1FA0B0FF1F0A9CFF1FDCACFF1FF0
:101E800030B0FF1F8FA9FF1F24AAFF1F0F00008083
:101E9000ACB0FF1F24ACFF1F08B5074B01221A701E
:101EA00005F02AFD054B064A1B78106003B108BDFA
:101EB000BDE80840FEF734BCD4A8FF1F0A9CFF1FF2
:101EC000A0B0FF1FF8B58E0006F10A0323F0070348
:101ED0000A44002900AFADEB030D92FBF1F301FBC7
:101EE000132218DD6C46034600EB060E53F8045B24
:101EF00044F82250734502F1010292FBF1F501FB17
:101F00001522F3D12346A119043853F8042B40F8C5
:101F1000042F8B42F9D1BD46F8BD00BF2DE9F04733
:101F20003A4FBDF820600546894638462946924614
:101F3000984603F093F997F9314080B2A4B2C0EB10
:101F40000803341B03EBD37304EBD47409EB630372
:101F50000AEB640400222846A7F84030A7F8424064
:101F600087F846200AF0CCFA48B304463E464FF6BE
:101F7000FD7801E0013C22D015F8011B234803F055
:101F800021F90A282FD00D283BD04045F2D803462E
:101F9000B6F94220B6F940101D4803F0F7F896F85C
:101FA0002230032BE6D8DFE803F018120C02B7F852
:101FB0004230013CA3EB0000A7F84200DCD1BDE8B1
:101FC000F087B7F84030181AA7F84000D2E7B7F802
:101FD00042301844A7F84200CCE7B7F84030184424
:101FE000A7F84000C6E796F9333096F93410B6F8F2
:101FF00042205B1A13440022A6F84230A6F8402083
:10200000B8E70023A6F84030B4E700BF94ACFF1F48
:102010009CACFF1F2DE9F0411C4C1D4DDFF8848066
:102020001C4F84B0A61D03E0B44205F104052AD07C
:1020300014F8013B002BF7D0D8F800300393039B32
:1020400015483B6004F0ECF90121144803F09CF8BA
:102050001349124803F0A8F80121104803F0AEF824
:1020600000210E4803F0ACF82023286800930A22D0
:1020700080230021FFF752FF0023B44204F8013C03
:1020800005F10405D4D104B0BDE8F08108AFFF1F0D
:10209000EC8BFF1FF4A8FF1F40A7FF1F9CACFF1F86
:1020A00090CC00005CB5FF1F30B51B4C83B0012104
:1020B00004F1080003F068F804F10800174903F080
:1020C00073F8002504F108000121A4F84050A4F899
:1020D000425084F8465003F071F8294604F1080094
:1020E00003F06EF80E4B0F4A1B68126893420E4ABB
:1020F000127802D01AB90D4804E0002AFBD00C4A2D
:1021000052F823002023009314222C235621FFF79A
:1021100005FF03B030BD00BF94ACFF1FDCFE000024
:1021200064A9FF1F34B0FF1F04AFFF1F78CA00006F
:10213000A089FF1F70B5064684B010460D46FFF714
:1021400099FC0A4B1C68033402A930460A22640039
:1021500009F09CFEA4B269011623009322B209B2D1
:1021600002A82023FFF7DAFE04B070BDB889FF1F74
:10217000F8B5134E074600257088002498B1230453
:10218000FF2293FBF0F02844114680B202F020FCBD
:1021900002F0C2FCA1B20246094802F0EFFB7088CF
:1021A0000134A042EBDC064802F006FB05F5807521
:1021B000384605F0C3FBB5F5803FDDD1F8BD00BF63
:1021C000B8A8FF1F2DE9F047494BDFF83C81494E85
:1021D0000FCB86B006AC04E90F00474804F020F9A5
:1021E000002108F1080002F0CFFF45464FF0000A39
:1021F0004148424C04F014F912230022404941485E
:10220000A8F84030A8F8423088F846200FFA8AF93A
:1022100002F0CAFF4FF6FD7701E0B44222D014F875
:10222000011B394802F0CEFF0A284FD00D285BD0A1
:10223000B842F2D80346B5F94220B5F9401031480A
:1022400002F0A4FF95F82230032BE6D8DFE803F074
:1022500038322C02B8F84230B442A3EB0000A8F8A0
:102260004200DCD12949274802F09EFF09F003090A
:1022700006AB03EB8909202359F8100C00930A22BE
:102280005021FFF74BFE1C4804F0D6F90AF1010A71
:10229000642005F053FBBAF1100FA9D1642006B0F9
:1022A000BDE8F04705F04ABBB8F84030181AA8F866
:1022B0004000B2E7B8F842301844A8F84200ACE752
:1022C000B8F840301844A8F84000A6E795F9333034
:1022D00095F93410B5F842205B1A13440022A5F892
:1022E0004230A5F8402098E70023A5F8403094E755
:1022F000CCC9000072CA000040A7FF1F6CCA0000D2
:1023000090CC00009CACFF1F94ACFF1F4CD500008C
:102310002DE9F0477E4CDFF860827E4F7E4EA0B004
:1023200004F0E2FF2368029302987C4B22687C4908
:1023300003927C4A08601968116059685160996875
:102340009160D968D1601969116159699D695161BC
:10235000D969754B9561D1617449754A03981A60C2
:10236000002501221D71DD6083F82250A3F8405042
:10237000A3F8425083F846501A8383F8212008605E
:10238000236804936B4B049A1A6005F0B5FA23682E
:102390000593DDF814A023680693DDF818902368F0
:1023A0000793DDF81CC023680893089923680993F4
:1023B000DDF824E0604B22680A920A9A18605F4BAD
:1023C00020680B90D9600B9920680C905A610C9A88
:1023D000C3F800A0C3F80490C3F808C0C3F810E025
:1023E0009961DA6122680D920D9A21680E91DDF8EB
:1023F00038C021680F91DDF83CE0216810911099F8
:10240000206811901198D4F80090CDF848901A6285
:10241000C3F824C0129AD4F800C0CDF84CC0D962D9
:1024200018631399206814905A63149AC3F828E02B
:102430009963DA6322681592159A21681691DDF87E
:1024400058C021681791DDF85CE02168189118994F
:10245000206819901998D4F80090CDF868901A6403
:10246000C3F844C01A9AD4F800C0CDF86CC0D9643F
:1024700018651B9920681C905A651C9AC3F848E09F
:102480009965DA6522681D921D9A20681E901E9833
:1024900024681F9458662A4C1F981A669866294922
:1024A000294B2468294A09681C602948294B12686D
:1024B0001A600160084609F051F909F043FC0B224B
:1024C000C8F800000C212448244CFEF709F82946DE
:1024D0002348FEF77BF80622052301920093384635
:1024E000204B214A214901F0ADFF324638462049B0
:1024F00008F0A0FC522320460E221B2102F028FAED
:10250000324620461B4908F095FC20B0BDE8F08714
:102510005CB5FF1F10AFFF1F1C89FF1F4489FF1F01
:102520008CACFF1FB0B0FF1F94ACFF1F50B0FF1F5B
:10253000BCC90000F4A8FF1F48B0FF1FB0A9FF1FCF
:1025400000A9FF1F6889FF1F70A9FF1FA8B0FF1F08
:1025500020AAFF1F4CB0FF1F98A9FF1FB8A8FF1F9C
:1025600054B0FF1F049CFF1FB089FF1F7C89FF1F11
:102570007D440000F146000014A9FF1F30B5124C45
:1025800083B0002201210A232046019100931146C5
:10259000802302F0A7FF022520232046194600953C
:1025A000002204F017F82046009520230022402145
:1025B00004F010F80095204620230022602104F04A
:1025C00009F803B030BD00BF40A7FF1F2DE9F0435D
:1025D000714EDFF80892714C83B006F108000121BA
:1025E000002502F0D1FD06F108006D4902F0DCFD86
:1025F000A6F84050A6F8425086F84650FFF7BEFFB6
:10260000294606F1080002F0D9FD06F10800012173
:1026100002F0D6FD0722B9F9003086F84650A6F838
:102620004020A6F842303546A71C4FF6FD7801E061
:10263000BC4224D014F8011B574802F0C3FD0A28FD
:1026400000F096800D2800F0A1804045F0D80346A8
:10265000B5F94220B5F94010524802F097FD95F8BF
:102660002230032BE4D8DFE803F07D777102B6F85F
:102670004230BC42A3EB0000A6F84200DAD14A4B3C
:1026800045481968494E06F02BFED9F80020484805
:102690000A25023A12B2202321210095FFF73EFCC1
:1026A000D9F8002043480095023A12B22023412174
:1026B000FFF734FCD9F800203F480095023A12B2E7
:1026C00020236121FFF72AFC0121364802F05CFD3E
:1026D0003A49344802F068FD0121324802F06EFDAB
:1026E0000021304802F06CFD354B0022186811467D
:1026F000FFF720FD3268334B334953F8223003EBA8
:102700000213002251F823000121FFF713FD2F4B84
:102710001C68012C3ED11623009301942A462123E4
:1027200060212B4802F0DEFE2A4B1868002204309C
:102730000221FFF7FFFC3168274B53F821002246A6
:10274000032103B0BDE8F043FFF7F4BCB6F8403016
:10275000181AA6F840006BE7B6F842301844A6F8FD
:10276000420065E7B6F840301844A6F840005FE73D
:1027700095F9333095F93410B5F842205B1A1344BB
:102780000022A5F84230A5F8402051E70023A5F823
:1027900040304DE70024C7E794ACFF1F58CA000043
:1027A000AC0701009CACFF1F7089FF1FACB0FF1F7E
:1027B00074CA00007CCA000080CA0000C4F5000092
:1027C00070A9FF1F24ACFF1F24AAFF1F68A9FF1FC9
:1027D00040A7FF1FA8B0FF1FC48BFF1FB889FF1FB2
:1027E000F0B5434C434F83B004F10800012102F0DF
:1027F000CBFC002504F108003F4902F0D5FCA4F809
:102800004050A4F8425084F84650FFF7B7FE04F158
:102810000800294602F0D2FC04F10800012102F070
:10282000CFFC3A6835480A26023A12B22023012129
:102830000096FFF773FB3A6831480096023A12B2ED
:1028400020232121FFF76AFB3A682E480096023ABE
:1028500012B220234121FFF761FB3A682A48009613
:10286000023A202312B26121FFF758FB04F108005D
:10287000012102F089FC04F10800244902F094FCD3
:1028800004F10800012102F099FC04F10800294636
:1028900002F096FC1E4B1C68012C09D116230093F4
:1028A00001943246212340211A48254602F01AFE9F
:1028B000194C2068002211460130FFF73BFC2168CB
:1028C000164B002253F821000121FFF733FC144B73
:1028D0002A4618680221FFF72DFC124B186809F0F0
:1028E0000BFA0022032103B0BDE8F040FFF722BC41
:1028F00094ACFF1FB889FF1FAC07010050CA00004D
:1029000048CA000084CA000054CA0000C4F5000090
:10291000D0A8FF1F40A7FF1FACB0FF1F4489FF1FB7
:1029200018A9FF1F6889FF1F2DE9F0413E4E3F4F58
:10293000DFF8248106F1080582B028460121002431
:1029400002F022FC28463A4902F02EFCA6F840404C
:10295000A6F8424086F84640FFF710FE214628467A
:1029600002F02CFC2846012102F02AFC3A6831488A
:102970000A26023A214612B200962023FFF7CEFA29
:102980003A682D480096023A12B220232121FFF71F
:10299000C5FA3A6829480096023A12B2202341212A
:1029A000FFF7BCFA3A6826480096023A202312B292
:1029B0006121FFF7B3FA2846012102F0E5FB284622
:1029C000204902F0F1FB2846012102F0F7FB2146E5
:1029D000284602F0F5FBD8F80000224621460130D7
:1029E000FFF7A8FBD8F80020174B53F8220001216D
:1029F00022460130FFF79EFB144BD8F800201B68DD
:102A0000134903EB02135B012246C8580221FFF76A
:102A100091FB104B186822460430032102B0BDE838
:102A2000F041FFF787BB00BF94ACFF1FB889FF1FC1
:102A3000AC0701008CCA000094CA000074CA0000F0
:102A40007CCA0000C4F5000024ACFF1F68B0FF1F63
:102A5000048CFF1FA8B0FF1FACB0FF1F2DE9F0478B
:102A6000624C634F82B004F10800012102F08CFB3C
:102A7000002504F108005F4902F096FBA4F84050DD
:102A8000A4F8425084F84650FFF778FD294604F137
:102A9000080002F093FB04F10800012102F090FB12
:102AA0003A6855480A26023A294612B2202300966F
:102AB000FFF734FA3A68514800962023023A194643
:102AC00012B2FFF72BFA3A684D480096023A12B25A
:102AD00020234121FFF722FA3A684A480096023A39
:102AE000202312B26121FFF719FA04F10800012135
:102AF00002F04AFB444B1B68032B72D8DFE803F05B
:102B000062534402162301268DE848000A2221233D
:102B100060213E4802F0E6FC0027B946BA46DFF8DD
:102B200004813B4D3B493C483C4C02F03DFBD8F80E
:102B300000202B6803EB02135B014A46E05800219A
:102B4000FFF7F8FA364B1868524604300121FFF7B8
:102B5000F1FAD8F800202B6803EB021304EB4313BF
:102B60003A4658680221FFF7E5FAD8F800202B68AA
:102B700003EB021304EB43143246A068032102B0B6
:102B8000BDE8F047FFF7D6BA162301278DE8880085
:102B90004FF0000921230A2240211C4802F0A2FC28
:102BA000CA464E46BBE7162301248DE818000027CD
:102BB00021230A2220211548A24602F093FCB9469F
:102BC0003E46ACE71623012400210F468DE818008D
:102BD0000A2221230D48A14602F084FCBA463E4653
:102BE0009DE70027B946BA463E4698E794ACFF1FDA
:102BF000B889FF1FAC07010074CA00007CCA00003E
:102C00009CCA000048CA00007889FF1F40A7FF1F28
:102C100068B0FF1FC4F500009CACFF1F048CFF1FB1
:102C2000A8B0FF1FACB0FF1F2DE9F043012183B016
:102C3000504802F0A9FA50494E4802F0B5FA4F4BFD
:102C40001C68012C00F08880022C77D0002C67D003
:102C50004FF000084746C146494D4A4C28684A4E45
:102C6000002211460130FFF765FA2A68474B01211F
:102C700053F822004A46FFF75DFA454B3A4618687A
:102C80000221FFF757FA434B2968424653F82100C7
:102C90000321FFF74FFA04F10800012102F074FA52
:102CA000002504F108003C4902F07EFAA4F84050E7
:102CB000A4F8425084F84650FFF760FC294604F11E
:102CC000080002F07BFA04F10800012102F078FA12
:102CD000326832480A24023A294612B2009420236C
:102CE000FFF71CF9326800942023023A194612B209
:102CF0002B48FFF713F932680094023A12B22023EE
:102D000041212848FFF70AF932680094023A12B2CA
:102D1000202361212448FFF701F903B0BDE8F083C7
:102D2000012516238DE828000B22212320211F488E
:102D3000A046A94602F0D6FB27468DE716230124BC
:102D40008DE818000B222123602118480027A04697
:102D500002F0C8FBB9467FE716238DE818000B2266
:102D60002123402111484FF00008274602F0BAFB0A
:102D7000C14671E79CACFF1FC4F50000BC8BFF1F70
:102D8000ACB0FF1F94ACFF1FB889FF1F4489FF1F21
:102D900090ACFF1FC48BFF1FAC07010050CA00009E
:102DA00048CA0000A0CA0000A4CA000040A7FF1F34
:102DB0002DE9F04F754C764D85B004F108000121E6
:102DC000002602F0E1F9012704F10800714902F040
:102DD000EBF9A4F84060A4F8426084F84660FFF77D
:102DE000CDFB4023142231466B48009703F0C0FB13
:102DF000314604F1080002F0E1F9394604F1080017
:102E000002F0DEF92A6865484FF00A08023A12B269
:102E100031462023CDF80080FFF780F82A6860480B
:102E2000CDF800802023023A194612B2FFF776F857
:102E3000394604F1080002F0A7F95A4B02961B68C4
:102E4000032B00F29F80DFE803F068594A020B234E
:102E500001248DE818001522212320214E4802F07C
:102E600041FB4FF0000B8DF80B404A494E48DFF80C
:102E700044A1DFF84491DFF8448102F095F902AEF5
:102E800000240B27D8F80020D9F8001002EB01111C
:102E9000E21C02EBC1010A225AF82100002803A912
:102EA00048DD08F0F3FF012CA4F10202584659D086
:102EB000032C42D0022A34BF4FF0200B4FF0000BFE
:102EC000FEF7D8FD2A6800975200594612B2202317
:102ED00003A8FFF723F8013416F801BFD2E70B234C
:102EE00001248DE818000A22212320212A4802F01B
:102EF000F9FA4FF0000B8DF80A40B6E70B230124D6
:102F00008DE81800152221230021234802F0EAFA57
:102F10004FF0000B8DF80940A7E701240B228DE844
:102F20001400212300211C4802F0DCFAA3468DF88E
:102F300008409AE71D4B0393B5E75846FEF79AFD04
:102F40002A68520020230B210B3212B203A80091F1
:102F50001946FEF7E3FF1649134802F025F905B0BC
:102F6000BDE8F08F5846FEF785FD2B6800975B00A3
:102F700003F10B0212B22023002103A80224FEF762
:102F8000CDFFA9E74FF0000B6FE700BF94ACFF1F28
:102F9000B889FF1FAC07010040A7FF1FACCA0000A3
:102FA000B4CA0000C08BFF1F9CACFF1F2D2D2D004D
:102FB000C4F50000048CFF1FACB0FF1F68B0FF1FFA
:102FC0002DE9F04F9648A1B001F060FA04F094FCAE
:102FD000944B186004F090FC934A13681060C01A78
:102FE00004D0924B1B78002B40F0F882FEF7B4FE21
:102FF0008F4803F015FAFEF7B1FA8E48FDF78CFA08
:1030000002B21890002A40F089818B4B01938B4BC0
:1030100006938B4B09938B4D8B4B05938B4B0293F4
:103020008B4B0493DFF854928A4B07938A48FDF741
:10303000DFFA022800F09F81032800F02682012891
:1030400000F0FD81854B0B93854EDFF834A2DFF84D
:10305000DCB1734801F0D4FA002848D0704801F080
:10306000DBFAC0F30722D3B2012BC4B200F0CF8049
:103070002A68032A00F24E81DFE802F020020220D3
:10308000002BE6D12CB3049B1B78002B00F0A7810A
:10309000DAF80030002B1CDD9BF80030002B00F02C
:1030A0003583059B1B78A3B16E4F3B788BB1029B98
:1030B0001868FEF7F9FC00233B700AE0002BC8D12A
:1030C000002C40F0D481684B21461A681920FDF786
:1030D000E1FB664A664B12681A921A9A43F824205A
:1030E0004F480023335501F08BFA0028B6D1029BDC
:1030F0002A681C685F4B5D4FD3F800807378039398
:10310000B3780893099BDFF868E11B781793059B58
:103110000C921B780D93079B15901B681693069BCA
:1031200010901B781193544B12901B781393049BAF
:103130001B781493019B09EB84141B780E932C3C91
:103140000F9003460A9002F1FF3BBA4642F20E7915
:10315000F25C4AB339681B911B995EF82350491BF6
:1031600088454FEA830C1FD8DAF800101C911C998F
:103170004D1B4D4518D8BBF1010F0DD8039959B916
:10318000089949B9D91E072940F2BB860A2B03DDED
:103190000D99002900F02E813A681D921D9AA2F522
:1031A0001C520F3A4EF80C2001331B2B04F104047F
:1031B000CED10A9B002B40F03F870F9B23B1019B90
:1031C0001A469DF838301370129B1BB1079B1A46A4
:1031D000169B1360109B23B1069B1A469DF8443042
:1031E0001370159B1BB1244B9DF84C201A7020B115
:1031F000049B1A469DF8503013700C9B032B00F271
:10320000B286DFE813F0C60684068406C6062B687D
:103210003255032B3FF61DAFDFE803F06D34346DFC
:1032200010AFFF1F48B0FF1F44A9FF1FD4A8FF1F06
:1032300040A7FF1F98A9FF1FE4ACFF1F6CA9FF1F49
:1032400048A9FF1F34B0FF1F8CA9FF1FACB0FF1FA0
:10325000F8A8FF1F68B0FF1F54B0FF1F76B0FF1F14
:10326000D8A8FF1F40A9FF1F6489FF1F5CB5FF1F7F
:10327000B0A9FF1F9C89FF1F1CA9FF1FFCACFF1FEB
:10328000FCAEFF1F002C00F096809B4B9B4A1B68F6
:103290001993069B19991B7842F82410A4F10B028C
:1032A000002B00F06181049B95491B78002B00F0F6
:1032B000B281029B93491A68079B93481B6809686F
:1032C00050F82400DFF87CE29BF80070CAF8004058
:1032D00003EB02135B0101EB410100EB81014EF8AE
:1032E00003108A4900230B70002F00F0E983019A34
:1032F00001231370ADE6002C40F0BF80844B6421A5
:103300001A681920FDF7C6FA824A137883F0010380
:1033100013709EE6002B3FF4DCAE9AE6BDF96230F6
:103320007D4902FB03F3097803EB83039C18002912
:1033300072D07A4A7A4B01931E467A4913680691F5
:103340007949099123447949059183F30203784926
:1033500013600291FEF7A8FE01233370684B0493BB
:103360007448754B0793FDF743F90228734DDFF856
:10337000F4917FF461AE059B1B78002B00F08A81ED
:10338000029B6F4A1B686F4952F823005B0203F5EA
:1033900000720A440B44012418609C60203393425D
:1033A0004FF00101F8D1684B684A0B921970019AED
:1033B0000123137048E6069B1B78002B72D0049BF8
:1033C0001B781BB1079BCAF800401C6004990023BE
:1033D0000B7006990B70019B01221A7039E6059B50
:1033E0001B78002B3FF475AEDAF80030002B3FF766
:1033F00053AE6EE621681492B1FA81F11046490984
:10340000159213921092119212920F920E92A3F1B2
:103410000B0221601692BFE6424B06931B78002BED
:1034200000F0DF80454D2B68013B012B40F22882E4
:103430003B4B01933C4B09933C4B0593EEE5374ADC
:103440002B6812683D489A4200F02C81324C21785A
:10345000002940F0B7813D4A0B92002B40F02E81AD
:103460003B4A1368B3FA83F35B0913609FE7029B3F
:1034700020461968FEF78AFB2BE6364B029A19683C
:1034800012682046FEF73CFBE3E52B68032B7FF434
:10349000D9AD1F4B2D4A0B9200211A681A20FDF757
:1034A000F9F9D1E5099B204A1B78002B40F0AE804A
:1034B000059B1E4A1B78002B40F0A8807378264A93
:1034C000002B40F068829378002B40F04F839BF8EC
:1034D0000030002B00F0CF8320488BF8004000F034
:1034E0003DFF1F4B8BF800401C60FDF729F91B487E
:1034F00000F034FFADE500BF5CB5FF1FB0A9FF1FB2
:10350000F8A8FF1FA8B0FF1FDCC900001CA9FF1FFF
:103510006489FF1F44B0FF1F04AFFF1F64A9FF1F92
:10352000E4ACFF1F6CA9FF1F48A9FF1F8CA9FF1F58
:10353000ACB0FF1F54B0FF1F68B0FF1F34B0FF1FB7
:103540000C9CFF1F048CFF1F38B0FF1F76B0FF1FBD
:1035500068A9FF1FE48BFF1FD8A8FF1F54B3FF1FEC
:103560006CB0FF1FFCACFF1F099B1B78002B66D0C3
:10357000631E012B7FF66DADE71E072F00F2F5816C
:10358000029B72781F609E4B9B78002A40F001835B
:10359000002B3FF4ACAE9B4C9B4B04EB4724043C0C
:1035A00003F5007E03F12000224653F8041B42F885
:1035B000041F8342F9D19E4504F12004F2D1934BBC
:1035C00009EB871703F1400153F8042F47F8042B48
:1035D0009942F9D18E4B01225A7088E6FDF770FFAF
:1035E00004E58C4B09931B78002B40F0A6808A4B96
:1035F00005931B78894D002B00F0C5812B68013B9A
:10360000012B40F2FE81864B019307E51470019A6D
:10361000012313701DE5631E012B7FF61AADE71E13
:10362000072F40F29B810A2C7FF713AD07980260A9
:103630007C4A01231370019A0B70137009E5059BF6
:10364000DFF8D4811B78002B00F0A380029B764921
:103650001A68764B51F8220075491B6851F82410FE
:10366000079FDFF8A0E1386003EB430301EB83031E
:1036700000EB021149019BF80000CAF800404EF827
:103680000130002800F09F816A4A01231370019ADB
:103690001370DEE4684B694A0B9201221A70FEF740
:1036A00003FD84E6644A117800293FF4D4AE00217A
:1036B00062480B901170002B3FF4D2AE032B00F048
:1036C0000582013B012B3FF672AE069B1B781BB3B4
:1036D000049B1B7803B3099B1B78002B40F0698186
:1036E000574B1B68012B00F05B83002B7FF45FAE10
:1036F00054490B68544A013382FB0320DA17C2EBAA
:10370000600202EB82029A1A0A6050E6029B20468F
:103710001968FEF73BFAC4E4099B1B78002B40F0C4
:103720004881059B1B78002B40F0A982474A13680B
:10373000B3FA83F35B09136039E6384D2B68013B1C
:10374000012B00F20881424F3968002940F058826D
:10375000404BDFF824811A68029358F82230234442
:10376000002B40F3E982102BA8BF10233A4948F8F8
:10377000223041F82230284B0593384B0493DFF870
:10378000FC90374B0793264B01931A460123137085
:103790004CE4631E012B7FF65CACE71E072F00F2A2
:1037A0001F82737823B19BF80040002C00F0AD829B
:1037B000B378002B00F0D2802A4AD35D83F0010356
:1037C000D35546E42849294B026000260E601E703E
:1037D000FCF7B6FF264800F0C1FDB1B20022254833
:1037E000013601F0CBF81B2EF7D1144B0B93194681
:1037F0000122002323700A70FEF756FC2B682CE68A
:10380000D8A8FF1F048CFF1FBC89FF1F40ACFF1FFF
:1038100008AFFF1F48A9FF1F8CA9FF1F34B0FF1F6F
:10382000E4ACFF1F1CA9FF1F24ACFF1FA8B0FF1FA3
:10383000DCC9000040A9FF1F04AFFF1F76B0FF1FC7
:1038400084ACFF1F7889FF1F67666666D0A8FF1FDC
:10385000BC8BFF1FACB0FF1FB0B0FF1FF8A8FF1F4D
:1038600068B0FF1F90A9FF1F6CB0FF1FD4A8FF1FF7
:1038700054B3FF1FB8A8FF1F4489FF1FFCACFF1FF4
:103880009A4B09931B78002B7FF45DAF984B0593FF
:103890001B78002B40F0B580964B04931B7803B344
:1038A000954B1B68032B00F29882002AC0F202831A
:1038B000924B0293924B0793924B1B68002B40F064
:1038C0005782029B90491A68079BDFF89C921B68FD
:1038D00003EB02135B01CA58224482F30702CA5069
:1038E00051E78A4E3768204607F0ECFF394607F06B
:1038F00035FF8749044608F0D7F9002851D0844C99
:10390000844B394620461C6008F0C4F9002840F07A
:10391000E58020468049346008F028F801467F4859
:103920007F4CDFF8449208F0D5F808F00BFA7D4A96
:103930007D491060136803EB43035B000B60106864
:103940006E4B029307F0BAFF784908F00FF86C4B02
:103950002060079317E7764B01936DE5029A176095
:10396000019A01231370FFF774BB0A2C7FF771AB28
:10397000029B704A19680A3C42F82140019A0123CF
:103980001370FFF766BB2B68032B3FF63CAEDFE8F6
:1039900003F0334B4B206849684A01230B70D37006
:1039A000A5E46749204608F09DF90028A8D0644C9A
:1039B000A6E76449644B0A6801321340002BC0F249
:1039C0006A810B60F3E4614B20461968FEF798F8B2
:1039D0005AE6002AC0F2268223D05D4B474A029263
:1039E000DFF884911A687F211C20FCF753FF414BBC
:1039F0000493434B0793C6E6564B1B68012B00F01C
:103A0000F581554B55491A681444042CA8BF042469
:103A10006FF004008442B8BF0446A2420C6000D09C
:103A20001C60364B0293A8E64D4B1B68012BE8D077
:103A30004C4B1B68012B00F08181002BF1D1334EE0
:103A40003768204607F03EFF394607F087FE3049C9
:103A5000044608F029F9002840F0A08138492046A2
:103A600008F040F900B1364C2A4B394620461C601C
:103A700008F010F90028D4D120462749346007F017
:103A800075FF1E4B029301462448254CDFF8D89061
:103A900008F020F808F056F9224A2349106013680C
:103AA00003EB43035B000B60106807F007FF1F493F
:103AB00007F05CFF0F4B0493114B2060079362E605
:103AC000224B20461968FEF71BF810E4204B6421B6
:103AD0001A681A20FCF7DEFE2B68F2E5074B02930A
:103AE000074BDFF8849007934DE600BF48A9FF1FFE
:103AF0008CA9FF1FF8A8FF1FC08BFF1FACB0FF1FD2
:103B000068B0FF1F7889FF1F048CFF1F6889FF1FA3
:103B10000000204220AAFF1F0000C041C0E1644C09
:103B2000E0ACFF1FA4B0FF1FDCACFF1FA69BC43B93
:103B3000E4ACFF1F4489FF1F0A9CFF1F08AFFF1F53
:103B400000009643BC8BFF1F03000080E48BFF1F27
:103B50006489FF1F68A9FF1FA8B0FF1F4CB0FF1F9B
:103B600070B0FF1FD0A8FF1FFCACFF1F029B1A689C
:103B7000B04B53F8221000290CBF0121002143F85B
:103B80002210AD4B4FF001020CBF5A711A71FFF7B2
:103B9000AEBB002B50D1A948A94C00EB47201C30EC
:103BA00004F5007EA0F12003224653F8041F42F8DA
:103BB000041B8342F9D12034744503F12000F1D174
:103BC000A04B09EB871703F1400157F8042B43F88A
:103BD000042B9942F9D1984B01221A70FFF787BB49
:103BE0000A2C7FF736AA029B1B6802EB031259F8D6
:103BF0002230B3FA83F35B0949F82230FFF729BA80
:103C000001294DD0904BDFF88492029302290CD108
:103C1000029B8E4A196852F821302344002B60DD44
:103C2000102BA8BF102342F82130894B0593894BF4
:103C30000493894B0793A6E5884A804B52F827E006
:103C40007F0207F50071194401243B444FF0FF3215
:103C50006427C3F800E05F609C60DA601A615A6113
:103C60009A61DA61203399424FF00100F1D1724B31
:103C70009870FFF73CBBFEF70FF9FFF7EAB9029C1B
:103C80002068FDF711FF2268754B53F82230079A20
:103C90001360FFF78CBB013B63F00303013390E635
:103CA000704E002A3368ACBF01224FF0FF3213443C
:103CB00003F10F001E28336017D9634ADFF8D08163
:103CC000DFF8C8910292029A126858F82200C0F1F7
:103CD00001029A4207DC01388342A8BF03463360E1
:103CE00094E701239FE71346F9E7574BDFF8A081DC
:103CF0001868DFF8989158F82010029309EB8010AB
:103D0000FEF7E0F839683368DDE71A21564805F018
:103D1000D7F83946554805F0E3FA544805F090FACB
:103D20004F4A029B42F82740019A1F60012388F8FE
:103D300000301370FFF78DB9012317E5424B029352
:103D40001A463E4B126803EB42220023D15821440D
:103D5000D1502033B3F5007FF8D1454ADFF82C91DC
:103D60001368234413603B4B04933B4B07930AE5D2
:103D7000012B17D13F4B40491A681444042CA8BFAB
:103D800004246FF004008442B8BF0446A2420C60D1
:103D900000F08D801C60DFF8F490F4E4374C63E6AB
:103DA0003749A6E4032B40F09980029B234A186808
:103DB000079B19680001431802EB43139B682344D7
:103DC000002B40F38980102BA8BF1023014402EB85
:103DD0004112DFF8B8909360D5E4042B294B19D039
:103DE000194A02921C4A1B68079267E5164A02921A
:103DF0001146164A096852F821000444002C03DDDC
:103E0000102C2346A8BF102383423FF4B6AC42F8DF
:103E10002130B2E41B68042B3CD00B4A02920E4ABC
:103E200007924BE5184B084A0292DFF860901A6837
:103E30000021D9E520A9FF1F08AFFF1F048CFF1F39
:103E4000BC89FF1F44ACFF1FACB0FF1FC48BFF1F1A
:103E50008CA9FF1FF8A8FF1F68B0FF1F0C9CFF1F55
:103E600024ACFF1F90ACFF1FBCCA00000C9EFF1FBC
:103E700018A9FF1FA8B0FF1F4CB0FF1F0000204271
:103E8000C08BFF1F7889FF1F6489FF1FFCACFF1FD9
:103E90004489FF1F6C4A6D4B02931368DFF8E09171
:103EA000234483F301031360694B07936BE4DFF84A
:103EB000D09168E46649654A029208460791116804
:103EC0000268644802EB0112033303EBC2034FF0B4
:103ED000FF3240F82320EFE4012377E7022BE6D1FD
:103EE000029BDFF89C911968079B1A68594B02EBFB
:103EF000011203EB42125368234483F30703536018
:103F000041E40F920E920A921792FFF745B9524B75
:103F10001B78002B27D1514951480B681E93514AF9
:103F20001E9B006812681B1A9A4252D20B681F939C
:103F30001F9B14321B1A9A424BD9019A012313700A
:103F4000069B494C1B78002B53D03F4B1B68002B22
:103F500066D0012B69D0099B1B78002B44D1059BAF
:103F60001B78002B57D1019B1B78F3B90B9B3F4C5F
:103F70001B782BB33E4800F01FFC00232370FCF796
:103F8000EFFBE8B9FDF70CF90028FBD121B0BDE843
:103F9000F08F029A374C00231360FDF779FB019BE9
:103FA0001B7843B12C4B1B78C3B1334802F044FB60
:103FB000019A002313700B9B2C4C1B78002BD9D13A
:103FC000FCF7CEFB0028FBD1FDF7EAF80028D9D199
:103FD000DCE7019B1B78002BEDD0B1E7FEF7F6FA8A
:103FE0002378002BC2D0E0E7FEF71EFEFEF712F8A2
:103FF000B5E7099B214D1B78002BF5D1059B1B785C
:10400000002BACD1FEF7ECFBFEF704F82378002B75
:104010009BD12B78A1E7FEF787FCFDF7FBFFA2E71A
:10402000FEF71CFD099B1B7897E7049B1B78002B70
:1040300091D0FEF7BDFE8EE7099B1A469DF85C30D5
:104040001370FFF7BAB800BF84ACFF1FACB0FF1FFE
:1040500068B0FF1F048CFF1F04AFFF1F5CB5FF1F7C
:10406000F4A8FF1F6C89FF1F6CA9FF1F76B0FF1F0C
:10407000B8A8FF1FE4ACFF1F40A7FF1F48A9FF1F00
:10408000FCACFF1F70B5184D82B0284602F0C8F98D
:10409000B5F90C1001291FDD0022012694B263003E
:1040A000688901969BB2C91A09B2C31A1BB2009162
:1040B0000D48114601F098FA0B4802F0BDFA0120B4
:1040C00003F03CFCB5F90C10023401EBD17322B2C1
:1040D00043F34F039342E1DC4FF4FA7002B0BDE8C2
:1040E000704003F02BBC00BF40A7FF1F2DE9F04735
:1040F000644A654B1268654CDFF8E881644FDFF86D
:10410000E8A182B04FF084490192019A1A6003F04D
:10411000F3FB604B186003F0EFFB5F4A5F4B1060EE
:104120005F49186807F022FC01465E4807F0D2FCA0
:1041300007F008FE5C4A5D491060136803EB430317
:104140005B000B60106807F0B9FB594907F00EFCE3
:10415000206003F0D1FB574B186003F0CDFB564BAA
:1041600018600D2002F0F0FF00242646382005F0EC
:10417000C7F8524B01220021054600F0E1FC4AF845
:10418000246001344FF40053052C48F8045BC5F853
:10419000109047F8046B6B60E8D1FCF76BFA0121D3
:1041A000172003F0A3FB464E464F474C474D0C23C8
:1041B0001846337003F076FB307806F083FF024632
:1041C0000B4600204FF0804105F07EFD07F0A0FA7D
:1041D0003F4B38804022002128201A6003F064FA07
:1041E000FCF768F92846A56002F01AF9FFF74AFFC4
:1041F000C82003F0A3FB284602F012F904F10800DE
:10420000012100F0DBFF002104F1080000F0D8FFDD
:10421000FDF7D8FF2F4800F0C1F92F4800F078FAD9
:104220002D4800F0C9FA32212B4800F04BFC002445
:10423000A1B22A4A284800F0A1FB274800F0BCFAA6
:104240000134052003F07AFB1B2CF1D10520FDF78A
:104250008FFF4FF4FA7003F071FB002223461146E2
:104260001D4800F091FB1C4800F0A6FA642003F002
:1042700065FB164802F0E0F9194B01221A7002B0F2
:10428000BDE8F0875CB5FF1FF4A8FF1FE0ACFF1F7F
:104290008CB0FF1F48B0FF1F44A9FF1F6889FF1F94
:1042A0000000C041C0E1644CA4B0FF1FDCACFF1FA4
:1042B000A69BC43BA0B0FF1F30B0FF1F6F12833A14
:1042C0001CAAFF1F74B0FF1F94ACFF1F40A7FF1F65
:1042D00088A9FF1F10AFFF1FB8A8FF1F80808000B4
:1042E000E4ACFF1F74A9FF1F78B0FF1F70B4002457
:1042F00001E0202C0DD025010134465D002EF8D1BF
:1043000046190124445520467160F360B26070BCC8
:104310007047002070BC7047F8B50E4600F10C04E1
:1043200000F50375002702E01034AC4214D014F8F5
:104330000C3C002BF8D02368B342F5D814E90500F3
:104340000021FCF77FFA0021172003F0BBFA10349C
:1043500004F81C7CAC42EAD1F8BD00BF4FF0FF313D
:10436000FFF7DABF70B400252C4602E00134202CA0
:1043700011D0465D1435002EF8D104EB8404A4005E
:104380000619012505557160039931612846B3600E
:10439000F26070BC7047002070BC70472DE9F0419E
:1043A0000E4600F1100400F52475002702E01434D5
:1043B000AC4218D014F8103C002BF8D02368B3425C
:1043C000F5D854F80C0C54F8082C54F8041CFCF7DD
:1043D00011FA54F80C0C1838352806D904F8107C5A
:1043E0001434AC42E6D1BDE8F08107F06BFA09491C
:1043F00007F0BCFA05F044FC01218046172003F0C9
:1044000061FA404607F078FC0146282003F04CF999
:10441000E4E700BF90759242002308491A46CA5447
:104420001033B3F5007FFAD1002305491A46CA5468
:104430001433B3F5207FFAD1704700BF54B3FF1F88
:10444000D4B0FF1FF8B504460E46154600214FF4C0
:10445000807210301F4607F0E3FF069BC4F8183146
:104460000022079BC4F8102126606560A760C4F88D
:104470001C31E260C4F814212046F8BD10B5044692
:10448000C06808B107F00CFD204610BD2DE9F843C7
:10449000D0F81C31002B7EDD04460025A3680121E5
:1044A000585D03F00FFAD4F81C310135AB42F5DC4E
:1044B000002B6EDD0026B0460127A3680021985D21
:1044C00003F000FA4FF44873013BFDD1D4F81831E2
:1044D000002BC8BF4FF000092EDC4EE0990724D511
:1044E000D4F81011D4F814010131C9B203F0FD035E
:1044F000814243F0080306D0D4F81001204480F82C
:104500001080C4F81011D4F81001D4F8141101303F
:10451000C0B2884209D0D4F8101104EB010E216812
:10452000495D8EF81010C4F810015355D4F81831B5
:1045300009F101094B4520DD6368D4F81C5113F8DB
:10454000090003F0C5F905FB0965E268535DDBB2BC
:104550000028C3D19807E8D4D4F81011D4F8140176
:104560000131C9B2814243F00603CCD0D4F8100126
:1045700020440774C4F81011C5E7A3680121985DB1
:1045800003F0A0F9D4F81C310136B34295DCBDE844
:10459000F883BDE8F883BDE8F88300BF70B5D0F8B4
:1045A0001851D0F81C610446012106FB05F007F004
:1045B000E9FB002EE060C8BF002510DDA3680121E3
:1045C000585D03F093F9A3680121585D03F07AF96F
:1045D000D4F81C310135AB42F0DCD4F81851002D71
:1045E000C8BF00250ADD63680221585D03F07EF92B
:1045F000D4F818310135AB42F5DC70BD70BD00BF99
:10460000D0F81031D0F814011B1A4CBF03F580709C
:1046100018464010704700BFD0F81421D0F8103170
:104620009A4220D0D0F81421D0F81431024401333A
:10463000DBB2117CC0F81431D0F81421D0F810315D
:104640009A4218D0D0F81421D0F814310244013322
:10465000127CDBB2C0F814314FF0000062F30700A7
:1046600061F30F207047D0F81421D0F810319A422E
:104670004FF0FF01E6D1FF224FF0000062F3070088
:1046800061F30F20704700BF037AF0B5160C150ACE
:10469000F6B2EDB25FFA82FE5BB103FB06F603FBF6
:1046A00005F503FB0EFEC6F30726C5F30725CEF37B
:1046B000072EC77C047CBC4214D0C46804EB810183
:1046C000120E0F444BB9D3B23B70077CCE55437CDE
:1046D000CD54837C01F803E0F0BD03FB02F3C3F388
:1046E0000723F1E7C36801EB41011944EEE700BF7E
:1046F00010B50446C06807F0D3FBB4F906000028E3
:1047000003DBC0B2002103F0F1F8204610BD00BF6A
:1047100010B50446B0F90600002807DBC0B201213D
:1047200003F0E4F80021A07903F0CCF801236370D2
:1047300010BD00BF38B50446C0680D4607F0B0FB99
:10474000E37C207C83420CBF0320042010FB05F097
:1047500080B2A080012107F015FBE06008B1658000
:1047600038BDA080608038BDF0B4077CC47CC568CB
:10477000C1F38106FF29A4EB0704C1F3811201F004
:1047800003074674B4FA84F48CBF00260126C1F3F3
:104790000111C27464098774067001744DB1511A15
:1047A000B1FA81F14909A14203D04188F0BCFFF779
:1047B000C1BFF0BC704700BF2DE9F843C368002BB0
:1047C00057D04569044603F097F8854202D903F0B3
:1047D00093F8606103F090F86569401BB0F5967F2F
:1047E000F1D372B64649B4F906500B684548464ABB
:1047F00050F83500E668A788257843F080730B6091
:10480000136843F0010337441360A5B3A1F55D417C
:10481000F8390A68BE4202F196021FD289464FF06B
:10482000010C16F8018B4FF0080E80250B689B1ABF
:10483000952BFBD918EA050FD9F8002080F880C025
:1048400055D00B689B1A5F2BFBD9BEF1010E80F887
:1048500000C14FEA5505E9D1B742E2D12B490B68B7
:104860009B1A952BFBD962B603F046F86061BDE850
:10487000F883BDE8F88325490A68BE4202F59672BE
:1048800020D289464FF0010C16F8018B4FF0080E2C
:1048900080250B689B1AB3F5967FFAD318EA050FAB
:1048A000D9F8002080F880C018D00B689B1A8F2B95
:1048B000FBD9BEF1010E80F800C14FEA5505E8D1E1
:1048C000B742E1D111490B689B1AB3F5967FFAD331
:1048D00062B603F011F86061BDE8F8830B689B1ABB
:1048E0003B2BE6D80B689B1A3B2BF7D9E1E70B680B
:1048F0009B1A1D2BA9D80B689B1A1D2BF7D9A4E76F
:10490000FCED00E0C4190100001000E0041000E01C
:1049100038B543786BB10446B0F9060000280D465F
:1049200009DBC0B2002102F0E1FF6378E5801BB92A
:1049300038BDC18038BDE180EDB22846012102F0CA
:10494000D5FF28460021BDE8384002F0BBBF00BFBC
:1049500070B5002504460E46457019460572C560BF
:1049600045611546FFF700FF31462046FFF7E2FE9E
:1049700020462946FFF7CCFF204670BD43888B4276
:1049800001D9FFF781BE7047F8B514464288A242AC
:1049900015D906460F469BB91546134604E0013467
:1049A000A4B2AC420BD27388A342F8D92146013499
:1049B0003A463046A4B2FFF767FEAC42F3D3F8BDE7
:1049C000E518ADB2954228BF1546AC42E5D3F8BD17
:1049D00040F2FA5303FB00F000F500400014B0F57C
:1049E000FF7F10B422DAFE2844DDC0F1FE034C1C28
:1049F000DBB204FB03F3C4EB04241B1224120020DB
:104A0000C943C9B201320C440B44084402FB04F40C
:104A100002FB03F304F47F441B0202FB00F244EAAE
:104A2000122003F47F03184310BC7047B0F57F7F5A
:104A300084B20DDAB4F53F7F26D8831C4C1CDBB260
:104A400004FB03F3C4EB0424181224120023D7E759
:104A50009C4225D040F2FA439C4228D9C0F1FA008A
:104A60004B1CC0B203FB00F0C3EB032300121B126C
:104A70000024C5E74B1CC0B203FB00F0C3EB0323CB
:104A800004121B120020BBE7C0F1FC004B1CC0B29B
:104A900003FB00F0C3EB0323041218120023AFE75B
:104AA0004B1CC3EB032300201B120446A8E7031D85
:104AB000DBB2481C00FB03F3C0EB00201B1200120A
:104AC00000249DE770B44E1C047AF6B2A64213D0BF
:104AD000013C14F0FF04C56810D183882A4653B105
:104AE000137804FB03F31B1202F8013B531B81886C
:104AF0009BB29942F4D8067270BC7047FF2905D06A
:104B00003302013B93FBF4F4A4B2E6E74FF6FF73E4
:104B100093FBF4F4E1E700BF10B483B002AB074CA1
:104B200043F8040D02A91A78A25C03F8012B8B420A
:104B3000F9D1019803B010BC704700BF90CB0000C2
:104B40002DE9F04704460F464FF4806100264FF0F0
:104B5000814061605FFA87F801214FF00009206110
:104B6000217540463146C4F8209084F8246092466E
:104B70001D4602F0BBFE3146404602F0A3FE276010
:104B800084F80CA028464FF07E5107F0ABF828B10E
:104B90004FF07E55A5602046BDE8F087494628467F
:104BA00007F082F80028F5D04D46A5602046BDE804
:104BB000F08700BF037B2DE9F04704460D46002B2C
:104BC00041D0037D0846002B40F0988006F07AFE25
:104BD000D4F810800646A7693046394606F0BCFD79
:104BE0000021054607F07EF8002800F0C88028461E
:104BF00007F0A8F8266A81463146284606F0ACFD43
:104C0000604906F0B3FE314606F0A8FD002120629F
:104C1000064607F067F8002800F0AE8041463046AF
:104C20004FF0010A07F040F808B94FF0000A84F885
:104C300024A04146304607F037F810B3384607F055
:104C40005BF8BDE8F087A769084606F03BFE3946E9
:104C500006F082FD0021054607F044F8002871D1D6
:104C600005F1004007F06EF8266A81463146284675
:104C700006F072FD434906F079FE314606F06EFDFE
:104C80002062484606F01AFEA16806F06FFE4FF05B
:104C90007E5106F063FD01464FF07E5006F01AFF8C
:104CA00001464FF07E5006F057FD014606F056FDD6
:104CB0004FF07E51064607F015F800284AD04FF015
:104CC0007E50294606F052FE394606F047FD002682
:104CD0003146A061054606F0E7FF00283CD1606838
:104CE000013806F0EFFD06460146284606F0FAFFB9
:104CF00050BB284607F000F8BDE8F08706F0E2FD5B
:104D0000D4F810804146064606F0CEFF40BB6768E7
:104D1000384606F0D7FD414606F01EFD01463046F6
:104D200006F0E0FF00283FF456AFC7EB450006F061
:104D3000C9FD414606F012FD06F0DEFF06F0C2FD99
:104D4000064648E728468DE7A661304606F0D4FFC0
:104D5000BDE8F0873046B4E7A6610020BDE8F087E3
:104D6000680006F0AFFD414606F0F6FC06F0C4FF11
:104D700006F0A8FD06462EE706F100464EE705F1CF
:104D8000004035E7CDCCCC3EC36A10B50446036382
:104D9000FFF710FF236BE0621B1A18BF012384F892
:104DA000343010BD4318405C5B7803EB002080B2C8
:104DB000704700BF012B0BD007D3022B02D1801A02
:104DC00000B27047401A00B27047104400B27047FA
:104DD000084400B2704700BF012B0BD007D3022B51
:104DE00002D1401A00B27047104400B27047084424
:104DF00000B27047801A00B2704700BFF0B40D785F
:104E00000668AB183478DBB2072B44FA05F40AD9EC
:104E1000771C0760C5F108057078EDB200FA05F55A
:104E2000083B2C43DBB201209040E4B20138204023
:104E30000B70F0BC704700BF10B50A460C4600F17D
:104E40001001FFF7DBFF013C0123E4B203FA04F495
:104E5000001B40B210BD00BF70B505460023816045
:104E600005F8183F00F10806044690F8202029466E
:104E70003046FFF7C3FF2946A07594F8212030463D
:104E8000FFF7BCFFE07570BD10B50B7803704B7871
:104E900043708B788370CB78C3700B7903714B7937
:104EA00043718B798371CB79C3710B7A03724B7A1F
:104EB00043728B7A8372CB7AC3720B7B03734B7B07
:104EC00043738B7B8373CB7BC3730B7C037402466E
:104ED0000C4608461121FFF765FF1321508220463A
:104EE000FFF760FF152190822046FFF75BFFD0821D
:104EF00010BD00BF70B49DF80C40BDF81050032CDD
:104F000026D8DFE804F01E170C0200680468039539
:104F1000A46BD21A0132A44612B270BC604700687A
:104F200006680395C3F101042144F46B09B2A44659
:104F300070BC6047006804680395A46BA44670BC0D
:104F40006047006804680395E46BA44670BC604742
:104F500070BC70472DE9F04F87B005460F4690F8BA
:104F6000148090F815A005920DE06B7E002B47D0C1
:104F7000A7420AF10103A7EB04043AD3E7B25FFAB0
:104F800083FA4FF0000895F81A90B5F90E30AC7D11
:104F900003934FFA88F64FFA8AFB31464B465A463E
:104FA000B5F90C00FFF718FFC8EB0404E4B2A74200
:104FB000049031464B463E465A4628BF2646039843
:104FC000FFF7F8FE002ED3D0059B002BCDD0B5F80F
:104FD00010E0CDF80090334602460499CDF804E085
:104FE0002846FFF787FFA7420AF10103A7EB040455
:104FF000C4D247442F7585F815B007B0BDE8F08FCF
:10500000B5F812E0E5E700BF2DE9F047044600F1EE
:105010000805FFF721FF94F8221094F9179028460D
:10502000FFF70AFF94F8231007462846FFF704FF0E
:1050300094F8241006462846FFF7FEFE94F9163031
:10504000002B82463ADD4E4494F81A80B4F90C00E5
:10505000764276B2324643463946FFF7BDFE3246C7
:10506000A0814346B4F90E003946FFF7A3FE0023A2
:10507000E0812375637504F11806A27F3146284646
:10508000FFF7BCFEE27F804631462846FFF7B6FEBA
:105090000746002241462046FFF75CFF01223946C1
:1050A0002046FFF757FF012231462846FFF7A6FEAC
:1050B0000028EED194F915304B45DEDB5046BDE8B3
:1050C000F08700BF38B54368FF2903F1170310D8F4
:1050D000602932D8402984BFC28D9B18587818B9EE
:1050E0002AE00344587868B31A788A42F9D1981CA8
:1050F00038BD428E1A440D46144610460021FFF773
:1051000051FE022104441046FFF74CFE854202F195
:105110000402F2D82078627852EA00200CD085424E
:1051200002D10DE09D420BD0A3781C442078637817
:1051300053EA0023F6D1184638BD028E1344CDE75A
:10514000E01C38BD38BD00BF38B50446FFF7BAFFD4
:10515000C0B104F1080501462046FFF77DFE94F832
:1051600022102846FFF768FE94F8231084F83400D4
:105170002846FFF761FE284694F82410BDE8384021
:10518000FFF75ABE38BD00BF4176704710B5818128
:10519000C28119460446FFF795FF20B1014620461B
:1051A000FFF732FF00B210BD42688A4205D00022EC
:1051B000416042761C30FFF767BE7047018270473E
:1051C0004182704719B94FF6FF710846704790F851
:1051D000463063B9FB291ED9052301F0010180F88F
:1051E0004630A0F844104FF6FE7108467047B0F8FC
:1051F000442001F03F0141EA8211013BDBB289B258
:105200004FF6FE72A0F84410002B18BF114680F82C
:10521000463008467047F72905D9042301F00301F9
:1052200080F84630DDE7EF2905D9032301F00701B7
:1052300080F84630D5E7DF2905D9022301F00F01B8
:1052400080F84630CDE7BF2905D9012301F01F01C1
:1052500080F84630C5E789B2B7E700BF00232DE9E3
:10526000F04706461C464D1E837780F846309A4626
:1052700000F108084FF6FF774FF6FE7915F8011F89
:105280003046FFF79FFF0346BB420146404608D029
:105290004B45F3D0FFF758FF044424B20FFA80FACD
:1052A000ECE796F91E3033B196F93C0003441C44F8
:1052B000CAEB040004B22046BDE8F0872DE9F04FA8
:1052C00085B09946BDF93870BDF83CA0BB1AC1EB5A
:1052D000090B002BB8BF5B42BBF1000FB8BFCBF18D
:1052E000000B5B450D4616460093804648DC4D4555
:1052F0003A4633464CDC194613460A46C5EB0901CB
:105300009B1A89B2002B0CB2B8BF5B4204EBD47479
:10531000BE42ACBF4FF0FF3201224D4503910292D5
:105320004FEA640429DC9BB201930DE0D8F80070C9
:10533000BF69B847019BE41AA3B21CB20135002C27
:105340002DB211DBA94518DB009B5B452A4653466D
:1053500031464046EADCD8F8002053469769294692
:1053600032464046B847E5E7029A1644039AA945F3
:1053700002EB030436B224B2E6DA05B0BDE8F08FE2
:105380004A462B46B94635464D4517461E46B2DDC0
:10539000304629463E464D4607468946AEE700BFA1
:1053A00010B404682469A44610BC604730B4046893
:1053B000BDF808500295A46BA44630BC604700BFFE
:1053C00030B40468BDF808500295E46BA44630BCC4
:1053D000604700BF70B40468BDF90C60BDF81050A0
:1053E00003960495246CA44670BC6047704700BFC8
:1053F00010B582B0B0F90C20019101680092002232
:105400000C6CB0F90A301146A04702B010BD00BFC5
:10541000704700BF01F003010129017606D003297E
:1054200004D0C28803894281838170470289C3887E
:1054300042818381704700BF2DE9F0410568134E1A
:105440006F6986B0B7420446BDF8308010D1013B89
:1054500013441BB20093CDF804800B46AD6A20467E
:10546000A8472368DB6AB3420AD106B0BDE8F081E1
:10547000059304920391B84703A925680EC9E6E78E
:10548000204606B0BDE8F041184700BFED530000CC
:105490002DE9F0410568124E6F6986B0B7420446A7
:1054A000BDF830800FD1013BCDF804800B44009251
:1054B0001BB2AD6A2046A8472368DB6AB3420AD113
:1054C00006B0BDE8F081059304920391B84703A9A3
:1054D00025680EC9E7E7204606B0BDE8F041184749
:1054E000ED5300002DE9F04F0568DFF858B06F6903
:1054F00085B05F450646BDF93890BDF83CA00C4626
:10550000904615D11F19BC420CDACDF800A02146F7
:1055100001342D6A4B464246304624B2A847BC426D
:105520003568F2DBEB6A5B4507D105B0BDE8F08F6B
:105530000393B8473568039BE4E7304605B0BDE800
:10554000F04F1847ED5300002DE9F04387B0994222
:105550000546BDF93840BDF83C6025D0A24212D0C6
:105560000768DFF88080D7F81490C14532D18DE804
:1055700050002846BC6AA0472B68DB6A434524D10B
:1055800007B0BDE8F083994202DD0846194603469C
:1055900028680E96C46B01335B1A1BB22846A446DA
:1055A00007B0BDE8F0436047A24202DD1346224641
:1055B0001C4628680E96631C846B9B1A1BB22846F7
:1055C000A44607B0BDE8F0436047284607B0BDE8F1
:1055D000F0431847059304920391C84703A92F6825
:1055E0000EC9C4E7ED5300002DE9F04FD0F800E0FC
:1055F000DFF89090DEF814B083B0CB450446BDF9D7
:105600003080BDF834A00D4617461E4631D1CDF886
:1056100000A0DEF824B0294633463A462046D84753
:105620002368CDF800A008F1FF323A44D3F824B043
:10563000294612B233462046D8472368CDF800A049
:105640002946D3F820B03A4643462046D84720683A
:10565000CDF800A0711E29444346056A09B23A46B6
:105660002046A8472368DB6A4B4506D103B0BDE856
:10567000F08FD847D4F800E0C9E7204603B0BDE872
:10568000F04F1847ED530000F0B4002401254FF609
:10569000FF76094F076004710476C4810482847622
:1056A000C461C5758575457686824682C180028152
:1056B00041818281F0BC7047B00E01002DE9F04FAE
:1056C00087B01746BDF9404000912546E91D059376
:1056D00044BF2B4603F10E010268BDF848605369D0
:1056E0000294C91003912B49BDF9444001968B42A5
:1056F000824645D1002C3CDD029B3C445E1EB6B286
:105700004FF0000923B2049301364D46029B002B53
:1057100028DD059B002403EB090806E0EDB22B060B
:1057200004F1010411D4A6421CD0A1B211F0070F5C
:1057300023B24FEA4505F1D1002BB8BF0733DB1088
:10574000013418F803502B06EDD5009BD2F818B0A1
:1057500019443A4609B2019B5046D847A642DAF8A6
:105760000020E2D1039B01379944049B3FB2BB4226
:10577000CCD1D36A074A934206D107B0BDE8F08F77
:105780009847DAF80020B5E7504607B0BDE8F04F7B
:10579000184700BFED53000070B4BDF90C60BDF9AF
:1057A0001050BDF8144003960495059470BCFFF7A3
:1057B00085BF00BF2DE9F04F91B083460591C169C7
:1057C000BDF8680006909DF87400BDF86C709DF8F7
:1057D00070A0039002929946002900F0CC800B7AC9
:1057E00048680A68C3EB0903DBB2154600EBC30245
:1057F00030F83360D3780993BAF1010F92F905308C
:1058000092F802800E9392F9064079D9BDF93830AA
:10581000089323B20B93A94BDBF800200F93194692
:1058200053698B4240F0A280099B002B53D0BDF8F6
:1058300008300C930021234407910D930F460C462A
:10584000A946B8F1000F3FD0BDF81C100B9BBDF866
:105850000C000297CB1813FB00F30C9803440D982F
:105860001BB2014404930BB20A93002505E00135F5
:10587000EBB264009845E4B223D9029B2B4459074C
:1058800003D1731C19F806409EB22306EFD5089B7E
:10589000E918059B11FB0AF1BAF1010F194402D175
:1058A000039B012B1ED0069B0193039B0093D3699E
:1058B000049A1F4609B253465846B847DBF8002001
:1058C000D5E7029F4744FFB2079B0999013307932D
:1058D000DBB29942B5D8D36A0F9A934241D111B045
:1058E000BDE8F08F0E9B0599591893690A9A2944CF
:1058F0001F4609B2069B5846B847DBF80020B6E7BA
:10590000039B012B82D800230B93089383E707990D
:10591000099A0131013A49B212F0FF020791099246
:1059200060D1069A4A454F4617D0BAF1010F03D10C
:10593000039A012A00F0B5800A9A089802EB8201C6
:10594000039AD2008DE88400084401B2DC69029A0F
:1059500053465846A047DBF80030DB6A0F9A934263
:10596000BDD0584611B0BDE8F04F1847584698478B
:10597000DBF8002058E7BBF90A3005998B42AEDD11
:10598000BBF90C3002988342A9DD062313FB0A13EE
:10599000002BA4DD039B00EBC303002B9FDD9BF8D2
:1059A0001A3033B9B9F1AF0F84BF09F101035FFABF
:1059B00083F9424ADBF800300F9211465A698A4255
:1059C0006AD1BDF81420089205220992002207929C
:1059D0001FFA8AF20A92CDF830900FFA8AF2B9468D
:1059E000039F05920799BDF83040089D0522104697
:1059F00010FB04120A98324C0646084601FB065179
:105A0000A65C15FA80F209B212B204910B92082436
:105A100000251CE0BAF1010F01D1012F24D0069A14
:105A20000192029A009705FB0722D3F81C80049983
:105A3000059B12B25846C047DBF80030013C0135E7
:105A400014F0FF046DB24FEA56063FF460AFF00762
:105A5000E0D4069A4A45F1D0BAF1010F01D1012FE5
:105A60000ED0CDF80490DCE7029AD3F818800B9999
:105A7000069BAA1812B25846C047DBF80030DDE793
:105A8000029AD3F818800B99AA184B4612B25846BE
:105A9000C047DBF80030D1E758469047DBF80030CC
:105AA0008FE70899CDF8009005311C6A029A082307
:105AB00009B25846A047DBF800304EE7ED5300002E
:105AC000000F0100F0B5C36985B004463BB30A2955
:105AD0006FD00D294FD01A7A91424CD3987A8842D0
