:1000000000800020BD0100007D7A0000357A0000EC
:10001000357A0000357A0000357A0000357A000024
:10002000357A0000357A0000357A00007D7A0000CC
:100030007D7A0000357A0000BD960000C196000070
:100040007D7A00007D7A00007D7A00007D7A0000D4
:100050007D7A00007D7A00007D7A00007D7A0000C4
:100060007D7A00007D7A00007D7A00007D7A0000B4
:100070007D7A00007D7A00007D7A00007D7A0000A4
:100080007D7A00007D7A00007D7A00007D7A000094
:100090007D7A00007D7A00007D7A00007D7A000084
:1000A000217300002D7300007D7A00007D7A00002E
:1000B0007D7A00007D7A00007D7A00007D7A000064
:1000C0007D7A00007D7A00007D7A00007D7A000054
:1000D0007D7A00007D7A00007D7A00007D7A000044
:1000E0007D7A00007D7A00007D7A00007D7A000034
:1000F0007D7A0000F19F00007D7A00007D7A00008B
:100100007D7A00007D7A00007D7A00007D7A000013
:100110007D7A00007D7A00007D7A00007D7A000003
:100120007D7A00007D7A00007D7A00007D7A0000F3
:100130007D7A00007D7A00007D7A00007D7A0000E3
:100140007D7A00007D7A00007D7A00007D7A0000D3
:100150007D7A00007D7A00007D7A00007D7A0000C3
:100160007D7A0000498300007D7A00007D7A0000DE
:100170007D7A00007D7A00007D7A00007D7A0000A3
:100180007D7A00007D7A00007D7A00007D7A000093
:100190007D7A00007D7A00007D7A00007D7A000083
:1001A0007D7A00007D7A00007D7A00007D7A000073
:1001B0007D7A00007D7A00007D7A0000564B4CF27B
:1001C000205210B51A804DF628121A8000BF00BFC9
:1001D00007F058FC514B4FF010621A60504A9A6079
:1001E000504ADA60504A136813F4807304D14F49BF
:1001F0000B604FF4A85313604D4B1A78110703D5C9
:100200001A7842F008021A704A4B4B492A221A7097
:100210004A4A4B4B8B4204D252F8040F43F8040B6A
:10022000F8E7484B484900228B4202D243F8042B9E
:10023000FAE74649464A002352F8230041F82300D2
:1002400001336F2BF8D1434B434A802103F8011B44
:100250009342FBD1414B3D4A1A60414B8A221A70AE
:10026000A3F5805324225A70A0221A709A7992071B
:10027000FCD59A79D406FCD43A4A937903F00C035E
:10028000082B384BF9D103221A7146225A719A79F8
:100290009006FCD5334A9179324B4906FBD5324A58
:1002A0004FF0827111600921516020221A709A79F1
:1002B00002F00C020C2AFAD12C4B2D4A1A602D4B5D
:1002C0002D4A1A6000225A60072243F8042C2B4A58
:1002D000C3F80C2D62B607F0DDFE144B1B68DA077D
:1002E00005D5274807F02CFD264B274A1A60274BD7
:1002F0001B785B0609D5234C234B22689A4204D114
:100300001F4807F01DFD002323600CF017F807F0CD
:10031000BFFB09F083FAFEE70E2005403080044061
:10032000823F04000100002B10D0034014D0034092
:1003300002D0074000E00740949AFF1F002201000E
:10034000308CFF1F949AFF1FECADFF1F0082FF1F30
:100350000000000000E400E05FE400E008ED00E0E1
:1003600000500640004006404480044004800440A1
:10037000C010050014E000E0BFD401000000202000
:100380002AA8B3601CE00340A5C3945A00F00740BC
:10039000FFFFFFFFFFFFFFFFFFFFFFFFFFFFFFFF6D
:1003A000FFFFFFFFFFFFFFFFFFFFFFFFFFFFFFFF5D
:1003B000FFFFFFFFFFFFFFFFFFFFFFFFFFFFFFFF4D
:1003C000FFFFFFFFFFFFFFFFFFFFFFFFFFFFFFFF3D
:1003D000FFFFFFFFFFFFFFFFFFFFFFFFFFFFFFFF2D
:1003E000FFFFFFFFFFFFFFFFFFFFFFFFFFFFFFFF1D
:1003F000FFFFFFFFFFFFFFFFFFFFFFFFFFFFFFFF0D
:10040000FFFFFFFFFFFFFFFFFFFFFFFFDEF9FFFF23
:1004100010B5054C237833B9044B13B10448AFF33E
:1004200000800123237010BD949AFF1F000000007C
:10043000FC210100084B10B51BB108490848AFF377
:1004400000800848036803B910BD074B002BFBD0A0
:10045000BDE81040184700BF00000000989AFF1F39
:10046000FC210100949AFF1F0000000010B584B029
:100470000A4C0B4B02930B4A01924FF0FF3300934F
:100480002046094B2022802105F016FF074A084923
:10049000204604B0BDE810400AF064BFB09AFF1FC8
:1004A000801A060040420F009C8FFF1F0C8DFF1F1B
:1004B0001163000030B5094C83B00125204600953A
:1004C0002B463C22022106F079F820460221A5762F
:1004D00003B0BDE8304005F041BA00BFB09AFF1F3D
:1004E00070B5CEB2044680E80600D5B2304602218F
:1004F00007F05AFD0221284607F056FD304607F066
:1005000045FDA060284607F041FD0023E06023611F
:100510006361204670BD00BF30B5044683B00078EB
:1005200007F034FD0546207907F030FDA3689D42B1
:10053000E36824D0984231D0A560E060ADB1A0B1AD
:100540002369012B37DD0023236101221E4B6169E2
:100550001B680193019B63615B1A132B32D9312B0A
:100560008CBF002301231BB201E00022134692B28C
:10057000002062F30F0063F31F4003B030BD9842C8
:10058000F3D02369A56085420CBF01224FF0FF32F2
:1005900013442361E060002DE7D0D0E72369A56014
:1005A000854214BF01224FF0FF3213442361E06003
:1005B000002DDAD0C3E7002201332261D5DA4FF0F3
:1005C000FF32C3E70223D2E740AAFF1F10B504465B
:1005D0000160C8B2022107F0E7FC00234FF0FF31B1
:1005E000032261602273A3602361204610BD00BF17
:1005F00010B5044682B0007807F0C8FC63689842E2
:100600001A4B08D01B680093009B60603233A360D4
:10061000002002B010BD1B680193A268019B9A42A2
:1006200009D8217B4A1E032A05D8DFE802F00F0211
:100630000707012818D0002002B010BD0028FAD109
:1006400003F2E243012023612073E2E730B1012885
:10065000F1D1032088422073DBD1ECE722699A4272
:10066000E9D202202073D4E70420F3E740AAFF1F59
:10067000704700BF10B5184C636D1868036882B0EE
:10068000DB6947F612219847144B1B680193012040
:10069000019BC4F8003100FA00F200234FF6FF710D
:1006A000024384F8580084F8702084F85A3084F8A3
:1006B00059306366236684F8F83084F8753084F81E
:1006C000743084F8763084F87730C4F8FC30A16652
:1006D000E16602B010BD00BF189BFF1F40AAFF1FBC
:1006E00010B54FF60F0008F0DBFB044B5B6D18688C
:1006F0000368F8211B68BDE810401847189BFF1FCE
:1007000010B54FF60F2008F0CBFB044B5B6D18685B
:100710000368FA211B68BDE810401847189BFF1FAB
:1007200010B54FF60F3008F0BBFB044B5B6D18683B
:100730000368FB211B68BDE810401847189BFF1F8A
:1007400010B54FF60F4008F0ABFB044B5B6D18681B
:100750000368FC211B68BDE810401847189BFF1F69
:1007600008B5002008F000FC003018BF012008BDCB
:100770002DE9F041E0290C469DF8185008D8013DBC
:10078000EDB20F2D02D849B2002912DBBDE8F0818D
:10079000F729FBD90834E4B2012303FA04F414F076
:1007A000DD0FF3D0436D18680368BDE8F0411B68A6
:1007B00018471F46436D8046186803682943C9B22D
:1007C0001B6816469847D8F854301868036806F036
:1007D0007F011B6804F0EF049847C02CD6D0D8F8EE
:1007E00054301868036807F07F011B68BDE8F041CA
:1007F000184700BF2DE9F0415FFA82F80C0608F1B6
:10080000FF3504F0FE4444F410442D02064605F47E
:10081000706544F00904000482B02C4300F4FE002B
:100820000F46204308F03CFBCDF80080FBB2F2B24B
:1008300090210348FFF79CFF02B0BDE8F08100BFA4
:10084000189BFF1F2DE9F0415FFA82F80C0608F1B2
:10085000FF3504F0FE4444F400442D02064605F43E
:10086000706544F00804000482B02C4300F4FE00DC
:100870000F46204308F014FBCDF80080FBB2F2B223
:1008800080210348FFF774FF02B0BDE8F08100BF8C
:10089000189BFF1F2DE9F0415FFA82F80C0608F162
:1008A000FF3504F0FE4444F430442D02064605F4BE
:1008B000706544F00B04000482B02C4300F4FE0089
:1008C0000F46204308F0ECFACDF80080FBB2F2B2FC
:1008D000B0210348FFF74CFF02B0BDE8F08100BF34
:1008E000189BFF1F036810B504460BB1743098477E
:1008F00094F87530803B7F2B00F28580DFE813F0A1
:100900008A008300830083008300830083008300C8
:1009100083008300830083008300830083008300BF
:10092000960083008300830083008300830083009C
:10093000830083008300830083008300830083009F
:100940009A00830083008300830083008300830078
:10095000830083008300830083008300830083007F
:100960009E00830083008300830083008300830054
:10097000830083008300830083008300830083005F
:10098000A200830083008300830083008300830030
:10099000830083008300830083008300830083003F
:1009A000AC00830083008300830083008300830006
:1009B000830083008300830083008300830083001F
:1009C000B0008300830083008300830083008300E2
:1009D00083008300830083008300830083008300FF
:1009E000C4008000D100E10083008300E90083009F
:1009F000ED00F100F500F900FD0083000101840025
:100A0000A36A002B60D110BD236D002BFBD0BDE885
:100A100010401847A368002BF5D094F8772094F87D
:100A2000761094F87400BDE810401847E368002B76
:100A3000F3D1E8E72369002BEFD1E4E76369002BEA
:100A4000EBD1E0E7A369002BDDD094F8761094F8A1
:100A50007400BDE810401847E369002BF5D1D2E7D8
:100A6000226A002ACFD094F8771094F8763094F860
:100A70007400C90101F47E5103F07F031943A1F50D
:100A80000051BDE810401047636A002BBBD0B4F89A
:100A90007610802904F1780028BF8021BDE810403D
:100AA0001847E26A002AAED094F8773094F87600BE
:100AB000DB0103F47E5300F07F001843BDE81040D3
:100AC0001047236B002B9ED094F87600BDE81040B1
:100AD0001847636B002B9AD195E7A36B002B96D137
:100AE00091E7236C002B92D18DE7E36B002B8ED125
:100AF00089E7636C002B8AD185E7A36C002B86D134
:100B000081E7E36C002B82D17DE700BFF8B5436D30
:100B10000446186803681B69984708B90020F8BDA7
:100B200094F80D31626D23F0010384F80D311068E3
:100B300003685B699847C3B2FD2BEFD0626E002A51
:100B400049D001067ED494F85B10F0295FD0F729D4
:100B50005DD0A11881F85B30216E4B1E9A4253D3B1
:100B600094F85B30F02B00F00A82F72B00F007823C
:100B70001A0650D4002284F87520B02A5CD0A02A2E
:100B80005AD0D02A58D0E02A56D0C02A54D00020BB
:100B900084F87400032994F85C0008BF94F85D5051
:100BA00084F8760018BF002500210120B02A84F8BF
:100BB00077506166216684F8F80008D000F2D5818C
:100BC000902A04D0A02A02D0802A00D0002384F8E2
:100BD00059300120F8BD94F8592084F85B3015068F
:100BE0004DD440B20028C0F20E8294F90D01636822
:100BF00040F0010084F80D0103B19847002084F80B
:100C0000590060662066F8BD0132626686E7A11869
:100C100081F87830A0E703F10C02D2B2012AA9D9F9
:100C2000FD2BA7D0EF2B00F2EC8103F0F002802A1D
:100C300084F8752040F0EF8103F00F00013084F854
:100C40007400A7E7A3F1F0010F293FF67CAF012064
:100C500000FA01F111F0810540F0B18111F45F4F0C
:100C60003FF471AF84F8765084F8775084F874506C
:100C700084F87530C4F8FC0084F8F800F8BD02F17F
:100C80000C01CDB2012DACD9FD2AAAD0EF2A00F279
:100C9000578102F0F006802E40F0538140B20028C8
:100CA000A0DB0120C9B2814284F85B2084F85C306B
:100CB00060669AD9FD2A98D0EF2A94BF02F0F00519
:100CC0001546A5F180037F2B8FD801A151F823F0A1
:100CD000390F0000EB0B0000EB0B0000EB0B0000EA
:100CE000EB0B0000EB0B0000EB0B0000EB0B00002C
:100CF000EB0B0000EB0B0000EB0B0000EB0B00001C
:100D0000EB0B0000EB0B0000EB0B0000EB0B00000B
:100D1000390F0000EB0B0000EB0B0000EB0B0000A9
:100D2000EB0B0000EB0B0000EB0B0000EB0B0000EB
:100D3000EB0B0000EB0B0000EB0B0000EB0B0000DB
:100D4000EB0B0000EB0B0000EB0B0000EB0B0000CB
:100D5000390F0000EB0B0000EB0B0000EB0B000069
:100D6000EB0B0000EB0B0000EB0B0000EB0B0000AB
:100D7000EB0B0000EB0B0000EB0B0000EB0B00009B
:100D8000EB0B0000EB0B0000EB0B0000EB0B00008B
:100D9000390F0000EB0B0000EB0B0000EB0B000029
:100DA000EB0B0000EB0B0000EB0B0000EB0B00006B
:100DB000EB0B0000EB0B0000EB0B0000EB0B00005B
:100DC000EB0B0000EB0B0000EB0B0000EB0B00004B
:100DD000310F0000EB0B0000EB0B0000EB0B0000F1
:100DE000EB0B0000EB0B0000EB0B0000EB0B00002B
:100DF000EB0B0000EB0B0000EB0B0000EB0B00001B
:100E0000EB0B0000EB0B0000EB0B0000EB0B00000A
:100E1000310F0000EB0B0000EB0B0000EB0B0000B0
:100E2000EB0B0000EB0B0000EB0B0000EB0B0000EA
:100E3000EB0B0000EB0B0000EB0B0000EB0B0000DA
:100E4000EB0B0000EB0B0000EB0B0000EB0B0000CA
:100E5000390F0000EB0B0000EB0B0000EB0B000068
:100E6000EB0B0000EB0B0000EB0B0000EB0B0000AA
:100E7000EB0B0000EB0B0000EB0B0000EB0B00009A
:100E8000EB0B0000EB0B0000EB0B0000EB0B00008A
:100E9000EF0E0000310F0000390F0000310F00008D
:100EA000EB0B0000EB0B0000D10E0000EF0E00007A
:100EB000D10E0000D10E0000D10E0000D10E0000B6
:100EC000D10E0000EB0B0000D10E0000D10E00008F
:100ED0000023012084F8743084F8763084F8773069
:100EE00084F875506366236684F8F800F8BD8021A5
:100EF0000023216684F8785084F859307F21636E8E
:100F00008B422ED302F00F020023013294F85C10C2
:100F100084F87420012084F8761084F8773084F8FF
:100F2000755063662366C4F8FC0084F8F800F8BDC9
:100F3000022323660121E2E7032323660221DEE781
:100F4000164606F0DF05902D3FF4A8AE06F0BF056B
:100F5000A02D3FF4A3AE06F0EF06C02E3FF49EAEE8
:100F60003FE6013363660020F8BDD02A3FF42FAE80
:100F7000E02A3FF42CAEC02A7FF428AE27E6F02208
:100F800080230025012194F8F76084F8752084F807
:100F9000763084F8F720C4F8FC30204684F8775087
:100FA00084F8745084F8F810FFF79CFCF7220223B1
:100FB00084F8796084F8782028466366F8BD94F850
:100FC0007810F02902D0F7297FF40FAE551C224487
:100FD00000214FEA152E82F878300126F02784F898
:100FE000765084F877E084F8741084F8591030460D
:100FF000C4F8FC5084F875706166216684F8F86066
:10100000F8BD1A46B7E503F10C02D2B2012A7FF609
:10101000ECAD1A4650E6902A3FF40EAEADE500BFA7
:1010200090F87030DA0718D513F0FE0F15D070B5B0
:1010300090F8755085F08002602A82B004460DD881
:1010400090F874608E4231D081B35B08012B32D0AE
:10105000032B00F09B8002B070BD7047A5F1F00338
:101060000F2BF8D801A252F823F000BF6311000043
:10107000411100000F110000F31000005710000094
:1010800057100000CB10000057100000CB100000DC
:1010900057100000CB100000CB100000CB10000058
:1010A00057100000CB100000CB1000005B08012B94
:1010B00001D0022BCFD194F8773094F876200096A7
:1010C00029462046FFF754FBC5E705F10803DBB2CC
:1010D000072BC0D8012202FA03F313F0DD0FBAD0B8
:1010E000636D1868036829461B6802B0BDE870404C
:1010F0001847436D90F8765018680368F3211B6811
:101100009847636D186805F07F010368ECE7436D4D
:1011100090F87750186894F876200368F2211B68DD
:1011200042EAC5159847636D1868036805F07F01AA
:101130001B689847636D1868C5F3C6110368D3E749
:10114000436D90F87650186894F8773002682D0156
:1011500003F00F03126805F07005F1211D4390475D
:10116000BEE7B0F87660802E28BF802600F17805B3
:10117000002E3FF470AF2E44636D15F8011B186804
:1011800003681B689847B542F6D164E794F8773056
:1011900094F8762000962946FFF7EAFA5BE700BF4D
:1011A00070B5174C94F85860102E02D900252846C7
:1011B00070BD2046FFF7AAFC05460028F6D094F83B
:1011C0007530902B0CD083F08003602B0BD90C482A
:1011D000FFF788FB31460A48FFF722FF284670BD1B
:1011E00094F877303BB194F874309E42EFD0002EE3
:1011F000EDD00025EEE7802384F87530F3E700BFDB
:10120000189BFF1FF8B5294C294F94F87030DFF870
:10121000ACE0C7F800E00025012243F0010362F3CF
:1012200047034FF6FF76294604F17800802284F8C0
:101230007030676525606560A560E5602561656162
:10124000A561E56125626562A562E5622563656366
:10125000A563E56325646564A564E564256584F894
:10126000585084F8595084F85A5025666566A66629
:10127000E66684F8745084F8755084F8765084F8E3
:10128000775084F8F8500BF063FB2046C4F8005107
:10129000C4F80451C4F8085184F80C5184F80D5175
:1012A000044A0549BDE8F8400AF05CB8189BFF1FE6
:1012B000149BFF1F0C8DFF1F710600006491FF1F20
:1012C00000207047704700BF10B5044604F01EFAB6
:1012D0000A2830D00D283DD04FF6FD73984201D931
:1012E000012010BD0346B4F94220B4F9401004F1C6
:1012F000080004F0EFF994F82230032BF0D8DFE86F
:1013000003F0140E0802B4F84230181AA4F8420090
:10131000E6E7B4F84030181AA4F84000E0E7B4F863
:1013200042301844A4F84200DAE7B4F840301844D8
:10133000A4F84000D4E794F9333094F93410B4F8A9
:1013400042205B1A13440022A4F84230A4F8402043
:10135000012010BD0023A4F84030012010BD00BFC3
:1013600010B518380AF046FD09490A4C0AF096FDF6
:1013700008F01EFF0AF058FF01212060172006F038
:10138000FFFD21682820BDE8104006F0EBBC00BF3F
:1013900090759242A49CFF1F10B50D490D4C00237F
:1013A000C3EBC300221801335279D2091CBF225C5F
:1013B00002F00F02082B0A6001F10401F0D1FFF7DF
:1013C000BFF9FFF79DF9044B00221A7010BD00BF52
:1013D000C4A1FF1F3C8FFF1F748FFF1F2DE9F04733
:1013E0001546002A63D004460F46DFF8C880002661
:1013F0004FF6FD7900F1080A0BE004F087F90A289E
:1014000025D00D2832D0484511D90120013D064490
:101410000AD0236817F8011B1B6843452046ECD00F
:101420009847013D0644F4D13046BDE8F0870346B5
:10143000B4F94220B4F94010504604F04BF994F846
:101440002230032BE1D8DFE803F02B241D1694F99A
:10145000333094F93410B4F842205B1A134400225C
:10146000A4F84230A4F840200120CFE70023A4F8DC
:1014700040300120CAE7B4F84230181AA4F84200FC
:101480000120C3E7B4F84030181AA4F84000012046
:10149000BCE7B4F842301844A4F842000120B5E794
:1014A000B4F840301844A4F840000120AEE71646D6
:1014B000BAE700BFC912000070B5084D2B6898420A
:1014C000044608D3064EE41AFFF70AF933689B0076
:1014D0009C422B60F7D21B1B2B6070BDA8A3FF1F83
:1014E00044A2FF1F70B50D4D2B689842044612D3DD
:1014F0000B4E32682A60E41A06F05CFD014609488A
:1015000003F0A2F906F056FD0146074803F0E8F99A
:101510002B68A342EDD91B1B2B6070BD8CA4FF1F51
:1015200044A2FF1FB8A7FF1FB8A4FF1FF8B50446C9
:101530000A4E0B4D0B4F55F820000A4656F8241062
:10154000FFF7A8F90849094A56F8243055F824004D
:1015500047F8243008601360F8BD00BF98A4FF1F4F
:10156000408DFF1F849CFF1F6C9CFF1F9C9CFF1FD6
:101570002DE9F84F554C564F564D574EDFF894A174
:10158000DFF89491DFF8948122204FF0000BC0B275
:1015900006F0B2F8034601462068336003F098FE77
:1015A0002168DAF80000CA6AD9F80030904279DC84
:1015B0009342D4BFC0EB0302C0EB02021B1AB3F587
:1015C000804FAABF9203C2EB8232013392FBF3F346
:1015D00091F834203360DB1148F82B30002A3AD0E0
:1015E0003E4A1278032A36D8DFE802F02D02022D97
:1015F0003B4A1278002A3AD03A4A1278002A36D06A
:1016000039493A483A4AC1F800B0BBF1040F296899
:101610000160136056D0374A374912680968374865
:1016200001EB021100EBC1015944CB70C2EBC202C5
:10163000334B995C090901315846FFF777FF314B6D
:1016400001221A7007E0304B58461968FFF76EFF09
:101650002C4B01221A700BF1010BBBF1050F04F1A9
:10166000040405F104051FD057F8040F8FE7274A3B
:101670001278DAB11C491D481D4AC1F800B0BBF10F
:10168000040F2968016013601CD01A4A20491268AF
:101690001A4851F8221001EB021100EBC101594424
:1016A000CB70C3E7002289E7BDE8F88F114B144ADD
:1016B0001B68C3EBC3035846D15C09090131FFF72E
:1016C00035FFC8E70B4B1A68B0E700BF60A2FF1FE9
:1016D00014D10000408DFF1F689CFF1F208FFF1F4B
:1016E000999CFF1F649CFF1F3CA2FF1F6C9CFF1F67
:1016F0009C9CFF1FB0A4FF1FD4A3FF1FB09CFF1F23
:101700003C8FFF1F40A2FF1F3C8DFF1FB0A0FF1F9B
:10171000C4A1FF1FE8A1FF1F5C8DFF1F98A4FF1F3E
:1017200008B50A4B1A783AB91146094803F0CAFBC2
:10173000084B01221A7008BD074A0548002103F032
:10174000C1FB044B01221A7008BD00BFACA3FF1FF0
:10175000289CFF1F63A4FF1F4040BF002DE9F04FEE
:10176000AB4BAC4C196883B0054608460AF08EFABC
:101770000AF080FDA849A94A0B680093009B1668EF
:1017800020609B1B984208D8A548096803780191FE
:101790000199116083F001030370A24B1B781BB108
:1017A0009F4B1B78002B6FD19F4C2378002B4CD183
:1017B0009E4B1B78002B51D0994B1B78002B55D199
:1017C0009B4B1B78012B00F07B81022B56D0002213
:1017D0001146984803F076FBEF00DFF89092DFF8AF
:1017E00090827B1B4B449B79D9074CBF924B934B08
:1017F00053F82530C8F800302378002B59D0904B8F
:101800001B78002B55D07D1BA94401240CE03368C4
:10181000A34200F0CE802B680B33A3423BD003F0F1
:1018200051FB01341B2C3ED099F80030854D864E7B
:10183000804803F00F030B33A3424FF00002A1B224
:10184000E5DA0022A1B27B48E9E7754B1B78002B53
:1018500040F03C81754B1B78002BB1D17B4B1B7842
:10186000002BADD06E4B1B78002BA9D0734B714869
:1018700053F82520002103F025FBADE74D22002180
:101880006C4803F01FFBA7E7012200216948664C62
:1018900003F018FBA0E7A1B26D4A6648013403F0DB
:1018A00011FB1B2CC0D16B4B01221A7003B0BDE899
:1018B000F08F664B1B78002B7FD17E1B4E444FF080
:1018C000020B01240AE00022A1B25A4803F0FAFAFE
:1018D000BBF11B0F29D001340BF1010B337803F05E
:1018E0000F030B33A342EEDB012C00F0F680022C39
:1018F00000F0FF80EB1CA342E5D11FFA84FAD8F870
:1019000000204C48514603F0DDFA484A1278002A7C
:10191000DED0434A1278002ADAD0514600224548E8
:1019200003F0D0FABBF11B0FD5D17F1B3F4EB9445A
:101930004FF00B0B002419E0A34200F0B580464B9A
:1019400004EB051203EBC2039B78C3F30113012BD5
:1019500000F0A380414A3748594603F0B3FA0134F6
:101960000BF1010B102C1FFA8BFB9CD099F8003067
:1019700003F00F030133A342F1DD3378002B79D15B
:10198000374BA20753F82530D6D0A34278D0324B3C
:1019900004EB051203EBC2039B78C3F30113012B85
:1019A0007BD03278002ADAD15946224803F08AFAED
:1019B000D5E72C4A03F086FA33E77D1BA9440124BE
:1019C00012E00B681B4852F823300B33A3424FF050
:1019D0000002A1B216D02B68A34201D003F072FA24
:1019E00001341B2C3FF45FAF99F800301E491C4AAC
:1019F000154D03F00F030B33A342E2DA0022A1B22C
:101A00000C48EBE74FF4000203F05CFAE8E700BF94
:101A10009CA3FF1F709CFF1F40AAFF1FECA1FF1F8C
:101A2000B4A4FF1F409CFF1F999CFF1FA89CFF1F91
:101A3000208FFF1F289CFF1F28D1000048D10000E5
:101A4000649CFF1FD4A3FF1F5CA2FF1FB0A0FF1F59
:101A50000080FF0063A4FF1FB09CFF1F2020200018
:101A6000C4A1FF1F80808000B0A4FF1F3C8FFF1F18
:101A7000A4A3FF1F284A2948594603F023FA7FE709
:101A8000274B1A78AAB9274B04EB051103EBC103C6
:101A90009B78C3F30113012B86D1D8F800201F488F
:101AA000594603F00FFA5AE71D4B1B78002B3FF401
:101AB00046AF4FF400025946184803F003FA4EE7C8
:101AC000194A1648002103F0FDF985E644F64D4217
:101AD0000021124803F0F6F97EE6144B5B7813B14F
:101AE000134B1B7893B9134A0C48012103F0EAF910
:101AF000F1E60E4B9B7813B10D4B1B7833B94FF6C3
:101B000080720221054803F0DDF9E4E60022214657
:101B1000024803F0D7F9DEE620202000289CFF1FB2
:101B2000409CFF1FB09CFF1F80808000449CFF1FD3
:101B3000B4A4FF1FFFFF800010B550B90446012177
:101B4000094803F0DFFD21460748BDE8104003F0D7
:101B5000DBBD0021044803F0D5FD01210248BDE8AA
:101B6000104003F0D1BD00BFFCA1FF1F2DE9F041E3
:101B7000C5002A1A554C564FA35C57F820E003F0D5
:101B80000F0301339E4522442DDB5179C9095CD1F5
:101B9000567806F00F0647F820602E1A26440746AE
:101BA000F378B07803F00F0200F00F0191426DD08E
:101BB000B279591C6FF3410261F30303B271F37000
:101BC000ED1B0AF017FF635D621903F00F03013389
:101BD000D17890FBF3F404FB1300013060F307119C
:101BE000D170BDE8F0819179C1F34001B1B156786F
:101BF0004FEA161C06F00F06B4450CDDE6450ADB7D
:101C00005379DB09C7D0BCF1000F37D00CF1FF339B
:101C100047F82030C1E7BCF1000F25D02A1A224432
:101C20005679F6090FD0BEF1000F11DB59B1537888
:101C300003F00F039E453ADA2B1A234493F801C0B0
:101C40004FEA1C1CDFE7BDE8F0819179C1F3400148
:101C50000029F1D12A1A2244527802F00F029B1A6D
:101C6000013B47F8203098E72A1A224492F803C033
:101C7000BEEB1C1FD2DB5379DB098CD02B1A23441B
:101C8000DB781B09013B47F8203086E75FEA101834
:101C90000FD1EB1B23449A796FF341029A71EB1B2E
:101CA00023440121DA7861F30302DA7088E7BDE8A2
:101CB000F0810AF09FFE90FBF8F303FB1800002868
:101CC000E7D1B37943F00203B371E8E73C8FFF1F1C
:101CD000C4A1FF1F70B50C4D0C4E0024C4EBC4030F
:101CE000334420465B79DB092B680ABF204603F1A9
:101CF000FF33013301342B60FFF738FF082C05F167
:101D00000405EBD170BD00BFC4A1FF1F3C8FFF1FB6
:101D10000949C0EBC0020A4408495279D20951F876
:101D2000202004D1013241F82020FFF71FBF013AE3
:101D300041F82020FFF71ABF3C8FFF1FC4A1FF1FEF
:101D4000144A38B5144B146853F8203004EB44049B
:101D500003EB84047F2C05460AD9A9B20F4A104828
:101D600003F0B0F80F49104A01230B70137038BD0F
:101D70000E480F4A0F4B0470126843F82540204666
:101D8000FEF738FDA4F11803352BE6D82046FFF7FF
:101D9000E7FAE2E7ACA4FF1F7CCF00008080800060
:101DA000289CFF1F63A4FF1F40A2FF1F62A4FF1F08
:101DB0003C8DFF1FE48DFF1F0D4B10B5044653F8FB
:101DC00020007F2808D80B4B00211A68FEF73AFD47
:101DD0000021172006F0D4F8A1B20022064803F033
:101DE00071F80649064A01230B70137010BD00BF3D
:101DF000E48DFF1F3C8DFF1F289CFF1F63A4FF1F66
:101E000040A2FF1FF8B51E4C1E4B246853F820302B
:101E100004EB440403EB84047F2C05460AD9A9B2E1
:101E2000194A1A4803F04EF819491A4A01230B704F
:101E30001370F8BD184FDFF874E03B681748184E70
:101E4000C3EBC30306EB02161EF8033050F822E082
:101E50001A090132204606F80E40FEF7CBFC3B681B
:101E60001049114ACB5C42F82540002BD7D0A4F191
:101E70001803352BD3D82046FFF772FACFE700BFFF
:101E8000ACA4FF1F7CCF000080808000289CFF1F37
:101E900063A4FF1F40A2FF1FB0A4FF1FC4A1FF1F28
:101EA00044A1FF1F248FFF1FE48DFF1F3C8FFF1FE6
:101EB00038B5134B044653F820007F280AD9A1B245
:101EC0000022104802F0FEFF0F49104A01230B7058
:101ED000137038BD0E4D0F4A2B68C3EBC3030021AE
:101EE000D25C12090132FEF7ADFC2B680A4AD35CC2
:101EF000002BE4D00021172006F042F8DFE700BFF6
:101F0000E48DFF1F289CFF1F63A4FF1F40A2FF1F3B
:101F1000B0A4FF1F3C8FFF1F248FFF1F2DE9F04F40
:101F2000944F954E57F820200501AB1806EBC303DC
:101F300087B09B78C3F30113012B06D002D30F2384
:101F400047F8203007B0BDE8F08F8C4B8C491B68F8
:101F5000095C029102EB031206EBC20204465378BD
:101F6000DFF848B2DFF848A203F07F034FEAC00869
:101F7000CBF8003006F01EF857F82410814B03917F
:101F800002991B68009103997F4A294406EBC10E10
:101F9000C4EB08099EF802E016F831100EF00F0E9F
:101FA0000EFB0333184410601AF809E013687748F1
:101FB0004FEA1E12013201F07F0102F027FC57F8B0
:101FC0002430DA07D14440F19C8099F8052002F0D2
:101FD0007F02622A4ADD632A00F09A806C49DBF8AE
:101FE0000020DFF8D091DFF8D0B1C4EB08082B4413
:101FF0001AF8080016F833E00B68009303090298FA
:1020000001900EF07F010133624802F049FC57F85D
:1020100024200294D0444FF0000AAB1806EBC3030F
:1020200053445D4893F90340002C214652DB98F855
:10203000002050F82A0012090132FEF72BFC029B07
:10204000C9F8004057F823200AF1010ABAF1040F39
:1020500009F10409E1D1AB18504916F833300D44A9
:10206000C3F30603AB5407B0BDE8F08F05F0A2FF41
:10207000059099F804304A4903F00F03086849496C
:102080000491039309F0B2FE039B049951F82310C5
:1020900009F004FF4FF07A5109F000FF039099F81E
:1020A000050000F07F0009F0A5FE039B01461846DD
:1020B00009F0F4FE059A8146104609F097FE0146A4
:1020C000484609F0E3FD0AF0D5F8314957F82430C5
:1020D000086084E75BF82A10D9F800302E488B425C
:1020E000B2D098F8002050F82A0012090132FEF709
:1020F000D1FB029A5BF82A3057F82220C9F8003049
:10210000A2E705F057FF224957F82430086066E738
:102110000AF070FC059005F04DFF2149049099F8F4
:10212000049008681F49039109F00F0909F05EFE49
:10213000039951F8291009F0B1FE4FF07A5109F0D6
:10214000ADFE059B8146184883FB00015818D9173E
:10215000C1EBA01101EB4100C1EB4011581A013055
:1021600009F048FE0146484609F098FE049A814667
:10217000A2E700BFC4A1FF1FB09CFF1FB0A4FF1FB8
:10218000248FFF1F5CA4FF1F3CA1FF1FB8A7FF1FE8
:10219000A09CFF1FB8A4FF1F408DFF1F44A1FF1F7D
:1021A00044A2FF1F708EFF1F859176AC388FFF1FF2
:1021B0003C8FFF1F48A2FF1F849CFF1F2DE9F84F93
:1021C000684B1B78012B62D0022B5ED1664B1B78CB
:1021D000002B6BD0654FDFF8B4A1002443E0644BC3
:1021E000644A1868C4EBC40302EB030807EB050B51
:1021F00098F80420CBF8086002F00F0909F0F6FD0A
:102200005D4B53F8291009F049FE8146304609F02C
:10221000EDFD0146484609F039FD0AF02BF898F823
:102220000630CBF80400DB0713D4544A544B52F861
:1022300024200F321340002BC0F28380514A2A44DD
:102240003D44D15CAB8109B10021D1542046FFF758
:1022500065FE4D4B1B68A3426FD02046FFF758FD2B
:102260000134082C20D0250107EB050B05F0A2FE58
:10227000DBF80460B042F3D39AF80030002BAED004
:10228000FFF78AF8DBF80460A9E7BDE8F88F364B62
:102290001B785BB13C4D354F05F08CFE2C6823015B
:1022A000FA185668B04207D2BDE8F88F364B186866
:1022B000BDE8F84FFFF752BA344A1278002A45D1E8
:1022C0002E492F4A51F824100F310A40002A44DBCE
:1022D0002C491944F81811F802E08281BEF1000F70
:1022E00001D000208854224A22491068DFF88890E3
:1022F000C4EBC4020A441F4492F80480BE6008F094
:102300000F0809F073FD59F8281009F0C7FD804641
:10231000304609F06BFD0146404609F0B7FC09F074
:10232000A9FF78602046FFF7F9FD2868FFF716FA45
:102330002868BDE8F84FFFF7CDBC2046FFF70EFA3E
:102340008BE7013B63F00F03013377E7FFF724F8D6
:102350002C682301FA185668B2E7013A62F00F02BE
:102360000132B5E7208FFF1F409CFF1FDCA3FF1F3A
:102370005CA4FF1F3C8FFF1F708EFF1FC4A1FF1FB7
:102380000F00008044A1FF1FB0A4FF1F748FFF1F28
:1023900038B50A4B0A4D01221A70002405F00AFED6
:1023A00005EB04130134082C5860F7D1054B1B785A
:1023B00003B138BDBDE83840FEF7B2B9409CFF1FFD
:1023C000DCA3FF1F748FFF1F072839D8F8B51D4AFB
:1023D0001D4CC0EBC00304EBC010D45C04F00F0430
:1023E00001346E46A6EBC403214400AF9D466D4602
:1023F00091FBF4F3002204FB131300EBC20105EB85
:10240000C30ED1F800C045F833C001324968CEF898
:1024100004100133944293FBF4F104FB1133ECDC20
:102420000023DA00A9180244D1F800E040F833E0B4
:102430000133496851609C42F3DCB546BD46F8BDA6
:10244000704700BF3C8FFF1FB09CFF1F2DE9F04776
:102450003A4FBDF8206005468946384629469246DF
:10246000984603F09FF997F9314080B2A4B2C0EBCF
:102470000803341B03EBD37304EBD47409EB63033D
:102480000AEB640400222846A7F84030A7F842402F
:1024900087F846200AF0F4FA48B304463E464FF661
:1024A000FD7801E0013C22D015F8011B234803F020
:1024B0002DF90A282FD00D283BD04045F2D80346ED
:1024C000B6F94220B6F940101D4803F003F996F81A
:1024D0002230032BE6D8DFE803F018120C02B7F81D
:1024E0004230013CA3EB0000A7F84200DCD1BDE87C
:1024F000F087B7F84030181AA7F84000D2E7B7F8CD
:1025000042301844A7F84200CCE7B7F840301844EE
:10251000A7F84000C6E796F9333096F93410B6F8BC
:1025200042205B1A13440022A6F84230A6F840204D
:10253000B8E70023A6F84030B4E700BFF4A1FF1FBE
:10254000FCA1FF1F30B5054683B010460C46FFF7CF
:10255000F3FA074B1A680332610116235200009305
:1025600009B2284612B22023FFF770FF03B030BD36
:102570009C8EFF1FF0B5194C194F1A4E85B004F10F
:10258000400502E00834AC4226D02379002BF9D074
:102590003B680393039B1448336004F0E5F9012181
:1025A000124803F095F81249104803F0A1F80121F0
:1025B0000E4803F0A7F800210C4803F0A5F82023EB
:1025C000206800930A2280230021FFF73FFF0023A9
:1025D00023710834AC42D8D105B0F0BD888DFF1FFF
:1025E00040AAFF1F609CFF1FB09AFF1FFCA1FF1FA6
:1025F00068D2000030B51E4C83B0012104F1080000
:1026000003F066F804F108001A4903F071F8002598
:1026100004F108000121A4F84050A4F8425084F8C5
:10262000465003F06FF8294604F1080003F06CF8F7
:10263000114A124B12781B78934210D0104B1B7822
:102640004BB910482023009314222C235621FFF766
:10265000FDFE03B030BD0C4B53F82200F2E7084AF0
:102660001278002AEDD0084A52F82300EAE700BFAA
:10267000F4A1FF1FB40401006C8EFF1F208FFF1F09
:1026800074A2FF1FE8D00000C88DFF1F70B506467A
:1026900084B010460D46FFF74FFA0A4B1C686400E1
:1026A00002A930460A22053409F088FEA4B2690165
:1026B0001623009322B209B202A82023FFF7C6FE18
:1026C00004B070BD9C8EFF1FF8B5134E0746002561
:1026D0007088002498B12304FF2293FBF0F0284473
:1026E000114680B202F018FC02F0BAFCA1B2024618
:1026F000094802F0E7FB70880134A042EBDC064891
:1027000002F0FEFA05F58075384605F075FCB5F562
:10271000803FDDD1F8BD00BF289CFF1F2DE9F047A9
:10272000494BDFF83C81494E0FCB86B006AC04E93B
:102730000F00474804F018F9002108F1080002F0E2
:10274000C7FF45464FF0000A4148424C04F00CF9DF
:102750001223002240494148A8F84030A8F84230EE
:1027600088F846200FFA8AF902F0C2FF4FF6FD778B
:1027700001E0B44222D014F8011B394802F0C6FF30
:102780000A284FD00D285BD0B842F2D80346B5F9DD
:102790004220B5F94010314802F09CFF95F82230F4
:1027A000032BE6D8DFE803F038322C02B8F84230C9
:1027B000B442A3EB0000A8F84200DCD12949274825
:1027C00002F096FF09F0030906AB03EB8909202309
:1027D00059F8100C00930A225021FFF737FE1C48CD
:1027E00004F0CEF90AF1010A642005F005FCBAF103
:1027F000100FA9D1642006B0BDE8F04705F0FCBB7E
:10280000B8F84030181AA8F84000B2E7B8F84230DB
:102810001844A8F84200ACE7B8F840301844A8F8CB
:102820004000A6E795F9333095F93410B5F8422009
:102830005B1A13440022A5F84230A5F8402098E71F
:102840000023A5F8403094E74CCF0000EECF000005
:10285000B09AFF1FE8CF000068D20000FCA1FF1F64
:10286000F4A1FF1F24DB00002DE9F0432D4B2E4C7B
:10287000596818682D4F85B06A4603C253F8080F8F
:102880005968134603C30DF1FF3E00264FF00108BF
:102890004FF0030C1EF8015F002305F07F059DF843
:1028A000082065F306028DF8082002AA03CA04EB8B
:1028B000C30244F833000133102B5160EFD1C6EB53
:1028C000C6017B187A5C42F00F0266F307127A5455
:1028D00093F80690DA785D79587899786FF3000963
:1028E00068F303025FFA89F905F07F0500F0F00054
:1028F00001F0F00101366FF306056FF307106FF377
:1029000007116CF307126FF34109082E04F18004DC
:102910005D7158709970DA7083F80690BAD105B07D
:10292000BDE8F0835CCF0000B09CFF1F3C8FFF1F11
:1029300070B5002004F0C4FF052803D00521002055
:1029400004F0D8FF1A4B01201C7804F0B9FF844230
:1029500003D02146012004F0CDFF164B02201C7845
:1029600004F0AEFF844203D02146022004F0C2FFEF
:10297000114B03201C6804F0A3FF013CE4B2844225
:1029800003D02146032004F0B5FF0C4E042420465A
:1029900004F096FF56F8045BEDB2854229462046C6
:1029A00004F1010401D004F0A5FF092CEFD170BDA2
:1029B000208FFF1FB0A4FF1F3C8DFF1F408DFF1F06
:1029C00038B5002004F07CFF052801D0002038BD78
:1029D000012004F075FF0C4B0C4D1870022004F020
:1029E0006FFF0B4B1860032004F06AFF094B0130A6
:1029F00018600424204604F063FF0134092C45F8D4
:102A0000040BF7D1012038BD208FFF1F408DFF1F21
:102A1000B0A4FF1F3C8DFF1F70B50F4E202404F1A2
:102A20008005A4F12000082221463044144404F01B
:102A300089FFA542F5D1B5F5846F2C46EFD1074D3E
:102A4000A4F58460072221462844144404F07AFF48
:102A5000B4F58B6FF4D170BDB09CFF1F3C8FFF1F8E
:102A60002DE9F843DFF858802027A7F120054544D9
:102A700007F180092C463E1B0835301904F020FF71
:102A800004F8010BAC42F8D108374F452546F1D187
:102A9000B7F5846FE9D1094D2C463E1B0735301937
:102AA00004F00EFF04F8010BAC42F8D10737B7F57C
:102AB0008B6F2546F0D1BDE8F88300BF3C8FFF1F28
:102AC000B09CFF1FF0B53C4C3C4D89B004F0B0FE0B
:102AD00023680393039F236804930499384A236867
:102AE00005933848384B116000220121059E07608C
:102AF0001A7136482E60DA6083F82220A3F840204D
:102B0000A3F8422083F84620198383F82110186027
:102B100005F050FA236806932D49069D2368079314
:102B20000B462C4E2C4A079F43F8047B30601560FF
:102B30006C3122680292029A43F8042B8B42F8D13E
:102B4000264B274F274D284A19682848284B294EDD
:102B5000294C12683F682D6801601A60084637608A
:102B6000256009F093F809F085FB244B0B221860CF
:102B70000C212348FDF7B4FC00212248FDF726FD77
:102B8000052206238DE80C001F49204B204A2148CE
:102B900001F0FCFE204A21491E4808F0E3FB5223C5
:102BA0000E221B211E4802F077F91B4A1D491C48C2
:102BB00008F0D8FB09B0F0BD40AAFF1F609CFF1FC2
:102BC000BCA3FF1FECA1FF1FF4A1FF1F3CCF00001F
:102BD000CCA0FF1FB4A3FF1FB0A3FF1F548DFF1F86
:102BE000408DFF1F98A4FF1FACA4FF1F40A1FF1F33
:102BF000B8A3FF1F6C9CFF1F9C9CFF1F709CFF1FB6
:102C0000B4A0FF1FC0A3FF1F648DFF1F348DFF1FE3
:102C1000908EFF1F78A2FF1F0C8DFF1FC54900007B
:102C2000289CFF1F394C000030B5124C83B00022A5
:102C300001210A232046019100931146802302F0CE
:102C4000F5FE02252023204619460095002203F0B8
:102C500065FF2046009520230022402103F05EFFFF
:102C60000095204620230022602103F057FF03B087
:102C700030BD00BFB09AFF1F2DE9F04F964C0546BE
:102C80000F4694E80F008FB002AE0DF1280886E8D9
:102C90000F0088E80F000023079306930893099319
:102CA000082D00F20582DFE815F061008001EE00DA
:102CB0005B0178009D00B900D6000900874A884B67
:102CC00015681A6887498848884B51F825101B6891
:102CD00002EB0512013110F83220079102F07F0259
:102CE000834908920433013582480993824A834B11
:102CF00002910695039004928B460593804CDFF871
:102D00005CA204F1080001214FF0000902F0E0FC90
:102D100004F108007B4902F0EBFCA4F84090A4F811
:102D2000429084F84690FFF77FFF494604F108007F
:102D300002F0E8FC04F10800012102F0E5FC0124A6
:102D40004FF00A09DAF80020CDF80090023A21B2DB
:102D5000584612B22023FFF779FB612C04F12004BE
:102D600000F04181A4B256F804BFEBE75F4A664B1E
:102D700015681B686549664A0793604B09681278B5
:102D800008910435634909920293634A06959B466C
:102D9000594B039104920593B0E7504A504B126887
:102DA0001B685149514803EB021301EBC30211F8B0
:102DB00033509378517802684F48029003F00F0324
:102DC0000133043209934D4B079205F07F0501F062
:102DD0007F01524A0393524B069508910492834611
:102DE00005938BE73D4B4F491D684F4AC5EBC50323
:102DF0001268CB5C089203F00F011B09013101330B
:102E0000079109933A49464B484A03930135484B89
:102E1000069502918B46049205936FE72F4A414B2A
:102E2000126844490291C2EBC20213448B465A789D
:102E30009B784149039102F00F051209079203F0B4
:102E40000F021B090135089209933C4A3C4B069539
:102E50000492059352E7214B32481B68394A02928B
:102E6000C3EBC303034493461A793749374B0393A3
:102E700002F00F026FF07E0551F8222004930A92AF
:102E8000059306953AE7154B264A1D683048244CB1
:102E9000405DC5EBC503D118D35C0A792A49039478
:102EA00002F00F0203F00F03013351F822100793D1
:102EB000244B0F4A0C910135264904936FF07E0391
:102EC00006950292059108930993002800F0F4807A
:102ED000214B0D93934611E76CCF0000B0A4FF1F68
:102EE000D4A3FF1FC4A1FF1FB09CFF1FACA4FF1FF2
:102EF000F4CF000060D0000008D00000F0CF000048
:102F0000F4A1FF1F840D01003C8DFF1F9C9CFF1F3F
:102F100062A4FF1F10D0000014D0000078D0000081
:102F20002CD000003C8FFF1FF0A1FF1F3CD0000001
:102F300040D00000F8CF000048D000004CD0000086
:102F400054D0000000D00000508EFF1F5CD0000065
:102F5000248FFF1F30D0000034D000009C8EFF1F54
:102F6000574A584B11681A68574B5848029002EB61
:102F7000011203EBC2025648564B5749574C039077
:102F800005930332049100236FF07E0012F9011BB8
:102F90000029C0F2878006AD45F823100133042BC9
:102FA000F4D1069DDDF808B0A8E6454B4C4A1D68F3
:102FB0004C4B4D491B680793C5EBC5031344086888
:102FC0005B794A4C4A494B4A029403F07F030893C9
:102FD0000135494B069503910492059309F024F9B4
:102FE000A34609908AE60121444802F071FB444956
:102FF000424802F07DFB0121404802F083FB0021A2
:103000003E4802F081FB032F0DD8DFE807F02B20AC
:103010003602152201238DE80C0062211D230B22AC
:10302000384802F003FD06AE00243B1BB3FA83F3DD
:103030005B0915F17F0F21B228461A4628D00134CA
:10304000FFF724FB042C2AD056F8045FEDE7152285
:1030500001238DE80C0022211D230B22294802F0B8
:10306000E5FCE0E7152201238DE80C0002211D2379
:103070000B22244802F0DAFCD5E7152201238DE863
:103080000C0042211D230B221E4802F0CFFCCAE790
:1030900058F824000134FFF755FA042CD4D10FB0AE
:1030A000BDE8F08F06A948F8234041F8230075E7F2
:1030B000DDF808B0002521E6134B0D9393461DE67D
:1030C000B0A4FF1FD4A3FF1FB09CFF1F68D0000057
:1030D0006CD0000074D0000070D000005CD0000004
:1030E0003C8FFF1F749CFF1F548DFF1FF4CF000007
:1030F00018D0000020D0000028D00000FCA1FF1F45
:103100009CFB0000B09AFF1F38D000002DE9F04F63
:103110006248A3B001F05EFC04F04CFF604B186005
:1031200004F048FF5F4B1C681860041B04D05E4B22
:103130001B78002B40F0D282FFF740F85B4803F089
:1031400013FCFEF715FA5A48FDF7E6F903B218909A
:10315000002B34D1574B0493574B0893DFF88CB1B5
:10316000564B574D0393574B0293574E574B05936E
:103170005748FDF73DFA01284BD0022800F07E8128
:10318000544B0B93544CDFF868A1DFF81C91434873
:1031900001F0DAFC002800F0CA80404801F0E0FCB1
:1031A000C0F30722D3B2012BC7B200F0A1812A7865
:1031B000032A00F23282DFE802F09F4C4C9FBDF9F7
:1031C0006240464A04FB03F4127804EB84041C4476
:1031D000002A00F07A81424A3649137804911C444F
:1031E00035490891DFF804B13449039184F30204AE
:1031F0001470FFF7FFF901238BF80030314B029375
:103200003348324B0593FDF7F3F901282C4D2E4E30
:10321000B3D1334A2B78127829489A4200F00083C0
:103220002E4C2178002940F0CD822A4A0B9213B10E
:10323000032B40F0FF822B490B682B4A013382FBA2
:103240000320DA17C2EB600202EB82029A1A0A60CC
:1032500037E1002B9BD1002F5AD0029B1B781BB962
:10326000039B1B78002B53D0DAF80030002B4FDD86
:1032700099F80030002B00F0C382039B1B78002BD1
:1032800046D0DFF8708098F80030002B40D03068CE
:10329000FEF720FD002388F8003039E078A2FF1FF8
:1032A000B4A3FF1F7C9CFF1F409CFF1FB09AFF1F11
:1032B000B4A0FF1F999CFF1FA89CFF1FB0A0FF1F79
:1032C000208FFF1F649CFF1FB0A4FF1FD4A3FF1F0C
:1032D000C0A3FF1F63A4FF1F449CFF1F74A2FF1F16
:1032E0006C8EFF1F588DFF1F6766666640A2FF1F2A
:1032F0005CA2FF1F789CFF1F002B7FF448AF002FBC
:1033000040F08F81974B39461A681920FDF7C2FAB1
:10331000954A964B12681A921A9A43F827209448B5
:103320000023E35501F010FC00287FF436AF2B7822
:1033300065780195A5780795089D06932D781795D2
:10334000039D33682D780C95059D8A4A2D680D954F
:10335000049D17682D781395874D83492D78129514
:10336000029D11902D7814951E019BF80050109528
:103370000E96169015900F900A90069A7B4D099024
:10338000034602F1FF388C4642F20E7E0097E25C63
:10339000002A44D00E681B961B9E55F823A0009867
:1033A000CAEB060948454FEA830638D8DCF8009096
:1033B000CDF87090DDF87090CAEB090AF2452ED86E
:1033C000B8F1010F24D8019810BB079800BBA3F1F6
:1033D0000309B9F1070F41F271800A2B18DD0C982F
:1033E000B0B90E9FA3F10B000D903818634F07EB97
:1033F000C0008078C0F30110012840F2D281099208
:103400001492119212921692139215920F92109298
:103410000A681D921D9AA2F51C520F3AAA51013357
:103420001B2BB4D10A9B0998002B40F068860F9B98
:10343000002B41F03780159B1BB1059B1A460D9B55
:103440001360169B23B1049B1A469DF84C301370F1
:10345000119B1BB1484B9DF848201A7020B1029B6C
:103460001A469DF850301370069B032B00F2898793
:10347000DFE813F08B075B075B078B07039B1B7869
:10348000002B00F0C28130683D4B3C4953F820408E
:103490000022000104F07F048318013211F8337018
:1034A00064F3060701F8337001EBC303102A9F7819
:1034B0006FF303079F70EFD1324A334B0B92012217
:1034C0001A7001238BF800305CE6304A04921278BF
:1034D000002A00F00A812E4D2A78013A012A40F292
:1034E00082822C4BDFF8BCB008932B4B03933AE657
:1034F000E255002F2DD1294B1B78002B40F09580F1
:103500002B78032B3FF643AEDFE803F0020E0E02EA
:10351000144B64211A681920FDF7BCF9204A13786E
:1035200083F00103137032E6049B1B78002B00F03C
:10353000AE80029B1B781BB1059BCAF800701F6010
:10354000029900230B70049901220B708BF8002064
:103550001DE62B78032B3FF61AAEDFE803F0722549
:10356000257200BF3C8DFF1F40AAFF1FCCA0FF1F8C
:1035700078A2FF1F848DFF1F989CFF1FB09CFF1F28
:10358000788FFF1F63A4FF1FA0A3FF1F999CFF1F3D
:10359000208FFF1FA89CFF1FB0A0FF1F74A2FF1F5A
:1035A000ACA3FF1F40A2FF1F002FBDD0AF4BB04AFE
:1035B0001B681993049B19991B7842F82710A7F1EF
:1035C0000B01002B43D0029BAA481B78002B00F074
:1035D000D480059BA84A1B68D6F800E0A74811686C
:1035E000A74A50F82700CAF8007003EB0E1301EB4E
:1035F000410112F833C000EB810161F3060C02F8BF
:1036000033C099F800009F4B00211970002800F08A
:10361000228301238BF80030B9E5002B3FF478AE0C
:10362000B5E53846FEF7C8FB72E6FFF781F9FFF70C
:10363000F3F90C21944805F01BFF944806F0DEF8DE
:103640005EE7934B38461968FEF77AFB9FE5089AC8
:103650001278002A63D07A1E012A7FF698ADFA1EEE
:10366000072A00F23582607832608A49002840F0EB
:1036700062838B78002BCCD08148874900EBC21045
:10368000802203F059FE854B01221A73C1E7089B83
:10369000834A1B78002B3DD1039B824A1B78002B69
:1036A00038D163787B4A002B40F02A829378002B34
:1036B00040F0F08299F80030002B00F0BC837A488B
:1036C00089F8007001F0E8F8784B89F800701F6005
:1036D000FDF736F8744801F0DFF858E52046FDF7AD
:1036E000EBFE2046FDF7FEFE26E56D4A08921278B5
:1036F000002A40F004816B4A039212786C4D002A34
:1037000000F0F6812B78013B012B40F2E082DFF8DC
:10371000C8B128E5012317708BF8003037E5039B0B
:1037200060481B78002B00F04381534B326861499D
:103730001B6851F822C05149514851F82710CAF866
:10374000007003EB43030093059B0CEB021EC3F8D0
:1037500000C0009B10F83E8001EB830399F8001035
:1037600063F3060800F83E80002900F0DF81524A2A
:10377000012313708BF8003009E57B1E012B7FF6C7
:1037800006ADFA1E072A40F29D810A2F7FF7FFAC93
:10379000059A11603B4A0123137003708BF80030C7
:1037A000F5E40E9F0992B9460D9FB944344F07EBDB
:1037B000C90980F0010099F802A060F3051A89F8A0
:1037C00002A01DE639493D4B027000270F601F70B3
:1037D000FCF7B6FF344801F05FF8B9B20022384870
:1037E000013701F06FFB1B2FF7D1364B0B931946B6
:1037F0000122002323700A70FEF7FCFE2B7816E5E9
:1038000031683846FEF754FB37E52F4A2F4B2978AD
:10381000117001221A702B4B0B93FEF7EBFE50E652
:103820002A4A117800293FF400AD002125480B9069
:103830001170FCE4013B012B3FF643AE049B1B7867
:10384000002B4BD0029B1B78002B47D0089B1B788A
:10385000002B40F05B811E4B1B68012B00F0358371
:10386000002B7FF42EAE1B49E6E400BF40AAFF1FE9
:10387000CCA0FF1F649CFF1FACA4FF1F7CCF0000E7
:10388000B09CFF1F989CFF1F7CD000007C91FF1F05
:10389000348FFF1F449CFF1FA08EFF1F888DFF1FCA
:1038A000A89CFF1FB0A0FF1FB8A7FF1FD8A3FF1F32
:1038B000208FFF1FC4A1FF1F789CFF1F409CFF1F8C
:1038C000289CFF1F63A4FF1F6C8EFF1F74A2FF1FA5
:1038D000E4A1FF1F608DFF1F40A2FF1F089B1B7804
:1038E000002B40F01381039B1B78002B40F04D828E
:1038F000A74B1B68002B40F04282A6499CE4A64DD2
:103900002A78013A012A00F2DA80DFF8F082D8F84A
:103910000000042800F0CD82002840F090829F4EE5
:103920009F4F32689F4B224482F3030232601B6830
:1039300083B932689C4BC2EBC2021344197901F07F
:103940000F022244062AA8BF062222EAE27262F38C
:10395000030119713F68002F40F0CC81D6F800E0D8
:10396000914B4FEACE00CEEB000299189A5C497851
:1039700001F00F01091902F00F0200F183838A425E
:10398000A8BF0A4602F00F02CEEB00000344DFF8A6
:1039900084B259788548039062F303015970844BCF
:1039A0000293844B059301238BF80030FFF7E0BBB3
:1039B0007B1E012B7FF6EBABFA1E072A00F2C981B2
:1039C0006378002B00F0EC8199F80010002940F09A
:1039D000E781794F3260012347F8221003708BF89A
:1039E0000030FFF7D4BB754A08921278002A8CD1B8
:1039F0006E4A03921278002A40F069816C4A029262
:103A000012781AB36E4A1068032800F23183002B33
:103A1000684B624E0593C0F279836A4B1B68002B9A
:103A200040F0BE82059B32681B686749DFF8E4B14D
:103A300003EB021211F8323003F07F00044484F3E8
:103A4000070464F3060301F83230ACE75F4F3E68C9
:103A5000204608F0CFF9314608F018F95C490446D1
:103A600008F0BAFB002859D0594C5A4B3146204631
:103A70001C6008F0A7FB002840F00681204656494C
:103A80003C6008F00BFA01465448554CDFF884B10D
:103A9000424E08F0B7FA08F0EDFB524B524A18605C
:103AA0001B6803EB4303DB001360106808F09EF90A
:103AB0004E4908F0F3F93F4B2060059373E7DFF8B8
:103AC00054B112E5012332608BF80030FFF75FBB81
:103AD0000A2F7FF75CAB3368334AC3EBC30301277C
:103AE000D05C8BF8007061F30300D054FFF74FBB3C
:103AF0002A78032A3FF60BAEDFE802F0458E8E1ED1
:103B00003B493C4A01230B70137782E53A4B1B6813
:103B1000002B40F0D3803949FFF78EBB384920464F
:103B200008F078FB0028A0D0354C9EE7354B38468E
:103B30001968FEF767F91AE6334E3268042A00F076
:103B4000A382DFF8D0B001238BF80030012A00F007
:103B50008980002A40F092802C4B2D491A680F4E24
:103B60001444042CA8BF04246FF004008442B8BF9E
:103B7000044694420C6000F082800D4A1C600D4B9C
:103B8000029205930FE7204BDFF888B01A68DDE753
:103B9000809CFF1F988FFF1F208FFF1FB0A4FF1F67
:103BA000DC8DFF1FE08DFF1F3C8FFF1FB0A0FF1FAC
:103BB000649CFF1FD4A3FF1FC4A1FF1FA89CFF1F6D
:103BC0002C8FFF1F608DFF1FB09CFF1F548DFF1FA8
:103BD0000000204240A1FF1F0000C042C0E1644C31
:103BE0009CA3FF1F44A2FF1F5CA4FF1F6F12833A18
:103BF000748FFF1F888DFF1F94A4FF1FD88DFF1F98
:103C000000009643348FFF1F588DFF1FACA4FF1F89
:103C1000B8A3FF1F40A2FF1FBB4B1968BB4B042971
:103C20001B6800F0AC81BA4E002B40F095813368E0
:103C3000234483F303033360002940F03182336867
:103C4000B44ADFF810B30292234483F303033360D2
:103C5000B14B0593A7E6B14B724638461968FEF79B
:103C6000D1F8D6E4AE4B19680C44002C03DD102CBF
:103C70002246A8BF10228A4200D01A60A44EA54B4B
:103C80000293A54B05938EE6A34BDFF8C8B2A04E76
:103C9000059388E63268A34BC2EBC20213445A79FB
:103CA00082F08001C90961F3C7125A719E4B01224B
:103CB000002900F0068183F82C20AAE4012B00F0F3
:103CC000F580022B7FF4FDAB9849FFF7B5BA984B0E
:103CD00098491A681444042CA8BF04246FF0040007
:103CE0008442B8BF0446A2420C6000D01C60DFF8DA
:103CF00064B2C3E7012F40F0C0803768894BF900F8
:103D0000CA1B98189A5C407802F00F0214EB10104E
:103D100002F1010200F1F5808242A8BF024602F0E2
:103D20000F02C91B0B4484485978DFF828B203906E
:103D300062F3071132E68978002943D17F49804830
:103D400001EBC211802203F0F7FA774B01221A71BE
:103D50005FE40A2F7FF71BAA3268784B01EB021150
:103D600003EBC1018B78C3F30112012A3FF60FAABE
:103D700082F0010262F305138B70FFF708BA012B82
:103D80007FF49FAB6149FFF757BA3068FDF7A2FF98
:103D900032686C4B53F82230059A1360FFF791BBE1
:103DA000A378002B3FF48EAE5E4BC2EBC2021A44E6
:103DB0009379C3F3000181F0010161F30003937172
:103DC000FFF7E5B96049DFF874E151F82210019579
:103DD00001F07F080EEBC21112010092FF20009A41
:103DE0001A4464251EF8327068F306070EF8327024
:103DF0000EEBC2020133977892F801C007F0F0078A
:103E000065F3060C6FF30517102B82F801C097704D
:103E100001F1080101F8050C01F8040C01F8030C8C
:103E200001F8020C01F8010CD9D13F4B019D012290
:103E30001A75FFF7EEBBFEF7ABFAFFF7A8B901283A
:103E400040F0C680324E374B3068C1000A1A9A5C87
:103E500002F00F0201322244002A40F3B780102AF8
:103E6000A8BF1022013A02F00F02091A374F585C1E
:103E700062F3030058542D4B59E5022F28D13268C4
:103E8000284BDFF8D0B0C2EBC20213449A7802F09C
:103E90000F010C4484F3040464F303029A70264B6C
:103EA00003931C4B02931C4B05937CE52749FFF7BA
:103EB000C3B9264F3B68042B00F00181144E1B4B05
:103EC00035E583F82420FFF7A4BB2149FFF7B4B9F7
:103ED000032F40F002813268124B17490391C2EB65
:103EE000C2021344DFF86CB09A7804EB121484F326
:103EF000020464F307129A70064B0293064B059373
:103F000051E500220DE700BF988FFF1F8C8EFF1F29
:103F1000B0A4FF1F649CFF1FD4A3FF1F348FFF1F9B
:103F20003C8DFF1F3C8FFF1F888DFF1FE08DFF1F03
:103F3000ACA4FF1FB8A3FF1FB0A0FF1FB09CFF1FC2
:103F4000A08EFF1FC4A1FF1F788FFF1FDC8DFF1FF6
:103F50002C8FFF1F40A2FF1F012B00F0BD81022B01
:103F600000F0A881032B7FF467AEA8483268835C19
:103F7000234483F3010303F0010383545CE6042B21
:103F80007FF451AEA24ADFF8ECB21368A14E23448D
:103F900083F301031360A04B0293A04B059302E54A
:103FA000012B4FD19E4B9F491A681444042CA8BF83
:103FB00004246FF004008442B8BF0446A2420C609F
:103FC00000F09A801C60DFF8ACB2ECE400224CE711
:103FD000022840F06D81944F8E4E3A68002BACBFA2
:103FE00001214FF0FF310A4402F10F031E2B3A600A
:103FF00005D83068FEF7E8F9D8F800003A68336869
:104000008A49C3EBC303CB5C03F00F030133C3F155
:104010000101914234DC013B9342A8BF13463B604F
:10402000032840F0708133688048814FC3EBC3039D
:10403000C25C04EB121181F3040161F30712C25454
:104040007C4B74E4022B6CD1059B32681B687A4967
:10405000DFF820B203EB021301EBC3014B7803F04E
:104060007F02144484F3070464F306034B709AE45C
:104070000428724B2AD0694A664E1B680592CEE42A
:104080000B46CCE73A467FE4002B60DB3FF459ADAA
:104090006B4B7F211A681C20FCF7FCFB326850E553
:1040A000012900F0E980022900F09B80032956D005
:1040B000594B0293594BDFF8BCB1059373E45D4B48
:1040C0001A68042A00F02381524E30E41B68042B46
:1040D00006D0524A4F4E0592A1E4DFF898B1DEE6D1
:1040E000584ADFF890B113684A4E234483F3010322
:1040F00013604A4B059356E4DFF878B153E4089B0C
:104100001A469DF85C301370FFF791B932681B684E
:10411000494903EB021301EBC3010B18FF22DA70CC
:104120007BE4032BE8D1059B32681B684249DFF82A
:1041300044B103EB021301EBC3018B7803F00F02D0
:10414000144484F3040464F303038B702BE43C4BAA
:1041500000211A681C20FCF79DFB3268F1E43A4FFD
:10416000D7F80080204607F045FE414607F08EFD57
:104170003649044608F030F8002830D1344920464A
:1041800008F048F800B1324C324B414620461C60E2
:1041900008F018F800288BD120462F493C6007F022
:1041A0007DFE01462D482E4CDFF8C8B007F02AFFEF
:1041B00008F060F82B4B2C4A18601B6803EB430394
:1041C000DB001360106807F011FE284907F066FE57
:1041D000114B0293114B20600593FFF7E4BB1B4C7E
:1041E000D2E73368114A2249C3EBC3031A4450791A
:1041F00000F07F032344632BA8BF632323EAE37308
:1042000063F3060050710B7052E700BF248FFF1F4D
:10421000809CFF1FB0A4FF1F649CFF1FD4A3FF1F3F
:10422000ACA4FF1FB8A3FF1FF0A1FF1F3C8FFF1F0F
:10423000DC8DFF1FE08DFF1FB09CFF1F608DFF1FF7
:104240003C8DFF1FE4A1FF1F548DFF1F0000204283
:104250000000964340A1FF1F0000C042C0E1644C33
:104260009CA3FF1F44A2FF1F5CA4FF1F6F12833A91
:1042700075A2FF1F40A2FF1F3068934900015FFA3B
:1042800084FC002200EB020E013211F83E30C3F331
:104290000607674467F30603102A01F83E30F1D1A0
:1042A0008A4ADFF854B21368234403F3060371E625
:1042B000874EB5E63268874BC2EBC20213441879C9
:1042C00000F00F022244062AA8BF062222EAE27268
:1042D00062F303001871AFE437687E4BF800C21B2D
:1042E0009A5C02F00F0201322244002A1BDD102AE0
:1042F000A8BF1022013A02F00F02C01B1F5C62F33C
:1043000003071F5498E4744F744BFFF710BB7449B4
:104310006F4E0A682244022AA8BF022222EAE272F1
:104320000A60FFF704BB0022E7E76E4B1B78002B07
:1043300027D16D486D4903681E936D4A1E9B09681D
:1043400012685B1A9A4255D203681F931F9B14325E
:10435000591A8A424ED901238BF80030049B1B78EE
:10436000002B54D0634B1B68002B75D0012B00F041
:104370008180089B1B78002B5DD1039B1B78002B51
:1043800063D19BF8003053B914E0FDF7C9F99BF8ED
:104390000030594C73B1534B187800282FD0524C31
:1043A000564D23682093564A209B296812685B1A51
:1043B0009A4214D30B9B534C1B7853B9FCF7D0F99A
:1043C0000028FBD1FCF7ECFE0028FBD123B0BDE8B0
:1043D000F08F4D4800F094FC00232370EEE74B482B
:1043E00002F0CEFB23682193219B2B6000238BF8E6
:1043F0000030DFE79BF80030002BDBD0AEE7444B0A
:104400001968FEF739FC2378002BC8D1D2E7089B46
:104410001B7883B9039B1B78002BAED13D4B1B68E7
:10442000002B39D0012B43D0FEF7A4F8049B1B7856
:10443000002B9ED096E72A4B1B68ABB1012B1FD0F7
:10444000022B23D0FEF796F897E704210820FEF709
:1044500013FCFEF78FF894E72F4B04201968FEF742
:104460000BFC089B1B7886E72C4B05201968FEF790
:1044700003FCE7E72A4B03201968FEF7FDFB78E70A
:10448000154B06201968FEF7F7FBDBE7134B0720F7
:104490001968FEF7F1FBD5E7224B01201968FEF7FA
:1044A000EBFBC1E79DF840308BF80030FEF7C3BF4F
:1044B0001D4B02201968FEF7DFFBB5E70F92109243
:1044C0000A921792FEF7A4BFB09CFF1F749CFF1FB7
:1044D000B0A4FF1F3C8FFF1FDC8DFF1FE08DFF1F6F
:1044E00094A4FF1F74A2FF1F40AAFF1F609CFF1F20
:1044F000988EFF1FE4A1FF1F40A2FF1FB0A3FF1F64
:10450000308FFF1F63A4FF1F289CFF1FB09AFF1F5F
:10451000588DFF1F809CFF1F608DFF1FD88DFF1FD0
:104520002C8FFF1F988FFF1F8C8EFF1F70B5184DAB
:1045300082B0284602F018FAB5F90C1001291FDDE7
:104540000022012694B26300688901969BB2C91AC1
:1045500009B2C31A1BB200910D48114601F0E8FAE6
:104560000B4802F00DFB012003F046FDB5F90C10DD
:10457000023401EBD17322B243F34F039342E1DCE7
:104580004FF4FA7002B0BDE8704003F035BD00BFD3
:10459000B09AFF1F2DE9F0477D4A7E4B12687E4D91
:1045A0007E4C7F4F7F4E82B00192019A1A6003F0D9
:1045B00001FD7D4B186003F0FDFC7C4A7C4B1060D4
:1045C0007C49186807F06AFC01467B4807F01AFD31
:1045D00007F050FE794B7A4A18601B6803EB4303DF
:1045E000DB001360106807F001FC764907F056FC09
:1045F000286003F0DFFC206003F0DCFC724BD4F891
:1046000000E0186002250023C3EBC302324407EB2D
:1046100003111479C1F804E0013365F30304082B96
:1046200014718860F0D10D2003F032F80024DFF817
:10463000D481664FDFF8D0A14FF084492646382058
:1046400005F0F4F85F4B01220021054600F01CFD47
:104650004AF8246001344FF40053052C48F8045BF9
:10466000C5F8109047F8046B6B60E8D1FCF702F8CE
:104670000121172003F098FC554C564D0C23184689
:10468000237003F06DFC207806F0B4FF02460B4661
:1046900000204FF0804105F0AFFD07F0D1FA4E4BFE
:1046A00028804022002128201A6003F05BFBFEF7DF
:1046B00087F9002868D14949494A4A4B08604A4E5F
:1046C0000221117001271525162417201821072211
:1046D00037601D605C609860D9601A61FEF7C4F8AD
:1046E000424C434DFBF7E6FE2846A56002F03CF93C
:1046F000FFF71CFFC82003F07FFC284602F034F9C6
:1047000004F10800012100F0FDFF002104F1080080
:1047100000F0FAFFFEF702F8364800F0E3F93648F9
:1047200000F09AFA344800F0EBFA3221324800F0F7
:104730006DFC0024A1B2314A2F4800F0C3FB2E4883
:1047400000F0DEFA0134052003F056FC1B2CF1D1F9
:104750000520FDF7B9FF4FF4FA7003F04DFC00227D
:1047600023461146244800F0B3FB234800F0C8FA62
:10477000642003F041FC1E4802F002FA204B0122A3
:104780001A7002B0BDE8F087FEF76AF9A8E700BF2B
:1047900040AAFF1F609CFF1F9CA3FF1F90A4FF1F48
:1047A000DCA3FF1F3C8FFF1FB4A3FF1F7C9CFF1FD8
:1047B000548DFF1F0000C042C0E1644C44A2FF1FA3
:1047C0005CA4FF1F6F12833A98A3FF1F78A4FF1FFA
:1047D00038A1FF1F60A4FF1FAC9CFF1FB0A4FF1FE8
:1047E000208FFF1F408DFF1F3C8DFF1FF4A1FF1F77
:1047F000B09AFF1F78A2FF1F289CFF1F80808000B7
:1048000040A2FF1F60A2FF1F64A4FF1FF0B4002599
:104810009DF810702C4602E00134202C10D0465D2B
:104820001435002EF8D104EB8404A40006190125E8
:104830000555284671603361B2603773F0BC70472C
:104840000020F0BC704700BFF8B50E4600F1100420
:1048500000F52475002702E01434AC4215D014F89A
:10486000103C002BF8D02368B342F5D854F8082C3C
:1048700054F80C0C0021FBF7E5FF14F8043C2BB9AD
:1048800004F8107C1434AC42E9D1F8BD00211720A3
:1048900003F076FBF4E700BF4FF0FF31FFF7D4BF22
:1048A000F0B400259DF814702C4602E00134202C51
:1048B00012D0465D1835002EF8D104EB4404E40014
:1048C0000619012505557160049971612846B36088
:1048D000F2603774F0BC70470020F0BC704700BF36
:1048E0002DE9F0410E4600F1140400F5457500274E
:1048F00002E01834AC421BD014F8143C002BF8D062
:104900002368B342F5D854F80C2C54F8081C54F81A
:10491000100CFBF76FFF14F8043C23B154F8100C93
:104920001838352806D904F8147C1834AC42E3D181
:10493000BDE8F08107F05EFA084907F0AFFA05F02C
:1049400037FC01218046172003F01AFB404607F090
:104950006BFC0146282003F005FAE4E790759242CB
:10496000002308491A46CA541433B3F5207FFAD1FC
:10497000002305491A46CA541833B3F5407FFAD1CB
:10498000704700BFB8A7FF1FB8A4FF1FF8B50446C3
:104990000E46154600214FF4807210301F4607F076
:1049A000D7FF069BC4F818310022079BC4F81021DA
:1049B00026606560A760C4F81C31E260C4F8142169
:1049C0002046F8BD10B50446C06808B107F000FDE8
:1049D000204610BD2DE9F843D0F81C31002B7EDDB8
:1049E00004460025A3680121585D03F0C9FAD4F8F4
:1049F0001C310135AB42F5DC002B6EDD0026B046E4
:104A00000127A3680021985D03F0BAFA4FF44873B8
:104A1000013BFDD1D4F81831002BC8BF4FF000097D
:104A20002EDC4EE0990724D5D4F81011D4F81401E7
:104A30000131C9B203F0FD03814243F0080306D0FF
:104A4000D4F81001204480F81080C4F81011D4F874
:104A50001001D4F814110130C0B2884209D0D4F842
:104A6000101104EB010E2168495D8EF81010C4F896
:104A700010015355D4F8183109F101094B4520DDD7
:104A80006368D4F81C5113F8090003F07FFA05FBA2
:104A90000965E268535DDBB20028C3D19807E8D40A
:104AA000D4F81011D4F814010131C9B2814243F095
:104AB0000603CCD0D4F8100120440774C4F81011B8
:104AC000C5E7A3680121985D03F05AFAD4F81C31B8
:104AD0000136B34295DCBDE8F883BDE8F883BDE854
:104AE000F88300BF70B5D0F81851D0F81C610446A7
:104AF000012106FB05F007F0DDFB002EE060C8BFDA
:104B0000002510DDA3680121585D03F04DFAA3686C
:104B10000121585D03F034FAD4F81C310135AB4261
:104B2000F0DCD4F81851002DC8BF00250ADD6368F9
:104B30000221585D03F038FAD4F818310135AB4240
:104B4000F5DC70BD70BD00BFD0F81031D0F8140195
:104B50001B1A4CBF03F5807018464010704700BF09
:104B6000D0F81421D0F810319A4220D0D0F8142176
:104B7000D0F8143102440133DBB2117CC0F8143197
:104B8000D0F81421D0F810319A4218D0D0F814215E
:104B9000D0F8143102440133127CDBB2C0F8143176
:104BA0004FF0000062F3070061F30F207047D0F868
:104BB0001421D0F810319A424FF0FF01E6D1FF22C4
:104BC0004FF0000062F3070061F30F20704700BF51
:104BD000037AF0B5160C150AF6B2EDB25FFA82FE52
:104BE0005BB103FB06F603FB05F503FB0EFEC6F304
:104BF0000726C5F30725CEF3072EC77C047CBC42ED
:104C000014D0C46804EB8101120E0F444BB9D3B227
:104C10003B70077CCE55437CCD54837C01F803E088
:104C2000F0BD03FB02F3C3F30723F1E7C36801EB15
:104C300041011944EEE700BF10B50446C06807F013
:104C4000C7FBB4F90600002803DBC0B2002103F063
:104C5000ABF9204610BD00BF10B50446B0F9060000
:104C6000002807DBC0B2012103F09EF90021A079E2
:104C700003F086F90123637010BD00BF38B5044608
:104C8000C0680D4607F0A4FBE37C207C83420CBF88
:104C90000320042010FB05F080B2A080012107F062
:104CA00009FBE06008B1658038BDA080608038BD38
:104CB000F0B4077CC47CC568C1F38106FF29A4EB6E
:104CC0000704C1F3811201F003074674B4FA84F4B7
:104CD0008CBF00260126C1F30111C27464098774D8
:104CE000067001744DB1511AB1FA81F14909A1421E
:104CF00003D04188F0BCFFF7C1BFF0BC704700BFD4
:104D00002DE9F843C368002B57D04569044603F0EA
:104D100051F9854202D903F04DF9606103F04AF977
:104D20006569401BB0F5967FF1D372B64649B4F978
:104D300006500B684548464A50F83500E668A78893
:104D4000257843F080730B60136843F00103374408
:104D50001360A5B3A1F55D41F8390A68BE4202F1BE
:104D600096021FD289464FF0010C16F8018B4FF0C6
:104D7000080E80250B689B1A952BFBD918EA050FA6
:104D8000D9F8002080F880C055D00B689B1A5F2BA3
:104D9000FBD9BEF1010E80F800C14FEA5505E9D1FB
:104DA000B742E2D12B490B689B1A952BFBD962B60F
:104DB00003F000F96061BDE8F883BDE8F883254998
:104DC0000A68BE4202F5967220D289464FF0010C65
:104DD00016F8018B4FF0080E80250B689B1AB3F56F
:104DE000967FFAD318EA050FD9F8002080F880C022
:104DF00018D00B689B1A8F2BFBD9BEF1010E80F8DF
:104E000000C14FEA5505E8D1B742E1D111490B681D
:104E10009B1AB3F5967FFAD362B603F0CBF86061C4
:104E2000BDE8F8830B689B1A3B2BE6D80B689B1AEE
:104E30003B2BF7D9E1E70B689B1A1D2BA9D80B6810
:104E40009B1A1D2BF7D9A4E7FCED00E09C1F010085
:104E5000001000E0041000E038B543786BB1044660
:104E6000B0F9060000280D4609DBC0B2002103F0AE
:104E70009BF86378E5801BB938BDC18038BDE180FF
:104E8000EDB22846012103F08FF828460021BDE845
:104E9000384003F075B800BF70B5002504460E46D3
:104EA000457019460572C56045611546FFF700FF5C
:104EB00031462046FFF7E2FE20462946FFF7CCFFA9
:104EC000204670BD43888B4201D9FFF781BE7047F1
:104ED000F8B514464288A24215D906460F469BB93A
:104EE0001546134604E00134A4B2AC420BD27388D9
:104EF000A342F8D9214601343A463046A4B2FFF71E
:104F000067FEAC42F3D3F8BDE518ADB2954228BFB9
:104F10001546AC42E5D3F8BD40F2FA5303FB00F06E
:104F200000F500400014B0F5FF7F10B422DAFE282F
:104F300044DDC0F1FE034C1CDBB204FB03F3C4EB05
:104F400004241B1224120020C943C9B201320C44AC
:104F50000B44084402FB04F402FB03F304F47F4413
:104F60001B0202FB00F244EA122003F47F03184301
:104F700010BC7047B0F57F7F84B20DDAB4F53F7F87
:104F800026D8831C4C1CDBB204FB03F3C4EB0424C3
:104F9000181224120023D7E79C4225D040F2FA438E
:104FA0009C4228D9C0F1FA004B1CC0B203FB00F0B0
:104FB000C3EB032300121B120024C5E74B1CC0B235
:104FC00003FB00F0C3EB032304121B120020BBE71A
:104FD000C0F1FC004B1CC0B203FB00F0C3EB032389
:104FE000041218120023AFE74B1CC3EB032300206D
:104FF0001B120446A8E7031DDBB2481C00FB03F3A9
:10500000C0EB00201B12001200249DE770B44E1C60
:10501000047AF6B2A64213D0013C14F0FF04C5682E
:1050200010D183882A4653B1137804FB03F31B1273
:1050300002F8013B531B81889BB29942F4D8067257
:1050400070BC7047FF2905D03302013B93FBF4F499
:10505000A4B2E6E74FF6FF7393FBF4F4E1E700BF79
:1050600010B483B002AB074C43F8040D02A91A78C0
:10507000A25C03F8012B8B42F9D1019803B010BC5C
:10508000704700BF68D100002DE9F04704460F4685
:105090004FF4806100264FF0814061605FFA87F82D
:1050A00001214FF000092061217540463146C4F8C6
:1050B000209084F8246092461D4602F075FF314628
:1050C000404602F05DFF276084F80CA028464FF0B0
:1050D0007E5107F09FF828B14FF07E55A56020461D
:1050E000BDE8F0874946284607F076F80028F5D055
:1050F0004D46A5602046BDE8F08700BF037B2DE943
:10510000F04704460D46002B41D0037D0846002B96
:1051100040F0988006F06EFED4F810800646A7692D
:105120003046394606F0B0FD0021054607F072F81A
:10513000002800F0C880284607F09CF8266A8146BF
:105140003146284606F0A0FD604906F0A7FE31462C
:1051500006F09CFD00212062064607F05BF800285F
:1051600000F0AE80414630464FF0010A07F034F8B7
:1051700008B94FF0000A84F824A04146304607F0F1
:105180002BF810B3384607F04FF8BDE8F087A76951
:10519000084606F02FFE394606F076FD002105464A
:1051A00007F038F8002871D105F1004007F062F8E7
:1051B000266A81463146284606F066FD434906F0D8
:1051C0006DFE314606F062FD2062484606F00EFE96
:1051D000A16806F063FE4FF07E5106F057FD0146D0
:1051E0004FF07E5006F00EFF01464FF07E5006F065
:1051F0004BFD014606F04AFD4FF07E51064607F092
:1052000009F800284AD04FF07E50294606F046FEA5
:10521000394606F03BFD00263146A061054606F002
:10522000DBFF00283CD16068013806F0E3FD06464C
:105230000146284606F0EEFF50BB284606F0F4FF74
:10524000BDE8F08706F0D6FDD4F81080414606464A
:1052500006F0C2FF40BB6768384606F0CBFD41460A
:1052600006F012FD0146304606F0D4FF00283FF458
:1052700056AFC7EB450006F0BDFD414606F006FD02
:1052800006F0D2FF06F0B6FD064648E728468DE751
:10529000A661304606F0C8FFBDE8F0873046B4E7A7
:1052A000A6610020BDE8F087680006F0A3FD414636
:1052B00006F0EAFC06F0B8FF06F09CFD06462EE775
:1052C00006F100464EE705F1004035E7CDCCCC3E77
:1052D000C36A10B504460363FFF710FF236BE06257
:1052E0001B1A18BF012384F8343010BD4318405CEA
:1052F0005B7803EB002080B2704700BF012B0BD01E
:1053000007D3022B02D1801A00B27047401A00B2B4
:105310007047104400B27047084400B2704700BFA5
:10532000012B0BD007D3022B02D1401A00B27047D9
:10533000104400B27047084400B27047801A00B2AF
:10534000704700BFF0B40D780668AB183478DBB254
:10535000072B44FA05F40AD9771C0760C5F1080544
:105360007078EDB200FA05F5083B2C43DBB2012062
:105370009040E4B2013820400B70F0BC704700BF91
:1053800010B50A460C4600F11001FFF7DBFF013CA7
:105390000123E4B203FA04F4001B40B210BD00BFC5
:1053A00070B505460023816005F8183F00F1080636
:1053B000044690F8202029463046FFF7C3FF2946CF
:1053C000A07594F821203046FFF7BCFFE07570BD52
:1053D00010B50B7803704B7843708B788370CB7863
:1053E000C3700B7903714B7943718B798371CB79DE
:1053F000C3710B7A03724B7A43728B7A8372CB7AC6
:10540000C3720B7B03734B7B43738B7B8373CB7BAD
:10541000C3730B7C037402460C4608461121FFF748
:1054200065FF132150822046FFF760FF152190820F
:105430002046FFF75BFFD08210BD00BF70B49DF81F
:105440000C40BDF81050032C26D8DFE804F01E17DE
:105450000C02006804680395A46BD21A0132A446BA
:1054600012B270BC6047006806680395C3F101047E
:105470002144F46B09B2A44670BC6047006804681C
:105480000395A46BA44670BC60470068046803954C
:10549000E46BA44670BC604770BC70472DE9F04FC8
:1054A00087B005460F4690F8148090F815A0059235
:1054B0000DE06B7E002B47D0A7420AF10103A7EB5A
:1054C00004043AD3E7B25FFA83FA4FF0000895F884
:1054D0001A90B5F90E30AC7D03934FFA88F64FFA67
:1054E0008AFB31464B465A46B5F90C00FFF718FFC8
:1054F000C8EB0404E4B2A742049031464B463E4652
:105500005A4628BF26460398FFF7F8FE002ED3D050
:10551000059B002BCDD0B5F810E0CDF800903346B8
:1055200002460499CDF804E02846FFF787FFA7421A
:105530000AF10103A7EB0404C4D247442F7585F890
:1055400015B007B0BDE8F08FB5F812E0E5E700BF91
:105550002DE9F047044600F10805FFF721FF94F814
:10556000221094F917902846FFF70AFF94F82310A9
:1055700007462846FFF704FF94F8241006462846FD
:10558000FFF7FEFE94F91630002B82463ADD4E44BA
:1055900094F81A80B4F90C00764276B2324643464B
:1055A0003946FFF7BDFE3246A0814346B4F90E00EE
:1055B0003946FFF7A3FE0023E0812375637504F1EC
:1055C0001806A27F31462846FFF7BCFEE27F8046E0
:1055D00031462846FFF7B6FE0746002241462046E0
:1055E000FFF75CFF012239462046FFF757FF0122F3
:1055F00031462846FFF7A6FE0028EED194F9153073
:105600004B45DEDB5046BDE8F08700BF38B5436848
:10561000FF2903F1170310D8602932D8402984BF2D
:10562000C28D9B18587818B92AE00344587868B39B
:105630001A788A42F9D1981C38BD428E1A440D4618
:10564000144610460021FFF751FE02210444104683
:10565000FFF74CFE854202F10402F2D8207862780E
:1056600052EA00200CD0854202D10DE09D420BD0C1
:10567000A3781C442078637853EA0023F6D11846B7
:1056800038BD028E1344CDE7E01C38BD38BD00BFE5
:1056900038B50446FFF7BAFFC0B104F1080501466A
:1056A0002046FFF77DFE94F822102846FFF768FE9B
:1056B00094F8231084F834002846FFF761FE28464A
:1056C00094F82410BDE83840FFF75ABE38BD00BF3B
:1056D0004176704710B58181C28119460446FFF7B3
:1056E00095FF20B101462046FFF732FF00B210BD02
:1056F00042688A4205D00022416042761C30FFF7A2
:1057000067BE7047018270474182704719B94FF6F2
:10571000FF710846704790F8463063B9FB291ED9DF
:10572000052301F0010180F84630A0F844104FF63F
:10573000FE7108467047B0F8442001F03F0141EA8D
:105740008211013BDBB289B24FF6FE72A0F8441021
:10575000002B18BF114680F8463008467047F729DD
:1057600005D9042301F0030180F84630DDE7EF2975
:1057700005D9032301F0070180F84630D5E7DF297A
:1057800005D9022301F00F0180F84630CDE7BF298B
:1057900005D9012301F01F0180F84630C5E789B221
:1057A000B7E700BF00232DE9F04706461C464D1E13
:1057B000837780F846309A4600F108084FF6FF7765
:1057C0004FF6FE7915F8011F3046FFF79FFF03469D
:1057D000BB420146404608D04B45F3D0FFF758FF87
:1057E000044424B20FFA80FAECE796F91E3033B184
:1057F00096F93C0003441C44CAEB040004B2204662
:10580000BDE8F0872DE9F04F85B09946BDF93870B5
:10581000BDF83CA0BB1AC1EB090B002BB8BF5B4223
:10582000BBF1000FB8BFCBF1000B5B450D46164630
:105830000093804648DC4D453A4633464CDC1946D9
:1058400013460A46C5EB09019B1A89B2002B0CB21C
:10585000B8BF5B4204EBD474BE42ACBF4FF0FF3222
:1058600001224D45039102924FEA640429DC9BB268
:1058700001930DE0D8F80070BF69B847019BE41AA6
:10588000A3B21CB20135002C2DB211DBA94518DBE7
:10589000009B5B452A46534631464046EADCD8F831
:1058A000002053469769294632464046B847E5E707
:1058B000029A1644039AA94502EB030436B224B2B5
:1058C000E6DA05B0BDE8F08F4A462B46B9463546C4
:1058D0004D4517461E46B2DD304629463E464D46EA
:1058E00007468946AEE700BF10B404682469A446A1
:1058F00010BC604730B40468BDF808500295A46B32
:10590000A44630BC604700BF30B40468BDF80850FE
:105910000295E46BA44630BC604700BF70B40468D5
:10592000BDF90C60BDF8105003960495246CA44694
:1059300070BC6047704700BF10B582B0B0F90C2052
:1059400001910168009200220C6CB0F90A301146F6
:10595000A04702B010BD00BF704700BF01F00301B7
:105960000129017606D0032904D0C2880389428127
:10597000838170470289C38842818381704700BF59
:105980002DE9F0410568134E6F6986B0B7420446B1
:10599000BDF8308010D1013B13441BB20093CDF809
:1059A00004800B46AD6A2046A8472368DB6AB342F1
:1059B0000AD106B0BDE8F081059304920391B8477F
:1059C00003A925680EC9E6E7204606B0BDE8F04108
:1059D000184700BF355900002DE9F0410568124E07
:1059E0006F6986B0B7420446BDF830800FD1013BE5
:1059F000CDF804800B4400921BB2AD6A2046A84744
:105A00002368DB6AB3420AD106B0BDE8F081059392
:105A100004920391B84703A925680EC9E7E7204619
:105A200006B0BDE8F0411847355900002DE9F04FA8
:105A30000568DFF858B06F6985B05F450646BDF967
:105A40003890BDF83CA00C46904615D11F19BC42B9
:105A50000CDACDF800A0214601342D6A4B464246AF
:105A6000304624B2A847BC423568F2DBEB6A5B459E
:105A700007D105B0BDE8F08F0393B8473568039BA5
:105A8000E4E7304605B0BDE8F04F1847355900004F
:105A90002DE9F04387B099420546BDF93840BDF87D
:105AA0003C6025D0A24212D00768DFF88080D7F88A
:105AB0001490C14532D18DE850002846BC6AA047F9
:105AC0002B68DB6A434524D107B0BDE8F0839942D7
:105AD00002DD08461946034628680E96C46B01335A
