:1000000000800020BD010000757300002D7300000A
:100010002D7300002D7300002D7300002D73000060
:100020002D7300002D7300002D7300007573000008
:10003000757300002D730000B5900000B9900000AA
:100040007573000075730000757300007573000010
:100050007573000075730000757300007573000000
:1000600075730000757300007573000075730000F0
:1000700075730000757300007573000075730000E0
:1000800075730000757300007573000075730000D0
:1000900075730000757300007573000075730000C0
:1000A0008D6D0000996D0000757300007573000080
:1000B00075730000757300007573000075730000A0
:1000C0007573000075730000757300007573000090
:1000D0007573000075730000757300007573000080
:1000E0007573000075730000757300007573000070
:1000F00075730000759A0000757300007573000039
:10010000757300007573000075730000757300004F
:10011000757300007573000075730000757300003F
:10012000757300007573000075730000757300002F
:10013000757300007573000075730000757300001F
:10014000757300007573000075730000757300000F
:1001500075730000757300007573000075730000FF
:1001600075730000217C000075730000757300003A
:1001700075730000757300007573000075730000DF
:1001800075730000757300007573000075730000CF
:1001900075730000757300007573000075730000BF
:1001A00075730000757300007573000075730000AF
:1001B000757300007573000075730000564B4CF2A8
:1001C000205210B51A804DF628121A8000BF00BFC9
:1001D00007F0D4F8514B4FF010621A60504A9A6001
:1001E000504ADA60504A136813F4807304D14F49BF
:1001F0000B604FF4A85313604D4B1A78110703D5C9
:100200001A7842F008021A704A4B4B492A221A7097
:100210004A4A4B4B8B4204D252F8040F43F8040B6A
:10022000F8E7484B484900228B4202D243F8042B9E
:10023000FAE74649464A002352F8230041F82300D2
:1002400001336F2BF8D1434B434A802103F8011B44
:100250009342FBD1414B3D4A1A60414B8A221A70AE
:10026000A3F5805324225A70A0221A709A7992071B
:10027000FCD59A79D406FCD43A4A937903F00C035E
:10028000082B384BF9D103221A7146225A719A79F8
:100290009006FCD5334A9179324B4906FBD5324A58
:1002A0004FF0827111600921516020221A709A79F1
:1002B00002F00C020C2AFAD12C4B2D4A1A602D4B5D
:1002C0002D4A1A6000225A60072243F8042C2B4A58
:1002D000C3F80C2D62B607F059FB144B1B68DA0704
:1002E00005D5274807F0A8F9264B274A1A60274B5F
:1002F0001B785B0609D5234C234B22689A4204D114
:100300001F4807F099F9002323600BF05BFD07F00D
:100310003BF808F0C7FFFEE70E20054030800440A0
:10032000823F04000100002B10D0034014D0034092
:1003300002D0074000E0074024A7FF1FF81B010080
:100340004088FF1F24A7FF1FE4B8FF1F0082FF1F84
:100350000000000000E400E05FE400E008ED00E0E1
:1003600000500640004006404480044004800440A1
:10037000C010050014E000E0BFD401000000202000
:1003800083A878601CE00340A5C3945A00F007409E
:10039000FFFFFFFFFFFFFFFFFFFFFFFFFFFFFFFF6D
:1003A000FFFFFFFFFFFFFFFFFFFFFFFFFFFFFFFF5D
:1003B000FFFFFFFFFFFFFFFFFFFFFFFFFFFFFFFF4D
:1003C000FFFFFFFFFFFFFFFFFFFFFFFFFFFFFFFF3D
:1003D000FFFFFFFFFFFFFFFFFFFFFFFFFFFFFFFF2D
:1003E000FFFFFFFFFFFFFFFFFFFFFFFFFFFFFFFF1D
:1003F000FFFFFFFFFFFFFFFFFFFFFFFFFFFFFFFF0D
:10040000FFFFFFFFFFFFFFFFFFFFFFFFDEF9FFFF23
:1004100010B5054C237833B9044B13B10448AFF33E
:1004200000800123237010BD24A7FF1F00000000DF
:10043000F41B0100084B10B51BB108490848AFF385
:1004400000800848036803B910BD074B002BFBD0A0
:10045000BDE81040184700BF0000000028A7FF1F9C
:10046000F41B010024A7FF1F0000000010B584B09A
:100470000A4C0B4B02930B4A01924FF0FF3300934F
:100480002046094B2022802105F04CFC074A0849F0
:10049000204604B0BDE810400AF0A8BC40A7FF1FEA
:1004A000801A060040420F002C9CFF1F1C89FF1F72
:1004B0007D5D000030B5094C83B0012520460095D4
:1004C0002B463C22022105F0AFFD20460221A576F5
:1004D00003B0BDE8304004F077BF00BF40A7FF1F66
:1004E00070B5CEB2044680E80600D5B2304602218F
:1004F00007F0D6F90221284607F0D2F9304607F076
:10050000C1F9A060284607F0BDF90023E06023612F
:100510006361204670BD00BF30B5044683B00078EB
:1005200007F0B0F90546207907F0ACF9A3689D42C1
:10053000E36824D0984231D0A560E060ADB1A0B1AD
:100540002369012B37DD0023236101221E4B6169E2
:100550001B680193019B63615B1A132B32D9312B0A
:100560008CBF002301231BB201E00022134692B28C
:10057000002062F30F0063F31F4003B030BD9842C8
:10058000F3D02369A56085420CBF01224FF0FF32F2
:1005900013442361E060002DE7D0D0E72369A56014
:1005A000854214BF01224FF0FF3213442361E06003
:1005B000002DDAD0C3E7002201332261D5DA4FF0F3
:1005C000FF32C3E70223D2E75CB5FF1F10B5044634
:1005D0000160C8B2022107F063F900234FF0FF3138
:1005E000032261602273A3602361204610BD00BF17
:1005F00010B5044682B0007807F044F96368984269
:100600001A4B08D01B680093009B60603233A360D4
:10061000002002B010BD1B680193A268019B9A42A2
:1006200009D8217B4A1E032A05D8DFE802F00F0211
:100630000707012818D0002002B010BD0028FAD109
:1006400003F2E243012023612073E2E730B1012885
:10065000F1D1032088422073DBD1ECE722699A4272
:10066000E9D202202073D4E70420F3E75CB5FF1F32
:10067000704700BF10B5184C636D1868036882B0EE
:10068000DB6947F612219847144B1B680193012040
:10069000019BC4F8003100FA00F200234FF6FF710D
:1006A000024384F8580084F8702084F85A3084F8A3
:1006B00059306366236684F8F83084F8753084F81E
:1006C000743084F8763084F87730C4F8FC30A16652
:1006D000E16602B010BD00BFA8A7FF1F5CB5FF1FF9
:1006E00010B54FF60F0008F0C7F8044B5B6D1868A3
:1006F0000368F8211B68BDE810401847A8A7FF1F32
:1007000010B54FF60F2008F0B7F8044B5B6D186872
:100710000368FA211B68BDE810401847A8A7FF1F0F
:1007200010B54FF60F3008F0A7F8044B5B6D186852
:100730000368FB211B68BDE810401847A8A7FF1FEE
:1007400010B54FF60F4008F097F8044B5B6D186832
:100750000368FC211B68BDE810401847A8A7FF1FCD
:1007600008B5002008F0ECF8003018BF012008BDE3
:100770002DE9F041E0290C469DF8185008D8013DBC
:10078000EDB20F2D02D849B2002912DBBDE8F0818D
:10079000F729FBD90834E4B2012303FA04F414F076
:1007A000DD0FF3D0436D18680368BDE8F0411B68A6
:1007B00018471F46436D8046186803682943C9B22D
:1007C0001B6816469847D8F854301868036806F036
:1007D0007F011B6804F0EF049847C02CD6D0D8F8EE
:1007E00054301868036807F07F011B68BDE8F041CA
:1007F000184700BF2DE9F0415FFA82F80C0608F1B6
:10080000FF3504F0FE4444F410442D02064605F47E
:10081000706544F00904000482B02C4300F4FE002B
:100820000F46204308F028F8CDF80080FBB2F2B262
:1008300090210348FFF79CFF02B0BDE8F08100BFA4
:10084000A8A7FF1F2DE9F0415FFA82F80C0608F116
:10085000FF3504F0FE4444F400442D02064605F43E
:10086000706544F00804000482B02C4300F4FE00DC
:100870000F46204308F000F8CDF80080FBB2F2B23A
:1008800080210348FFF774FF02B0BDE8F08100BF8C
:10089000A8A7FF1F2DE9F0415FFA82F80C0608F1C6
:1008A000FF3504F0FE4444F430442D02064605F4BE
:1008B000706544F00B04000482B02C4300F4FE0089
:1008C0000F46204307F0D8FFCDF80080FBB2F2B20C
:1008D000B0210348FFF74CFF02B0BDE8F08100BF34
:1008E000A8A7FF1F036810B504460BB174309847E2
:1008F00094F87530803B7F2B00F28580DFE813F0A1
:100900008A008300830083008300830083008300C8
:1009100083008300830083008300830083008300BF
:10092000960083008300830083008300830083009C
:10093000830083008300830083008300830083009F
:100940009A00830083008300830083008300830078
:10095000830083008300830083008300830083007F
:100960009E00830083008300830083008300830054
:10097000830083008300830083008300830083005F
:10098000A200830083008300830083008300830030
:10099000830083008300830083008300830083003F
:1009A000AC00830083008300830083008300830006
:1009B000830083008300830083008300830083001F
:1009C000B0008300830083008300830083008300E2
:1009D00083008300830083008300830083008300FF
:1009E000C4008000D100E10083008300E90083009F
:1009F000ED00F100F500F900FD0083000101840025
:100A0000A36A002B60D110BD236D002BFBD0BDE885
:100A100010401847A368002BF5D094F8772094F87D
:100A2000761094F87400BDE810401847E368002B76
:100A3000F3D1E8E72369002BEFD1E4E76369002BEA
:100A4000EBD1E0E7A369002BDDD094F8761094F8A1
:100A50007400BDE810401847E369002BF5D1D2E7D8
:100A6000226A002ACFD094F8771094F8763094F860
:100A70007400C90101F47E5103F07F031943A1F50D
:100A80000051BDE810401047636A002BBBD0B4F89A
:100A90007610802904F1780028BF8021BDE810403D
:100AA0001847E26A002AAED094F8773094F87600BE
:100AB000DB0103F47E5300F07F001843BDE81040D3
:100AC0001047236B002B9ED094F87600BDE81040B1
:100AD0001847636B002B9AD195E7A36B002B96D137
:100AE00091E7236C002B92D18DE7E36B002B8ED125
:100AF00089E7636C002B8AD185E7A36C002B86D134
:100B000081E7E36C002B82D17DE700BFF8B5436D30
:100B10000446186803681B69984708B90020F8BDA7
:100B200094F80D31626D23F0010384F80D311068E3
:100B300003685B699847C3B2FD2BEFD0626E002A51
:100B400049D001067ED494F85B10F0295FD0F729D4
:100B50005DD0A11881F85B30216E4B1E9A4253D3B1
:100B600094F85B30F02B00F00A82F72B00F007823C
:100B70001A0650D4002284F87520B02A5CD0A02A2E
:100B80005AD0D02A58D0E02A56D0C02A54D00020BB
:100B900084F87400032994F85C0008BF94F85D5051
:100BA00084F8760018BF002500210120B02A84F8BF
:100BB00077506166216684F8F80008D000F2D5818C
:100BC000902A04D0A02A02D0802A00D0002384F8E2
:100BD00059300120F8BD94F8592084F85B3015068F
:100BE0004DD440B20028C0F20E8294F90D01636822
:100BF00040F0010084F80D0103B19847002084F80B
:100C0000590060662066F8BD0132626686E7A11869
:100C100081F87830A0E703F10C02D2B2012AA9D9F9
:100C2000FD2BA7D0EF2B00F2EC8103F0F002802A1D
:100C300084F8752040F0EF8103F00F00013084F854
:100C40007400A7E7A3F1F0010F293FF67CAF012064
:100C500000FA01F111F0810540F0B18111F45F4F0C
:100C60003FF471AF84F8765084F8775084F874506C
:100C700084F87530C4F8FC0084F8F800F8BD02F17F
:100C80000C01CDB2012DACD9FD2AAAD0EF2A00F279
:100C9000578102F0F006802E40F0538140B20028C8
:100CA000A0DB0120C9B2814284F85B2084F85C306B
:100CB00060669AD9FD2A98D0EF2A94BF02F0F00519
:100CC0001546A5F180037F2B8FD801A151F823F0A1
:100CD000390F0000EB0B0000EB0B0000EB0B0000EA
:100CE000EB0B0000EB0B0000EB0B0000EB0B00002C
:100CF000EB0B0000EB0B0000EB0B0000EB0B00001C
:100D0000EB0B0000EB0B0000EB0B0000EB0B00000B
:100D1000390F0000EB0B0000EB0B0000EB0B0000A9
:100D2000EB0B0000EB0B0000EB0B0000EB0B0000EB
:100D3000EB0B0000EB0B0000EB0B0000EB0B0000DB
:100D4000EB0B0000EB0B0000EB0B0000EB0B0000CB
:100D5000390F0000EB0B0000EB0B0000EB0B000069
:100D6000EB0B0000EB0B0000EB0B0000EB0B0000AB
:100D7000EB0B0000EB0B0000EB0B0000EB0B00009B
:100D8000EB0B0000EB0B0000EB0B0000EB0B00008B
:100D9000390F0000EB0B0000EB0B0000EB0B000029
:100DA000EB0B0000EB0B0000EB0B0000EB0B00006B
:100DB000EB0B0000EB0B0000EB0B0000EB0B00005B
:100DC000EB0B0000EB0B0000EB0B0000EB0B00004B
:100DD000310F0000EB0B0000EB0B0000EB0B0000F1
:100DE000EB0B0000EB0B0000EB0B0000EB0B00002B
:100DF000EB0B0000EB0B0000EB0B0000EB0B00001B
:100E0000EB0B0000EB0B0000EB0B0000EB0B00000A
:100E1000310F0000EB0B0000EB0B0000EB0B0000B0
:100E2000EB0B0000EB0B0000EB0B0000EB0B0000EA
:100E3000EB0B0000EB0B0000EB0B0000EB0B0000DA
:100E4000EB0B0000EB0B0000EB0B0000EB0B0000CA
:100E5000390F0000EB0B0000EB0B0000EB0B000068
:100E6000EB0B0000EB0B0000EB0B0000EB0B0000AA
:100E7000EB0B0000EB0B0000EB0B0000EB0B00009A
:100E8000EB0B0000EB0B0000EB0B0000EB0B00008A
:100E9000EF0E0000310F0000390F0000310F00008D
:100EA000EB0B0000EB0B0000D10E0000EF0E00007A
:100EB000D10E0000D10E0000D10E0000D10E0000B6
:100EC000D10E0000EB0B0000D10E0000D10E00008F
:100ED0000023012084F8743084F8763084F8773069
:100EE00084F875506366236684F8F800F8BD8021A5
:100EF0000023216684F8785084F859307F21636E8E
:100F00008B422ED302F00F020023013294F85C10C2
:100F100084F87420012084F8761084F8773084F8FF
:100F2000755063662366C4F8FC0084F8F800F8BDC9
:100F3000022323660121E2E7032323660221DEE781
:100F4000164606F0DF05902D3FF4A8AE06F0BF056B
:100F5000A02D3FF4A3AE06F0EF06C02E3FF49EAEE8
:100F60003FE6013363660020F8BDD02A3FF42FAE80
:100F7000E02A3FF42CAEC02A7FF428AE27E6F02208
:100F800080230025012194F8F76084F8752084F807
:100F9000763084F8F720C4F8FC30204684F8775087
:100FA00084F8745084F8F810FFF79CFCF7220223B1
:100FB00084F8796084F8782028466366F8BD94F850
:100FC0007810F02902D0F7297FF40FAE551C224487
:100FD00000214FEA152E82F878300126F02784F898
:100FE000765084F877E084F8741084F8591030460D
:100FF000C4F8FC5084F875706166216684F8F86066
:10100000F8BD1A46B7E503F10C02D2B2012A7FF609
:10101000ECAD1A4650E6902A3FF40EAEADE500BFA7
:1010200090F87030DA0718D513F0FE0F15D070B5B0
:1010300090F8755085F08002602A82B004460DD881
:1010400090F874608E4231D081B35B08012B32D0AE
:10105000032B00F09B8002B070BD7047A5F1F00338
:101060000F2BF8D801A252F823F000BF6311000043
:10107000411100000F110000F31000005710000094
:1010800057100000CB10000057100000CB100000DC
:1010900057100000CB100000CB100000CB10000058
:1010A00057100000CB100000CB1000005B08012B94
:1010B00001D0022BCFD194F8773094F876200096A7
:1010C00029462046FFF754FBC5E705F10803DBB2CC
:1010D000072BC0D8012202FA03F313F0DD0FBAD0B8
:1010E000636D1868036829461B6802B0BDE870404C
:1010F0001847436D90F8765018680368F3211B6811
:101100009847636D186805F07F010368ECE7436D4D
:1011100090F87750186894F876200368F2211B68DD
:1011200042EAC5159847636D1868036805F07F01AA
:101130001B689847636D1868C5F3C6110368D3E749
:10114000436D90F87650186894F8773002682D0156
:1011500003F00F03126805F07005F1211D4390475D
:10116000BEE7B0F87660802E28BF802600F17805B3
:10117000002E3FF470AF2E44636D15F8011B186804
:1011800003681B689847B542F6D164E794F8773056
:1011900094F8762000962946FFF7EAFA5BE700BF4D
:1011A00070B5174C94F85860102E02D900252846C7
:1011B00070BD2046FFF7AAFC05460028F6D094F83B
:1011C0007530902B0CD083F08003602B0BD90C482A
:1011D000FFF788FB31460A48FFF722FF284670BD1B
:1011E00094F877303BB194F874309E42EFD0002EE3
:1011F000EDD00025EEE7802384F87530F3E700BFDB
:10120000A8A7FF1FF8B5294C294F94F87030DFF8D4
:10121000ACE0C7F800E00025012243F0010362F3CF
:1012200047034FF6FF76294604F17800802284F8C0
:101230007030676525606560A560E5602561656162
:10124000A561E56125626562A562E5622563656366
:10125000A563E56325646564A564E564256584F894
:10126000585084F8595084F85A5025666566A66629
:10127000E66684F8745084F8755084F8765084F8E3
:10128000775084F8F8500BF0A7F82046C4F80051C6
:10129000C4F80451C4F8085184F80C5184F80D5175
:1012A000044A0549BDE8F84009F0A0BDA8A7FF1F02
:1012B000A4A7FF1F1C89FF1F71060000F49DFF1FDC
:1012C00000207047704700BF10B5044603F054FF7C
:1012D0000A2830D00D283DD04FF6FD73984201D931
:1012E000012010BD0346B4F94220B4F9401004F1C6
:1012F000080003F025FF94F82230032BF0D8DFE834
:1013000003F0140E0802B4F84230181AA4F8420090
:10131000E6E7B4F84030181AA4F84000E0E7B4F863
:1013200042301844A4F84200DAE7B4F840301844D8
:10133000A4F84000D4E794F9333094F93410B4F8A9
:1013400042205B1A13440022A4F84230A4F8402043
:10135000012010BD0023A4F84030012010BD00BFC3
:1013600010B518380AF08AFA09490A4C0AF0DAFA74
:1013700008F060FC0AF09CFC01212060172006F0B8
:101380007BFA21682820BDE8104006F067B900BF4D
:101390009075924200AFFF1F38B50E4B0E490F4AB1
:1013A00003F12004002553F8040F012809BF086841
:1013B000156000F1FF301060A34201F1040102F159
:1013C0000402F0D1FFF7BCF9FFF79AF9044B0022B1
:1013D0001A7038BD1CA9FF1F4489FF1F24ACFF1FD2
:1013E0000A9CFF1F2DE9F0471546002A63D00446EA
:1013F0000F46DFF8C88000264FF6FD7900F1080A95
:101400000BE003F0B9FE0A2825D00D2832D048455C
:1014100011D90120013D06440AD0236817F8011BA9
:101420001B6843452046ECD09847013D0644F4D163
:101430003046BDE8F0870346B4F94220B4F94010C5
:10144000504603F07DFE94F82230032BE1D8DFE80C
:1014500003F02B241D1694F9333094F93410B4F8AA
:1014600042205B1A13440022A4F84230A4F8402022
:101470000120CFE70023A4F840300120CAE7B4F8E8
:101480004230181AA4F842000120C3E7B4F84030F3
:10149000181AA4F840000120BCE7B4F84230184400
:1014A000A4F842000120B5E7B4F840301844A4F88D
:1014B00040000120AEE71646BAE700BFC91200009F
:1014C00070B50E4D2B689842044614D30C4EE41AA6
:1014D000FFF706F933682B6006F0E8F90146094882
:1014E00002F0F4FE06F0E2F90146074802F030FF90
:1014F0002B68A342EBD91B1B2B6070BD40B0FF1FB4
:10150000A4B0FF1F54B3FF1FD4B0FF1F0C4A0D4BF4
:1015100070B552F820500C4E1A680C4B56F820103B
:1015200053F8222004462846FFF7B4F90848094931
:10153000094A56F8243040F824300D60136070BD1D
:101540003CCB0000ACB0FF1F00A9FF1FC48BFF1FE6
:1015500050A9FF1F7089FF1F70A9FF1F2DE9F84FC9
:101560003A4C3B4F3B4E3C4DDFF81891DFF8188169
:10157000DFF818A122204FF0000BC0B205F0F2FDF9
:101580000346014620682B6003F0D8FB2068D9F899
:101590000020C16AD8F800308A424FDC8B42D4BFA9
:1015A000C2EB0301C2EB01019B1AB3F5804FAABF46
:1015B0008903C1EB8131013391FBF3F390F83410CF
:1015C0002B60DB1146F8043B00292DD0DAF800101F
:1015D000032929D8DFE801F0220202221F4A1178EC
:1015E00081B31F4A1178F9B11E4A1F4952F82B20C6
:1015F0000A601E481E49C0F800B0BBF1040F0B6022
:101600000CD01C481C49006809681C4A01EB0010FA
:101610000BF1030101EBC00142F821305846FFF7FE
:1016200075FF174B012119700BF1010BBBF1050F71
:1016300004F1040404D057F8040F9EE70021B3E737
:10164000BDE8F88F5846FFF761FFEDE774A9FF1F6B
:10165000E8CA000000A9FF1FFCA8FF1F6CA9FF1F1C
:10166000F8A8FF1F3CCB00007089FF1F4CA9FF1F8B
:1016700070A9FF1FACB0FF1F68B0FF1F048CFF1FD5
:10168000E4ACFF1F88ACFF1F7489FF1F34B0FF1F3D
:1016900008B50A4B1A783AB91146094803F048F9D7
:1016A000084B01221A7008BD074A0548002103F0C3
:1016B0003FF9044B01221A7008BD00BF44B0FF1F60
:1016C000B8A8FF1F76B0FF1F4040BF002DE9F04FC4
:1016D000A04BA14C196883B0054608460AF01AF8D9
:1016E0000AF00CFB9D499E4A0B680093009B16680C
:1016F00020609B1B984208D89A480968037801919A
:101700000199116083F001030370DFF8A48298F857
:10171000003023B1934B1B78002B40F0E380924CB8
:101720002378002B47D1914B1B78002B4CD08D4B4D
:101730001B78002B50D18E4B1B68012B00F062816F
:10174000022B00F0C980002211468A4803F0F0F80D
:10175000894B5B5D002B4AD0884B894F53F825306D
:101760003B602378002B4AD0864B1B78002B46D059
:10177000854E864FDFF83C8201240FE03B68A34290
:1017800000F0C680D8F800300B33A34200F0B180DF
:1017900003F0CEF801341B2C00F0B48056F825304D
:1017A00074480A33A3424FF00002A1B2E6DA0022E5
:1017B000A1B27048ECE76B4B1B78002B40F02881FE
:1017C0006A4B1B78002BB6D1714B1B78002BB2D023
:1017D000644B1B78002BAED06E4B664853F8252027
:1017E000002103F0A5F8644B5B5D002BB4D1694B7D
:1017F000634F53F825303B602378002BB4D1644B02
:101800001B78002B40F0A0804FF0020B01245E4EAD
:10181000DFF858910AE00022A1B2564803F088F898
:10182000BBF11B0F27D001340BF1010B56F825300B
:101830000A33A342EFDB012C00F0F180022C00F010
:10184000FA80EB1CA342E6D11FFA84FA3A684948B1
:10185000514603F06DF899F80020002AE0D0414B82
:101860001A78002ADCD051460022424803F060F882
:10187000BBF11B0FD7D1484BDFF830B103EB851A12
:101880004FF00B09002413E0A34252D0DAF80030E5
:10189000012B48D0414A3748494603F049F8013402
:1018A00009F10109102C1FFA89F90AF1040A29D05B
:1018B00056F82530A342F2DDA2075BF82530E3D0CD
:1018C000A34229D0DAF80030012B2CD0002249465F
:1018D000284803F02DF8E2E74D220021254803F0C7
:1018E00027F835E70122002122481F4C03F020F899
:1018F0002EE7A1B22A4A1F48013403F019F81B2C25
:101900007FF44CAF274B01221A7003B0BDE8F08F73
:10191000254A03F00DF83DE798F800206AB9DAF897
:101920000030012BD3D13A681248494603F000F841
:10193000B5E798F80030002BA8D04FF400024946D4
:101940000C4802F0F5FFAAE70F4E184FDFF8688049
:10195000012447E0E0ACFF1F14A9FF1F5CB5FF1F87
:101960008CACFF1FD0B0FF1F6CA9FF1F48A9FF1F41
:1019700034B0FF1FB8A8FF1F90A9FF1FFCCA0000CA
:101980003CB0FF1FF8A8FF1F4489FF1FFCAEFF1FDC
:101990008CA9FF1F1CCB0000FCACFF1F20202000E7
:1019A0000080FF0076B0FF1F8080800024ACFF1F06
:1019B000D4A8FF1F68B0FF1FACB0FF1FD8F80030DD
:1019C000264857F823300B33A3424FF00002A1B250
:1019D00013D0DEF80030A34201D002F0A9FF013499
:1019E0001B2C8FD056F82530DFF884E00A33A34251
:1019F000E4DA0022A1B21948EFE74FF4000202F046
:101A000097FFECE7164A1548002102F091FF9FE688
:101A100044F64D420021114802F08AFF98E6114B2E
:101A20005B7813B1104B1B7893B9104A0B48012116
:101A300002F07EFFF7E60B4B9B7813B10A4B1B7845
:101A400033B94FF680720221044802F071FFEAE6D2
:101A500000222146014802F06BFFE4E6B8A8FF1F10
:101A600080808000D8A8FF1FD0B0FF1FFFFF80003C
:101A7000FCAEFF1F10B550B904460121094803F020
:101A800077FB21460748BDE8104003F073BB0021F7
:101A9000044803F06DFB01210248BDE8104003F04B
:101AA00069BB00BF9CACFF1F124A1348134B70B4B4
:101AB00002F1200500260AE014680131A1421960F4
:101AC000A8BF1E600432AA4203F1040310D050F8EC
:101AD000041F01291968EFD1013900291960F1DAD1
:101AE000116804320139AA42196003F10403EED1EE
:101AF00070BC70474489FF1F1CA9FF1F24ACFF1F47
:101B0000F8B5184C184B246853F8203004EB440403
:101B100003EB84047F2C05460AD9A9B2134A144862
:101B200002F006FF1349144A01230B701370F8BD2D
:101B300013461248124A50F823001768114A124EF1
:101B400052F8272000EB0313204646F82340FEF707
:101B500051FEA4F11803352BDFD82046FFF700FC17
:101B6000DBE700BFA8B0FF1F9CC900008080800099
:101B7000B8A8FF1F76B0FF1FE4ACFF1F24ACFF1F07
:101B8000ACB0FF1FC48BFF1F24AAFF1F114B124ACA
:101B90001B6810B5044652F8200003EB430300EB2A
:101BA00083007F280BD80D4A0D4B1268002153F893
:101BB0002220FEF747FE0021172005F05DFEA1B2AE
:101BC0000022084802F0B4FE0749084A01230B70BE
:101BD000137010BDA8B0FF1F9CC90000ACB0FF1F60
:101BE000C48BFF1FB8A8FF1F76B0FF1FE4ACFF1F18
:101BF0002DE9F04F4B4F4C4957F820304FEA001871
:101C000008EB030285B051F822104C1C7FD001294B
:101C100068D14649DFF830910968454DDFF82CA1BD
:101C2000444E5AF820B003EB0113520109EB431361
:101C3000044659F802105B682B60029105F036FEED
:101C400057F82430DFF808E10299434409EB4312C6
:101C5000DEF80030D2F808E05A460EFB030336489F
:101C6000DFF8F0B002F01CFB57F824205AF82430BB
:101C70002D6803934244520159F80210029105F075
:101C800015FE2A4600900299039B2C4802F044FB63
:101C900057F82400002508EB0003EA1C02EBC303FD
:101CA00059F823300293002B19461EDB244B5AF8B7
:101CB000242053F82500FEF7EDFD029B57F8240081
:101CC00033600135042D06F10406E4D180444FEA67
:101CD00048121C4B59F8020043F82800A0F11803E1
:101CE000352B1AD905B0BDE8F08F5BF825103368A5
:101CF0008B42E6D0124B5AF8242053F82500FEF709
:101D0000C9FD5BF8253057F824003360D9E70F236D
:101D100047F8203005B0BDE8F08F05B0BDE8F04FC2
:101D2000FFF71EBB24ACFF1FFCACFF1FACB0FF1FB6
:101D3000E88BFF1FE8ACFF1F54B3FF1FD4B0FF1F99
:101D40003CCB000024AAFF1F048CFF1FC48BFF1F85
:101D5000DCACFF1F50A9FF1F444B1B68012B2DE972
:101D6000F0413DD0022B33D1414B1B78002B31D0B9
:101D7000404E05F09BFD3368984262D33E4A12788C
:101D8000002A69D13D4A3E4912680B600024134481
:101D90003C4DDFF800813C4F3360264615F8012F9B
:101DA0003A4B20467AB958F824200F321340002BC2
:101DB00049DB03EB041357F82320002AC8BF47F878
:101DC0002360FFF715FF0134082CE7D1304C30E0D9
:101DD000BDE8F0812E4BBDE8F0411868FFF776BCF6
:101DE000234B1B78002BF5D0224E05F05FFD3268A7
:101DF000904226D3204B1B7853BB254C25492068A5
:101E0000224B51F820100F310B40002B28DB03EB45
:101E100000131D4951F82350002DC4BF002541F87F
:101E20002350164B16491B680A601A443260FFF7AC
:101E3000DFFE2068FFF74AFC2068BDE8F041FFF7AD
:101E400033BEBDE8F081013B63F00F030133B0E71F
:101E5000FFF7A2FA3268D0E7FFF79EFA336891E7FE
:101E6000013B63F00F030133D1E700BF34B0FF1F24
:101E7000D4A8FF1FA0B0FF1F0A9CFF1FDCACFF1FF0
:101E800030B0FF1F8FA9FF1F24AAFF1F0F00008083
:101E9000ACB0FF1F24ACFF1F08B5074B01221A701E
:101EA00005F004FD054B064A1B78106003B108BD20
:101EB000BDE80840FEF734BCD4A8FF1F0A9CFF1FF2
:101EC000A0B0FF1FF8B58E0006F10A0323F0070348
:101ED0000A44002900AFADEB030D92FBF1F301FBC7
:101EE000132218DD6C46034600EB060E53F8045B24
:101EF00044F82250734502F1010292FBF1F501FB17
:101F00001522F3D12346A119043853F8042B40F8C5
:101F1000042F8B42F9D1BD46F8BD00BF2DE9F04733
:101F20003A4FBDF820600546894638462946924614
:101F3000984603F06DF997F9314080B2A4B2C0EB36
:101F40000803341B03EBD37304EBD47409EB630372
:101F50000AEB640400222846A7F84030A7F8424064
:101F600087F846200AF0ACFA48B304463E464FF6DE
:101F7000FD7801E0013C22D015F8011B234803F055
:101F8000FBF80A282FD00D283BD04045F2D8034655
:101F9000B6F94220B6F940101D4803F0D1F896F882
:101FA0002230032BE6D8DFE803F018120C02B7F852
:101FB0004230013CA3EB0000A7F84200DCD1BDE8B1
:101FC000F087B7F84030181AA7F84000D2E7B7F802
:101FD00042301844A7F84200CCE7B7F84030184424
:101FE000A7F84000C6E796F9333096F93410B6F8F2
:101FF00042205B1A13440022A6F84230A6F8402083
:10200000B8E70023A6F84030B4E700BF94ACFF1F48
:102010009CACFF1F2DE9F0411C4C1D4DDFF8848066
:102020001C4F84B0A61D03E0B44205F104052AD07C
:1020300014F8013B002BF7D0D8F800300393039B32
:1020400015483B6004F0C6F90121144803F076F806
:102050001349124803F082F80121104803F088F870
:1020600000210E4803F086F82023286800930A22F6
:1020700080230021FFF752FF0023B44204F8013C03
:1020800005F10405D4D104B0BDE8F08108AFFF1F0D
:10209000EC8BFF1FF4A8FF1F40A7FF1F9CACFF1F86
:1020A00050CC00005CB5FF1F30B51B4C83B0012144
:1020B00004F1080003F042F804F10800174903F0A6
:1020C0004DF8002504F108000121A4F84050A4F8BF
:1020D000425084F8465003F04BF8294604F10800BA
:1020E00003F048F80E4B0F4A1B68126893420E4AE1
:1020F000127802D01AB90D4804E0002AFBD00C4A2D
:1021000052F823002023009314222C235621FFF79A
:1021100005FF03B030BD00BF94ACFF1F9CFE000064
:1021200064A9FF1F34B0FF1F04AFFF1F38CA0000AF
:10213000A089FF1F70B5064684B010460D46FFF714
:1021400099FC0A4B1C68033402A930460A22640039
:1021500009F078FEA4B269011623009322B209B2F5
:1021600002A82023FFF7DAFE04B070BDB889FF1F74
:10217000F8B5134E074600257088002498B1230453
:10218000FF2293FBF0F02844114680B202F0FAFBE4
:1021900002F09CFCA1B20246094802F0C9FB70881B
:1021A0000134A042EBDC064802F0E0FA05F5807548
:1021B000384605F09DFBB5F5803FDDD1F8BD00BF89
:1021C000B8A8FF1F2DE9F047494BDFF83C81494E85
:1021D0000FCB86B006AC04E90F00474804F0FAF8CC
:1021E000002108F1080002F0A9FF45464FF0000A5F
:1021F0004148424C04F0EEF8122300224049414885
:10220000A8F84030A8F8423088F846200FFA8AF93A
:1022100002F0A4FF4FF6FD7701E0B44222D014F89B
:10222000011B394802F0A8FF0A284FD00D285BD0C7
:10223000B842F2D80346B5F94220B5F9401031480A
:1022400002F07EFF95F82230032BE6D8DFE803F09A
:1022500038322C02B8F84230B442A3EB0000A8F8A0
:102260004200DCD12949274802F078FF09F0030930
:1022700006AB03EB8909202359F8100C00930A22BE
:102280005021FFF74BFE1C4804F0B0F90AF1010A97
:10229000642005F02DFBBAF1100FA9D1642006B01F
:1022A000BDE8F04705F024BBB8F84030181AA8F88C
:1022B0004000B2E7B8F842301844A8F84200ACE752
:1022C000B8F840301844A8F84000A6E795F9333034
:1022D00095F93410B5F842205B1A13440022A5F892
:1022E0004230A5F8402098E70023A5F8403094E755
:1022F0008CC9000032CA000040A7FF1F2CCA000092
:1023000050CC00009CACFF1F94ACFF1F0CD500000C
:102310002DE9F0477E4CDFF860827E4F7E4EA0B004
:1023200004F0BCFF2368029302987C4B22687C492E
:1023300003927C4A08601968116059685160996875
:102340009160D968D1601969116159699D695161BC
:10235000D969754B9561D1617449754A03981A60C2
:10236000002501221D71DD6083F82250A3F8405042
:10237000A3F8425083F846501A8383F8212008605E
:10238000236804936B4B049A1A6005F08FFA236854
:102390000593DDF814A023680693DDF818902368F0
:1023A0000793DDF81CC023680893089923680993F4
:1023B000DDF824E0604B22680A920A9A18605F4BAD
:1023C00020680B90D9600B9920680C905A610C9A88
:1023D000C3F800A0C3F80490C3F808C0C3F810E025
:1023E0009961DA6122680D920D9A21680E91DDF8EB
:1023F00038C021680F91DDF83CE0216810911099F8
:10240000206811901198D4F80090CDF848901A6285
:10241000C3F824C0129AD4F800C0CDF84CC0D962D9
:1024200018631399206814905A63149AC3F828E02B
:102430009963DA6322681592159A21681691DDF87E
:1024400058C021681791DDF85CE02168189118994F
:10245000206819901998D4F80090CDF868901A6403
:10246000C3F844C01A9AD4F800C0CDF86CC0D9643F
:1024700018651B9920681C905A651C9AC3F848E09F
:102480009965DA6522681D921D9A20681E901E9833
:1024900024681F9458662A4C1F981A669866294922
:1024A000294B2468294A09681C602948294B12686D
:1024B0001A600160084609F02DF909F01FFC0B2293
:1024C000C8F800000C212448244CFEF709F82946DE
:1024D0002348FEF77BF80622052301920093384635
:1024E000204B214A214901F087FF324638462049D6
:1024F00008F07CFC522320460E221B2102F002FA37
:10250000324620461B4908F071FC20B0BDE8F08738
:102510005CB5FF1F10AFFF1F1C89FF1F4489FF1F01
:102520008CACFF1FB0B0FF1F94ACFF1F50B0FF1F5B
:102530007CC90000F4A8FF1F48B0FF1FB0A9FF1F0F
:1025400000A9FF1F6889FF1F70A9FF1FA8B0FF1F08
:1025500020AAFF1F4CB0FF1F98A9FF1FB8A8FF1F9C
:1025600054B0FF1F049CFF1FB089FF1F7C89FF1F11
:1025700031440000A546000014A9FF1F30B5124CDD
:1025800083B0002201210A232046019100931146C5
:10259000802302F081FF0225202320461946009562
:1025A000002203F0F1FF2046009520230022402165
:1025B00003F0EAFF0095204620230022602103F06B
:1025C000E3FF03B030BD00BF40A7FF1F2DE9F0437C
:1025D000704EDFF80492704C83B006F108000121C0
:1025E000002502F0ABFD06F108006C4902F0B6FDD3
:1025F000A6F84050A6F8425086F84650FFF7BEFFB6
:10260000294606F1080002F0B3FD06F10800012199
:1026100002F0B0FD0722B9F9003086F84650A6F85E
:102620004020A6F842303546A71C4FF6FD7801E061
:10263000BC4224D014F8011B564802F09DFD0A2824
:1026400000F094800D2800F09F804045F0D80346AC
:10265000B5F94220B5F94010514802F071FD95F8E6
:102660002230032BE4D8DFE803F07B756F02B6F865
:102670004230BC42A3EB0000A6F84200DAD1494B3D
:102680004448196806F006FED9F8002046480A2595
:10269000023A12B2202321210095FFF73FFCD9F81E
:1026A000002042480095023A12B220234121FFF750
:1026B00035FCD9F800203E480095023A12B220239A
:1026C0006121FFF72BFC0121354802F037FD394924
:1026D000334802F043FD0121314802F049FD002159
:1026E0002F4802F047FD344B002218681146FFF7CF
:1026F00021FD324A324B1268324953F8223003EB43
:102700000213002251F823000121FFF713FD2E4B85
:102710001C68012C3CD11623009301942A462123E6
:1027200060212A4802F0B8FE294B186800220430C4
:102730000221FFF7FFFC274B18682246032103B054
:10274000BDE8F043FFF7F6BCB6F84030181AA6F81B
:1027500040006DE7B6F842301844A6F8420067E73B
:10276000B6F840301844A6F8400061E795F93330D8
:1027700095F93410B5F842205B1A13440022A5F8ED
:102780004230A5F8402053E70023A5F840304FE73A
:102790000024C9E794ACFF1F18CA00006C070100B1
:1027A0009CACFF1F7089FF1F34CA00003CCA0000A8
:1027B00040CA000084F5000070A9FF1FACB0FF1FE5
:1027C00024ACFF1F24AAFF1F68A9FF1F40A7FF1FFB
:1027D000A8B0FF1F6489FF1FB889FF1FF0B5434CE5
:1027E000434F83B004F10800012102F0A7FC00254B
:1027F00004F108003F4902F0B1FCA4F84050A4F8ED
:10280000425084F84650FFF7B9FE04F1080029460B
:1028100002F0AEFC04F10800012102F0ABFC3A68C2
:1028200035480A26023A12B2202301210096FFF70A
:1028300075FB3A6831480096023A12B220232121F2
:10284000FFF76CFB3A682E480096023A12B220233A
:102850004121FFF763FB3A682A480096023A202399
:1028600012B26121FFF75AFB04F10800012102F0C6
:1028700065FC04F10800244902F070FC04F1080032
:10288000012102F075FC04F10800294602F072FCF7
:102890001E4B1C68012C09D116230093019432466B
:1028A000212340211A48254602F0F6FD194C2068E4
:1028B000002211460130FFF73DFC2168164B002233
:1028C00053F821000121FFF735FC144B2A46186804
:1028D0000221FFF72FFC124B186809F0E9F90022DA
:1028E000032103B0BDE8F040FFF724BC94ACFF1F08
:1028F000B889FF1F6C07010010CA000008CA000059
:1029000044CA000014CA000084F50000D0A8FF1FCC
:1029100040A7FF1FACB0FF1F4489FF1F18A9FF1F6E
:102920006889FF1F2DE9F0413E4E3F4FDFF82481BB
:1029300006F1080582B028460121002402F0FEFBC2
:1029400028463A4902F00AFCA6F84040A6F8424060
:1029500086F84640FFF712FE2146284602F008FCA2
:102960002846012102F006FC3A6831480A26023A5C
:10297000214612B200962023FFF7D0FA3A682D487C
:102980000096023A12B220232121FFF7C7FA3A68D3
:1029900029480096023A12B220234121FFF7BEFADD
:1029A0003A6826480096023A202312B26121FFF7C6
:1029B000B5FA2846012102F0C1FB2846204902F061
:1029C000CDFB2846012102F0D3FB2146284602F028
:1029D000D1FBD8F80000224621460130FFF7AAFBC0
:1029E000D8F80020174B53F822000121224601306D
:1029F000FFF7A0FB144BD8F800201B68134903EB2A
:102A000002135B012246C8580221FFF793FB104BCB
:102A1000186822460430032102B0BDE8F041FFF7F8
:102A200089BB00BF94ACFF1FB889FF1F6C07010072
:102A30004CCA000054CA000034CA00003CCA00005E
:102A400084F5000024ACFF1F68B0FF1F048CFF1F3B
:102A5000A8B0FF1FACB0FF1F2DE9F047624C634FD9
:102A600082B004F10800012102F068FB002504F1A6
:102A700008005F4902F072FBA4F84050A4F84250ED
:102A800084F84650FFF77AFD294604F1080002F069
:102A90006FFB04F10800012102F06CFB3A68554815
:102AA0000A26023A294612B220230096FFF736FA88
:102AB0003A68514800962023023A194612B2FFF7AD
:102AC0002DFA3A684D480096023A12B2202341216D
:102AD000FFF724FA3A684A480096023A202312B2D5
:102AE0006121FFF71BFA04F10800012102F026FB27
:102AF000444B1B68032B72D8DFE803F06253440297
:102B0000162301268DE848000A22212360213E4831
:102B100002F0C2FC0027B946BA46DFF804813B4DFB
:102B20003B493C483C4C02F019FBD8F800202B688C
:102B300003EB02135B014A46E0580021FFF7FAFA63
:102B4000364B1868524604300121FFF7F3FAD8F8E3
:102B500000202B6803EB021304EB43133A4658683A
:102B60000221FFF7E7FAD8F800202B6803EB0213E5
:102B700004EB43143246A068032102B0BDE8F047DD
:102B8000FFF7D8BA162301278DE888004FF0000917
:102B900021230A2240211C4802F07EFCCA464E46F0
:102BA000BBE7162301248DE81800002721230A2201
:102BB00020211548A24602F06FFCB9463E46ACE71C
:102BC0001623012400210F468DE818000A22212334
:102BD0000D48A14602F060FCBA463E469DE700273C
:102BE000B946BA463E4698E794ACFF1FB889FF1F26
:102BF0006C07010034CA00003CCA00005CCA000037
:102C000008CA00007889FF1F40A7FF1F68B0FF1F98
:102C100084F500009CACFF1F048CFF1FA8B0FF1FB1
:102C2000ACB0FF1F2DE9F043012183B0504802F002
:102C300085FA50494E4802F091FA4F4B1C68012C1E
:102C400000F08880022C77D0002C67D04FF000086D
:102C50004746C146494D4A4C28684A4E0022114613
:102C60000130FFF767FA2A68474B012153F8220029
:102C70004A46FFF75FFA454B3A4618680221FFF7CC
:102C800059FA434B2968424653F821000321FFF7C4
:102C900051FA04F10800012102F050FA002504F174
:102CA00008003C4902F05AFAA4F84050A4F84250F7
:102CB00084F84650FFF762FC294604F1080002F050
:102CC00057FA04F10800012102F054FA3268324840
:102CD0000A24023A294612B200942023FFF71EF973
:102CE000326800942023023A194612B22B48FFF7AB
:102CF00015F932680094023A12B220234121284883
:102D0000FFF70CF932680094023A12B220236121D5
:102D10002448FFF703F903B0BDE8F083012516232B
:102D20008DE828000B22212320211F48A046A94618
:102D300002F0B2FB27468DE7162301248DE8180028
:102D40000B222123602118480027A04602F0A4FB93
:102D5000B9467FE716238DE818000B222123402176
:102D600011484FF00008274602F096FBC14671E774
:102D70009CACFF1F84F50000BC8BFF1FACB0FF1F95
:102D800094ACFF1FB889FF1F4489FF1F90ACFF1F41
:102D9000C48BFF1F6C07010010CA000008CA0000A6
:102DA00060CA000064CA000040A7FF1F2DE9F04F71
:102DB000754C764D85B004F108000121002602F023
:102DC000BDF9012704F10800714902F0C7F9A4F820
:102DD0004060A4F8426084F84660FFF7CFFB4023D0
:102DE000142231466B48009703F09CFB314604F1F6
:102DF000080002F0BDF9394604F1080002F0BAF902
:102E00002A6865484FF00A08023A12B23146202378
:102E1000CDF80080FFF782F82A686048CDF800807E
:102E20002023023A194612B2FFF778F8394604F126
:102E3000080002F083F95A4B02961B68032B00F23C
:102E40009F80DFE803F068594A020B2301248DE8D4
:102E500018001522212320214E4802F01DFB4FF0BF
:102E6000000B8DF80B404A494E48DFF844A1DFF8CB
:102E70004491DFF8448102F071F902AE00240B277F
:102E8000D8F80020D9F8001002EB0111E21C02EB87
:102E9000C1010A225AF82100002803A948DD08F0E0
:102EA000D1FF012CA4F10202584659D0032C42D084
:102EB000022A34BF4FF0200B4FF0000BFEF7DAFD73
:102EC0002A6800975200594612B2202303A8FFF740
:102ED00025F8013416F801BFD2E70B2301248DE851
:102EE00018000A22212320212A4802F0D5FA4FF0A7
:102EF000000B8DF80A40B6E70B2301248DE818007B
:102F0000152221230021234802F0C6FA4FF0000BBE
:102F10008DF80940A7E701240B228DE81400212336
:102F200000211C4802F0B8FAA3468DF808409AE741
:102F30001D4B0393B5E75846FEF79CFD2A685200E7
:102F400020230B210B3212B203A800911946FEF781
:102F5000E5FF1649134802F001F905B0BDE8F08F0E
:102F60005846FEF787FD2B6800975B0003F10B02C4
:102F700012B22023002103A80224FEF7CFFFA9E705
:102F80004FF0000B6FE700BF94ACFF1FB889FF1F25
:102F90006C07010040A7FF1F6CCA000074CA000044
:102FA000C08BFF1F9CACFF1F2D2D2D0084F5000052
:102FB000048CFF1FACB0FF1F68B0FF1F2DE9F04F5E
:102FC00096489FB001F03CFA04F070FC944B1860F6
:102FD00004F06CFC934A13681060C01A04D0924B42
:102FE0001B78002B40F0F682FEF7B6FE8F4803F008
:102FF000F1F9FEF7B3FA8E48FDF78EFA02B2169099
:10300000002A40F089818B4B00938B4B04938B4BB0
:1030100007938B4D8B4B03938B4B02938B4C8C4BB9
:10302000DFF850A205938B48FDF7E2FA022800F082
:103030009F81032800F02382012800F0FC81864B49
:103040000993864EDFF830B2DFF8DC91734801F067
:10305000B1FA00284AD0714801F0B8FAC0F307224B
:10306000D3B2012BC7B200F0D0802A68032A00F245
:103070004F81DFE802F022020222002BE6D13FB3AB
:10308000029B1B78002B00F0A681DBF80030002BA0
:103090001EDD99F80030002B00F03483039B1B7871
:1030A000B3B1DFF8D88198F800308BB12068FEF713
:1030B000FBFC002388F800300AE0002BC6D1002F6B
:1030C00040F0D181664B39461A681920FDF7E2FBC2
:1030D000644A654B12681892189A43F827204F48A3
:1030E0000023F35501F066FA0028B4D15F4B246841
:1030F000D3F8008073780193B3780693079B2A680E
:103100001B781593039B574F1B780B93059BDFF898
:1031100058E11B681493049B0A921B780F93544B3D
:1031200013901B781193029B0E901B781293009BB7
:1031300010901B780C930AEB84140D902C3C089093
:10314000034602F1FF3BBA4642F20E79F25C4AB303
:103150003968199119995EF82350491B88454FEA3F
:10316000830C1FD8DAF800101A911A994D1B4D459F
:1031700018D8BBF1010F0DD8019959B9069949B971
:10318000D91E072940F29E860A2B03DD0B990029E0
:1031900000F02C813A681B921B9AA2F51C520F3A40
:1031A0004EF80C2001331B2B04F10404CED1089BF4
:1031B000002B40F01F870D9B23B1009B1A469DF802
:1031C00030301370109B1BB1059B1A46149B136083
:1031D0000E9B23B1049B1A469DF83C301370139B41
:1031E0001BB1234B9DF844201A7020B1029B1A4654
:1031F0009DF8483013700A9B032B00F29586DFE898
:1032000013F0A90667066706A9062B68F255032B7B
:103210003FF61CAFDFE803F06D34346D10AFFF1FD5
:1032200048B0FF1F44A9FF1FD4A8FF1F40A7FF1FDE
:1032300098A9FF1FE4ACFF1F6CA9FF1F48A9FF1F3F
:1032400034B0FF1F8CA9FF1FF8A8FF1FACB0FF1FF1
:1032500068B0FF1F54B0FF1F76B0FF1FD8A8FF1F34
:103260006489FF1F5CB5FF1FB0A9FF1F9C89FF1F6A
:103270001CA9FF1FFCACFF1FFCAEFF1F40A9FF1FD6
:10328000002F00F09480994B994A1B681793049B78
:1032900017991B7842F82710A7F10B02002B00F0BA
:1032A0005D81029B93491B78002B00F0B081059B48
:1032B0009149924822681B68096850F82700DFF896
:1032C00078C299F800E0CBF8007003EB02135B01C1
:1032D00001EB410100EB81014CF803108849002308
:1032E0000B70BEF1000F00F0E483009A012313700D
:1032F000ACE6002F40F0BC80824B64211A68192094
:10330000FDF7C8FA804A137883F0010313709DE635
:10331000002B3FF4DDAE99E6BDF95A307B4902FB44
:1033200003F3097803EB83039E18002970D0784AD1
:10333000784B00931F4613687749049133447749CB
:10334000079183F30203764913600391FEF7ACFE05
:1033500001233B70674B02937248734B0593FDF753
:1033600047F90228714D724CDFF8ECA17FF461AE91
:10337000039B1B78002B00F0898123686D4A6E49FE
:1033800052F823005B0203F500720A440B44012645
:1033900018609E60203393424FF00101F8D1674BD3
:1033A000674A09921970009A0123137049E6049B39
:1033B0001B78002B70D0029B1B781BB1059BCBF8B0
:1033C00000701F60029900230B7004990B70009B22
:1033D00001221A703AE6039B1B78002B3FF478AE6B
:1033E000DBF80030002B3FF754AE71E621681292F3
:1033F000B1FA81F110464909139211920E920F927F
:1034000010920D920C92A3F10B0221601492C1E66E
:10341000414B04931B78002B00F0DF80434D2B6859
:10342000013B012B40F22C823A4B00933B4B07931C
:103430003B4B0393F0E5364A2B6812683B489A42AF
:1034400000F02C81314E3178002940F0BB813C4A9C
:103450000992002B40F02E813A4A1368B3FA83F3A5
:103460005B0913609FE721683846FEF78FFB2FE664
:10347000354B226819683846FEF742FBE6E52B68B3
:10348000032B7FF4DCAD1F4B2D4A099200211A68F3
:103490001A20FDF7FFF9D4E5079B204A1B78002B83
:1034A00040F0B080039B1E4A1B78002B40F0AA809E
:1034B0007378264A002B40F06A829378002B40F004
:1034C0000C8399F80030002B00F0CE83204889F857
:1034D000007000F01DFF1F4B89F800701F60FDF7A2
:1034E0002FF91B4800F014FFB0E500BF5CB5FF1FCB
:1034F000B0A9FF1FF8A8FF1FA8B0FF1F9CC90000BC
:103500001CA9FF1F6489FF1F44B0FF1F04AFFF1FEA
:1035100064A9FF1FE4ACFF1F6CA9FF1F48A9FF1F90
:103520008CA9FF1F54B0FF1F68B0FF1F34B0FF1FEE
:10353000ACB0FF1F0C9CFF1F048CFF1F38B0FF1F97
:1035400076B0FF1F68A9FF1FE48BFF1FD8A8FF1FDD
:1035500054B3FF1F6CB0FF1FFCACFF1F079B1B7811
:10356000002B6AD07B1E012B7FF670ADA7F10308FC
:10357000B8F1070F00F2F681A14B7278C4F8008011
:103580009B78002A40F0FE82002B3FF4AEAE9D4FA8
:103590009D4B07EB4827043F03F5007E03F1200015
:1035A0003A4653F8041B42F8041F8342F9D19E4562
:1035B00007F12007F2D1954B0AEB881803F140017F
:1035C00053F8042F48F8042B9942F9D1904B01226B
:1035D0005A708AE6FDF774FF06E58E4B07931B7859
:1035E000002B40F0A5808C4B03931B788B4D002B58
:1035F00000F0C5812B68013B012B40F2FD81884B17
:10360000009309E51770009A012313701EE57B1ED5
:10361000012B7FF61BADA7F10308B8F1070F40F2AD
:103620009A810A2F7FF712AD059802607D4A012327
:103630001370009A0B70137008E5039B1978764B92
:10364000002900F0A28022687749784B51F82200C7
:1036500077491B6851F82710DFF8A8E1CBF8007014
:1036600003EB430301EB830C059B00EB02114901C3
:10367000186099F800004EF801C0002800F09F8102
:103680006C4A01231370009A1370DFE46A4B6B4A93
:10369000099201221A70FEF707FD84E6664A117846
:1036A00000293FF4D4AE0021644809901170002B2A
:1036B0003FF4D2AE032B00F00282013B012B3FF618
:1036C00072AE049B1B7813B3029B1B78FBB1079B64
:1036D0001B78002B40F06981594B1B68012B00F0CF
:1036E0005083002B7FF45FAE56490B68564A013376
:1036F00082FB0320DA17C2EB600202EB82029A1A05
:103700000A6050E621683846FEF740FAC6E4079B97
:103710001B78002B40F04981039B1B78002B40F065
:10372000A7824A4A1368B3FA83F35B0913603AE647
:103730003A4D2B68013B012B00F20A81DFF83481FE
:10374000D8F80010002940F05382414CDFF828914E
:10375000226859F822303344002B40F3E182102BC9
:10376000A8BF10233B4949F8223041F822302A4BA8
:103770000393394B0293DFF804A1384B0593284B90
:1037800000931A46012313704DE4791E01297FF638
:103790005DACA7F10308B8F1070F00F21A82727846
:1037A00022B199F80070002F00F0A282B378002BAC
:1037B00000F0D1802A4A12F8083083F0010302F8A1
:1037C000083043E42749284B026000270F601F7030
:1037D000FCF7B6FF254800F09BFDB9B20022244853
:1037E000013701F0A5F81B2FF7D1144B09931946A7
:1037F0000122002333700A70FEF756FC2B6828E67E
:10380000D8A8FF1F048CFF1FBC89FF1F40ACFF1FFF
:1038100008AFFF1F48A9FF1F8CA9FF1F34B0FF1F6F
:10382000E4ACFF1F1CA9FF1F24ACFF1FA8B0FF1FA3
:103830009CC9000040A9FF1F04AFFF1F76B0FF1F07
:1038400084ACFF1F7889FF1F67666666D0A8FF1FDC
:10385000ACB0FF1FB0B0FF1FF8A8FF1F68B0FF1F7C
:1038600090A9FF1F6CB0FF1FD4A8FF1F54B3FF1F08
:10387000B8A8FF1FBC8BFF1F4489FF1FFCACFF1FB4
:103880009F4B07931B78002B7FF458AF9D4B0393FE
:103890001B78002B40F0B0809B4B02931B78F3B158
:1038A0009A4B1B68032B00F28782002A984CC0F2C7
:1038B000B682984B0593984B1B68002B40F04A82C8
:1038C000059B22681B689549DFF8B4A203EB02133D
:1038D0005B01CA58324482F30702CA504FE7904F47
:1038E00030463E6807F0CAFF314607F013FF8D49A6
:1038F000044608F0B5F900284FD08A4C8A4B31466F
:1039000020461C6008F0A2F9002840F0E080204624
:1039100086493C6008F006F801468548854E7C4C97
:10392000DFF85CA208F0B2F808F0E8F9824A8349AF
:103930001060136803EB43035B000B60106807F033
:1039400099FF7F4907F0EEFF724B3060059316E751
:103950007C4B00936CE5009AC4F80080012313703F
:10396000FFF774BB0A2F7FF771AB774A21680A3FD4
:1039700042F82170009A01231370FFF767BB2B6890
:10398000032B3FF63CAEDFE803F0324949206F4994
:103990006F4A01230B70D370A7E46E49204608F0EC
:1039A0007DF90028AAD06B4CA8E76B496B4B0A68DD
:1039B00001321340002BC0F266810B60F3E4684BC8
:1039C00038461968FEF79CF85AE6002AC0F21182C0
:1039D00022D0644B4E4C1A68DFF8A4A17F211C2032
:1039E000FCF758FF484B02934A4B0593C7E65E4BE2
:1039F0001B68012B00F0E8815C4B5D491A68164496
:103A0000042EA8BF04266FF004008642B8BF064605
:103A1000B2420E6018BF1E603D4CAAE6554B1B68B3
:103A2000012BE9D0544B1B68012B00F07B81002B4C
:103A3000F2D13B4F30463E6807F020FF314607F099
:103A400069FE3849044608F00BF9002840F09781D8
:103A50004049204608F022F900B13E4C324B314635
:103A600020461C6008F0F2F80028D5D120462F49E6
:103A70003C6007F057FF01462D482E4E244CDFF8DE
:103A800000A108F003F808F039F92B4A2B4910601F
:103A9000136803EB43035B000B60106807F0EAFE5A
:103AA000274907F03FFF184B02931A4B30600593EC
:103AB00065E62B4B38461968FEF722F815E4294BCA
:103AC00064211A681A20FCF7E5FE2B68F5E5114B16
:103AD0000F4CDFF8ACA0059351E62268274B53F852
:103AE000221000290CBF0121002143F82210184B9D
:103AF0004FF001020CBF5A711A71FFF7F6BB00BFFD
:103B000048A9FF1F8CA9FF1FF8A8FF1FC08BFF1F2C
:103B1000ACB0FF1F68B0FF1F7889FF1F048CFF1F28
:103B20006889FF1F0000204220AAFF1F0000C0413B
:103B3000C0E1644CE0ACFF1FA4B0FF1FDCACFF1F72
:103B4000A69BC43BE4ACFF1F4489FF1F0A9CFF1FD8
:103B500008AFFF1F00009643BC8BFF1F03000080CF
:103B6000E48BFF1F6489FF1F68A9FF1FA8B0FF1F18
:103B70004CB0FF1F70B0FF1FD0A8FF1F20A9FF1F70
:103B8000FCACFF1F002B4DD1AD48AE4F00EB4820E1
:103B90001C3007F5007EA0F120033A4653F8041FBD
:103BA00042F8041B8342F9D12037774503F1200006
:103BB000F1D1A54B0AEB881803F1400158F8042B0A
:103BC00043F8042B9942F9D1A04B01221A70FFF758
:103BD0008CBB0A2F7FF73AAA236802EB03125AF82C
:103BE0002230B3FA83F35B094AF82230FFF72EBA8A
:103BF00001294DD0964CDFF8A0A202290BD12168F3
:103C0000944A52F821303344002B60DD102BA8BFBA
:103C1000102342F82130904B0393904B0293904B2A
:103C20000593ACE58F4A864B52F828E04FEA4828C6
:103C300008F5007119444FF0640C434401274FF01C
:103C4000FF32C3F800E0C3F804C09F60DA601A6175
:103C50005A619A61DA61203399424FF00100F0D144
:103C60007A4B9870FFF741BBFEF716F9FFF7EEB9F4
:103C70002068FDF719FF22687B4B53F82230059A24
:103C80001360FFF790BB013B63F00303013394E63D
:103C9000764F6F4C3B68DFF80492002AACBF0122DC
:103CA0004FF0FF32134403F10F001E283B6012D97E
:103CB000DFF8E4A1226859F82200C0F101029A421B
:103CC00007DC01388342A8BF03463B6095E7012328
:103CD0009FE71346F9E72068DFF8BCA159F82010E8
:103CE0000AEB8010FEF7EEF8D8F800103B68E1E729
:103CF0001A215F48019305F0BDF841465D4805F083
:103D0000C9FA5C4805F076FA019B5749C4F800806F
:103D100001221A70009B41F828701A70FFF796B9BB
:103D200001231FE54A4C464B226803EB4222002345
:103D3000D1583144D1502033B3F5007FF8D14E4AE9
:103D4000DFF854A1136833441360444B0293444B8F
:103D5000059314E5012B16D1484B49491A681644BE
:103D6000042EA8BF04266FF004008642B8BF0646A2
:103D7000B2420E6050D01E60DFF81CA1FFE4414C3F
:103D80006CE64149B1E4032B40F08A80059B206832
:103D900019682B4A0001431802EB43139B68334414
:103DA000002B4BDD102BA8BF1023014402EB411266
:103DB000DFF8E4A09360E2E4042B344B12D0284AED
:103DC000234C1B68059278E5314A11680E44002E99
:103DD00003DD102E3346A8BF10238B423FF41CAEE8
:103DE000136019E61B68042B0AD01D4A184C059273
:103DF00063E5274B164C1A68DFF89CA00021EEE51E
:103E0000244A134C1368DFF890A0334483F3010372
:103E10001360134B0593B2E4DFF87CA0AFE4104AC3
:103E2000059221681268064802EB0112033303EB86
:103E3000C2034FF0FF3240F823203CE50123B4E7F2
:103E4000048CFF1FBC89FF1F44ACFF1F08AFFF1F7E
:103E5000ACB0FF1FC48BFF1F8CA9FF1FF8A8FF1F6A
:103E600068B0FF1F0C9CFF1F24ACFF1F90ACFF1F0E
:103E70007CCA00000C9EFF1F18A9FF1FA8B0FF1FDF
:103E80004CB0FF1F00002042C08BFF1F7889FF1F2E
:103E90006489FF1F84ACFF1FFCACFF1F4489FF1F18
:103EA000022BB9D1059B21681A68564BDFF884A113
:103EB00002EB011203EB42125368334483F307030E
:103EC00053605CE40D920C9208921592FFF762B970
:103ED0004D4B1B78002B27D14C494D480B681C9348
:103EE0004C4A1C9B006812681B1A9A424FD20B68FE
:103EF0001D931D9B14321B1A9A4248D9009A012324
:103F00001370049B444C1B78002B50D0434B1B6810
:103F1000002B63D0012B66D0079B1B78002B41D16F
:103F2000039B1B78002B54D1009B1B78DBB9099BAA
:103F30003B4C1B7813B33B4800F018FC0023237064
:103F4000FCF70EFCD0B9FDF72BF90028FBD11FB010
:103F5000BDE8F08FFDF79CFB009B334C1B7843B111
:103F6000294B1B78C3B1314802F040FB009A002373
:103F70001370099B2A4C1B78002BDCD1FCF7F0FB5B
:103F80000028FBD1FDF70CF90028DCD1DFE7009B0E
:103F90001B78002BEDD0B4E7FEF718FB2378002B3D
:103FA000C5D0E0E7FEF73EFEFEF734F8B8E7079B22
:103FB0001F4D1B78002BF5D1039B1B78002BAFD135
:103FC000FEF70CFCFEF726F82378002B9ED12B7809
:103FD000A4E7FEF7A7FCFEF71DF8A5E7FEF73CFDFA
:103FE000079B1B789AE7029B1B78002B94D0FEF767
:103FF000DDFE91E7079B1A469DF854301370FFF7DA
:10400000DAB800BF048CFF1F04AFFF1F5CB5FF1FB1
:10401000F4A8FF1F6C89FF1F6CA9FF1F84ACFF1F52
:1040200076B0FF1FB8A8FF1FE4ACFF1F40A7FF1F1B
:1040300048A9FF1FFCACFF1F70B5184D82B0284681
:1040400002F0C8F9B5F90C1001291FDD0022012684
:1040500094B26300688901969BB2C91A09B2C31A67
:104060001BB200910D48114601F098FA0B4802F07E
:10407000BDFA012003F03CFCB5F90C10023401EB51
:10408000D17322B243F34F039342E1DC4FF4FA7051
:1040900002B0BDE8704003F02BBC00BF40A7FF1F7B
:1040A0002DE9F047644A654B1268654CDFF8E881FA
:1040B000644FDFF8E8A182B04FF084490192019A81
:1040C0001A6003F0F3FB604B186003F0EFFB5F4AEC
:1040D0005F4B10605F49186807F024FC01465E489A
:1040E00007F0D4FC07F00AFE5C4A5D4910601368D3
:1040F00003EB43035B000B60106807F0BBFB5949FF
:1041000007F010FC206003F0D1FB574B186003F060
:10411000CDFB564B18600D2002F0F0FF0024264620
:10412000382005F0C7F8524B01220021054600F067
:10413000E1FC4AF8246001344FF40053052C48F8A0
:10414000045BC5F8109047F8046B6B60E8D1FCF78E
:1041500091FA0121172003F0A3FB464E464F474C2E
:10416000474D0C231846337003F076FB307806F089
:1041700085FF02460B4600204FF0804105F07EFD92
:1041800007F0A2FA3F4B38804022002128201A6015
:1041900003F064FAFCF78EF92846A56002F01AF9DC
:1041A000FFF74AFFC82003F0A3FB284602F012F9EC
:1041B00004F10800012100F0DBFF002104F10800F8
:1041C00000F0D8FFFDF7FEFF2F4800F0C1F92F489F
:1041D00000F078FA2D4800F0C9FA32212B4800F09F
:1041E0004BFC0024A1B22A4A284800F0A1FB274832
:1041F00000F0BCFA0134052003F07AFB1B2CF1D14E
:104200000520FDF7B5FF4FF4FA7003F071FB0022B3
:10421000234611461D4800F091FB1C4800F0A6FA09
:10422000642003F065FB164802F0E0F9194B012207
:104230001A7002B0BDE8F0875CB5FF1FF4A8FF1F3D
:10424000E0ACFF1F8CB0FF1F48B0FF1F44A9FF1F49
:104250006889FF1F0000C041C0E1644CA4B0FF1F8B
:10426000DCACFF1FA69BC43BA0B0FF1F30B0FF1FFC
:104270006F12833A1CAAFF1F74B0FF1F94ACFF1F7C
:1042800040A7FF1F88A9FF1F10AFFF1FB8A8FF1F7F
:1042900080808000E4ACFF1F74A9FF1F78B0FF1F6F
:1042A00070B4002401E0202C0DD025010134465DBE
:1042B000002EF8D146190124445520467160F36060
:1042C000B26070BC7047002070BC7047F8B50E46F5
:1042D00000F10C0400F50375002702E01034AC4235
:1042E00014D014F80C3C002BF8D02368B342F5D856
:1042F00014E905000021FCF7A5FA0021172003F0BE
:10430000BBFA103404F81C7CAC42EAD1F8BD00BF03
:104310004FF0FF31FFF7DABF70B400252C4602E002
:104320000134202C11D0465D1435002EF8D104EB59
:104330008404A400061901250555716003993161B3
:104340002846B360F26070BC7047002070BC7047B4
:104350002DE9F0410E4600F1100400F52475002708
:1043600002E01434AC4218D014F8103C002BF8D002
:104370002368B342F5D854F80C0C54F8082C54F8C0
:10438000041CFCF737FA54F80C0C1838352806D9F9
:1043900004F8107C1434AC42E6D1BDE8F08107F09B
:1043A0006DFA094907F0BEFA05F044FC0121804688
:1043B000172003F061FA404607F07AFC01462820F6
:1043C00003F04CF9E4E700BF9075924200230849DE
:1043D0001A46CA541033B3F5007FFAD100230549B9
:1043E0001A46CA541433B3F5207FFAD1704700BF80
:1043F00054B3FF1FD4B0FF1FF8B504460E46154650
:1044000000214FF4807210301F4607F0E5FF069B35
:10441000C4F818310022079BC4F81021266065609B
:10442000A760C4F81C31E260C4F814212046F8BD2E
:1044300010B50446C06808B107F00EFD204610BD57
:104440002DE9F843D0F81C31002B7EDD0446002511
:10445000A3680121585D03F00FFAD4F81C3101352F
:10446000AB42F5DC002B6EDD0026B0460127A368C9
:104470000021985D03F000FA4FF44873013BFDD131
:10448000D4F81831002BC8BF4FF000092EDC4EE0E5
:10449000990724D5D4F81011D4F814010131C9B208
:1044A00003F0FD03814243F0080306D0D4F8100165
:1044B000204480F81080C4F81011D4F81001D4F80A
:1044C00014110130C0B2884209D0D4F8101104EBA5
:1044D000010E2168495D8EF81010C4F81001535583
:1044E000D4F8183109F101094B4520DD6368D4F88F
:1044F0001C5113F8090003F0C5F905FB0965E268D2
:10450000535DDBB20028C3D19807E8D4D4F810116A
:10451000D4F814010131C9B2814243F00603CCD072
:10452000D4F8100120440774C4F81011C5E7A3683B
:104530000121985D03F0A0F9D4F81C310136B34293
:1045400095DCBDE8F883BDE8F883BDE8F88300BFDB
:1045500070B5D0F81851D0F81C610446012106FB53
:1045600005F007F0EBFB002EE060C8BF002510DD72
:10457000A3680121585D03F093F9A3680121585DF8
:1045800003F07AF9D4F81C310135AB42F0DCD4F8F1
:104590001851002DC8BF00250ADD63680221585D4F
:1045A00003F07EF9D4F818310135AB42F5DC70BD6B
:1045B00070BD00BFD0F81031D0F814011B1A4CBFE9
:1045C00003F5807018464010704700BFD0F81421E2
:1045D000D0F810319A4220D0D0F81421D0F81431FC
:1045E00002440133DBB2117CC0F81431D0F814213D
:1045F000D0F810319A4218D0D0F81421D0F81431E4
:1046000002440133127CDBB2C0F814314FF00000D9
:1046100062F3070061F30F207047D0F81421D0F83F
:1046200010319A424FF0FF01E6D1FF224FF0000017
:1046300062F3070061F30F20704700BF037AF0B503
:10464000160C150AF6B2EDB25FFA82FE5BB103FBFF
:1046500006F603FB05F503FB0EFEC6F30726C5F3BE
:104660000725CEF3072EC77C047CBC4214D0C46857
:1046700004EB8101120E0F444BB9D3B23B70077C9F
:10468000CE55437CCD54837C01F803E0F0BD03FBA1
:1046900002F3C3F30723F1E7C36801EB41011944B7
:1046A000EEE700BF10B50446C06807F0D5FBB4F9CB
:1046B0000600002803DBC0B2002103F0F1F8204619
:1046C00010BD00BF10B50446B0F90600002807DB96
:1046D000C0B2012103F0E4F80021A07903F0CCF886
:1046E0000123637010BD00BF38B50446C0680D4695
:1046F00007F0B2FBE37C207C83420CBF0320042044
:1047000010FB05F080B2A080012107F017FBE060EC
:1047100008B1658038BDA080608038BDF0B4077CEA
:10472000C47CC568C1F38106FF29A4EB0704C1F36B
:10473000811201F003074674B4FA84F48CBF00269A
:104740000126C1F30111C2746409877406700174F3
:104750004DB1511AB1FA81F14909A14203D0418802
:10476000F0BCFFF7C1BFF0BC704700BF2DE9F843B4
:10477000C368002B57D04569044603F097F885427B
:1047800002D903F093F8606103F090F86569401B6B
:10479000B0F5967FF1D372B64649B4F906500B686E
:1047A0004548464A50F83500E668A788257843F022
:1047B00080730B60136843F0010337441360A5B3A3
:1047C000A1F55D41F8390A68BE4202F196021FD296
:1047D00089464FF0010C16F8018B4FF0080E80252A
:1047E0000B689B1A952BFBD918EA050FD9F8002006
:1047F00080F880C055D00B689B1A5F2BFBD9BEF1A7
:10480000010E80F800C14FEA5505E9D1B742E2D167
:104810002B490B689B1A952BFBD962B603F046F81F
:104820006061BDE8F883BDE8F88325490A68BE42A7
:1048300002F5967220D289464FF0010C16F8018BD2
:104840004FF0080E80250B689B1AB3F5967FFAD3BC
:1048500018EA050FD9F8002080F880C018D00B683E
:104860009B1A8F2BFBD9BEF1010E80F800C14FEAD5
:104870005505E8D1B742E1D111490B689B1AB3F550
:10488000967FFAD362B603F011F86061BDE8F88351
:104890000B689B1A3B2BE6D80B689B1A3B2BF7D96E
:1048A000E1E70B689B1A1D2BA9D80B689B1A1D2BDF
:1048B000F7D9A4E7FCED00E084190100001000E046
:1048C000041000E038B543786BB10446B0F9060037
:1048D00000280D4609DBC0B2002102F0E1FF637839
:1048E000E5801BB938BDC18038BDE180EDB22846F6
:1048F000012102F0D5FF28460021BDE8384002F032
:10490000BBBF00BF70B5002504460E464570194672
:104910000572C56045611546FFF700FF3146204628
:10492000FFF7E2FE20462946FFF7CCFF204670BD88
:1049300043888B4201D9FFF781BE7047F8B5144612
:104940004288A24215D906460F469BB91546134622
:1049500004E00134A4B2AC420BD27388A342F8D96C
:10496000214601343A463046A4B2FFF767FEAC4216
:10497000F3D3F8BDE518ADB2954228BF1546AC4259
:10498000E5D3F8BD40F2FA5303FB00F000F5004018
:104990000014B0F5FF7F10B422DAFE2844DDC0F128
:1049A000FE034C1CDBB204FB03F3C4EB04241B1218
:1049B00024120020C943C9B201320C440B440844FC
:1049C00002FB04F402FB03F304F47F441B0202FB2A
:1049D00000F244EA122003F47F03184310BC70472E
:1049E000B0F57F7F84B20DDAB4F53F7F26D8831C03
:1049F0004C1CDBB204FB03F3C4EB04241812241296
:104A00000023D7E79C4225D040F2FA439C4228D9A4
:104A1000C0F1FA004B1CC0B203FB00F0C3EB032350
:104A200000121B120024C5E74B1CC0B203FB00F0B0
:104A3000C3EB032304121B120020BBE7C0F1FC00F0
:104A40004B1CC0B203FB00F0C3EB0323041218128B
:104A50000023AFE74B1CC3EB032300201B120446CB
:104A6000A8E7031DDBB2481C00FB03F3C0EB0020EA
:104A70001B12001200249DE770B44E1C047AF6B29B
:104A8000A64213D0013C14F0FF04C56810D18388FE
:104A90002A4653B1137804FB03F31B1202F8013BBF
:104AA000531B81889BB29942F4D8067270BC704740
:104AB000FF2905D03302013B93FBF4F4A4B2E6E7EF
:104AC0004FF6FF7393FBF4F4E1E700BF10B483B03B
:104AD00002AB074C43F8040D02A91A78A25C03F854
:104AE000012B8B42F9D1019803B010BC704700BF75
:104AF00050CB00002DE9F04704460F464FF480618B
:104B000000264FF0814061605FFA87F801214FF085
:104B100000092061217540463146C4F8209084F890
:104B2000246092461D4602F0BBFE3146404602F02C
:104B3000A3FE276084F80CA028464FF07E5107F0B2
:104B4000ADF828B14FF07E55A5602046BDE8F0874E
:104B50004946284607F084F80028F5D04D46A56060
:104B60002046BDE8F08700BF037B2DE9F0470446EF
:104B70000D46002B41D0037D0846002B40F0988065
:104B800006F07CFED4F810800646A7693046394608
:104B900006F0BEFD0021054607F080F8002800F071
:104BA000C880284607F0AAF8266A8146314628467A
:104BB00006F0AEFD604906F0B5FE314606F0AAFDEE
:104BC00000212062064607F069F8002800F0AE8058
:104BD000414630464FF0010A07F042F808B94FF05D
:104BE000000A84F824A04146304607F039F810B393
:104BF000384607F05DF8BDE8F087A769084606F07B
:104C00003DFE394606F084FD0021054607F046F8D2
:104C1000002871D105F1004007F070F8266A81463E
:104C20003146284606F074FD434906F07BFE3146C6
:104C300006F070FD2062484606F01CFEA16806F0F2
:104C400071FE4FF07E5106F065FD01464FF07E503B
:104C500006F01CFF01464FF07E5006F059FD01465C
:104C600006F058FD4FF07E51064607F017F8002871
:104C70004AD04FF07E50294606F054FE394606F0E1
:104C800049FD00263146A061054606F0E9FF0028EF
:104C90003CD16068013806F0F1FD06460146284621
:104CA00006F0FCFF50BB284607F002F8BDE8F0878D
:104CB00006F0E4FDD4F810804146064606F0D0FF29
:104CC00040BB6768384606F0D9FD414606F020FD36
:104CD0000146304606F0E2FF00283FF456AFC7EB2E
:104CE000450006F0CBFD414606F014FD06F0E0FF5E
:104CF00006F0C4FD064648E728468DE7A661304623
:104D000006F0D6FFBDE8F0873046B4E7A661002084
:104D1000BDE8F087680006F0B1FD414606F0F8FCFA
:104D200006F0C6FF06F0AAFD06462EE706F100468D
:104D30004EE705F1004035E7CDCCCC3EC36A10B557
:104D400004460363FFF710FF236BE0621B1A18BFD2
:104D5000012384F8343010BD4318405C5B7803EBCA
:104D6000002080B2704700BF012B0BD007D3022B6D
:104D700002D1801A00B27047401A00B27047104446
:104D800000B27047084400B2704700BF012B0BD03F
:104D900007D3022B02D1401A00B27047104400B270
:104DA0007047084400B27047801A00B2704700BFD5
:104DB000F0B40D780668AB183478DBB2072B44FAF0
:104DC00005F40AD9771C0760C5F108057078EDB2C3
:104DD00000FA05F5083B2C43DBB201209040E4B219
:104DE000013820400B70F0BC704700BF10B50A4678
:104DF0000C4600F11001FFF7DBFF013C0123E4B298
:104E000003FA04F4001B40B210BD00BF70B50546A4
:104E10000023816005F8183F00F10806044690F869
:104E2000202029463046FFF7C3FF2946A07594F895
:104E300021203046FFF7BCFFE07570BD10B50B7840
:104E400003704B7843708B788370CB78C3700B7989
:104E500003714B7943718B798371CB79C3710B7A71
:104E600003724B7A43728B7A8372CB7AC3720B7B59
:104E700003734B7B43738B7B8373CB7BC3730B7C41
:104E8000037402460C4608461121FFF765FF132103
:104E900050822046FFF760FF152190822046FFF7E1
:104EA0005BFFD08210BD00BF70B49DF80C40BDF810
:104EB0001050032C26D8DFE804F01E170C020068FF
:104EC00004680395A46BD21A0132A44612B270BCD6
:104ED0006047006806680395C3F101042144F46B40
:104EE00009B2A44670BC6047006804680395A46BCF
:104EF000A44670BC6047006804680395E46BA44650
:104F000070BC604770BC70472DE9F04F87B0054614
:104F10000F4690F8148090F815A005920DE06B7E76
:104F2000002B47D0A7420AF10103A7EB04043AD3B0
:104F3000E7B25FFA83FA4FF0000895F81A90B5F9D6
:104F40000E30AC7D03934FFA88F64FFA8AFB314658
:104F50004B465A46B5F90C00FFF718FFC8EB04049E
:104F6000E4B2A742049031464B463E465A4628BF1B
:104F700026460398FFF7F8FE002ED3D0059B002BA2
:104F8000CDD0B5F810E0CDF8009033460246049934
:104F9000CDF804E02846FFF787FFA7420AF1010396
:104FA000A7EB0404C4D247442F7585F815B007B0A9
:104FB000BDE8F08FB5F812E0E5E700BF2DE9F04756
:104FC000044600F10805FFF721FF94F8221094F938
:104FD00017902846FFF70AFF94F823100746284643
:104FE000FFF704FF94F8241006462846FFF7FEFE5C
:104FF00094F91630002B82463ADD4E4494F81A801C
:10500000B4F90C00764276B2324643463946FFF791
:10501000BDFE3246A0814346B4F90E003946FFF783
:10502000A3FE0023E0812375637504F11806A27FB7
:1050300031462846FFF7BCFEE27F804631462846CF
:10504000FFF7B6FE0746002241462046FFF75CFF09
:10505000012239462046FFF757FF012231462846F4
:10506000FFF7A6FE0028EED194F915304B45DEDBA4
:105070005046BDE8F08700BF38B54368FF2903F10B
:10508000170310D8602932D8402984BFC28D9B18DD
:10509000587818B92AE00344587868B31A788A42D5
:1050A000F9D1981C38BD428E1A440D46144610465C
:1050B0000021FFF751FE022104441046FFF74CFE89
:1050C000854202F10402F2D82078627852EA002088
:1050D0000CD0854202D10DE09D420BD0A3781C4438
:1050E0002078637853EA0023F6D1184638BD028E43
:1050F0001344CDE7E01C38BD38BD00BF38B50446C9
:10510000FFF7BAFFC0B104F1080501462046FFF7DA
:105110007DFE94F822102846FFF768FE94F82310CD
:1051200084F834002846FFF761FE284694F82410DE
:10513000BDE83840FFF75ABE38BD00BF4176704722
:1051400010B58181C28119460446FFF795FF20B151
:1051500001462046FFF732FF00B210BD42688A4286
:1051600005D00022416042761C30FFF767BE7047D1
:10517000018270474182704719B94FF6FF710846A6
:10518000704790F8463063B9FB291ED9052301F01A
:10519000010180F84630A0F844104FF6FE71084631
:1051A0007047B0F8442001F03F0141EA8211013B11
:1051B000DBB289B24FF6FE72A0F84410002B18BF84
:1051C000114680F8463008467047F72905D9042370
:1051D00001F0030180F84630DDE7EF2905D903230C
:1051E00001F0070180F84630D5E7DF2905D9022311
:1051F00001F00F0180F84630CDE7BF2905D9012322
:1052000001F01F0180F84630C5E789B2B7E700BF5B
:1052100000232DE9F04706461C464D1E837780F893
:1052200046309A4600F108084FF6FF774FF6FE79B0
:1052300015F8011F3046FFF79FFF0346BB420146AA
:10524000404608D04B45F3D0FFF758FF044424B242
:105250000FFA80FAECE796F91E3033B196F93C006C
:1052600003441C44CAEB040004B22046BDE8F087A6
:105270002DE9F04F85B09946BDF93870BDF83CA0D6
:10528000BB1AC1EB090B002BB8BF5B42BBF1000F8F
:10529000B8BFCBF1000B5B450D4616460093804628
:1052A00048DC4D453A4633464CDC194613460A461F
:1052B000C5EB09019B1A89B2002B0CB2B8BF5B4247
:1052C00004EBD474BE42ACBF4FF0FF3201224D4517
:1052D000039102924FEA640429DC9BB201930DE032
:1052E000D8F80070BF69B847019BE41AA3B21CB29A
:1052F0000135002C2DB211DBA94518DB009B5B4565
:105300002A46534631464046EADCD8F80020534648
:105310009769294632464046B847E5E7029A16445F
:10532000039AA94502EB030436B224B2E6DA05B0CB
:10533000BDE8F08F4A462B46B94635464D451746DF
:105340001E46B2DD304629463E464D460746894652
:10535000AEE700BF10B404682469A44610BC6047DF
:1053600030B40468BDF808500295A46BA44630BC64
:10537000604700BF30B40468BDF808500295E46B84
:10538000A44630BC604700BF70B40468BDF90C602F
:10539000BDF8105003960495246CA44670BC604779
:1053A000704700BF10B582B0B0F90C2001910168C0
:1053B000009200220C6CB0F90A301146A04702B0EE
:1053C00010BD00BF704700BF01F003010129017645
:1053D00006D0032904D0C2880389428183817047A3
:1053E0000289C38842818381704700BF2DE9F04163
:1053F0000568134E6F6986B0B7420446BDF8308029
:1054000010D1013B13441BB20093CDF804800B462E
:10541000AD6A2046A8472368DB6AB3420AD106B0CA
:10542000BDE8F081059304920391B84703A925686C
:105430000EC9E6E7204606B0BDE8F041184700BFB8
:10544000A15300002DE9F0410568124E6F6986B046
:10545000B7420446BDF830800FD1013BCDF804803F
:105460000B4400921BB2AD6A2046A8472368DB6A52
:10547000B3420AD106B0BDE8F081059304920391CE
:10548000B84703A925680EC9E7E7204606B0BDE87E
:10549000F0411847A15300002DE9F04F0568DFF8EF
:1054A00058B06F6985B05F450646BDF93890BDF8C4
:1054B0003CA00C46904615D11F19BC420CDACDF821
:1054C00000A0214601342D6A4B464246304624B2A4
:1054D000A847BC423568F2DBEB6A5B4507D105B0F3
:1054E000BDE8F08F0393B8473568039BE4E7304687
:1054F00005B0BDE8F04F1847A15300002DE9F04377
:1055000087B099420546BDF93840BDF83C6025D0CA
:10551000A24212D00768DFF88080D7F81490C14506
:1055200032D18DE850002846BC6AA0472B68DB6A60
:10553000434524D107B0BDE8F083994202DD084617
:105540001946034628680E96C46B01335B1A1BB2DA
:105550002846A44607B0BDE8F0436047A24202DDFA
:10556000134622461C4628680E96631C846B9B1AC1
:105570001BB22846A44607B0BDE8F0436047284662
:1055800007B0BDE8F0431847059304920391C8475C
:1055900003A92F680EC9C4E7A15300002DE9F04FFD
:1055A000D0F800E0DFF89090DEF814B083B0CB457F
:1055B0000446BDF93080BDF834A00D4617461E469E
:1055C00031D1CDF800A0DEF824B0294633463A4662
:1055D0002046D8472368CDF800A008F1FF323A44AE
:1055E000D3F824B0294612B233462046D847236860
:1055F000CDF800A02946D3F820B03A4643462046CD
:10560000D8472068CDF800A0711E29444346056A9A
:1056100009B23A462046A8472368DB6A4B4506D1C3
:1056200003B0BDE8F08FD847D4F800E0C9E72046C2
:1056300003B0BDE8F04F1847A1530000F0B40024B8
:1056400001254FF6FF76094F076004710476C48187
:1056500004828476C461C5758575457686824682E6
:10566000C180028141818281F0BC7047700E0100CF
:105670002DE9F04F87B01746BDF94040009125460F
:10568000E91D059344BF2B4603F10E010268BDF8E6
:10569000486053690294C91003912B49BDF94440F5
:1056A00001968B42824645D1002C3CDD029B3C4456
:1056B0005E1EB6B24FF0000923B2049301364D4688
:1056C000029B002B28DD059B002403EB090806E064
:1056D000EDB22B0604F1010411D4A6421CD0A1B2F4
:1056E00011F0070F23B24FEA4505F1D1002BB8BFE7
:1056F0000733DB10013418F803502B06EDD5009B5F
:10570000D2F818B019443A4609B2019B5046D8471E
:10571000A642DAF80020E2D1039B01379944049BAA
:105720003FB2BB42CCD1D36A074A934206D107B0FD
:10573000BDE8F08F9847DAF80020B5E7504607B08B
:10574000BDE8F04F184700BFA153000070B4BDF989
:105750000C60BDF91050BDF81440039604950594F3
:1057600070BCFFF785BF00BF2DE9F04F91B08346B5
:105770000591C169BDF8680006909DF87400BDF8F8
:105780006C709DF870A0039002929946002900F079
:10579000CC800B7A48680A68C3EB0903DBB2154674
:1057A00000EBC30230F83360D3780993BAF1010FEC
:1057B00092F9053092F802800E9392F9064079D959
:1057C000BDF93830089323B20B93A94BDBF80020C6
:1057D0000F93194653698B4240F0A280099B002B1E
:1057E00053D0BDF808300C930021234407910D934A
:1057F0000F460C46A946B8F1000F3FD0BDF81C106B
:105800000B9BBDF80C000297CB1813FB00F30C9810
:1058100003440D981BB2014404930BB20A93002574
:1058200005E00135EBB264009845E4B223D9029B50
:105830002B44590703D1731C19F806409EB2230666
:10584000EFD5089BE918059B11FB0AF1BAF1010F8E
:10585000194402D1039B012B1ED0069B0193039B8D
:105860000093D369049A1F4609B253465846B84775
:10587000DBF80020D5E7029F4744FFB2079B099958
:1058800001330793DBB29942B5D8D36A0F9A93429A
:1058900041D111B0BDE8F08F0E9B0599591893695D
:1058A0000A9A29441F4609B2069B5846B847DBF8B6
:1058B0000020B6E7039B012B82D800230B930893AB
:1058C00083E70799099A0131013A49B212F0FF02C0
:1058D0000791099260D1069A4A454F4617D0BAF10E
:1058E000010F03D1039A012A00F0B5800A9A0898A3
:1058F00002EB8201039AD2008DE88400084401B2D1
:10590000DC69029A53465846A047DBF80030DB6A50
:105910000F9A9342BDD0584611B0BDE8F04F1847DA
:1059200058469847DBF8002058E7BBF90A3005993C
:105930008B42AEDDBBF90C3002988342A9DD062311
:1059400013FB0A13002BA4DD039B00EBC303002B06
:105950009FDD9BF81A3033B9B9F1AF0F84BF09F15D
:1059600001035FFA83F9424ADBF800300F921146D7
:105970005A698A426AD1BDF8142008920522099218
:10598000002207921FFA8AF20A92CDF830900FFA9D
:105990008AF2B946039F05920799BDF83040089DE9
:1059A0000522104610FB04120A98324C064608469F
:1059B00001FB0651A65C15FA80F209B212B20491FD
:1059C0000B92082400251CE0BAF1010F01D1012F30
:1059D00024D0069A0192029A009705FB0722D3F879
:1059E0001C800499059B12B25846C047DBF8003072
:1059F000013C013514F0FF046DB24FEA56063FF446
:105A000060AFF007E0D4069A4A45F1D0BAF1010F31
:105A100001D1012F0ED0CDF80490DCE7029AD3F823
:105A200018800B99069BAA1812B25846C047DBF89B
:105A30000030DDE7029AD3F818800B99AA184B467C
:105A400012B25846C047DBF80030D1E758469047BD
:105A5000DBF800308FE70899CDF8009005311C6A1B
:105A6000029A082309B25846A047DBF800304EE7F7
:105A7000A1530000C00E0100F0B5C36985B0044613
:105A80003BB30A296FD00D294FD01A7A91424CD3DB
:105A9000987A884249D38A1A5D68D2B205EBC2056A
:105AA000AA78002A56D0E878002853D0607E0028D3
:105AB0003ED095F905E0B4F90E00A67DB4F90A7060
:105AC000724406FB0202BA4269DCE77DB4F9102099
:105AD00034E00A295CD00D2927D0427E002A50D01C
