:1000000000800020BD0100008181000039810000D6
:1000100039810000398100003981000039810000F8
:1000200039810000398100003981000081810000A0
:100030008181000039810000C19D0000C59D000044
:1000400081810000818100008181000081810000A8
:100050008181000081810000818100008181000098
:100060008181000081810000818100008181000088
:100070008181000081810000818100008181000078
:100080008181000081810000818100008181000068
:100090008181000081810000818100008181000058
:1000A000257A0000317A0000818100008181000002
:1000B0008181000081810000818100008181000038
:1000C0008181000081810000818100008181000028
:1000D0008181000081810000818100008181000018
:1000E0008181000081810000818100008181000008
:1000F0008181000009A80000818100008181000049
:1001000081810000818100008181000081810000E7
:1001100081810000818100008181000081810000D7
:1001200081810000818100008181000081810000C7
:1001300081810000818100008181000081810000B7
:1001400081810000818100008181000081810000A7
:100150008181000081810000818100008181000097
:10016000818100004D8A00008181000081810000B2
:100170008181000081810000818100008181000077
:100180008181000081810000818100008181000067
:100190008181000081810000818100008181000057
:1001A0008181000081810000818100008181000047
:1001B000818100008181000081810000564B4CF25A
:1001C000205210B51A804DF628121A8000BF00BFC9
:1001D00007F0DAFF514B4FF010621A60504A9A60F4
:1001E000504ADA60504A136813F4807304D14F49BF
:1001F0000B604FF4A85313604D4B1A78110703D5C9
:100200001A7842F008021A704A4B4B492A221A7097
:100210004A4A4B4B8B4204D252F8040F43F8040B6A
:10022000F8E7484B484900228B4202D243F8042B9E
:10023000FAE74649464A002352F8230041F82300D2
:1002400001336F2BF8D1434B434A802103F8011B44
:100250009342FBD1414B3D4A1A60414B8A221A70AE
:10026000A3F5805324225A70A0221A709A7992071B
:10027000FCD59A79D406FCD43A4A937903F00C035E
:10028000082B384BF9D103221A7146225A719A79F8
:100290009006FCD5334A9179324B4906FBD5324A58
:1002A0004FF0827111600921516020221A709A79F1
:1002B00002F00C020C2AFAD12C4B2D4A1A602D4B5D
:1002C0002D4A1A6000225A60072243F8042C2B4A58
:1002D000C3F80C2D62B608F05FFA144B1B68DA07FE
:1002E00005D5274808F0AEF8264B274A1A60274B59
:1002F0001B785B0609D5234C234B22689A4204D114
:100300001F4808F09FF8002323600CF023FC07F03F
:1003100041FF09F08FFEFEE70E20054030800440CB
:10032000823F04000100002B10D0034014D0034092
:1003300002D0074000E00740C49AFF1F102A0100C6
:10034000308CFF1FC49AFF1FACAEFF1F0082FF1F3F
:100350000000000000E400E05FE400E008ED00E0E1
:1003600000500640004006404480044004800440A1
:10037000C010050014E000E0BFD401000000202000
:100380004AFEBD601CE00340A5C3945A00F007403C
:10039000FFFFFFFFFFFFFFFFFFFFFFFFFFFFFFFF6D
:1003A000FFFFFFFFFFFFFFFFFFFFFFFFFFFFFFFF5D
:1003B000FFFFFFFFFFFFFFFFFFFFFFFFFFFFFFFF4D
:1003C000FFFFFFFFFFFFFFFFFFFFFFFFFFFFFFFF3D
:1003D000FFFFFFFFFFFFFFFFFFFFFFFFFFFFFFFF2D
:1003E000FFFFFFFFFFFFFFFFFFFFFFFFFFFFFFFF1D
:1003F000FFFFFFFFFFFFFFFFFFFFFFFFFFFFFFFF0D
:10040000FFFFFFFFFFFFFFFFFFFFFFFFDEF9FFFF23
:1004100010B5054C237833B9044B13B10448AFF33E
:1004200000800123237010BDC49AFF1F000000004C
:100430000C2A0100084B10B51BB108490848AFF35E
:1004400000800848036803B910BD074B002BFBD0A0
:10045000BDE81040184700BF00000000C89AFF1F09
:100460000C2A0100C49AFF1F0000000010B584B0E0
:100470000A4C0B4B02930B4A01924FF0FF3300934F
:100480002046094B2022802106F098FA074A0849A5
:10049000204604B0BDE810400BF070BBE09AFF1F8F
:1004A000801A060040420F00CC8FFF1F0C8DFF1FEB
:1004B000156A000030B5094C83B00125204600952F
:1004C0002B463C22022106F0FBFB20460221A576AA
:1004D00003B0BDE8304005F0C3BD00BFE09AFF1F88
:1004E00070B5CEB2044680E80600D5B2304602218F
:1004F00008F0DCF80221284608F0D8F8304608F069
:10050000C7F8A060284608F0C3F80023E060236124
:100510006361204670BD00BF30B5044683B00078EB
:1005200008F0B6F80546207908F0B2F8A3689D42B5
:10053000E36824D0984231D0A560E060ADB1A0B1AD
:100540002369012B37DD0023236101221E4B6169E2
:100550001B680193019B63615B1A132B32D9312B0A
:100560008CBF002301231BB201E00022134692B28C
:10057000002062F30F0063F31F4003B030BD9842C8
:10058000F3D02369A56085420CBF01224FF0FF32F2
:1005900013442361E060002DE7D0D0E72369A56014
:1005A000854214BF01224FF0FF3213442361E06003
:1005B000002DDAD0C3E7002201332261D5DA4FF0F3
:1005C000FF32C3E70223D2E7F8AAFF1F10B50446A3
:1005D0000160C8B2022108F069F800234FF0FF3132
:1005E000032261602273A3602361204610BD00BF17
:1005F00010B5044682B0007808F04AF86368984263
:100600001A4B08D01B680093009B60603233A360D4
:10061000002002B010BD1B680193A268019B9A42A2
:1006200009D8217B4A1E032A05D8DFE802F00F0211
:100630000707012818D0002002B010BD0028FAD109
:1006400003F2E243012023612073E2E730B1012885
:10065000F1D1032088422073DBD1ECE722699A4272
:10066000E9D202202073D4E70420F3E7F8AAFF1FA1
:10067000704700BF10B5184C636D1868036882B0EE
:10068000DB6947F612219847144B1B680193012040
:10069000019BC4F8003100FA00F200234FF6FF710D
:1006A000024384F8580084F8702084F85A3084F8A3
:1006B00059306366236684F8F83084F8753084F81E
:1006C000743084F8763084F87730C4F8FC30A16652
:1006D000E16602B010BD00BF489BFF1FF8AAFF1FD4
:1006E00010B54FF60F0008F05DFF044B5B6D186806
:1006F0000368F8211B68BDE810401847489BFF1F9E
:1007000010B54FF60F2008F04DFF044B5B6D1868D5
:100710000368FA211B68BDE810401847489BFF1F7B
:1007200010B54FF60F3008F03DFF044B5B6D1868B5
:100730000368FB211B68BDE810401847489BFF1F5A
:1007400010B54FF60F4008F02DFF044B5B6D186895
:100750000368FC211B68BDE810401847489BFF1F39
:1007600008B5002008F082FF003018BF012008BD46
:100770002DE9F041E0290C469DF8185008D8013DBC
:10078000EDB20F2D02D849B2002912DBBDE8F0818D
:10079000F729FBD90834E4B2012303FA04F414F076
:1007A000DD0FF3D0436D18680368BDE8F0411B68A6
:1007B00018471F46436D8046186803682943C9B22D
:1007C0001B6816469847D8F854301868036806F036
:1007D0007F011B6804F0EF049847C02CD6D0D8F8EE
:1007E00054301868036807F07F011B68BDE8F041CA
:1007F000184700BF2DE9F0415FFA82F80C0608F1B6
:10080000FF3504F0FE4444F410442D02064605F47E
:10081000706544F00904000482B02C4300F4FE002B
:100820000F46204308F0BEFECDF80080FBB2F2B2C6
:1008300090210348FFF79CFF02B0BDE8F08100BFA4
:10084000489BFF1F2DE9F0415FFA82F80C0608F182
:10085000FF3504F0FE4444F400442D02064605F43E
:10086000706544F00804000482B02C4300F4FE00DC
:100870000F46204308F096FECDF80080FBB2F2B29E
:1008800080210348FFF774FF02B0BDE8F08100BF8C
:10089000489BFF1F2DE9F0415FFA82F80C0608F132
:1008A000FF3504F0FE4444F430442D02064605F4BE
:1008B000706544F00B04000482B02C4300F4FE0089
:1008C0000F46204308F06EFECDF80080FBB2F2B276
:1008D000B0210348FFF74CFF02B0BDE8F08100BF34
:1008E000489BFF1F036810B504460BB1743098474E
:1008F00094F87530803B7F2B00F28580DFE813F0A1
:100900008A008300830083008300830083008300C8
:1009100083008300830083008300830083008300BF
:10092000960083008300830083008300830083009C
:10093000830083008300830083008300830083009F
:100940009A00830083008300830083008300830078
:10095000830083008300830083008300830083007F
:100960009E00830083008300830083008300830054
:10097000830083008300830083008300830083005F
:10098000A200830083008300830083008300830030
:10099000830083008300830083008300830083003F
:1009A000AC00830083008300830083008300830006
:1009B000830083008300830083008300830083001F
:1009C000B0008300830083008300830083008300E2
:1009D00083008300830083008300830083008300FF
:1009E000C4008000D100E10083008300E90083009F
:1009F000ED00F100F500F900FD0083000101840025
:100A0000A36A002B60D110BD236D002BFBD0BDE885
:100A100010401847A368002BF5D094F8772094F87D
:100A2000761094F87400BDE810401847E368002B76
:100A3000F3D1E8E72369002BEFD1E4E76369002BEA
:100A4000EBD1E0E7A369002BDDD094F8761094F8A1
:100A50007400BDE810401847E369002BF5D1D2E7D8
:100A6000226A002ACFD094F8771094F8763094F860
:100A70007400C90101F47E5103F07F031943A1F50D
:100A80000051BDE810401047636A002BBBD0B4F89A
:100A90007610802904F1780028BF8021BDE810403D
:100AA0001847E26A002AAED094F8773094F87600BE
:100AB000DB0103F47E5300F07F001843BDE81040D3
:100AC0001047236B002B9ED094F87600BDE81040B1
:100AD0001847636B002B9AD195E7A36B002B96D137
:100AE00091E7236C002B92D18DE7E36B002B8ED125
:100AF00089E7636C002B8AD185E7A36C002B86D134
:100B000081E7E36C002B82D17DE700BFF8B5436D30
:100B10000446186803681B69984708B90020F8BDA7
:100B200094F80D31626D23F0010384F80D311068E3
:100B300003685B699847C3B2FD2BEFD0626E002A51
:100B400049D001067ED494F85B10F0295FD0F729D4
:100B50005DD0A11881F85B30216E4B1E9A4253D3B1
:100B600094F85B30F02B00F00A82F72B00F007823C
:100B70001A0650D4002284F87520B02A5CD0A02A2E
:100B80005AD0D02A58D0E02A56D0C02A54D00020BB
:100B900084F87400032994F85C0008BF94F85D5051
:100BA00084F8760018BF002500210120B02A84F8BF
:100BB00077506166216684F8F80008D000F2D5818C
:100BC000902A04D0A02A02D0802A00D0002384F8E2
:100BD00059300120F8BD94F8592084F85B3015068F
:100BE0004DD440B20028C0F20E8294F90D01636822
:100BF00040F0010084F80D0103B19847002084F80B
:100C0000590060662066F8BD0132626686E7A11869
:100C100081F87830A0E703F10C02D2B2012AA9D9F9
:100C2000FD2BA7D0EF2B00F2EC8103F0F002802A1D
:100C300084F8752040F0EF8103F00F00013084F854
:100C40007400A7E7A3F1F0010F293FF67CAF012064
:100C500000FA01F111F0810540F0B18111F45F4F0C
:100C60003FF471AF84F8765084F8775084F874506C
:100C700084F87530C4F8FC0084F8F800F8BD02F17F
:100C80000C01CDB2012DACD9FD2AAAD0EF2A00F279
:100C9000578102F0F006802E40F0538140B20028C8
:100CA000A0DB0120C9B2814284F85B2084F85C306B
:100CB00060669AD9FD2A98D0EF2A94BF02F0F00519
:100CC0001546A5F180037F2B8FD801A151F823F0A1
:100CD000390F0000EB0B0000EB0B0000EB0B0000EA
:100CE000EB0B0000EB0B0000EB0B0000EB0B00002C
:100CF000EB0B0000EB0B0000EB0B0000EB0B00001C
:100D0000EB0B0000EB0B0000EB0B0000EB0B00000B
:100D1000390F0000EB0B0000EB0B0000EB0B0000A9
:100D2000EB0B0000EB0B0000EB0B0000EB0B0000EB
:100D3000EB0B0000EB0B0000EB0B0000EB0B0000DB
:100D4000EB0B0000EB0B0000EB0B0000EB0B0000CB
:100D5000390F0000EB0B0000EB0B0000EB0B000069
:100D6000EB0B0000EB0B0000EB0B0000EB0B0000AB
:100D7000EB0B0000EB0B0000EB0B0000EB0B00009B
:100D8000EB0B0000EB0B0000EB0B0000EB0B00008B
:100D9000390F0000EB0B0000EB0B0000EB0B000029
:100DA000EB0B0000EB0B0000EB0B0000EB0B00006B
:100DB000EB0B0000EB0B0000EB0B0000EB0B00005B
:100DC000EB0B0000EB0B0000EB0B0000EB0B00004B
:100DD000310F0000EB0B0000EB0B0000EB0B0000F1
:100DE000EB0B0000EB0B0000EB0B0000EB0B00002B
:100DF000EB0B0000EB0B0000EB0B0000EB0B00001B
:100E0000EB0B0000EB0B0000EB0B0000EB0B00000A
:100E1000310F0000EB0B0000EB0B0000EB0B0000B0
:100E2000EB0B0000EB0B0000EB0B0000EB0B0000EA
:100E3000EB0B0000EB0B0000EB0B0000EB0B0000DA
:100E4000EB0B0000EB0B0000EB0B0000EB0B0000CA
:100E5000390F0000EB0B0000EB0B0000EB0B000068
:100E6000EB0B0000EB0B0000EB0B0000EB0B0000AA
:100E7000EB0B0000EB0B0000EB0B0000EB0B00009A
:100E8000EB0B0000EB0B0000EB0B0000EB0B00008A
:100E9000EF0E0000310F0000390F0000310F00008D
:100EA000EB0B0000EB0B0000D10E0000EF0E00007A
:100EB000D10E0000D10E0000D10E0000D10E0000B6
:100EC000D10E0000EB0B0000D10E0000D10E00008F
:100ED0000023012084F8743084F8763084F8773069
:100EE00084F875506366236684F8F800F8BD8021A5
:100EF0000023216684F8785084F859307F21636E8E
:100F00008B422ED302F00F020023013294F85C10C2
:100F100084F87420012084F8761084F8773084F8FF
:100F2000755063662366C4F8FC0084F8F800F8BDC9
:100F3000022323660121E2E7032323660221DEE781
:100F4000164606F0DF05902D3FF4A8AE06F0BF056B
:100F5000A02D3FF4A3AE06F0EF06C02E3FF49EAEE8
:100F60003FE6013363660020F8BDD02A3FF42FAE80
:100F7000E02A3FF42CAEC02A7FF428AE27E6F02208
:100F800080230025012194F8F76084F8752084F807
:100F9000763084F8F720C4F8FC30204684F8775087
:100FA00084F8745084F8F810FFF79CFCF7220223B1
:100FB00084F8796084F8782028466366F8BD94F850
:100FC0007810F02902D0F7297FF40FAE551C224487
:100FD00000214FEA152E82F878300126F02784F898
:100FE000765084F877E084F8741084F8591030460D
:100FF000C4F8FC5084F875706166216684F8F86066
:10100000F8BD1A46B7E503F10C02D2B2012A7FF609
:10101000ECAD1A4650E6902A3FF40EAEADE500BFA7
:1010200090F87030DA0718D513F0FE0F15D070B5B0
:1010300090F8755085F08002602A82B004460DD881
:1010400090F874608E4231D081B35B08012B32D0AE
:10105000032B00F09B8002B070BD7047A5F1F00338
:101060000F2BF8D801A252F823F000BF6311000043
:10107000411100000F110000F31000005710000094
:1010800057100000CB10000057100000CB100000DC
:1010900057100000CB100000CB100000CB10000058
:1010A00057100000CB100000CB1000005B08012B94
:1010B00001D0022BCFD194F8773094F876200096A7
:1010C00029462046FFF754FBC5E705F10803DBB2CC
:1010D000072BC0D8012202FA03F313F0DD0FBAD0B8
:1010E000636D1868036829461B6802B0BDE870404C
:1010F0001847436D90F8765018680368F3211B6811
:101100009847636D186805F07F010368ECE7436D4D
:1011100090F87750186894F876200368F2211B68DD
:1011200042EAC5159847636D1868036805F07F01AA
:101130001B689847636D1868C5F3C6110368D3E749
:10114000436D90F87650186894F8773002682D0156
:1011500003F00F03126805F07005F1211D4390475D
:10116000BEE7B0F87660802E28BF802600F17805B3
:10117000002E3FF470AF2E44636D15F8011B186804
:1011800003681B689847B542F6D164E794F8773056
:1011900094F8762000962946FFF7EAFA5BE700BF4D
:1011A00070B5174C94F85860102E02D900252846C7
:1011B00070BD2046FFF7AAFC05460028F6D094F83B
:1011C0007530902B0CD083F08003602B0BD90C482A
:1011D000FFF788FB31460A48FFF722FF284670BD1B
:1011E00094F877303BB194F874309E42EFD0002EE3
:1011F000EDD00025EEE7802384F87530F3E700BFDB
:10120000489BFF1FF8B5294C294F94F87030DFF840
:10121000ACE0C7F800E00025012243F0010362F3CF
:1012200047034FF6FF76294604F17800802284F8C0
:101230007030676525606560A560E5602561656162
:10124000A561E56125626562A562E5622563656366
:10125000A563E56325646564A564E564256584F894
:10126000585084F8595084F85A5025666566A66629
:10127000E66684F8745084F8755084F8765084F8E3
:10128000775084F8F8500BF06FFF2046C4F80051F7
:10129000C4F80451C4F8085184F80C5184F80D5175
:1012A000044A0549BDE8F8400AF068BC489BFF1FA6
:1012B000449BFF1F0C8DFF1F710600009491FF1FC0
:1012C00000207047704700BF10B5044604F0A0FD31
:1012D0000A2830D00D283DD04FF6FD73984201D931
:1012E000012010BD0346B4F94220B4F9401004F1C6
:1012F000080004F071FD94F82230032BF0D8DFE8E9
:1013000003F0140E0802B4F84230181AA4F8420090
:10131000E6E7B4F84030181AA4F84000E0E7B4F863
:1013200042301844A4F84200DAE7B4F840301844D8
:10133000A4F84000D4E794F9333094F93410B4F8A9
:1013400042205B1A13440022A4F84230A4F8402043
:10135000012010BD0023A4F84030012010BD00BFC3
:1013600010B518380BF052F909490A4C0BF0A2F9E4
:1013700009F02AFB0BF064FB01212060172007F025
:1013800081F921682820BDE8104007F06DB800BF42
:101390009075924214A3FF1F10B50D490D4C002308
:1013A000C3EBC300221801335279D2091CBF225C5F
:1013B00002F00F02082B0A6001F10401F0D1FFF7DF
:1013C000BFF9FFF79DF9044B00221A7010BD00BF52
:1013D0007CA2FF1F8C8FFF1FC48FFF1F2DE9F047DA
:1013E0001546002A63D004460F46DFF8C880002661
:1013F0004FF6FD7900F1080A0BE004F009FD0A2818
:1014000025D00D2832D0484511D90120013D064490
:101410000AD0236817F8011B1B6843452046ECD00F
:101420009847013D0644F4D13046BDE8F0870346B5
:10143000B4F94220B4F94010504604F0CDFC94F8C1
:101440002230032BE1D8DFE803F02B241D1694F99A
:10145000333094F93410B4F842205B1A134400225C
:10146000A4F84230A4F840200120CFE70023A4F8DC
:1014700040300120CAE7B4F84230181AA4F84200FC
:101480000120C3E7B4F84030181AA4F84000012046
:10149000BCE7B4F842301844A4F842000120B5E794
:1014A000B4F840301844A4F840000120AEE71646D6
:1014B000BAE700BFC912000070B5084D2B6898420A
:1014C000044608D3064EE41AFFF70AF933689B0076
:1014D0009C422B60F7D21B1B2B6070BD60A4FF1FCA
:1014E000F8A2FF1F70B50D4D2B689842044612D329
:1014F0000B4E32682A60E41A07F0DEF8014609480C
:1015000003F024FD07F0D8F80146074803F06AFD10
:101510002B68A342EDD91B1B2B6070BDC8A4FF1F15
:10152000F8A2FF1F70A8FF1F70A5FF1FF8B50446A3
:101530000A4E0B4D0B4F55F820000A4656F8241062
:10154000FFF7A8F90849094A56F8243055F824004D
:1015500047F8243008601360F8BD00BFD4A4FF1F13
:10156000408DFF1FC09CFF1FA89CFF1FD89CFF1F22
:101570002DE9F84F5D4C5E4F5E4D5F4EDFF8B0A138
:10158000DFF8B091DFF8B08122204FF0000BC0B23D
:1015900006F034FC034601462068336004F01AFA72
:1015A0002168DAF80000CA6AD9F80030904200F3E6
:1015B00084809342D4BFC0EB0302C0EB02021B1A2B
:1015C000B3F5804FAABF9203C2EB8232013392FB84
:1015D000F3F391F834203360DB1148F82B30002A04
:1015E0003ED0464A1278032A3AD8DFE802F03102A8
:1015F0000231434A1278002A3ED0424A1278002A29
:101600003AD041494148424AC1F800B0BBF1040F09
:1016100029680160136060D03E493F4A086812683B
:10162000DFF818E1C10001EB000C02EBC20202EB93
:101630000C1272445A44D370091A384B595C090988
:1016400001315846FFF772FF354B01221A7007E04F
:10165000344B58461968FFF769FF314B01221A7065
:101660000BF1010BBBF1050F04F1040405F10405B6
:1016700025D057F8040F8AE72B4A12780AB322497B
:101680002248234AC1F800B0BBF1040F2968016069
:10169000136026D01F49254A0968DFF8A0E052F8F8
:1016A0002120C80002EBC20200EB010C02EB0C127D
:1016B00072445A44D370411ABFE700227FE7BDE865
:1016C000F88F144B154A1B68C3EBC3035846D15C13
:1016D00009090131FFF72AFFC2E70E4B1868C10064
:1016E000AAE70C4B1968C800E5E700BF18A3FF1F65
:1016F00024D90000408DFF1FA49CFF1F588FFF1F9F
:10170000D59CFF1FA09CFF1FF0A2FF1FA89CFF1FDE
:10171000D89CFF1F94A4FF1F8CA4FF1F8C8FFF1F5A
:10172000F4A2FF1F3C8DFF1F6CA1FF1F7CA2FF1FB7
:10173000A0A2FF1F788DFF1FD4A4FF1FEC9CFF1FEA
:1017400008B50A4B1A783AB91146094803F03CFF2C
:10175000084B01221A7008BD074A0548002103F012
:1017600033FF044B01221A7008BD00BF64A4FF1FA1
:10177000589CFF1F9FA4FF1F4040BF002DE9F04F62
:10178000A04BA14C196885B0054608460AF08AFEB0
:101790000BF07CF99D4A9E4913680093009B0E68EC
:1017A00020609B1B98424FEA400408D8994816686D
:1017B0000378019683F00103019E03700E601368A5
:1017C000954A0293029B116890485B1A9C4208D884
:1017D000924900680B7803900398106083F001032E
:1017E0000B708F4B1B781BB18A4B1B78002B6ED173
:1017F0008C4C2378002B4BD18B4B1B78002B50D07B
:10180000844B1B78002B54D1884B1B78012B00F0A4
:10181000A981022B55D000221146854803F0D4FE41
:10182000EF00DFF840927B1B4B449B79D80740F1D7
:101830009480804BDFF8308253F82530C8F80030B0
:101840002378002B58D07C4B1B78002B54D07D1B69
:10185000A94401240BE03368A3427AD02B680B33F0
:10186000A3423BD003F0B0FE01341B2C3ED099F8CC
:101870000030724D724E6E4803F00F030B33A342DB
:101880004FF00002A1B2E6DA0022A1B26848E9E70F
:10189000604B1B78002B40F06B81634B1B78002B57
:1018A000B2D1684B1B78002BAED05A4B1B78002B63
:1018B000AAD0654B5E4853F82520002103F084FE32
:1018C000AEE74D2200215A4803F07EFEA8E7012230
:1018D00000215748534C03F077FEA1E7A1B25B4AC1
:1018E0005348013403F070FE1B2CC0D1584B012229
:1018F0001A7005B0BDE8F08F524B1B78002B39D021
:101900007D1BA944012411E00B68494852F823309B
:101910000B33A3424FF00002A1B215D02B68A342B3
:1019200001D003F051FE01341B2CDFD099F80030B8
:101930004849494A424D03F00F030B33A342E3DA0F
:101940000022A1B23A48ECE74FF4000203F03CFE5B
:10195000E9E7424A03F038FE86E73B49354ADFF8BB
:1019600008813F4B51F8251052F82520C8F8001087
:101970001A6065E7374B1B68C3EBC3034B449B7985
:101980005907B3D47E1B4E444FF0020B01240AE0EA
:101990000022A1B2264803F017FEBBF11B0F29D08D
:1019A00001340BF1010B337803F00F030B33A34227
:1019B000EEDB012C00F0E380022C00F0EC80EB1C4D
:1019C000A342E5D11FFA84FAD8F8002018485146FE
:1019D00003F0FAFD144A1278002ADED00D4A12787C
:1019E000002ADAD051460022114803F0EDFDBBF188
:1019F0001B0FD5D17B1B0C4E99444FF00B0B0024D1
:101A000057E000BF54A4FF1FAC9CFF1FF8AAFF1FA4
:101A1000E09CFF1F6CA5FF1F9C9CFF1F58A4FF1F8D
:101A2000789CFF1FD59CFF1FE49CFF1F588FFF1F52
:101A3000589CFF1F38D90000A09CFF1F8CA4FF1FDB
:101A400010A3FF1F6CA1FF1F58D900000080FF00EA
:101A50009FA4FF1F94A4FF1F7CA2FF1F8080800013
:101A6000749CFF1F8C8FFF1F5CA4FF1FA34254D0E8
:101A700004EBC403791951481A4602EB01130344DD
:101A80009B78C3F30213012B3AD0002B64D04C4B4C
:101A90001B78002B34D14B4B4B481A68594603F046
:101AA00093FD01340BF1010B102C1FFA8BFB3FF45B
:101AB0001DAF99F8003003F00F030133A342F0DDAE
:101AC000337823BB414BA20753F82530CED0A34235
:101AD0002ED004EBC403791938481A4602EB0113DF
:101AE00003449B78C3F30213012B09D0002BCED102
:101AF0003278002AD5D15946334803F065FDD0E746
:101B0000D8F800203048594603F05EFDC9E7304A56
:101B10002D48594603F058FDD4E72E4B1B78002B77
:101B2000A6D04FF400025946274803F04DFDB8E710
:101B3000284B1B78002BF4D104EBC4031A46791907
:101B40001E4802EB011303449A78C2F30212012AE1
:101B5000D6D0002A9BD1CEE71D4A1B48594603F038
:101B600033FD9EE71C4A1848002103F02DFD57E67F
:101B700044F64D420021144803F026FD50E6174B71
:101B80005B7813B1164B1B7893B9164A0E480121A6
:101B900003F01AFD04E7114B9B7813B1104B1B782F
:101BA00033B94FF680720221074803F00DFDF7E6C6
:101BB00000222146044803F007FDF1E6EC9CFF1FDC
:101BC00058A4FF1F749CFF1F589CFF1F7CA2FF1F7F
:101BD00020202000789CFF1F808080007C9CFF1FBD
:101BE0006CA5FF1FFFFF800010B550B9044601210E
:101BF000094804F009F921460748BDE8104004F0FF
:101C000005B90021044804F0FFF801210248BDE8AD
:101C1000104004F0FBB800BFB0A2FF1F2DE9F04157
:101C2000C600321A574D584CAB5C54F820E003F014
:101C30000F0301339E452A4429DB5179C90956D146
:101C4000517801F00F0144F82010341A2C44074653
:101C5000A37803F00F02B2EB131F6CD0A2791033FC
:101C60006FF34102A370A271F61B0BF0CFFAAB5DCC
:101C7000AA1903F00F030133D17890FBF3F404FBAE
:101C80001300013060F30301D170BDE8F08192F8D8
:101C900006C0CCF3400CBCF1000F11D051780F09F5
:101CA00001F00F018F420ADDBE4508DB5379DB09E5
:101CB000C9D0002F36D0013F44F82070C5E73FB3AC
:101CC000321A2A445179C9090FD0BEF1000F12DB34
:101CD000BCF1000F09D0537803F00F039E453CDAA6
:101CE000331A2B445F783F09E3E7BDE8F08192F8AF
:101CF00006C0CCF3400CBCF1000FF1D1321A2A44DB
:101D0000527802F00F029B1A013B44F820309CE706
:101D1000321A2A44D77807F00F07BE45D0DB537933
:101D2000DB0990D0331A2B44DB7803F00F03013B1F
:101D300044F8203089E7237913F07F080FD1F31B93
:101D40002B449A796FF341029A71F31B2B440121C2
:101D50009A7861F307129A7086E7BDE8F0810BF07C
:101D600055FA0A4BC21783FB0013C2EB63136422BC
:101D700002FB13008045E2DDA37943F00203A37167
:101D8000E3E700BF8C8FFF1F7CA2FF1F1F85EB5175
:101D900070B50C4D0C4E0024C4EBC40333442046F4
:101DA0005B79DB092B680ABF204603F1FF3301335F
:101DB00001342B60FFF732FF082C05F10405EBD14D
:101DC00070BD00BF7CA2FF1F8C8FFF1F0949C0EBB5
:101DD000C0020A4408495279D20951F8202004D19E
:101DE000013241F82020FFF719BF013A41F82020C5
:101DF000FFF714BF8C8FFF1F7CA2FF1F38B5134C59
:101E0000134B246853F8203004EB440403EB8404A0
:101E10007F2C05460AD9A9B20E4A0F4803F0D4FB1D
:101E20000E490F4A01230B70137038BD0D480E4B3D
:101E30000470204643F82540FEF7DCFCA4F11803AB
:101E4000352BE8D82046FFF78BFAE4E768A5FF1F9B
:101E500078D7000080808000589CFF1F9FA4FF1F40
:101E6000F4A2FF1F9EA4FF1F088EFF1F0C4B10B58E
:101E7000044653F820007F2807D80A460021FEF7C1
:101E8000E1FC0021172006F0FDFBA1B2002205486D
:101E900003F09AFB0449054A01230B70137010BD2F
:101EA000088EFF1F589CFF1F9FA4FF1FF4A2FF1F57
:101EB000F8B51E4C1E4B246853F8203004EB440444
:101EC00003EB84047F2C05460AD9A9B2194A1A48A3
:101ED00003F07AFB19491A4A01230B701370F8BDFD
:101EE000184FDFF874E03B681748184EC3EBC30384
:101EF00006EB02161EF8033050F822E01A090132F0
:101F0000204606F80E40FEF775FC3B681049114A62
:101F1000CB5C42F82540002BD7D0A4F11803352B19
:101F2000D3D82046FFF71CFACFE700BF68A5FF1FF4
:101F300078D7000080808000589CFF1F9FA4FF1F5F
:101F4000F4A2FF1F94A4FF1F7CA2FF1FFCA1FF1F90
:101F50005C8FFF1F088EFF1F8C8FFF1F38B5134B40
:101F6000044653F820007F280AD9A1B20022104865
:101F700003F02AFB0F49104A01230B70137038BD80
:101F80000E4D0F4A2B68C3EBC3030021D25C12092C
:101F90000132FEF757FC2B680A4AD35C002BE4D0D1
:101FA0000021172006F06EFBDFE700BF088EFF1F41
:101FB000589CFF1F9FA4FF1FF4A2FF1F94A4FF1FA4
:101FC0008C8FFF1F5C8FFF1F2DE9F04FB24FDFF8A2
:101FD000008357F82030B14AC50003EBC30329182A
:101FE00087B003EB01134344125C029293F8029012
:101FF000C9F30219B9F1060F044600F0EF8009F1A8
:10200000FF39B9F1040F07D8DFE809F02503C40947
:102010001300002347F8243007B0BDE8F08FA04B31
:102020002C1B1C44637943F08003637107B0BDE847
:10203000F08F0BF0EBF82D1B994B5B5D03F00F035A
:10204000013390FBF3F202FB1300013047F8240048
:1020500007B0BDE8F08F934A57F824301268DFF8D4
:102060007492DFF834B202EBC20203EBC30303EB5A
:1020700002134344C4EB050A5B7803F07F03C9F8FD
:10208000003006F019FB57F82430874A029E126888
:10209000009605EB040E03EBC30303EB0E1308EBF2
:1020A000030C18F803E09CF8023080497C4E03F0E2
:1020B0000F0303FB02221044794B086013F80A2037
:1020C0007B480B68120901320EF07F0102F020FFFD
:1020D00057F82430DA07B24400F1A2809AF80520BC
:1020E00002F07F02622A40F3A280632A00F0F880A7
:1020F00070496B48DFF8E0B105EB040A2A1B03EBDB
:10210000C3034FEA0A1A5344805C18F803E00B68D3
:10211000D9F80020029900930309019101330EF0D0
:102120007F016548DFF8B49102F03CFF57F82420A6
:102130000026D0008318534443443344C4EB050EB7
:1021400093F903300293002B19462DDB544B13F8FF
:102150000E205A4B120953F826000132FEF79AFB63
:1021600057F82420029BC9F80030D0000136042E15
:1021700009F10409DED12544104400EB0510504B51
:1021800018F8001003EB0414C1F30603A35407B0BE
:10219000BDE8F08F424B2C1B1C4463796FF3C713CF
:1021A000637107B0BDE8F08F5BF82610D9F80030F6
:1021B0008B42C4EB050ED9D0394B13F80E203F4BA0
:1021C000120953F826000132FEF764FB57F8242069
:1021D0005BF82630C9F80030D000C7E7072007F0C9
:1021E00025FF052856D8DFE800F0031815120F0C5C
:1021F00000218946334807F0D3FE324807F080FEBD
:10220000FDE605218946F5E704218946F2E7032129
:102210008946EFE702218946ECE701218946E9E793
:1022200006F04AFA23495BF82430086061E706F0BB
:1022300043FA05909AF8033023491B09086823499B
:10224000049103930AF0DEF9039B049951F82310DB
:102250000AF030FA4FF07A510AF02CFA03909AF80B
:10226000050000F07F000AF0D1F9039B01461846F3
:102270000AF020FA059A824610460AF0C3F9014690
:1022800050460AF00FF90AF001FC0A495BF82430C5
:1022900008602EE70621ADE77CA2FF1F5C8FFF1FC1
:1022A0008C8FFF1F94A4FF1F98A4FF1FF8A1FF1F8E
:1022B00070A8FF1FDC9CFF1F70A5FF1F408DFF1F34
:1022C000FCA1FF1FAC91FF1FF8A2FF1F988EFF1FFC
:1022D000EC9CFF1F688FFF1FC09CFF1FFCA2FF1F0D
:1022E0000AF094FF059006F0E7F9164904909AF871
:1022F00003A00868144903914FEA1A1A0AF082F9F8
:10230000039951F82A100AF0D5F94FF07A510AF0E2
:10231000D1F9059B82460D4883FB00015818D91757
:10232000C1EBA01101EB4100C1EB4011581A013083
:102330000AF06CF9014650460AF0BCF9049A82464C
:102340009AE700BFF8A2FF1F988EFF1F859176AC19
:102350002DE9F04FDFF82482DFF828A2D8F800201A
:102360007D495AF8223002EBC20203EBC30303EBB0
:1023700002130B4485B0187A10F07F047DD10194CC
:10238000764B1B78012B5ED0022B6CD1744B1B78E3
:10239000002B6BD006F090F9DFF8EC918346002417
:1023A00043E0704B704A1868C4EBC403134409EB54
:1023B0000507DA78BE601209039302920AF022F947
:1023C0006A4B029A53F822100AF074F902903046D0
:1023D0000AF018F9029A014610460AF063F80AF06A
:1023E00055FB039B9B797860DB0713D45AF82420B4
:1023F0005F4B0F321340002BC0F29B805D4A2A4492
:102400004D44D15CAB8109B10021D154019B002B1B
:1024100040F08780D8F800309C4200F0868020464B
:10242000FFF7D4FC0134082C1DD0250109EB05076A
:102430007E68B345F6D3504B1B78002BB1D0FEF726
:10244000ABFF7E68ADE7464B1B787BB106F034F9F5
:10245000D8F80040DFF83091484E220109EB020322
:102460005D68A8421AD205B0BDE8F08FD8F8000028
:1024700005B0BDE8F04FFFF781B90AF0C7FE404B49
:10248000C21783FB0013C2EB6313642202FB130029
:102490008442D4BF00230123019371E7364B1B789C
:1024A000002B4BD15AF82410314B0F310B40002B2D
:1024B0004CDB3049114409EB0200CE5C83810EB144
:1024C0000020C854274B28491868284FC4EBC40380
:1024D0000B449144DE78C9F8085036090AF092F8A6
:1024E00057F826100AF0E6F8064628460AF08AF859
:1024F0000146304609F0D6FF0AF0C8FA019BC9F838
:10250000040023B12046FFF75FFDD8F800402046C5
:10251000FFF734F9D8F8000005B0BDE8F04FFFF739
:1025200037BC2046FFF750FD74E72046FFF726F939
:1025300075E7013B63F00F0301335FE7FEF72CFF04
:102540003468220109EB02035D68ABE7013B63F0ED
:102550000F030133ADE700BFEC9CFF1F588FFF1F37
:10256000789CFF1F98A4FF1F8C8FFF1F988EFF1F62
:102570000F000080FCA1FF1FC48FFF1F94A4FF1F4A
:102580001F85EB517CA2FF1FE8A4FF1F0C4B70B509
:1025900001220C4E1A70002406F08EF806EB04158A
:1025A0000134686006F088F8082CA860F4D1064B66
:1025B0001B7803B170BDBDE87040FEF7B1B800BF35
:1025C000789CFF1FE8A4FF1FC48FFF1F07284CD86B
:1025D0002DE9F843C5002B1A244C254AE45C04F08D
:1025E0000F04013404EBC403073323F0070328442A
:1025F000214400AFEE46ADEB030D02EB001591FB5D
:10260000F4F36E46002004FB131300EBC0022A44CF
:1026100003EBC30C06EB0C010130D2F80090D2F8AA
:102620000480127A46F80C90013384420A72C1F891
:10263000048093FBF4F204FB1233E6DC002319461A
:10264000F218E8180131D2F80080D2F804C0127AEA
:1026500045F803808C42C0F804C0027203F10903FC
:10266000EEDCF546BD46BDE8F88370478C8FFF1F52
:10267000EC9CFF1F2DE9F0473A4FBDF8206005465E
:102680008946384629469246984603F00DFC97F94C
:10269000314080B2A4B2C0EB0803341B03EBD37308
:1026A00004EBD47409EB63030AEB640400222846AC
:1026B000A7F84030A7F8424087F846200AF0E0FD2E
:1026C00048B304463E464FF6FD7801E0013C22D077
:1026D00015F8011B234803F09BFB0A282FD00D2877
:1026E0003BD04045F2D80346B6F94220B6F9401037
:1026F0001D4803F071FB96F82230032BE6D8DFE883
:1027000003F018120C02B7F84230013CA3EB0000B2
:10271000A7F84200DCD1BDE8F087B7F84030181ABE
:10272000A7F84000D2E7B7F842301844A7F84200B3
:10273000CCE7B7F840301844A7F84000C6E796F950
:10274000333096F93410B6F842205B1A1344002255
:10275000A6F84230A6F84020B8E70023A6F840309B
:10276000B4E700BFA8A2FF1FB0A2FF1F30B5054607
:1027700083B010460C46FFF737FA074B1A6803324E
:10278000610116235200009309B2284612B2202399
:10279000FFF770FF03B030BDC48EFF1FF0B5194CBA
:1027A000194F1A4E85B004F1400502E00834AC42DE
:1027B00026D02379002BF9D03B680393039B144860
:1027C000336004F053FC0121124803F003FB12496B
:1027D000104803F00FFB01210E4803F015FB002108
:1027E0000C4803F013FB2023206800930A22802367
:1027F0000021FFF73FFF002323710834AC42D8D1FA
:1028000005B0F0BDA88DFF1FF8AAFF1F989CFF1F01
:10281000E09AFF1FB0A2FF1F78DA000030B51E4C0F
:1028200083B0012104F1080003F0D4FA04F1080098
:102830001A4903F0DFFA002504F108000121A4F889
:102840004050A4F8425084F8465003F0DDFA29467F
:1028500004F1080003F0DAFA114A124B12781B78DF
:10286000934210D0104B1B784BB910482023009393
:1028700014222C235621FFF7FDFE03B030BD0C4B74
:1028800053F82200F2E7084A1278002AEDD0084AED
:1028900052F82300EAE700BFA8A2FF1FC40C010002
:1028A000908EFF1F588FFF1F2CA3FF1FF8D800002A
:1028B000E88DFF1F70B5064684B010460D46FFF741
:1028C00093F90A4B1C68640002A930460A220534B9
:1028D0000AF080F9A4B269011623009322B209B26A
:1028E00002A82023FFF7C6FE04B070BDC48EFF1FF0
:1028F000F8B5134E074600257088002498B12304CC
:10290000FF2293FBF0F02844114680B202F086FECD
:1029100002F028FFA1B20246094802F055FE708875
:102920000134A042EBDC064802F06CFD05F5807531
:10293000384605F0E3FEB5F5803FDDD1F8BD00BFB8
:10294000589CFF1F2DE9F047494BDFF83C81494E69
:102950000FCB86B006AC04E90F00474804F086FBB5
:10296000002108F1080003F035FA45464FF0000A4F
:102970004148424C04F07AFB12230022404941486E
:10298000A8F84030A8F8423088F846200FFA8AF9B3
:1029900003F030FA4FF6FD7701E0B44222D014F88C
:1029A000011B394803F034FA0A284FD00D285BD0B8
:1029B000B842F2D80346B5F94220B5F94010314883
:1029C00003F00AFA95F82230032BE6D8DFE803F08B
:1029D00038322C02B8F84230B442A3EB0000A8F819
:1029E0004200DCD12949274803F004FA09F0030921
:1029F00006AB03EB8909202359F8100C00930A2237
:102A00005021FFF737FE1C4804F03CFC0AF1010A94
:102A1000642005F073FEBAF1100FA9D1642006B04E
:102A2000BDE8F04705F06ABEB8F84030181AA8F8BB
:102A30004000B2E7B8F842301844A8F84200ACE7CA
:102A4000B8F840301844A8F84000A6E795F93330AC
:102A500095F93410B5F842205B1A13440022A5F80A
:102A60004230A5F8402098E70023A5F8403094E7CD
:102A70004CD70000EAD70000E09AFF1FE4D700001F
:102A800078DA0000B0A2FF1FA8A2FF1F34E3000005
:102A90002DE9F047304BDFF8C8C0186859681A7A3A
:102AA0002E4DDFF8C0E084B001AB03C300271A70DD
:102AB0004FF001094FF003085CF8046F002206F0A4
:102AC0007F069DF8043066F306038DF8043001ABF1
:102AD00003CBAC18A85009321B782372902A61608E
:102AE000EFD1C7EBC7010EEB01031EF8012042F046
:102AF0000F0267F307120EF801209A789E79587931
:102B0000597893F804A0DC786FF303029A706FF39E
:102B10000006F2B29E7800F07F0001F0F00102F0B2
:102B2000FD0201376FF306006FF307116FF3060A1A
:102B300069F3071668F303046FF38202082F05F1A7
:102B400090055871597083F804A09E70DC709A71DA
:102B5000B2D104B0BDE8F0875CD70000EC9CFF1F49
:102B6000688FFF1F8C8FFF1F70B5002005F02AFAB9
:102B7000052803D00521002005F03EFA1A4B01205C
:102B80001C7805F01FFA844203D02146012005F08D
:102B900033FA164B02201C7805F014FA844203D055
:102BA0002146022005F028FA114B03201C6805F08D
:102BB00009FA013CE4B2844203D02146032005F027
:102BC0001BFA0C4E0424204605F0FCF956F8045B71
:102BD000EDB285422946204604F1010401D005F0FA
:102BE0000BFA092CEFD170BD588FFF1F94A4FF1F63
:102BF0003C8DFF1F408DFF1F38B5002005F0E2F926
:102C0000052801D0002038BD012005F0DBF90C4B70
:102C10000C4D1870022005F0D5F90B4B18600320FD
:102C200005F0D0F9094B013018600424204605F066
:102C3000C9F90134092C45F8040BF7D1012038BD3E
:102C4000588FFF1F408DFF1F94A4FF1F3C8DFF1F57
:102C500070B5104E202404F19005A4F12000092243
:102C600021463044144405F0EFF9A542F5D1B5F5FD
:102C7000946F2C46EFD1084D4FF48464A4F5846022
:102C8000072221462844144405F0DEF9B4F58B6F81
:102C9000F4D170BDEC9CFF1F8C8FFF1F2DE9F84312
:102CA000DFF85C80202404F190076FF0200909EB25
:102CB0000405454404F10906204605F083F9013472
:102CC000B44205F8010FF7D1A742F0D1B7F5946FE0
:102CD0003C46E8D1094D4FF484672C463E1B07352E
:102CE000301905F06FF904F8010BAC42F8D1073741
:102CF000B7F58B6F2546F0D1BDE8F8838C8FFF1FA9
:102D0000EC9CFF1FF0B53F4C8BB005F013F9236826
:102D10000493049D23680593059E23680693069FEC
:102D2000236807930799384A23680893374B15603F
:102D3000374A1E603748384B1160384D089E07608F
:102D4000002201211A713648DA6083F82220A3F8A4
:102D50004020A3F8422083F84620198383F82110ED
:102D60002E60186005F0A8FC2E49236809930B46D5
:102D70002D4A099D43F8045B10606C312268039270
:102D8000039A43F8042B8B42F8D1284B284F294D46
:102D9000294A196829482A4B2A4E2B4C12683F6849
:102DA0002D6801601A6008463760256009F07AFBDB
:102DB00009F06CFE254B0B2218600C212448FDF70E
:102DC0008FFB00212348FDF701FC052206238DE837
:102DD0000C002149214B224A224802F059F9224A8B
:102DE0002249204808F0CAFE52230E221B21204807
:102DF00002F0D4FB1C4A1F491D4808F0BFFE0BB06F
:102E0000F0BD00BFF8AAFF1FE09CFF1F9C9CFF1FA6
:102E1000989CFF1F74A4FF1FA8A2FF1F68A4FF1F98
:102E20003CD7000088A1FF1F6CA4FF1F708DFF1FFF
:102E3000408DFF1FD4A4FF1F68A5FF1F709CFF1FBC
:102E400070A4FF1FA89CFF1FD89CFF1FAC9CFF1FF6
:102E500070A1FF1F78A4FF1F848DFF1F348DFF1FFB
:102E6000B88EFF1F30A3FF1F0C8DFF1FC95000003D
:102E7000589CFF1F3D53000030B5124C83B0002218
:102E800001210A232046019100931146802303F07B
:102E90004FF902252023204619460095002204F010
:102EA000BFF92046009520230022402104F0B8F904
:102EB0000095204620230022602104F0B1F903B0E0
:102EC00030BD00BFE09AFF1F2DE9F04FA54C05462D
:102ED0000F4694E80F008FB002AE0DF1280886E887
:102EE0000F0088E80F0000230793069308930993C7
:102EF000092D00F24782DFE815F065007C009A009A
:102F0000C400EB0012018901A501C4010A00964A20
:102F1000964B15681B689649964805EBC50203EB6E
:102F2000C30303EB0213944AC95C944B52F8252067
:102F30001B68029001F07F010132043301350891D2
:102F400007928F4909938F4A8F4B069503910492FC
:102F5000834605938D4CDFF8B0A204F108000121EF
:102F60004FF0000902F036FF04F10800884902F032
:102F700041FFA4F84090A4F8429084F84690FFF7EF
:102F80007BFF494604F1080002F03EFF04F108000F
:102F9000012102F03BFF01244FF00A09DAF800207A
:102FA000CDF80090023A21B2584612B22023FFF722
:102FB00061FB612C04F1200400F07F81A4B256F87B
:102FC00004BFEBE76D4A734B15681B687249734A7F
:102FD00007936D4B0968127808910435704909927E
:102FE0000293704A06959B46664B039104920593A3
:102FF000B0E75D4B6C4A1D686C4B6D491B680793CD
:10300000C5EBC503134408685B795A4C69496A4AA1
:10301000029403F07F0308930135684B06950391F2
:103020000492059309F00CFDA346099092E74E4BDC
:1030300063491B685C4AC95C624CC3EBC303D0188C
:10304000D35CC2788579120903F00F03013354F879
:10305000220007935C4B5D4A5D4C0C90C5F38005E4
:103060005C4804936FF07E030695029203940590EA
:1030700008930993002900F08981574B0D939346DB
:1030800068E73A4B384A19681268544B5448554C13
:10309000029001EBC10102EBC20201EB02125248A5
:1030A00052490394524C04901A44059100236FF046
:1030B0007E0012F9011F0029C0F25E8106AD45F8BD
:1030C00023100133042BF4D1069DDDF808B041E74D
:1030D000254B264A1B6812682549284802EBC20284
:1030E00003EBC30302EB0313CA18CD5C937851784A
:1030F00002682448029003F00F030133043209935D
:10310000214B079205F07F0501F07F01394A0393B7
:103110002F4B069508910492834605931AE7124AAD
:10312000124B11681A68124B334801EBC10102EBD4
:10313000C20202EB0112134430499A781B7A0291C1
:10314000C2F3021203F07F0350F8220007932C4AC7
:103150002C4B0A906FF07E058B46039204930593E7
:103160000695F7E668D7000094A4FF1F8CA4FF1F04
:10317000EC9CFF1FF0D700007CA2FF1F68A5FF1F7B
:103180006CD800000CD80000ECD70000A8A2FF1FEC
:10319000941501003C8DFF1FD89CFF1F9EA4FF1FAC
:1031A0001CD8000020D800008C8FFF1FB09CFF1F90
:1031B000708DFF1F24D800002CD8000034D80000E8
:1031C0005C8FFF1F748EFF1F04D80000F4D700002F
:1031D00038D800003CD8000040D80000EE9CFF1F0B
:1031E00074D8000078D800007CD8000080D8000097
:1031F00068D8000084D80000548DFF1F14D8000048
:1032000060D80000F8D80000C48EFF1F614B6249EF
:103210001D68624AC5EBC5031268CB5C089203F0D7
:103220000F011B0901310133079109935C495D4B83
:103230005D4A039301355D4B069502918B460492DE
:10324000059387E6534A544B126859490291C2EBE1
:10325000C20213448B465A7899781B7902F00F0505
:1032600001F00F01120903F07F0301350792089165
:1032700009935049504A514B069503910492059386
:1032800068E6444A444B12684D490291C2EBC202BF
:1032900013444C48DA789B791209C3F380038B46B8
:1032A000079350F82210484B484A0A916FF07E0568
:1032B00003920493059306954CE60121444802F0DD
:1032C00089FD4449424802F095FD0121404802F041
:1032D0009BFD00213E4802F099FD032F0DD8DFE849
:1032E00007F020362B02152201238DE80C00622105
:1032F0001D230B22384802F01BFF06AE00243B1BA7
:10330000B3FA83F35B0915F17F0F21B228461A4601
:1033100028D00134FFF7CEFA042C2AD056F8045FE7
:10332000EDE7152201238DE80C0002211D230B225D
:10333000294802F0FDFEE0E7152201238DE80C008C
:1033400042211D230B22244802F0F2FED5E715226C
:1033500001238DE80C0022211D230B221E4802F0C0
:10336000E7FECAE758F824000134FFF7FFF9042C00
:10337000D4D10FB0BDE8F08F06A948F8234041F83A
:1033800023009EE6DDF808B00025E3E5134B0D931E
:103390009346DFE594A4FF1F8C8FFF1FA4A2FF1F9D
:1033A000F0D7000038D8000048D800004CD8000002
:1033B000FCD7000054D8000058D8000060D80000A6
:1033C00004D80000748EFF1F68D80000F4D70000F6
:1033D000B0A2FF1FAC030100E09AFF1F44D8000019
:1033E0002DE9F04F4148A5B001F076FE05F064F9F3
:1033F0003F4B186005F060F93E4B1C681860041BD9
:1034000004D03D4B1B78002B40F01583FEF7A0FF46
:103410003A4803F02BFEFEF7ABF83948FDF77CF88D
:1034200003B21990002B40F0CB81364B0093364B02
:103430000493364B0893364C364B0393364B01932B
:10344000364B0693364B0293364B05933648FDF7C1
:10345000CFF8012800F0EC81022800F04882334DBB
:10346000DFF8D080DFF8D0B0204801F0EFFE002870
:103470007DD01E4801F0F6FEC0F30722D3B2012B27
:10348000C6B200F021812278032A00F22E81DFE803
:1034900002F055020255002BE6D1002E59D0019BB7
:1034A0001B68C3EBC30308EB03029279500700F1DA
:1034B0009582029B1B78002B00F00E82DBF8003017
:1034C000002B46DD0C4B1B78002B00F08C83039BFC
:1034D0001B78002B3DD0164F3B78002B39D0019B39
:1034E0001868FEF755FC00233B7032E030A3FF1F45
:1034F0006CA4FF1FB89CFF1F789CFF1FE09AFF1F62
:1035000070A1FF1FF4A2FF1FD59CFF1FE49CFF1FAB
:10351000588FFF1F6CA1FF1F94A4FF1F9FA4FF1FC4
:10352000A09CFF1F8CA4FF1F78A4FF1F7C9CFF1F83
:10353000B49CFF1F8C8FFF1F10A3FF1F002B93D184
:10354000924B002E40F0328231461A681920FDF766
:10355000A1F98F4A8F4B12681C921C9A43F82620BF
:103560008D480023AB5501F071FE002881D18B4AB4
:10357000019BD2F800C06A780792AA780A92089A4A
:103580001B6812781792039A159312780B92059A7A
:103590007F4E12681092049A7E4F12781192804AE0
:1035A00094F8008012781392029A0F9012780E927B
:1035B000009A1490194612787A4B0D920A46C90067
:1035C000C2EB010B16919B44129003460C9009909C
:1035D000B24642F20E79EA5C002A47D031681D916A
:1035E0001D9957F82340091B8C454FEA830E3DD89F
:1035F000DAF800101E911E990C1B4C4536D808F1C4
:10360000FF3101292AD89BF80610490726D40799CB
:1036100021BB0A9911BBD91E072941F2F8800A2B58
:103620001CDD0B99D1B9159C1698A3F10B01204410
:10363000109101EBC10101EB00115B4801448C7852
:10364000C4F30210012840F22D8510460E900F9011
:1036500013901490119012900C900D9032681F925C
:103660001F9AA2F51C520F3A47F80E2001331B2B6C
:10367000B1D1099B002B41F0D6800C9B002B41F06F
:103680004F81129B1BB1059B1A46109B1360149B24
:1036900023B1049B1A469DF8443013700F9B1BB155
:1036A0003F4B9DF84C201A7020B1029B1A469DF8A2
:1036B00038301370B8F1030F01F20580DFE818F01D
:1036C0000708CA07CA070708AA5596B9374B1B78D7
:1036D000002B40F070812378032B3FF6C5AEDFE866
:1036E00013F0E700D200D200E700002B3FF431AF27
:1036F000BAE62378032B3FF6B7AEDFE813F0E50018
:1037000004000400E500002E00F0BD80204B214A9B
:103710001B681B93049B1B991B7842F82610A6F18B
:103720000B01002B00F01D81029B21481B78002B10
:1037300000F01582019B1F491A68059BDFF868E0BD
:1037400018681D4B096853F82670DFF870C0CBF875
:10375000006000EBC00002EBC20300EB031301EBBF
:1037600041011EF803009CF800C007EB810161F3E2
:1037700006000EF803000A4B00211970BCF1000F7F
:1037800000F0AD84009A012313706DE63C8DFF1F9D
:10379000F8AAFF1F88A1FF1F30A3FF1FA48DFF1FE2
:1037A000D49CFF1F8C8FFF1FEC9CFF1F2CA3FF1FBF
:1037B000A09CFF1F68A5FF1F78D70000789CFF1F03
:1037C000BDF966509F4A05FB03F5127805EB8505A8
:1037D0001D44002A00F0B2809B4A9C4B9C490093F8
:1037E0001E46049113789B4908919B4903911D44FF
:1037F0009A49019185F30205994906911570FFF7E1
:103800000DF8984B984A1B681A931A9B12689749AF
:103810009748984C013B9B1A0B60974B02930122EF
:10382000964B32700593FCF7E3FE01287FF414AE4B
:10383000854A237812788F489A4200F0E381814DBF
:103840002978002940F09F81002B00F0B980032BDC
:1038500000F0B680013B012B6CD8049B1B78002B39
:1038600000F0B081029B1B78002B00F0AB81089B1D
:103870001B78002B40F04883814B1B68002B40F0E5
:10388000988580499DE0049B1B78002B00F0AE805A
:10389000029B1B781BB1059BCBF800601E60029950
:1038A00000230B7004990B70009B01221A70DBE55A
:1038B000754B64211A681920FCF7ECFF734A1378E2
:1038C00083F001031370CFE5714B6F4A19681268DA
:1038D0003046FEF793FAC7E5039B1B78002B3FF4B5
:1038E00038AEDBF80030002B3FF7ECAD31E6039B40
:1038F0001B78002B00F07D81019B664A1868664B9F
:1039000052F8205000EBC00005F07F0500010021B7
:1039100001EBC102024401319E5C65F306069E5430
:103920001A44102996786FF303069670F0D15B4B1A
:1039300001221A70009A0123137090E5444A049200
:103940001278002A00F0BC804A4C2278013A012A01
:1039500040F21C823D4B00933E4B08933E4B039339
:103960006CE5089A1278002A00F0C480721E012AC1
:103970007FF67AADF21E072A00F2AE8201996878CE
:103980000A604749002840F0EA838B78002B3FF417
:10399000F9AE4148434902EBC20200EB021090220B
:1039A00004F04CF8404B01221A73EBE630461968DC
:1039B000FEF75CFACDE5FFF7D7F8FFF749F98AE69D
:1039C0003A490B683A4A013382FB0320DA17C2EB0B
:1039D000600202EB82029A1A0A60ABE718F8031041
:1039E000090901313046FEF741FA62E5089B194AA0
:1039F0001B78002B79D1039B174A1B78002B74D1BD
:103A00006B78274A002B40F079829378002B40F0A6
:103A10007683284F3B78002B00F0768426483E7052
:103A200001F0BCFA254B3E701E60FCF789FE22486F
:103A300001F0B4FA18E52046FDF73EFD2046FDF7FB
:103A400051FDE3E42CA3FF1F908EFF1FF4A2FF1F84
:103A5000D59CFF1FE49CFF1F6CA1FF1F94A4FF1FB8
:103A60009FA4FF1FF8AAFF1FF88DFF1F68A4FF1F68
:103A700078A4FF1F588FFF1FA09CFF1F8CA4FF1F5F
:103A80009CA2FF1F7C8DFF1F3C8DFF1F64A4FF1FA6
:103A9000948EFF1F6C8FFF1FEC9CFF1F59A4FF1F0C
:103AA0007C9CFF1FC88EFF1FA88DFF1F748DFF1FFA
:103AB00067666666789CFF1F70A8FF1F90A4FF1FB3
:103AC000984A08921278002A40F0A780964A0392FA
:103AD0001278964C002A00F0F7812378013B012BE5
:103AE00040F22A83924B0093A8E41670009A0123B7
:103AF0001370B9E4039B8C4F1B78002B00F0E78018
:103B0000019B8C491A688C4BD1F8009053F82270B5
:103B10008A4BDFF874E253F826000599CBF8006071
:103B200007EBC70302EBC20C03EB0C13DFF81CC25C
:103B30000F601EF803709CF800C009EB490100EB10
:103B4000810161F306070EF80370BCF1000F00F06D
:103B5000EA817B4A01231370009A137084E4731E78
:103B6000012B7FF681ACF21E072A40F2A6810A2EB5
:103B70007FF77AAC059A1160724A01231370009A9C
:103B80000370137070E47049704B027000260E6071
:103B90001E70FCF7D5FD6E4801F000FAB1B20022AC
:103BA0006C48013601F010FD1B2EF7D10699002359
:103BB00001222B700A70FEF731FE2378002B7FF470
:103BC00046AEFDE6089B1B78002B40F09D81039BD1
:103BD0001B78002B40F011835F4B1B68002B40F0DB
:103BE000F3825E49EDE6019B30461968FEF7B6F9AF
:103BF0006DE45B4A5B4B2178117001221A70FEF76D
:103C00000DFE97E6574A117800293FF41DAE0021BA
:103C10001170002B7FF41BAED2E6444C2278013A9F
:103C2000012A00F24781504F3868042800F0B88319
:103C3000002840F095834D4B01931A684C4E19466D
:103C40002A4482F303024B4B0A601B68002B40F0AE
:103C5000C182019B1A68484BC2EBC2021344DA7856
:103C600005EB12110629A8BF062121EAE17161F3D3
:103C70000712DA703668002E40F08382019B1F68BD
:103C80003D4BF800C21B99189A5C497801F00F016E
:103C9000491902F00F0200F14A848A42A8BF0A467D
:103CA00002F00F02C01B034421491F4800915978BC
:103CB00003903248069062F303015970304B02932F
:103CC000304B0593009A01231370FFF7BFBB019B94
:103CD000DFF898C01B68D800C21A08EB020E9EF8E5
:103CE00006E01EF0040F40F02481721E012A7FF6C8
:103CF000BBABF21E072A00F28C826B78002B00F01F
:103D00009F82124B1978002940F09A820A48CCF819
:103D1000002040F82210009A01233B701370FFF737
:103D2000A3BB00BFE49CFF1F6CA1FF1F588FFF1FA8
:103D3000F4A2FF1F68A5FF1F7CA2FF1F78D7000019
:103D4000B49CFF1FD49CFF1F90A4FF1F789CFF1FF3
:103D500070A8FF1F589CFF1FBC9CFF1FC88FFF1F30
:103D6000908EFF1F2CA3FF1FFC8DFF1F94A4FF1F2D
:103D7000008EFF1F048EFF1F8C8FFF1F9FA4FF1F4D
:103D8000A09CFF1F8CA4FF1FEC9CFF1F864A08927B
:103D90001278002A7FF447AF844A03921278002AEF
:103DA00040F0CA81824A02921278002A46D0814AA3
:103DB0001168032900F28D83002BC0F2C0857E4B71
:103DC00001937E4B05937E4B1B68002B40F0508384
:103DD000019B7C491A68059B18687B4B00EBC0006F
:103DE00002EBC20200EB0212985C00F07F062E4448
:103DF00086F3070666F3060098540B68002B40F024
:103E0000E082019B1968059B1A686F4BC800D600B9
:103E100000EB010EB71807EB0E171F44BF78C7F36E
:103E200002173D44062D00F2CE82DFE815F04A0667
:103E300076066F067D063E0659063405634E3768E2
:103E4000284608F0E3FB394608F02CFB604905469C
:103E500008F0CEFD00285ED05D4D5E4B3946284609
:103E60001D6008F0BBFD002840F0408128465A49FB
:103E7000356008F01FFC594B009301464E4B5848E3
:103E8000019308F0CBFC08F001FE564B564A18602F
:103E90001B68564D03EB4303DB001360106808F00A
:103EA000B1FB534908F006FC524B0693434B286084
:103EB000059307E7494B009350E501990A60009A82
:103EC00001231370FFF7D0BA2278032A3FF60AAE17
:103ED000DFE802F064A4A43A0A2E7FF7C5AA019B8A
:103EE000009E1B68C3EBC303012018F80320307049
:103EF00061F3030208F80320FFF7B6BA3E493F4AD0
:103F000001230B7013773DE43D4B1B68002B40F001
:103F10000B813C4955E53C49284608F087FD0028BF
:103F20009BD0394D99E7394B30461968FDF7C0FFF2
:103F30000FE618F80220354B120901323046196895
:103F4000FDF75CFFFFF790BA314E3268042A00F0AB
:103F5000D582224B0093194601230B70012A00F0F1
:103F6000A980002A40F0B2802A4B2B491A681544D8
:103F7000042DA8BF04256FF004008542B8BF054694
:103F8000AA420D6000F0A2800B4A0192194A0692E3
:103F90001D60074A094B0292059393E61C4B0F4A9A
:103FA00000921A68DAE700BFE49CFF1F6CA1FF1FB4
:103FB000A09CFF1F648FFF1F94A4FF1F8CA4FF1FF2
:103FC0007C8DFF1F808DFF1FEC9CFF1F708DFF1FDE
:103FD00000002042709CFF1F0000C042F4A2FF1F9F
:103FE000C0E1644CF8A2FF1F98A4FF1F54A4FF1F58
:103FF0006F12833A9FA4FF1FC48FFF1FA88DFF1F5E
:10400000D0A4FF1FFC8DFF1F00009643948EFF1F5E
:10401000748DFF1F68A5FF1F70A4FF1FBC4B1B689A
:10402000042B00F07882002B40F0F184B94A019211
:1040300016461268B8482A4482F30302C2EBC20152
:10404000014432608A79560700F1C981B34BB44A02
:104050001B680692002B40F0D381019AAE4912688A
:10406000C2EBC20211448A79C2F38000451900F103
:104070002385012D40F35B8442F004028A71002500
:10408000A9B20022A748013501F09EFA1B2DF7D1F5
:10409000069A01231370A44B0093A44B0293A44BE4
:1040A00005930FE680F0010060F306148C70104653
:1040B000FFF7CCBA9F4B19680D44002D03DD102D7E
:1040C0002A46A8BF10228A4200D01A60914B019361
:1040D000934B0693954B0293954B0593F2E5964BC4
:1040E00030461968FDF7E4FEFFF74CBB8E4B00939A
:1040F000884B01938A4B06938D4B0593E2E5019B18
:104100001B68C3EBC30343445A7982F08001C90999
:1041100061F3C7125A71894B0122002900F05B81BB
:1041200083F82C20FFF72EBB012B00F05181022BCE
:104130007FF400AC824944E4824B83491A681544F9
:10414000042DA8BF04256FF004008542B8BF0546C2
:1041500095420D6000D01D60734B0093B6E78978DF
:10416000002940F095807949794802EBC20201EBC1
:104170000211902203F062FC704B01221A71FFF7CA
:1041800001BB012E6DD1019B1E68634BF1008A1BA0
:1041900098189A5C407802F00F0215EB101002F1AB
:1041A000010200F1C2818242A8BF024602F00F0262
:1041B000891B0B445C496748009159780390584823
:1041C000069062F3071178E5012B7FF4B3AB5349F6
:1041D000FFF7F7BB012B7FF44DAD019B1A684E4BE7
:1041E000C2EBC20213449A79C2F38001294481F3DD
:1041F000010161F382029A713CE5019D2868FDF797
:10420000C7FD2A68544B53F82230059A1360FFF714
:1042100091BB0A2E7FF728A901EBC10203444B4949
:1042200002EB03130B449A78C2F3021101293FF603
:104230001BA981F0010161F306129A70FFF714B90E
:10424000AB78002B3FF439AEC2EBC2024244937903
:10425000C3F3000181F0010161F300039371FFF7E3
:1042600003B9022E40F06681019B2F491A682A4B40
:104270000091C2EBC2023749039113449A7802F0CD
:104280000F010D4485F3040565F303029A701FE7DF
:104290003248294950F82200DFF8B0E0096802EB03
:1042A000C202120100F07F0A01F07F090EEB02004A
:1042B000FF2603EBC301114401331EF801706AF3BA
:1042C00006070EF801707144102B8F7891F801C029
:1042D00007F0F00769F3060C6FF3061781F801C0C9
:1042E0008F70C670067146718671C6710F7A4FF075
:1042F000640C6CF3060700F109000F72D9D10F4B63
:1043000001221A75FFF73EBAFEF740F9FFF7ACB885
:10431000C88FFF1F94A4FF1F8C8FFF1FB48EFF1F39
:104320009FA4FF1F589CFF1FF4A2FF1FA09CFF1F0C
:104330008CA4FF1F3C8DFF1F948EFF1FA88DFF1FB5
:10434000048EFF1F68A5FF1F70A4FF1FEC9CFF1FBA
:10435000C88EFF1F6CA1FF1F7CA2FF1F6C8FFF1F69
:10436000012840F00181A74B01931A46A64B106823
:10437000C1000A1A9A5C02F00F0201322A44002A94
:1043800040F3B180102AA8BF1022013A02F00F02B8
:10439000091A9E4E585C62F3030058549C4B54E437
:1043A0009A4E3368042B00F0A080964B0193984BF3
:1043B0004BE4012B70D0022B7FF4BCAA9549FFF788
:1043C00000BB012B36D0944B0093944B069379E4B9
:1043D0008E49FFF7F6BA83F82420FFF7D3B91E46BB
:1043E000B1B200228E48013601F0EEF81B2EF7D153
:1043F0008A4B069319468B4B01220A701B6829E6EB
:10440000012B00F0E482022B00F0C882032B7FF422
:1044100042AE019B84491A687F4B00938B5C2B440E
:1044200083F3010303F001038B54804B0293804B11
:10443000059347E4019B78481968059B00901A682A
:104440007C4B01EBC10102EBC20202EB01121344EF
:10445000197A01F07F021544642DA8BF642525EA6E
:10446000E5750A4665F306021A726C4B069329E459
:10447000012B14D1704A714811686B18042BA8BF26
:1044800004236FF00406B342B8BF33469942036079
:1044900018BF13606A49B0E46949FFF792BA022B6A
:1044A00040F06182019B66491868059B1A68614B60
:1044B00000EBC00002EBC20202EB001213445A7878
:1044C00002F07F00284480F3070060F306025A7070
:1044D00093E404295B4B00F084804A4A0192544AD9
:1044E0001B68059271E4002252E7494B1A68042ABE
:1044F00000F0B581434A0192FFF7A7BB002BC0F241
:10450000AC823FF426AD504B7F211A681C20FCF78B
:10451000C1F932681DE5434B1B68042B00F08A810A
:10452000384A01923D4A069294E5002240E632461E
:10453000FFF7B8BB032E60D1019B37491A68324B95
:104540000091C2EBC202134440490391197901F072
:104550007F021544642DA8BF642525EAE5750A4647
:1045600065F306021A71B3E5022840F07581384EF2
:10457000002B3268ACBF01214FF0FF310A4402F139
:104580000F031E2B1F4B3260019304D81868FEF7EF
:104590001DF838683268019B1B491B68C3EBC303D5
:1045A000CB5C03F00F030133C3F10101914222DC24
:1045B000013B9342A8BF13463360032840F05C815F
:1045C000019B11481B68114EC3EBC303C25C05EB92
:1045D000121181F3040161F30712C2540C4BFFF76F
:1045E00034BB1B68042B00F04B81064A0192104A31
:1045F0000592FFF7EABB0B46DEE7074B0093134B30
:10460000039365E594A4FF1F8C8FFF1F008EFF1F8F
:10461000048EFF1F648FFF1FF4A2FF1F9FA4FF1FC4
:10462000589CFF1FB48EFF1F5C8FFF1FA09CFF1FB5
:104630008CA4FF1FEC9CFF1F68A5FF1F70A4FF1F29
:10464000808DFF1F7C8DFF1F3C8DFF1F6CA1FF1F06
:10465000A4A2FF1F984D2B78002B5BD19748984957
:1046600003682093974A209B096812685B1A9A4254
:1046700050D203682193219B1432591A8A4249D996
:10468000019B914A1B680099C3EBC30313440122A9
:104690009B790A705A075FD4049B1B78002B63D068
:1046A0008A4B1B68002B00F08A80012B00F0A18050
:1046B000022B00F09880089B1B78002B68D1039B8D
:1046C0001B78002B6ED1009B1B784BB913E0FDF7D4
:1046D00037F8009B1B7873B1774B187800283ED0D1
:1046E000764C7B4D236822937A4A229B2968126874
:1046F0005B1A9A4225D3069B774C1B78DBB9FCF7F3
:104700002FF80028FBD1FCF74BFD0028FBD125B08A
:10471000BDE8F08F019B6C4A1B68C3EBC3031344D5
:104720009B795B0718D4009B1B78002BE3D02B7878
:10473000002BD5D1B0E7694800F064FE0023237058
:10474000DDE7674802F09EFD23682393239B009AD0
:104750002B6000231370CEE7FCF7F2FFE3E7614B19
:104760001968FEF7B1FBAEE7089B1B7883B9039B82
:104770001B78002BA3D15C4B1B68002B41D0012B75
:104780004BD0FEF70BF8049B1B78002B93D087E7E8
:10479000564B1B686BB1012B1FD0022B17D0FDF7B6
:1047A000FDFF8CE704210920FEF78EFBFDF7F6FFE5
:1047B00089E74F4B06201968FEF786FBEFE74D4B64
:1047C00004201968FEF780FB089B1B7875E74A4BAD
:1047D00008201968FEF778FBE1E7484B07201968C5
:1047E000FEF772FBDBE7464B03201968FEF76CFB14
:1047F00061E7444B05201968FEF766FB089B1B78B0
:104800005BE7414B01201968FEF75EFBB9E70C92AC
:104810000D9209921792FEF721BF3C4B02201968B6
:10482000FEF752FBADE7089B1A469DF85C3013700B
:10483000FEF723BF2C4A364B00931368354901918C
:104840002B4483F301031360334B23490293334B0F
:1048500006910593FFF736BA2E4B0193ADE6234937
:104860002C4A01920A682A44022AA8BF022222EA9C
:10487000E2720A60FFF7E9B9204E1F4BFFF7E5B976
:1048800020490B68042B00F03281224B0193234B0B
:104890000593FFF7B2BA0144324402EB011213440C
:1048A00006219A781A48009061F306120A48069089
:1048B0009A70FFF707BA00BF2CA3FF1FF8AAFF1FCB
:1048C000989CFF1FC08EFF1F8C8FFF1F9CA2FF1F95
:1048D00068A4FF1FF88DFF1F9FA4FF1F589CFF1F98
:1048E000E09AFF1F748DFF1FBC9CFF1FD0A4FF1F09
:1048F000FC8DFF1F7C8DFF1F048EFF1F008EFF1F8E
:10490000648FFF1F808DFF1FC88FFF1FB48EFF1F96
:10491000F4A2FF1F94A4FF1FA09CFF1F8CA4FF1FE5
:10492000009B1A469DF834301370FEF7AABE65F35B
:1049300082028A71002D3FF4AEABFFF7A0BBA34A01
:10494000A34B019210461A680068059302EBC2025D
:10495000A04B00EBC00002EB001213440B44FF22FB
:10496000DA70FFF730BA032B7FF494AD019B9A49BC
:104970001868059B1A68974B00EBC00002EBC20257
:1049800002EB001213449A7802F00F00284480F3DF
:10499000040060F303029A70FFF72FBA019B8F495E
:1049A0001A688F4B0091C2EBC2021344DA7805EB10
:1049B0001215062DA8BF062525EAE57565F3071231
:1049C000DA70884B0293824B0593FFF77BB9019B0A
:1049D0001868834BC1000A1A9A5C02F00F02013278
:1049E0001544002D42DD102D2A46A8BF1022013AA1
:1049F00002F00F02091A79480090585C62F3030034
:104A00005854784B0293724B0593FFF75BB9012B17
:104A10002ED16E4B01931A466E4B126802EBC20206
:104A200010015FFA85FE002202EBC2060644013245
:104A3000995DC1F30607774467F30601102A99557B
:104A4000F2D16949694B0A681B682A4402F30602DD
:104A50000A60674A0692FFF7FDBA664B00211A68A2
:104A60001C20FBF717FF3268FFF773BA0022C1E77B
:104A7000022B60D1554B01931B68594A5E49C3EB29
:104A8000C3031A44507900F07F032B44632BA8BF63
:104A9000632323EAE37363F306005071534A0B70F8
:104AA0001368534A0692FFF7D5BA0144324402EB29
:104AB000011213440421F4E663F382028A71FFF7C2
:104AC000EABA0144324402EB01121344434A009211
:104AD0009A78474906916FF306129A70FFF7F2B879
:104AE0000144324402EB011213440521D9E6434A42
:104AF000364B019313682B44022BA8BF022323EAF1
:104B0000E3731360324B0593FFF777B901443244E6
:104B100002EB011213440221C3E60144324402EBCA
:104B2000011213440121BCE60144324402EB01129C
:104B300013440321B5E6032B1BD1314ED6F8008078
:104B4000284607F063FD414607F0ACFC2D490746B7
:104B500007F04EFF002837D12B49384607F066FF93
:104B600000B1294F294B414638461F6007F036FFF8
:104B700038B1164A1D4B01921D4A1B680692FFF779
:104B800069BA23493760384607F094FD0F4B01930B
:104B900001462048204E07F041FE07F077FF1F4BEB
:104BA0001F4A18601B6803EB4303DB0013601068A7
:104BB00007F028FD1B4907F07DFD0C4B0C4A3060C7
:104BC0001B680692FFF746BA0E4FCBE794A4FF1F6F
:104BD0008CA4FF1FEC9CFF1F808DFF1FF4A2FF1F02
:104BE0008C8FFF1FA09CFF1FB09CFF1FB48EFF1F68
:104BF0009FA4FF1F3C8DFF1F2DA3FF1F9CA2FF1F23
:104C0000708DFF1F0000204200009643709CFF1F24
:104C10000000C042C0E1644C54A4FF1FF8A2FF1F73
:104C200098A4FF1F6F12833A70B5184D82B02846C2
:104C300002F01CFAB5F90C1001291FDD0022012633
:104C400094B26300688901969BB2C91A09B2C31A6B
:104C50001BB200910D48114601F0ECFA0B4802F02E
:104C600011FB012003F04AFDB5F90C10023401EBF1
:104C7000D17322B243F34F039342E1DC4FF4FA7055
:104C800002B0BDE8704003F039BD00BFE09AFF1FDD
:104C90002DE9F0477F4A804B1268804D804C814F50
:104CA000814E82B00192019A1A6003F005FD7F4B9C
:104CB000186003F001FD7E4A7E4B10607E49186843
:104CC00007F0F8FC01467D4807F0A8FD07F0DEFE7E
:104CD0007B4B7C4A18601B6803EB4303DB001360CB
:104CE000106807F08FFC784907F0E4FC286003F0B7
:104CF000E3FC206003F0E0FC744BD4F800E01860A3
:104D000002250023C3EBC302324407EB0311D4781E
:104D1000C1F804E0013365F30714082BD4708860F0
:104D2000F0D10D2003F06AF805F07AF90D2003F0B8
:104D300031F80024DFF8D081654FDFF8D0A14FF0C3
:104D400084492646382005F07DF95F4B0122002179
:104D5000054600F01BFD4AF8246001344FF400536F
:104D6000052C48F8045BC5F8109047F8046B6B609D
:104D7000E8D1FBF77FFC0121172003F097FC554C8D
:104D8000554D0C231846237003F06CFC207807F077
:104D90003DF802460B4600204FF0804105F038FEFA
:104DA00007F05AFB4D4B28804022002128201A6032
:104DB00003F05AFBFDF720FF002868D14849494A13
:104DC000494B0860494E0221117001271525162410
:104DD00017201821072237601D605C609860D96039
:104DE0001A61FDF755FE424C424DFBF763FB284626
:104DF000A56002F03BF9FFF717FFC82003F07EFC27
:104E0000284602F033F904F10800012100F0FCFF0C
:104E1000002104F1080000F0F9FFFDF793FD36488A
:104E200000F0E2F9354800F099FA344800F0EAFA67
:104E30003221324800F06CFC0024A1B2304A2F48E5
:104E400000F0C2FB2D4800F0DDFA0134052003F02C
:104E500055FC1B2CF1D10520FDF74AFD4FF4FA70EB
:104E600003F04CFC002223461146244800F0B2FB1C
:104E7000224800F0C7FA642003F040FC1D4802F00D
:104E800001FA204B01221A7002B0BDE8F087FDF74D
:104E900005FFA8E7F8AAFF1F989CFF1F54A4FF1F57
:104EA000CCA4FF1FE8A4FF1F8C8FFF1F6CA4FF1F63
:104EB000B89CFF1F708DFF1F0000C042C0E1644C12
:104EC000F8A2FF1F98A4FF1F6F12833A50A4FF1F80
:104ED000B4A4FF1FF4A1FF1F9CA4FF1FE89CFF1FA9
:104EE00094A4FF1F588FFF1F408DFF1F3C8DFF1F95
:104EF000A8A2FF1FE09AFF1F30A3FF1F589CFF1FAF
:104F000080808000F4A2FF1F18A3FF1FA0A4FF1F32
:104F1000F0B400259DF810702C4602E00134202CDE
:104F200010D0465D1435002EF8D104EB8404A400A3
:104F3000061901250555284671603361B260377343
:104F4000F0BC70470020F0BC704700BFF8B50E46BB
:104F500000F1100400F52475002702E01434AC427F
:104F600015D014F8103C002BF8D02368B342F5D8C4
:104F700054F8082C54F80C0C0021FBF763FC14F8CF
:104F8000043C2BB904F8107C1434AC42E9D1F8BDD0
:104F90000021172003F076FBF4E700BF4FF0FF314C
:104FA000FFF7D4BFF0B400259DF814702C4602E042
:104FB0000134202C12D0465D1835002EF8D104EBB8
:104FC0004404E400061901250555716004997161D6
:104FD0002846B360F2603774F0BC70470020F0BC24
:104FE000704700BF2DE9F0410E4600F1140400F5B2
:104FF0004575002702E01834AC421BD014F8143C6D
:10500000002BF8D02368B342F5D854F80C2C54F890
:10501000081C54F8100CFBF7EDFB14F8043C23B10A
:1050200054F8100C1838352806D904F8147C1834B4
:10503000AC42E3D1BDE8F08107F0E8FA084907F097
:1050400039FB05F0C1FC01218046172003F01AFB53
:10505000404607F0F5FC0146282003F005FAE4E796
:1050600090759242002308491A46CA541433B3F586
:10507000207FFAD1002305491A46CA541833B3F5E4
:10508000407FFAD1704700BF70A8FF1F70A5FF1FB7
:10509000F8B504460E46154600214FF480721030D4
:1050A0001F4608F061F8069BC4F818310022079BE0
:1050B000C4F8102126606560A760C4F81C31E26066
:1050C000C4F814212046F8BD10B50446C06808B1E4
:1050D00007F08AFD204610BD2DE9F843D0F81C31B9
:1050E000002B7EDD04460025A3680121585D03F0F6
:1050F000C9FAD4F81C310135AB42F5DC002B6EDD6A
:105100000026B0460127A3680021985D03F0BAFA93
:105110004FF44873013BFDD1D4F81831002BC8BFC0
:105120004FF000092EDC4EE0990724D5D4F8101179
:10513000D4F814010131C9B203F0FD03814243F0F8
:10514000080306D0D4F81001204480F81080C4F879
:105150001011D4F81001D4F814110130C0B28842F3
:1051600009D0D4F8101104EB010E2168495D8EF8C6
:105170001010C4F810015355D4F8183109F1010981
:105180004B4520DD6368D4F81C5113F8090003F087
:105190007FFA05FB0965E268535DDBB20028C3D1E5
:1051A0009807E8D4D4F81011D4F814010131C9B229
:1051B000814243F00603CCD0D4F810012044077498
:1051C000C4F81011C5E7A3680121985D03F05AFAED
:1051D000D4F81C310136B34295DCBDE8F883BDE854
:1051E000F883BDE8F88300BF70B5D0F81851D0F847
:1051F0001C610446012106FB05F007F067FC002E48
:10520000E060C8BF002510DDA3680121585D03F0F0
:105210004DFAA3680121585D03F034FAD4F81C312B
:105220000135AB42F0DCD4F81851002DC8BF002581
:105230000ADD63680221585D03F038FAD4F81831AA
:105240000135AB42F5DC70BD70BD00BFD0F8103148
:10525000D0F814011B1A4CBF03F58070184640109B
:10526000704700BFD0F81421D0F810319A4220D0F6
:10527000D0F81421D0F8143102440133DBB2117C90
:10528000C0F81431D0F81421D0F810319A4218D057
:10529000D0F81421D0F8143102440133127CDBB26F
:1052A000C0F814314FF0000062F3070061F30F20E3
:1052B0007047D0F81421D0F810319A424FF0FF0116
:1052C000E6D1FF224FF0000062F3070061F30F20E8
:1052D000704700BF037AF0B5160C150AF6B2EDB2AE
:1052E0005FFA82FE5BB103FB06F603FB05F503FBE9
:1052F0000EFEC6F30726C5F30725CEF3072EC77C9F
:10530000047CBC4214D0C46804EB8101120E0F442B
:105310004BB9D3B23B70077CCE55437CCD54837CD4
:1053200001F803E0F0BD03FB02F3C3F30723F1E749
:10533000C36801EB41011944EEE700BF10B5044614
:10534000C06807F051FCB4F90600002803DBC0B2C6
:10535000002103F0ABF9204610BD00BF10B5044694
:10536000B0F90600002807DBC0B2012103F09EF966
:105370000021A07903F086F90123637010BD00BFFE
:1053800038B50446C0680D4607F02EFCE37C207C4F
:1053900083420CBF0320042010FB05F080B2A080E4
:1053A000012107F093FBE06008B1658038BDA08063
:1053B000608038BDF0B4077CC47CC568C1F3810649
:1053C000FF29A4EB0704C1F3811201F0030746741F
:1053D000B4FA84F48CBF00260126C1F30111C27413
:1053E00064098774067001744DB1511AB1FA81F1E4
:1053F0004909A14203D04188F0BCFFF7C1BFF0BC0E
:10540000704700BF2DE9F843C368002B57D04569AA
:10541000044603F051F9854202D903F04DF9606169
:1054200003F04AF96569401BB0F5967FF1D372B677
:105430004649B4F906500B684548464A50F83500CD
:10544000E668A788257843F080730B60136843F003
:10545000010337441360A5B3A1F55D41F8390A682B
:10546000BE4202F196021FD289464FF0010C16F897
:10547000018B4FF0080E80250B689B1A952BFBD9EA
:1054800018EA050FD9F8002080F880C055D00B68C5
:105490009B1A5F2BFBD9BEF1010E80F800C14FEAC9
:1054A0005505E9D1B742E2D12B490B689B1A952BE0
:1054B000FBD962B603F000F96061BDE8F883BDE88E
:1054C000F88325490A68BE4202F5967220D28946C1
:1054D0004FF0010C16F8018B4FF0080E80250B6879
:1054E0009B1AB3F5967FFAD318EA050FD9F8002076
:1054F00080F880C018D00B689B1A8F2BFBD9BEF1A7
:10550000010E80F800C14FEA5505E8D1B742E1D15C
:1055100011490B689B1AB3F5967FFAD362B603F074
:10552000CBF86061BDE8F8830B689B1A3B2BE6D88B
:105530000B689B1A3B2BF7D9E1E70B689B1A1D2BD5
:10554000A9D80B689B1A1D2BF7D9A4E7FCED00E046
:10555000AC270100001000E0041000E038B54378EB
:105560006BB10446B0F9060000280D4609DBC0B255
:10557000002103F09BF86378E5801BB938BDC1803A
:1055800038BDE180EDB22846012103F08FF82846AE
:105590000021BDE8384003F075B800BF70B50025A4
:1055A00004460E46457019460572C56045611546AC
:1055B000FFF700FF31462046FFF7E2FE204629466E
:1055C000FFF7CCFF204670BD43888B4201D9FFF71F
:1055D00081BE7047F8B514464288A24215D90646E6
:1055E0000F469BB91546134604E00134A4B2AC4201
:1055F0000BD27388A342F8D9214601343A4630468B
:10560000A4B2FFF767FEAC42F3D3F8BDE518ADB224
:10561000954228BF1546AC42E5D3F8BD40F2FA5397
:1056200003FB00F000F500400014B0F5FF7F10B45C
:1056300022DAFE2844DDC0F1FE034C1CDBB204FB81
:1056400003F3C4EB04241B1224120020C943C9B283
:1056500001320C440B44084402FB04F402FB03F344
:1056600004F47F441B0202FB00F244EA122003F41C
:105670007F03184310BC7047B0F57F7F84B20DDA0A
:10568000B4F53F7F26D8831C4C1CDBB204FB03F32C
:10569000C4EB0424181224120023D7E79C4225D01F
:1056A00040F2FA439C4228D9C0F1FA004B1CC0B228
:1056B00003FB00F0C3EB032300121B120024C5E719
:1056C0004B1CC0B203FB00F0C3EB032304121B12FC
:1056D0000020BBE7C0F1FC004B1CC0B203FB00F094
:1056E000C3EB0323041218120023AFE74B1CC3EBD8
:1056F000032300201B120446A8E7031DDBB2481C4D
:1057000000FB03F3C0EB00201B12001200249DE7F6
:1057100070B44E1C047AF6B2A64213D0013C14F0C9
:10572000FF04C56810D183882A4653B1137804FB5F
:1057300003F31B1202F8013B531B81889BB2994271
:10574000F4D8067270BC7047FF2905D03302013BC4
:1057500093FBF4F4A4B2E6E74FF6FF7393FBF4F483
:10576000E1E700BF10B483B002AB074C43F8040D6F
:1057700002A91A78A25C03F8012B8B42F9D1019897
:1057800003B010BC704700BF78D900002DE9F04786
:1057900004460F464FF4806100264FF0814061605F
:1057A0005FFA87F801214FF000092061217540461A
:1057B0003146C4F8209084F8246092461D4602F0D9
:1057C00075FF3146404602F05DFF276084F80CA06B
:1057D00028464FF07E5107F029F928B14FF07E5549
:1057E000A5602046BDE8F0874946284607F000F945
:1057F0000028F5D04D46A5602046BDE8F08700BFE3
:10580000037B2DE9F04704460D46002B41D0037D74
:105810000846002B40F0988006F0F8FED4F810807F
:105820000646A7693046394606F03AFE002105468D
:1058300007F0FCF8002800F0C880284607F026F999
:10584000266A81463146284606F02AFE604906F05F
:1058500031FF314606F026FE00212062064607F0A1
:10586000E5F8002800F0AE80414630464FF0010ACE
:1058700007F0BEF808B94FF0000A84F824A04146AA
:10588000304607F0B5F810B3384607F0D9F8BDE850
:10589000F087A769084606F0B9FE394606F000FE13
:1058A0000021054607F0C2F8002871D105F100403B
:1058B00007F0ECF8266A81463146284606F0F0FDEE
:1058C000434906F0F7FE314606F0ECFD20624846FB
:1058D00006F098FEA16806F0EDFE4FF07E5106F04E
:1058E000E1FD01464FF07E5006F098FF01464FF073
:1058F0007E5006F0D5FD014606F0D4FD4FF07E51F6
:10590000064607F093F800284AD04FF07E5029460B
:1059100006F0D0FE394606F0C5FD00263146A061EE
:10592000054607F065F800283CD16068013806F0AC
:105930006DFE06460146284607F078F850BB28461B
:1059400007F07EF8BDE8F08706F060FED4F810801E
:105950004146064607F04CF840BB6768384606F0FB
:1059600055FE414606F09CFD0146304607F05EF8C4
:1059700000283FF456AFC7EB450006F047FE41460E
:1059800006F090FD07F05CF806F040FE064648E79A
:1059900028468DE7A661304607F052F8BDE8F0874B
:1059A0003046B4E7A6610020BDE8F087680006F045
:1059B0002DFE414606F074FD07F042F806F026FE83
:1059C00006462EE706F100464EE705F1004035E7B2
:1059D000CDCCCC3EC36A10B504460363FFF710FF7D
:1059E000236BE0621B1A18BF012384F8343010BD0A
:1059F0004318405C5B7803EB002080B2704700BF27
:105A0000012B0BD007D3022B02D1801A00B27047B2
:105A1000401A00B27047104400B27047084400B208
:105A2000704700BF012B0BD007D3022B02D1401AC5
:105A300000B27047104400B27047084400B270478B
:105A4000801A00B2704700BFF0B40D780668AB183A
:105A50003478DBB2072B44FA05F40AD9771C0760C7
:105A6000C5F108057078EDB200FA05F5083B2C4346
:105A7000DBB201209040E4B2013820400B70F0BC52
:105A8000704700BF10B50A460C4600F11001FFF741
:105A9000DBFF013C0123E4B203FA04F4001B40B233
:105AA00010BD00BF70B505460023816005F8183FA2
:105AB00000F10806044690F8202029463046FFF7FA
:105AC000C3FF2946A07594F821203046FFF7BCFF9C
:105AD000E07570BD10B50B7803704B7843708B7810
