:1000000000800020BD0100006985000021850000FE
:100010002185000021850000218500002185000048
:1000200021850000218500002185000069850000F0
:10003000698500002185000059A000005DA0000036
:1000400069850000698500006985000069850000F8
:1000500069850000698500006985000069850000E8
:1000600069850000698500006985000069850000D8
:1000700069850000698500006985000069850000C8
:1000800069850000698500006985000069850000B8
:1000900069850000698500006985000069850000A8
:1000A0000D7E0000197E0000698500006985000052
:1000B0006985000069850000698500006985000088
:1000C0006985000069850000698500006985000078
:1000D0006985000069850000698500006985000068
:1000E0006985000069850000698500006985000058
:1000F00069850000C9A900006985000069850000C4
:100100006985000069850000698500006985000037
:100110006985000069850000698500006985000027
:100120006985000069850000698500006985000017
:100130006985000069850000698500006985000007
:1001400069850000698500006985000069850000F7
:1001500069850000698500006985000069850000E7
:1001600069850000158E0000698500006985000022
:1001700069850000698500006985000069850000C7
:1001800069850000698500006985000069850000B7
:1001900069850000698500006985000069850000A7
:1001A0006985000069850000698500006985000097
:1001B000698500006985000069850000564B4CF296
:1001C000205210B51A804DF628121A8000BF00BFC9
:1001D00008F0CEF9514B4FF010621A60504A9A6005
:1001E000504ADA60504A136813F4807304D14F49BF
:1001F0000B604FF4A85313604D4B1A78110703D5C9
:100200001A7842F008021A704A4B4B492A221A7097
:100210004A4A4B4B8B4204D252F8040F43F8040B6A
:10022000F8E7484B484900228B4202D243F8042B9E
:10023000FAE74649464A002352F8230041F82300D2
:1002400001336F2BF8D1434B434A802103F8011B44
:100250009342FBD1414B3D4A1A60414B8A221A70AE
:10026000A3F5805324225A70A0221A709A7992071B
:10027000FCD59A79D406FCD43A4A937903F00C035E
:10028000082B384BF9D103221A7146225A719A79F8
:100290009006FCD5334A9179324B4906FBD5324A58
:1002A0004FF0827111600921516020221A709A79F1
:1002B00002F00C020C2AFAD12C4B2D4A1A602D4B5D
:1002C0002D4A1A6000225A60072243F8042C2B4A58
:1002D000C3F80C2D62B608F053FC144B1B68DA0708
:1002E00005D5274808F0A2FA264B274A1A60274B63
:1002F0001B785B0609D5234C234B22689A4204D114
:100300001F4808F093FA002323600CF003FD08F067
:1003100035F909F083FFFEE70E20054030800440E8
:10032000823F04000100002B10D0034014D0034092
:1003300002D0074000E007409C98FF1F502C0100AE
:100340004088FF1F9C98FF1F60AFFF1F0082FF1FA8
:100350000000000000E400E05FE400E008ED00E0E1
:1003600000500640004006404480044004800440A1
:10037000C010050014E000E0BFD401000000202000
:1003800090A3C2601CE00340A5C3945A00F007404C
:10039000FFFFFFFFFFFFFFFFFFFFFFFFFFFFFFFF6D
:1003A000FFFFFFFFFFFFFFFFFFFFFFFFFFFFFFFF5D
:1003B000FFFFFFFFFFFFFFFFFFFFFFFFFFFFFFFF4D
:1003C000FFFFFFFFFFFFFFFFFFFFFFFFFFFFFFFF3D
:1003D000FFFFFFFFFFFFFFFFFFFFFFFFFFFFFFFF2D
:1003E000FFFFFFFFFFFFFFFFFFFFFFFFFFFFFFFF1D
:1003F000FFFFFFFFFFFFFFFFFFFFFFFFFFFFFFFF0D
:10040000FFFFFFFFFFFFFFFFFFFFFFFFDEF9FFFF23
:1004100010B5054C237833B9044B13B10448AFF33E
:1004200000800123237010BD9C98FF1F0000000076
:100430004C2C0100084B10B51BB108490848AFF31C
:1004400000800848036803B910BD074B002BFBD0A0
:10045000BDE81040184700BF00000000A098FF1F33
:100460004C2C01009C98FF1F0000000010B584B0C8
:100470000A4C0B4B02930B4A01924FF0FF3300934F
:100480002046094B2022802106F08CFC074A0849AF
:10049000204604B0BDE810400BF050BCB898FF1FD8
:1004A000801A060040420F00B48DFF1F1C89FF1FF9
:1004B000FD6D000030B5094C83B001252046009544
:1004C0002B463C22022106F0EFFD20460221A576B4
:1004D00003B0BDE8304005F0B7BF00BFB898FF1FBC
:1004E00070B5CEB2044680E80600D5B2304602218F
:1004F00008F0D0FA0221284608F0CCFA304608F07D
:10050000BBFAA060284608F0B7FA0023E060236138
:100510006361204670BD00BF30B5044683B00078EB
:1005200008F0AAFA0546207908F0A6FAA3689D42C9
:10053000E36824D0984231D0A560E060ADB1A0B1AD
:100540002369012B37DD0023236101221E4B6169E2
:100550001B680193019B63615B1A132B32D9312B0A
:100560008CBF002301231BB201E00022134692B28C
:10057000002062F30F0063F31F4003B030BD9842C8
:10058000F3D02369A56085420CBF01224FF0FF32F2
:1005900013442361E060002DE7D0D0E72369A56014
:1005A000854214BF01224FF0FF3213442361E06003
:1005B000002DDAD0C3E7002201332261D5DA4FF0F3
:1005C000FF32C3E70223D2E7D4ABFF1F10B50446C6
:1005D0000160C8B2022108F05DFA00234FF0FF313C
:1005E000032261602273A3602361204610BD00BF17
:1005F00010B5044682B0007808F03EFA636898426D
:100600001A4B08D01B680093009B60603233A360D4
:10061000002002B010BD1B680193A268019B9A42A2
:1006200009D8217B4A1E032A05D8DFE802F00F0211
:100630000707012818D0002002B010BD0028FAD109
:1006400003F2E243012023612073E2E730B1012885
:10065000F1D1032088422073DBD1ECE722699A4272
:10066000E9D202202073D4E70420F3E7D4ABFF1FC4
:10067000704700BF10B5184C636D1868036882B0EE
:10068000DB6947F612219847144B1B680193012040
:10069000019BC4F8003100FA00F200234FF6FF710D
:1006A000024384F8580084F8702084F85A3084F8A3
:1006B00059306366236684F8F83084F8753084F81E
:1006C000743084F8763084F87730C4F8FC30A16652
:1006D000E16602B010BD00BF2099FF1FD4ABFF1F21
:1006E00010B54FF60F0009F0C1F9044B5B6D1868A7
:1006F0000368F8211B68BDE8104018472099FF1FC8
:1007000010B54FF60F2009F0B1F9044B5B6D186876
:100710000368FA211B68BDE8104018472099FF1FA5
:1007200010B54FF60F3009F0A1F9044B5B6D186856
:100730000368FB211B68BDE8104018472099FF1F84
:1007400010B54FF60F4009F091F9044B5B6D186836
:100750000368FC211B68BDE8104018472099FF1F63
:1007600008B5002009F0E6F9003018BF012008BDE7
:100770002DE9F041E0290C469DF8185008D8013DBC
:10078000EDB20F2D02D849B2002912DBBDE8F0818D
:10079000F729FBD90834E4B2012303FA04F414F076
:1007A000DD0FF3D0436D18680368BDE8F0411B68A6
:1007B00018471F46436D8046186803682943C9B22D
:1007C0001B6816469847D8F854301868036806F036
:1007D0007F011B6804F0EF049847C02CD6D0D8F8EE
:1007E00054301868036807F07F011B68BDE8F041CA
:1007F000184700BF2DE9F0415FFA82F80C0608F1B6
:10080000FF3504F0FE4444F410442D02064605F47E
:10081000706544F00904000482B02C4300F4FE002B
:100820000F46204309F022F9CDF80080FBB2F2B266
:1008300090210348FFF79CFF02B0BDE8F08100BFA4
:100840002099FF1F2DE9F0415FFA82F80C0608F1AC
:10085000FF3504F0FE4444F400442D02064605F43E
:10086000706544F00804000482B02C4300F4FE00DC
:100870000F46204309F0FAF8CDF80080FBB2F2B23F
:1008800080210348FFF774FF02B0BDE8F08100BF8C
:100890002099FF1F2DE9F0415FFA82F80C0608F15C
:1008A000FF3504F0FE4444F430442D02064605F4BE
:1008B000706544F00B04000482B02C4300F4FE0089
:1008C0000F46204309F0D2F8CDF80080FBB2F2B217
:1008D000B0210348FFF74CFF02B0BDE8F08100BF34
:1008E0002099FF1F036810B504460BB17430984778
:1008F00094F87530803B7F2B00F28580DFE813F0A1
:100900008A008300830083008300830083008300C8
:1009100083008300830083008300830083008300BF
:10092000960083008300830083008300830083009C
:10093000830083008300830083008300830083009F
:100940009A00830083008300830083008300830078
:10095000830083008300830083008300830083007F
:100960009E00830083008300830083008300830054
:10097000830083008300830083008300830083005F
:10098000A200830083008300830083008300830030
:10099000830083008300830083008300830083003F
:1009A000AC00830083008300830083008300830006
:1009B000830083008300830083008300830083001F
:1009C000B0008300830083008300830083008300E2
:1009D00083008300830083008300830083008300FF
:1009E000C4008000D100E10083008300E90083009F
:1009F000ED00F100F500F900FD0083000101840025
:100A0000A36A002B60D110BD236D002BFBD0BDE885
:100A100010401847A368002BF5D094F8772094F87D
:100A2000761094F87400BDE810401847E368002B76
:100A3000F3D1E8E72369002BEFD1E4E76369002BEA
:100A4000EBD1E0E7A369002BDDD094F8761094F8A1
:100A50007400BDE810401847E369002BF5D1D2E7D8
:100A6000226A002ACFD094F8771094F8763094F860
:100A70007400C90101F47E5103F07F031943A1F50D
:100A80000051BDE810401047636A002BBBD0B4F89A
:100A90007610802904F1780028BF8021BDE810403D
:100AA0001847E26A002AAED094F8773094F87600BE
:100AB000DB0103F47E5300F07F001843BDE81040D3
:100AC0001047236B002B9ED094F87600BDE81040B1
:100AD0001847636B002B9AD195E7A36B002B96D137
:100AE00091E7236C002B92D18DE7E36B002B8ED125
:100AF00089E7636C002B8AD185E7A36C002B86D134
:100B000081E7E36C002B82D17DE700BFF8B5436D30
:100B10000446186803681B69984708B90020F8BDA7
:100B200094F80D31626D23F0010384F80D311068E3
:100B300003685B699847C3B2FD2BEFD0626E002A51
:100B400049D001067ED494F85B10F0295FD0F729D4
:100B50005DD0A11881F85B30216E4B1E9A4253D3B1
:100B600094F85B30F02B00F00A82F72B00F007823C
:100B70001A0650D4002284F87520B02A5CD0A02A2E
:100B80005AD0D02A58D0E02A56D0C02A54D00020BB
:100B900084F87400032994F85C0008BF94F85D5051
:100BA00084F8760018BF002500210120B02A84F8BF
:100BB00077506166216684F8F80008D000F2D5818C
:100BC000902A04D0A02A02D0802A00D0002384F8E2
:100BD00059300120F8BD94F8592084F85B3015068F
:100BE0004DD440B20028C0F20E8294F90D01636822
:100BF00040F0010084F80D0103B19847002084F80B
:100C0000590060662066F8BD0132626686E7A11869
:100C100081F87830A0E703F10C02D2B2012AA9D9F9
:100C2000FD2BA7D0EF2B00F2EC8103F0F002802A1D
:100C300084F8752040F0EF8103F00F00013084F854
:100C40007400A7E7A3F1F0010F293FF67CAF012064
:100C500000FA01F111F0810540F0B18111F45F4F0C
:100C60003FF471AF84F8765084F8775084F874506C
:100C700084F87530C4F8FC0084F8F800F8BD02F17F
:100C80000C01CDB2012DACD9FD2AAAD0EF2A00F279
:100C9000578102F0F006802E40F0538140B20028C8
:100CA000A0DB0120C9B2814284F85B2084F85C306B
:100CB00060669AD9FD2A98D0EF2A94BF02F0F00519
:100CC0001546A5F180037F2B8FD801A151F823F0A1
:100CD000390F0000EB0B0000EB0B0000EB0B0000EA
:100CE000EB0B0000EB0B0000EB0B0000EB0B00002C
:100CF000EB0B0000EB0B0000EB0B0000EB0B00001C
:100D0000EB0B0000EB0B0000EB0B0000EB0B00000B
:100D1000390F0000EB0B0000EB0B0000EB0B0000A9
:100D2000EB0B0000EB0B0000EB0B0000EB0B0000EB
:100D3000EB0B0000EB0B0000EB0B0000EB0B0000DB
:100D4000EB0B0000EB0B0000EB0B0000EB0B0000CB
:100D5000390F0000EB0B0000EB0B0000EB0B000069
:100D6000EB0B0000EB0B0000EB0B0000EB0B0000AB
:100D7000EB0B0000EB0B0000EB0B0000EB0B00009B
:100D8000EB0B0000EB0B0000EB0B0000EB0B00008B
:100D9000390F0000EB0B0000EB0B0000EB0B000029
:100DA000EB0B0000EB0B0000EB0B0000EB0B00006B
:100DB000EB0B0000EB0B0000EB0B0000EB0B00005B
:100DC000EB0B0000EB0B0000EB0B0000EB0B00004B
:100DD000310F0000EB0B0000EB0B0000EB0B0000F1
:100DE000EB0B0000EB0B0000EB0B0000EB0B00002B
:100DF000EB0B0000EB0B0000EB0B0000EB0B00001B
:100E0000EB0B0000EB0B0000EB0B0000EB0B00000A
:100E1000310F0000EB0B0000EB0B0000EB0B0000B0
:100E2000EB0B0000EB0B0000EB0B0000EB0B0000EA
:100E3000EB0B0000EB0B0000EB0B0000EB0B0000DA
:100E4000EB0B0000EB0B0000EB0B0000EB0B0000CA
:100E5000390F0000EB0B0000EB0B0000EB0B000068
:100E6000EB0B0000EB0B0000EB0B0000EB0B0000AA
:100E7000EB0B0000EB0B0000EB0B0000EB0B00009A
:100E8000EB0B0000EB0B0000EB0B0000EB0B00008A
:100E9000EF0E0000310F0000390F0000310F00008D
:100EA000EB0B0000EB0B0000D10E0000EF0E00007A
:100EB000D10E0000D10E0000D10E0000D10E0000B6
:100EC000D10E0000EB0B0000D10E0000D10E00008F
:100ED0000023012084F8743084F8763084F8773069
:100EE00084F875506366236684F8F800F8BD8021A5
:100EF0000023216684F8785084F859307F21636E8E
:100F00008B422ED302F00F020023013294F85C10C2
:100F100084F87420012084F8761084F8773084F8FF
:100F2000755063662366C4F8FC0084F8F800F8BDC9
:100F3000022323660121E2E7032323660221DEE781
:100F4000164606F0DF05902D3FF4A8AE06F0BF056B
:100F5000A02D3FF4A3AE06F0EF06C02E3FF49EAEE8
:100F60003FE6013363660020F8BDD02A3FF42FAE80
:100F7000E02A3FF42CAEC02A7FF428AE27E6F02208
:100F800080230025012194F8F76084F8752084F807
:100F9000763084F8F720C4F8FC30204684F8775087
:100FA00084F8745084F8F810FFF79CFCF7220223B1
:100FB00084F8796084F8782028466366F8BD94F850
:100FC0007810F02902D0F7297FF40FAE551C224487
:100FD00000214FEA152E82F878300126F02784F898
:100FE000765084F877E084F8741084F8591030460D
:100FF000C4F8FC5084F875706166216684F8F86066
:10100000F8BD1A46B7E503F10C02D2B2012A7FF609
:10101000ECAD1A4650E6902A3FF40EAEADE500BFA7
:1010200090F87030DA0718D513F0FE0F15D070B5B0
:1010300090F8755085F08002602A82B004460DD881
:1010400090F874608E4231D081B35B08012B32D0AE
:10105000032B00F09B8002B070BD7047A5F1F00338
:101060000F2BF8D801A252F823F000BF6311000043
:10107000411100000F110000F31000005710000094
:1010800057100000CB10000057100000CB100000DC
:1010900057100000CB100000CB100000CB10000058
:1010A00057100000CB100000CB1000005B08012B94
:1010B00001D0022BCFD194F8773094F876200096A7
:1010C00029462046FFF754FBC5E705F10803DBB2CC
:1010D000072BC0D8012202FA03F313F0DD0FBAD0B8
:1010E000636D1868036829461B6802B0BDE870404C
:1010F0001847436D90F8765018680368F3211B6811
:101100009847636D186805F07F010368ECE7436D4D
:1011100090F87750186894F876200368F2211B68DD
:1011200042EAC5159847636D1868036805F07F01AA
:101130001B689847636D1868C5F3C6110368D3E749
:10114000436D90F87650186894F8773002682D0156
:1011500003F00F03126805F07005F1211D4390475D
:10116000BEE7B0F87660802E28BF802600F17805B3
:10117000002E3FF470AF2E44636D15F8011B186804
:1011800003681B689847B542F6D164E794F8773056
:1011900094F8762000962946FFF7EAFA5BE700BF4D
:1011A00070B5174C94F85860102E02D900252846C7
:1011B00070BD2046FFF7AAFC05460028F6D094F83B
:1011C0007530902B0CD083F08003602B0BD90C482A
:1011D000FFF788FB31460A48FFF722FF284670BD1B
:1011E00094F877303BB194F874309E42EFD0002EE3
:1011F000EDD00025EEE7802384F87530F3E700BFDB
:101200002099FF1FF8B5294C294F94F87030DFF86A
:10121000ACE0C7F800E00025012243F0010362F3CF
:1012200047034FF6FF76294604F17800802284F8C0
:101230007030676525606560A560E5602561656162
:10124000A561E56125626562A562E5622563656366
:10125000A563E56325646564A564E564256584F894
:10126000585084F8595084F85A5025666566A66629
:10127000E66684F8745084F8755084F8765084F8E3
:10128000775084F8F8500CF04FF82046C4F800511D
:10129000C4F80451C4F8085184F80C5184F80D5175
:1012A000044A0549BDE8F8400AF048BD2099FF1FEF
:1012B0001C99FF1F1C89FF1F710600007C8FFF1FF8
:1012C00000207047704700BF10B5044604F094FF3B
:1012D0000A2830D00D283DD04FF6FD73984201D931
:1012E000012010BD0346B4F94220B4F9401004F1C6
:1012F000080004F065FF94F82230032BF0D8DFE8F3
:1013000003F0140E0802B4F84230181AA4F8420090
:10131000E6E7B4F84030181AA4F84000E0E7B4F863
:1013200042301844A4F84200DAE7B4F840301844D8
:10133000A4F84000D4E794F9333094F93410B4F8A9
:1013400042205B1A13440022A4F84230A4F8402043
:10135000012010BD0023A4F84030012010BD00BFC3
:1013600010B518380BF032FA09490A4C0BF082FA22
:1013700009F00AFC0BF044FC01212060172007F063
:1013800075FB21682820BDE8104007F061BA00BF56
:1013900090759242F4A1FF1F70B50020104C114BC4
:1013A000114E014603F1400243F8041B9342FBD166
:1013B000C0EBC005731901305B79DB091CBF735D9D
:1013C00003F00F030828236004F104041346E9D155
:1013D000FFF7B6F9FFF794F9044B00221A7070BDBD
:1013E00054A1FF1FA8A3FF1F748DFF1FAC8DFF1F0B
:1013F0002DE9F0471546002A63D004460F46DFF872
:10140000C88000264FF6FD7900F1080A0BE004F0D1
:10141000F3FE0A2825D00D2832D0484511D90120E5
:10142000013D06440AD0236817F8011B1B68434599
:101430002046ECD09847013D0644F4D13046BDE843
:10144000F0870346B4F94220B4F94010504604F046
:10145000B7FE94F82230032BE1D8DFE803F02B2409
:101460001D1694F9333094F93410B4F842205B1A05
:1014700013440022A4F84230A4F840200120CFE712
:101480000023A4F840300120CAE7B4F84230181A0B
:10149000A4F842000120C3E7B4F84030181AA4F8B9
:1014A00040000120BCE7B4F842301844A4F84200E0
:1014B0000120B5E7B4F840301844A4F840000120FA
:1014C000AEE71646BAE700BFC912000070B5084D76
:1014D0002B689842044608D3064EE41AFFF700F939
:1014E00033689B009C422B60F7D21B1B2B6070BDA6
:1014F00040A3FF1FD8A1FF1F70B50D4D2B68984268
:10150000044612D30B4E32682A60E41A07F0C8FA78
:101510000146094803F00EFF07F0C2FA01460748EA
:1015200003F054FF2B68A342EDD91B1B2B6070BD49
:101530008C9AFF1FD8A1FF1F4CA9FF1F4CA6FF1FAD
:10154000F8B504460A4E0B4D0B4F55F820000A46DD
:1015500056F82410FFF79EF90849094A56F8243036
:1015600055F8240047F8243008601360F8BD00BF28
:10157000B0A5FF1F5089FF1F989AFF1F809AFF1F79
:10158000B09AFF1F2DE9F04F744DDFF81482744EAE
:10159000744FDFF810B2DFF810A2DFF8109283B0BA
:1015A00022200024C0B206F01DFE03460146286832
:1015B0003B6004F003FC2968DBF80000CA6ADAF833
:1015C0000030904200F3A8809342D4BFC0EB0302E6
:1015D000C0EB02021B1AB3F5804FAABF9203C2EB05
:1015E0008232013392FBF3F391F834203B604FEAEF
:1015F000E31E49F824E0002A57D05B4B1B78032BED
:1016000053D8DFE803F04A02024A584B1B78002BFC
:1016100055D0574B1B78002B51D0564A5649574B43
:101620001460042C32680A60C3F800E000F0828085
:10163000534B544A18681168534B019200EB800CCD
:1016400000EB4C004FF0B00C0CFB0100C1EBC101F2
:10165000DFF848C1595C00938444A444090901316E
:1016600020468CF803E0FFF76BFF019A009B12689D
:10167000C2EBC2022046995C09090131FFF760FF05
:101680000134424B0122052C1A7005F1040506F1C4
:10169000040611D103B0BDE8F08F3D4B2046196818
:1016A000FFF74EFF394B01221A700134052C05F16A
:1016B000040506F10406EDD058F8040F72E7354B27
:1016C0001B785BB32B4A2C492C4B1460042C3268DA
:1016D0000A60C3F800E02B4A2F492ED012682A4B2B
:1016E00051F82210DFF8B4C001EB810001EB40019A
:1016F000B02000FB0210C2EBC202995C0CEB0003AD
:10170000234409090131204683F803E0FFF718FF5D
:101710001E4B01221A70C8E700225BE7194A1A4BD8
:101720001268C2EBC2022046995C09090131FFF739
:1017300007FFBAE7134A144B99E71368174851F8A3
:101740002320B02101FB03F10B2303FB021303440D
:101750005A786EF306025A70DAE700BFF8A1FF1F4D
:101760005089FF1F7C9AFF1F3C8DFF1FAD9AFF1F02
:10177000789AFF1FCCA1FF1F809AFF1FB09AFF1F0E
:101780006CA3FF1F74A3FF1F748DFF1FD4A1FF1F45
:101790004C89FF1F44A0FF1F54A1FF1FC49AFF1FC5
:1017A0007CDB000078A1FF1F1C8AFF1FB0A5FF1F74
:1017B00008B50A4B1A783AB91146094804F0F8F806
:1017C000084B01221A7008BD074A0548002104F0A1
:1017D000EFF8044B01221A7008BD00BF44A3FF1F9D
:1017E000309AFF1F7FA3FF1F4040BF002DE9F04F3D
:1017F000A24BA34C196885B0054608460AF032FF93
:101800000BF024FA9F4AA04913680093009B0E68CE
:1018100020609B1B98424FEA400408D89B481668FA
:101820000378019683F00103019E03700E60136834
:10183000974A0293029B116892485B1A9C4208D80F
:10184000944900680B7803900398106083F00103BB
:101850000B70914B1B781BB18C4B1B78002B6FD1FD
:101860008E4C2378002B4CD18D4B1B78002B51D004
:10187000864B1B78002B55D18A4B1B78012B00F02F
:10188000A781022B56D000221146874804F090F819
:101890004FEAC508854EC5EB080333449B79DF0743
:1018A00040F19480824BDFF8389253F82530C9F824
:1018B00000302378002B58D07E4B1B78002B54D05F
:1018C000C5EB08052E4401240BE03B68A34279D008
:1018D0002B680B33A3423AD004F06AF801341B2C76
:1018E0003DD03378744D754F6F4803F00F030B33C1
:1018F000A3424FF00002A1B2E7DA0022A1B26A4887
:10190000EAE7624B1B78002B40F06E81644B1B783A
:10191000002BB1D16A4B1B78002BADD05B4B1B78F1
:10192000002BA9D0674B604853F82520002104F014
:101930003FF8ADE74D2200215B4804F039F8A7E7F6
:10194000012200215848554C04F032F8A0E7A1B21A
:101950005D4A5548013404F02BF81B2CC1D15B4B78
:1019600001221A7005B0BDE8F08F554B1B78002B93
:1019700039D0C5EB08052E44012411E00B684A4814
:1019800052F823300B33A3424FF00002A1B214D01F
:101990002B68A34201D004F00BF801341B2CDED0DD
:1019A00033784B494B4A454D03F00F030B33A342A9
:1019B000E4DA0022A1B23C48EDE74FF4000203F064
:1019C000F7FFEAE7444A03F0F3FF87E73D49384A67
:1019D000DFF80C91414B51F8251052F82520C9F839
:1019E00000101A6065E73A4B1B68C3EBC30333442E
:1019F0009B795807B3D4C5EB080737444FF0020B67
:101A000001240AE00022A1B2274803F0D1FFBBF174
:101A10001B0F29D001340BF1010B3B7803F00F03AE
:101A20000B33A342EEDB012C00F0E580022C00F02A
:101A3000EE80EB1CA342E5D11FFA84FAD9F800200E
:101A40001948514603F0B4FF154A1278002ADED037
:101A50000E4A1278002ADAD051460022124803F0CA
:101A6000A7FFBBF11B0FD5D14FF0B00B0BFB05FA55
:101A70000B4F4FF00B0B00244CE000BF34A3FF1FB3
:101A8000849AFF1FD4ABFF1FB89AFF1F48A6FF1F01
:101A9000749AFF1F38A3FF1F509AFF1FAD9AFF1FB4
:101AA000BC9AFF1F3C8DFF1F309AFF1F748DFF1FD4
:101AB00090DB0000789AFF1F6CA3FF1FF0A1FF1FAF
:101AC00044A0FF1FB0DB00000080FF007FA3FF1FCA
:101AD00074A3FF1F54A1FF1F808080004C9AFF1F3A
:101AE0003CA3FF1FA24268D004EB8402514904EBDF
:101AF000420252440A449178C1F30111012952D0A3
:101B000000296BD001340BF10103102C1FFA83FB69
:101B10003FF425AFC5EB0802B25C02F00F020132C0
:101B2000A242EFDD3A78E2B9434AA10752F82520F4
:101B3000D8D0A2421BD004EB840204EB42023D4900
:101B4000524411448A78C2F30112012A1ED0397816
:101B50000029D7D1002AD5D15946384803F028FFAB
:101B6000D0E7374A3548594603F022FFDCE7354BCA
:101B70001A7832BB04EB840204EB42022D49524432
:101B800011448A78C2F30112012AE3D18A7A130739
:101B90000CD02D4A12784AB92C4A28481268594666
:101BA00003F006FFAEE7927A1207F2D1D9F80020CF
:101BB0002248594603F0FCFEA4E7224B1A78002A7B
:101BC00092D04FF4000259461C4803F0F1FE99E709
:101BD0001F4A1A48002103F0EBFE59E6184A17483D
:101BE000594603F0E5FE8DE744F64D4200211348C7
:101BF00003F0DEFE4CE6174B5B7813B1164B1B78F7
:101C000093B9164A0D48012103F0D2FE02E7114BA9
:101C10009B7813B1104B1B7833B94FF680720221B9
:101C2000064803F0C5FEF5E600222146034803F00E
:101C3000BFFEEFE6C49AFF1F54A1FF1F309AFF1F9B
:101C400020202000509AFF1F38A3FF1F4C9AFF1F2F
:101C500080808000549AFF1F48A6FF1FFFFF80006E
:101C600010B550B904460121094804F0C1FA2146D3
:101C70000748BDE8104004F0BDBA0021044804F054
:101C8000B7FA01210248BDE8104004F0B3BA00BF22
:101C90008CA1FF1F2DE9F041C600321A574D584C58
:101CA000AB5C54F820E003F00F0301339E452A4457
:101CB00029DB5179C90956D1517801F00F0144F857
:101CC0002010341A2C440746A37803F00F02B2EB1D
:101CD000131F6CD0A27910336FF34102A370A2716D
:101CE000F61B0BF073FBAB5DAA1903F00F03013376
:101CF000D17890FBF3F404FB1300013060F303018F
:101D0000D170BDE8F08192F806C0CCF3400CBCF174
:101D1000000F11D051780F0901F00F018F420ADD39
:101D2000BE4508DB5379DB09C9D0002F36D0013F0F
:101D300044F82070C5E73FB3321A2A445179C909E3
:101D40000FD0BEF1000F12DBBCF1000F09D05378A9
:101D500003F00F039E453CDA331A2B445F783F09AA
:101D6000E3E7BDE8F08192F806C0CCF3400CBCF18B
:101D7000000FF1D1321A2A44527802F00F029B1A56
:101D8000013B44F820309CE7321A2A44D77807F008
:101D90000F07BE45D0DB5379DB0990D0331A2B44B3
:101DA000DB7803F00F03013B44F8203089E7237907
:101DB00013F07F080FD1F31B2B449A796FF3410284
:101DC0009A71F31B2B4401219A7861F307129A70E0
:101DD00086E7BDE8F0810BF0F9FA0A4BC21783FBE6
:101DE0000013C2EB6313642202FB13008045E2DDA3
:101DF000A37943F00203A371E3E700BF748DFF1FD3
:101E000054A1FF1F1F85EB5170B50C4D0C4E0024E3
:101E1000C4EBC403334420465B79DB092B680ABF5B
:101E2000204603F1FF33013301342B60FFF732FF0B
:101E3000082C05F10405EBD170BD00BF54A1FF1FB4
:101E4000748DFF1F70B5124D124E002408E0013B47
:101E5000002B2B6016DB0134082C05F1040510D093
:101E6000C4EBC402B3185B79DB092B68EFD02046C2
:101E7000013301342B60FFF70DFF082C05F1040539
:101E8000EED170BDB35C03F00F032B60E3E700BF3E
:101E900054A1FF1F748DFF1F0949C0EBC0020A4403
:101EA00008495279D20951F8202004D1013241F871
:101EB0002020FFF7EFBE013A41F82020FFF7EABEED
:101EC000748DFF1F54A1FF1F3D4A3E4B70B415682F
:101ED00019683D4CAA00531905EB4303B02606FBD5
:101EE000013323449B7A03F00F031844062811D8CA
:101EF000DFE800F0121F2D3B495704002A4405EB90
:101F00004202B02505FB012214440622A37A62F3A3
:101F10000303A37270BC70472A4405EB4202B0234E
:101F200003FB01221444A37A6FF30303A37270BC72
:101F30007047531905EB4302B02303FB01221444FD
:101F40000122A37A62F30303A37270BC7047531992
:101F500005EB4302B02303FB012214440222A37ABF
:101F600062F30303A37270BC7047531905EB43027D
:101F7000B02303FB012214440322A37A62F3030378
:101F8000A37270BC7047531905EB4302B02303FBE7
:101F9000012214440422A37A62F30303A37270BCE7
:101FA0007047531905EB4302B02303FB012214448D
:101FB0000522A37A62F30303A37270BC704700BFCB
:101FC0006CA3FF1F74A3FF1FC49AFF1F38B5134CE7
:101FD000134B246853F8203004EB440403EB8404CF
:101FE0007F2C05460AD9A9B20E4A0F4803F0E0FC3F
:101FF0000E490F4A01230B70137038BD0D480E4B6C
:102000000470204643F82540FEF7F4FBA4F11803C2
:10201000352BE8D82046FFF7A3F9E4E744A6FF1FD5
:1020200038D9000080808000309AFF1F7FA3FF1FF7
:10203000D4A1FF1F7EA3FF1FAC8AFF1F0C4B10B55E
:10204000044653F820007F2807D80A460021FEF7EF
:10205000F9FB0021172006F009FDA1B20022054876
:1020600003F0A6FC0449054A01230B70137010BD50
:10207000AC8AFF1F309AFF1F7FA3FF1FD4A1FF1F51
:10208000F8B51E4C1E4B246853F8203004EB440472
:1020900003EB84047F2C05460AD9A9B2194A1A48D1
:1020A00003F086FC19491A4A01230B701370F8BD1E
:1020B000184FDFF874E03B681748184EC3EBC303B2
:1020C00006EB02161EF8033050F822E01A0901321E
:1020D000204606F80E40FEF78DFB3B681049114A7A
:1020E000CB5C42F82540002BD7D0A4F11803352B48
:1020F000D3D82046FFF734F9CFE700BF44A6FF1F2F
:1021000038D9000080808000309AFF1F7FA3FF1F16
:10211000D4A1FF1F74A3FF1F54A1FF1FD4A0FF1F52
:10212000448DFF1FAC8AFF1F748DFF1F38B5134B02
:10213000044653F820007F280AD9A1B20022104893
:1021400003F036FC0F49104A01230B70137038BDA1
:102150000E4D0F4A2B68C3EBC3030021D25C12095A
:102160000132FEF76FFB2B680A4AD35C002BE4D0E8
:102170000021172006F07AFCDFE700BFAC8AFF1FC2
:10218000309AFF1F7FA3FF1FD4A1FF1F74A3FF1F5F
:10219000748DFF1F448DFF1F2DE9F04FBC4EBD4FC6
:1021A00056F82030BC4903EB830203EB4203B02214
:1021B00002FB003387B03B440A5C029293F80A802A
:1021C00008F00F08B8F1060F044600F0118108F17D
:1021D000FF38B8F1040F00F20881DFE808F04C3650
:1021E00041032500AD4A56F82400C4EBC4031A4449
:1021F0005379C3F3C01181F0010161F3C713537127
:1022000000EB80034FF0B00900EB430009FB04F939
:1022100048443844DFF87CA28378C3F30113012BD0
:102220002DD007B0BDE8F08F0BF0D0F89B4AC4EB7F
:10223000C403D35C03F00F03013390FBF3F202FB02
:102240001300013046F82400DAE7944A56F82400D7
:10225000C4EBC40313445A796FF3C7125A71CFE722
:102260008E4A56F82400C4EBC40313445A7942F052
:1022700080025A71C4E7002046F82400C0E7437882
:10228000DFF84082854DDFF808B203F07F03C8F81D
:10229000003006F005FC56F824300299009103EB5B
:1022A000830103EB410399440AEB09017C4A91F84D
:1022B00002E013681AF809107A4A0EF00F0E0EFBAE
:1022C00003334FEAC40A1844C4EB0A09734B106085
:1022D00013F809E0136874484FEA1E12013201F046
:1022E0007F0103F009F856F82430DA07A94400F119
:1022F000958099F8052002F07F02622A40F39580CC
:10230000632A00F0E58069496448DFF8BCB103EB5B
:1023100083024FF0B00903EB420309FB04F9C4EB5D
:102320000A024B44805C17F803E00B68D8F80020E1
:10233000029900930309019101330EF07F015C487B
:10234000DFF8888103F022F856F824200025900059
:10235000831802EB43034B443B442B44C4EB0A0E6B
:1023600093F903300293002B194624DB4B4B13F8EF
:102370000E20504B120953F825000132FEF78AFA5D
:1023800056F82420029BC8F8003090000135042D37
:1023900008F10408DCD1104402EB4000B02303FB39
:1023A0000400454B395C03EB0414C1F30603A3544A
:1023B00007B0BDE8F08F5BF82510D8F800308B42ED
:1023C000C4EB0A0EE2D0354B13F80E20394B12093C
:1023D00053F825000132FEF75DFA56F824205BF829
:1023E0002530C8F800309000D0E756F8240007E701
:1023F000072007F00FFF05283FF6E9AE01A353F8C9
:1024000020F000BFEB230000772200004B220000E9
:1024100061220000E52100002922000006F040FBB7
:1024200022495BF8243008606EE706F039FB05901E
:1024300099F8033021491B09086821490491039345
:102440000AF0C0F9039B049951F823100AF012FA1C
:102450004FF07A510AF00EFA039099F8050000F057
:102460007F000AF0B3F9039B014618460AF002FA0E
:10247000059A814610460AF0A5F9014648460AF039
:10248000F1F80AF0E3FB09495BF8243008603BE708
:1024900054A1FF1FC49AFF1F448DFF1F748DFF1F9F
:1024A00078A3FF1FD0A0FF1F4CA9FF1FB49AFF1FE6
:1024B0004CA6FF1F5089FF1FD4A0FF1FD8A1FF1FEC
:1024C0003C8BFF1F508DFF1F989AFF1FDCA1FF1F41
:1024D0000AF07CFF059006F0E3FA1649049099F89B
:1024E00003900868144903914FEA19190AF06AF930
:1024F000039951F829100AF0BDF94FF07A510AF00A
:10250000B9F9059B81460D4883FB00015818D9177E
:10251000C1EBA01101EB4100C1EB4011581A013091
:102520000AF054F9014648460AF0A4F9049A814693
:10253000A0E700BFD8A1FF1F3C8BFF1F859176ACA1
:102540002DE9F04FDFF88082DFF884A2D8F8003060
:10255000DFF880B25AF8232002EB820102EB41023D
:10256000B02101FB03235B4485B0187A10F07F048F
:1025700040F09F8001948A4B1B78012B7FD0022B67
:1025800040F08D80874B1B78002B00F08B8006F08D
:1025900087FADFF844920090002461E0824B834A7E
:1025A0001868C4EBC403134409EB0607DA78BD606E
:1025B0001209039302920AF005F97D4B029A53F82F
:1025C00022100AF057F9029028460AF0FBF8029A06
:1025D000014610460AF046F80AF038FB039B9B7947
:1025E0007860DB0731D45AF82420724B02F10F01D6
:1025F0000B40002BC0F2B5806F49314409EB060057
:10260000CD5C83810DB10020C854019BEBB102EB7E
:10261000820302EB4301B02303FB04135B44164423
:10262000597A6648664A50F8263001F03F0102EBBD
:10263000C10552F831106A6801338B4240F82630E8
:1026400000F09480934280F29A80D8F80030A34240
:1026500000F083802046FFF71FFC0134082C1ED0B9
:10266000260109EB0607009B7D68AB42F5D3554B6D
:102670001B78002B92D0FEF78FFE7D688EE7494BCA
:102680001B787BB106F00CFAD8F80040DFF84891CF
:102690004D4E230109EB03025568A8421AD205B03A
:1026A000BDE8F08FD8F8000005B0BDE8F04FFFF7A7
:1026B0009DB80AF08BFE454BC21783FB0013C2EB9B
:1026C0006313642202FB13008442D4BF002301235E
:1026D000019350E73B4A1278002A54D15AF824104B
:1026E000344A0F310A40002A55DB3349194409EBBB
:1026F00003008E5C82810EB1002088542A4A2B4947
:1027000010682B4FC4EBC4020A449944D678C9F828
:10271000085036090AF056F857F826100AF0AAF8B9
:10272000064628460AF04EF80146304609F09AFF60
:102730000AF08CFA019BC9F8040023B12046FFF788
:102740002BFDD8F800402046FFF750F8D8F80000DD
:1027500005B0BDE8F04FFFF757BB2046FFF746F83E
:1027600078E7013B63F00F03013345E7934202DB57
:10277000002340F826302046FFF70EFD65E70023D2
:1027800040F8263061E7FEF707FE3468230109EBC5
:1027900003025568A2E7013A62F00F020132A4E792
:1027A0003C8DFF1F509AFF1F78A3FF1F748DFF1FE2
:1027B0003C8BFF1F0F000080D4A0FF1FA8A3FF1FAA
:1027C0005C8BFF1FAC8DFF1F74A3FF1F1F85EB5198
:1027D00054A1FF1FC49AFF1FC4A5FF1F0C4B70B567
:1027E00001220C4E1A70002406F05AF906EB04156B
:1027F0000134686006F054F9082CA860F4D1064B47
:102800001B7803B170BDBDE87040FDF789BF00BF04
:10281000509AFF1FC4A5FF1FAC8DFF1F07285CD86F
:102820002DE9F84F2D4A2E4DC0EBC0034FF0B008F4
:10283000D45C04F00F04013404EB840204EB420284
:10284000073222F00702214400AFEE464FF0000CA1
:10285000ADEB020D91FBF4F308FB00506E4604FB58
:102860001313E04603EB830200EB0C0103EB42027F
:10287000B51808F101080133D1F800B0D1F804A06F
:10288000B1F80890897A46F802B093FBF4F2444517
:102890000CF10B0CC5F804A0A5F80890A97204FB74
:1028A0001233DFDC00231D46F218C1180135D2F8BF
:1028B0000090D2F80480B2F808C0927A40F80390F1
:1028C000AC42C1F8048003F10B03A1F808C08A727E
:1028D000EADCF546BD46BDE8F88F7047748DFF1FF2
:1028E000C49AFF1F2DE9F0473A4FBDF82060054616
:1028F0008946384629469246984603F0C9FC97F91E
:10290000314080B2A4B2C0EB0803341B03EBD37395
:1029100004EBD47409EB63030AEB64040022284639
:10292000A7F84030A7F8424087F846200AF088FD13
:1029300048B304463E464FF6FD7801E0013C22D004
:1029400015F8011B234803F057FC0A282FD00D2847
:102950003BD04045F2D80346B6F94220B6F94010C4
:102960001D4803F02DFC96F82230032BE6D8DFE853
:1029700003F018120C02B7F84230013CA3EB000040
:10298000A7F84200DCD1BDE8F087B7F84030181A4C
:10299000A7F84000D2E7B7F842301844A7F8420041
:1029A000CCE7B7F840301844A7F84000C6E796F9DE
:1029B000333096F93410B6F842205B1A13440022E3
:1029C000A6F84230A6F84020B8E70023A6F8403029
:1029D000B4E700BF84A1FF1F8CA1FF1F30B50546DF
:1029E00083B010460C46FFF73BF9074B1A680332D9
:1029F000610116235200009309B2284612B2202327
:102A0000FFF770FF03B030BD888CFF1FF0B5194C85
:102A1000194F1A4E85B004F1400502E00834AC426B
:102A200026D02379002BF9D03B680393039B1448ED
:102A3000336004F00FFD0121124803F0BFFB12497F
:102A4000104803F0CBFB01210E4803F0D1FB00211D
:102A50000C4803F0CFFB2023206800930A22802338
:102A60000021FFF73FFF002323710834AC42D8D187
:102A700005B0F0BD4C8AFF1FD4ABFF1F709AFF1F3B
:102A8000B898FF1F8CA1FF1FD0DC000030B51E4C92
:102A900083B0012104F1080003F090FB04F1080069
:102AA0001A4903F09BFB002504F108000121A4F85A
:102AB0004050A4F8425084F8465003F099FB294650
:102AC00004F1080003F096FB114A124B12781B78B0
:102AD000934210D0104B1B784BB910482023009321
:102AE00014222C235621FFF7FDFE03B030BD0C4B02
:102AF00053F82200F2E7084A1278002AEDD0084A7B
:102B000052F82300EAE700BF84A1FF1F1C0F010059
:102B1000348BFF1F3C8DFF1F0CA2FF1F50DB0000FA
:102B20008C8AFF1F70B5064684B010460D46FFF72D
:102B300097F80A4B1C68640002A930460A22053443
:102B40000AF028F9A4B269011623009322B209B24F
:102B500002A82023FFF7C6FE04B070BD888CFF1FBB
:102B6000F8B5134E074600257088002498B1230459
:102B7000FF2293FBF0F02844114680B202F042FF9E
:102B800002F0E4FFA1B20246094802F011FF70888A
:102B90000134A042EBDC064802F028FE05F5807502
:102BA000384605F09FFFB5F5803FDDD1F8BD00BF89
:102BB000309AFF1F2DE9F047494BDFF83C81494E21
:102BC0000FCB86B006AC04E90F00474804F042FC86
:102BD000002108F1080003F0F1FA45464FF0000A21
:102BE0004148424C04F036FC12230022404941483F
:102BF000A8F84030A8F8423088F846200FFA8AF941
:102C000003F0ECFA4FF6FD7701E0B44222D014F85D
:102C1000011B394803F0F0FA0A284FD00D285BD089
:102C2000B842F2D80346B5F94220B5F94010314810
:102C300003F0C6FA95F82230032BE6D8DFE803F05C
:102C400038322C02B8F84230B442A3EB0000A8F8A6
:102C50004200DCD12949274803F0C0FA09F00309F2
:102C600006AB03EB8909202359F8100C00930A22C4
:102C70005021FFF737FE1C4804F0F8FC0AF1010A66
:102C8000642005F02FFFBAF1100FA9D1642006B01F
:102C9000BDE8F04705F026BFB8F84030181AA8F88C
:102CA0004000B2E7B8F842301844A8F84200ACE758
:102CB000B8F840301844A8F84000A6E795F933303A
:102CC00095F93410B5F842205B1A13440022A5F898
:102CD0004230A5F8402098E70023A5F8403094E75B
:102CE0000CD90000AAD90000B898FF1FA4D9000091
:102CF000D0DC00008CA1FF1F84A1FF1F8CE5000029
:102D00002DE9F047324BDFF8D0C0186859681C89AC
:102D10009A7A304DDFF8C4E084B001AB03C30027DA
:102D20001C809A704FF001094FF003085CF8046FA3
:102D3000002206F07F069DF8043066F306038DF846
:102D4000043001AB03CBAC18A8500B3218889B7829
:102D50006160B02A2081A372EDD1C7EBC7010EEBF1
:102D600001031EF8012042F00F0267F307120EF86C
:102D700001209A789E795879597893F804A0DC78E4
:102D80006FF303029A706FF30006F2B29E7800F0C0
:102D90007F0001F0F00102F0FD0201376FF3060041
:102DA0006FF307116FF3060A69F3071668F303045C
:102DB0006FF38202082F05F1B0055871597083F83E
:102DC00004A09E70DC709A71B0D104B0BDE8F087A9
:102DD0001CD90000C49AFF1F508DFF1F748DFF1F68
:102DE00070B5002005F0E2FA072803D00721002083
:102DF00005F0F6FA1A4B01201C7805F0D7FA844248
:102E000003D02146012005F0EBFA164B02201C7876
:102E100005F0CCFA844203D02146022005F0E0FA06
:102E2000114B03201C6805F0C1FA013CE4B2844256
:102E300003D02146032005F0D3FA0C4E042420468B
:102E400005F0B4FA56F8045BEDB2854229462046F7
:102E500004F1010401D005F0C3FA092CEFD170BDD3
:102E60003C8DFF1F74A3FF1F4C89FF1F5089FF1F5C
:102E700038B5002005F09AFA072801D0002038BDA7
:102E8000012005F093FA0C4B0C4D1870022005F050
:102E90008DFA0B4B1860032005F088FA094B0130BE
:102EA00018600424204605F081FA0134092C45F805
:102EB000040BF7D1012038BD3C8DFF1F5089FF1F47
:102EC00074A3FF1F4C89FF1F70B5104E202404F11E
:102ED000B005A4F120000B2221463044144405F033
:102EE000A7FAA542F5D1B5F5B46F2C46EFD1084D40
:102EF0004FF48464A4F584600722214628441444D6
:102F000005F096FAB4F58B6FF4D170BDC49AFF1F2B
:102F1000748DFF1F2DE9F843DFF85C80202404F155
:102F2000B0076FF0200909EB0405454404F10B06D6
:102F3000204605F03BFA0134B44205F8010FF7D101
:102F4000A742F0D1B7F5B46F3C46E8D1094D4FF434
:102F500084672C463E1B0735301905F027FA04F824
:102F6000010BAC42F8D10737B7F58B6F2546F0D18E
:102F7000BDE8F883748DFF1FC49AFF1FF0B53F4C66
:102F80008BB005F0CBF923680493049D2368059367
:102F9000059E23680693069F236807930799384A7E
:102FA00023680893374B1560374A1E603748384B03
:102FB0001160384D089E0760002201211A713648C1
:102FC000DA6083F82220A3F84020A3F8422083F897
:102FD0004620198383F821102E60186005F060FDEB
:102FE0002E49236809930B462D4A099D43F8045B3B
:102FF00010606C3122680392039A43F8042B8B42D1
:10300000F8D1284B284F294D294A196829482A4BBD
:103010002A4E2B4C12683F682D6801601A600846E2
:103020003760256009F01EFB09F010FE254B0B22CE
:1030300018600C212448FDF753FA00212348FDF7BE
:10304000C5FA052206238DE80C002149214B224AAE
:10305000224802F011FA224A2249204808F06EFE66
:1030600052230E221B21204802F08CFC1C4A1F49CF
:103070001D4808F063FE0BB0F0BD00BFD4ABFF1FCE
:10308000B89AFF1F749AFF1F709AFF1F54A3FF1F67
:1030900084A1FF1F48A3FF1FFCD8000060A0FF1FF2
:1030A0004CA3FF1F148AFF1F5089FF1FB0A5FF1FED
:1030B00044A6FF1F489AFF1F50A3FF1F809AFF1FBF
:1030C000B09AFF1F849AFF1F48A0FF1F58A3FF1F3D
:1030D000288AFF1F4489FF1F7C8CFF1F10A2FF1F3F
:1030E0001C89FF1FB1540000309AFF1F25570000B4
:1030F00030B5124C83B0002201210A2320460191F1
:1031000000931146802303F007FA0225202320466E
:1031100019460095002204F077FA204600952023F6
:103120000022402104F070FA00952046202300225E
:10313000602104F069FA03B030BD00BFB898FF1FEA
:103140002DE9F04F954C05460F4694E80F008FB0DF
:1031500002AE0DF1280886E80F0088E80F00002372
:103160000793069308930993092D00F24E82DFE836
:1031700015F066007D009B00C500ED006101900127
:10318000AC01CB010A00864A864B12681B68864850
:10319000864C02EB820102EB4102B02101FB0322CB
:1031A000815C834854F8232005688248029001F02E
:1031B0007F01013201330435089107927E4909935A
:1031C0007E4A7F4B069583460391049205937D4C7E
:1031D000DFF85CA204F1080001214FF0000902F0C1
:1031E000EDFF04F10800784902F0F8FFA4F84090E0
:1031F000A4F8429084F84690FFF77AFF494604F11C
:10320000080002F0F5FF04F10800012102F0F2FFCE
:1032100001244FF00A09DAF80020CDF80090023AB4
:1032200021B2584612B22023FFF75CFB612C04F157
:10323000200400F08581A4B256F804BFEBE75C4A95
:10324000624B15681B686249624A0793594B0968CB
:103250001278089104356049099202935F4A0695F5
:103260009B46564B039104920593B0E74D4B5C4A45
:103270001D685C4B5C491B680793C5EBC503134491
:1032800008685B794E4C5949594A029403F07F0310
:1032900008930135574B069503910492059309F065
:1032A000AFFCA346099092E73E4B53491B684C4A3A
:1032B000C95C524CC3EBC303D018D35CC278857988
:1032C000120903F00F03013354F8220007934C4B0B
:1032D0004C4A4D4C0C90C5F380054C4804936FF05C
:1032E0007E030695029203940590089309930029A2
:1032F00000F08F81464B0D93934668E7284A294B8F
:103300001168444A1868029201EB8102424B434C17
:10331000039401EB4201B02202FB0011404C414AF0
:10332000414804920590CA186FF07E00002312F9FC
:10333000011F0029C0F2638106AD45F82310013357
:10334000042BF4D1069DDDF808B040E7144B154A74
:103350001B681268144903EB830003EB4003B020A1
:1033600000FB0233CA18CD5C11489378517802688B
:103370001248029003F00F030133043209930D4BFE
:10338000079205F07F0501F07F01284A03931E4B49
:103390000695089104928346059318E728D9000002
:1033A0006CA3FF1F74A3FF1FC49AFF1F54A1FF1F2C
:1033B00044A6FF1FACD900002CDA0000CCD90000D5
:1033C000B0D9000084A1FF1FEC1701004C89FF1F3A
:1033D000B09AFF1F7EA3FF1FDCD90000E0D90000D8
:1033E000748DFF1F889AFF1F148AFF1FE4D9000005
:1033F000ECD90000F4D90000448DFF1F188BFF1F8B
:10340000C4D90000B4D90000F8D90000FCD90000EC
:1034100000DA000034DA0000C69AFF1F38DA000034
:1034200028DA00003CDA000040DA000044DA00004C
:10343000888CFF1F794A7A4B11681A6879487A4C50
:1034400001EB810301EB4301B02303FB02130344AF
:1034500003F10802917852781B7A744802F03F0217
:1034600001F00F0103F07F0354F8211050F82200FF
:103470006F4A07936FF07E056E4C0A916E4B6F4951
:103480000C90029293460394049105930695089537
:103490009DE6634B6A491D686A4AC5EBC50312681D
:1034A000CB5C089203F00F011B0901310133079136
:1034B00009936549654B664A03930135654B06954B
:1034C00002918B460492059381E6554A5C4B126843
:1034D00061490291C2EBC20213448B465A78997833
:1034E0001B7902F00F0501F00F01120903F07F03B1
:1034F00001350792089109935849594A4D4B069551
:1035000003910492059362E6454A4D4B1268554972
:103510000291C2EBC20213445348DA789B79120934
:10352000C3F380038B46079350F822104F4B504A49
:103530000A916FF07E05039204930593069546E683
:1035400001214C4802F03AFE4B494A4802F046FE3F
:103550000121484802F04CFE0021464802F04AFE94
:10356000032F0DD8DFE807F020362B0215220123A8
:103570008DE80C0062211D230B22404802F0CCFF95
:1035800006AE00243B1BB3FA83F35B0915F17F0FF2
:1035900021B228461A4628D00134FFF7C3FA042C7A
:1035A0002AD056F8045FEDE7152201238DE80C00C0
:1035B00002211D230B22314802F0AEFFE0E7152265
:1035C00001238DE80C0042211D230B222B4802F021
:1035D000A3FFD5E7152201238DE80C0022211D232E
:1035E0000B22264802F098FFCAE758F8240001345D
:1035F000FFF7F4F9042CD4D10FB0BDE8F08F06A981
:1036000048F8234041F8230099E6DDF808B000258A
:10361000DDE51B4B0D939346D9E500BF6CA3FF1F5F
:1036200074A3FF1FC49AFF1F6489FF1F8489FF1FB3
:10363000D4D9000020DA000050DB000048DA000096
:10364000748DFF1F7CA1FF1FB0D90000F8D90000C6
:1036500008DA00000CDA0000BCD9000014DA00001F
:1036600018DA0000C4D90000188BFF1F28DA000008
:10367000B4D900008CA1FF1F04060100B898FF1FF9
:1036800004DA00002DE9F04F4148A3B001F018FF23
:1036900005F006FA3F4B186005F002FA3E4B1C6835
:1036A0001860041B04D03D4B1B78002B40F01B839B
:1036B000FEF746FF3A4803F0CDFEFDF763FF3948B9
:1036C000FCF72AFF03B21790002B40F0D181364B54
:1036D0000093364B0393364B0793364E364B02938B
:1036E000364B0693364B0493DFF8ECA0354B019331
:1036F0003548FCF77DFF012800F0F281022800F038
:103700004E82324CDFF8CCB0DFF8D090204801F088
:1037100091FF00287DD01E4801F098FFC0F30722DA
:10372000D3B2012BC5B200F025813278032A00F212
:103730003281DFE802F055020255002BE6D1002D60
:1037400059D0DAF80030C3EBC3030BEB03029279D4
:10375000500700F19B82019B1B78002B00F0148224
:10376000D9F80030002B46DD0C4B1B78002B00F005
:103770009583029B1B78002B3DD0154F3B78002B87
:1037800039D0DAF80000FEF73FFB00233B7032E04F
:1037900010A2FF1F4CA3FF1F909AFF1F509AFF1FFC
:1037A000B898FF1F48A0FF1FD4A1FF1FAD9AFF1FAD
:1037B000BC9AFF1F3C8DFF1F44A0FF1F7FA3FF1F6C
:1037C0006CA3FF1F789AFF1F58A3FF1F549AFF1F77
:1037D00080A1FF1F748DFF1F74A3FF1FF0A1FF1FA7
:1037E000002B93D1954B002D40F0388229461A6862
:1037F0001920FDF74FF8924A924B12681A921A9AC2
:1038000043F8252090480023635501F013FF00285A
:1038100081D18E4ADAF80030D2F800E06278059261
:10382000A2780992029A8A4912780A92049A844DDF
:1038300012680F92039A96F800C012781092854A87
:10384000804E12781392019A119012780E92009A7B
:10385000149012780D92079A129012780B92B0225F
:10386000C3EBC30902FB03F315930C908944089042
:103870000346A846E25C002A4BD029681B911B999D
:1038800056F82370C91B8E454FEA830B41D8D8F8F0
:1038900000101C911C99CF1B42F20E718F4238D838
:1038A0000CF1FF3101292CD899F80610490728D4CA
:1038B000059931BB099921BBD91E072941F2048220
:1038C0000A2B1EDD0A99E1B90B99D1B9A3F10B01BD
:1038D00008460F91159F01EB810100EB41015E4805
:1038E000394401448F78C7F30110012840F2D18593
:1038F00010460E90119013901490109012900C900E
:103900000D902A681D921D9AA2F51C520F3A46F896
:103910000B2001331B2BADD1089B002B41F0F5810F
:103920000C9B23B1009B1A469DF834301370129BF8
:103930001BB1049B1A460F9B1360149B23B1039B7E
:103940001A469DF840301370119B1BB1414B9DF8F6
:103950004C201A7020B1019B1A469DF83830137024
:10396000BCF1030F01F20381DFE81CF00509C20876
:10397000C2080509625595B9384B1B78002B40F0F9
:1039800072813378032B3FF6C1AEDFE813F0E90014
:10399000D400D400E900002B3FF42DAFB6E6337815
:1039A000032B3FF6B3AEDFE813F0E700040004009A
:1039B000E700002D00F0BF80214B224A1B681993BD
:1039C000039B19991B7842F82510A5F10B01002BD8
:1039D00000F02081019B22481B78002B00F01A8206
:1039E000049BDAF800201B681E491F481A4F09681B
:1039F00050F82500DFF874C0C9F8005003EB830EBF
:103A000003EB4E034FF0B00E0EFB023301EB41010E
:103A100017F803E09CF800C000EB810161F3060E8B
:103A200007F803E00B4B00211970BCF1000F00F008
:103A30006C84009A0123137068E600BF4C89FF1F55
:103A4000D4ABFF1F60A0FF1F10A2FF1F488AFF1FFB
:103A5000748DFF1FAC9AFF1FC49AFF1F0CA2FF1F9B
:103A6000789AFF1F44A6FF1F38D90000509AFF1F05
:103A7000BDF95E40AA4A04FB03F4127804EB840407
:103A80001C44002A00F0B480A64AA74B00931D46B0
:103A9000A64913780391A64907911C44A5490291B0
:103AA00084F30204A44906911470FEF7EFFFA34BC0
:103AB000A34A1B681893189B1268A249A248A34EF8
:103AC000DFF8D4A2013B9B1A0B60A14B04930122A7
:103AD000A04B2A700193FCF78BFD01287FF40EAEFA
:103AE000904A3378127899489A4200F0E6818C4CDB
:103AF0002178002940F0A281002B00F0B980032B2F
:103B000000F0B680013B012B6ED8039B1B78002B85
:103B100000F0B381019B1B78002B00F0AE81079B66
:103B20001B78002B40F05E838B4B1B68002B40F012
:103B300065868A499DE0039B1B78002B00F0AE80D0
:103B4000019B1B781BB1049BC9F800501D600199B3
:103B500000230B7003990B70009B01221A70D5E5AE
:103B60007F4B64211A681920FCF794FE7D4A137874
:103B700083F001031370C9E57B4B794A1968126819
:103B80002846FEF723FAC1E5029B1B78002B3FF481
:103B900032AED9F80030002B3FF7E6AD2BE6029BA2
:103BA0001B78002B00F08081DAF800306F4A7049F2
:103BB00052F82340B02004F07F0400FB03F0002201
:103BC00002EB820302EB430303440132CD5C64F356
:103BD0000605CD540B44102A9D786FF303059D70A4
:103BE000EED1644B01221A70009A0123137088E50C
:103BF0004E4A03921278002A7CD0544E3278013A11
:103C0000012A40F2E881484B0093494B0793494B06
:103C1000029365E5079A1278002A00F0C4806A1EB4
:103C2000012A7FF673ADEA1E072A00F2C38260788C
:103C3000CAF800205049002840F033848B78002BCC
:103C40003FF4F7AE4A484D49B02303FB02001A4641
:103C500004F0E8F84A4B01221A73EAE6284619688C
:103C6000FEF7ECF9C7E5FFF7BBF8FFF72DF988E69B
:103C700044490B68444A013382FB0320DA17C2EB44
:103C8000600202EB82029A1A0A60ADE71BF8031089
:103C9000090901312846FEF7D1F95CE5079B244A62
:103CA0001B78002B7AD1029B224A1B78002B75D1FE
:103CB0006378314A002B40F08F829378002B40F0DC
:103CC0005583324F3B78002B00F0AF8430483D7075
:103CD00001F058FB2F4B3D701D60FCF731FD2C4867
:103CE00001F050FB12E52046FDF7F0FB2046FDF702
:103CF00003FCDDE40E4A07921278002A40F0E880C7
:103D00000C4A02921278114E002A00F04B8232784F
:103D1000013A012A40F28A83034B0093E0E400BF9A
:103D20000CA2FF1F348BFF1FD4A1FF1FAD9AFF1FF2
:103D3000BC9AFF1F44A0FF1F7FA3FF1FD4ABFF1F30
:103D40009C8AFF1F48A3FF1F58A3FF1F3C8DFF1F26
:103D50006CA3FF1F789AFF1F74A1FF1F208AFF1F0B
:103D60004C89FF1F44A3FF1F388BFF1F548DFF1F7B
:103D7000C49AFF1F39A3FF1F549AFF1F8C8CFF1F8B
:103D80004C8AFF1F188AFF1F67666666509AFF1FDE
:103D90004CA9FF1F70A3FF1F74A3FF1F1570009A8B
:103DA00001231370B2E4029BBD481B78002B00F086
:103DB000EA80DAF80020BB4BBB4953F82200BB4B2A
:103DC000D1F8008053F82570DFF83CE30499C9F876
:103DD000005000EB800300EB43034FF0B00C0CFBF2
:103DE0000233DFF8D8C208601EF803009CF800C058
:103DF00008EB480107EB810161F306000EF80300B0
:103E0000BCF1000F00F0FD81A94A01231370009A54
:103E100013707BE46B1E012B7FF678ACEA1E072A39
:103E200040F2B9810A2D7FF771AC049A1160A14A62
:103E300001231370009A0370137067E49E499F4B2F
:103E4000027000250D601D70FCF77AFC9C4801F0A3
:103E500099FAA9B200229B48013501F0A9FD1B2D5A
:103E6000F7D106990023012223700A70FEF70EFE97
:103E70003378002B7FF443AEFAE6079B1B78002BC8
:103E800040F0B081029B1B78002B00F084828E4BA7
:103E90001B68002B40F07B838C49EAE6DAF80010BF
:103EA0002846FEF743F964E4894A8A4B3178117059
:103EB00001221A70FEF7EAFD96E6864A117800297B
:103EC0003FF41AAE00211170002B7FF418AECFE63C
:103ED000814E3278013A012A00F25A817F4F3868C8
:103EE000042800F00F84002840F06883DFF824A243
:103EF0007B4DDAF800207B4B224482F30302CAF8A0
:103F000000201B68002B40F00183DAF80020764B7C
:103F1000C2EBC2021344DA7804EB12110629A8BFDF
:103F2000062121EAE17161F30712DA702D68002D94
:103F300040F0C882DAF800706B4BF800C21B991889
:103F40009A5C497801F00F01091902F00F0200F1A3
:103F50009B848A42A8BF0A4602F00F02C01B03449A
:103F600062494F480091597802906148069062F387
:103F7000030159705F4B04935F4B0193009A012337
:103F80001370FFF7B5BBDAF80030DFF888E1C3EB58
:103F9000C3020BEB0207BF797F0700F138816A1E6D
:103FA000012A7FF6B3ABEA1E072A00F2D7826378B4
:103FB000002B00F0F282414B1978002940F0ED828D
:103FC000384DCEF8002045F82210009A01230370E6
:103FD0001370FFF79BBB494A07921278002A7FF4BF
:103FE0007DAF2F4A02921278002A40F01F82424A87
:103FF00001921278002A00F08F80414A106803284D
:1040000000F20884002BC0F26B863A4BDFF804A163
:1040100004933C4B1B68002B40F0C884049BDAF8E7
:10402000002018683849394B00EB800500EB45004B
:10403000B02505FB02054A5D02F07F00204480F3B5
:10404000070060F306024A551B68304D1BB9204635
:10405000FDF73AFF2B68012B00F03484022B40F06F
:10406000FD86049BDAF800201B68294903EB8300D6
:1040700003EB4003B02000FB023319441B4B0093B9
:104080004A7802F03F031C44232CA8BF232424EACF
:10409000E474134664F305034B70154B06936DE708
:1040A00044A0FF1F54A1FF1F44A6FF1F38D90000E2
:1040B00080A1FF1FAC9AFF1F70A3FF1F509AFF1F24
:1040C0004CA9FF1F309AFF1FD0A1FF1F248AFF1F9A
:1040D000348BFF1F0CA2FF1F3C8DFF1FA08AFF1F08
:1040E000A48AFF1FA88AFF1F748DFF1FD4A1FF1F82
:1040F0007FA3FF1F6CA3FF1F789AFF1FBC9AFF1FAF
:104100004C8DFF1F208AFF1FC49AFF1F8089FF1F4D
:10411000CC9AFF1F74A3FF1FA64D2F68204608F0FE
:1041200055FB394608F09EFAA349044608F040FDC5
:1041300000285ED0A04CA14B394620461C6008F0F8
:104140002DFD002840F0098120469D492C6008F093
:1041500091FB9C4B009301469B489C4CDFF8C8A206
:1041600008F03CFC08F072FD994B9A4A18601B68F5
:1041700003EB4303DB001360106808F023FB964950
:1041800008F078FB954B0693954B20600493F5E679
:104190008C4B00933BE5CAF80020009A0123137072
:1041A000FFF7B4BA3278032A3FF6B6ADDFE802F083
:1041B0006368683A0A2D7FF7A9AADAF80030009DF3
:1041C000C3EBC30301201BF80320287061F3030233
:1041D0000BF80320FFF79ABA8249834A01230B7038
:1041E000137726E4814B1B68002B40F0DB8080496D
:1041F0003FE58049204608F0F9FC00289BD07D4C23
:1042000099E77D4B28461968FDF73AFFFCE51BF856
:104210000220794B1209013228461968FDF7D6FEB3
:10422000FFF774BA754D2A68042A00F0DF83654BE6
:104230000093194601230B70012A00F07A81002AAD
:1042400040F083816E4B6F491A68DFF8DCA114449B
:10425000042CA8BF04246FF004008442B8BF0446B5
:10426000A2420C6072D05D4A06921C605C4A664BAA
:104270000492019382E6614B524A00921A68DBE78E
:10428000624B1B68042B00F0EB82002B40F0B985D9
:10429000DFF894A15E48DAF80020224482F303029A
:1042A000C2EBC2010144CAF800208A79520700F12A
:1042B000BB82584B494A1B680692002B40F0E782AC
:1042C000DAF800205249C2EBC20211448A79C2F3E3
:1042D0008000041900F1BD85012C40F3C58542F032
:1042E00004028A710024A1B200224B48013401F07B
:1042F0005FFB1B2CF7D1069A01231370314B0093FF
:10430000374B0493404B019338E63B4B28461968E2
:10431000FDF7B6FEFFF78DBB032D40F0E483DAF81E
:1043200000203B4B27490091C2EBC20213443B499A
:104330000291197901F07F021444642CA8BF64240F
:1043400024EAE4740A4664F306021A71234B0693C6
:10435000234B04932C4B019310E61A4B00931F4BF5
:1043600006931F4BDFF8C0A0049307E6DAF800308D
:10437000C3EBC3035B445A7982F08001C90961F33E
:10438000C7125A71184B0122002900F0C58183F829
:104390002C20FFF74EBB224B1B68002B40F0D8802F
:1043A0001A4966E4012B00F03282022B7FF41CAC28
:1043B0001C495EE4148AFF1F00002042489AFF1F38
:1043C0000000C042D4A1FF1FC0E1644C34A3FF1F12
:1043D000D8A1FF1F78A3FF1F6F12833A7FA3FF1F8F
:1043E0006CA3FF1FAC8DFF1F4C8AFF1FACA5FF1FE6
:1043F000A08AFF1F00009643388BFF1F188AFF1FFB
:1044000044A6FF1F50A3FF1F789AFF1FB08DFF1F08
:10441000748DFF1F588BFF1F309AFF1F44A0FF1F92
:10442000949AFF1FA88AFF1F74A3FF1FBC4D2A6820
:10443000042A00F05D81012ADFF834A300F04781EF
:10444000B84B0493002A40F00082B74AB74811687D
:104450006318042BA8BF04236FF00405AB42B8BF58
:104460002B46B34D0360994218BF13602B681BB9EC
:104470002046FDF729FD2B68012B00F09D81022BC2
:1044800000F07881AB4B0093AB4B0693AB4B0193A1
:1044900074E580F0010060F305178F701046FFF798
:1044A00028BA8978002940F0C480A549A548B023DE
:1044B00003FB02111A4603F0B5FCA34B01221A714B
:1044C000FFF7B7BA012D40F09980DAF800509F4B02
:1044D000E9004A1B98189A5C407802F00F0214EB2E
:1044E000101002F1010200F14D828242A8BF024683
:1044F00002F00F02491B0B448E49954800915978F0
:1045000002908D48069062F3071132E5012B7FF48B
:104510000DADDAF800208D4BC2EBC20213449A793C
:10452000C2F38001214481F3010161F382029A7197
:10453000FCE4884B19680C44002C03DD102C224647
:10454000A8BF10228A4218BF1A60DFF824A2FDE635
:10455000012B7FF449AB8049FFF78BBB0A2D7FF716
:10456000D5A801EB810201EB4201B020744A00FBA7
:10457000031153189A78C2F3011101293FF6C6A816
:1045800081F0010161F305129A70FFF7BFB8012BAA
:104590007FF42AAB6649FFF76CBBA378002B3FF48E
:1045A000FAADC2EBC2025A449379C3F3000181F021
:1045B000010161F300039371FFF7A8B8012840F0EF
:1045C000A381DFF8ACA1614BDAF80000C1000A1A40
:1045D0009A5C02F00F0201322244002A40F39281D9
:1045E000102AA8BF1022013A02F00F02091A5B4DEF
:1045F000585C62F303005854594B82E4022D7FF457
:104600008BAEDAF80020514B4A490091C2EBC2024E
:104610004F49029113449A7802F00F010C4484F33D
:10462000040464F303029A7090E6FEF7D7F8FFF7EC
:104630006DB84C484C4950F822500868404FB021A2
:1046400001FB02F200F07F01059105F07F08B91827
:104650000892FF2003EB8305089A03EB45051544F8
:104660007A1917F805E068F3060E07F805E092F8E6
:1046700002E092F801C0059D6FF3030E82F802E09C
:1046800092F80AE065F3060C6FF3030E82F801C09E
:1046900082F80AE0C870087148718871C87192F890
:1046A00008E04FF0640C6CF3060E02F1080582F886
:1046B00008E0527A01336FF30502102B01F10B0170
:1046C0006A70C7D1204B01221A75FFF7B2B9002BCF
:1046D00040F3BE80DAF80000FDF796FB2A68234B12
:1046E000DAF800100F4853F8213004900360A9E66F
:1046F0000F4D2B68042B00F047810A4ADFF870A0A9
:104700000492B4E6154D2B68042B00F06481DFF8A9
:1047100060A0134BFFF7F5BB83F82420FFF789B99E
:10472000248AFF1F6CA3FF1F44A6FF1F50A3FF1F77
:10473000408DFF1FD4A1FF1F7FA3FF1F789AFF1F8B
:10474000C49AFF1F8C8CFF1F4C8AFF1F748DFF1FA4
:1047500044A0FF1F4C89FF1F588BFF1FA48AFF1F17
:10476000A88AFF1F548DFF1F388BFF1F54A1FF1F06
:1047700074A3FF1F049BDAF800201B68B64903EB03
:10478000830003EB4003B02000FB02331944B34B1A
:1047900000934A7802F03F031C44232CA8BF232433
:1047A00024EAE474134664F305034B70AC4B0693A0
:1047B000AC4B0193FFF7E2BB049BDAF800201B68C7
:1047C000A94903EB830003EB4003B02000FB023355
:1047D0001944A24B00930A7A02F07F031C44642C14
:1047E000A8BF642424EAE474134664F306030B723E
:1047F0009B4B06939B4B0193FFF7C0BB012B00F033
:104800000181022B7FF4F0A99849FFF732BA984949
:10481000FFF72FBA0428974B2CD0974ADFF88CA2C9
:104820001B680492FFF7F7BB1D46A9B2002293480C
:10483000013501F0BDF81B2DF7D1894B06931946C0
:104840008F4B01220A701B6837E58E4D2B680EE6F0
:104850003FF445AFDAF80000FDF7F4FA2A683EE7C6
:10486000874B1B68042B00F011837D4ADFF83CA2C4
:10487000069222E51B68042B00F0FE827E4ADFF8D8
:104880002CA20492FFF7C7BB2A46FFF767BB012B98
:1048900000F09782022B00F07B82032B7FF42EAD79
:1048A000DAF8002078496D4B00938B5C234483F346
:1048B000010303F001038B546F4B0493694B019385
:1048C000FFF75CBB049BDAF800201B68664903EB2A
:1048D000830003EB4003B02000FB023319445F4B1D
:1048E00000930A7A02F07F031C44642CA8BF64245E
:1048F00024EAE474134664F306030B72584B0693E0
:10490000FFF73CBB002271E6022840F0A2805F4D19
:10491000DFF898A12A68002BACBF01214FF0FF31CE
:104920000A4402F10F031E2B2A6005D8DAF80000B2
:10493000FDF774FF38682A68DAF800305449C3EB91
:10494000C303CB5C03F00F030133C3F101019142B8
:104950004ADC013B9342A8BF13462B60032840F07A
:10496000A882DAF800304A48414DC3EBC303C25C69
:1049700004EB121181F3040161F30712C254454B99
:10498000FFF7BFBA0022B5E5434A344B00931368E2
:1049900033490691234483F301031360364B049398
:1049A000304BDFF808A10193FFF7E8BA012B2CD1B7
:1049B0003A4A3B4811686318042BA8BF04236FF0E0
:1049C0000405AB42B8BF2B469942036018BF136081
:1049D000344BFFF739BB2F4B1A68042A00F06D8265
:1049E000DFF8C8A0FFF78DBA0B46B6E7002B27DB30
:1049F0003FF41DAC2C4B7F211A681C20FBF74AFFAB
:104A00002A6814E42749FFF734B9022B50D1049BDC
:104A1000DAF800201B68144903EB830003EB400322
:104A2000B02000FB023319441E4B4A7802F07F008D
:104A3000204480F3070060F306024A70FFF704BBCE
:104A4000194B00211A681C20FBF724FF2A68FFF786
:104A5000EEBBDFF858A081E7CC9AFF1FD4A1FF1F5F
:104A60007FA3FF1F789AFF1FC49AFF1F4C8DFF1F63
:104A7000A48AFF1F208AFF1F6CA3FF1F309AFF1F0D
:104A8000588BFF1F408DFF1F448DFF1F7CA1FF1F10
:104A9000748DFF1FA88AFF1FD0A1FF1F44A6FF1F10
:104AA00050A3FF1F8089FF1F4C89FF1F74A3FF1FA6
:104AB000032B8DD1049BDAF800201B68964903EB89
:104AC000830003EB4003B02000FB02331944934BF7
:104AD0008A7802F00F00204480F3040060F30302A0
:104AE0008A70FFF7B1BA8E4B00938E4B02932DE480
:104AF0008D4C2378002B61D18C488D4903681E931F
:104B00008C4A1E9B096812685B1A9A4256D2036847
:104B10001F931F9B1432591A8A424FD9DAF800307A
:104B2000854A0099C3EBC303134401229B790A70A1
:104B30005A0765D4039B1B78002B69D07F4B1B68F9
:104B4000002B00F08380012B00F0A880022B00F0E6
:104B50009F80079B1B78002B6ED1029B1B7833B183
:104B6000774B1B68002B79D0012B00F09F80009BB6
:104B70001B784BB913E0FCF71BFE009B1B7873B14D
:104B8000694B187800283ED0684C6E4D23682093FE
:104B90006D4A209B296812685B1A9A4225D3069BAE
:104BA0006A4C1B78DBB9FBF7DBFD0028FBD1FCF777
:104BB000F7FA0028FBD123B0BDE8F08FDAF8003017
:104BC0005D4AC3EBC30313449B795B0718D4009B76
:104BD0001B78002BE3D02378002BD5D1AAE75C48C3
:104BE00000F004FE00232370DDE75A4802F03EFD8A
:104BF00023682193219B009A2B6000231370CEE73A
:104C0000FCF7D6FDE3E7544B1968FEF799FAAEE7D7
:104C1000079B1B7883B9029B1B78002B9DD14F4BC0
:104C20001B68002B4AD0012B54D0FDF7EFFE039BED
:104C30001B78002B8DD081E7494B1B68B3B1012B4A
:104C400020D0022B18D0FDF7E1FE86E7454B04206B
:104C50001968FEF775FA079B1B787CE7424B092021
:104C60001968FEF76DFAFDF7D1FE80E73F4B06208D
:104C70001968FEF765FAE6E73D4B08201968FEF76C
:104C80005FFAE0E73B4B07201968FEF759FADAE7CD
:104C9000394B03201968FEF753FA5AE71F4B0520DA
:104CA0001968FEF74DFA079B1B7854E7334B052034
:104CB0001968FEF745FAFDF7A9FE58E7304B0120C9
:104CC0001968FEF73DFAB0E70C920D9208920B922C
:104CD000FEF717BE2B4B02201968FEF731FAA4E746
:104CE000294B0493DFF8A4A01B68DAF800200A49D6
:104CF00003EB830503EB4503B02505FB02331944A1
:104D00000B18FF22DA70FFF784B9079B1A469DF84B
:104D10002C301370FEF704BEC49AFF1F8089FF1F5A
:104D2000D4A1FF1F44A0FF1F0CA2FF1FD4ABFF1F85
:104D3000709AFF1F848CFF1F748DFF1F74A1FF1FCB
:104D4000D0A1FF1F48A3FF1F9C8AFF1F7FA3FF1F47
:104D5000309AFF1FB898FF1F188AFF1F949AFF1FF1
:104D6000ACA5FF1F208AFF1F248AFF1FA08AFF1FF8
:104D7000A88AFF1FA48AFF1F4C8DFF1F408DFF1FB5
:104D8000B08DFF1F588BFF1F6CA3FF1F74A3FF1F65
:104D9000DAF80020844B85490091C2EBC20213442B
:104DA000DA7804EB1214062CA8BF062424EAE47473
:104DB00064F30712DA707E4B04937E4B0193FFF786
:104DC000DDB8DAF80000784BC1000A1A9A5C02F0EC
:104DD0000F0201321444002C5ADD102C2246A8BFC9
:104DE0001022013A02F00F02091A70480090585C34
:104DF00062F3030058546E4B04936E4B0193FFF71C
:104E0000BDB8012B66D1DFF804A26B49DAF8003097
:104E1000B02505FB03F55FFA84FE002303EB830254
:104E200003EB42022A440133885CC0F3060777444F
:104E300067F30600102B8854F0D16049604B0A6874
:104E40001B68224402F306020A605E4A0692FFF7DC
:104E500034BA63F382028A71FFF750BA534B00935E
:104E6000584B0693FFF78AB864F382028A71002CCC
:104E70003FF444AAFFF736BA534B1A68042A09D004
:104E80004B4ADFF888A10492FFF7DEB84F4A7CE571
:104E90000022A9E74E49DFF874A10A682244022AD9
:104EA000A8BF022222EAE2720A60414A0492FFF796
:104EB000CBB8484D484BFFF724B84849DFF84CA120
:104EC0000A682244022AA8BF022222EAE2720A6089
:104ED000FFF717B8022B1BD1DFF830A1324ADAF8FE
:104EE00000303F49C3EBC3031A44507900F07F03FD
:104EF0002344632BA8BF632323EAE37363F3060011
:104F000050712F4A0B7013682E4A0692FFF7D5B9DD
:104F1000032B1BD1334DD5F80080204607F056FCFB
:104F2000414607F09FFB3049074607F041FE002845
:104F300037D12E49384607F059FE00B12B4F2C4B84
:104F4000414638461F6007F029FE38B11C4B1D4A08
:104F5000DFF8B8A01B680692FFF7AFB925492F60AC
:104F6000384607F087FC01462348244DDFF89CA013
:104F700007F034FD07F06AFE214B224A18601B68D7
:104F800003EB4303DB001360106807F01BFC1E49B2
:104F900007F070FC0A4B0B4A28601B680692FFF76B
:104FA0008CB9114FCBE700BF748DFF1FD4A1FF1F39
:104FB0006CA3FF1F789AFF1FC49AFF1F889AFF1FD8
:104FC000588BFF1F7FA3FF1F8089FF1F949AFF1F2D
:104FD00074A1FF1FA48AFF1FA88AFF1FACA5FF1F93
:104FE0000DA2FF1F148AFF1F0000204200009643FD
:104FF000489AFF1F0000C042C0E1644C34A3FF1F69
:10500000D8A1FF1F78A3FF1F6F12833A74A3FF1F5D
:1050100070B5184D82B0284602F01CFAB5F90C1094
:1050200001291FDD0022012694B2630068890196E0
:105030009BB2C91A09B2C31A1BB200910D4811469E
:1050400001F0ECFA0B4802F011FB012003F04AFDDD
:10505000B5F90C10023401EBD17322B243F34F03C4
:105060009342E1DC4FF4FA7002B0BDE8704003F007
:1050700039BD00BFB898FF1F2DE9F0477F4A804B2C
:105080001268804D804C814F814E82B00192019A0E
:105090001A6003F005FD7F4B186003F001FD7E4AA6
:1050A0007E4B10607E49186807F0E4FB01467D489E
:1050B00007F094FC07F0CAFD7B4B7C4A18601B6824
:1050C00003EB4303DB001360106807F07BFB7849B8
:1050D00007F0D0FB286003F0E3FC206003F0E0FC65
:1050E000744BD4F800E0186002250023C3EBC30220
:1050F000324407EB0311D478C1F804E0013365F3BF
:105100000714082BD4708860F0D10D2003F06AF8E2
:1051100005F07AF80D2003F031F80024DFF8D08193
:10512000654FDFF8D0A14FF084492646382005F0BE
:105130007DF85F4B01220021054600F01BFD4AF877
:10514000246001344FF40053052C48F8045BC5F883
:10515000109047F8046B6B60E8D1FBF78BFA0121E4
:10516000172003F097FC554C554D0C23184623701F
:1051700003F06CFC207806F029FF02460B46002065
:105180004FF0804105F024FD07F046FA4D4B288092
:105190004022002128201A6003F05AFBFDF768FE28
:1051A000002868D14849494A494B0860494E0221C4
:1051B00011700127152516241720182107223760A2
:1051C0001D605C609860D9601A61FDF799FD424CE2
:1051D000424DFBF76FF92846A56002F03BF9FFF757
:1051E00017FFC82003F07EFC284602F033F904F1D3
:1051F0000800012100F0FCFF002104F1080000F08C
:10520000F9FFFDF7D7FC364800F0E2F9354800F029
:1052100099FA344800F0EAFA3221324800F06CFC86
:105220000024A1B2304A2F4800F0C2FB2D4800F004
:10523000DDFA0134052003F055FC1B2CF1D10520CB
:10524000FDF78EFC4FF4FA7003F04CFC002223466D
:105250001146244800F0B2FB224800F0C7FA64204F
:1052600003F040FC1D4802F001FA204B01221A70A5
:1052700002B0BDE8F087FDF74DFEA8E7D4ABFF1FF5
:10528000709AFF1F34A3FF1FA8A5FF1FC4A5FF1F0F
:10529000748DFF1F4CA3FF1F909AFF1F148AFF1FDE
:1052A0000000C042C0E1644CD8A1FF1F78A3FF1FDB
:1052B0006F12833A30A3FF1F94A3FF1FCCA0FF1FE0
:1052C0007CA3FF1FC09AFF1F74A3FF1F3C8DFF1F0D
:1052D0005089FF1F4C89FF1F84A1FF1FB898FF1F33
:1052E00010A2FF1F309AFF1F80808000D4A1FF1FF3
:1052F000F8A1FF1F80A3FF1FF0B400259DF81070D8
:105300002C4602E00134202C10D0465D1435002ECE
:10531000F8D104EB8404A40006190125055528469C
:1053200071603361B2603773F0BC70470020F0BC2D
:10533000704700BFF8B50E4600F1100400F5247563
:10534000002702E01434AC4215D014F8103C002BB6
:10535000F8D02368B342F5D854F8082C54F80C0C54
:105360000021FBF76FFA14F8043C2BB904F8107C09
:105370001434AC42E9D1F8BD0021172003F076FBCC
:10538000F4E700BF4FF0FF31FFF7D4BFF0B40025C2
:105390009DF814702C4602E00134202C12D0465D9A
:1053A0001835002EF8D104EB4404E4000619012559
:1053B00005557160049971612846B360F2603774D5
:1053C000F0BC70470020F0BC704700BF2DE9F041F1
:1053D0000E4600F1140400F54575002702E018346C
:1053E000AC421BD014F8143C002BF8D02368B34215
:1053F000F5D854F80C2C54F8081C54F8100CFBF792
:10540000F9F914F8043C23B154F8100C1838352875
:1054100006D904F8147C1834AC42E3D1BDE8F0811D
:1054200007F0D4F9084907F025FA05F0ADFB012192
:105430008046172003F01AFB404607F0E1FB0146C7
:10544000282003F005FAE4E790759242002308490A
:105450001A46CA541433B3F5207FFAD10023054904
:105460001A46CA541833B3F5407FFAD1704700BFCB
:105470004CA9FF1F4CA6FF1FF8B504460E46154663
:1054800000214FF4807210301F4607F04DFF069B3D
:10549000C4F818310022079BC4F81021266065600B
:1054A000A760C4F81C31E260C4F814212046F8BD9E
:1054B00010B50446C06808B107F076FC204610BD60
:1054C0002DE9F843D0F81C31002B7EDD0446002581
:1054D000A3680121585D03F0C9FAD4F81C310135E5
:1054E000AB42F5DC002B6EDD0026B0460127A36839
:1054F0000021985D03F0BAFA4FF44873013BFDD1E7
:10550000D4F81831002BC8BF4FF000092EDC4EE054
:10551000990724D5D4F81011D4F814010131C9B277
:1055200003F0FD03814243F0080306D0D4F81001D4
:10553000204480F81080C4F81011D4F81001D4F879
:1055400014110130C0B2884209D0D4F8101104EB14
:10555000010E2168495D8EF81010C4F810015355F2
:10556000D4F8183109F101094B4520DD6368D4F8FE
:105570001C5113F8090003F07FFA05FB0965E26886
:10558000535DDBB20028C3D19807E8D4D4F81011DA
:10559000D4F814010131C9B2814243F00603CCD0E2
:1055A000D4F8100120440774C4F81011C5E7A368AB
:1055B0000121985D03F05AFAD4F81C310136B34248
:1055C00095DCBDE8F883BDE8F883BDE8F88300BF4B
:1055D00070B5D0F81851D0F81C610446012106FBC3
:1055E00005F007F053FB002EE060C8BF002510DD7A
:1055F000A3680121585D03F04DFAA3680121585DAD
:1056000003F034FAD4F81C310135AB42F0DCD4F8A5
:105610001851002DC8BF00250ADD63680221585DBE
:1056200003F038FAD4F818310135AB42F5DC70BD1F
:1056300070BD00BFD0F81031D0F814011B1A4CBF58
:1056400003F5807018464010704700BFD0F8142151
:10565000D0F810319A4220D0D0F81421D0F814316B
:1056600002440133DBB2117CC0F81431D0F81421AC
:10567000D0F810319A4218D0D0F81421D0F8143153
:1056800002440133127CDBB2C0F814314FF0000049
:1056900062F3070061F30F207047D0F81421D0F8AF
:1056A00010319A424FF0FF01E6D1FF224FF0000087
:1056B00062F3070061F30F20704700BF037AF0B573
:1056C000160C150AF6B2EDB25FFA82FE5BB103FB6F
:1056D00006F603FB05F503FB0EFEC6F30726C5F32E
:1056E0000725CEF3072EC77C047CBC4214D0C468C7
:1056F00004EB8101120E0F444BB9D3B23B70077C0F
:10570000CE55437CCD54837C01F803E0F0BD03FB10
:1057100002F3C3F30723F1E7C36801EB4101194426
:10572000EEE700BF10B50446C06807F03DFBB4F9D2
:105730000600002803DBC0B2002103F0ABF92046CD
:1057400010BD00BF10B50446B0F90600002807DB05
:10575000C0B2012103F09EF90021A07903F086F97F
:105760000123637010BD00BF38B50446C0680D4604
:1057700007F01AFBE37C207C83420CBF032004204B
:1057800010FB05F080B2A080012107F07FFAE060F5
:1057900008B1658038BDA080608038BDF0B4077C5A
:1057A000C47CC568C1F38106FF29A4EB0704C1F3DB
:1057B000811201F003074674B4FA84F48CBF00260A
:1057C0000126C1F30111C274640987740670017463
:1057D0004DB1511AB1FA81F14909A14203D0418872
:1057E000F0BCFFF7C1BFF0BC704700BF2DE9F84324
:1057F000C368002B57D04569044603F051F9854230
:1058000002D903F04DF9606103F04AF96569401B64
:10581000B0F5967FF1D372B64649B4F906500B68DD
:105820004548464A50F83500E668A788257843F091
:1058300080730B60136843F0010337441360A5B312
:10584000A1F55D41F8390A68BE4202F196021FD205
:1058500089464FF0010C16F8018B4FF0080E802599
:105860000B689B1A952BFBD918EA050FD9F8002075
:1058700080F880C055D00B689B1A5F2BFBD9BEF116
:10588000010E80F800C14FEA5505E9D1B742E2D1D7
:105890002B490B689B1A952BFBD962B603F000F9D4
:1058A0006061BDE8F883BDE8F88325490A68BE4217
:1058B00002F5967220D289464FF0010C16F8018B42
:1058C0004FF0080E80250B689B1AB3F5967FFAD32C
:1058D00018EA050FD9F8002080F880C018D00B68AE
:1058E0009B1A8F2BFBD9BEF1010E80F800C14FEA45
:1058F0005505E8D1B742E1D111490B689B1AB3F5C0
:10590000967FFAD362B603F0CBF86061BDE8F88306
:105910000B689B1A3B2BE6D80B689B1A3B2BF7D9DD
:10592000E1E70B689B1A1D2BA9D80B689B1A1D2B4E
:10593000F7D9A4E7FCED00E0042A0100001000E024
:10594000041000E038B543786BB10446B0F90600A6
:1059500000280D4609DBC0B2002103F09BF86378F4
:10596000E5801BB938BDC18038BDE180EDB2284665
:10597000012103F08FF828460021BDE8384003F0EC
:1059800075B800BF70B5002504460E46457019462F
:105990000572C56045611546FFF700FF3146204698
:1059A000FFF7E2FE20462946FFF7CCFF204670BDF8
:1059B00043888B4201D9FFF781BE7047F8B5144682
:1059C0004288A24215D906460F469BB91546134692
:1059D00004E00134A4B2AC420BD27388A342F8D9DC
:1059E000214601343A463046A4B2FFF767FEAC4286
:1059F000F3D3F8BDE518ADB2954228BF1546AC42C9
:105A0000E5D3F8BD40F2FA5303FB00F000F5004087
:105A10000014B0F5FF7F10B422DAFE2844DDC0F197
:105A2000FE034C1CDBB204FB03F3C4EB04241B1287
:105A300024120020C943C9B201320C440B4408446B
:105A400002FB04F402FB03F304F47F441B0202FB99
:105A500000F244EA122003F47F03184310BC70479D
:105A6000B0F57F7F84B20DDAB4F53F7F26D8831C72
:105A70004C1CDBB204FB03F3C4EB04241812241205
:105A80000023D7E79C4225D040F2FA439C4228D914
:105A9000C0F1FA004B1CC0B203FB00F0C3EB0323C0
:105AA00000121B120024C5E74B1CC0B203FB00F020
:105AB000C3EB032304121B120020BBE7C0F1FC0060
:105AC0004B1CC0B203FB00F0C3EB032304121812FB
:105AD0000023AFE74B1CC3EB032300201B1204463B
