:1000000000000320D101000035860000ED850000CE
:10001000ED850000ED850000ED850000ED85000018
:10002000ED850000ED850000ED85000035860000BF
:1000300035860000ED850000E5A00000E9A0000085
:1000400035860000358600003586000035860000C4
:1000500035860000358600003586000035860000B4
:1000600035860000358600003586000035860000A4
:100070003586000035860000358600003586000094
:100080003586000035860000358600003586000084
:100090003586000035860000358600003586000074
:1000A000497E0000557E0000358600003586000040
:1000B000358600003586000035860000F1AA000074
:1000C0003586000035860000358600003586000044
:1000D0003586000035860000358600003586000034
:1000E0003586000035860000358600003586000024
:1000F0003586000035860000358600003586000014
:100100003586000035860000358600003586000003
:1001100035860000C98F0000358600003586000056
:1001200035860000358600003586000035860000E3
:1001300035860000358600003586000035860000D3
:1001400035860000358600003586000035860000C3
:1001500035860000358600003586000035860000B3
:100160003586000035860000617E0000358600007F
:100170003586000035860000358600003586000093
:100180003586000035860000358600003586000083
:100190003586000035860000358600003586000073
:1001A0003586000035860000358600003586000063
:1001B0003586000035860000358600003586000053
:1001C0003586000035860000358600003586000043
:1001D0005C4B4CF2205210B51A804DF628121A8052
:1001E00000BF00BF08F02AFA574B4FF030621A6088
:1001F000564A9A60564ADA60564B4FF470021A60BB
:10020000554B564A1A60564B1A78110703D51A787F
:1002100042F008021A70534B5349AA221A70534AEB
:10022000534B8B4204D252F8040F43F8040BF8E707
:10023000504B514900228B4202D243F8042BFAE77B
:100240004E494F4A002352F8230041F8230001335E
:10025000742BF8D14B4B4C4A802103F8011B93427D
:10026000FBD14A4B454A1A60494B8A221A70A3F5C2
:10027000805324225A70A0221A709A799207FCD5D2
:100280009A79D406FCD4434A937903F00C03082BE3
:10029000FAD1414B60221A7002331A78802AFCD1BD
:1002A0003C4B01221A715D225A719A799006FCD555
:1002B0009979384A4906FBD5384B394919600021EC
:1002C000596020231370937903F00C030C2BFAD19F
:1002D000344B354A1A60354A354C136813F4807331
:1002E00003D123604FF4A8531360324B324A1A6093
:1002F00000225A60072243F8042C304AC3F80C2D20
:1003000062B608F0C1FC2368DA0705D52C4808F06E
:1003100069FA2C4B2C4A1A602C4B1B785B0609D5CA
:10032000284C294B22689A4204D1254808F05AFAF1
:10033000002323600CF0F6FA08F086F909F0B4FF08
:10034000FEE700BF0E20054030800440823F0400DD
:100350000100002B88ED00E0002008E0030000858C
:1003600002D0074000E00740441BFF1F682901003E
:10037000400CFF1F441BFF1F3832FF1F0002FF1FEE
:100380000000000000E400E064E400E008ED00E0AC
:10039000005006400040064001E007404480044011
:1003A0000000060204800440C010070010D0034083
:1003B00014D0034014E000E01FBF02000000202022
:1003C000D9FDDD601CE00340A5C3945A00F007404E
:1003D000FFFFFFFFFFFFFFFFFFFFFFFFFFFFFFFF2D
:1003E000FFFFFFFFFFFFFFFFFFFFFFFFFFFFFFFF1D
:1003F000FFFFFFFFFFFFFFFFFFFFFFFFFFFFFFFF0D
:10040000FFFFFFFFFFFFFFFFFFFFFFFFDEF9FFFF23
:1004100010B5054C237833B9044B13B10448AFF33E
:1004200000800123237010BD441BFF1F000000004B
:1004300064290100084B10B51BB108490848AFF307
:1004400000800848036803B910BD074B002BFBD0A0
:10045000BDE81040184700BF00000000481BFF1F08
:1004600064290100441BFF1F0000000010B584B088
:100470000A4C0B4B02930B4A01924FF0FF3300934F
:100480002046094B2022802106F0A4FC074A084997
:10049000204604B0BDE810400BF072BD601BFF1F8A
:1004A000801A060040420F003C11FF1F400CFF1F46
:1004B0002D6E000030B5094C83B001252046009513
:1004C0002B463C22022106F01BFE20460221A57687
:1004D00003B0BDE8304005F0CFBF00BF601BFF1F79
:1004E00070B5CEB2044680E80600D5B2304602218F
:1004F00008F04EFB0221284608F04AFB304608F07F
:1005000039FBA060284608F035FB0023E06023613A
:100510006361204670BD00BF30B5044683B00078EB
:1005200008F028FB0546207908F024FBA3689D42CB
:10053000E36824D0984231D0A560E060ADB1A0B1AD
:100540002369012B37DD0023236101221E4B6169E2
:100550001B680193019B63615B1A132B32D9312B0A
:100560008CBF002301231BB201E00022134692B28C
:10057000002062F30F0063F31F4003B030BD9842C8
:10058000F3D02369A56085420CBF01224FF0FF32F2
:1005900013442361E060002DE7D0D0E72369A56014
:1005A000854214BF01224FF0FF3213442361E06003
:1005B000002DDAD0C3E7002201332261D5DA4FF0F3
:1005C000FF32C3E70223D2E77C2EFF1F10B504469B
:1005D0000160C8B2022108F0DBFA00234FF0FF31BE
:1005E000032261602273A3602361204610BD00BF17
:1005F00010B5044682B0007808F0BCFA63689842EF
:100600001A4B08D01B680093009B60603233A360D4
:10061000002002B010BD1B680193A268019B9A42A2
:1006200009D8217B4A1E032A05D8DFE802F00F0211
:100630000707012818D0002002B010BD0028FAD109
:1006400003F2E243012023612073E2E730B1012885
:10065000F1D1032088422073DBD1ECE722699A4272
:10066000E9D202202073D4E70420F3E77C2EFF1F99
:10067000704700BF10B5184C636D1868036882B0EE
:10068000DB6947F612219847144B1B680193012040
:10069000019BC4F8003100FA00F200234FF6FF710D
:1006A000024384F8580084F8702084F85A3084F8A3
:1006B00059306366236684F8F83084F8753084F81E
:1006C000743084F8763084F87730C4F8FC30A16652
:1006D000E16602B010BD00BFC81BFF1F7C2EFF1FCC
:1006E00010B54FF60F0009F027FA044B5B6D186840
:1006F0000368F8211B68BDE810401847C81BFF1F9E
:1007000010B54FF60F2009F017FA044B5B6D18680F
:100710000368FA211B68BDE810401847C81BFF1F7B
:1007200010B54FF60F3009F007FA044B5B6D1868EF
:100730000368FB211B68BDE810401847C81BFF1F5A
:1007400010B54FF60F4009F0F7F9044B5B6D1868D0
:100750000368FC211B68BDE810401847C81BFF1F39
:1007600008B5002009F04CFA003018BF012008BD80
:100770002DE9F041E0290C469DF8185008D8013DBC
:10078000EDB20F2D02D849B2002912DBBDE8F0818D
:10079000F729FBD90834E4B2012303FA04F414F076
:1007A000DD0FF3D0436D18680368BDE8F0411B68A6
:1007B00018471F46436D8046186803682943C9B22D
:1007C0001B6816469847D8F854301868036806F036
:1007D0007F011B6804F0EF049847C02CD6D0D8F8EE
:1007E00054301868036807F07F011B68BDE8F041CA
:1007F000184700BF2DE9F0415FFA82F80C0608F1B6
:10080000FF3504F0FE4444F410442D02064605F47E
:10081000706544F00904000482B02C4300F4FE002B
:100820000F46204309F088F9CDF80080FBB2F2B200
:1008300090210348FFF79CFF02B0BDE8F08100BFA4
:10084000C81BFF1F2DE9F0415FFA82F80C0608F182
:10085000FF3504F0FE4444F400442D02064605F43E
:10086000706544F00804000482B02C4300F4FE00DC
:100870000F46204309F060F9CDF80080FBB2F2B2D8
:1008800080210348FFF774FF02B0BDE8F08100BF8C
:10089000C81BFF1F2DE9F0415FFA82F80C0608F132
:1008A000FF3504F0FE4444F430442D02064605F4BE
:1008B000706544F00B04000482B02C4300F4FE0089
:1008C0000F46204309F038F9CDF80080FBB2F2B2B0
:1008D000B0210348FFF74CFF02B0BDE8F08100BF34
:1008E000C81BFF1F036810B504460BB1743098474E
:1008F00094F87530803B7F2B00F28580DFE813F0A1
:100900008A008300830083008300830083008300C8
:1009100083008300830083008300830083008300BF
:10092000960083008300830083008300830083009C
:10093000830083008300830083008300830083009F
:100940009A00830083008300830083008300830078
:10095000830083008300830083008300830083007F
:100960009E00830083008300830083008300830054
:10097000830083008300830083008300830083005F
:10098000A200830083008300830083008300830030
:10099000830083008300830083008300830083003F
:1009A000AC00830083008300830083008300830006
:1009B000830083008300830083008300830083001F
:1009C000B0008300830083008300830083008300E2
:1009D00083008300830083008300830083008300FF
:1009E000C4008000D100E10083008300E90083009F
:1009F000ED00F100F500F900FD0083000101840025
:100A0000A36A002B60D110BD236D002BFBD0BDE885
:100A100010401847A368002BF5D094F8772094F87D
:100A2000761094F87400BDE810401847E368002B76
:100A3000F3D1E8E72369002BEFD1E4E76369002BEA
:100A4000EBD1E0E7A369002BDDD094F8761094F8A1
:100A50007400BDE810401847E369002BF5D1D2E7D8
:100A6000226A002ACFD094F8771094F8763094F860
:100A70007400C90101F47E5103F07F031943A1F50D
:100A80000051BDE810401047636A002BBBD0B4F89A
:100A90007610802904F1780028BF8021BDE810403D
:100AA0001847E26A002AAED094F8773094F87600BE
:100AB000DB0103F47E5300F07F001843BDE81040D3
:100AC0001047236B002B9ED094F87600BDE81040B1
:100AD0001847636B002B9AD195E7A36B002B96D137
:100AE00091E7236C002B92D18DE7E36B002B8ED125
:100AF00089E7636C002B8AD185E7A36C002B86D134
:100B000081E7E36C002B82D17DE700BFF8B5436D30
:100B10000446186803681B69984708B90020F8BDA7
:100B200094F80D31626D23F0010384F80D311068E3
:100B300003685B699847C3B2FD2BEFD0626E002A51
:100B400049D001067ED494F85B10F0295FD0F729D4
:100B50005DD0A11881F85B30216E4B1E9A4253D3B1
:100B600094F85B30F02B00F00A82F72B00F007823C
:100B70001A0650D4002284F87520B02A5CD0A02A2E
:100B80005AD0D02A58D0E02A56D0C02A54D00020BB
:100B900084F87400032994F85C0008BF94F85D5051
:100BA00084F8760018BF002500210120B02A84F8BF
:100BB00077506166216684F8F80008D000F2D5818C
:100BC000902A04D0A02A02D0802A00D0002384F8E2
:100BD00059300120F8BD94F8592084F85B3015068F
:100BE0004DD440B20028C0F20E8294F90D01636822
:100BF00040F0010084F80D0103B19847002084F80B
:100C0000590060662066F8BD0132626686E7A11869
:100C100081F87830A0E703F10C02D2B2012AA9D9F9
:100C2000FD2BA7D0EF2B00F2EC8103F0F002802A1D
:100C300084F8752040F0EF8103F00F00013084F854
:100C40007400A7E7A3F1F0010F293FF67CAF012064
:100C500000FA01F111F0810540F0B18111F45F4F0C
:100C60003FF471AF84F8765084F8775084F874506C
:100C700084F87530C4F8FC0084F8F800F8BD02F17F
:100C80000C01CDB2012DACD9FD2AAAD0EF2A00F279
:100C9000578102F0F006802E40F0538140B20028C8
:100CA000A0DB0120C9B2814284F85B2084F85C306B
:100CB00060669AD9FD2A98D0EF2A94BF02F0F00519
:100CC0001546A5F180037F2B8FD801A151F823F0A1
:100CD000390F0000EB0B0000EB0B0000EB0B0000EA
:100CE000EB0B0000EB0B0000EB0B0000EB0B00002C
:100CF000EB0B0000EB0B0000EB0B0000EB0B00001C
:100D0000EB0B0000EB0B0000EB0B0000EB0B00000B
:100D1000390F0000EB0B0000EB0B0000EB0B0000A9
:100D2000EB0B0000EB0B0000EB0B0000EB0B0000EB
:100D3000EB0B0000EB0B0000EB0B0000EB0B0000DB
:100D4000EB0B0000EB0B0000EB0B0000EB0B0000CB
:100D5000390F0000EB0B0000EB0B0000EB0B000069
:100D6000EB0B0000EB0B0000EB0B0000EB0B0000AB
:100D7000EB0B0000EB0B0000EB0B0000EB0B00009B
:100D8000EB0B0000EB0B0000EB0B0000EB0B00008B
:100D9000390F0000EB0B0000EB0B0000EB0B000029
:100DA000EB0B0000EB0B0000EB0B0000EB0B00006B
:100DB000EB0B0000EB0B0000EB0B0000EB0B00005B
:100DC000EB0B0000EB0B0000EB0B0000EB0B00004B
:100DD000310F0000EB0B0000EB0B0000EB0B0000F1
:100DE000EB0B0000EB0B0000EB0B0000EB0B00002B
:100DF000EB0B0000EB0B0000EB0B0000EB0B00001B
:100E0000EB0B0000EB0B0000EB0B0000EB0B00000A
:100E1000310F0000EB0B0000EB0B0000EB0B0000B0
:100E2000EB0B0000EB0B0000EB0B0000EB0B0000EA
:100E3000EB0B0000EB0B0000EB0B0000EB0B0000DA
:100E4000EB0B0000EB0B0000EB0B0000EB0B0000CA
:100E5000390F0000EB0B0000EB0B0000EB0B000068
:100E6000EB0B0000EB0B0000EB0B0000EB0B0000AA
:100E7000EB0B0000EB0B0000EB0B0000EB0B00009A
:100E8000EB0B0000EB0B0000EB0B0000EB0B00008A
:100E9000EF0E0000310F0000390F0000310F00008D
:100EA000EB0B0000EB0B0000D10E0000EF0E00007A
:100EB000D10E0000D10E0000D10E0000D10E0000B6
:100EC000D10E0000EB0B0000D10E0000D10E00008F
:100ED0000023012084F8743084F8763084F8773069
:100EE00084F875506366236684F8F800F8BD8021A5
:100EF0000023216684F8785084F859307F21636E8E
:100F00008B422ED302F00F020023013294F85C10C2
:100F100084F87420012084F8761084F8773084F8FF
:100F2000755063662366C4F8FC0084F8F800F8BDC9
:100F3000022323660121E2E7032323660221DEE781
:100F4000164606F0DF05902D3FF4A8AE06F0BF056B
:100F5000A02D3FF4A3AE06F0EF06C02E3FF49EAEE8
:100F60003FE6013363660020F8BDD02A3FF42FAE80
:100F7000E02A3FF42CAEC02A7FF428AE27E6F02208
:100F800080230025012194F8F76084F8752084F807
:100F9000763084F8F720C4F8FC30204684F8775087
:100FA00084F8745084F8F810FFF79CFCF7220223B1
:100FB00084F8796084F8782028466366F8BD94F850
:100FC0007810F02902D0F7297FF40FAE551C224487
:100FD00000214FEA152E82F878300126F02784F898
:100FE000765084F877E084F8741084F8591030460D
:100FF000C4F8FC5084F875706166216684F8F86066
:10100000F8BD1A46B7E503F10C02D2B2012A7FF609
:10101000ECAD1A4650E6902A3FF40EAEADE500BFA7
:1010200090F87030DA0718D513F0FE0F15D070B5B0
:1010300090F8755085F08002602A82B004460DD881
:1010400090F874608E4231D081B35B08012B32D0AE
:10105000032B00F09B8002B070BD7047A5F1F00338
:101060000F2BF8D801A252F823F000BF6311000043
:10107000411100000F110000F31000005710000094
:1010800057100000CB10000057100000CB100000DC
:1010900057100000CB100000CB100000CB10000058
:1010A00057100000CB100000CB1000005B08012B94
:1010B00001D0022BCFD194F8773094F876200096A7
:1010C00029462046FFF754FBC5E705F10803DBB2CC
:1010D000072BC0D8012202FA03F313F0DD0FBAD0B8
:1010E000636D1868036829461B6802B0BDE870404C
:1010F0001847436D90F8765018680368F3211B6811
:101100009847636D186805F07F010368ECE7436D4D
:1011100090F87750186894F876200368F2211B68DD
:1011200042EAC5159847636D1868036805F07F01AA
:101130001B689847636D1868C5F3C6110368D3E749
:10114000436D90F87650186894F8773002682D0156
:1011500003F00F03126805F07005F1211D4390475D
:10116000BEE7B0F87660802E28BF802600F17805B3
:10117000002E3FF470AF2E44636D15F8011B186804
:1011800003681B689847B542F6D164E794F8773056
:1011900094F8762000962946FFF7EAFA5BE700BF4D
:1011A00070B5174C94F85860102E02D900252846C7
:1011B00070BD2046FFF7AAFC05460028F6D094F83B
:1011C0007530902B0CD083F08003602B0BD90C482A
:1011D000FFF788FB31460A48FFF722FF284670BD1B
:1011E00094F877303BB194F874309E42EFD0002EE3
:1011F000EDD00025EEE7802384F87530F3E700BFDB
:10120000C81BFF1FF8B5294C294F94F87030DFF840
:10121000ACE0C7F800E00025012243F0010362F3CF
:1012200047034FF6FF76294604F17800802284F8C0
:101230007030676525606560A560E5602561656162
:10124000A561E56125626562A562E5622563656366
:10125000A563E56325646564A564E564256584F894
:10126000585084F8595084F85A5025666566A66629
:10127000E66684F8745084F8755084F8765084F8E3
:10128000775084F8F8500BF057FE2046C4F8005110
:10129000C4F80451C4F8085184F80C5184F80D5175
:1012A000044A0549BDE8F8400AF06ABEC81BFF1FA2
:1012B000C41BFF1F400CFF1F710600002412FF1FFC
:1012C00000207047704700BF10B5044604F0AAFF25
:1012D0000A2830D00D283DD04FF6FD73984201D931
:1012E000012010BD0346B4F94220B4F9401004F1C6
:1012F000080004F07BFF94F82230032BF0D8DFE8DD
:1013000003F0140E0802B4F84230181AA4F8420090
:10131000E6E7B4F84030181AA4F84000E0E7B4F863
:1013200042301844A4F84200DAE7B4F840301844D8
:10133000A4F84000D4E794F9333094F93410B4F8A9
:1013400042205B1A13440022A4F84230A4F8402043
:10135000012010BD0023A4F84030012010BD00BFC3
:10136000183807EE900AB8EEE70ADFED0B7A10B5F1
:1013700020EE270A09F09CFC084CBDEEC00A0121B2
:10138000172084ED000A07F0EFFB21682120BDE85B
:10139000104007F039BA00BF907592429C24FF1F9D
:1013A00070B50020104C114B114E014603F1400264
:1013B00043F8041B9342FBD1C0EBC0057319013005
:1013C0005B79DB091CBF735D03F00F030828236002
:1013D00004F104041346E9D1FFF7B2F9FFF790F9DD
:1013E000044B00221A7070BDFC23FF1FCC26FF1F88
:1013F0007010FF1FA810FF1F2DE9F0471546002AA7
:1014000063D004460F46DFF8C88000264FF6FD790A
:1014100000F1080A0BE004F005FF0A2825D00D288A
:1014200032D0484511D90120013D06440AD0236835
:1014300017F8011B1B6843452046ECD09847013D37
:101440000644F4D13046BDE8F0870346B4F94220A3
:10145000B4F94010504604F0C9FE94F82230032B32
:10146000E1D8DFE803F02B241D1694F9333094F90A
:101470003410B4F842205B1A13440022A4F842301E
:10148000A4F840200120CFE70023A4F84030012039
:10149000CAE7B4F84230181AA4F842000120C3E7A2
:1014A000B4F84030181AA4F840000120BCE7B4F8A2
:1014B00042301844A4F842000120B5E7B4F84030A7
:1014C0001844A4F840000120AEE71646BAE700BF72
:1014D000C912000070B5084D2B689842044608D325
:1014E000064EE41AFFF7FCF833689B009C422B6021
:1014F000F7D21B1B2B6070BDE825FF1F8024FF1F48
:1015000070B50D4D2B689842044612D30B4E3268CD
:101510002A60E41A07F042FB0146094803F020FF65
:1015200007F03CFB0146074803F066FF2B68A34227
:10153000EDD91B1B2B6070BD341DFF1F8024FF1FC6
:10154000F42BFF1FF428FF1FF8B504460A4E0B4D7D
:101550000B4F55F820000A4656F82410FFF79AF969
:101560000849094A56F8243055F8240047F8243031
:1015700008601360F8BD00BFD428FF1F740CFF1F64
:10158000401DFF1F281DFF1F581DFF1F2DE9F04F95
:10159000744DDFF81482744E744FDFF810B2DFF828
:1015A00010A2DFF8109283B040200024C0B206F0F1
:1015B0003DFE0346014628683B6004F015FC29689F
:1015C000DBF80000CA6ADAF80030904200F3A88025
:1015D0009342D4BFC0EB0302C0EB02021B1AB3F567
:1015E000804FAABF9203C2EB8232013392FBF3F326
:1015F00091F834203B604FEAE31E49F824E0002ACA
:1016000057D05B4B1B78032B53D8DFE803F04A021B
:10161000024A584B1B78002B55D0574B1B78002B98
:1016200051D0564A5649574B1460042C32680A6010
:10163000C3F800E000F08280534B544A18681168E8
:10164000534B019200EB800C00EB4C004FF0B00CC0
:101650000CFB0100C1EBC101DFF848C1595C0093EC
:101660008444A4440909013120468CF803E0FFF7C3
:101670006BFF019A009B1268C2EBC2022046995C84
:1016800009090131FFF760FF0134424B0122052CAB
:101690001A7005F1040506F1040611D103B0BDE886
:1016A000F08F3D4B20461968FFF74EFF394B012262
:1016B0001A700134052C05F1040506F10406EDD07D
:1016C00058F8040F72E7354B1B785BB32B4A2C4953
:1016D0002C4B1460042C32680A60C3F800E02B4ADB
:1016E0002F492ED012682A4B51F82210DFF8B4C0CF
:1016F00001EB810001EB4001B02000FB0210C2EBC6
:10170000C202995C0CEB0003234409090131204615
:1017100083F803E0FFF718FF1E4B01221A70C8E799
:1017200000225BE7194A1A4B1268C2EBC20220463C
:10173000995C09090131FFF707FFBAE7134A144B17
:1017400099E71368174851F82320B02101FB03F1F2
:101750000B2303FB021303445A786EF306025A70FC
:10176000DAE700BFA024FF1F740CFF1F241DFF1F1A
:10177000EC22FF1F561DFF1F201DFF1F7424FF1F9B
:10178000281DFF1F581DFF1F1426FF1FEC28FF1FD9
:101790007010FF1F7C24FF1F700CFF1FED22FF1F26
:1017A000FC23FF1F6C1DFF1F7CD700002024FF1FA0
:1017B000400DFF1FD428FF1F08B50A4B1A783AB90D
:1017C0001146094804F010F9084B01221A7008BDAF
:1017D000074A0548002104F007F9044B01221A705A
:1017E00008BD00BFEC25FF1FD81CFF1FA326FF1F4D
:1017F0004040BF002DE9F04FA34BA449D3ED007A40
:10180000A34C0B682568A34E85B077EEA77A0093AA
:10181000FCEEE77A009AC6ED007A17EE903A521B7A
:10182000934205464FEA430008D89B4A0E68137856
:10183000019683F00103019E137026600B68974A9E
:101840000293029B1168914C5B1A984208D8944904
:1018500020680B7803900398106083F001030B70ED
:10186000904B1B781BB18C4B1B78002B6FD18E4C8F
:101870002378002B4CD18D4B1B78002B51D0864BFD
:101880001B78002B55D18A4B1B78012B00F0A181CE
:10189000022B56D000221146864804F0A5F84FEAE4
:1018A000C508854EC5EB080333449B79DF0740F13B
:1018B0009480824BDFF8349253F82530C9F8003019
:1018C0002378002B58D07E4B1B78002B54D0C5EBCF
:1018D00008052E4401240BE03B68A34279D02B6815
:1018E0000B33A3423AD004F07FF801341B2C3DD0D7
:1018F0003378744D744F6F4803F00F030B33A342DA
:101900004FF00002A1B2E7DA0022A1B26948EAE78B
:10191000614B1B78002B40F06281644B1B78002BDD
:10192000B1D16A4B1B78002BADD05B4B1B78002BE1
:10193000A9D0674B5F4853F82520002104F054F8E4
:10194000ADE74D2200215B4804F04EF8A7E70122E5
:1019500000215848544C04F047F8A0E7A1B25D4A72
:101960005448013404F040F81B2CC1D15A4B0122D9
:101970001A7005B0BDE8F08F544B1B78002B39D09E
:10198000C5EB08052E44012411E00B68494852F8C4
:1019900023300B33A3424FF00002A1B214D02B68C6
:1019A000A34201D004F020F801341B2CDED03378A0
:1019B0004A494B4A444D03F00F030B33A342E4DA88
:1019C0000022A1B23B48EDE74FF4000204F00CF80E
:1019D000EAE7444A04F008F887E73D49374ADFF868
:1019E0000C91414B51F8251052F82520C9F80010F0
:1019F0001A6065E7394B1B68C3EBC30333449B791B
:101A00005C07B3D4C5EB080737444FF0020B012441
:101A10000AE00022A1B2274803F0E6FFBBF11B0F4A
:101A200029D001340BF1010B3B7803F00F030B338A
:101A3000A342EEDB012C00F0D980022C00F0E28002
:101A4000EB1CA342E5D11FFA84FAD9F8002019480B
:101A5000514603F0C9FF154A1278002ADED00E4A1B
:101A60001278002ADAD051460022124803F0BCFF57
:101A7000BBF11B0FD5D14FF0B00B0BFB05FA0B4F91
:101A80004FF00B0B00244CE0DC25FF1F7C2EFF1FCA
:101A9000601DFF1F2C1DFF1FF028FF1F1C1DFF1FB7
:101AA000E025FF1FF81CFF1F561DFF1F641DFF1FB1
:101AB000EC22FF1FD81CFF1F7010FF1F90D70000E3
:101AC000201DFF1F1426FF1F9824FF1FED22FF1F5C
:101AD000B0D700000080FF00A326FF1FEC28FF1FE7
:101AE000FC23FF1F80808000F41CFF1FE425FF1FE4
:101AF000A24263D004EB84024C4904EB42025244FC
:101B00000A449178C90635D4494A4A48594603F0EF
:101B10006BFF01340BF10103102C1FFA83FB3FF420
:101B200025AFC5EB0802B25C02F00F020132A242FF
:101B3000EFDD3A78C2B9404AA00752F82520D7D045
:101B4000A24224D004EB8402384904EB42025244FE
:101B50000A449178C9060DD43A78002AD9D1594659
:101B6000344803F041FFD4E7314A3248594603F084
:101B70003BFFE0E7927A530719D0304A1278B2B9A6
:101B80002F4A2C481268594603F02EFFC1E72D4B0F
:101B90001A78BAB904EB8401244804EB410151449A
:101BA00001448878C306DAD58A7A5007E5D1D9F896
:101BB00000202048594603F017FFAAE7214B1A7866
:101BC000002A97D04FF4000259461A4803F00CFF40
:101BD0009FE71D4A1748002103F006FF5FE644F621
:101BE0004D420021134803F0FFFE58E6174B5B7887
:101BF00013B1174B1B7893B9164A0E48012103F015
:101C0000F3FE0EE7114B9B7813B1114B1B7833B9E0
:101C10004FF680720221074803F0E6FE01E700223A
:101C20002146044803F0E0FEFBE600BF6C1DFF1FE9
:101C300020202000D81CFF1FFC23FF1FE025FF1FD2
:101C4000F41CFF1FF81CFF1F80808000FC1CFF1F7E
:101C5000F028FF1FFFFF800010B550B90446012196
:101C6000094804F0DBFA21460748BDE8104004F0BB
:101C7000D7BA0021044804F0D1FA01210248BDE896
:101C8000104004F0CDBA00BF3424FF1F2DE9F0410D
:101C9000C600321A574D584CAB5C54F820E003F0A4
:101CA0000F0301339E452A4429DB5179C90956D1D6
:101CB000517801F00F0144F82010341A2C440746E3
:101CC000A37803F00F02B2EB131F6CD0A27910338C
:101CD0006FF34102A370A271F61B0BF07FF9AB5DAD
:101CE000AA1903F00F030133D17890FBF3F404FB3E
:101CF0001300013060F30301D170BDE8F08192F868
:101D000006C0CCF3400CBCF1000F11D051780F0984
:101D100001F00F018F420ADDBE4508DB5379DB0974
:101D2000C9D0002F36D0013F44F82070C5E73FB33B
:101D3000321A2A445179C9090FD0BEF1000F12DBC3
:101D4000BCF1000F09D0537803F00F039E453CDA35
:101D5000331A2B445F783F09E3E7BDE8F08192F83E
:101D600006C0CCF3400CBCF1000FF1D1321A2A446A
:101D7000527802F00F029B1A013B44F820309CE796
:101D8000321A2A44D77807F00F07BE45D0DB5379C3
:101D9000DB0990D0331A2B44DB7803F00F03013BAF
:101DA00044F8203089E7237913F07F080FD1F31B23
:101DB0002B449A796FF341029A71F31B2B44012152
:101DC0009A7861F307129A7086E7BDE8F0810BF00C
:101DD00005F90A4BC21783FB0013C2EB631364229D
:101DE00002FB13008045E2DDA37943F00203A371F7
:101DF000E3E700BF7010FF1FFC23FF1F1F85EB519F
:101E000070B50C4D0C4E0024C4EBC4033344204683
:101E10005B79DB092B680ABF204603F1FF330133EE
:101E200001342B60FFF732FF082C05F10405EBD1DC
:101E300070BD00BFFC23FF1F7010FF1F70B5124D57
:101E4000124E002408E0013B002B2B6016DB01340E
:101E5000082C05F1040510D0C4EBC402B3185B795B
:101E6000DB092B68EFD02046013301342B60FFF7EC
:101E70000DFF082C05F10405EED170BDB35C03F035
:101E80000F032B60E3E700BFFC23FF1F7010FF1F51
:101E90000949C0EBC0020A4408495279D20951F8F5
:101EA000202004D1013241F82020FFF7EFBE013A93
:101EB00041F82020FFF7EABE7010FF1FFC23FF1F30
:101EC0003D4A3E4B70B4156819683D4CAA00531941
:101ED00005EB4303B02606FB013323449B7A03F052
:101EE00007031844062811D8DFE800F0121F2D3B25
:101EF000495704002A4405EB4202B02505FB0122A4
:101F000014440622A37A62F30203A37270BC7047E2
:101F10002A4405EB4202B02303FB01221444A37AB6
:101F20006FF30203A37270BC7047531905EB4302B1
:101F3000B02303FB012214440122A37A62F30203BB
:101F4000A37270BC7047531905EB4302B02303FB27
:101F5000012214440222A37A62F30203A37270BC2A
:101F60007047531905EB4302B02303FB01221444CD
:101F70000322A37A62F30203A37270BC7047531961
:101F800005EB4302B02303FB012214440422A37A8D
:101F900062F30203A37270BC7047531905EB43024E
:101FA000B02303FB012214440522A37A62F3020347
:101FB000A37270BC704700BF1426FF1FEC28FF1FE0
:101FC0006C1DFF1F38B5134C134B246853F8203099
:101FD00004EB440403EB84047F2C05460AD9A9B220
:101FE0000E4A0F4803F000FD0E490F4A01230B7003
:101FF000137038BD0D480E4B0470204643F8254041
:10200000FEF7F8FBA4F11803352BE8D82046FFF7BC
:10201000A7F9E4E7E828FF1F38D50000808080009A
:10202000D81CFF1FA326FF1F7C24FF1FA226FF1F13
:10203000D00DFF1F0C4B10B5044653F820007F282D
:1020400007D80A460021FEF7FDFB0021172006F005
:102050008BFDA1B20022054803F0C6FC0449054AE5
:1020600001230B70137010BDD00DFF1FD81CFF1F74
:10207000A326FF1F7C24FF1FF8B51E4C1E4B2468AF
:1020800053F8203004EB440403EB84047F2C054612
:102090000AD9A9B2194A1A4803F0A6FC19491A4AE2
:1020A00001230B701370F8BD184FDFF874E03B6824
:1020B0001748184EC3EBC30306EB02161EF8033095
:1020C00050F822E01A090132204606F80E40FEF7C9
:1020D00091FB3B681049114ACB5C42F82540002B2C
:1020E000D7D0A4F11803352BD3D82046FFF738F901
:1020F000CFE700BFE828FF1F38D5000080808000B0
:10210000D81CFF1FA326FF1F7C24FF1FEC28FF1FE6
:10211000FC23FF1F7C23FF1F6010FF1FD00DFF1F3C
:102120007010FF1F38B5134B044653F820007F286A
:102130000AD9A1B20022104803F056FC0F49104AF8
:1021400001230B70137038BD0E4D0F4A2B68C3EB83
:10215000C3030021D25C12090132FEF773FB2B6826
:102160000A4AD35C002BE4D00021172006F0FCFCC7
:10217000DFE700BFD00DFF1FD81CFF1FA326FF1FE6
:102180007C24FF1FEC28FF1F7010FF1F6010FF1F33
:102190002DE9F04FBA4EBB4F56F82030BA4903EB49
:1021A000830203EB4203B02202FB003385B03B44C1
:1021B0000A5C029293F80A8008F00708B8F1060F4B
:1021C000044600F0118108F1FF38B8F1040F00F265
:1021D0000881DFE808F04A343F032300AB4A56F891
:1021E0002400C4EBC4031A445379C3F3C01181F033
:1021F000010161F3C713537100EB80034FF0B00886
:1022000000EB430008FB04F840443844DFF874A2B4
:102210008378DA062DD405B0BDE8F08F0AF0DEFE33
:102220009A4AC4EBC403D35C03F00F03013390FB61
:10223000F3F202FB1300013046F82400DCE7934A76
:1022400056F82400C4EBC40313445A796FF3C71241
:102250005A71D1E78D4A56F82400C4EBC4031344E5
:102260005A7942F080025A71C6E7002046F82400ED
:10227000C2E74378DFF838B2844DDFF8049203F008
:102280007F03CBF8003006F089FC56F82430029921
:10229000009103EB830103EB410398440AEB08012F
:1022A0007B4A91F802E013681AF80810794A0EF098
:1022B0000F0E0EFB03334FEAC40A1844C4EB0A089E
:1022C000724B106013F808E0136873484FEA1E124F
:1022D000013201F07F0103F025F856F82420D307DE
:1022E000A84400F1978098F8053003F07F03622B33
:1022F00040F39980632B00F0E380DFF8B8E1DEF86B
:102300000000DFF8B48102EB82014FF0B00902EB6C
:10231000410209FB04F902EB0901C4EB0A035B4A21
:10232000795CD35CDBF8002000901B0902980190D7
:1023300001F07F0101335948DFF880B103F03CF828
:1023400056F8242000259000831802EB43034B44E9
:102350003B442B44C4EB0A0E93F903300293002B49
:10236000194624DB494B13F80E204D4B120953F844
:1023700025000132FEF78EFA56F82420029BC8F899
:10238000003090000135042D08F10408DCD1104420
:1023900002EB4000B02303FB0400424B395C03EB2B
:1023A0000414C1F30603A35405B0BDE8F08F5BF835
:1023B0002510D8F800308B42C4EB0A0EE2D0334B24
:1023C00013F80E20364B120953F825000132FEF7A0
:1023D00061FA56F824205BF82530C8F800309000E8
:1023E000D0E756F8240007E7072007F059FF052833
:1023F0003FF6E9AE01A353F820F000BFE32300004D
:102400006B2200003F22000055220000DD21000069
:102410001D22000006F0C2FBDFF898E059F82420E6
:10242000CEF800006BE706F0B9FB98F803E01E4B0E
:102430001E49D3ED007A98F8053059F824204FEA68
:102440001E1E01EB8E0191ED007ADFF868E0F8EED8
:10245000677A03F07F0367EE877AB5EE007A67EE5E
:10246000877A07EE103AF8EEC76A07EE100AB8EE60
:10247000477AA7EEA67AFCEEC77ACEED007A3EE761
:10248000FC23FF1F6C1DFF1F6010FF1F7010FF1F3C
:102490009C26FF1F7823FF1FF42BFF1FF428FF1F2C
:1024A000740CFF1F7C23FF1F8024FF1F5C0EFF1F87
:1024B0006C10FF1F5C1DFF1F8424FF1F401DFF1FAA
:1024C0000AF08CFD039006F069FB039BDFF870C0F7
:1024D000DFF870E098F803109EED007A59F8242098
:1024E000DFF864E083FB0C8903EB09084FEAE37C27
:1024F0000909CCEBA81C0EEB8101D1ED006ADFF8D5
:102500004CE0F8EE477A0CEB4C08CCEB481C27EE7D
:10251000A67ACCEB0303F5EE006A013327EE267AA8
:1025200007EE903A06EE900AF8EEE77AF8EE666A61
:10253000E7EE276AFCEEE67ACEED007ADFE600BF32
:10254000859176AC8024FF1F5C0EFF1F5C1DFF1F72
:102550002DE9F04F914FDFF874A23B68DFF87082ED
:102560005AF8231001EB810001EB4001B02000FB81
:102570000313434483B01D7A15F07F0540F0D480E7
:10258000874B1B78012B7DD0022B72D1854B1B789A
:10259000002B71D006F002FBDFF838B28146002430
:1025A00026010BEB0602536899455FD37E490978F3
:1025B000002940F0C9807D4A7D4992ED007A7D482E
:1025C000C4EBC402114407EE903ACA788979120923
:1025D00000EB8202D2ED006AB8EE477AF8EE677A35
:1025E0000BEB0602E7EE267A9360CB07FCEEE77A68
:1025F000C2ED017A34D45AF824206F4B02F10F0156
:102600000B40002BC0F2AA806C4931440BEB060052
:1026100011F803E08381BEF1000F01D00020C854FF
:10262000F5B102EB820302EB4301B02303FB041379
:1026300043441644597A6248624A50F8263001F001
:102640003F0102EBC10E52F83110DEF804200133D5
:102650008B4240F8263000F08680934280F28C80D6
:102660003B68A34276D02046FFF712FC0134082CC9
:1026700096D103B0BDE8F08F386803B0BDE8F04FE5
:10268000FFF7B8B8474B1B78002BF5D006F086FA59
:102690003968DFF840B1414E0B010BEB030464686D
:1026A000A042E6D340480078002869D15AF82100BA
:1026B000414A0F300240002A6ADB404818440BEBC5
:1026C000030610F802E0B281BEF1000F01D000262F
:1026D0008654364A364E92ED007A3648C1EBC10236
:1026E000324407EE904AD278120900EB8202B8EE2B
:1026F000477AD2ED006AF8EE677A9B44E7EE267AD5
:10270000CBF80840FCEEE77ACBED017A1DB1084624
:10271000FFF73EFD39680846FFF76CF8386803B0EC
:10272000BDE8F04FFFF76CBB0AF058FC264BC11711
:1027300083FB0023C1EB6313642101FB130085427B
:10274000D4BF002501251BE70192FEF729FE019A5F
:10275000536830E72046FFF74DF884E7013B63F00C
:102760000F03013350E7934202DB002340F8263089
:102770002046FFF70DFD73E7002340F826306FE792
:10278000FEF70EFE31680B010BEB030044688DE78A
:10279000013A62F00F0201328FE700BFEC28FF1F01
:1027A000EC22FF1FF81CFF1FA810FF1F9C26FF1F15
:1027B0007010FF1F5C0EFF1F0F0000807C23FF1FA7
:1027C000CC26FF1F7C0EFF1F1F85EB51FC23FF1F34
:1027D0006C1DFF1F1C26FF1F0C4B70B501220C4EF9
:1027E0001A70002406F0DAF906EB0415013468606B
:1027F00006F0D4F9082CA860F4D1064B1B7803B17D
:1028000070BDBDE87040FDF78BBF00BFF81CFF1F17
:102810001C26FF1FA810FF1F07285CD82DE9F84FC2
:102820002D4A2E4DC0EBC0034FF0B008D45C04F02D
:102830000F04013404EB840204EB4202073222F05D
:102840000702214400AFEE464FF0000CADEB020D45
:1028500091FBF4F308FB00506E4604FB1313E046B3
:1028600003EB830200EB0C0103EB4202B51808F105
:1028700001080133D1F800B0D1F804A0B1F80890F4
:10288000897A46F802B093FBF4F244450CF10B0C44
:10289000C5F804A0A5F80890A97204FB1233DFDC88
:1028A00000231D46F218C1180135D2F80090D2F865
:1028B0000480B2F808C0927A40F80390AC42C1F8A4
:1028C000048003F10B03A1F808C08A72EADCF54624
:1028D000BD46BDE8F88F70477010FF1F6C1DFF1FCD
:1028E0002DE9F0473A4FBDF8206005468946384645
:1028F00029469246984603F0E1FC97F9314080B2B0
:10290000A4B2C0EB0803341B03EBD37304EBD47401
:1029100009EB63030AEB640400222846A7F8403061
:10292000A7F8424087F846200AF08AFB48B30446DD
:102930003E464FF6FD7801E0013C22D015F8011B20
:10294000234803F06FFC0A282FD00D283BD04045C8
:10295000F2D80346B6F94220B6F940101D4803F0FC
:1029600045FC96F82230032BE6D8DFE803F0181276
:102970000C02B7F84230013CA3EB0000A7F842007C
:10298000DCD1BDE8F087B7F84030181AA7F840004E
:10299000D2E7B7F842301844A7F84200CCE7B7F8BE
:1029A00040301844A7F84000C6E796F9333096F94E
:1029B0003410B6F842205B1A13440022A6F84230C5
:1029C000A6F84020B8E70023A6F84030B4E700BFDF
:1029D0002C24FF1F3424FF1F30B5054683B010465A
:1029E0000C46FFF739F9074B1A68033261011623C9
:1029F0005200009309B2284612B22023FFF770FF5D
:102A000003B030BDA80FFF1FF0B5194C194F1A4E77
:102A100085B004F1400502E00834AC4226D02379A9
:102A2000002BF9D03B680393039B1448336004F0F8
:102A300051FD0121124803F0D7FB1249104803F061
:102A4000E3FB01210E4803F0E9FB00210C4803F0F1
:102A5000E7FB2023206800930A2280230021FFF750
:102A60003FFF002323710834AC42D8D105B0F0BD3C
:102A7000700DFF1F7C2EFF1F181DFF1F601BFF1F07
:102A80003424FF1FD0D8000030B51E4C83B0012184
:102A900004F1080003F0A8FB04F108001A4903F050
:102AA000B3FB002504F108000121A4F84050A4F86C
:102AB000425084F8465003F0B1FB294604F1080067
:102AC00003F0AEFB114A124B12781B78934210D0E0
:102AD000104B1B784BB910482023009314222C2351
:102AE0005621FFF7FDFE03B030BD0C4B53F822001A
:102AF000F2E7084A1278002AEDD0084A52F823007B
:102B0000EAE700BF2C24FF1F1C0B0100541DFF1F10
:102B1000EC22FF1FB424FF1F50D70000B00DFF1F91
:102B200070B5064684B010460D46FFF795F80A4B7F
:102B30001C68640002A930460A22053409F032FFFD
:102B4000A4B269011623009322B209B202A820237D
:102B5000FFF7C6FE04B070BDA80FFF1FF8B5134EF7
:102B6000074600257088002498B12304FF2293FBB8
:102B7000F0F02844114680B202F060FF03F004F840
:102B8000A1B20246094802F02FFF70880134A0422A
:102B9000EBDC064802F046FE05F58075384606F087
:102BA00021F8B5F5803FDDD1F8BD00BFD81CFF1F6F
:102BB0002DE9F047494BDFF83C81494E0FCB86B0F9
:102BC00006AC04E90F00474804F084FC002108F13A
:102BD000080003F009FB45464FF0000A4148424C0B
:102BE00004F078FC1223002240494148A8F8403004
:102BF000A8F8423088F846200FFA8AF903F004FB5F
:102C00004FF6FD7701E0B44222D014F8011B394899
:102C100003F008FB0A284FD00D285BD0B842F2D849
:102C20000346B5F94220B5F94010314803F0DEFA09
:102C300095F82230032BE6D8DFE803F038322C0277
:102C4000B8F84230B442A3EB0000A8F84200DCD14F
:102C50002949274803F0D8FA09F0030906AB03EB2A
:102C60008909202359F8100C00930A225021FFF7FC
:102C700037FE1C4804F03AFD0AF1010A642005F011
:102C8000B1FFBAF1100FA9D1642006B0BDE8F0473A
:102C900005F0A8BFB8F84030181AA8F84000B2E70D
:102CA000B8F842301844A8F84200ACE7B8F8403011
:102CB0001844A8F84000A6E795F9333095F9341088
:102CC000B5F842205B1A13440022A5F84230A5F85B
:102CD000402098E70023A5F8403094E70CD5000089
:102CE000AAD50000601BFF1FA4D50000D0D80000AB
:102CF0003424FF1F2C24FF1F8CE100002DE9F04736
:102D0000324BDFF8D0C0186859681C899A7A304D68
:102D1000DFF8C4E084B001AB03C300271C809A70C5
:102D20004FF001094FF003085CF8046F002206F031
:102D30007F069DF8043066F306038DF8043001AB7E
:102D400003CBAC18A8500B3218889B786160B02A6E
:102D50002081A372EDD1C7EBC7010EEB01031EF872
:102D6000012042F00F0267F307120EF801209A7853
:102D70009E795879597893F804A0DC786FF30302B0
:102D80009A706FF30006F2B29E7800F07F0001F0B7
:102D9000F00102F0FD0201376FF306006FF3071137
:102DA0006FF3060A69F3071668F303046FF38202F0
:102DB000082F05F1B0055871597083F804A09E7072
:102DC000DC709A71B0D104B0BDE8F0871CD500006A
:102DD0006C1DFF1FA810FF1F7010FF1F70B5002093
:102DE00005F02AFB082803D00821002005F03EFB4F
:102DF0001A4B01201C7805F01FFB844203D02146AA
:102E0000012005F033FB164B02201C7805F014FB63
:102E1000844203D02146022005F028FB114B0320F9
:102E20001C6805F009FB013CE4B2844203D0214652
:102E3000032005F01BFB0C4E0424204605F0FCFA91
:102E400056F8045BEDB285422946204604F10104A0
:102E500001D005F00BFB092CEFD170BDEC22FF1F58
:102E6000EC28FF1F700CFF1F740CFF1F38B50020EB
:102E700005F0E2FA082801D0002038BD012005F055
:102E8000DBFA0C4B0C4D1870022005F0D5FA0B4BF9
:102E90001860032005F0D0FA094B013018600424B3
:102EA000204605F0C9FA0134092C45F8040BF7D186
:102EB000012038BDEC22FF1F740CFF1FEC28FF1F00
:102EC000700CFF1F70B5104E202404F1B005A4F162
:102ED00020000B2221463044144405F0F5FAA542A7
:102EE000F5D1B5F5B46F2C46EFD1084D4FF484649D
:102EF000A4F58460072221462844144405F0E4FA2E
:102F0000B4F58B6FF4D170BD6C1DFF1F7010FF1FE7
:102F10002DE9F843DFF85C80202404F1B0076FF05E
:102F2000200909EB0405454404F10B06204605F091
:102F300083FA0134B44205F8010FF7D1A742F0D16A
:102F4000B7F5B46F3C46E8D1094D4FF484672C4681
:102F50003E1B0735301905F06FFA04F8010BAC423F
:102F6000F8D10737B7F58B6F2546F0D1BDE8F88368
:102F70007010FF1F6C1DFF1FF0B5404C8BB005F0AB
:102F80000FFA23680493049D23680593059E236824
:102F90000693069F236807930799394A2368089385
:102FA000384B1560384A1E603848394B1160394D2E
:102FB000089E0760002201211A713748DA6083F801
:102FC0002220A3F84020A3F8422083F8462019834A
:102FD00083F821102E60186005F0E0FD2F4923686A
:102FE00009930B462E4A099D43F8045B10606C312F
:102FF00022680392039A43F8042B8B42F8D1294BA1
:103000002949D3ED007A294B2948C3ED007A77EEA0
:10301000A77A284A284E294C294B0968294D366839
:1030200024681160FCEEE77A0B22C0ED007A0C21D7
:1030300025481C602E60FDF753FA00212348FDF758
:10304000C5FA052206238DE80C002149214B224AAE
:10305000224802F02DFA224A2249204808F090FF27
:1030600052230E221B21204802F0A8FC1C4A1F49B3
:103070001D4808F085FF0BB0F0BD00BF7C2EFF1F80
:10308000601DFF1F1C1DFF1F181DFF1FFC25FF1FBC
:103090002C24FF1FF025FF1FFCD400000823FF1F76
:1030A000F425FF1F380DFF1F740CFF1FF01CFF1FBE
:1030B0002C1DFF1F281DFF1FD428FF1FE828FF1FFE
:1030C000F825FF1F581DFF1FF022FF1F0026FF1FBE
:1030D0004C0DFF1F680CFF1F9C0FFF1FB824FF1F24
:1030E000400CFF1FE9540000D81CFF1F5D57000073
:1030F00030B5124C83B0002201210A2320460191F1
:1031000000931146802303F01FFA02252023204656
:1031100019460095002204F0B7FA204600952023B6
:103120000022402104F0B0FA00952046202300221E
:10313000602104F0A9FA03B030BD00BF601BFF1F7F
:103140002DE9F04F964C05460F4694E80F008FB0DE
:1031500002AE0DF1280886E80F0088E80F00002372
:103160000793069308930993092D00F25082DFE834
:1031700015F066007D009D00C700EF00630192011D
:10318000AE01CD010A00874A874B12681B68874849
:10319000874C02EB820102EB4102B02101FB0322CA
:1031A000815C844854F8232005688348029001F02C
:1031B0007F01013201330435089107927F49099359
:1031C0007F4A804B069583460391049205937E4C7B
:1031D000DFF860A204F1080001214FF0000903F0BC
:1031E00003F804F10800794903F00EF8A4F84090C0
:1031F000A4F8429084F84690FFF77AFF494604F11C
:10320000080003F00BF804F10800012103F008F8AE
:1032100001244FF00A09DAF80020CDF80090023AB4
:1032200021B2584612B22023FFF75AFB612C04F159
:10323000200400F08781A4B256F804BFEBE75D4A92
:10324000634B15681B686349634A07935A4B0968C7
:10325000127808910435614909920293604A0695F3
:103260009B46574B039104920593B0E74E4B5D4943
:103270001D685D4AC5EBC5030B44D2ED007A5B794E
:103280005A49504A0968079103F07F03FDEEE77A37
:103290000893574B574903930135574B0695CDED8E
:1032A000097A029293460491059390E73E4B534965
:1032B0001B684C4AC95C524CC3EBC303D018D35CA7
:1032C000C2788579120903F00F03013354F8220004
:1032D00007934C4B4C4A4D4C0C90C5F380054C4821
:1032E00004936FF07E030695029203940590089371
:1032F0000993002900F08F81464B0D93934666E7B2
:10330000284A294B1168444A1868029201EB81024D
:10331000424B434C039401EB4201B02202FB0011EB
:10332000404C414A414804920590CA186FF07E0013
:10333000002312F9011F0029C0F2638106AD45F890
:1033400023100133042BF4D1069DDDF808B03EE7CD
:10335000144B154A1B681268144903EB830003EBF6
:103360004003B02000FB0233CA18CD5C11489378AB
:10337000517802681248029003F00F0301330432BF
:1033800009930D4B079205F07F0501F07F01284A54
:1033900003931E4B0695089104928346059316E706
:1033A00028D500001426FF1FEC28FF1F6C1DFF1FEF
:1033B000FC23FF1FE828FF1FACD500002CD600001F
:1033C000CCD50000B0D500002C24FF1FEC13010069
:1033D000700CFF1F581DFF1FA226FF1FDCD5000029
:1033E000E0D500007010FF1F380DFF1F301DFF1FBC
:1033F000E4D50000ECD50000F4D500006010FF1FFC
:103400003C0EFF1FC4D50000B4D50000F8D5000065
:10341000FCD5000000D6000034D600006E1DFF1F52
:1034200038D6000028D600003CD6000040D6000068
:1034300044D60000A80FFF1F794A7A4B11681A681A
:1034400079487A4C01EB810301EB4301B02303FB84
:103450000213034403F10802917852781B7A7448EE
:1034600002F03F0201F0070103F07F0354F821103E
:1034700050F822006F4A07936FF07E056E4C0A9158
:103480006E4B6F490C9002929346039404910593FE
:10349000069508959BE6634B6A491D686A4AC5EB29
:1034A000C5031268CB5C089203F00F011B090131C0
:1034B0000133079109936549654B664A03930135CA
:1034C000654B069502918B46049205937FE6554A1B
:1034D0005C4B126861490291C2EBC20213448B46F5
:1034E0005A7899781B7902F00F0501F00F01120943
:1034F00003F07F0301350792089109935849594A0F
:103500004D4B069503910492059360E6454A4D4B59
:10351000126855490291C2EBC20213445348DA784B
:103520009B791209C3F380038B46079350F822104E
:103530004F4B504A0A916FF07E0503920493059316
:10354000069544E601214C4802F04EFE4B494A489C
:1035500002F05AFE0121484802F060FE0021464870
:1035600002F05EFE032F0DD8DFE807F020362B02B5
:10357000152201238DE80C0062211D230B224048F7
:1035800002F0E2FF06AE00243B1BB3FA83F35B09B3
:1035900015F17F0F21B228461A4628D00134FFF7D3
:1035A000BFFA042C2AD056F8045FEDE71522012358
:1035B0008DE80C0002211D230B22314802F0C4FFCC
:1035C000E0E7152201238DE80C0042211D230B2288
:1035D0002B4802F0B9FFD5E7152201238DE80C0036
:1035E00022211D230B22264802F0AEFFCAE758F81D
:1035F00024000134FFF7F0F9042CD4D10FB0BDE85A
:10360000F08F06A948F8234041F8230099E6DDF839
:1036100008B00025DBE51B4B0D939346D7E500BFB3
:103620001426FF1FEC28FF1F6C1DFF1F880CFF1FB7
:10363000A80CFF1FD4D5000020D6000050D70000F2
:1036400048D600007010FF1F2424FF1FB0D50000D3
:10365000F8D5000008D600000CD60000BCD500004C
:1036600014D6000018D60000C4D500003C0EFF1F81
:1036700028D60000B4D500003424FF1F0402010046
:10368000601BFF1F04D600002DE9F04F4148A3B096
:1036900001F032FF05F082FA3F4B186005F07EFA28
:1036A0003E4B1C681860041B04D03D4B1B78002B5C
:1036B00040F01E83FEF74CFF3A4803F00BFFFDF786
:1036C00065FF3948FCF728FF03B21790002B40F044
:1036D000D381364B0093364B0393364B0793364ECC
:1036E000364B0293364B0693364B0493DFF8ECA02F
:1036F000354B01933548FCF77BFF012800F0F4813E
:10370000022800F04882324CDFF8CCB0DFF8D090CD
:10371000204801F0ABFF00287DD01E4801F0B2FF29
:10372000C0F30722D3B2012BC5B200F02781327853
:10373000032A00F28281DFE802F055020255002BD5
:10374000E6D1002D59D0DAF80030C3EBC3030BEB00
:1037500003029279500700F17A82019B1B78002BBB
:1037600000F00E82D9F80030002B46DD0C4B1B78A0
:10377000002B00F09783029B1B78002B3DD0154F48
:103780003B78002B39D0DAF80000FEF739FB002334
:103790003B7032E0B824FF1FF425FF1F381DFF1FC8
:1037A000F81CFF1F601BFF1FF022FF1F7C24FF1F60
:1037B000561DFF1F641DFF1FEC22FF1FED22FF1F80
:1037C000A326FF1F1426FF1F201DFF1F0026FF1F1B
:1037D000FC1CFF1F2824FF1F7010FF1FEC28FF1F79
:1037E0009824FF1F002B93D1964B002D40F00F82A1
:1037F00029461A681920FDF74DF8934A934B126831
:103800001A921A9A43F8252091480023635501F033
:103810002DFF002881D18F4ADAF80030D2F800E07D
:1038200062780592A2780992079A8B4912780B92D6
:10383000029A854D12780A92049A96F800C012688E
:103840000E92039A814E12781192844A1490127843
:103850001292019A109012781392009A0F90127897
:103860000D92B022C3EBC30902FB03F315930C9036
:10387000894408900346A846E25C002A4DD0296896
:103880001B911B9956F82370C91B8E454FEA830B79
:1038900043D8D8F800101C911C99CF1B42F20E712E
:1038A0008F423AD80CF1FF3101292ED899F8061031
:1038B00049072AD4059941BB099931BBD91E07296B
:1038C00041F230820A2B20DD0A99F1B90B99E1B956
:1038D000A3F10B0108460E91159F01EB810100EB4E
:1038E00041015F483944014410468A781390C2F37D
:1038F000001787F0010767F304128A701490129082
:10390000109011900F900C900D902A681D921D9AA6
:10391000A2F51C520F3A46F80B2001331B2BABD1FA
:10392000089B002B41F03A830C9B23B1009B1A4665
:103930009DF8343013700F9B1BB1049B1A460E9BED
:103940001360109B23B1039B1A469DF844301370FB
:10395000149B1BB1414B9DF848201A7020B1019B6C
:103960001A469DF84C301370BCF1030F01F26982C6
:10397000DFE81CF06B0A280A280A6B0A625575B941
:10398000384B1B78002B40F047813378032B3FF6F0
:10399000BFAEDFE813F0D400E000E000D4003378DD
:1039A000032B3FF6B5AEDFE813F04A010400040034
:1039B0004A01002D00F0CF80234B244A1B68199345
:1039C000039B19991B7842F82510A5F10B01002BD8
:1039D00000F04581019B24481B78002B00F0E78113
:1039E000049BDAF800201B68204921481C4F096815
:1039F00050F82500DFF87CC0C9F8005003EB830EB7
:103A000003EB4E034FF0B00E0EFB023301EB41010E
:103A100017F803E09CF800C000EB810161F3060E8B
:103A200007F803E00D4B00211970BCF1000F00F006
:103A30008084009A012313706AE6002B3FF4DDAE08
:103A400066E600BF700CFF1F7C2EFF1F0823FF1FC0
:103A5000B824FF1F6C0DFF1F7010FF1F551DFF1FA7
:103A60006C1DFF1FB424FF1F201DFF1FE828FF1F30
:103A700038D50000F81CFF1FBDF95E40AA4A04FBC0
:103A800003F4127804EB84041C44002A00F0AC8098
:103A9000A64AA74B00931D46A64913780391A64951
:103AA00007911C44A549029184F30204A44906919C
:103AB0001470FEF7E9FFA34BA34A1B681893189BE9
:103AC0001268A249A248A34EDFF8D4A2013B9B1A78
:103AD0000B60A14B04930122A04B2A700193FCF7C9
:103AE00087FD01287FF40CAE904A3378127899480C
:103AF0009A4200F0E6818C4C2178002940F0A281A6
:103B0000002B00F08E80032B00F08B80013B012BFB
:103B100066D8039B1B78002B00F0B381019B1B78B8
:103B2000002B00F0AE81079B1B78002B40F06383D5
:103B30008B4B1B68002B40F056868A4972E08A4BFB
:103B400064211A681920FCF7A5FE884A137883F0CF
:103B500001031370DCE5039B1B78002B00F0A380AE
:103B6000019B1B781BB1049BC9F800501D60019993
:103B700000230B7003990B70009B01221A70C7E59C
:103B8000029B1B78002B3FF438AED9F80030002B95
:103B90003FF7ECAD31E6029B1B78002B00F08881EB
:103BA000DAF80030724A734952F82340B02004F02A
:103BB0007F0400FB03F0002202EB820302EB4303CD
:103BC00003440132CD5C64F30605CD540B44102A46
:103BD0009D786FF303059D70EED1674B01221A703B
:103BE000009A012313708EE5524A03921278002A3C
:103BF00000F08580574E3278013A012A40F2EF8179
:103C00004B4B00934C4B07934C4B02936AE5284671
:103C10001968FEF70FFAF0E5FFF7E0F8FFF752F941
:103C2000B3E656490B68564A013382FB0320DA1784
:103C3000C2EB600202EB82029A1A0A60D0E7514B93
:103C4000494A196812682846FEF7BCF960E51BF876
:103C50000310090901312846FEF7ECF97DE5079AC2
:103C60001278002A00F0B7806A1E012A7FF650AD54
:103C7000EA1E072A00F29F826078CAF800204249B3
:103C8000002840F012848B78002B3FF4D2AE3948E4
:103C90003E49B02303FB02001A4604F0E7F83C4B10
:103CA00001221A73C5E6079B234A1B78002B79D1A2
:103CB000029B224A1B78002B74D16378324A002B76
:103CC00040F093829378002B40F05B83314F3B7838
:103CD000002B00F0748430483D7001F069FB2F4BDD
:103CE0003D701D60FCF72CFD2B4801F061FB0FE5DA
:103CF0002046FDF7EFFB2046FDF702FCDAE40E4A12
:103D000007921278002A40F0E7800C4A029212785B
:103D1000104E002A00F061823278013A012A40F206
:103D20009183034B0093DDE4B424FF1F541DFF1F58
:103D30007C24FF1F561DFF1F641DFF1FED22FF1F68
:103D4000A326FF1F7C2EFF1FC00DFF1FF025FF1FA6
:103D50000026FF1FEC22FF1F1426FF1F201DFF1F40
:103D60001C24FF1F440DFF1F700CFF1FEC25FF1FBD
:103D7000AC10FF1F6C1DFF1FE125FF1F3C0DFF1F37
:103D800067666666580EFF1FFC1CFF1FAC0FFF1F07
:103D9000700DFF1FF81CFF1FF42BFF1F1826FF1FBD
:103DA000EC28FF1F1570009A01231370B0E46B1EFE
:103DB000012B7FF6ADACEA1E072A40F2F5810A2DF1
:103DC0007FF7A6AC049A1160B74A01231370009ADA
:103DD000037013709CE4029BB4481B78002B00F026
:103DE000D680DAF80020B24BB24953F82200B24B29
:103DF000D1F8008053F82570DFF814E30499C9F86E
:103E0000005000EB800300EB43034FF0B00C0CFBC1
:103E10000233DFF8B0C208601EF803009CF800C04F
:103E200008EB480107EB810161F306000EF803007F
:103E3000BCF1000F00F0F981A04A01231370009A31
:103E4000137065E49E499F4B027000250D601D7044
:103E5000FCF776FC9C4801F0ABFAA9B200229B4823
:103E6000013501F0C1FD1B2DF7D106990023012278
:103E700023700A70FEF708FE3378002B7FF443AE00
:103E8000CFE6079B1B78002B40F0B581029B1B7887
:103E9000002B00F08B828E4B1B68002B40F04D8373
:103EA0008C49BFE6DAF800102846FEF73BF962E4D9
:103EB000894A8A4B3178117001221A70FEF7E4FDAD
:103EC0008EE6864A117800293FF41AAE002111705F
:103ED000002B7FF418AEA4E6814E3278013A012A15
:103EE00000F25F817F4F3868042800F06184002869
:103EF00040F06983DFF824A27B4DDAF800207B4B89
:103F0000224482F30302CAF800201B68002B40F011
:103F10000183DAF80020764BC2EBC2021344DA7850
:103F200004EB12110629A8BF062121EAE17161F311
:103F30000712DA702D68002D40F0C882DAF80070A0
:103F40006B4BF800C21B99189A5C497801F00F017D
:103F5000091902F00F0200F10E858A42A8BF0A4635
:103F600002F00F02C01B0344624950480091597887
:103F700002906148069062F3030159705F4B04930D
:103F80005F4B0193009A01231370FFF7B3BBDAF87C
:103F90000030DFF888E1C3EBC3020BEB0207BF7907
:103FA0007F0700F148816A1E012A7FF6B1ABEA1E45
:103FB000072A00F2DD826378002B00F0EF82414B8C
:103FC0001978002940F0EA82394DCEF8002045F8F2
:103FD0002210009A012303701370FFF799BB494A1E
:103FE00007921278002A7FF47DAF304A029212784D
:103FF000002A40F02782424A01921278002A00F0FB
:104000008F80414A1068032800F2F684002BC0F22A
:1040100098853A4BDFF804A104933C4B1B68002BB6
:1040200040F04784049BDAF8002018683849394B7F
:1040300000EB800500EB4500B02505FB02054A5D5D
:1040400002F07F00204480F3070060F306024A5527
:104050001B68304D1BB92046FDF732FF2B68012B42
:1040600000F09884022B40F08785049BDAF800204A
:104070001B68294903EB830003EB4003B02000FBDE
:10408000023319441B4B00934A7802F03F031C444F
:10409000232CA8BF232424EAE474134664F3050305
:1040A0004B70154B06936DE7551DFF1FED22FF1F4B
:1040B000FC23FF1FE828FF1F38D500002824FF1F1E
:1040C0001826FF1FF81CFF1FF42BFF1FD81CFF1F13
:1040D0007824FF1F480DFF1F541DFF1FB424FF1F2E
:1040E000EC22FF1FC40DFF1FC80DFF1FCC0DFF1FCB
:1040F0007010FF1F7C24FF1FA326FF1F1426FF1F25
:10410000201DFF1F641DFF1F6810FF1F440DFF1FB0
:104110006C1DFF1FA40CFF1F741DFF1FEC28FF1F49
:10412000AA4BDFEDAB7AD3ED006A07EE104AB8EE8A
:10413000C77A37EE267AB4EEE77AF1EE10FA6AD54E
:10414000A44AF4EE667AF1EE10FAC2ED007A59D084
:104150009FEDA17AC3ED007A9FEDA06AA048A14B24
:10416000009367EE877AA04B069386EE277A9F4BE3
:1041700004939F499F4ADFF8C8A2DFED9F6ABCEE17
:10418000C77A80ED007A036803EB4303DB000B6022
:10419000D1ED007AF8EE677A67EEA67AC2ED007A82
:1041A000F0E6904B00932FE5CAF80020009A012317
:1041B0001370FFF7ADBA0A2D7FF7AAAADAF800301C
:1041C000009DC3EBC30301201BF80320287061F39B
:1041D00003020BF80320FFF79BBA3278032A3FF65D
:1041E000A0ADDFE802F05C6161338449844A0123B9
:1041F0000B7013771DE4834B1B68002B40F0DD80B0
:1042000081490FE5774B0093774B0693774BDFF8A7
:1042100030A20493B6E6DFED7D7AB4EEE77AF1EEF4
:1042200010FAD8BFF0EE477A8AE7794B284619682A
:10423000FDF722FF00E61BF80220754B1209013240
:1042400028461968FDF7BEFEFFF762BA714D2A686D
:10425000042A00F02183634B0093194601230B705D
:10426000012A00F07681002A40F07F816A4B6B4979
:104270001A68DFF8CCA11444042CA8BF04246FF002
:1042800004008442B8BF0446A2420C6072D0564A71
:1042900006921C60554A624B0492019372E65D4B94
:1042A000504A00921A68DBE75E4B1B68042B00F053
:1042B0009183002B40F06884DFF884A15A48DAF833
:1042C0000020224482F30302C2EBC2010144CAF877
:1042D00000208A79520700F13A83544B424A1B6806
:1042E0000692002B40F01883DAF800204E49C2EB0A
:1042F000C20211448A79C2F38000041900F1978444
:10430000012C40F31E8542F004028A710024A1B200
:1043100000224748013401F067FB1B2CF7D1069AB5
:10432000012313702F4B0093304B04933C4B0193AC
:1043300028E6374B28461968FDF79EFEFFF779BB44
:10434000032D40F01384DAF80020374B2549009103
:10435000C2EBC202134437490291197901F07F027E
:104360001444642CA8BF642424EAE4740A4664F369
:1043700006021A711C4B06931C4B0493284B0193A5
:1043800000E6DAF80030C3EBC3035B445A7982F0ED
:104390008001C90961F3C7125A71194B0122002922
:1043A00000F0348283F82C20FFF743BB224B1B68BC
:1043B000002B40F0C8801B4934E4012B00F0CA8177
:1043C000022B7FF40DAC1D492CE400BF380DFF1FFC
:1043D00000002042F01CFF1F0000C042C0E1644CFE
:1043E0008024FF1F7C24FF1FA326FF1F1426FF1F0E
:1043F0009C26FF1FDC25FF1F6F12833AA810FF1FAA
:10440000700DFF1FD028FF1FC40DFF1F0000964333
:10441000580EFF1F3C0DFF1FE828FF1FF825FF1F48
:10442000201DFF1FCC10FF1F7010FF1F780EFF1FF5
:10443000D81CFF1FED22FF1F3C1DFF1FCC0DFF1FCF
:10444000EC28FF1FC54D2A68042A00F0D581012AF7
:10445000DFF858A300F0B681C14B0493002A40F066
:104460008782C04AC04811686318042BA8BF042380
:104470006FF00405AB42B8BF2B46BC4D03609942B8
:1044800018BF13602B681BB92046FDF719FD2B6878
:10449000012B00F03E81022B00F01A81B44B0093F7
:1044A000B44B0693B44B01936CE58978002940F036
:1044B000C180B249B248B02303FB02111A4603F08F
:1044C000D5FCB04B01221A71FFF7B3BA012D40F0B1
:1044D0009A80DAF80050AC4BE9004A1B98189A5CB5
:1044E000407802F00F0214EB101002F1010200F10B
:1044F000D1818242A8BF024602F00F02491B0B4441
:104500009B49A2480091597802909A48069062F31C
:10451000071132E5012B7FF40DADDAF800209A4B3C
:10452000C2EBC20213449A79C2F38001214481F3A1
:10453000010161F382029A71FCE4012B7FF450AB1C
:104540008A49FFF76FBB012B7FF44AAB9049FFF715
:1045500069BB904B19680C44002C03DD102C2246DB
:10456000A8BF10228A4218BF1A60DFF840A201E7F4
:104570000A2D7FF7CDA801EB810201EB4201B020AB
:104580007E4A00FB031153189A78C2F3001181F0A0
:10459000010161F304129A70FFF7BAB8A378002BF7
:1045A0003FF402AEC2EBC2025A449379C3F3000156
:1045B00081F0010161F300039371FFF7A9B8FEF7E1
:1045C0000BF9FFF7A5B8012840F02681DFF8DCA140
:1045D0006D4BDAF80000C1000A1A9A5C02F00F0273
:1045E00001322244002A40F31581102AA8BF10226C
:1045F000013A02F00F02091A674D585C62F303009A
:104600005854664B81E4022D7FF49AAEDAF800200C
:104610005D4B57490091C2EBC2025C4902911344C1
:104620009A7802F00F010C4484F3040464F303024B
:104630009A709FE65A485B4950F8225008684F4FDD
:10464000B02101FB02F200F07F01059105F07F0827
:10465000B9180892FF2003EB8305089A03EB450580
:1046600015447A1917F805E068F3060E07F805E017
:1046700092F802E092F801C0059D6FF3030E82F8F4
:1046800002E092F80AE065F3060C6FF3020E82F87E
:1046900001C082F80AE0C870087148718871C87159
:1046A00092F808E04FF0640C6CF3060E02F1080576
:1046B00082F808E0527A01336FF30502102B01F102
:1046C0000B016A70C7D12F4B01221A75FFF7B1B9E0
:1046D000049BDAF800201B68334903EB830003EBEB
:1046E0004003B02000FB02331944214B00934A7869
:1046F00002F03F031C44232CA8BF232424EAE474C3
:10470000134664F305034B701A4B06931A4B01933F
:1047100038E4049BDAF800201B68184903EB830097
:1047200003EB4003B02000FB02331944104B00930D
:104730000A7A02F07F031C44642CA8BF642424EA94
:10474000E474134664F306030B720A4B06930A4B98
:10475000019317E41049FFF765BA00BF480DFF1F2A
:104760001426FF1FE828FF1FF825FF1F5C10FF1FFE
:104770007C24FF1FA326FF1F201DFF1F6C1DFF1F92
:10478000AC0FFF1F700DFF1F7010FF1FED22FF1FEA
:10479000780EFF1F700CFF1FC80DFF1FCC0DFF1FF1
:1047A000AC10FF1F580EFF1F741DFF1FEC28FF1FCA
:1047B000B04D2B68042B00F0E180DFF80CA3AE4B6A
:1047C000FFF7A3BB002B40F30F81DAF80000FDF7E1
:1047D00017FB2A68A94BDAF80010A94853F82130D2
:1047E000049003603AE6012B00F0D180022B7FF4A5
:1047F000F7A9A449FFF716BAA34D2B68042B00F0C4
:1048000005819F4ADFF8C0A204923CE683F8242089
:10481000FFF70FB90022EEE6022840F07C829B4DA4
:10482000DFF8A4A22A68002BACBF01214FF0FF31B2
:104830000A4402F10F031E2B2A6005D8DAF80000A3
:10484000FDF7EAFF38682A68DAF800309049C3EBD0
:10485000C303CB5C03F00F030133C3F101019142A9
:104860003CDC013B9342A8BF13462B60032840F079
:104870005582DAF8003086487E4DC3EBC303C25C34
:1048800004EB121181F3040161F30712C2547A4B55
:10489000FFF73BBB002231E6002BC0F249823FF418
:1048A000DAAC7C4B7F211A681C20FBF7F3FF2A68E7
:1048B000D1E4012B14D1784A784811686318042B8D
:1048C000A8BF04236FF00405AB42B8BF2B46994242
:1048D000036018BF1360724BFFF7BABB0B46C4E707
:1048E000022B40F0A981049BDAF800201B686D4977
:1048F00003EB830003EB4003B02000FB02331944B9
:10490000674B4A7802F07F00204480F3070060F391
:1049100006024A70FFF79CBB012B00F0D780022BE8
:1049200000F08F80032B7FF4FDACDAF800205E49A5
:104930005E4B00938B5C234483F3010303F001037C
:104940008B544F4B04935A4B0193FFF71BBB1D46EF
:10495000A9B200225748013501F046F81B2DF7D1C6
:10496000554B06931946554B01220A701B68B8E453
:10497000454D2B6887E52A46FFF7F4BA3E4B1A6887
:10498000042A00F02981DFF840A1FFF7BEBA4449AC
:10499000FFF748B9049BDAF800201B68414903EB94
:1049A000830003EB4003B02000FB023319443F4B6C
:1049B00000930A7A02F07F031C44642CA8BF64248D
:1049C00024EAE474134664F306030B723A4B06932D
:1049D000FFF7D8BA394B1B68042B00F0D380364A56
:1049E000DFF8E4A006927CE43FF4F4AEDAF80000CD
:1049F000FDF724FA2A68EDE60428314B18D0204A46
:104A0000DFF8C4A01B680492FFF709BB2D4A274BAF
:104A10000093136828490691234483F3010313602C
:104A2000174B0493224BDFF8A0A00193FFF7AABA1B
:104A30001B68042B6AD0124ADFF88CA00492FFF79F
:104A4000EEBADAF80020124B18490091C2EBC2020C
:104A50001344DA7804EB1214062CA8BF062424EAC7
:104A6000E47464F30712DA70054B0493104B01935E
:104A7000FFF788BAC80DFF1FCC0DFF1FFC23FF1FD7
:104A80001426FF1F6810FF1F5C10FF1F2424FF1F48
:104A90007010FF1F700CFF1FE828FF1FF825FF1F75
:104AA000A40CFF1F6C1DFF1F6010FF1F7C24FF1F45
:104AB000201DFF1FD81CFF1FA326FF1F780EFF1FFE
:104AC000440DFF1F7824FF1FEC28FF1FDAF80000B9
:104AD000A04BC1000A1A9A5C02F00F020132144482
:104AE000002C1DDD102C2246A8BF1022013A02F036
:104AF0000F02091A98480090585C62F3030058545A
:104B0000964B0493964B0193FFF73CBA954B1A686A
:104B1000042A07D0914ADFF8A8A20492FFF798BAB6
:104B20000022E6E79049DFF898A20A682244022AA8
:104B3000A8BF022222EAE2720A60884A0492FFF7C2
:104B400087BA864B0493DFF878A21B68DAF8002056
:104B5000864903EB830503EB4503B02505FB0233D0
:104B600019440B18FF22DA70FFF757BA7A4B0093FB
:104B70007F4B0293FFF7FEBB774B00937D4B069371
:104B8000FFF700BA7C4A42E7012B32D1DFF830A2AE
:104B90007649DAF80030B02505FB03F55FFA84FEAC
:104BA000002303EB830203EB42022A440133885CB7
:104BB000C0F30607774467F30600102B8854F0D142
:104BC0006E496F4B0A681B68224402F306020A60B2
:104BD000684A0692FFF785BB6A49DFF8E4A10A68D4
:104BE0002244022AA8BF022222EAE2720A60FFF7E8
:104BF0008CB9022B3CD1DFF8C8A1564ADAF8003054
:104C00006149C3EBC3031A44507900F07F03234486
:104C1000632BA8BF632323EAE37363F30600507199
:104C2000574A0B701368534A0692FFF75ABB63F357
:104C300082028A71FFF776BB032B7FF44CAE049B94
:104C4000DAF800201B68494903EB830003EB4003BB
:104C5000B02000FB02331944424B8A7802F00F0067
:104C6000204480F3040060F303028A70FFF7F0B978
:104C7000032B20D1454BDFED467AD3ED006A07EEDA
:104C8000104AB8EEC77A37EE267AB4EEE77AF1EE3C
:104C900010FA08D4DFED3F7AB4EEE77AF1EE10FABD
:104CA000D8BFF0EE477A3C4AF4EE667AF1EE10FA9D
:104CB000C2ED007A07D1324B2E4ADFF804A11B68FF
:104CC0000692FFF70EBB9FED357AC3ED007A9FED9C
:104CD000346A344A3449DFED356A294B3448254D6E
:104CE0001B68DFF8DCA0069567EE877A86EE277AE8
:104CF000BCEEC77A82ED007A126802EB4202D20063
:104D00000A60D1ED007AF8EE677A67EEA67AC0ED18
:104D1000007AFFF7E6BADFF8A8A0A7E5254D264BF5
:104D2000FFF7F3B80C920D9208920B92FEF7EDBDCF
:104D3000224B00211A681C20FBF7ACFD2A68FFF704
:104D40008ABA64F382028A71002C3FF4EBAAFFF75F
:104D5000DDBA00BF7010FF1F7C24FF1F1426FF1F49
:104D6000201DFF1FA40CFF1F1C24FF1F6C1DFF1F15
:104D7000ED22FF1FA326FF1F3C1DFF1F301DFF1F3D
:104D8000780EFF1FD028FF1FB524FF1F380DFF1F0F
:104D90000000204200009643F01CFF1F0000C042AC
:104DA000C0E1644C8024FF1F9C26FF1F6F12833AD2
:104DB000DC25FF1FC80DFF1FCC0DFF1F700CFF1F50
:104DC000EC28FF1F7C4C2378002B61D17B487C4969
:104DD00003681E937B4A1E9B096812685B1A9A42FD
:104DE00056D203681F931F9B1432591A8A424FD917
:104DF000DAF80030744A0099C3EBC303134401226C
:104E00009B790A705A0765D4039B1B78002B69D0E5
:104E10006E4B1B68002B00F08380012B00F0A880F4
:104E2000022B00F09F80079B1B78002B6ED1029B0A
:104E30001B7833B1664B1B68002B79D0012B00F037
:104E40009F80009B1B784BB913E0FCF7B5FC009BDF
:104E50001B7873B1584B187800283ED0574C5D4DE5
:104E6000236820935C4A209B296812685B1A9A4247
:104E700025D3069B594C1B78DBB9FBF771FC002846
:104E8000FBD1FCF78DF90028FBD123B0BDE8F08FF2
:104E9000DAF800304C4AC3EBC30313449B795B0739
:104EA00018D4009B1B78002BE3D02378002BD5D19E
:104EB000AAE74B4800F0B6FC00232370DDE7494821
:104EC00002F014FC23682193219B009A2B6000239D
:104ED0001370CEE7FCF770FCE3E7434B1968FEF76D
:104EE0002FF9AEE7079B1B7883B9029B1B78002B39
:104EF0009DD13E4B1B68002B4AD0012B55D0FDF7AE
:104F000083FD039B1B78002B8DD081E7384B1B68FA
:104F1000B3B1012B20D0022B18D0FDF775FD86E729
:104F2000344B04201968FEF70BF9079B1B787CE7CC
:104F3000314B09201968FEF703F9FDF765FD80E79D
:104F40002E4B06201968FEF7FBF8E6E72C4B0820ED
:104F50001968FEF7F5F8E0E72A4B07201968FEF715
:104F6000EFF8DAE7284B03201968FEF7E9F85AE76B
:104F7000264B05201968FEF7E3F8079B1B7854E7DA
:104F8000234B05201968FEF7DBF8FDF73DFD58E7D8
:104F9000204B01201968FEF7D3F8B0E7079B1A46AB
:104FA0009DF82C301370FEF7BFBC1B4B0220196814
:104FB000FEF7C6F8A3E700BFB424FF1F7C2EFF1F37
:104FC000181DFF1FA40FFF1F7010FF1F1C24FF1FC1
:104FD0007824FF1FF025FF1FC00DFF1FA326FF1F12
:104FE000D81CFF1F601BFF1F3C0DFF1F3C1DFF1F38
:104FF000D028FF1F440DFF1F480DFF1FC40DFF1FCA
:10500000CC0DFF1FC80DFF1F6810FF1FA40CFF1F52
:105010005C10FF1FCC10FF1F780EFF1F70B5184DDE
:1050200082B0284602F056FAB5F90C1001291FDDAE
:105030000022012694B26300688901969BB2C91AC6
:1050400009B2C31A1BB200910D48114601F0FEFAD5
:105050000B4802F04BFB012003F0C4FDB5F90C1026
:10506000023401EBD17322B243F34F039342E1DCEC
:105070004FF4FA7002B0BDE8704003F0B3BD00BF5A
:10508000601BFF1FFFFFFFFF2DE9F047864A874B9C
:105090001268874D874C884F884E82B00192019AE2
:1050A0001A6003F07BFD864B186003F077FD854B9B
:1050B000DFED856A93ED007ADFED847A844B854AD3
:1050C0009FED856A8549286067EE266A022587EE8E
:1050D000A67ABCEEC77A83ED007A1B6803EB430324
:1050E000DB001360D2ED007AF8EE677A67EE867A1D
:1050F000C1ED007A03F052FD206003F04FFD784BC4
:10510000D4F800E018600023C3EBC302324407EB7D
:105110000311D478C1F804E0013365F30714082BB8
:10512000D4708860F0D10D2003F080F805F0B2F85B
:105130000D2003F047F80024DFF8E081694FDFF825
:10514000E0A14FF084492646382005F0B5F89FEDE0
:10515000620A01220021054600F02AFD4AF8246077
:1051600001344FF40053052C48F8045BC5F8109047
:1051700047F8046B6B60E7D1FBF77CFA012117203D
:1051800003F006FD584C594D0C231846237003F0CC
:10519000DBFC207807F03CF89FED410B41EC110B54
:1051A00005F0B6FD51EC100B07F058FB504B288072
:1051B0004022002121201A6003F026FBFDF756FE55
:1051C000002869D14B494C4A4C4B4D4F08704FF069
:1051D000010E152616251724106018210722C7F87E
:1051E00000E01E605D609C60D9601A61FDF786FD7D
:1051F000444C454DFBF75EF92846A56002F06AF97C
:10520000FFF70CFFC82003F0EDFC284602F062F91E
:1052100004F10800012101F001F8002104F1080067
:1052200000F0FEFFFDF7C4FC384800F0EDF9384807
:1052300000F0A4FA364800F0F5FA3221344800F0C4
:1052400079FC0024A1B2334A314800F0CDFB30484C
:1052500000F0E8FA0134052003F0C4FC1B2CF1D166
:105260000520FDF77BFC4FF4FA7003F0BBFC002235
:1052700023461146264800F0BDFB254800F0D2FA2F
:10528000642003F0AFFC204802F030FA224B0122E8
:105290001A7002B0BDE8F087FDF73AFEA8E700BF3C
:1052A00000000000000000407C2EFF1F181DFF1FA3
:1052B000381DFF1FCC28FF1F1C26FF1F7010FF1F6B
:1052C000F425FF1F380DFF1F0000C042C0E1644CF1
:1052D0008024FF1F9C26FF1F6F12833ADC25FF1FCF
:1052E000D825FF1FB826FF1F7423FF1FA026FF1F0E
:1052F000681DFF1FEC22FF1FEC28FF1F740CFF1F0F
:10530000700CFF1F2C24FF1F601BFF1FB824FF1F02
:10531000D81CFF1F808080007C24FF1FA024FF1F5B
:10532000A426FF1FF0B400259DF810702C4602E063
:105330000134202C10D0465D1435002EF8D104EB3A
:105340008404A400061901250555284671603361BF
:10535000B2603773F0BC70470020F0BC704700BFEC
:10536000F8B50E4600F1100400F52475002702E0A0
:105370001434AC4215D014F8103C002BF8D023683C
:10538000B342F5D854F8082C54F80C0C0021FBF764
:1053900059FA14F8043C2BB904F8107C1434AC42CC
:1053A000E9D1F8BD0021172003F0DEFBF4E700BFD0
:1053B0004FF0FF31FFF7D4BFF0B400259DF8147013
:1053C0002C4602E00134202C12D0465D1835002E08
:1053D000F8D104EB4404E400061901250555716079
:1053E000049971612846B360F2603774F0BC70476D
:1053F0000020F0BC704700BFF8B50E462DED028BC3
:1054000000F114049FED1E8A00F54575002702E0A7
:105410001834AC421BD014F8143C002BF8D023688D
:10542000B342F5D854F80C2C54F8081C54F8100C5E
:10543000FBF7E0F914F8043C23B154F8103C183B96
:10544000352B07D904F8147C1834AC42E3D1BDECF9
:10545000028BF8BD07EE903AB8EEE70A20EE080A94
:1054600005F026FC0121F0EE408A172003F07CFBBA
:10547000FDEEE87A212017EE901A03F0C5F9E1E776
:1054800090759242002308491A46CA541433B3F562
:10549000207FFAD1002305491A46CA541833B3F5C0
:1054A000407FFAD1704700BFF42BFF1FF428FF1F85
:1054B000F8B504460E46154600214FF480721030B0
:1054C0001F4607F039FD069BC4F818310022079BE0
:1054D000C4F8102126606560A760C4F81C31E26042
:1054E000C4F814212046F8BD10B50446C06808B1C0
:1054F00007F062FA204610BD2DE9F843D0F81C31C0
:10550000002B7EDD04460025A3680121585D03F0D1
:105510002BFBD4F81C310135AB42F5DC002B6EDDE2
:105520000026B0460127A3680021985D03F01CFB0C
:105530004FF49663013BFDD1D4F81831002BC8BF5E
:105540004FF000092EDC4EE0990724D5D4F8101155
:10555000D4F814010131C9B203F0FD03814243F0D4
:10556000080306D0D4F81001204480F81080C4F855
:105570001011D4F81001D4F814110130C0B28842CF
:1055800009D0D4F8101104EB010E2168495D8EF8A2
:105590001010C4F810015355D4F8183109F101095D
:1055A0004B4520DD6368D4F81C5113F8090003F063
:1055B000E1FA05FB0965E268535DDBB20028C3D15F
:1055C0009807E8D4D4F81011D4F814010131C9B205
:1055D000814243F00603CCD0D4F810012044077474
:1055E000C4F81011C5E7A3680121985D03F0BCFA67
:1055F000D4F81C310136B34295DCBDE8F883BDE830
:10560000F883BDE8F88300BF70B5D0F81851D0F822
:105610001C610446012106FB05F007F03FF9002E4E
:10562000E060C8BF002510DDA3680121585D03F0CC
:10563000AFFAA3680121585D03F096FAD4F81C3143
:105640000135AB42F0DCD4F81851002DC8BF00255D
:105650000ADD63680221585D03F09AFAD4F8183124
:105660000135AB42F5DC70BD70BD00BFD0F8103124
:10567000D0F814011B1A4CBF03F580701846401077
:10568000704700BFD0F81421D0F810319A4220D0D2
:10569000D0F81421D0F8143102440133DBB2117C6C
:1056A000C0F81431D0F81421D0F810319A4218D033
:1056B000D0F81421D0F8143102440133127CDBB24B
:1056C000C0F814314FF0000062F3070061F30F20BF
:1056D0007047D0F81421D0F810319A424FF0FF01F2
:1056E000E6D1FF224FF0000062F3070061F30F20C4
:1056F000704700BF037AF0B5160C150AF6B2EDB28A
:105700005FFA82FE5BB103FB06F603FB05F503FBC4
:105710000EFEC6F30726C5F30725CEF3072EC77C7A
:10572000047CBC4214D0C46804EB8101120E0F4407
:105730004BB9D3B23B70077CCE55437CCD54837CB0
:1057400001F803E0F0BD03FB02F3C3F30723F1E725
:10575000C36801EB41011944EEE700BF10B50446F0
:10576000C06807F029F9B4F90600002803DBC0B2CD
:10577000002103F00DFA204610BD00BF10B504460D
:10578000B0F90600002807DBC0B2012103F000FADF
:105790000021A07903F0E8F90123637010BD00BF78
:1057A00038B50446C0680D4607F006F9E37C207C56
:1057B00083420CBF0320042010FB05F080B2A080C0
:1057C000012107F06BF8E06008B1658038BDA0806A
:1057D000608038BDF0B4077CC47CC568C1F3810625
:1057E000FF29A4EB0704C1F3811201F003074674FB
:1057F000B4FA84F48CBF00260126C1F30111C274EF
:1058000064098774067001744DB1511AB1FA81F1BF
:105810004909A14203D04188F0BCFFF7C1BFF0BCE9
:10582000704700BF2DE9F843C368002B57D0456986
:10583000044603F0B3F9854202D903F0AFF9606181
:1058400003F0ACF96569401BB0F5967FF1D372B6F1
:105850004649B4F906500B684548464A50F83500A9
:10586000E668A788257843F080730B60136843F0DF
:10587000010337441360A5B3A1F55D41F8390A6807
:10588000BE4202F1E1021FD289464FF0010C16F828
:10589000018B4FF0080E80250B689B1AE02BFBD97B
:1058A00018EA050FD9F8002080F880C055D00B68A1
:1058B0009B1A8F2BFBD9BEF1010E80F800C14FEA75
:1058C0005505E9D1B742E2D12B490B689B1AE02B71
:1058D000FBD962B603F062F96061BDE8F883BDE808
:1058E000F88325490A68BE4202F5E17220D2894652
:1058F0004FF0010C16F8018B4FF0080E80250B6855
:105900009B1AB3F5E17FFAD318EA050FD9F8002006
:1059100080F880C018D00B689B1AD72BFBD9BEF13A
:10592000010E80F800C14FEA5505E8D1B742E1D138
:1059300011490B689B1AB3F5E17FFAD362B603F005
:105940002DF96061BDE8F8830B689B1A592BE6D8E6
:105950000B689B1A592BF7D9E1E70B689B1A2C2B84
:10596000A9D80B689B1A2C2BF7D9A4E7FCED00E013
:1059700040260100001000E0041000E038B5437834
:105980006BB10446B0F9060000280D4609DBC0B231
:10599000002103F0FDF86378E5801BB938BDC180B4
:1059A00038BDE180EDB22846012103F0F1F8284628
:1059B0000021BDE8384003F0D7B800BF70B500251E
:1059C00004460E46457019460572C5604561154688
:1059D000FFF700FF31462046FFF7E2FE204629464A
:1059E000FFF7CCFF204670BD43888B4201D9FFF7FB
:1059F00081BE7047F8B514464288A24215D90646C2
:105A00000F469BB91546134604E00134A4B2AC42DC
:105A10000BD27388A342F8D9214601343A46304666
:105A2000A4B2FFF767FEAC42F3D3F8BDE518ADB200
:105A3000954228BF1546AC42E5D3F8BD40F2FA5373
:105A400003FB00F000F500400014B0F5FF7F10B438
:105A500023DAFE2845DDC0F1FE034C1CDBB204FB5B
:105A600003F3C4EB04241B1224120020C943C9B25F
:105A700001320C440B44084402FB04F402FB03F320
:105A800004F47F441B0202FB00F244EA122003F4F8
:105A90007F0318435DF8044B7047B0F57F7F84B2F5
:105AA0000DDAB4F53F7F26D8831C4C1CDBB204FB17
:105AB00003F3C4EB0424181224120023D6E79C42FB
:105AC00025D040F2FA439C4228D9C0F1FA004B1C81
:105AD000C0B203FB00F0C3EB032300121B1200242F
