:1000000000800020BD010000117D0000C97C0000BF
:10001000C97C0000C97C0000C97C0000C97C0000CC
:10002000C97C0000C97C0000C97C0000117D000073
:10003000117D0000C97C0000E1960000E5960000FB
:10004000117D0000117D0000117D0000117D000078
:10005000117D0000117D0000117D0000117D000068
:10006000117D0000117D0000117D0000117D000058
:10007000117D0000117D0000117D0000117D000048
:10008000117D0000117D0000117D0000117D000038
:10009000117D0000117D0000117D0000117D000028
:1000A000B5750000C1750000117D0000117D0000D4
:1000B000117D0000117D0000117D0000117D000008
:1000C000117D0000117D0000117D0000117D0000F8
:1000D000117D0000117D0000117D0000117D0000E8
:1000E000117D0000117D0000117D0000117D0000D8
:1000F000117D0000CD9F0000117D0000117D0000EA
:10010000117D0000117D0000117D0000117D0000B7
:10011000117D0000117D0000117D0000117D0000A7
:10012000117D0000117D0000117D0000117D000097
:10013000117D0000117D0000117D0000117D000087
:10014000117D0000117D0000117D0000117D000077
:10015000117D0000117D0000117D0000117D000067
:10016000117D0000DD850000117D0000117D000083
:10017000117D0000117D0000117D0000117D000047
:10018000117D0000117D0000117D0000117D000037
:10019000117D0000117D0000117D0000117D000027
:1001A000117D0000117D0000117D0000117D000017
:1001B000117D0000117D0000117D0000564B4CF2B6
:1001C000205210B51A804DF628121A8000BF00BFC9
:1001D00007F0A2FD514B4FF010621A60504A9A602E
:1001E000504ADA60504A136813F4807304D14F49BF
:1001F0000B604FF4A85313604D4B1A78110703D5C9
:100200001A7842F008021A704A4B4B492A221A7097
:100210004A4A4B4B8B4204D252F8040F43F8040B6A
:10022000F8E7484B484900228B4202D243F8042B9E
:10023000FAE74649464A002352F8230041F82300D2
:1002400001336F2BF8D1434B434A802103F8011B44
:100250009342FBD1414B3D4A1A60414B8A221A70AE
:10026000A3F5805324225A70A0221A709A7992071B
:10027000FCD59A79D406FCD43A4A937903F00C035E
:10028000082B384BF9D103221A7146225A719A79F8
:100290009006FCD5334A9179324B4906FBD5324A58
:1002A0004FF0827111600921516020221A709A79F1
:1002B00002F00C020C2AFAD12C4B2D4A1A602D4B5D
:1002C0002D4A1A6000225A60072243F8042C2B4A58
:1002D000C3F80C2D62B608F027F8144B1B68DA0738
:1002E00005D5274807F076FE264B274A1A60274B8C
:1002F0001B785B0609D5234C234B22689A4204D114
:100300001F4807F067FE002323600CF007F807F092
:1003100009FD09F085FAFEE70E2005403080044013
:10032000823F04000100002B10D0034014D0034092
:1003300002D0074000E00740849AFF1F902101008F
:10034000308CFF1F849AFF1FD8ADFF1F0082FF1F54
:100350000000000000E400E05FE400E008ED00E0E1
:1003600000500640004006404480044004800440A1
:10037000C010050014E000E0BFD401000000202000
:10038000B0ABB6601CE00340A5C3945A00F0074030
:10039000FFFFFFFFFFFFFFFFFFFFFFFFFFFFFFFF6D
:1003A000FFFFFFFFFFFFFFFFFFFFFFFFFFFFFFFF5D
:1003B000FFFFFFFFFFFFFFFFFFFFFFFFFFFFFFFF4D
:1003C000FFFFFFFFFFFFFFFFFFFFFFFFFFFFFFFF3D
:1003D000FFFFFFFFFFFFFFFFFFFFFFFFFFFFFFFF2D
:1003E000FFFFFFFFFFFFFFFFFFFFFFFFFFFFFFFF1D
:1003F000FFFFFFFFFFFFFFFFFFFFFFFFFFFFFFFF0D
:10040000FFFFFFFFFFFFFFFFFFFFFFFFDEF9FFFF23
:1004100010B5054C237833B9044B13B10448AFF33E
:1004200000800123237010BD849AFF1F000000008C
:100430008C210100084B10B51BB108490848AFF3E7
:1004400000800848036803B910BD074B002BFBD0A0
:10045000BDE81040184700BF00000000889AFF1F49
:100460008C210100849AFF1F0000000010B584B0A9
:100470000A4C0B4B02930B4A01924FF0FF3300934F
:100480002046094B2022802106F060F8074A0849DF
:10049000204604B0BDE810400AF054BFA09AFF1FE8
:1004A000801A060040420F009C8FFF1F0C8DFF1F1B
:1004B000A565000030B5094C83B0012520460095A4
:1004C0002B463C22022106F0C3F920460221A576E4
:1004D00003B0BDE8304005F08BBB00BFA09AFF1F02
:1004E00070B5CEB2044680E80600D5B2304602218F
:1004F00007F0A4FE0221284607F0A0FE304607F0D0
:100500008FFEA060284607F08BFE0023E060236189
:100510006361204670BD00BF30B5044683B00078EB
:1005200007F07EFE0546207907F07AFEA3689D421B
:10053000E36824D0984231D0A560E060ADB1A0B1AD
:100540002369012B37DD0023236101221E4B6169E2
:100550001B680193019B63615B1A132B32D9312B0A
:100560008CBF002301231BB201E00022134692B28C
:10057000002062F30F0063F31F4003B030BD9842C8
:10058000F3D02369A56085420CBF01224FF0FF32F2
:1005900013442361E060002DE7D0D0E72369A56014
:1005A000854214BF01224FF0FF3213442361E06003
:1005B000002DDAD0C3E7002201332261D5DA4FF0F3
:1005C000FF32C3E70223D2E730AAFF1F10B504466B
:1005D0000160C8B2022107F031FE00234FF0FF3165
:1005E000032261602273A3602361204610BD00BF17
:1005F00010B5044682B0007807F012FE6368984296
:100600001A4B08D01B680093009B60603233A360D4
:10061000002002B010BD1B680193A268019B9A42A2
:1006200009D8217B4A1E032A05D8DFE802F00F0211
:100630000707012818D0002002B010BD0028FAD109
:1006400003F2E243012023612073E2E730B1012885
:10065000F1D1032088422073DBD1ECE722699A4272
:10066000E9D202202073D4E70420F3E730AAFF1F69
:10067000704700BF10B5184C636D1868036882B0EE
:10068000DB6947F612219847144B1B680193012040
:10069000019BC4F8003100FA00F200234FF6FF710D
:1006A000024384F8580084F8702084F85A3084F8A3
:1006B00059306366236684F8F83084F8753084F81E
:1006C000743084F8763084F87730C4F8FC30A16652
:1006D000E16602B010BD00BF089BFF1F30AAFF1FDC
:1006E00010B54FF60F0008F025FD044B5B6D186840
:1006F0000368F8211B68BDE810401847089BFF1FDE
:1007000010B54FF60F2008F015FD044B5B6D18680F
:100710000368FA211B68BDE810401847089BFF1FBB
:1007200010B54FF60F3008F005FD044B5B6D1868EF
:100730000368FB211B68BDE810401847089BFF1F9A
:1007400010B54FF60F4008F0F5FC044B5B6D1868D0
:100750000368FC211B68BDE810401847089BFF1F79
:1007600008B5002008F04AFD003018BF012008BD80
:100770002DE9F041E0290C469DF8185008D8013DBC
:10078000EDB20F2D02D849B2002912DBBDE8F0818D
:10079000F729FBD90834E4B2012303FA04F414F076
:1007A000DD0FF3D0436D18680368BDE8F0411B68A6
:1007B00018471F46436D8046186803682943C9B22D
:1007C0001B6816469847D8F854301868036806F036
:1007D0007F011B6804F0EF049847C02CD6D0D8F8EE
:1007E00054301868036807F07F011B68BDE8F041CA
:1007F000184700BF2DE9F0415FFA82F80C0608F1B6
:10080000FF3504F0FE4444F410442D02064605F47E
:10081000706544F00904000482B02C4300F4FE002B
:100820000F46204308F086FCCDF80080FBB2F2B200
:1008300090210348FFF79CFF02B0BDE8F08100BFA4
:10084000089BFF1F2DE9F0415FFA82F80C0608F1C2
:10085000FF3504F0FE4444F400442D02064605F43E
:10086000706544F00804000482B02C4300F4FE00DC
:100870000F46204308F05EFCCDF80080FBB2F2B2D8
:1008800080210348FFF774FF02B0BDE8F08100BF8C
:10089000089BFF1F2DE9F0415FFA82F80C0608F172
:1008A000FF3504F0FE4444F430442D02064605F4BE
:1008B000706544F00B04000482B02C4300F4FE0089
:1008C0000F46204308F036FCCDF80080FBB2F2B2B0
:1008D000B0210348FFF74CFF02B0BDE8F08100BF34
:1008E000089BFF1F036810B504460BB1743098478E
:1008F00094F87530803B7F2B00F28580DFE813F0A1
:100900008A008300830083008300830083008300C8
:1009100083008300830083008300830083008300BF
:10092000960083008300830083008300830083009C
:10093000830083008300830083008300830083009F
:100940009A00830083008300830083008300830078
:10095000830083008300830083008300830083007F
:100960009E00830083008300830083008300830054
:10097000830083008300830083008300830083005F
:10098000A200830083008300830083008300830030
:10099000830083008300830083008300830083003F
:1009A000AC00830083008300830083008300830006
:1009B000830083008300830083008300830083001F
:1009C000B0008300830083008300830083008300E2
:1009D00083008300830083008300830083008300FF
:1009E000C4008000D100E10083008300E90083009F
:1009F000ED00F100F500F900FD0083000101840025
:100A0000A36A002B60D110BD236D002BFBD0BDE885
:100A100010401847A368002BF5D094F8772094F87D
:100A2000761094F87400BDE810401847E368002B76
:100A3000F3D1E8E72369002BEFD1E4E76369002BEA
:100A4000EBD1E0E7A369002BDDD094F8761094F8A1
:100A50007400BDE810401847E369002BF5D1D2E7D8
:100A6000226A002ACFD094F8771094F8763094F860
:100A70007400C90101F47E5103F07F031943A1F50D
:100A80000051BDE810401047636A002BBBD0B4F89A
:100A90007610802904F1780028BF8021BDE810403D
:100AA0001847E26A002AAED094F8773094F87600BE
:100AB000DB0103F47E5300F07F001843BDE81040D3
:100AC0001047236B002B9ED094F87600BDE81040B1
:100AD0001847636B002B9AD195E7A36B002B96D137
:100AE00091E7236C002B92D18DE7E36B002B8ED125
:100AF00089E7636C002B8AD185E7A36C002B86D134
:100B000081E7E36C002B82D17DE700BFF8B5436D30
:100B10000446186803681B69984708B90020F8BDA7
:100B200094F80D31626D23F0010384F80D311068E3
:100B300003685B699847C3B2FD2BEFD0626E002A51
:100B400049D001067ED494F85B10F0295FD0F729D4
:100B50005DD0A11881F85B30216E4B1E9A4253D3B1
:100B600094F85B30F02B00F00A82F72B00F007823C
:100B70001A0650D4002284F87520B02A5CD0A02A2E
:100B80005AD0D02A58D0E02A56D0C02A54D00020BB
:100B900084F87400032994F85C0008BF94F85D5051
:100BA00084F8760018BF002500210120B02A84F8BF
:100BB00077506166216684F8F80008D000F2D5818C
:100BC000902A04D0A02A02D0802A00D0002384F8E2
:100BD00059300120F8BD94F8592084F85B3015068F
:100BE0004DD440B20028C0F20E8294F90D01636822
:100BF00040F0010084F80D0103B19847002084F80B
:100C0000590060662066F8BD0132626686E7A11869
:100C100081F87830A0E703F10C02D2B2012AA9D9F9
:100C2000FD2BA7D0EF2B00F2EC8103F0F002802A1D
:100C300084F8752040F0EF8103F00F00013084F854
:100C40007400A7E7A3F1F0010F293FF67CAF012064
:100C500000FA01F111F0810540F0B18111F45F4F0C
:100C60003FF471AF84F8765084F8775084F874506C
:100C700084F87530C4F8FC0084F8F800F8BD02F17F
:100C80000C01CDB2012DACD9FD2AAAD0EF2A00F279
:100C9000578102F0F006802E40F0538140B20028C8
:100CA000A0DB0120C9B2814284F85B2084F85C306B
:100CB00060669AD9FD2A98D0EF2A94BF02F0F00519
:100CC0001546A5F180037F2B8FD801A151F823F0A1
:100CD000390F0000EB0B0000EB0B0000EB0B0000EA
:100CE000EB0B0000EB0B0000EB0B0000EB0B00002C
:100CF000EB0B0000EB0B0000EB0B0000EB0B00001C
:100D0000EB0B0000EB0B0000EB0B0000EB0B00000B
:100D1000390F0000EB0B0000EB0B0000EB0B0000A9
:100D2000EB0B0000EB0B0000EB0B0000EB0B0000EB
:100D3000EB0B0000EB0B0000EB0B0000EB0B0000DB
:100D4000EB0B0000EB0B0000EB0B0000EB0B0000CB
:100D5000390F0000EB0B0000EB0B0000EB0B000069
:100D6000EB0B0000EB0B0000EB0B0000EB0B0000AB
:100D7000EB0B0000EB0B0000EB0B0000EB0B00009B
:100D8000EB0B0000EB0B0000EB0B0000EB0B00008B
:100D9000390F0000EB0B0000EB0B0000EB0B000029
:100DA000EB0B0000EB0B0000EB0B0000EB0B00006B
:100DB000EB0B0000EB0B0000EB0B0000EB0B00005B
:100DC000EB0B0000EB0B0000EB0B0000EB0B00004B
:100DD000310F0000EB0B0000EB0B0000EB0B0000F1
:100DE000EB0B0000EB0B0000EB0B0000EB0B00002B
:100DF000EB0B0000EB0B0000EB0B0000EB0B00001B
:100E0000EB0B0000EB0B0000EB0B0000EB0B00000A
:100E1000310F0000EB0B0000EB0B0000EB0B0000B0
:100E2000EB0B0000EB0B0000EB0B0000EB0B0000EA
:100E3000EB0B0000EB0B0000EB0B0000EB0B0000DA
:100E4000EB0B0000EB0B0000EB0B0000EB0B0000CA
:100E5000390F0000EB0B0000EB0B0000EB0B000068
:100E6000EB0B0000EB0B0000EB0B0000EB0B0000AA
:100E7000EB0B0000EB0B0000EB0B0000EB0B00009A
:100E8000EB0B0000EB0B0000EB0B0000EB0B00008A
:100E9000EF0E0000310F0000390F0000310F00008D
:100EA000EB0B0000EB0B0000D10E0000EF0E00007A
:100EB000D10E0000D10E0000D10E0000D10E0000B6
:100EC000D10E0000EB0B0000D10E0000D10E00008F
:100ED0000023012084F8743084F8763084F8773069
:100EE00084F875506366236684F8F800F8BD8021A5
:100EF0000023216684F8785084F859307F21636E8E
:100F00008B422ED302F00F020023013294F85C10C2
:100F100084F87420012084F8761084F8773084F8FF
:100F2000755063662366C4F8FC0084F8F800F8BDC9
:100F3000022323660121E2E7032323660221DEE781
:100F4000164606F0DF05902D3FF4A8AE06F0BF056B
:100F5000A02D3FF4A3AE06F0EF06C02E3FF49EAEE8
:100F60003FE6013363660020F8BDD02A3FF42FAE80
:100F7000E02A3FF42CAEC02A7FF428AE27E6F02208
:100F800080230025012194F8F76084F8752084F807
:100F9000763084F8F720C4F8FC30204684F8775087
:100FA00084F8745084F8F810FFF79CFCF7220223B1
:100FB00084F8796084F8782028466366F8BD94F850
:100FC0007810F02902D0F7297FF40FAE551C224487
:100FD00000214FEA152E82F878300126F02784F898
:100FE000765084F877E084F8741084F8591030460D
:100FF000C4F8FC5084F875706166216684F8F86066
:10100000F8BD1A46B7E503F10C02D2B2012A7FF609
:10101000ECAD1A4650E6902A3FF40EAEADE500BFA7
:1010200090F87030DA0718D513F0FE0F15D070B5B0
:1010300090F8755085F08002602A82B004460DD881
:1010400090F874608E4231D081B35B08012B32D0AE
:10105000032B00F09B8002B070BD7047A5F1F00338
:101060000F2BF8D801A252F823F000BF6311000043
:10107000411100000F110000F31000005710000094
:1010800057100000CB10000057100000CB100000DC
:1010900057100000CB100000CB100000CB10000058
:1010A00057100000CB100000CB1000005B08012B94
:1010B00001D0022BCFD194F8773094F876200096A7
:1010C00029462046FFF754FBC5E705F10803DBB2CC
:1010D000072BC0D8012202FA03F313F0DD0FBAD0B8
:1010E000636D1868036829461B6802B0BDE870404C
:1010F0001847436D90F8765018680368F3211B6811
:101100009847636D186805F07F010368ECE7436D4D
:1011100090F87750186894F876200368F2211B68DD
:1011200042EAC5159847636D1868036805F07F01AA
:101130001B689847636D1868C5F3C6110368D3E749
:10114000436D90F87650186894F8773002682D0156
:1011500003F00F03126805F07005F1211D4390475D
:10116000BEE7B0F87660802E28BF802600F17805B3
:10117000002E3FF470AF2E44636D15F8011B186804
:1011800003681B689847B542F6D164E794F8773056
:1011900094F8762000962946FFF7EAFA5BE700BF4D
:1011A00070B5174C94F85860102E02D900252846C7
:1011B00070BD2046FFF7AAFC05460028F6D094F83B
:1011C0007530902B0CD083F08003602B0BD90C482A
:1011D000FFF788FB31460A48FFF722FF284670BD1B
:1011E00094F877303BB194F874309E42EFD0002EE3
:1011F000EDD00025EEE7802384F87530F3E700BFDB
:10120000089BFF1FF8B5294C294F94F87030DFF880
:10121000ACE0C7F800E00025012243F0010362F3CF
:1012200047034FF6FF76294604F17800802284F8C0
:101230007030676525606560A560E5602561656162
:10124000A561E56125626562A562E5622563656366
:10125000A563E56325646564A564E564256584F894
:10126000585084F8595084F85A5025666566A66629
:10127000E66684F8745084F8755084F8765084F8E3
:10128000775084F8F8500BF053FB2046C4F8005117
:10129000C4F80451C4F8085184F80C5184F80D5175
:1012A000044A0549BDE8F8400AF04CB8089BFF1F06
:1012B000049BFF1F0C8DFF1F710600006491FF1F30
:1012C00000207047704700BF10B5044604F068FB6B
:1012D0000A2830D00D283DD04FF6FD73984201D931
:1012E000012010BD0346B4F94220B4F9401004F1C6
:1012F000080004F039FB94F82230032BF0D8DFE823
:1013000003F0140E0802B4F84230181AA4F8420090
:10131000E6E7B4F84030181AA4F84000E0E7B4F863
:1013200042301844A4F84200DAE7B4F840301844D8
:10133000A4F84000D4E794F9333094F93410B4F8A9
:1013400042205B1A13440022A4F84230A4F8402043
:10135000012010BD0023A4F84030012010BD00BFC3
:1013600010B518380AF036FD09490A4C0AF086FD16
:1013700008F00CFF0AF048FF01212060172006F05A
:1013800049FF21682820BDE8104006F035BE00BFA7
:1013900090759242989CFF1F10B50D490D4C00238B
:1013A000C3EBC300221801335279D2091CBF225C5F
:1013B00002F00F02082B0A6001F10401F0D1FFF7DF
:1013C000BFF9FFF79DF9044B00221A7010BD00BF52
:1013D000B4A1FF1F3C8FFF1F748FFF1F2DE9F04743
:1013E0001546002A63D004460F46DFF8C880002661
:1013F0004FF6FD7900F1080A0BE004F0D1FA0A2853
:1014000025D00D2832D0484511D90120013D064490
:101410000AD0236817F8011B1B6843452046ECD00F
:101420009847013D0644F4D13046BDE8F0870346B5
:10143000B4F94220B4F94010504604F095FA94F8FB
:101440002230032BE1D8DFE803F02B241D1694F99A
:10145000333094F93410B4F842205B1A134400225C
:10146000A4F84230A4F840200120CFE70023A4F8DC
:1014700040300120CAE7B4F84230181AA4F84200FC
:101480000120C3E7B4F84030181AA4F84000012046
:10149000BCE7B4F842301844A4F842000120B5E794
:1014A000B4F840301844A4F840000120AEE71646D6
:1014B000BAE700BFC912000070B5084D2B6898420A
:1014C000044608D3064EE41AFFF70AF933689B0076
:1014D0009C422B60F7D21B1B2B6070BD98A3FF1F93
:1014E00034A2FF1F70B50D4D2B689842044612D3ED
:1014F0000B4E32682A60E41A06F0A6FE014609483F
:1015000003F0ECFA06F0A0FE0146074803F032FBB8
:101510002B68A342EDD91B1B2B6070BD7CA4FF1F61
:1015200034A2FF1FA8A7FF1FA8A4FF1FF8B50446F9
:101530000A4E0B4D0B4F55F820000A4656F8241062
:10154000FFF7A8F90849094A56F8243055F824004D
:1015500047F8243008601360F8BD00BF88A4FF1F5F
:10156000408DFF1F789CFF1F609CFF1F909CFF1FFA
:101570002DE9F84F554C564F564D574EDFF894A174
:10158000DFF89491DFF8948122204FF0000BC0B275
:1015900006F0FCF9034601462068336003F0E2FFE1
:1015A0002168DAF80000CA6AD9F80030904279DC84
:1015B0009342D4BFC0EB0302C0EB02021B1AB3F587
:1015C000804FAABF9203C2EB8232013392FBF3F346
:1015D00091F834203360DB1148F82B30002A3AD0E0
:1015E0003E4A1278032A36D8DFE802F02D02022D97
:1015F0003B4A1278002A3AD03A4A1278002A36D06A
:1016000039493A483A4AC1F800B0BBF1040F296899
:101610000160136056D0374A374912680968374865
:1016200001EB021100EBC1015944CB70C2EBC202C5
:10163000334B995C090901315846FFF777FF314B6D
:1016400001221A7007E0304B58461968FFF76EFF09
:101650002C4B01221A700BF1010BBBF1050F04F1A9
:10166000040405F104051FD057F8040F8FE7274A3B
:101670001278DAB11C491D481D4AC1F800B0BBF10F
:10168000040F2968016013601CD01A4A20491268AF
:101690001A4851F8221001EB021100EBC101594424
:1016A000CB70C3E7002289E7BDE8F88F114B144ADD
:1016B0001B68C3EBC3035846D15C09090131FFF72E
:1016C00035FFC8E70B4B1A68B0E700BF50A2FF1FF9
:1016D000CCD00000408DFF1F5C9CFF1F248FFF1F9C
:1016E0008D9CFF1F589CFF1F2CA2FF1F609CFF1F9B
:1016F000909CFF1FA0A4FF1FC4A3FF1FA49CFF1F5B
:101700003C8FFF1F30A2FF1F3C8DFF1FA4A0FF1FB7
:10171000B4A1FF1FD8A1FF1F5C8DFF1F88A4FF1F6E
:1017200008B50A4B1A783AB91146094803F014FD76
:10173000084B01221A7008BD074A0548002103F032
:101740000BFD044B01221A7008BD00BF9CA3FF1FB4
:10175000189CFF1F53A4FF1F4040BF002DE9F04F0E
:101760008F4B904C196883B0054608460AF07EFA04
:101770000AF070FD8C498D4A0B680093009B166837
:1017800020609B1B984208D889480968037801911A
:101790000199116083F001030370864B1B781BB124
:1017A000834B1B78002B6ED1834C2378002B4BD1BD
:1017B000824B1B78002B50D07D4B1B78002B54D1D3
:1017C0007F4B1B78012B00F07981022B55D0002232
:1017D00011467C4803F0C0FCEE00DFF81892DFF8F9
:1017E0001882731B4B449B79D8074CBF764B774BC1
:1017F00053F82530C8F800302378002B58D0744BAC
:101800001B78002B54D0751BA94401240BE03B68C6
:10181000A34279D02B680B33A3423BD003F09CFC4E
:1018200001341B2C3ED099F800306A4D6A4F654850
:1018300003F00F030B33A3424FF00002A1B2E6DA2C
:101840000022A1B25F48E9E7594B1B78002B40F01A
:101850003B815A4B1B78002BB2D1604B1B78002B7D
:10186000AED0534B1B78002BAAD0584B554853F899
:101870002520002103F070FCAEE74D2200215148E5
:1018800003F06AFCA8E7012200214E484A4C03F00D
:1018900063FCA1E7A1B2524A4A48013403F05CFC60
:1018A0001B2CC0D14F4B01221A7003B0BDE8F08F42
:1018B0004A4B1B7863B3751BA944012411E00B68E4
:1018C000404852F823300B33A3424FF00002A1B23C
:1018D00015D02B68A34201D003F03EFC01341B2C31
:1018E000E0D099F800304049404A3B4D03F00F03E7
:1018F0000B33A342E3DA0022A1B23248ECE74FF403
:10190000000203F029FCE9E7394A03F025FC87E7E8
:10191000354B1B68C3EBC3034B449B795907C1D4B8
:10192000771B4F444FF0020B01240AE00022A1B2C2
:10193000244803F011FCBBF11B0F29D001340BF13B
:10194000010B3B7803F00F030B33A342EEDB012CBA
:1019500000F0C180022C00F0CA80EB1CA342E5D14C
:101960001FFA84FAD8F800201648514603F0F4FB19
:10197000124A1278002ADED00D4A1278002ADAD0F4
:10198000514600220F4803F0E7FBBBF11B0FD5D1F6
:10199000761B0A4FB1444FF00B0B002447E000BF09
:1019A0008CA3FF1F649CFF1F30AAFF1FDCA1FF1F39
:1019B000A4A4FF1F349CFF1F8D9CFF1F9C9CFF1F36
:1019C000248FFF1F189CFF1FE0D0000000D10000F3
:1019D000589CFF1FC4A3FF1F4CA2FF1FA4A0FF1F02
:1019E0000080FF0053A4FF1FA0A4FF1FB4A1FF1F8E
:1019F000808080003C8FFF1F94A3FF1FA34252D022
:101A0000444B04EB051203EBC2039B78C3F30113B1
:101A1000012B41D0404A4148594603F09DFB013417
:101A20000BF1010B102C1FFA8BFB3FF43BAF99F825
:101A3000003003F00F030133A342F0DD3B78C3B95C
:101A4000374BA20753F82530D8D0A34217D0314BDB
:101A500004EB051203EBC2039B78C3F30113012BC4
:101A60001AD03A78002ADAD159462C4803F074FB90
:101A7000D5E7294A2948594603F06EFBE0E7294B90
:101A80001A78A2B9234B04EB051103EBC1039B7831
:101A9000C3F30113012BE7D1D8F800201F485946A2
:101AA00003F05AFBBBE71F4B1B78002BA8D04FF469
:101AB00000025946194803F04FFBB0E71A4A17488D
:101AC000002103F049FB87E644F64D42002113480C
:101AD00003F042FB80E6154B5B7813B1144B1B7887
:101AE00093B9144A0D48012103F036FB26E70F4B4A
:101AF0009B7813B10E4B1B7833B94FF680720221DD
:101B0000064803F029FB19E700222146034803F0A9
:101B100023FB13E7A49CFF1F20202000189CFF1F1D
:101B2000B4A1FF1F349CFF1F80808000389CFF1FE2
:101B3000A4A4FF1FFFFF800010B550B90446012187
:101B4000094803F029FF21460748BDE8104003F08B
:101B500025BF0021044803F01FFF01210248BDE812
:101B6000104003F01BBF00BFECA1FF1F2DE9F041A7
:101B7000C5002A1A554C564FA35C57F820E003F0D5
:101B80000F0301339E4522442DDB5179C9095CD1F5
:101B9000567806F00F0647F820602E1A26440746AE
:101BA000F378B07803F00F0200F00F0191426DD08E
:101BB000B279591C6FF3410261F30303B271F37000
:101BC000ED1B0AF007FF635D621903F00F03013399
:101BD000D17890FBF3F404FB1300013060F307119C
:101BE000D170BDE8F0819179C1F34001B1B156786F
:101BF0004FEA161C06F00F06B4450CDDE6450ADB7D
:101C00005379DB09C7D0BCF1000F37D00CF1FF339B
:101C100047F82030C1E7BCF1000F25D02A1A224432
:101C20005679F6090FD0BEF1000F11DB59B1537888
:101C300003F00F039E453ADA2B1A234493F801C0B0
:101C40004FEA1C1CDFE7BDE8F0819179C1F3400148
:101C50000029F1D12A1A2244527802F00F029B1A6D
:101C6000013B47F8203098E72A1A224492F803C033
:101C7000BEEB1C1FD2DB5379DB098CD02B1A23441B
:101C8000DB781B09013B47F8203086E75FEA101834
:101C90000FD1EB1B23449A796FF341029A71EB1B2E
:101CA00023440121DA7861F30302DA7088E7BDE8A2
:101CB000F0810AF08FFE90FBF8F303FB1800002878
:101CC000E7D1B37943F00203B371E8E73C8FFF1F1C
:101CD000B4A1FF1F70B50C4D0C4E0024C4EBC4031F
:101CE000334420465B79DB092B680ABF204603F1A9
:101CF000FF33013301342B60FFF738FF082C05F167
:101D00000405EBD170BD00BFB4A1FF1F3C8FFF1FC6
:101D10000949C0EBC0020A4408495279D20951F876
:101D2000202004D1013241F82020FFF71FBF013AE3
:101D300041F82020FFF71ABF3C8FFF1FB4A1FF1FFF
:101D400038B5134C134B246853F8203004EB44048B
:101D500003EB84047F2C05460AD9A9B20E4A0F482A
:101D600003F0FAF90E490F4A01230B70137038BDC6
:101D70000D480E4B0470204643F82540FEF73AFD0F
:101D8000A4F11803352BE8D82046FFF7E9FAE4E779
:101D90009CA4FF1F3CCF000080808000189CFF1F88
:101DA00053A4FF1F30A2FF1F52A4FF1FE88DFF1F87
:101DB0000C4B10B5044653F820007F2807D80A467C
:101DC0000021FEF73FFD0021172006F023FAA1B203
:101DD0000022054803F0C0F90449054A01230B70AD
:101DE000137010BDE88DFF1F189CFF1F53A4FF1F29
:101DF00030A2FF1FF8B51E4C1E4B246853F820304C
:101E000004EB440403EB84047F2C05460AD9A9B2F1
:101E1000194A1A4803F0A0F919491A4A01230B700C
:101E20001370F8BD184FDFF874E03B681748184E80
:101E3000C3EBC30306EB02161EF8033050F822E092
:101E40001A090132204606F80E40FEF7D3FC3B6823
:101E50001049114ACB5C42F82540002BD7D0A4F1A1
:101E60001803352BD3D82046FFF77AFACFE700BF07
:101E70009CA4FF1F3CCF000080808000189CFF1FA7
:101E800053A4FF1F30A2FF1FA0A4FF1FB4A1FF1F78
:101E900034A1FF1F288FFF1FE88DFF1F3C8FFF1FFE
:101EA00038B5134B044653F820007F280AD9A1B255
:101EB0000022104803F050F90F49104A01230B701B
:101EC000137038BD0E4D0F4A2B68C3EBC3030021BE
:101ED000D25C12090132FEF7B5FC2B680A4AD35CCA
:101EE000002BE4D00021172006F094F9DFE700BFB3
:101EF000E88DFF1F189CFF1F53A4FF1F30A2FF1F78
:101F0000A0A4FF1F3C8FFF1F288FFF1F2DE9F04F5C
:101F1000944F954E57F820200501AB1806EBC303EC
:101F200087B09B78C3F30113012B06D002D30F2394
:101F300047F8203007B0BDE8F08F8C4B8C491B6808
:101F4000095C029102EB031206EBC20204465378CD
:101F5000DFF848B2DFF848A203F07F034FEAC00879
:101F6000CBF8003006F070F957F82410814B03913C
:101F700002991B68009103997F4A294406EBC10E20
:101F8000C4EB08099EF802E016F831100EF00F0EAF
:101F90000EFB0333184410601AF809E01368774801
:101FA0004FEA1E12013201F07F0102F079FD57F86D
:101FB0002430DA07D14400F19C8099F8052002F022
:101FC0007F02622A4ADD632A00F09A806C49DBF8BE
:101FD0000020DFF8D091DFF8D0B1C4EB08082B4423
:101FE0001AF8080016F833E00B680093030902980A
:101FF00001900EF07F010133624802F09BFD57F81B
:1020000024200294D0444FF0000AAB1806EBC3031F
:1020100053445D4893F90340002C214652DB98F865
:10202000002050F82A0012090132FEF733FC029B0F
:10203000C9F8004057F823200AF1010ABAF1040F49
:1020400009F10409E1D1AB18504916F833300D44B9
:10205000C3F30603AB5407B0BDE8F08F06F0F4F805
:10206000059099F804304A4903F00F03086849497C
:102070000491039309F0AAFE039B049951F82310DD
:1020800009F0FCFE4FF07A5109F0F8FE039099F840
:10209000050000F07F0009F09DFE039B01461846F5
:1020A00009F0ECFE059A8146104609F08FFE0146C4
:1020B000484609F0DBFD0AF0CDF8314957F82430E5
:1020C000086084E75BF82A10D9F800302E488B426C
:1020D000B2D098F8002050F82A0012090132FEF719
:1020E000D9FB029A5BF82A3057F82220C9F8003051
:1020F000A2E706F0A9F8224957F82430086066E7FD
:102100000AF068FC059006F09FF82149049099F8C0
:10211000049008681F49039109F00F0909F056FE61
:10212000039951F8291009F0A9FE4FF07A5109F0EE
:10213000A5FE059B8146184883FB00015818D91756
:10214000C1EBA01101EB4100C1EB4011581A013065
:1021500009F040FE0146484609F090FE049A814687
:10216000A2E700BFB4A1FF1FA49CFF1FA0A4FF1FF4
:10217000288FFF1F4CA4FF1F30A1FF1FA8A7FF1F20
:10218000949CFF1FA8A4FF1F408DFF1F34A1FF1FB9
:1021900034A2FF1F748EFF1F859176AC388FFF1F0E
:1021A0003C8FFF1F38A2FF1F789CFF1F2DE9F84FBF
:1021B000684B1B78012B64D0022B5AD1664B1B78DD
:1021C000002B58D006F040F8DFF8B081814600249B
:1021D00041E0624B624A1868C4EBC40302EB030A95
:1021E00008EB05079AF80420BE6002F00F0B09F017
:1021F000EDFD5C4B53F82B1009F040FE8346304652
:1022000009F0E4FD0146584609F030FD0AF022F8D5
:102210009AF806307860DB0713D4534A534B52F8D0
:1022200024200F321340002BC0F28180504A2A44F0
:102230004544D15CAB8109B10021D1542046FFF760
:1022400065FE4C4B1B68A3426DD02046FFF760FD36
:102250000134082C65D0250108EB05077E68B145DF
:10226000F6D3454B1B78002BB3D0FFF795F87E686B
:10227000AFE7BDE8F88F3F4B1868BDE8F84FFFF7B0
:102280006DBA354B1B78002BF5D03A4DDFF8EC805A
:1022900005F0DAFF2C68230108EB03025668B04210
:1022A0003FD3354A1278002A46D12F492F4A51F898
:1022B00024100F310A40002A46DB2D49194408EB4F
:1022C00003008F5C82810FB100208854234A244987
:1022D0001068DFF89090C4EBC4020A449844177960
:1022E000C8F8086007F00F0709F070FD59F82710CB
:1022F00009F0C4FD0746304609F068FD014638463E
:1023000009F0B4FC09F0A6FFC8F804002046FFF766
:10231000FDFD2868FFF722FA2868BDE8F84FFFF7AF
:10232000D9BCBDE8F88F2046FFF718FA8DE7013BCE
:1023300063F00F03013379E7FFF72EF82C682301D0
:1023400008EB03025668B0E7013A62F00F0201326F
:10235000B3E700BF248FFF1F349CFF1F4CA4FF1F57
:102360003C8FFF1F748EFF1FB4A1FF1F0F00008062
:1023700034A1FF1FA0A4FF1F748FFF1FCCA3FF1F5A
:102380000C4B70B501220C4E1A70002405F05CFF56
:1023900006EB04150134686005F056FF082CA860B0
:1023A000F4D1064B1B7803B170BDBDE87040FEF759
:1023B000B7B900BF349CFF1FCCA3FF1F748FFF1F52
:1023C000072839D8F8B51D4A1D4CC0EBC00304EBF3
:1023D000C010D45C04F00F0401346E46A6EBC403B5
:1023E000214400AF9D466D4691FBF4F3002204FBAF
:1023F000131300EBC20105EBC30ED1F800C045F882
:1024000033C001324968CEF804100133944293FB83
:10241000F4F104FB1133ECDC0023DA00A9180244C8
:10242000D1F800E040F833E00133496851609C4244
:10243000F3DCB546BD46F8BD704700BF3C8FFF1FBB
:10244000A49CFF1F2DE9F0473A4FBDF820600546D8
:102450008946384629469246984603F0EDFA97F9A0
:10246000314080B2A4B2C0EB0803341B03EBD3733A
:1024700004EBD47409EB63030AEB640400222846DE
:10248000A7F84030A7F8424087F846200AF0D8FA6B
:1024900048B304463E464FF6FD7801E0013C22D0A9
:1024A00015F8011B234803F07BFA0A282FD00D28CA
:1024B0003BD04045F2D80346B6F94220B6F9401069
:1024C0001D4803F051FA96F82230032BE6D8DFE8D6
:1024D00003F018120C02B7F84230013CA3EB0000E5
:1024E000A7F84200DCD1BDE8F087B7F84030181AF1
:1024F000A7F84000D2E7B7F842301844A7F84200E6
:10250000CCE7B7F840301844A7F84000C6E796F982
:10251000333096F93410B6F842205B1A1344002287
:10252000A6F84230A6F84020B8E70023A6F84030CD
:10253000B4E700BFE4A1FF1FECA1FF1F30B50546C3
:1025400083B010460C46FFF7F7FA074B1A680332C0
:10255000610116235200009309B2284612B22023CB
:10256000FFF770FF03B030BDA08EFF1FF0B5194C10
:10257000194F1A4E85B004F1400502E00834AC4210
:1025800026D02379002BF9D03B680393039B144892
:10259000336004F033FB0121124803F0E3F91249E0
:1025A000104803F0EFF901210E4803F0F5F900217E
:1025B0000C4803F0F3F92023206800930A228023BB
:1025C0000021FFF73FFF002323710834AC42D8D12C
:1025D00005B0F0BD888DFF1F30AAFF1F549CFF1F60
:1025E000A09AFF1FECA1FF1F20D2000030B51E4CA7
:1025F00083B0012104F1080003F0B4F904F10800EC
:102600001A4903F0BFF9002504F108000121A4F8DC
:102610004050A4F8425084F8465003F0BDF92946D2
:1026200004F1080003F0BAF9114A124B12781B7832
:10263000934210D0104B1B784BB9104820230093C5
:1026400014222C235621FFF7FDFE03B030BD0C4BA6
:1026500053F82200F2E7084A1278002AEDD0084A1F
:1026600052F82300EAE700BFE4A1FF1F6C04010059
:10267000708EFF1F248FFF1F64A2FF1FA0D00000D9
:10268000C88DFF1F70B5064684B010460D46FFF793
:1026900053FA0A4B1C68640002A930460A2205342A
:1026A00009F07CFEA4B269011623009322B209B29C
:1026B00002A82023FFF7C6FE04B070BDA08EFF1F46
:1026C000F8B5134E074600257088002498B12304FE
:1026D000FF2293FBF0F02844114680B202F066FD21
:1026E00002F008FEA1B20246094802F035FD7088EA
:1026F0000134A042EBDC064802F04CFC05F5807585
:10270000384605F0C3FDB5F5803FDDD1F8BD00BF0B
:10271000189CFF1F2DE9F047494BDFF83C81494EDB
:102720000FCB86B006AC04E90F00474804F066FA08
:10273000002108F1080003F015F945464FF0000AA2
:102740004148424C04F05AFA1223002240494148C1
:10275000A8F84030A8F8423088F846200FFA8AF9E5
:1027600003F010F94FF6FD7701E0B44222D014F8DF
:10277000011B394803F014F90A284FD00D285BD00B
:10278000B842F2D80346B5F94220B5F940103148B5
:1027900003F0EAF895F82230032BE6D8DFE803F0DF
:1027A00038322C02B8F84230B442A3EB0000A8F84B
:1027B0004200DCD12949274803F0E4F809F0030975
:1027C00006AB03EB8909202359F8100C00930A2269
:1027D0005021FFF737FE1C4804F01CFB0AF1010AE8
:1027E000642005F053FDBAF1100FA9D1642006B0A2
:1027F000BDE8F04705F04ABDB8F84030181AA8F80F
:102800004000B2E7B8F842301844A8F84200ACE7FC
:10281000B8F840301844A8F84000A6E795F93330DE
:1028200095F93410B5F842205B1A13440022A5F83C
:102830004230A5F8402098E70023A5F8403094E7FF
:102840000CCF0000AECF0000A09AFF1FA8CF000061
:1028500020D20000ECA1FF1FE4A1FF1FDCDA000082
:102860002DE9F0432E4B2F4C596818682E4F85B038
:102870006A4603C253F8080F5968134603C30DF1A3
:10288000FF3E00264FF001084FF0030C1EF8015FD9
:10289000002305F07F059DF8082065F306028DF8FA
:1028A000082002AA03CA04EBC30244F83300013330
:1028B000102B5160EFD1C6EBC6017B187A5C42F059
:1028C0000F0266F307127A549979DA7893F8059033
:1028D0005D7898786FF30001C9B268F3030209F0DC
:1028E0007F0905F0F00500F0F00001F0FD01013670
:1028F0006FF306096FF307156FF307106CF30712F8
:102900006FF38201082E04F1800483F805905D7056
:102910009870DA709971B9D105B0BDE8F08300BF45
:102920001CCF0000A49CFF1F3C8FFF1F70B5002030
:1029300005F010F9052803D00521002005F024F941
:102940001A4B01201C7805F005F9844203D021467A
:10295000012005F019F9164B02201C7805F0FAF851
:10296000844203D02146022005F00EF9114B0320CA
:102970001C6805F0EFF8013CE4B2844203D0214624
:10298000032005F001F90C4E0424204605F0E2F87E
:1029900056F8045BEDB285422946204604F1010455
:1029A00001D005F0F1F8092CEFD170BD248FFF1F85
:1029B000A0A4FF1F3C8DFF1F408DFF1F38B50020D6
:1029C00005F0C8F8052801D0002038BD012005F029
:1029D000C1F80C4B0C4D1870022005F0BBF80B4BE6
:1029E0001860032005F0B6F8094B01301860042484
:1029F000204605F0AFF80134092C45F8040BF7D157
:102A0000012038BD248FFF1F408DFF1FA0A4FF1F92
:102A10003C8DFF1F70B50F4E202404F18005A4F1FA
:102A20002000082221463044144405F0D5F8A54280
:102A3000F5D1B5F5846F2C46EFD1074DA4F5846030
:102A4000072221462844144405F0C6F8B4F58B6FDC
:102A5000F4D170BDA49CFF1F3C8FFF1F2DE9F843EC
:102A6000DFF858802027A7F12005454407F18009A9
:102A70002C463E1B0835301905F06CF804F8010BA4
:102A8000AC42F8D108374F452546F1D1B7F5846FF0
:102A9000E9D1094D2C463E1B0735301905F05AF88F
:102AA00004F8010BAC42F8D10737B7F58B6F254618
:102AB000F0D1BDE8F88300BF3C8FFF1FA49CFF1F2F
:102AC000F0B53C4C3C4D89B004F0FCFF2368039307
:102AD000039E23680493049F236805930599374B4D
:102AE00022680692364A1E603648374B1160002233
:102AF00001211A71069E07603448DA6083F82220AB
:102B0000A3F84020A3F8422083F84620198383F8D5
:102B100021102E60186005F097FB2D49236807935C
:102B20000B462C4A079D43F8045B10606C31226809
:102B30000292029A43F8042B8B42F8D1264B274F7E
:102B4000274D284A19682848284B294E294C1268D5
:102B50003F682D6801601A6008463760256009F0FB
:102B600085F809F077FB244B0B2218600C212348D1
:102B7000FDF7B6FC00212248FDF728FD05220623BB
:102B80008DE80C001F49204B204A214802F048F8EC
:102B9000204A21491E4808F0D5FB52230E221B2152
:102BA0001E4802F0C3FA1B4A1D491C4808F0CAFB24
:102BB00009B0F0BD30AAFF1FA0A3FF1FDCA1FF1FBB
:102BC000549CFF1FACA3FF1FE4A1FF1FFCCE00001D
:102BD000C0A0FF1FA4A3FF1F548DFF1F408DFF1F28
:102BE00088A4FF1F9CA4FF1F309CFF1FA8A3FF1FEA
:102BF000609CFF1F909CFF1F649CFF1FA8A0FF1FED
:102C0000B0A3FF1F648DFF1F348DFF1F948EFF1F25
:102C100068A2FF1F0C8DFF1F594C0000189CFF1F5E
:102C2000CD4E000030B5124C83B0002201210A23A2
:102C30002046019100931146802303F041F80225BC
:102C40002023204619460095002204F0B1F82046C2
:102C5000009520230022402104F0AAF80095204688
:102C600020230022602104F0A3F803B030BD00BF90
:102C7000A09AFF1F2DE9F04F9A4C05460F4694E8A5
:102C80000F008FB002AE0DF1280886E80F0088E82B
:102C90000F0000230793069308930993082D00F271
:102CA0000F82DFE815F061008A01F300650178000A
:102CB0009D00B900D60009008B4A8C4B15681A6834
:102CC0008B498C488C4B51F825101B6802EB051280
:102CD000013110F83220079102F07F0287490892F3
:102CE0000433013586480993864A874B029106953D
:102CF000039004928B460593844CDFF870A204F194
:102D0000080001214FF0000902F02CFE04F1080038
:102D10007F4902F037FEA4F84090A4F8429084F86E
:102D20004690FFF77FFF494604F1080002F034FEA9
:102D300004F10800012102F031FE01244FF00A09DC
:102D4000DAF80020CDF80090023A21B2584612B2CB
:102D50002023FFF777FB612C04F1200400F04B8166
:102D6000A4B256F804BFEBE7634A6A4B15681B68C8
:102D700069496A4A0793644B0968127808910435D7
:102D8000674909920293674A06959B465D4B0391FA
:102D900004920593B0E7544A544B12681B68554996
:102DA000554803EB021301EBC30211F8335093783B
:102DB000517802685348029003F00F030133043244
:102DC0000993514B079205F07F0501F07F01564AA8
:102DD0000393564B069508910492834605938BE71F
:102DE000414B53491D68534AC5EBC5031268CB5C80
:102DF000089203F00F011B09013101330791099378
:102E00003E494A4B4C4A039301354C4B069502917F
:102E10008B46049205936FE7334A454B1268484945
:102E20000291C2EBC20213448B465A789B78454903
:102E3000039102F00F051209079203F00F021B091C
:102E4000013508920993404A404B06950492059338
:102E500052E7254A364B12683D490291C2EBC20245
:102E600013443C481A799B7902F00F02C3F38003A4
:102E70008B46079350F82210374B384A0A916FF06F
:102E80007E05039204930593069535E7164B344966
:102E90001B68274AC95C2F4CC3EBC303D018D35C13
:102EA0000279857902F00F0203F00F03013354F821
:102EB00022000793264B294A1C4C0C90C5F3800531
:102EC000284804936FF07E030695029203940590C0
:102ED00008930993002900F0F780234B0D93934644
:102EE0000AE700BF2CCF0000A0A4FF1FC4A3FF1F50
:102EF000B4A1FF1FA49CFF1F9CA4FF1FB4CF000020
:102F000028D00000D0CF0000B0CF0000E4A1FF1F08
:102F10003C0D01003C8DFF1F909CFF1F52A4FF1F22
:102F2000D8CF0000DCCF000040D00000F4CF00007C
:102F30003C8FFF1FE0A1FF1F04D0000008D000005D
:102F4000C0CF000010D0000014D000001CD0000042
:102F5000C8CF0000548EFF1F24D00000B8CF00005F
:102F6000288FFF1FF8CF0000FCCF0000A08EFF1FAE
:102F7000574A584B11681A68574B5848029002EB51
:102F8000011203EBC2025648564B5749574C039067
:102F900005930332049100236FF07E0012F9011BA8
:102FA0000029C0F2878006AD45F823100133042BB9
:102FB000F4D1069DDDF808B09EE6454B4C4A1D68ED
:102FC0004C4B4D491B680793C5EBC5031344086878
:102FD0005B794A4C4A494B4A029403F07F030893B9
:102FE0000135494B069503910492059309F00CF9BC
:102FF000A346099080E60121444802F0B3FC44490D
:10300000424802F0BFFC0121404802F0C5FC00210B
:103010003E4802F0C3FC032F0DD8DFE807F02B2059
:103020003602152201238DE80C0062211D230B229C
:10303000384802F045FE06AE00243B1BB3FA83F38A
:103040005B0915F17F0F21B228461A4628D00134BA
:10305000FFF718FB042C2AD056F8045FEDE7152281
:1030600001238DE80C0022211D230B22294802F0A8
:1030700027FEE0E7152201238DE80C0002211D2325
:103080000B22244802F01CFED5E7152201238DE80F
:103090000C0042211D230B221E4802F011FECAE73C
:1030A00058F824000134FFF749FA042CD4D10FB0AA
:1030B000BDE8F08F06A948F8234041F8230075E7E2
:1030C000DDF808B0002517E6134B0D93934613E681
:1030D000A0A4FF1FC4A3FF1FA49CFF1F30D00000AB
:1030E00034D000003CD0000038D0000024D00000D4
:1030F0003C8FFF1F689CFF1F548DFF1FB4CF000043
:10310000E0CF0000E8CF0000F0CF0000ECA1FF1FEF
:1031100054FB0000A09AFF1F00D000002DE9F04FE3
:103120004148A5B001F0A0FD05F08EF83F4B1860B6
:1031300005F08AF83E4B1C681860041B04D03D4B18
:103140001B78002B40F00983FFF730F83A4803F072
:1031500055FDFEF70DFA3948FDF7DEF903B2199077
:10316000002B40F0C181364B0193364B0593364B13
:103170000993364C364B0493364B0793364B0393E7
:10318000DFF8ECB0354B06933548FDF731FA0128EE
:1031900000F0E281022800F04082324DDFF8CC805E
:1031A000DFF8D0A0204801F019FE00287DD01E488D
:1031B00001F020FEC0F30722D3B2012BC6B200F00B
:1031C0001C812278032A00F22981DFE802F05502EF
:1031D0000255002BE6D1002E59D0DBF80030C3EBAE
:1031E000C30308EB03029279500700F18982039B25
:1031F0001B78002B00F00682DAF80030002B46DD49
:103200000C4B1B78002B00F07C83049B1B78002B5D
:103210003DD0154F3B78002B39D0DBF80000FEF78E
:1032200059FD00233B7032E068A2FF1FA4A3FF1FDB
:10323000709CFF1F349CFF1FA09AFF1FA8A0FF1FB8
:1032400030A2FF1F8D9CFF1F9C9CFF1F248FFF1F20
:10325000A4A0FF1F53A4FF1F589CFF1FC4A3FF1F60
:10326000B0A3FF1F389CFF1F6C9CFF1F3C8FFF1FEC
:10327000A0A4FF1F4CA2FF1F002B93D18D4B002E4B
:1032800040F0268231461A681920FDF703FB8A4A6E
:103290008A4B12681C921C9A43F826208848002307
:1032A000AB5501F09BFD002881D1DBF8003016936F
:1032B0001946844B844AD3F800C06B780893AB78E6
:1032C0000B93099B7C4E1B781793049B7B4F1B78B9
:1032D0000C93069B94F800801B681293059B10903A
:1032E0001B781393794B15901B781493039B1190C3
:1032F0001B780F93019B1B780E93C1EBC103D3186E
:103300000293B2460D9003460A9042F20E79EA5CAF
:10331000002A44D031681D911D9957F82340091B9C
:103320008C454FEA830E3AD8DAF800101E911E99A8
:103330000C1B4C4533D808F1FF31012927D80299DD
:103340008979490723D4089909BB0B99F9B9D91E82
:10335000072941F2C2800A2B19DD0C99B9B91698D8
:10336000A3F10B01129101EB0011594800EBC101CF
:103370008C78C4F30110012840F2E88410460F90C5
:10338000109014901590139011900D900E9032683B
:103390001F921F9AA2F51C520F3A47F80E200133D4
:1033A0001B2BB4D10A9B002B40F085870D9B002B73
:1033B00041F0DE80119B1BB1069B1A46129B1360E5
:1033C000159B23B1059B1A469DF84C301370109B3A
:1033D0001BB13E4B9DF850201A7020B1039B1A463A
:1033E0009DF83C301370B8F1030F00F2A287DFE8BC
:1033F00018F0A40769076907A407AA5596B9354BC1
:103400001B78002B40F069812378032B3FF6CAAE6E
:10341000DFE813F0E400CF00CF00E400002B3FF41E
:1034200036AFBFE62378032B3FF6BCAEDFE813F0E0
:10343000E20004000400E200002E00F0BA801E4BFF
:103440001E4A1B681B93059B1B991B7842F826108C
:10345000A6F10B01002B00F01881039B1E481B787E
:10346000002B00F00A8206991C4B0F68DBF8002045
:103470001B4917481B6851F82610DFF868C0CAF8C6
:10348000006007EB021703EB430310F837E09CF8EA
:1034900000C001EB83030D4963F3060E002300F81F
:1034A00037E00B70BCF1000F00F05884019A012343
:1034B000137077E63C8DFF1F30AAFF1FC0A0FF1FCF
:1034C00068A2FF1F848DFF1F3C8FFF1F8C9CFF1F76
:1034D000A49CFF1F64A2FF1F589CFF1F9CA4FF1FFA
:1034E0003CCF0000349CFF1FBDF96650A94A05FB84
:1034F00003F5127805EB85051D44002A00F0B38022
:10350000A54AA64B01931E46A54913780591A549E6
:1035100009911D44A449049185F30205A34907912B
:103520001570FFF763F8A24BA24A1B681A931A9B07
:103530001268A149A148A24CDFF8D0B2013B9B1A06
:103540000B60A04B039301229F4B32700693FDF753
:103550004FF801287FF41EAE8F4A237812789848DE
:103560009A4200F0DD818B4D2978002940F0998145
:10357000002B00F0B780032B00F0B480013B012B3F
:103580006DD8059B1B78002B00F0AA81039B1B784C
:10359000002B00F0A581099B1B78002B40F02683AF
:1035A0008A4B1B68012B00F08D85002B57D1884971
:1035B00099E0059B1B78002B00F0AA80039B1B78E9
:1035C0001BB1069BCAF800601E60039900230B70B4
:1035D00005990B70019B01221A70E3E57D4B642174
:1035E0001A681920FDF756F97B4A137883F0010316
:1035F0001370D7E5794B774A196812683046FEF7A1
:103600009FFBCFE5049B1B78002B3FF440AEDAF81C
:103610000030002B3FF7F4AD39E6049B1B78002BFC
:1036200000F07581DBF800006D4B6E4953F82050B7
:103630000022000105F07F058318013211F8336084
:1036400065F3060601F8336001EBC303102A9E7888
:103650006FF303069E70EFD1634B01221A70019A3B
:103660000123137099E54E4A05921278002A7BD007
:10367000534C2278013A012A40F2E181474B0193F1
:10368000484B0993484B049376E5099A1278002A2F
:1036900000F0C380721E012A7FF684ADF21E072A55
:1036A00000F28C826878CBF800205049002840F066
:1036B000E0838B78002B3FF4F9AE4A484C4900EB8D
:1036C000C210802203F082FF4A4B01221A73EDE6FA
:1036D00030461968FEF76CFBD9E5FFF727F9FFF7CD
:1036E00099F991E644490B68444A013382FB03206F
:1036F000DA17C2EB600202EB82029A1A0A60AEE7A6
:1037000018F80310090901313046FEF751FB6EE548
:10371000099B244A1B78002B7AD1049B224A1B78F0
:10372000002B75D16B78314A002B40F05982937889
:10373000002B40F03283324F3B78002B00F06D8439
:1037400030483E7001F0F2F92F4B3E701E60FCF7DE
:10375000F7FF2C4801F0EAF924E52046FDF7ACFE1E
:103760002046FDF7BFFEEFE40E4A09921278002AC8
:1037700040F0E1800C4A04921278114C002A00F0CB
:1037800015822378013B012B40F26083034B0193A8
:10379000F2E400BF64A2FF1F708EFF1F30A2FF1F64
:1037A0008D9CFF1F9C9CFF1FA4A0FF1F53A4FF1F05
:1037B00030AAFF1FD88DFF1FA0A3FF1FB0A3FF1FBC
:1037C000248FFF1F589CFF1FC4A3FF1FD4A1FF1FFE
:1037D000608DFF1F3C8DFF1F9CA3FF1F348FFF1FB9
:1037E000788FFF1FA49CFF1F90A3FF1F389CFF1F13
:1037F000A48EFF1F888DFF1F588DFF1F67666666AA
:10380000349CFF1FA8A7FF1FC8A3FF1FA0A4FF1F72
:103810001670019A01231370C4E4049BA4481B781A
:10382000002B00F0E480DBF80020A249A24B51F805
:103830002270A248D3F80090A14950F826C0069BF8
:10384000DFF88CE21F6007EB021009EB490311F867
:1038500030709EF800E0CAF800600CEB830363F35D
:10386000060701F83070BEF1000F00F0CE81954AD6
:1038700001231370019A137094E4731E012B7FF6D9
:1038800091ACF21E072A40F28A810A2E7FF78AAC99
:10389000069A11608C4A01231370019A0370137009
:1038A00080E48A498A4B027000260E601E70FCF785
:1038B00047FF884801F03AF9B1B200228648013644
:1038C00001F04AFC1B2EF7D10799002301222B702F
:1038D0000A70FEF78BFE2378002B7FF44CAE01E7D5
:1038E000099B1B78002B40F08181049B1B78002BE7
:1038F00040F00B83794B1B68002B40F0EE82784937
:10390000F1E6DBF800103046FEF7CAFA7DE4754AAE
:10391000754B2178117001221A70FEF767FE9EE642
:10392000714A117800293FF423AE00211170002B59
:103930007FF421AED6E66D4C2278013A012A00F2DE
:103940002B816B4F3868042800F07283002840F008
:10395000FE82DFF8C8B1674EDBF80020664B2A44D0
:1039600082F30302CBF800201B68002B40F0BA82E0
:10397000DBF80020614BC2EBC2021344197901F05D
:103980000F022A44062AA8BF062222EAE27262F344
:10399000030119713668002E40F07B82DBF800705D
:1039A000564BF800C21B99189A5C497801F00F0138
:1039B000491902F00F0200F144838A42A8BF0A4667
:1039C00002F00F02C01B03444D4939480191597858
:1039D00004904C48079062F3030159704A4B0393DB
:1039E0004A4B0693019A01231370FFF7CDBBDBF816
:1039F0000030DFF828E1C3EBC30208EB0207BF7910
:103A00007F0700F10881721E012A7FF6CBABF21E00
:103A1000072A00F287826B78002B00F0ED822C4B96
:103A20001978002940F0E882224ECEF8002046F8AE
:103A30002210019A012303701370FFF7B3BB344ABD
:103A400009921278002A7FF47CAF194A0492127806
:103A5000002A40F0FB812C4A03921278002A5FD0A2
:103A60002C4A1068032800F2BC83002B274BDFF898
:103A7000ACB00693C0F2A785274B1B68002B40F023
:103A80008783069BDBF800201B680D491C480190CA
:103A900003EB021211F8323003F07F00054485F386
:103AA000070565F3060301F83230164B079399E7D3
:103AB000A4A0FF1FB4A1FF1F9CA4FF1F3CCF0000C8
:103AC000A49CFF1F6C9CFF1F8C9CFF1FC8A3FF1FA3
:103AD000349CFF1FA8A7FF1F189CFF1F749CFF1F8B
:103AE000988FFF1F708EFF1F64A2FF1F248FFF1F80
:103AF000DC8DFF1FE08DFF1FE48DFF1F3C8FFF1F3C
:103B000030A2FF1F53A4FF1F589CFF1FC4A3FF1F19
:103B10009C9CFF1F308FFF1F608DFF1FA0A4FF1F05
:103B2000AC4E3768284608F055F9394608F09EF83B
:103B3000A949054608F040FB00285ED0A64DA74BDA
:103B4000394628461D6008F02DFB002840F01C81F6
:103B50002846A349356008F091F9A24B019301462C
:103B6000A148A24DDFF8E0B208F03CFA08F072FB81
:103B70009F4BA04A18601B6803EB4303DB001360F4
:103B8000106808F023F99C4908F078F99B4B0793DB
:103B90009B4B2860069325E7924B019372E5CBF887
:103BA0000020019A01231370FFF7FCBA2278032A40
:103BB0003FF6ECADDFE802F06368683A0A2E7FF763
:103BC000F1AADBF80030019EC3EBC303012018F813
:103BD0000320307061F3030208F80320FFF7E2BA14
:103BE0008849894A01230B7013775FE4874B1B6870
:103BF000002B40F0E780864975E58649284608F0A5
:103C0000F9FA00289BD0834D99E7834B3046196819
:103C1000FEF7F0F82BE618F802207F4B120901326C
:103C200030461968FEF78CF8FFF7BCBA7B4E326855
:103C3000042A00F0DF826B4B0193194601230B70BD
:103C4000012A00F09280002A40F09B80744B754955
:103C50001A68DFF8F4B11544042DA8BF04256FF0ED
:103C600004008542B8BF054695420D6067D0634A9F
:103C700007921D606C4A624B03920693B2E6674B53
:103C8000584A01921A68DBE7684B1B68042B00F066
:103C9000BE82002B40F07384DFF8ACB16448DBF8DF
:103CA00000202A4482F30302C2EBC2010144CBF894
:103CB00000208A79520700F183825E4B4F4A1B68CD
:103CC0000792002B40F02182DBF800205849C2EB1C
:103CD000C20211448A79C2F38000451900F1CD82F5
:103CE000012D40F3CE8242F004028A710025A9B270
:103CF00000225148013501F02FFA1B2DF7D1079A08
:103D000001231370374B0193474B03933C4B0693AE
:103D100068E6022E40F0D981DBF80020444B31499F
:103D20000191C2EBC2024549049113449A7802F012
:103D30000F010D4485F3040565F303029A702F4BC0
:103D40000793394B03932E4B06934BE680F001000B
:103D500060F305148C701046FFF711BB2E4B3046F4
:103D60001968FEF747F8FFF7A1BB354B19680D44FA
:103D7000002D03DD102D2A46A8BF10228A4200D054
:103D80001A60DFF8C4B0DAE7164B01931B4B0793B8
:103D90001B4BDFF8B4B0069324E6DBF80030C3EB2E
:103DA000C30343445A7982F08001C90961F3C71201
:103DB0005A71154B0122002900F0368183F82C201E
:103DC000FFF774BB012B00F02C81022B7FF447AC72
:103DD0001C4988E4548DFF1F00002042309CFF1FC7
:103DE0000000C04230A2FF1FC0E1644C8CA3FF1F43
:103DF00034A2FF1F4CA4FF1F6F12833A53A4FF1F6E
:103E0000C4A3FF1F748FFF1F888DFF1F84A4FF1F93
:103E1000DC8DFF1F00009643348FFF1F588DFF1F5E
:103E20009CA4FF1FA8A3FF1F589CFF1F988FFF1F74
:103E30003C8FFF1F908EFF1F189CFF1FA4A0FF1F29
:103E40003C8DFF1FE48DFF1FA0A4FF1FBC4BBD498D
:103E50001A681544042DA8BF04256FF0040085429C
:103E6000B8BF054695420D6000D01D60B64B01936A
:103E700087E78978002940F08880B449B44801EB8D
:103E8000C211802203F0A2FBB24B01221A71FFF78C
:103E90000DBB012E7FF43DAFDBF80060AE4BF100AF
:103EA0008A1B98189A5C407802F00F0215EB1010EC
:103EB00002F1010200F127818242A8BF024602F00E
:103EC0000F02891B0B44A049A44801915978049022
:103ED000A348079062F307117FE5012B7FF4BFAB86
:103EE000A04900E4012B7FF455ADDBF800209A4B8C
:103EF000C2EBC20213449A79C2F38001294481F3D0
:103F0000010161F382029A7144E5DBF80000FDF7DC
:103F1000E1FEDBF80020944B53F82230069A136040
:103F2000FFF79DBB0A2E7FF73DA9884A01EB0311DD
:103F300002EBC1018B78C3F30112012A3FF632A9CB
:103F400082F0010262F305138B70FFF72BB9012891
:103F50007BD1DFF838B2804BDBF80000C1000A1AD1
:103F60009A5C02F00F0201322A44002A6BDD102A0B
:103F7000A8BF1022013A02F00F02091A7B4E585CCA
:103F800062F3030058547A4BEEE47A49DFF8BCE15F
:103F900051F8221002940EEBC21001F07F091201B9
:103FA000FF26D11864241EF8317069F306070EF855
:103FB00031700EEBC10101338F7891F801C007F029
:103FC000F00764F3060C6FF30517102B81F801C09E
:103FD0008F7000F1080000F8056C00F8046C00F820
:103FE000036C00F8026C00F8016CDAD1594B029CAA
:103FF00001221A75FFF75ABAAB78002B3FF4CFAD08
:10400000C2EBC20242449379C3F3000181F0010183
:1040100061F300039371FFF7C5B8FEF7B1F9FFF73D
:10402000C1B85249FFF75FBB83F82420FFF73EBABF
:104030004E4E3368042B00F0F480DFF850B14C4B47
:1040400092E43246BEE4002297E7022840F0308135
:10405000494EDFF838B13268002BACBF01214FF078
:10406000FF310A4402F10F031E2B326005D8DBF842
:104070000000FEF7A5F938683268DBF800303649F1
:10408000C3EBC303CB5C03F00F030133C3F10101A6
:10409000914236DC013B9342A8BF134633600328AC
:1040A00040F02182DBF800302B48304EC3EBC303D5
:1040B000C25C05EB121181F3040161F30712C254D3
:1040C0002B4B51E42D49FFF70EBB032E40F00F821E
:1040D000DBF800201C49204B0191C2EBC2021F49B2
:1040E000049113441E4907919A7805EB121585F344
:1040F000020565F307129A70214B0393214B069337
:1041000070E40B46CAE70022DBE6012B00F00F82C9
:10411000022B00F0F181032B7FF4F4ADDBF80020DB
:104120001949094B01938B5C2B4483F3010303F082
:1041300001038B54124B0393124B069352E400BFBE
:104140009CA4FF1FA8A3FF1F30A2FF1FA49CFF1F5A
:10415000A48EFF1F888DFF1F3C8FFF1FA4A0FF1F91
:1041600053A4FF1F908EFF1FB4A1FF1FE08DFF1F00
:10417000E48DFF1F788FFF1FE0A1FF1F308FFF1F0F
:10418000589CFF1FC4A3FF1F288FFF1FA0A4FF1F61
:10419000012B4FD19F4BA0491A681544042DA8BF8D
:1041A00004256FF004008542B8BF0546AA420D60A1
:1041B00000F0AB821D60994B0193994B079311E47A
:1041C0001E46B1B200229748013600F0C5FF1B2EF3
:1041D000F7D1934B07931946934B01220A701B6842
:1041E0006FE50428914B40D0914ADFF884B21B68F8
:1041F000069243E4002BC0F29B823FF41CAD8D4B32
:104200007F211A681C20FCF745FB326813E5864BBA
:104210001B68042B00F00282814ADFF854B2079237
:104220004FE5854B1A68042A00F07582DFF840B22A
:10423000FFF79ABB022B40F00382069BDBF80020BD
:104240001B687E497548019003EB021301EBC30123
:104250004B7803F07F02154485F3070565F30603E9
:104260004B706F4B0793FFF7BDBB1B68042B0FD040
:104270006F4ADFF8FCB1069200E463F382028A71B0
:1042800040E565F382028A71002D3FF43BAD2DE5D8
:104290006B4A624B01931368DFF8D4B12B4483F36C
:1042A000010313605E4B0793614B0693FFF79ABBC4
:1042B000DFF8BCB1F3E6099B1A469DF85C30137039
:1042C000FFF774B85F4D2B78002B59D15E485F49DA
:1042D000036820935E4A209B096812685B1A9A4221
:1042E0004ED203682193219B1432591A8A4247D92E
:1042F000DBF80030574A0199C3EBC3031344012292
:104300009B790A705A075DD4059B1B78002B6CD0F3
:104310004B4B1B68002B00F0B480012B00F0D180C8
:10432000099B1B78002B55D1049B1B78002B40F078
:10433000A180019B1B784BB913E0FDF7F1F9019BBC
:104340001B7873B13F4B187800283ED03E4C424D4D
:1043500023682293414A229B296812685B1A9A4279
:1043600025D3079B2E4C1B78DBB9FCF7F9F9002805
:10437000FBD1FCF715FF0028FBD125B0BDE8F08F7D
:10438000DBF80030334AC3EBC30313449B795B076C
:1043900018D4019B1B78002BE3D02B78002BD5D1B0
:1043A000B2E7204800F0F6FD00232370DDE72C483B
:1043B00002F030FD23682393239B019A2B60002396
:1043C0001370CEE7FDF7ACF9E3E7264B1968FEF76B
:1043D00051FCAEE7244B1B68002B5AD0012B64D054
:1043E000022B5CD0FEF7C2F89EE7099B1B78002BDE
:1043F000F0D1049B1B78002B96D11C4B1B68002B23
:1044000059D0012B63D0FEF7B1F8059B1B78002B28
:1044100086D07DE79CA4FF1FA8A3FF1F30A2FF1F2B
:1044200053A4FF1F189CFF1F908EFF1F608DFF1F5E
:10443000C4A3FF1F3C8DFF1FE48DFF1FA49CFF1F23
:10444000D4A1FF1F64A2FF1F30AAFF1F549CFF1FAF
:104450009C8EFF1F3C8FFF1FA0A3FF1FD88DFF1F47
:10446000A09AFF1F588DFF1F84A4FF1F749CFF1F7D
:10447000A0A4FF1F04210820FEF7FCFBFEF776F83E
:1044800057E7B14B04201968FEF7F4FB099B1B7832
:1044900048E7AE4B05201968FEF7ECFBA2E7AC4BF2
:1044A00007201968FEF7E6FB9CE7AA4B062019686F
:1044B000FEF7E0FB96E7A84B01201968FEF7DAFB50
:1044C000A1E7A64B03201968FEF7D4FB28E7A44B0D
:1044D00002201968FEF7CEFB95E70D920E920A9224
:1044E0001792FEF754BF9B4E994BFFF73DBA9D4B79
:1044F00001939D4B049322E4DBF800209B4B9949E8
:104500000191C2EBC2021344197901F00F02154464
:10451000062DA8BF062525EAE5750A4665F30302C0
:104520001A71934B0393934B0693FFF75BBADBF837
:1045300000008E4BC1000A1A9A5C02F00F02013291
:104540001544002D40F3FD80102D2A46A8BF1022EF
:10455000013A02F00F02091A82480190585C62F396
:1045600003005854824B0393824B0693FFF73ABAE9
:10457000019B1A469DF838301370FEF71BBF012BC4
:104580002ED1DFF838B27C49DBF800005FFA85FEF7
:10459000000100228718013211F83730C3F30606F4
:1045A000764466F30603102A01F83730F2D17349D6
:1045B0006B4B0A681B682A4402F306020A60704AC1
:1045C0000792FFF77EBBDBF800201B686A4903EB0C
:1045D000021301EBC3010B18FF22DA70FFF74CBA8C
:1045E000022B47D1DFF8D4B1604ADBF800306549CF
:1045F000C3EBC3031A44507900F07F032B44632BB1
:10460000A8BF632323EAE37363F306005071544A9F
:104610000B7013685A4A0792FFF753BB5A4A514B23
:10462000019313685649DFF894B107912B4483F343
:10463000010313604E4B03934E4B0693FFF7D2B921
:10464000032B62D1069BDBF800201B684A494548D2
:10465000019003EB021301EBC3018B7803F00F020F
:10466000154485F3040565F303038B70444B0793EE
:10467000FFF7B8B9032B1BD1444ED6F8008028466B
:1046800007F0A8FB414607F0F1FA4149074607F059
:1046900093FD002837D13F49384607F0ABFD00B104
:1046A0003C4F3D4B414638461F6007F07BFD38B11B
:1046B0002B4B334ADFF804B11B680792FFF701BBAD
:1046C00036493760384607F0D9FB01463448354E45
:1046D000DFF8E8B007F086FC07F0BCFD324B334A48
:1046E00018601B6803EB4303DB001360106807F0DE
:1046F0006DFB2F4907F0C2FB194B214A30601B6844
:104700000792FFF7DEBA224FCBE7164B01931C4B03
:104710000793FFF767B92749DFF8A0B00A682A4472
:10472000022AA8BF022222EAE2720A60FFF71CB93D
:10473000214B00211A681C20FCF7ACF83268FFF707
:104740007ABA002207E700BF608DFF1FDC8DFF1FD4
:10475000E48DFF1FE08DFF1F988FFF1F308FFF1F1D
:10476000908EFF1F30A2FF1FA4A0FF1F3C8FFF1FD2
:10477000589CFF1FC4A3FF1FA49CFF1F689CFF1F22
:1047800053A4FF1F65A2FF1F749CFF1F548DFF1FC2
:104790000000204200009643309CFF1F0000C042F2
:1047A000C0E1644C8CA3FF1F34A2FF1F4CA4FF1F69
:1047B0006F12833A84A4FF1F3C8DFF1FA0A4FF1F2C
:1047C00070B5184D82B0284602F018FAB5F90C10F1
:1047D00001291FDD0022012694B263006889019639
:1047E0009BB2C91A09B2C31A1BB200910D481146F7
:1047F00001F0E8FA0B4802F00DFB012003F046FD42
:10480000B5F90C10023401EBD17322B243F34F031C
:104810009342E1DC4FF4FA7002B0BDE8704003F05F
:1048200035BD00BFA09AFF1F2DE9F0477D4A7E4BA2
:1048300012687E4D7E4C7F4F7F4E82B00192019A6E
:104840001A6003F001FD7D4B186003F0FDFC7C4A0B
:104850007C4B10607C49186807F010FB01467B48D0
:1048600007F0C0FB07F0F6FC794B7A4A18601B682A
:1048700003EB4303DB001360106807F0A7FA7649E7
:1048800007F0FCFA286003F0DFFC206003F0DCFC9A
:10489000724BD4F800E0186002250023C3EBC3027A
:1048A000324407EB03111479C1F804E0013365F3D6
:1048B0000304082B14718860F0D10D2003F032F846
:1048C0000024DFF8D481664FDFF8D0A14FF084498F
:1048D0002646382004F0ACFF5F4B0122002105463C
:1048E00000F01CFD4AF8246001344FF40053052CFD
:1048F00048F8045BC5F8109047F8046B6B60E8D18A
:10490000FBF7B8FE0121172003F098FC554C564DDB
:104910000C231846237003F06DFC207806F05AFE35
:1049200002460B4600204FF0804105F053FC07F093
:1049300077F94E4B28804022002128201A6003F08E
:104940005BFBFEF73BF8002868D14949494A4A4BCE
:1049500008604A4E022111700127152516241720E0
:104960001821072237601D605C609860D9601A6169
:10497000FDF776FF424C434DFBF79CFD2846A560B2
:1049800002F03CF9FFF71CFFC82003F07FFC28462B
:1049900002F034F904F10800012100F0FDFF0021CC
:1049A00004F1080000F0FAFFFDF7B4FE364800F00D
:1049B000E3F9364800F09AFA344800F0EBFA322175
:1049C000324800F06DFC0024A1B2314A2F4800F0BB
:1049D000C3FB2E4800F0DEFA0134052003F056FC3C
:1049E0001B2CF1D10520FDF76BFE4FF4FA7003F09C
:1049F0004DFC002223461146244800F0B3FB234817
:104A000000F0C8FA642003F041FC1E4802F002FAEC
:104A1000204B01221A7002B0BDE8F087FEF71EF8A5
:104A2000A8E700BF30AAFF1F549CFF1F8CA3FF1FE5
:104A300080A4FF1FCCA3FF1F3C8FFF1FA4A3FF1F59
:104A4000709CFF1F548DFF1F0000C042C0E1644CEA
:104A500034A2FF1F4CA4FF1F6F12833A88A3FF1FCD
:104A600068A4FF1F2CA1FF1F50A4FF1FA09CFF1FC5
:104A7000A0A4FF1F248FFF1F408DFF1F3C8DFF1F31
:104A8000E4A1FF1FA09AFF1F68A2FF1F189CFF1F31
:104A90008080800030A2FF1F50A2FF1F54A4FF1F80
:104AA000F0B400259DF810702C4602E00134202C53
:104AB00010D0465D1435002EF8D104EB8404A40018
:104AC000061901250555284671603361B2603773B8
:104AD000F0BC70470020F0BC704700BFF8B50E4630
:104AE00000F1100400F52475002702E01434AC42F4
:104AF00015D014F8103C002BF8D02368B342F5D839
:104B000054F8082C54F80C0C0021FBF79BFE14F809
:104B1000043C2BB904F8107C1434AC42E9D1F8BD44
:104B20000021172003F076FBF4E700BF4FF0FF31C0
:104B3000FFF7D4BFF0B400259DF814702C4602E0B6
:104B40000134202C12D0465D1835002EF8D104EB2C
:104B50004404E4000619012505557160049971614A
:104B60002846B360F2603774F0BC70470020F0BC98
:104B7000704700BF2DE9F0410E4600F1140400F526
:104B80004575002702E01834AC421BD014F8143CE1
:104B9000002BF8D02368B342F5D854F80C2C54F805
:104BA000081C54F8100CFBF725FE14F8043C23B144
:104BB00054F8100C1838352806D904F8147C183429
:104BC000AC42E3D1BDE8F08107F004F9084907F0F1
:104BD00055F905F0DBFA01218046172003F01AFB96
:104BE000404607F011FB0146282003F005FAE4E7F0
:104BF00090759242002308491A46CA541433B3F5FB
:104C0000207FFAD1002305491A46CA541833B3F558
:104C1000407FFAD1704700BFA8A7FF1FA8A4FF1FBD
:104C2000F8B504460E46154600214FF48072103048
:104C30001F4607F07DFE069BC4F818310022079B33
:104C4000C4F8102126606560A760C4F81C31E260DA
:104C5000C4F814212046F8BD10B50446C06808B158
:104C600007F0A6FB204610BD2DE9F843D0F81C3113
:104C7000002B7EDD04460025A3680121585D03F06A
:104C8000C9FAD4F81C310135AB42F5DC002B6EDDDE
:104C90000026B0460127A3680021985D03F0BAFA08
:104CA0004FF44873013BFDD1D4F81831002BC8BF35
:104CB0004FF000092EDC4EE0990724D5D4F81011EE
:104CC000D4F814010131C9B203F0FD03814243F06D
:104CD000080306D0D4F81001204480F81080C4F8EE
:104CE0001011D4F81001D4F814110130C0B2884268
:104CF00009D0D4F8101104EB010E2168495D8EF83B
:104D00001010C4F810015355D4F8183109F10109F5
:104D10004B4520DD6368D4F81C5113F8090003F0FB
:104D20007FFA05FB0965E268535DDBB20028C3D159
:104D30009807E8D4D4F81011D4F814010131C9B29D
:104D4000814243F00603CCD0D4F81001204407740C
:104D5000C4F81011C5E7A3680121985D03F05AFA61
:104D6000D4F81C310136B34295DCBDE8F883BDE8C8
:104D7000F883BDE8F88300BF70B5D0F81851D0F8BB
:104D80001C610446012106FB05F007F083FA002EA2
:104D9000E060C8BF002510DDA3680121585D03F065
:104DA0004DFAA3680121585D03F034FAD4F81C31A0
:104DB0000135AB42F0DCD4F81851002DC8BF0025F6
:104DC0000ADD63680221585D03F038FAD4F818311F
:104DD0000135AB42F5DC70BD70BD00BFD0F81031BD
:104DE000D0F814011B1A4CBF03F580701846401010
:104DF000704700BFD0F81421D0F810319A4220D06B
:104E0000D0F81421D0F8143102440133DBB2117C04
:104E1000C0F81431D0F81421D0F810319A4218D0CB
:104E2000D0F81421D0F8143102440133127CDBB2E3
:104E3000C0F814314FF0000062F3070061F30F2057
:104E40007047D0F81421D0F810319A424FF0FF018A
:104E5000E6D1FF224FF0000062F3070061F30F205C
:104E6000704700BF037AF0B5160C150AF6B2EDB222
:104E70005FFA82FE5BB103FB06F603FB05F503FB5D
:104E80000EFEC6F30726C5F30725CEF3072EC77C13
:104E9000047CBC4214D0C46804EB8101120E0F44A0
:104EA0004BB9D3B23B70077CCE55437CCD54837C49
:104EB00001F803E0F0BD03FB02F3C3F30723F1E7BE
:104EC000C36801EB41011944EEE700BF10B5044689
:104ED000C06807F06DFAB4F90600002803DBC0B221
:104EE000002103F0ABF9204610BD00BF10B5044609
:104EF000B0F90600002807DBC0B2012103F09EF9DB
:104F00000021A07903F086F90123637010BD00BF72
:104F100038B50446C0680D4607F04AFAE37C207CA9
:104F200083420CBF0320042010FB05F080B2A08058
:104F3000012107F0AFF9E06008B1658038BDA080BD
:104F4000608038BDF0B4077CC47CC568C1F38106BD
:104F5000FF29A4EB0704C1F3811201F00307467493
:104F6000B4FA84F48CBF00260126C1F30111C27487
:104F700064098774067001744DB1511AB1FA81F158
:104F80004909A14203D04188F0BCFFF7C1BFF0BC82
:104F9000704700BF2DE9F843C368002B57D045691F
:104FA000044603F051F9854202D903F04DF96061DE
:104FB00003F04AF96569401BB0F5967FF1D372B6EC
:104FC0004649B4F906500B684548464A50F8350042
:104FD000E668A788257843F080730B60136843F078
:104FE000010337441360A5B3A1F55D41F8390A68A0
:104FF000BE4202F196021FD289464FF0010C16F80C
:10500000018B4FF0080E80250B689B1A952BFBD95E
:1050100018EA050FD9F8002080F880C055D00B6839
:105020009B1A5F2BFBD9BEF1010E80F800C14FEA3D
:105030005505E9D1B742E2D12B490B689B1A952B54
:10504000FBD962B603F000F96061BDE8F883BDE802
:10505000F88325490A68BE4202F5967220D2894635
:105060004FF0010C16F8018B4FF0080E80250B68ED
:105070009B1AB3F5967FFAD318EA050FD9F80020EA
:1050800080F880C018D00B689B1A8F2BFBD9BEF11B
:10509000010E80F800C14FEA5505E8D1B742E1D1D1
:1050A00011490B689B1AB3F5967FFAD362B603F0E9
:1050B000CBF86061BDE8F8830B689B1A3B2BE6D800
:1050C0000B689B1A3B2BF7D9E1E70B689B1A1D2B4A
:1050D000A9D80B689B1A1D2BF7D9A4E7FCED00E0BB
:1050E000541F0100001000E0041000E038B54378C0
:1050F0006BB10446B0F9060000280D4609DBC0B2CA
:10510000002103F09BF86378E5801BB938BDC180AE
:1051100038BDE180EDB22846012103F08FF8284622
:105120000021BDE8384003F075B800BF70B5002518
:1051300004460E46457019460572C5604561154620
:10514000FFF700FF31462046FFF7E2FE20462946E2
:10515000FFF7CCFF204670BD43888B4201D9FFF793
:1051600081BE7047F8B514464288A24215D906465A
:105170000F469BB91546134604E00134A4B2AC4275
:105180000BD27388A342F8D9214601343A463046FF
:10519000A4B2FFF767FEAC42F3D3F8BDE518ADB299
:1051A000954228BF1546AC42E5D3F8BD40F2FA530C
:1051B00003FB00F000F500400014B0F5FF7F10B4D1
:1051C00022DAFE2844DDC0F1FE034C1CDBB204FBF6
:1051D00003F3C4EB04241B1224120020C943C9B2F8
:1051E00001320C440B44084402FB04F402FB03F3B9
:1051F00004F47F441B0202FB00F244EA122003F491
:105200007F03184310BC7047B0F57F7F84B20DDA7E
:10521000B4F53F7F26D8831C4C1CDBB204FB03F3A0
:10522000C4EB0424181224120023D7E79C4225D093
:1052300040F2FA439C4228D9C0F1FA004B1CC0B29C
:1052400003FB00F0C3EB032300121B120024C5E78D
:105250004B1CC0B203FB00F0C3EB032304121B1270
:105260000020BBE7C0F1FC004B1CC0B203FB00F008
:10527000C3EB0323041218120023AFE74B1CC3EB4C
:10528000032300201B120446A8E7031DDBB2481CC1
:1052900000FB03F3C0EB00201B12001200249DE76B
:1052A00070B44E1C047AF6B2A64213D0013C14F03E
:1052B000FF04C56810D183882A4653B1137804FBD4
:1052C00003F31B1202F8013B531B81889BB29942E6
:1052D000F4D8067270BC7047FF2905D03302013B39
:1052E00093FBF4F4A4B2E6E74FF6FF7393FBF4F4F8
:1052F000E1E700BF10B483B002AB074C43F8040DE4
:1053000002A91A78A25C03F8012B8B42F9D101980B
:1053100003B010BC704700BF20D100002DE9F0475A
:1053200004460F464FF4806100264FF081406160D3
:105330005FFA87F801214FF000092061217540468E
:105340003146C4F8209084F8246092461D4602F04D
:1053500075FF3146404602F05DFF276084F80CA0DF
:1053600028464FF07E5106F045FF28B14FF07E559C
:10537000A5602046BDE8F0874946284606F01CFF98
:105380000028F5D04D46A5602046BDE8F08700BF57
:10539000037B2DE9F04704460D46002B41D0037DE9
:1053A0000846002B40F0988006F014FDD4F81080D9
:1053B0000646A7693046394606F056FC00210546E8
:1053C00006F018FF002800F0C880284606F042FFCB
:1053D000266A81463146284606F046FC604906F0BA
:1053E0004DFD314606F042FC00212062064606F0E3
:1053F00001FF002800F0AE80414630464FF0010A20
:1054000006F0DAFE08B94FF0000A84F824A04146FD
:10541000304606F0D1FE10B3384606F0F5FEBDE882
:10542000F087A769084606F0D5FC394606F01CFC53
:105430000021054606F0DEFE002871D105F100408E
:1054400006F008FF266A81463146284606F00CFC25
:10545000434906F013FD314606F008FC2062484639
:1054600006F0B4FCA16806F009FD4FF07E5106F08D
:10547000FDFB01464FF07E5006F0B4FD01464FF0B3
:105480007E5006F0F1FB014606F0F0FB4FF07E5136
:10549000064606F0AFFE00284AD04FF07E5029465F
:1054A00006F0ECFC394606F0E1FB00263146A0612F
:1054B000054606F081FE00283CD16068013806F000
:1054C00089FC06460146284606F094FE50BB284655
:1054D00006F09AFEBDE8F08706F07CFCD4F8108058
:1054E0004146064606F068FE40BB6768384606F04F
:1054F00071FC414606F0B8FB0146304606F07AFEE4
:1055000000283FF456AFC7EB450006F063FC414668
:1055100006F0ACFB06F078FE06F05CFC064648E7B9
:1055200028468DE7A661304606F06EFEBDE8F0879E
:105530003046B4E7A6610020BDE8F087680006F0B9
:1055400049FC414606F090FB06F05EFE06F042FC88
:1055500006462EE706F100464EE705F1004035E726
:10556000CDCCCC3EC36A10B504460363FFF710FFF1
:10557000236BE0621B1A18BF012384F8343010BD7E
:105580004318405C5B7803EB002080B2704700BF9B
:10559000012B0BD007D3022B02D1801A00B2704727
:1055A000401A00B27047104400B27047084400B27D
:1055B000704700BF012B0BD007D3022B02D1401A3A
:1055C00000B27047104400B27047084400B2704700
:1055D000801A00B2704700BFF0B40D780668AB18AF
:1055E0003478DBB2072B44FA05F40AD9771C07603C
:1055F000C5F108057078EDB200FA05F5083B2C43BB
:10560000DBB201209040E4B2013820400B70F0BCC6
:10561000704700BF10B50A460C4600F11001FFF7B5
:10562000DBFF013C0123E4B203FA04F4001B40B2A7
:1056300010BD00BF70B505460023816005F8183F16
:1056400000F10806044690F8202029463046FFF76E
:10565000C3FF2946A07594F821203046FFF7BCFF10
:10566000E07570BD10B50B7803704B7843708B7884
:105670008370CB78C3700B7903714B7943718B794D
:105680008371CB79C3710B7A03724B7A43728B7A35
:105690008372CB7AC3720B7B03734B7B43738B7B1D
:1056A0008373CB7BC3730B7C037402460C460846A2
:1056B0001121FFF765FF132150822046FFF760FF9D
:1056C000152190822046FFF75BFFD08210BD00BFFE
:1056D00070B49DF80C40BDF81050032C26D8DFE8BC
:1056E00004F01E170C02006804680395A46BD21A1C
:1056F0000132A44612B270BC604700680668039588
:10570000C3F101042144F46B09B2A44670BC6047A4
:10571000006804680395A46BA44670BC60470068E9
:1057200004680395E46BA44670BC604770BC704786
:105730002DE9F04F87B005460F4690F8148090F899
:1057400015A005920DE06B7E002B47D0A7420AF111
:105750000103A7EB04043AD3E7B25FFA83FA4FF0F0
:10576000000895F81A90B5F90E30AC7D03934FFA06
:1057700088F64FFA8AFB31464B465A46B5F90C007B
:10578000FFF718FFC8EB0404E4B2A74204903146C7
:105790004B463E465A4628BF26460398FFF7F8FE7A
:1057A000002ED3D0059B002BCDD0B5F810E0CDF85E
:1057B0000090334602460499CDF804E02846FFF7EE
:1057C00087FFA7420AF10103A7EB0404C4D24744B0
:1057D0002F7585F815B007B0BDE8F08FB5F812E069
:1057E000E5E700BF2DE9F047044600F10805FFF7A3
:1057F00021FF94F8221094F917902846FFF70AFF2A
:1058000094F8231007462846FFF704FF94F8241065
:1058100006462846FFF7FEFE94F91630002B824616
:105820003ADD4E4494F81A80B4F90C00764276B210
:10583000324643463946FFF7BDFE3246A081434615
:10584000B4F90E003946FFF7A3FE0023E08123756B
:10585000637504F11806A27F31462846FFF7BCFEA7
:10586000E27F804631462846FFF7B6FE0746002213
:1058700041462046FFF75CFF012239462046FFF7EC
:1058800057FF012231462846FFF7A6FE0028EED139
:1058900094F915304B45DEDB5046BDE8F08700BF7C
:1058A00038B54368FF2903F1170310D8602932D8AF
:1058B000402984BFC28D9B18587818B92AE0034448
:1058C000587868B31A788A42F9D1981C38BD428E4C
:1058D0001A440D46144610460021FFF751FE0221DE
:1058E00004441046FFF74CFE854202F10402F2D850
:1058F0002078627852EA00200CD0854202D10DE077
:105900009D420BD0A3781C442078637853EA00238F
:10591000F6D1184638BD028E1344CDE7E01C38BDE1
:1059200038BD00BF38B50446FFF7BAFFC0B104F177
:10593000080501462046FFF77DFE94F82210284610
:10594000FFF768FE94F8231084F834002846FFF728
:1059500061FE284694F82410BDE83840FFF75ABE8F
:1059600038BD00BF4176704710B58181C2811946AC
:105970000446FFF795FF20B101462046FFF732FFAE
:1059800000B210BD42688A4205D0002241604276D2
:105990001C30FFF767BE7047018270474182704735
:1059A00019B94FF6FF710846704790F8463063B951
:1059B000FB291ED9052301F0010180F84630A0F82B
:1059C00044104FF6FE7108467047B0F8442001F0CD
:1059D0003F0141EA8211013BDBB289B24FF6FE7210
:1059E000A0F84410002B18BF114680F84630084636
:1059F0007047F72905D9042301F0030180F84630E8
:105A0000DDE7EF2905D9032301F0070180F84630CF
:105A1000D5E7DF2905D9022301F00F0180F84630D0
:105A2000CDE7BF2905D9012301F01F0180F84630D9
:105A3000C5E789B2B7E700BF00232DE9F047064666
:105A40001C464D1E837780F846309A4600F10808C0
:105A50004FF6FF774FF6FE7915F8011F3046FFF736
:105A60009FFF0346BB420146404608D04B45F3D05A
:105A7000FFF758FF044424B20FFA80FAECE796F9D6
:105A80001E3033B196F93C0003441C44CAEB0400B9
:105A900004B22046BDE8F0872DE9F04F85B0994665
:105AA000BDF93870BDF83CA0BB1AC1EB090B002B47
:105AB000B8BF5B42BBF1000FB8BFCBF1000B5B4539
:105AC0000D4616460093804648DC4D453A4633461F
:105AD0004CDC194613460A46C5EB09019B1A89B2EC
